{
  "_format": "hh-sol-artifact-1",
  "contractName": "StoreV2",
  "sourceName": "contracts/Store/StoreV2.sol",
  "abi": [
    {
      "anonymous": false,
      "inputs": [
        {
          "indexed": true,
          "internalType": "uint8",
          "name": "product",
          "type": "uint8"
        },
        {
          "indexed": true,
          "internalType": "address",
          "name": "recipient",
          "type": "address"
        }
      ],
      "name": "Buy",
      "type": "event"
    },
    {
      "anonymous": false,
      "inputs": [
        {
          "indexed": false,
          "internalType": "uint8",
          "name": "version",
          "type": "uint8"
        }
      ],
      "name": "Initialized",
      "type": "event"
    },
    {
      "anonymous": false,
      "inputs": [
        {
          "indexed": true,
          "internalType": "address",
          "name": "previousOwner",
          "type": "address"
        },
        {
          "indexed": true,
          "internalType": "address",
          "name": "newOwner",
          "type": "address"
        }
      ],
      "name": "OwnershipTransferred",
      "type": "event"
    },
    {
      "anonymous": false,
      "inputs": [
        {
          "indexed": false,
          "internalType": "address",
          "name": "account",
          "type": "address"
        }
      ],
      "name": "Paused",
      "type": "event"
    },
    {
      "anonymous": false,
      "inputs": [
        {
          "indexed": true,
          "internalType": "uint8",
          "name": "product",
          "type": "uint8"
        },
        {
          "indexed": false,
          "internalType": "uint256",
          "name": "priceUSD",
          "type": "uint256"
        }
      ],
      "name": "ProductChanged",
      "type": "event"
    },
    {
      "anonymous": false,
      "inputs": [
        {
          "indexed": true,
          "internalType": "address",
          "name": "info",
          "type": "address"
        }
      ],
      "name": "StorageChanged",
      "type": "event"
    },
    {
      "anonymous": false,
      "inputs": [
        {
          "indexed": false,
          "internalType": "address",
          "name": "account",
          "type": "address"
        }
      ],
      "name": "Unpaused",
      "type": "event"
    },
    {
      "inputs": [
        {
          "internalType": "uint8",
          "name": "product",
          "type": "uint8"
        },
        {
          "internalType": "address",
          "name": "recipient",
          "type": "address"
        }
      ],
      "name": "buy",
      "outputs": [],
      "stateMutability": "payable",
      "type": "function"
    },
    {
      "inputs": [
        {
          "internalType": "uint8",
          "name": "id",
          "type": "uint8"
        },
        {
          "internalType": "uint256",
          "name": "priceUSD",
          "type": "uint256"
        }
      ],
      "name": "changeProduct",
      "outputs": [],
      "stateMutability": "nonpayable",
      "type": "function"
    },
    {
      "inputs": [
        {
          "internalType": "address",
          "name": "_info",
          "type": "address"
        }
      ],
      "name": "changeStorage",
      "outputs": [],
      "stateMutability": "nonpayable",
      "type": "function"
    },
    {
      "inputs": [],
      "name": "info",
      "outputs": [
        {
          "internalType": "contract Storage",
          "name": "",
          "type": "address"
        }
      ],
      "stateMutability": "view",
      "type": "function"
    },
    {
      "inputs": [
        {
          "internalType": "address",
          "name": "_info",
          "type": "address"
        }
      ],
      "name": "initialize",
      "outputs": [],
      "stateMutability": "nonpayable",
      "type": "function"
    },
    {
      "inputs": [],
      "name": "owner",
      "outputs": [
        {
          "internalType": "address",
          "name": "",
          "type": "address"
        }
      ],
      "stateMutability": "view",
      "type": "function"
    },
    {
      "inputs": [],
      "name": "pause",
      "outputs": [],
      "stateMutability": "nonpayable",
      "type": "function"
    },
    {
      "inputs": [],
      "name": "paused",
      "outputs": [
        {
          "internalType": "bool",
          "name": "",
          "type": "bool"
        }
      ],
      "stateMutability": "view",
      "type": "function"
    },
    {
      "inputs": [
        {
          "internalType": "uint8",
          "name": "product",
          "type": "uint8"
        }
      ],
      "name": "price",
      "outputs": [
        {
          "internalType": "uint256",
          "name": "",
          "type": "uint256"
        }
      ],
      "stateMutability": "view",
      "type": "function"
    },
    {
      "inputs": [
        {
          "internalType": "uint8",
          "name": "",
          "type": "uint8"
        }
      ],
      "name": "products",
      "outputs": [
        {
          "internalType": "uint256",
          "name": "",
          "type": "uint256"
        }
      ],
      "stateMutability": "view",
      "type": "function"
    },
    {
      "inputs": [],
      "name": "renounceOwnership",
      "outputs": [],
      "stateMutability": "nonpayable",
      "type": "function"
    },
    {
      "inputs": [
        {
          "internalType": "address",
          "name": "newOwner",
          "type": "address"
        }
      ],
      "name": "transferOwnership",
      "outputs": [],
      "stateMutability": "nonpayable",
      "type": "function"
    },
    {
      "inputs": [],
      "name": "unpause",
      "outputs": [],
      "stateMutability": "nonpayable",
      "type": "function"
    }
  ],
  "bytecode": "0x608060405234801561001057600080fd5b50611026806100206000396000f3fe6080604052600436106100c25760003560e01c8063715018a61161007f578063b7fafcd711610059578063b7fafcd7146101f4578063c4d66de814610214578063c50c97d014610234578063f2fde38b1461025457600080fd5b8063715018a6146101ac5780638456cb59146101c15780638da5cb5b146101d657600080fd5b8063355d2797146100c7578063370158ea146101075780633f4ba83a1461013f5780635c975abb146101565780635f9f353b14610179578063675751c514610199575b600080fd5b3480156100d357600080fd5b506100f46100e2366004610e56565b60986020526000908152604090205481565b6040519081526020015b60405180910390f35b34801561011357600080fd5b50609754610127906001600160a01b031681565b6040516001600160a01b0390911681526020016100fe565b34801561014b57600080fd5b50610154610274565b005b34801561016257600080fd5b5060655460ff1660405190151581526020016100fe565b34801561018557600080fd5b50610154610194366004610ef8565b610286565b6101546101a7366004610ec1565b6102e1565b3480156101b857600080fd5b506101546106a8565b3480156101cd57600080fd5b506101546106ba565b3480156101e257600080fd5b506033546001600160a01b0316610127565b34801561020057600080fd5b506100f461020f366004610e56565b6106ca565b34801561022057600080fd5b5061015461022f366004610e1c565b61087a565b34801561024057600080fd5b5061015461024f366004610e1c565b610a21565b34801561026057600080fd5b5061015461026f366004610e1c565b610ae8565b61027c610b61565b610284610bbb565b565b61028e610b61565b60ff821660008181526098602052604090819020839055517f4653d4e03195792cc3ccc156f8b5e7e79d8c9ffb38eddb428012c14502799d69906102d59084815260200190565b60405180910390a25050565b6102e9610c0d565b60ff821660009081526098602052604090205461034d5760405162461bcd60e51b815260206004820152601d60248201527f53746f72653a3a6275793a20756e646566696e65642070726f6475637400000060448201526064015b60405180910390fd5b6000610358836106ca565b9050803410156103c65760405162461bcd60e51b815260206004820152603360248201527f53746f72653a3a6275793a20696e73756666696369656e742066756e647320746044820152726f207061792070726f6475637420707269636560681b6064820152608401610344565b6097546040516321f8a72160e01b81527f97b6c1bbfe58bd1142f870b705c6115c0d70f24d0df558bd3f57f082d456e89660048201526000916001600160a01b0316906321f8a7219060240160206040518083038186803b15801561042a57600080fd5b505afa15801561043e573d6000803e3d6000fd5b505050506040513d601f19601f820116820180604052508101906104629190610e39565b90506001600160a01b0381166104d05760405162461bcd60e51b815260206004820152602d60248201527f53746f72653a3a6275793a20696e76616c696420747265617375727920636f6e60448201526c7472616374206164647265737360981b6064820152608401610344565b6000816001600160a01b03168360405160006040518083038185875af1925050503d806000811461051d576040519150601f19603f3d011682016040523d82523d6000602084013e610522565b606091505b50509050806105995760405162461bcd60e51b815260206004820152603c60248201527f53746f72653a3a6275793a207472616e73666572206f662070726f647563742060448201527f66756e647320746f20746865207472656173757279206661696c6564000000006064820152608401610344565b82341115610668576000336105ae8534610fae565b604051600081818185875af1925050503d80600081146105ea576040519150601f19603f3d011682016040523d82523d6000602084013e6105ef565b606091505b50509050806106665760405162461bcd60e51b815260206004820152603c60248201527f53746f72653a3a6275793a207472616e73666572206f662072656d61696e656460448201527f20746f6b656e7320746f207468652073656e646572206661696c6564000000006064820152608401610344565b505b6040516001600160a01b0385169060ff8716907f2c63ae6df00e90babc5d4997368fce457d90df78673d14a11435b7e4ecc2394090600090a35050505050565b6106b0610b61565b6102846000610c53565b6106c2610b61565b610284610ca5565b6097546040516321f8a72160e01b81527f65c90423fe7c880476633a7e36521740f87199d233dc56eb4ca6643eb76f605f600482015260009182916001600160a01b03909116906321f8a7219060240160206040518083038186803b15801561073257600080fd5b505afa158015610746573d6000803e3d6000fd5b505050506040513d601f19601f8201168201806040525081019061076a9190610e39565b6001600160a01b031663feaf968c6040518163ffffffff1660e01b815260040160a06040518083038186803b1580156107a257600080fd5b505afa1580156107b6573d6000803e3d6000fd5b505050506040513d601f19601f820116820180604052508101906107da9190610e71565b505050915050600081136108425760405162461bcd60e51b815260206004820152602960248201527f53746f72653a3a70726963653a20696e76616c6964207072696365206665656460448201526820726573706f6e736560b81b6064820152608401610344565b60ff8316600090815260986020526040902054819061086990670de0b6b3a7640000610f8f565b6108739190610f6d565b9392505050565b600054610100900460ff161580801561089a5750600054600160ff909116105b806108b45750303b1580156108b4575060005460ff166001145b6109175760405162461bcd60e51b815260206004820152602e60248201527f496e697469616c697a61626c653a20636f6e747261637420697320616c72656160448201526d191e481a5b9a5d1a585b1a5e995960921b6064820152608401610344565b6000805460ff19166001179055801561093a576000805461ff0019166101001790555b6001600160a01b0382166109ac5760405162461bcd60e51b815260206004820152603360248201527f53746f72653a3a696e697469616c697a653a20696e76616c69642073746f7261604482015272676520636f6e7472616374206164647265737360681b6064820152608401610344565b6109b4610ce2565b6109bc610d11565b609780546001600160a01b0319166001600160a01b0384161790558015610a1d576000805461ff0019169055604051600181527f7f26b83ff96e1f2b6a682f133852f6798a09c465da95921460cefb38474024989060200160405180910390a15b5050565b610a29610b61565b6001600160a01b038116610a9e5760405162461bcd60e51b815260206004820152603660248201527f53746f72653a3a6368616e676553746f726167653a20696e76616c69642073746044820152756f7261676520636f6e7472616374206164647265737360501b6064820152608401610344565b609780546001600160a01b0319166001600160a01b0383169081179091556040517f8cbb7a6ee88dbf214a9b660a9f1af063e42a24cbfe26a046a718b3f621baa53990600090a250565b610af0610b61565b6001600160a01b038116610b555760405162461bcd60e51b815260206004820152602660248201527f4f776e61626c653a206e6577206f776e657220697320746865207a65726f206160448201526564647265737360d01b6064820152608401610344565b610b5e81610c53565b50565b6033546001600160a01b031633146102845760405162461bcd60e51b815260206004820181905260248201527f4f776e61626c653a2063616c6c6572206973206e6f7420746865206f776e65726044820152606401610344565b610bc3610d40565b6065805460ff191690557f5db9ee0a495bf2e6ff9c91a7834c1ba4fdd244a5e8aa4e537bd38aeae4b073aa335b6040516001600160a01b03909116815260200160405180910390a1565b60655460ff16156102845760405162461bcd60e51b815260206004820152601060248201526f14185d5cd8589b194e881c185d5cd95960821b6044820152606401610344565b603380546001600160a01b038381166001600160a01b0319831681179093556040519116919082907f8be0079c531659141344cd1fd0a4f28419497f9722a3daafe3b4186f6b6457e090600090a35050565b610cad610c0d565b6065805460ff191660011790557f62e78cea01bee320cd4e420270b5ea74000d11b0c9f74754ebdbfc544b05a258610bf03390565b600054610100900460ff16610d095760405162461bcd60e51b815260040161034490610f22565b610284610d89565b600054610100900460ff16610d385760405162461bcd60e51b815260040161034490610f22565b610284610db9565b60655460ff166102845760405162461bcd60e51b815260206004820152601460248201527314185d5cd8589b194e881b9bdd081c185d5cd95960621b6044820152606401610344565b600054610100900460ff16610db05760405162461bcd60e51b815260040161034490610f22565b61028433610c53565b600054610100900460ff16610de05760405162461bcd60e51b815260040161034490610f22565b6065805460ff19169055565b803560ff81168114610dfd57600080fd5b919050565b805169ffffffffffffffffffff81168114610dfd57600080fd5b600060208284031215610e2e57600080fd5b813561087381610fdb565b600060208284031215610e4b57600080fd5b815161087381610fdb565b600060208284031215610e6857600080fd5b61087382610dec565b600080600080600060a08688031215610e8957600080fd5b610e9286610e02565b9450602086015193506040860151925060608601519150610eb560808701610e02565b90509295509295909350565b60008060408385031215610ed457600080fd5b610edd83610dec565b91506020830135610eed81610fdb565b809150509250929050565b60008060408385031215610f0b57600080fd5b610f1483610dec565b946020939093013593505050565b6020808252602b908201527f496e697469616c697a61626c653a20636f6e7472616374206973206e6f74206960408201526a6e697469616c697a696e6760a81b606082015260800190565b600082610f8a57634e487b7160e01b600052601260045260246000fd5b500490565b6000816000190483118215151615610fa957610fa9610fc5565b500290565b600082821015610fc057610fc0610fc5565b500390565b634e487b7160e01b600052601160045260246000fd5b6001600160a01b0381168114610b5e57600080fdfea2646970667358221220b7ee628a4daf0e2d71c749d002691483736ace458646d7b1a5f57ec56346604764736f6c63430008060033",
  "linkReferences": {},
  "deployedLinkReferences": {}
}