{
  "name": "Storage",
  "address": "0xf4F3Aa8F92227dE22D647beF0aC1B5Cba1878fa9",
  "abi": [
    {
      "anonymous": false,
      "inputs": [
        {
          "indexed": true,
          "internalType": "address",
          "name": "previousOwner",
          "type": "address"
        },
        {
          "indexed": true,
          "internalType": "address",
          "name": "newOwner",
          "type": "address"
        }
      ],
      "name": "OwnershipTransferred",
      "type": "event"
    },
    {
      "anonymous": false,
      "inputs": [
        {
          "indexed": true,
          "internalType": "bytes32",
          "name": "key",
          "type": "bytes32"
        }
      ],
      "name": "Updated",
      "type": "event"
    },
    {
      "inputs": [
        {
          "internalType": "bytes32",
          "name": "key",
          "type": "bytes32"
        }
      ],
      "name": "deleteAddress",
      "outputs": [],
      "stateMutability": "nonpayable",
      "type": "function"
    },
    {
      "inputs": [
        {
          "internalType": "bytes32",
          "name": "key",
          "type": "bytes32"
        }
      ],
      "name": "deleteBool",
      "outputs": [],
      "stateMutability": "nonpayable",
      "type": "function"
    },
    {
      "inputs": [
        {
          "internalType": "bytes32",
          "name": "key",
          "type": "bytes32"
        }
      ],
      "name": "deleteBytes",
      "outputs": [],
      "stateMutability": "nonpayable",
      "type": "function"
    },
    {
      "inputs": [
        {
          "internalType": "bytes32",
          "name": "key",
          "type": "bytes32"
        }
      ],
      "name": "deleteInt",
      "outputs": [],
      "stateMutability": "nonpayable",
      "type": "function"
    },
    {
      "inputs": [
        {
          "internalType": "bytes32",
          "name": "key",
          "type": "bytes32"
        }
      ],
      "name": "deleteString",
      "outputs": [],
      "stateMutability": "nonpayable",
      "type": "function"
    },
    {
      "inputs": [
        {
          "internalType": "bytes32",
          "name": "key",
          "type": "bytes32"
        }
      ],
      "name": "deleteUint",
      "outputs": [],
      "stateMutability": "nonpayable",
      "type": "function"
    },
    {
      "inputs": [
        {
          "internalType": "bytes32",
          "name": "key",
          "type": "bytes32"
        }
      ],
      "name": "getAddress",
      "outputs": [
        {
          "internalType": "address",
          "name": "",
          "type": "address"
        }
      ],
      "stateMutability": "view",
      "type": "function"
    },
    {
      "inputs": [
        {
          "internalType": "bytes32",
          "name": "key",
          "type": "bytes32"
        }
      ],
      "name": "getBool",
      "outputs": [
        {
          "internalType": "bool",
          "name": "",
          "type": "bool"
        }
      ],
      "stateMutability": "view",
      "type": "function"
    },
    {
      "inputs": [
        {
          "internalType": "bytes32",
          "name": "key",
          "type": "bytes32"
        }
      ],
      "name": "getBytes",
      "outputs": [
        {
          "internalType": "bytes",
          "name": "",
          "type": "bytes"
        }
      ],
      "stateMutability": "view",
      "type": "function"
    },
    {
      "inputs": [
        {
          "internalType": "bytes32",
          "name": "key",
          "type": "bytes32"
        }
      ],
      "name": "getInt",
      "outputs": [
        {
          "internalType": "int256",
          "name": "",
          "type": "int256"
        }
      ],
      "stateMutability": "view",
      "type": "function"
    },
    {
      "inputs": [
        {
          "internalType": "bytes32",
          "name": "key",
          "type": "bytes32"
        }
      ],
      "name": "getString",
      "outputs": [
        {
          "internalType": "string",
          "name": "",
          "type": "string"
        }
      ],
      "stateMutability": "view",
      "type": "function"
    },
    {
      "inputs": [
        {
          "internalType": "bytes32",
          "name": "key",
          "type": "bytes32"
        }
      ],
      "name": "getUint",
      "outputs": [
        {
          "internalType": "uint256",
          "name": "",
          "type": "uint256"
        }
      ],
      "stateMutability": "view",
      "type": "function"
    },
    {
      "inputs": [],
      "name": "owner",
      "outputs": [
        {
          "internalType": "address",
          "name": "",
          "type": "address"
        }
      ],
      "stateMutability": "view",
      "type": "function"
    },
    {
      "inputs": [],
      "name": "renounceOwnership",
      "outputs": [],
      "stateMutability": "nonpayable",
      "type": "function"
    },
    {
      "inputs": [
        {
          "internalType": "bytes32",
          "name": "key",
          "type": "bytes32"
        },
        {
          "internalType": "address",
          "name": "value",
          "type": "address"
        }
      ],
      "name": "setAddress",
      "outputs": [],
      "stateMutability": "nonpayable",
      "type": "function"
    },
    {
      "inputs": [
        {
          "internalType": "bytes32",
          "name": "key",
          "type": "bytes32"
        },
        {
          "internalType": "bool",
          "name": "value",
          "type": "bool"
        }
      ],
      "name": "setBool",
      "outputs": [],
      "stateMutability": "nonpayable",
      "type": "function"
    },
    {
      "inputs": [
        {
          "internalType": "bytes32",
          "name": "key",
          "type": "bytes32"
        },
        {
          "internalType": "bytes",
          "name": "value",
          "type": "bytes"
        }
      ],
      "name": "setBytes",
      "outputs": [],
      "stateMutability": "nonpayable",
      "type": "function"
    },
    {
      "inputs": [
        {
          "internalType": "bytes32",
          "name": "key",
          "type": "bytes32"
        },
        {
          "internalType": "int256",
          "name": "value",
          "type": "int256"
        }
      ],
      "name": "setInt",
      "outputs": [],
      "stateMutability": "nonpayable",
      "type": "function"
    },
    {
      "inputs": [
        {
          "internalType": "bytes32",
          "name": "key",
          "type": "bytes32"
        },
        {
          "internalType": "string",
          "name": "value",
          "type": "string"
        }
      ],
      "name": "setString",
      "outputs": [],
      "stateMutability": "nonpayable",
      "type": "function"
    },
    {
      "inputs": [
        {
          "internalType": "bytes32",
          "name": "key",
          "type": "bytes32"
        },
        {
          "internalType": "uint256",
          "name": "value",
          "type": "uint256"
        }
      ],
      "name": "setUint",
      "outputs": [],
      "stateMutability": "nonpayable",
      "type": "function"
    },
    {
      "inputs": [
        {
          "internalType": "address",
          "name": "newOwner",
          "type": "address"
        }
      ],
      "name": "transferOwnership",
      "outputs": [],
      "stateMutability": "nonpayable",
      "type": "function"
    }
  ],
  "transactionHash": "0x15c202c02c737b7ee3660a3bac1a8f2ecbe4897d881b20de3f3d0728c9340870",
  "blockNumber": 1351177,
  "args": [],
  "solcInputHash": "bd095c44d81e51c4959fcae1aa8a4e30",
  "bytecode": "0x608060405234801561001057600080fd5b5061001a3361001f565b61006f565b600080546001600160a01b038381166001600160a01b0319831681178455604051919092169283917f8be0079c531659141344cd1fd0a4f28419497f9722a3daafe3b4186f6b6457e09190a35050565b610ca38061007e6000396000f3fe608060405234801561001057600080fd5b50600436106101375760003560e01c80638da5cb5b116100b8578063ca446dd91161007c578063ca446dd9146102c9578063dc97d962146102dc578063e2a4853a146102fc578063e2b202bf1461030f578063f2fde38b14610322578063f6bb3cc41461033557600080fd5b80638da5cb5b14610244578063986e791a14610255578063abfdcced14610275578063bd02d0f514610288578063c031a180146102b657600080fd5b8063616b59f6116100ff578063616b59f6146101d05780636e899550146101e3578063715018a6146101f65780637ae1cfca146101fe5780638c1600951461023157600080fd5b80630e14a3761461013c57806321f8a721146101515780632c62ff2d146101975780632e28d084146101aa5780633e49bed0146101bd575b600080fd5b61014f61014a366004610a95565b610348565b005b61017a61015f366004610a95565b6000908152600560205260409020546001600160a01b031690565b6040516001600160a01b0390911681526020015b60405180910390f35b61014f6101a5366004610a95565b6103af565b61014f6101b8366004610b0f565b610407565b61014f6101cb366004610b5b565b610469565b61014f6101de366004610a95565b6104bd565b61014f6101f1366004610b0f565b61051a565b61014f61055d565b61022161020c366004610a95565b60009081526002602052604090205460ff1690565b604051901515815260200161018e565b61014f61023f366004610a95565b610593565b6000546001600160a01b031661017a565b610268610263366004610a95565b6105e6565b60405161018e9190610bca565b61014f610283366004610ada565b610688565b6102a8610296366004610a95565b60009081526003602052604090205490565b60405190815260200161018e565b6102686102c4366004610a95565b6106e5565b61014f6102d7366004610aae565b610702565b6102a86102ea366004610a95565b60009081526004602052604090205490565b61014f61030a366004610b5b565b61076c565b61014f61031d366004610a95565b6107c0565b61014f610330366004610a73565b610813565b61014f610343366004610a95565b6108ae565b6000546001600160a01b0316331461037b5760405162461bcd60e51b815260040161037290610bdd565b60405180910390fd5b60008181526005602052604080822080546001600160a01b0319169055518291600080516020610c4e83398151915291a250565b6000546001600160a01b031633146103d95760405162461bcd60e51b815260040161037290610bdd565b600081815260026020526040808220805460ff19169055518291600080516020610c4e83398151915291a250565b6000546001600160a01b031633146104315760405162461bcd60e51b815260040161037290610bdd565b600083815260016020526040902061044a90838361093f565b506040518390600080516020610c4e83398151915290600090a2505050565b6000546001600160a01b031633146104935760405162461bcd60e51b815260040161037290610bdd565b600082815260046020526040808220839055518391600080516020610c4e83398151915291a25050565b6000546001600160a01b031633146104e75760405162461bcd60e51b815260040161037290610bdd565b60008181526001602052604081206104fe916109c3565b6040518190600080516020610c4e83398151915290600090a250565b6000546001600160a01b031633146105445760405162461bcd60e51b815260040161037290610bdd565b600083815260066020526040902061044a90838361093f565b6000546001600160a01b031633146105875760405162461bcd60e51b815260040161037290610bdd565b61059160006108ef565b565b6000546001600160a01b031633146105bd5760405162461bcd60e51b815260040161037290610bdd565b600081815260046020526040808220829055518291600080516020610c4e83398151915291a250565b600081815260066020526040902080546060919061060390610c12565b80601f016020809104026020016040519081016040528092919081815260200182805461062f90610c12565b801561067c5780601f106106515761010080835404028352916020019161067c565b820191906000526020600020905b81548152906001019060200180831161065f57829003601f168201915b50505050509050919050565b6000546001600160a01b031633146106b25760405162461bcd60e51b815260040161037290610bdd565b600082815260026020526040808220805460ff1916841515179055518391600080516020610c4e83398151915291a25050565b600081815260016020526040902080546060919061060390610c12565b6000546001600160a01b0316331461072c5760405162461bcd60e51b815260040161037290610bdd565b60008281526005602052604080822080546001600160a01b0319166001600160a01b038516179055518391600080516020610c4e83398151915291a25050565b6000546001600160a01b031633146107965760405162461bcd60e51b815260040161037290610bdd565b600082815260036020526040808220839055518391600080516020610c4e83398151915291a25050565b6000546001600160a01b031633146107ea5760405162461bcd60e51b815260040161037290610bdd565b600081815260036020526040808220829055518291600080516020610c4e83398151915291a250565b6000546001600160a01b0316331461083d5760405162461bcd60e51b815260040161037290610bdd565b6001600160a01b0381166108a25760405162461bcd60e51b815260206004820152602660248201527f4f776e61626c653a206e6577206f776e657220697320746865207a65726f206160448201526564647265737360d01b6064820152608401610372565b6108ab816108ef565b50565b6000546001600160a01b031633146108d85760405162461bcd60e51b815260040161037290610bdd565b60008181526006602052604081206104fe916109c3565b600080546001600160a01b038381166001600160a01b0319831681178455604051919092169283917f8be0079c531659141344cd1fd0a4f28419497f9722a3daafe3b4186f6b6457e09190a35050565b82805461094b90610c12565b90600052602060002090601f01602090048101928261096d57600085556109b3565b82601f106109865782800160ff198235161785556109b3565b828001600101855582156109b3579182015b828111156109b3578235825591602001919060010190610998565b506109bf9291506109f9565b5090565b5080546109cf90610c12565b6000825580601f106109df575050565b601f0160209004906000526020600020908101906108ab91905b5b808211156109bf57600081556001016109fa565b80356001600160a01b0381168114610a2557600080fd5b919050565b60008083601f840112610a3c57600080fd5b50813567ffffffffffffffff811115610a5457600080fd5b602083019150836020828501011115610a6c57600080fd5b9250929050565b600060208284031215610a8557600080fd5b610a8e82610a0e565b9392505050565b600060208284031215610aa757600080fd5b5035919050565b60008060408385031215610ac157600080fd5b82359150610ad160208401610a0e565b90509250929050565b60008060408385031215610aed57600080fd5b8235915060208301358015158114610b0457600080fd5b809150509250929050565b600080600060408486031215610b2457600080fd5b83359250602084013567ffffffffffffffff811115610b4257600080fd5b610b4e86828701610a2a565b9497909650939450505050565b60008060408385031215610b6e57600080fd5b50508035926020909101359150565b6000815180845260005b81811015610ba357602081850181015186830182015201610b87565b81811115610bb5576000602083870101525b50601f01601f19169290920160200192915050565b602081526000610a8e6020830184610b7d565b6020808252818101527f4f776e61626c653a2063616c6c6572206973206e6f7420746865206f776e6572604082015260600190565b600181811c90821680610c2657607f821691505b60208210811415610c4757634e487b7160e01b600052602260045260246000fd5b5091905056feae7f59c2ef152eb4d4f56fcc655f53926d60b7e58e08ec8c79387e25adbf3331a264697066735822122022e1fba847223bfe33ab278064fee02dc709652e01c210b51b6f0810aa44682064736f6c63430008060033",
  "devdoc": {
    "kind": "dev",
    "methods": {
      "deleteAddress(bytes32)": {
        "params": {
          "key": "The key for the record"
        }
      },
      "deleteBool(bytes32)": {
        "params": {
          "key": "The key for the record"
        }
      },
      "deleteBytes(bytes32)": {
        "params": {
          "key": "The key for the record"
        }
      },
      "deleteInt(bytes32)": {
        "params": {
          "key": "The key for the record"
        }
      },
      "deleteString(bytes32)": {
        "params": {
          "key": "The key for the record"
        }
      },
      "deleteUint(bytes32)": {
        "params": {
          "key": "The key for the record"
        }
      },
      "getAddress(bytes32)": {
        "params": {
          "key": "The key for the record"
        }
      },
      "getBool(bytes32)": {
        "params": {
          "key": "The key for the record"
        }
      },
      "getBytes(bytes32)": {
        "params": {
          "key": "The key for the record"
        }
      },
      "getInt(bytes32)": {
        "params": {
          "key": "The key for the record"
        }
      },
      "getString(bytes32)": {
        "params": {
          "key": "The key for the record"
        }
      },
      "getUint(bytes32)": {
        "params": {
          "key": "The key for the record"
        }
      },
      "owner()": {
        "details": "Returns the address of the current owner."
      },
      "renounceOwnership()": {
        "details": "Leaves the contract without owner. It will not be possible to call `onlyOwner` functions anymore. Can only be called by the current owner. NOTE: Renouncing ownership will leave the contract without an owner, thereby removing any functionality that is only available to the owner."
      },
      "setAddress(bytes32,address)": {
        "params": {
          "key": "The key for the record",
          "value": "The value to set."
        }
      },
      "setBool(bytes32,bool)": {
        "params": {
          "key": "The key for the record",
          "value": "The value to set."
        }
      },
      "setBytes(bytes32,bytes)": {
        "params": {
          "key": "The key for the record",
          "value": "The value to set."
        }
      },
      "setInt(bytes32,int256)": {
        "params": {
          "key": "The key for the record",
          "value": "The value to set."
        }
      },
      "setString(bytes32,string)": {
        "params": {
          "key": "The key for the record",
          "value": "The value to set."
        }
      },
      "setUint(bytes32,uint256)": {
        "params": {
          "key": "The key for the record",
          "value": "The value to set."
        }
      },
      "transferOwnership(address)": {
        "details": "Transfers ownership of the contract to a new account (`newOwner`). Can only be called by the current owner."
      }
    },
    "stateVariables": {
      "_address": {
        "details": "Address storage."
      },
      "_bool": {
        "details": "Bool storage."
      },
      "_bytes": {
        "details": "Bytes storage."
      },
      "_int": {
        "details": "Int storage."
      },
      "_string": {
        "details": "String storage."
      },
      "_uint": {
        "details": "Uint storage."
      }
    },
    "version": 1
  },
  "userdoc": {
    "kind": "user",
    "methods": {},
    "version": 1
  },
  "storageLayout": {
    "storage": [
      {
        "astId": 53,
        "contract": "contracts/Storage.sol:Storage",
        "label": "_owner",
        "offset": 0,
        "slot": "0",
        "type": "t_address"
      },
      {
        "astId": 2676,
        "contract": "contracts/Storage.sol:Storage",
        "label": "_bytes",
        "offset": 0,
        "slot": "1",
        "type": "t_mapping(t_bytes32,t_bytes_storage)"
      },
      {
        "astId": 2681,
        "contract": "contracts/Storage.sol:Storage",
        "label": "_bool",
        "offset": 0,
        "slot": "2",
        "type": "t_mapping(t_bytes32,t_bool)"
      },
      {
        "astId": 2686,
        "contract": "contracts/Storage.sol:Storage",
        "label": "_uint",
        "offset": 0,
        "slot": "3",
        "type": "t_mapping(t_bytes32,t_uint256)"
      },
      {
        "astId": 2691,
        "contract": "contracts/Storage.sol:Storage",
        "label": "_int",
        "offset": 0,
        "slot": "4",
        "type": "t_mapping(t_bytes32,t_int256)"
      },
      {
        "astId": 2696,
        "contract": "contracts/Storage.sol:Storage",
        "label": "_address",
        "offset": 0,
        "slot": "5",
        "type": "t_mapping(t_bytes32,t_address)"
      },
      {
        "astId": 2701,
        "contract": "contracts/Storage.sol:Storage",
        "label": "_string",
        "offset": 0,
        "slot": "6",
        "type": "t_mapping(t_bytes32,t_string_storage)"
      }
    ],
    "types": {
      "t_address": {
        "encoding": "inplace",
        "label": "address",
        "numberOfBytes": "20"
      },
      "t_bool": {
        "encoding": "inplace",
        "label": "bool",
        "numberOfBytes": "1"
      },
      "t_bytes32": {
        "encoding": "inplace",
        "label": "bytes32",
        "numberOfBytes": "32"
      },
      "t_bytes_storage": {
        "encoding": "bytes",
        "label": "bytes",
        "numberOfBytes": "32"
      },
      "t_int256": {
        "encoding": "inplace",
        "label": "int256",
        "numberOfBytes": "32"
      },
      "t_mapping(t_bytes32,t_address)": {
        "encoding": "mapping",
        "key": "t_bytes32",
        "label": "mapping(bytes32 => address)",
        "numberOfBytes": "32",
        "value": "t_address"
      },
      "t_mapping(t_bytes32,t_bool)": {
        "encoding": "mapping",
        "key": "t_bytes32",
        "label": "mapping(bytes32 => bool)",
        "numberOfBytes": "32",
        "value": "t_bool"
      },
      "t_mapping(t_bytes32,t_bytes_storage)": {
        "encoding": "mapping",
        "key": "t_bytes32",
        "label": "mapping(bytes32 => bytes)",
        "numberOfBytes": "32",
        "value": "t_bytes_storage"
      },
      "t_mapping(t_bytes32,t_int256)": {
        "encoding": "mapping",
        "key": "t_bytes32",
        "label": "mapping(bytes32 => int256)",
        "numberOfBytes": "32",
        "value": "t_int256"
      },
      "t_mapping(t_bytes32,t_string_storage)": {
        "encoding": "mapping",
        "key": "t_bytes32",
        "label": "mapping(bytes32 => string)",
        "numberOfBytes": "32",
        "value": "t_string_storage"
      },
      "t_mapping(t_bytes32,t_uint256)": {
        "encoding": "mapping",
        "key": "t_bytes32",
        "label": "mapping(bytes32 => uint256)",
        "numberOfBytes": "32",
        "value": "t_uint256"
      },
      "t_string_storage": {
        "encoding": "bytes",
        "label": "string",
        "numberOfBytes": "32"
      },
      "t_uint256": {
        "encoding": "inplace",
        "label": "uint256",
        "numberOfBytes": "32"
      }
    }
  }
}