{
  "_format": "hh-sol-artifact-1",
  "contractName": "Router",
  "sourceName": "contracts/automate/SmartTrade/Router.sol",
  "abi": [
    {
      "inputs": [
        {
          "internalType": "address",
          "name": "_info",
          "type": "address"
        }
      ],
      "stateMutability": "nonpayable",
      "type": "constructor"
    },
    {
      "anonymous": false,
      "inputs": [
        {
          "indexed": true,
          "internalType": "address",
          "name": "handler",
          "type": "address"
        }
      ],
      "name": "HandlerAdded",
      "type": "event"
    },
    {
      "anonymous": false,
      "inputs": [
        {
          "indexed": true,
          "internalType": "address",
          "name": "handler",
          "type": "address"
        }
      ],
      "name": "HandlerRemoved",
      "type": "event"
    },
    {
      "anonymous": false,
      "inputs": [
        {
          "indexed": true,
          "internalType": "uint256",
          "name": "id",
          "type": "uint256"
        }
      ],
      "name": "OrderCanceled",
      "type": "event"
    },
    {
      "anonymous": false,
      "inputs": [
        {
          "indexed": true,
          "internalType": "uint256",
          "name": "id",
          "type": "uint256"
        },
        {
          "indexed": true,
          "internalType": "address",
          "name": "owner",
          "type": "address"
        },
        {
          "indexed": true,
          "internalType": "address",
          "name": "handler",
          "type": "address"
        }
      ],
      "name": "OrderCreated",
      "type": "event"
    },
    {
      "anonymous": false,
      "inputs": [
        {
          "indexed": true,
          "internalType": "uint256",
          "name": "id",
          "type": "uint256"
        }
      ],
      "name": "OrderSuccessed",
      "type": "event"
    },
    {
      "anonymous": false,
      "inputs": [
        {
          "indexed": true,
          "internalType": "address",
          "name": "previousOwner",
          "type": "address"
        },
        {
          "indexed": true,
          "internalType": "address",
          "name": "newOwner",
          "type": "address"
        }
      ],
      "name": "OwnershipTransferred",
      "type": "event"
    },
    {
      "anonymous": false,
      "inputs": [
        {
          "indexed": false,
          "internalType": "address",
          "name": "account",
          "type": "address"
        }
      ],
      "name": "Paused",
      "type": "event"
    },
    {
      "anonymous": false,
      "inputs": [
        {
          "indexed": true,
          "internalType": "address",
          "name": "info",
          "type": "address"
        }
      ],
      "name": "StorageChanged",
      "type": "event"
    },
    {
      "anonymous": false,
      "inputs": [
        {
          "indexed": false,
          "internalType": "address",
          "name": "account",
          "type": "address"
        }
      ],
      "name": "Unpaused",
      "type": "event"
    },
    {
      "inputs": [
        {
          "internalType": "address",
          "name": "account",
          "type": "address"
        },
        {
          "internalType": "address",
          "name": "token",
          "type": "address"
        }
      ],
      "name": "balanceOf",
      "outputs": [
        {
          "internalType": "uint256",
          "name": "",
          "type": "uint256"
        }
      ],
      "stateMutability": "view",
      "type": "function"
    },
    {
      "inputs": [
        {
          "internalType": "uint256",
          "name": "id",
          "type": "uint256"
        }
      ],
      "name": "cancelOrder",
      "outputs": [],
      "stateMutability": "nonpayable",
      "type": "function"
    },
    {
      "inputs": [
        {
          "internalType": "address",
          "name": "_info",
          "type": "address"
        }
      ],
      "name": "changeStorage",
      "outputs": [],
      "stateMutability": "nonpayable",
      "type": "function"
    },
    {
      "inputs": [
        {
          "internalType": "address",
          "name": "handler",
          "type": "address"
        },
        {
          "internalType": "bytes",
          "name": "callData",
          "type": "bytes"
        },
        {
          "internalType": "address",
          "name": "token",
          "type": "address"
        },
        {
          "internalType": "uint256",
          "name": "amount",
          "type": "uint256"
        }
      ],
      "name": "createOrder",
      "outputs": [
        {
          "internalType": "uint256",
          "name": "",
          "type": "uint256"
        }
      ],
      "stateMutability": "payable",
      "type": "function"
    },
    {
      "inputs": [
        {
          "internalType": "address",
          "name": "recipient",
          "type": "address"
        },
        {
          "internalType": "address",
          "name": "token",
          "type": "address"
        },
        {
          "internalType": "uint256",
          "name": "amount",
          "type": "uint256"
        }
      ],
      "name": "deposit",
      "outputs": [],
      "stateMutability": "nonpayable",
      "type": "function"
    },
    {
      "inputs": [],
      "name": "fee",
      "outputs": [
        {
          "internalType": "uint256",
          "name": "",
          "type": "uint256"
        }
      ],
      "stateMutability": "view",
      "type": "function"
    },
    {
      "inputs": [
        {
          "internalType": "uint256",
          "name": "id",
          "type": "uint256"
        },
        {
          "internalType": "uint256",
          "name": "gasFee",
          "type": "uint256"
        }
      ],
      "name": "handleOrder",
      "outputs": [],
      "stateMutability": "nonpayable",
      "type": "function"
    },
    {
      "inputs": [],
      "name": "info",
      "outputs": [
        {
          "internalType": "contract Storage",
          "name": "",
          "type": "address"
        }
      ],
      "stateMutability": "view",
      "type": "function"
    },
    {
      "inputs": [
        {
          "internalType": "uint256",
          "name": "id",
          "type": "uint256"
        }
      ],
      "name": "order",
      "outputs": [
        {
          "components": [
            {
              "internalType": "uint256",
              "name": "id",
              "type": "uint256"
            },
            {
              "internalType": "address",
              "name": "owner",
              "type": "address"
            },
            {
              "internalType": "enum Router.OrderStatus",
              "name": "status",
              "type": "uint8"
            },
            {
              "internalType": "address",
              "name": "handler",
              "type": "address"
            },
            {
              "internalType": "bytes",
              "name": "callData",
              "type": "bytes"
            }
          ],
          "internalType": "struct Router.Order",
          "name": "",
          "type": "tuple"
        }
      ],
      "stateMutability": "view",
      "type": "function"
    },
    {
      "inputs": [],
      "name": "ordersCount",
      "outputs": [
        {
          "internalType": "uint256",
          "name": "",
          "type": "uint256"
        }
      ],
      "stateMutability": "view",
      "type": "function"
    },
    {
      "inputs": [],
      "name": "owner",
      "outputs": [
        {
          "internalType": "address",
          "name": "",
          "type": "address"
        }
      ],
      "stateMutability": "view",
      "type": "function"
    },
    {
      "inputs": [],
      "name": "pause",
      "outputs": [],
      "stateMutability": "nonpayable",
      "type": "function"
    },
    {
      "inputs": [],
      "name": "paused",
      "outputs": [
        {
          "internalType": "bool",
          "name": "",
          "type": "bool"
        }
      ],
      "stateMutability": "view",
      "type": "function"
    },
    {
      "inputs": [
        {
          "internalType": "address",
          "name": "spender",
          "type": "address"
        },
        {
          "internalType": "address",
          "name": "token",
          "type": "address"
        },
        {
          "internalType": "uint256",
          "name": "amount",
          "type": "uint256"
        }
      ],
      "name": "refund",
      "outputs": [],
      "stateMutability": "nonpayable",
      "type": "function"
    },
    {
      "inputs": [],
      "name": "renounceOwnership",
      "outputs": [],
      "stateMutability": "nonpayable",
      "type": "function"
    },
    {
      "inputs": [
        {
          "internalType": "address",
          "name": "newOwner",
          "type": "address"
        }
      ],
      "name": "transferOwnership",
      "outputs": [],
      "stateMutability": "nonpayable",
      "type": "function"
    },
    {
      "inputs": [],
      "name": "unpause",
      "outputs": [],
      "stateMutability": "nonpayable",
      "type": "function"
    }
  ],
  "bytecode": "0x60806040523480156200001157600080fd5b506040516200251838038062002518833981016040819052620000349162000143565b6200003f33620000f3565b6000805460ff60a01b191690556001600160a01b038116620000cd5760405162461bcd60e51b815260206004820152603560248201527f526f757465723a3a636f6e7374727563746f723a20696e76616c69642073746f60448201527f7261676520636f6e747261637420616464726573730000000000000000000000606482015260840160405180910390fd5b600180546001600160a01b0319166001600160a01b039290921691909117905562000175565b600080546001600160a01b038381166001600160a01b0319831681178455604051919092169283917f8be0079c531659141344cd1fd0a4f28419497f9722a3daafe3b4186f6b6457e09190a35050565b6000602082840312156200015657600080fd5b81516001600160a01b03811681146200016e57600080fd5b9392505050565b61239380620001856000396000f3fe6080604052600436106100fe5760003560e01c80638340f54911610095578063a17bf26511610064578063a17bf2651461029e578063c50c97d0146102b1578063ddca3f43146102d1578063f2fde38b146102e6578063f7888aec1461030657600080fd5b80638340f5491461022b5780638456cb591461024b5780638da5cb5b14610260578063a0fe9df71461027e57600080fd5b8063514fcac7116100d1578063514fcac7146101ac5780635c975abb146101cc578063715018a6146101f657806382ad6f351461020b57600080fd5b806321603f431461010357806335daa73114610139578063370158ea1461015d5780633f4ba83a14610195575b600080fd5b34801561010f57600080fd5b5061012361011e366004611f68565b61034c565b60405161013091906120dc565b60405180910390f35b34801561014557600080fd5b5061014f60045481565b604051908152602001610130565b34801561016957600080fd5b5060015461017d906001600160a01b031681565b6040516001600160a01b039091168152602001610130565b3480156101a157600080fd5b506101aa610498565b005b3480156101b857600080fd5b506101aa6101c7366004611f68565b6105e6565b3480156101d857600080fd5b50600054600160a01b900460ff166040519015158152602001610130565b34801561020257600080fd5b506101aa61079c565b34801561021757600080fd5b506101aa610226366004611e65565b6107b0565b34801561023757600080fd5b506101aa610246366004611e65565b610a79565b34801561025757600080fd5b506101aa610bfe565b34801561026c57600080fd5b506000546001600160a01b031661017d565b34801561028a57600080fd5b506101aa610299366004611f9a565b610d42565b61014f6102ac366004611ea6565b6110eb565b3480156102bd57600080fd5b506101aa6102cc366004611df2565b6114db565b3480156102dd57600080fd5b5061014f6115a9565b3480156102f257600080fd5b506101aa610301366004611df2565b6117ef565b34801561031257600080fd5b5061014f610321366004611e2c565b6001600160a01b03918216600090815260026020908152604080832093909416825291909152205490565b61037e6040805160a0810182526000808252602082018190529091820190815260006020820152606060409091015290565b600082815260036020908152604091829020825160a0810184528154815260018201546001600160a01b0381169382019390935292909190830190600160a01b900460ff1660028111156103d4576103d4612332565b60028111156103e5576103e5612332565b815260028201546001600160a01b0316602082015260038201805460409092019161040f906122c6565b80601f016020809104026020016040519081016040528092919081815260200182805461043b906122c6565b80156104885780601f1061045d57610100808354040283529160200191610488565b820191906000526020600020905b81548152906001019060200180831161046b57829003601f168201915b5050505050815250509050919050565b6001546040516321f8a72160e01b81527f689d13d8ed8ef1027633ba26e7121121cf427434450a529548f19bf17597439560048201526000916001600160a01b0316906321f8a7219060240160206040518083038186803b1580156104fc57600080fd5b505afa158015610510573d6000803e3d6000fd5b505050506040513d601f19601f820116820180604052508101906105349190611e0f565b90506105486000546001600160a01b031690565b6001600160a01b0316336001600160a01b0316148061056f5750336001600160a01b038216145b6105db5760405162461bcd60e51b815260206004820152603260248201527f526f757465723a3a756e70617573653a2063616c6c6572206973206e6f74207460448201527134329037bbb732b91037b9103830bab9b2b960711b60648201526084015b60405180910390fd5b6105e3611865565b50565b600081815260036020526040902060018101546001600160a01b031661065a5760405162461bcd60e51b8152602060048201526024808201527f526f757465723a3a63616e63656c4f726465723a20756e646566696e6564206f604482015263393232b960e11b60648201526084016105d2565b60018101546001600160a01b031633148061067f57506000546001600160a01b031633145b6106cb5760405162461bcd60e51b815260206004820152601e60248201527f526f757465723a3a63616e63656c4f726465723a20666f7262696464656e000060448201526064016105d2565b60006001820154600160a01b900460ff1660028111156106ed576106ed612332565b146107585760405162461bcd60e51b815260206004820152603560248201527f526f757465723a3a63616e63656c4f726465723a206f726465722068617320616044820152741b1c9958591e481899595b881c1c9bd8d95cdcd959605a1b60648201526084016105d2565b60018101805460ff60a01b1916600160a11b17905580546040517fc41f4ceb2938876c35e61b705e9d2f18a02c4a26ce5e049a6308a943d46851b390600090a25050565b6107a46118ba565b6107ae6000611914565b565b6107b8611964565b6001600160a01b0383166108205760405162461bcd60e51b815260206004820152602960248201527f526f757465723a3a726566756e643a20696e76616c696420726563697069656e60448201526874206164647265737360b81b60648201526084016105d2565b6001600160a01b0383163314806108dc57506001546040516001600160a01b0390911690637ae1cfca90610858903390602001612076565b604051602081830303815290604052805190602001206040518263ffffffff1660e01b815260040161088c91815260200190565b60206040518083038186803b1580156108a457600080fd5b505afa1580156108b8573d6000803e3d6000fd5b505050506040513d601f19601f820116820180604052508101906108dc9190611f46565b6108e557600080fd5b6001600160a01b0382166109525760405162461bcd60e51b815260206004820152602e60248201527f526f757465723a3a726566756e643a20696e76616c696420746f6b656e20636f60448201526d6e7472616374206164647265737360901b60648201526084016105d2565b600081116109a25760405162461bcd60e51b815260206004820152601e60248201527f526f757465723a3a726566756e643a20696e76616c696420616d6f756e74000060448201526064016105d2565b6001600160a01b03808416600090815260026020908152604080832093861683529290522054811115610a235760405162461bcd60e51b8152602060048201526024808201527f526f757465723a3a726566756e643a20696e73756666696369656e742062616c604482015263616e636560e01b60648201526084016105d2565b6001600160a01b03808416600090815260026020908152604080832093861683529290529081208054839290610a5a908490612283565b90915550610a7490506001600160a01b03831633836119b1565b505050565b610a81611964565b6001600160a01b038316610aea5760405162461bcd60e51b815260206004820152602a60248201527f526f757465723a3a6465706f7369743a20696e76616c696420726563697069656044820152696e74206164647265737360b01b60648201526084016105d2565b6001600160a01b038216610b585760405162461bcd60e51b815260206004820152602f60248201527f526f757465723a3a6465706f7369743a20696e76616c696420746f6b656e206360448201526e6f6e7472616374206164647265737360881b60648201526084016105d2565b60008111610ba85760405162461bcd60e51b815260206004820152601f60248201527f526f757465723a3a6465706f7369743a20696e76616c696420616d6f756e740060448201526064016105d2565b610bbd6001600160a01b038316333084611a14565b6001600160a01b03808416600090815260026020908152604080832093861683529290529081208054839290610bf490849061222a565b9091555050505050565b6001546040516321f8a72160e01b81527f689d13d8ed8ef1027633ba26e7121121cf427434450a529548f19bf17597439560048201526000916001600160a01b0316906321f8a7219060240160206040518083038186803b158015610c6257600080fd5b505afa158015610c76573d6000803e3d6000fd5b505050506040513d601f19601f82011682018060405250810190610c9a9190611e0f565b9050610cae6000546001600160a01b031690565b6001600160a01b0316336001600160a01b03161480610cd55750336001600160a01b038216145b610d3a5760405162461bcd60e51b815260206004820152603060248201527f526f757465723a3a70617573653a2063616c6c6572206973206e6f742074686560448201526f1037bbb732b91037b9103830bab9b2b960811b60648201526084016105d2565b6105e3611a52565b610d4a611964565b600082815260036020526040902060018101546001600160a01b0316610dbe5760405162461bcd60e51b8152602060048201526024808201527f526f757465723a3a68616e646c654f726465723a20756e646566696e6564206f604482015263393232b960e11b60648201526084016105d2565b60006001820154600160a01b900460ff166002811115610de057610de0612332565b14610e4b5760405162461bcd60e51b815260206004820152603560248201527f526f757465723a3a68616e646c654f726465723a206f726465722068617320616044820152741b1c9958591e481899595b881c1c9bd8d95cdcd959605a1b60648201526084016105d2565b60018101546001600160a01b03163214611042576001546040516321f8a72160e01b81527fe78c16c6d839536d3155985aab4e9c6013c8c3d446054bcebc48612f359d81f560048201526000916001600160a01b0316906321f8a7219060240160206040518083038186803b158015610ec357600080fd5b505afa158015610ed7573d6000803e3d6000fd5b505050506040513d601f19601f82011682018060405250810190610efb9190611e0f565b90506001600160a01b038116610f715760405162461bcd60e51b815260206004820152603560248201527f526f757465723a3a68616e646c654f726465723a20696e76616c69642062616c604482015274616e636520636f6e7472616374206164647265737360581b60648201526084016105d2565b60018201546001600160a01b038083169163e578a225911685610f926115a9565b6040516001600160e01b031960e086901b1681526001600160a01b0390931660048401526024830191909152604482015260806064820152601060848201526f536d617274547261646548616e646c6560801b60a482015260c401602060405180830381600087803b15801561100757600080fd5b505af115801561101b573d6000803e3d6000fd5b505050506040513d601f19601f8201168201806040525081019061103f9190611f81565b50505b600281015460405163e3aa7d0b60e01b81526001600160a01b039091169063e3aa7d0b9061107490849060040161213f565b600060405180830381600087803b15801561108e57600080fd5b505af11580156110a2573d6000803e3d6000fd5b5050505060018101805460ff60a01b1916600160a01b17905560405183907f182a8675c662ed6d9324fc2ae9526bf4c72c7bbbcca41f1311c91e94acd2cc5290600090a2505050565b60006110f5611964565b6001546040516001600160a01b0390911690637ae1cfca9061111b908990602001612076565b604051602081830303815290604052805190602001206040518263ffffffff1660e01b815260040161114f91815260200190565b60206040518083038186803b15801561116757600080fd5b505afa15801561117b573d6000803e3d6000fd5b505050506040513d601f19601f8201168201806040525081019061119f9190611f46565b6112005760405162461bcd60e51b815260206004820152602c60248201527f526f757465723a3a6372656174654f726465723a20696e76616c69642068616e60448201526b646c6572206164647265737360a01b60648201526084016105d2565b6004805490600061121083612301565b909155505060045460008181526003602081905260409091209182556001820180543360ff60a01b19166001600160a81b03199091161790556002820180546001600160a01b0319166001600160a01b038a161790556112739082018787611d3a565b506002810154600182015482546040516001600160a01b0393841693909216917fd4e0aaf5be9b8773c644dfebba8b63f878965712ad8589d85ca4bc9d1b671e2c90600090a460028101546040516303e5aa2d60e21b81526001600160a01b0390911690630f96a8b4906112eb90849060040161213f565b600060405180830381600087803b15801561130557600080fd5b505af1158015611319573d6000803e3d6000fd5b505050506001600160a01b038416158015906113355750600083115b15611353576001810154611353906001600160a01b03168585610a79565b34156114d0576001546040516321f8a72160e01b81527fe78c16c6d839536d3155985aab4e9c6013c8c3d446054bcebc48612f359d81f560048201526000916001600160a01b0316906321f8a7219060240160206040518083038186803b1580156113bd57600080fd5b505afa1580156113d1573d6000803e3d6000fd5b505050506040513d601f19601f820116820180604052508101906113f59190611e0f565b90506001600160a01b03811661146b5760405162461bcd60e51b815260206004820152603560248201527f526f757465723a3a6372656174654f726465723a20696e76616c69642062616c604482015274616e636520636f6e7472616374206164647265737360581b60648201526084016105d2565b600182015460405163f340fa0160e01b81526001600160a01b0391821660048201529082169063f340fa019034906024016000604051808303818588803b1580156114b557600080fd5b505af11580156114c9573d6000803e3d6000fd5b5050505050505b549695505050505050565b6114e36118ba565b6001600160a01b03811661155f5760405162461bcd60e51b815260206004820152603760248201527f526f757465723a3a6368616e676553746f726167653a20696e76616c6964207360448201527f746f7261676520636f6e7472616374206164647265737300000000000000000060648201526084016105d2565b600180546001600160a01b0319166001600160a01b0383169081179091556040517f8cbb7a6ee88dbf214a9b660a9f1af063e42a24cbfe26a046a718b3f621baa53990600090a250565b60015460405163bd02d0f560e01b81527f01417eba2c08fa95fc5f4564fd6603141800a2c49db0f9dae8bab823cc80c3ab600482015260009182916001600160a01b039091169063bd02d0f59060240160206040518083038186803b15801561161157600080fd5b505afa158015611625573d6000803e3d6000fd5b505050506040513d601f19601f820116820180604052508101906116499190611f81565b90508061165857600091505090565b6001546040516321f8a72160e01b81527f65c90423fe7c880476633a7e36521740f87199d233dc56eb4ca6643eb76f605f60048201526000916001600160a01b0316906321f8a7219060240160206040518083038186803b1580156116bc57600080fd5b505afa1580156116d0573d6000803e3d6000fd5b505050506040513d601f19601f820116820180604052508101906116f49190611e0f565b6001600160a01b031663feaf968c6040518163ffffffff1660e01b815260040160a06040518083038186803b15801561172c57600080fd5b505afa158015611740573d6000803e3d6000fd5b505050506040513d601f19601f820116820180604052508101906117649190611fbc565b505050915050600081136117cb5760405162461bcd60e51b815260206004820152602860248201527f526f757465723a3a6665653a20696e76616c6964207072696365206665656420604482015267726573706f6e736560c01b60648201526084016105d2565b806117de83670de0b6b3a7640000612264565b6117e89190612242565b9250505090565b6117f76118ba565b6001600160a01b03811661185c5760405162461bcd60e51b815260206004820152602660248201527f4f776e61626c653a206e6577206f776e657220697320746865207a65726f206160448201526564647265737360d01b60648201526084016105d2565b6105e381611914565b61186d611a95565b6000805460ff60a01b191690557f5db9ee0a495bf2e6ff9c91a7834c1ba4fdd244a5e8aa4e537bd38aeae4b073aa335b6040516001600160a01b03909116815260200160405180910390a1565b6000546001600160a01b031633146107ae5760405162461bcd60e51b815260206004820181905260248201527f4f776e61626c653a2063616c6c6572206973206e6f7420746865206f776e657260448201526064016105d2565b600080546001600160a01b038381166001600160a01b0319831681178455604051919092169283917f8be0079c531659141344cd1fd0a4f28419497f9722a3daafe3b4186f6b6457e09190a35050565b600054600160a01b900460ff16156107ae5760405162461bcd60e51b815260206004820152601060248201526f14185d5cd8589b194e881c185d5cd95960821b60448201526064016105d2565b6040516001600160a01b038316602482015260448101829052610a7490849063a9059cbb60e01b906064015b60408051601f198184030181529190526020810180516001600160e01b03166001600160e01b031990931692909217909152611ae5565b6040516001600160a01b0380851660248301528316604482015260648101829052611a4c9085906323b872dd60e01b906084016119dd565b50505050565b611a5a611964565b6000805460ff60a01b1916600160a01b1790557f62e78cea01bee320cd4e420270b5ea74000d11b0c9f74754ebdbfc544b05a25861189d3390565b600054600160a01b900460ff166107ae5760405162461bcd60e51b815260206004820152601460248201527314185d5cd8589b194e881b9bdd081c185d5cd95960621b60448201526064016105d2565b6000611b3a826040518060400160405280602081526020017f5361666545524332303a206c6f772d6c6576656c2063616c6c206661696c6564815250856001600160a01b0316611bb79092919063ffffffff16565b805190915015610a745780806020019051810190611b589190611f46565b610a745760405162461bcd60e51b815260206004820152602a60248201527f5361666545524332303a204552433230206f7065726174696f6e20646964206e6044820152691bdd081cdd58d8d9595960b21b60648201526084016105d2565b6060611bc68484600085611bd0565b90505b9392505050565b606082471015611c315760405162461bcd60e51b815260206004820152602660248201527f416464726573733a20696e73756666696369656e742062616c616e636520666f6044820152651c8818d85b1b60d21b60648201526084016105d2565b6001600160a01b0385163b611c885760405162461bcd60e51b815260206004820152601d60248201527f416464726573733a2063616c6c20746f206e6f6e2d636f6e747261637400000060448201526064016105d2565b600080866001600160a01b03168587604051611ca4919061205a565b60006040518083038185875af1925050503d8060008114611ce1576040519150601f19603f3d011682016040523d82523d6000602084013e611ce6565b606091505b5091509150611cf6828286611d01565b979650505050505050565b60608315611d10575081611bc9565b825115611d205782518084602001fd5b8160405162461bcd60e51b81526004016105d291906120c9565b828054611d46906122c6565b90600052602060002090601f016020900481019282611d685760008555611dae565b82601f10611d815782800160ff19823516178555611dae565b82800160010185558215611dae579182015b82811115611dae578235825591602001919060010190611d93565b50611dba929150611dbe565b5090565b5b80821115611dba5760008155600101611dbf565b805169ffffffffffffffffffff81168114611ded57600080fd5b919050565b600060208284031215611e0457600080fd5b8135611bc981612348565b600060208284031215611e2157600080fd5b8151611bc981612348565b60008060408385031215611e3f57600080fd5b8235611e4a81612348565b91506020830135611e5a81612348565b809150509250929050565b600080600060608486031215611e7a57600080fd5b8335611e8581612348565b92506020840135611e9581612348565b929592945050506040919091013590565b600080600080600060808688031215611ebe57600080fd5b8535611ec981612348565b9450602086013567ffffffffffffffff80821115611ee657600080fd5b818801915088601f830112611efa57600080fd5b813581811115611f0957600080fd5b896020828501011115611f1b57600080fd5b6020830196508095505050506040860135611f3581612348565b949793965091946060013592915050565b600060208284031215611f5857600080fd5b81518015158114611bc957600080fd5b600060208284031215611f7a57600080fd5b5035919050565b600060208284031215611f9357600080fd5b5051919050565b60008060408385031215611fad57600080fd5b50508035926020909101359150565b600080600080600060a08688031215611fd457600080fd5b611fdd86611dd3565b945060208601519350604086015192506060860151915061200060808701611dd3565b90509295509295909350565b6000815180845261202481602086016020860161229a565b601f01601f19169290920160200192915050565b6003811061205657634e487b7160e01b600052602160045260246000fd5b9052565b6000825161206c81846020870161229a565b9190910192915050565b7f4446483a436f6e74726163743a536d61727454726164653a616c6c6f7765644881526630b7323632b91d60c91b602082015260609190911b6bffffffffffffffffffffffff19166027820152603b0190565b602081526000611bc9602083018461200c565b60208082528251828201528201516001600160a01b039081166040808401919091528301516000916121116060850183612038565b8060608601511660808501525050608083015160a08084015261213760c084018261200c565b949350505050565b6000602080835283548184015260018085015460018060a01b0380821660408701526121746060870160ff8460a01c16612038565b60028701541660808601525060a08085015260038501805460009080841c848216806121a157607f821691505b8682108114156121bf57634e487b7160e01b84526022600452602484fd5b60c0890182905260e089018180156121de57600181146121ef5761221a565b60ff1985168252888201955061221a565b60008781526020902060005b8581101561221457815484820152908901908a016121fb565b83019650505b50939a9950505050505050505050565b6000821982111561223d5761223d61231c565b500190565b60008261225f57634e487b7160e01b600052601260045260246000fd5b500490565b600081600019048311821515161561227e5761227e61231c565b500290565b6000828210156122955761229561231c565b500390565b60005b838110156122b557818101518382015260200161229d565b83811115611a4c5750506000910152565b600181811c908216806122da57607f821691505b602082108114156122fb57634e487b7160e01b600052602260045260246000fd5b50919050565b60006000198214156123155761231561231c565b5060010190565b634e487b7160e01b600052601160045260246000fd5b634e487b7160e01b600052602160045260246000fd5b6001600160a01b03811681146105e357600080fdfea264697066735822122007d6e73e472a866ddb03be5912c9489b1ae3ec2c0dd09942c6262978c8136f0c64736f6c63430008060033",
  "linkReferences": {},
  "deployedLinkReferences": {}
}