{
  "_format": "hh-sol-artifact-1",
  "contractName": "SmartTradeRouter",
  "sourceName": "contracts/automate/SmartTrade/Router.sol",
  "abi": [
    {
      "inputs": [
        {
          "internalType": "address",
          "name": "_info",
          "type": "address"
        }
      ],
      "stateMutability": "nonpayable",
      "type": "constructor"
    },
    {
      "anonymous": false,
      "inputs": [
        {
          "indexed": true,
          "internalType": "address",
          "name": "handler",
          "type": "address"
        }
      ],
      "name": "HandlerAdded",
      "type": "event"
    },
    {
      "anonymous": false,
      "inputs": [
        {
          "indexed": true,
          "internalType": "address",
          "name": "handler",
          "type": "address"
        }
      ],
      "name": "HandlerRemoved",
      "type": "event"
    },
    {
      "anonymous": false,
      "inputs": [
        {
          "indexed": true,
          "internalType": "uint256",
          "name": "id",
          "type": "uint256"
        }
      ],
      "name": "OrderCanceled",
      "type": "event"
    },
    {
      "anonymous": false,
      "inputs": [
        {
          "indexed": true,
          "internalType": "uint256",
          "name": "id",
          "type": "uint256"
        },
        {
          "indexed": true,
          "internalType": "address",
          "name": "owner",
          "type": "address"
        },
        {
          "indexed": true,
          "internalType": "address",
          "name": "handler",
          "type": "address"
        }
      ],
      "name": "OrderCreated",
      "type": "event"
    },
    {
      "anonymous": false,
      "inputs": [
        {
          "indexed": true,
          "internalType": "uint256",
          "name": "id",
          "type": "uint256"
        }
      ],
      "name": "OrderSuccessed",
      "type": "event"
    },
    {
      "anonymous": false,
      "inputs": [
        {
          "indexed": true,
          "internalType": "address",
          "name": "previousOwner",
          "type": "address"
        },
        {
          "indexed": true,
          "internalType": "address",
          "name": "newOwner",
          "type": "address"
        }
      ],
      "name": "OwnershipTransferred",
      "type": "event"
    },
    {
      "anonymous": false,
      "inputs": [
        {
          "indexed": false,
          "internalType": "address",
          "name": "account",
          "type": "address"
        }
      ],
      "name": "Paused",
      "type": "event"
    },
    {
      "anonymous": false,
      "inputs": [
        {
          "indexed": true,
          "internalType": "address",
          "name": "info",
          "type": "address"
        }
      ],
      "name": "StorageChanged",
      "type": "event"
    },
    {
      "anonymous": false,
      "inputs": [
        {
          "indexed": false,
          "internalType": "address",
          "name": "account",
          "type": "address"
        }
      ],
      "name": "Unpaused",
      "type": "event"
    },
    {
      "inputs": [
        {
          "internalType": "address",
          "name": "account",
          "type": "address"
        },
        {
          "internalType": "address",
          "name": "token",
          "type": "address"
        }
      ],
      "name": "balanceOf",
      "outputs": [
        {
          "internalType": "uint256",
          "name": "",
          "type": "uint256"
        }
      ],
      "stateMutability": "view",
      "type": "function"
    },
    {
      "inputs": [
        {
          "internalType": "uint256",
          "name": "id",
          "type": "uint256"
        }
      ],
      "name": "cancelOrder",
      "outputs": [],
      "stateMutability": "nonpayable",
      "type": "function"
    },
    {
      "inputs": [
        {
          "internalType": "address",
          "name": "_info",
          "type": "address"
        }
      ],
      "name": "changeStorage",
      "outputs": [],
      "stateMutability": "nonpayable",
      "type": "function"
    },
    {
      "inputs": [
        {
          "internalType": "address",
          "name": "handler",
          "type": "address"
        },
        {
          "internalType": "bytes",
          "name": "callData",
          "type": "bytes"
        },
        {
          "internalType": "address",
          "name": "token",
          "type": "address"
        },
        {
          "internalType": "uint256",
          "name": "amount",
          "type": "uint256"
        }
      ],
      "name": "createOrder",
      "outputs": [
        {
          "internalType": "uint256",
          "name": "",
          "type": "uint256"
        }
      ],
      "stateMutability": "payable",
      "type": "function"
    },
    {
      "inputs": [
        {
          "internalType": "address",
          "name": "recipient",
          "type": "address"
        },
        {
          "internalType": "address",
          "name": "token",
          "type": "address"
        },
        {
          "internalType": "uint256",
          "name": "amount",
          "type": "uint256"
        }
      ],
      "name": "deposit",
      "outputs": [],
      "stateMutability": "nonpayable",
      "type": "function"
    },
    {
      "inputs": [],
      "name": "fee",
      "outputs": [
        {
          "internalType": "uint256",
          "name": "",
          "type": "uint256"
        }
      ],
      "stateMutability": "view",
      "type": "function"
    },
    {
      "inputs": [
        {
          "internalType": "uint256",
          "name": "id",
          "type": "uint256"
        },
        {
          "internalType": "uint256",
          "name": "gasFee",
          "type": "uint256"
        }
      ],
      "name": "handleOrder",
      "outputs": [],
      "stateMutability": "nonpayable",
      "type": "function"
    },
    {
      "inputs": [],
      "name": "info",
      "outputs": [
        {
          "internalType": "contract Storage",
          "name": "",
          "type": "address"
        }
      ],
      "stateMutability": "view",
      "type": "function"
    },
    {
      "inputs": [
        {
          "internalType": "uint256",
          "name": "id",
          "type": "uint256"
        }
      ],
      "name": "order",
      "outputs": [
        {
          "components": [
            {
              "internalType": "uint256",
              "name": "id",
              "type": "uint256"
            },
            {
              "internalType": "address",
              "name": "owner",
              "type": "address"
            },
            {
              "internalType": "enum SmartTradeRouter.OrderStatus",
              "name": "status",
              "type": "uint8"
            },
            {
              "internalType": "address",
              "name": "handler",
              "type": "address"
            },
            {
              "internalType": "bytes",
              "name": "callData",
              "type": "bytes"
            }
          ],
          "internalType": "struct SmartTradeRouter.Order",
          "name": "",
          "type": "tuple"
        }
      ],
      "stateMutability": "view",
      "type": "function"
    },
    {
      "inputs": [],
      "name": "ordersCount",
      "outputs": [
        {
          "internalType": "uint256",
          "name": "",
          "type": "uint256"
        }
      ],
      "stateMutability": "view",
      "type": "function"
    },
    {
      "inputs": [],
      "name": "owner",
      "outputs": [
        {
          "internalType": "address",
          "name": "",
          "type": "address"
        }
      ],
      "stateMutability": "view",
      "type": "function"
    },
    {
      "inputs": [],
      "name": "pause",
      "outputs": [],
      "stateMutability": "nonpayable",
      "type": "function"
    },
    {
      "inputs": [],
      "name": "paused",
      "outputs": [
        {
          "internalType": "bool",
          "name": "",
          "type": "bool"
        }
      ],
      "stateMutability": "view",
      "type": "function"
    },
    {
      "inputs": [
        {
          "internalType": "address",
          "name": "spender",
          "type": "address"
        },
        {
          "internalType": "address",
          "name": "token",
          "type": "address"
        },
        {
          "internalType": "uint256",
          "name": "amount",
          "type": "uint256"
        }
      ],
      "name": "refund",
      "outputs": [],
      "stateMutability": "nonpayable",
      "type": "function"
    },
    {
      "inputs": [],
      "name": "renounceOwnership",
      "outputs": [],
      "stateMutability": "nonpayable",
      "type": "function"
    },
    {
      "inputs": [
        {
          "internalType": "address",
          "name": "newOwner",
          "type": "address"
        }
      ],
      "name": "transferOwnership",
      "outputs": [],
      "stateMutability": "nonpayable",
      "type": "function"
    },
    {
      "inputs": [],
      "name": "unpause",
      "outputs": [],
      "stateMutability": "nonpayable",
      "type": "function"
    }
  ],
  "bytecode": "0x60806040523480156200001157600080fd5b50604051620025f4380380620025f4833981016040819052620000349162000143565b6200003f33620000f3565b6000805460ff60a01b191690556001600160a01b038116620000cd5760405162461bcd60e51b815260206004820152603f60248201527f536d6172745472616465526f757465723a3a636f6e7374727563746f723a206960448201527f6e76616c69642073746f7261676520636f6e7472616374206164647265737300606482015260840160405180910390fd5b600180546001600160a01b0319166001600160a01b039290921691909117905562000175565b600080546001600160a01b038381166001600160a01b0319831681178455604051919092169283917f8be0079c531659141344cd1fd0a4f28419497f9722a3daafe3b4186f6b6457e09190a35050565b6000602082840312156200015657600080fd5b81516001600160a01b03811681146200016e57600080fd5b9392505050565b61246f80620001856000396000f3fe6080604052600436106100fe5760003560e01c80638340f54911610095578063a17bf26511610064578063a17bf2651461029e578063c50c97d0146102b1578063ddca3f43146102d1578063f2fde38b146102e6578063f7888aec1461030657600080fd5b80638340f5491461022b5780638456cb591461024b5780638da5cb5b14610260578063a0fe9df71461027e57600080fd5b8063514fcac7116100d1578063514fcac7146101ac5780635c975abb146101cc578063715018a6146101f657806382ad6f351461020b57600080fd5b806321603f431461010357806335daa73114610139578063370158ea1461015d5780633f4ba83a14610195575b600080fd5b34801561010f57600080fd5b5061012361011e366004612044565b61034c565b60405161013091906121b8565b60405180910390f35b34801561014557600080fd5b5061014f60045481565b604051908152602001610130565b34801561016957600080fd5b5060015461017d906001600160a01b031681565b6040516001600160a01b039091168152602001610130565b3480156101a157600080fd5b506101aa610498565b005b3480156101b857600080fd5b506101aa6101c7366004612044565b6105f1565b3480156101d857600080fd5b50600054600160a01b900460ff166040519015158152602001610130565b34801561020257600080fd5b506101aa6107cb565b34801561021757600080fd5b506101aa610226366004611f41565b6107df565b34801561023757600080fd5b506101aa610246366004611f41565b610add565b34801561025757600080fd5b506101aa610c8c565b34801561026c57600080fd5b506000546001600160a01b031661017d565b34801561028a57600080fd5b506101aa610299366004612076565b610ddd565b61014f6102ac366004611f82565b6111a1565b3480156102bd57600080fd5b506101aa6102cc366004611ece565b6115a3565b3480156102dd57600080fd5b5061014f61167b565b3480156102f257600080fd5b506101aa610301366004611ece565b6118cb565b34801561031257600080fd5b5061014f610321366004611f08565b6001600160a01b03918216600090815260026020908152604080832093909416825291909152205490565b61037e6040805160a0810182526000808252602082018190529091820190815260006020820152606060409091015290565b600082815260036020908152604091829020825160a0810184528154815260018201546001600160a01b0381169382019390935292909190830190600160a01b900460ff1660028111156103d4576103d461240e565b60028111156103e5576103e561240e565b815260028201546001600160a01b0316602082015260038201805460409092019161040f906123a2565b80601f016020809104026020016040519081016040528092919081815260200182805461043b906123a2565b80156104885780601f1061045d57610100808354040283529160200191610488565b820191906000526020600020905b81548152906001019060200180831161046b57829003601f168201915b5050505050815250509050919050565b6001546040516321f8a72160e01b81527f689d13d8ed8ef1027633ba26e7121121cf427434450a529548f19bf17597439560048201526000916001600160a01b0316906321f8a7219060240160206040518083038186803b1580156104fc57600080fd5b505afa158015610510573d6000803e3d6000fd5b505050506040513d601f19601f820116820180604052508101906105349190611eeb565b90506105486000546001600160a01b031690565b6001600160a01b0316336001600160a01b0316148061056f5750336001600160a01b038216145b6105e65760405162461bcd60e51b815260206004820152603c60248201527f536d6172745472616465526f757465723a3a756e70617573653a2063616c6c6560448201527f72206973206e6f7420746865206f776e6572206f72207061757365720000000060648201526084015b60405180910390fd5b6105ee611941565b50565b600081815260036020526040902060018101546001600160a01b03166106705760405162461bcd60e51b815260206004820152602e60248201527f536d6172745472616465526f757465723a3a63616e63656c4f726465723a207560448201526d373232b334b732b21037b93232b960911b60648201526084016105dd565b60018101546001600160a01b031633148061069557506000546001600160a01b031633145b6106f25760405162461bcd60e51b815260206004820152602860248201527f536d6172745472616465526f757465723a3a63616e63656c4f726465723a206660448201526737b93134b23232b760c11b60648201526084016105dd565b60006001820154600160a01b900460ff1660028111156107145761071461240e565b146107875760405162461bcd60e51b815260206004820152603f60248201527f536d6172745472616465526f757465723a3a63616e63656c4f726465723a206f60448201527f726465722068617320616c7265616479206265656e2070726f6365737365640060648201526084016105dd565b60018101805460ff60a01b1916600160a11b17905580546040517fc41f4ceb2938876c35e61b705e9d2f18a02c4a26ce5e049a6308a943d46851b390600090a25050565b6107d3611996565b6107dd60006119f0565b565b6107e7611a40565b6001600160a01b0383166108595760405162461bcd60e51b815260206004820152603360248201527f536d6172745472616465526f757465723a3a726566756e643a20696e76616c696044820152726420726563697069656e74206164647265737360681b60648201526084016105dd565b6001600160a01b03831633148061091557506001546040516001600160a01b0390911690637ae1cfca90610891903390602001612152565b604051602081830303815290604052805190602001206040518263ffffffff1660e01b81526004016108c591815260200190565b60206040518083038186803b1580156108dd57600080fd5b505afa1580156108f1573d6000803e3d6000fd5b505050506040513d601f19601f820116820180604052508101906109159190612022565b61091e57600080fd5b6001600160a01b03821661099a5760405162461bcd60e51b815260206004820152603860248201527f536d6172745472616465526f757465723a3a726566756e643a20696e76616c6960448201527f6420746f6b656e20636f6e74726163742061646472657373000000000000000060648201526084016105dd565b600081116109fb5760405162461bcd60e51b815260206004820152602860248201527f536d6172745472616465526f757465723a3a726566756e643a20696e76616c696044820152671908185b5bdd5b9d60c21b60648201526084016105dd565b6001600160a01b03808416600090815260026020908152604080832093861683529290522054811115610a875760405162461bcd60e51b815260206004820152602e60248201527f536d6172745472616465526f757465723a3a726566756e643a20696e7375666660448201526d696369656e742062616c616e636560901b60648201526084016105dd565b6001600160a01b03808416600090815260026020908152604080832093861683529290529081208054839290610abe90849061235f565b90915550610ad890506001600160a01b0383163383611a8d565b505050565b610ae5611a40565b6001600160a01b038316610b585760405162461bcd60e51b815260206004820152603460248201527f536d6172745472616465526f757465723a3a6465706f7369743a20696e76616c604482015273696420726563697069656e74206164647265737360601b60648201526084016105dd565b6001600160a01b038216610bd45760405162461bcd60e51b815260206004820152603960248201527f536d6172745472616465526f757465723a3a6465706f7369743a20696e76616c60448201527f696420746f6b656e20636f6e747261637420616464726573730000000000000060648201526084016105dd565b60008111610c365760405162461bcd60e51b815260206004820152602960248201527f536d6172745472616465526f757465723a3a6465706f7369743a20696e76616c6044820152681a5908185b5bdd5b9d60ba1b60648201526084016105dd565b610c4b6001600160a01b038316333084611af0565b6001600160a01b03808416600090815260026020908152604080832093861683529290529081208054839290610c82908490612306565b9091555050505050565b6001546040516321f8a72160e01b81527f689d13d8ed8ef1027633ba26e7121121cf427434450a529548f19bf17597439560048201526000916001600160a01b0316906321f8a7219060240160206040518083038186803b158015610cf057600080fd5b505afa158015610d04573d6000803e3d6000fd5b505050506040513d601f19601f82011682018060405250810190610d289190611eeb565b9050610d3c6000546001600160a01b031690565b6001600160a01b0316336001600160a01b03161480610d635750336001600160a01b038216145b610dd55760405162461bcd60e51b815260206004820152603a60248201527f536d6172745472616465526f757465723a3a70617573653a2063616c6c65722060448201527f6973206e6f7420746865206f776e6572206f722070617573657200000000000060648201526084016105dd565b6105ee611b2e565b610de5611a40565b600082815260036020526040902060018101546001600160a01b0316610e645760405162461bcd60e51b815260206004820152602e60248201527f536d6172745472616465526f757465723a3a68616e646c654f726465723a207560448201526d373232b334b732b21037b93232b960911b60648201526084016105dd565b60006001820154600160a01b900460ff166002811115610e8657610e8661240e565b14610ef95760405162461bcd60e51b815260206004820152603f60248201527f536d6172745472616465526f757465723a3a68616e646c654f726465723a206f60448201527f726465722068617320616c7265616479206265656e2070726f6365737365640060648201526084016105dd565b60018101546001600160a01b031632146110f8576001546040516321f8a72160e01b81527fe78c16c6d839536d3155985aab4e9c6013c8c3d446054bcebc48612f359d81f560048201526000916001600160a01b0316906321f8a7219060240160206040518083038186803b158015610f7157600080fd5b505afa158015610f85573d6000803e3d6000fd5b505050506040513d601f19601f82011682018060405250810190610fa99190611eeb565b90506001600160a01b0381166110275760405162461bcd60e51b815260206004820152603f60248201527f536d6172745472616465526f757465723a3a68616e646c654f726465723a206960448201527f6e76616c69642062616c616e636520636f6e747261637420616464726573730060648201526084016105dd565b60018201546001600160a01b038083169163e578a22591168561104861167b565b6040516001600160e01b031960e086901b1681526001600160a01b0390931660048401526024830191909152604482015260806064820152601060848201526f536d617274547261646548616e646c6560801b60a482015260c401602060405180830381600087803b1580156110bd57600080fd5b505af11580156110d1573d6000803e3d6000fd5b505050506040513d601f19601f820116820180604052508101906110f5919061205d565b50505b600281015460405163e3aa7d0b60e01b81526001600160a01b039091169063e3aa7d0b9061112a90849060040161221b565b600060405180830381600087803b15801561114457600080fd5b505af1158015611158573d6000803e3d6000fd5b5050505060018101805460ff60a01b1916600160a01b17905560405183907f182a8675c662ed6d9324fc2ae9526bf4c72c7bbbcca41f1311c91e94acd2cc5290600090a2505050565b60006111ab611a40565b6001546040516001600160a01b0390911690637ae1cfca906111d1908990602001612152565b604051602081830303815290604052805190602001206040518263ffffffff1660e01b815260040161120591815260200190565b60206040518083038186803b15801561121d57600080fd5b505afa158015611231573d6000803e3d6000fd5b505050506040513d601f19601f820116820180604052508101906112559190612022565b6112c05760405162461bcd60e51b815260206004820152603660248201527f536d6172745472616465526f757465723a3a6372656174654f726465723a20696044820152756e76616c69642068616e646c6572206164647265737360501b60648201526084016105dd565b600480549060006112d0836123dd565b909155505060045460008181526003602081905260409091209182556001820180543360ff60a01b19166001600160a81b03199091161790556002820180546001600160a01b0319166001600160a01b038a161790556113339082018787611e16565b506002810154600182015482546040516001600160a01b0393841693909216917fd4e0aaf5be9b8773c644dfebba8b63f878965712ad8589d85ca4bc9d1b671e2c90600090a460028101546040516303e5aa2d60e21b81526001600160a01b0390911690630f96a8b4906113ab90849060040161221b565b600060405180830381600087803b1580156113c557600080fd5b505af11580156113d9573d6000803e3d6000fd5b505050506001600160a01b038416158015906113f55750600083115b15611413576001810154611413906001600160a01b03168585610add565b3415611598576001546040516321f8a72160e01b81527fe78c16c6d839536d3155985aab4e9c6013c8c3d446054bcebc48612f359d81f560048201526000916001600160a01b0316906321f8a7219060240160206040518083038186803b15801561147d57600080fd5b505afa158015611491573d6000803e3d6000fd5b505050506040513d601f19601f820116820180604052508101906114b59190611eeb565b90506001600160a01b0381166115335760405162461bcd60e51b815260206004820152603f60248201527f536d6172745472616465526f757465723a3a6372656174654f726465723a206960448201527f6e76616c69642062616c616e636520636f6e747261637420616464726573730060648201526084016105dd565b600182015460405163f340fa0160e01b81526001600160a01b0391821660048201529082169063f340fa019034906024016000604051808303818588803b15801561157d57600080fd5b505af1158015611591573d6000803e3d6000fd5b5050505050505b549695505050505050565b6115ab611996565b6001600160a01b0381166116315760405162461bcd60e51b815260206004820152604160248201527f536d6172745472616465526f757465723a3a6368616e676553746f726167653a60448201527f20696e76616c69642073746f7261676520636f6e7472616374206164647265736064820152607360f81b608482015260a4016105dd565b600180546001600160a01b0319166001600160a01b0383169081179091556040517f8cbb7a6ee88dbf214a9b660a9f1af063e42a24cbfe26a046a718b3f621baa53990600090a250565b60015460405163bd02d0f560e01b81527f01417eba2c08fa95fc5f4564fd6603141800a2c49db0f9dae8bab823cc80c3ab600482015260009182916001600160a01b039091169063bd02d0f59060240160206040518083038186803b1580156116e357600080fd5b505afa1580156116f7573d6000803e3d6000fd5b505050506040513d601f19601f8201168201806040525081019061171b919061205d565b90508061172a57600091505090565b6001546040516321f8a72160e01b81527f65c90423fe7c880476633a7e36521740f87199d233dc56eb4ca6643eb76f605f60048201526000916001600160a01b0316906321f8a7219060240160206040518083038186803b15801561178e57600080fd5b505afa1580156117a2573d6000803e3d6000fd5b505050506040513d601f19601f820116820180604052508101906117c69190611eeb565b6001600160a01b031663feaf968c6040518163ffffffff1660e01b815260040160a06040518083038186803b1580156117fe57600080fd5b505afa158015611812573d6000803e3d6000fd5b505050506040513d601f19601f820116820180604052508101906118369190612098565b505050915050600081136118a75760405162461bcd60e51b815260206004820152603260248201527f536d6172745472616465526f757465723a3a6665653a20696e76616c6964207060448201527172696365206665656420726573706f6e736560701b60648201526084016105dd565b806118ba83670de0b6b3a7640000612340565b6118c4919061231e565b9250505090565b6118d3611996565b6001600160a01b0381166119385760405162461bcd60e51b815260206004820152602660248201527f4f776e61626c653a206e6577206f776e657220697320746865207a65726f206160448201526564647265737360d01b60648201526084016105dd565b6105ee816119f0565b611949611b71565b6000805460ff60a01b191690557f5db9ee0a495bf2e6ff9c91a7834c1ba4fdd244a5e8aa4e537bd38aeae4b073aa335b6040516001600160a01b03909116815260200160405180910390a1565b6000546001600160a01b031633146107dd5760405162461bcd60e51b815260206004820181905260248201527f4f776e61626c653a2063616c6c6572206973206e6f7420746865206f776e657260448201526064016105dd565b600080546001600160a01b038381166001600160a01b0319831681178455604051919092169283917f8be0079c531659141344cd1fd0a4f28419497f9722a3daafe3b4186f6b6457e09190a35050565b600054600160a01b900460ff16156107dd5760405162461bcd60e51b815260206004820152601060248201526f14185d5cd8589b194e881c185d5cd95960821b60448201526064016105dd565b6040516001600160a01b038316602482015260448101829052610ad890849063a9059cbb60e01b906064015b60408051601f198184030181529190526020810180516001600160e01b03166001600160e01b031990931692909217909152611bc1565b6040516001600160a01b0380851660248301528316604482015260648101829052611b289085906323b872dd60e01b90608401611ab9565b50505050565b611b36611a40565b6000805460ff60a01b1916600160a01b1790557f62e78cea01bee320cd4e420270b5ea74000d11b0c9f74754ebdbfc544b05a2586119793390565b600054600160a01b900460ff166107dd5760405162461bcd60e51b815260206004820152601460248201527314185d5cd8589b194e881b9bdd081c185d5cd95960621b60448201526064016105dd565b6000611c16826040518060400160405280602081526020017f5361666545524332303a206c6f772d6c6576656c2063616c6c206661696c6564815250856001600160a01b0316611c939092919063ffffffff16565b805190915015610ad85780806020019051810190611c349190612022565b610ad85760405162461bcd60e51b815260206004820152602a60248201527f5361666545524332303a204552433230206f7065726174696f6e20646964206e6044820152691bdd081cdd58d8d9595960b21b60648201526084016105dd565b6060611ca28484600085611cac565b90505b9392505050565b606082471015611d0d5760405162461bcd60e51b815260206004820152602660248201527f416464726573733a20696e73756666696369656e742062616c616e636520666f6044820152651c8818d85b1b60d21b60648201526084016105dd565b6001600160a01b0385163b611d645760405162461bcd60e51b815260206004820152601d60248201527f416464726573733a2063616c6c20746f206e6f6e2d636f6e747261637400000060448201526064016105dd565b600080866001600160a01b03168587604051611d809190612136565b60006040518083038185875af1925050503d8060008114611dbd576040519150601f19603f3d011682016040523d82523d6000602084013e611dc2565b606091505b5091509150611dd2828286611ddd565b979650505050505050565b60608315611dec575081611ca5565b825115611dfc5782518084602001fd5b8160405162461bcd60e51b81526004016105dd91906121a5565b828054611e22906123a2565b90600052602060002090601f016020900481019282611e445760008555611e8a565b82601f10611e5d5782800160ff19823516178555611e8a565b82800160010185558215611e8a579182015b82811115611e8a578235825591602001919060010190611e6f565b50611e96929150611e9a565b5090565b5b80821115611e965760008155600101611e9b565b805169ffffffffffffffffffff81168114611ec957600080fd5b919050565b600060208284031215611ee057600080fd5b8135611ca581612424565b600060208284031215611efd57600080fd5b8151611ca581612424565b60008060408385031215611f1b57600080fd5b8235611f2681612424565b91506020830135611f3681612424565b809150509250929050565b600080600060608486031215611f5657600080fd5b8335611f6181612424565b92506020840135611f7181612424565b929592945050506040919091013590565b600080600080600060808688031215611f9a57600080fd5b8535611fa581612424565b9450602086013567ffffffffffffffff80821115611fc257600080fd5b818801915088601f830112611fd657600080fd5b813581811115611fe557600080fd5b896020828501011115611ff757600080fd5b602083019650809550505050604086013561201181612424565b949793965091946060013592915050565b60006020828403121561203457600080fd5b81518015158114611ca557600080fd5b60006020828403121561205657600080fd5b5035919050565b60006020828403121561206f57600080fd5b5051919050565b6000806040838503121561208957600080fd5b50508035926020909101359150565b600080600080600060a086880312156120b057600080fd5b6120b986611eaf565b94506020860151935060408601519250606086015191506120dc60808701611eaf565b90509295509295909350565b60008151808452612100816020860160208601612376565b601f01601f19169290920160200192915050565b6003811061213257634e487b7160e01b600052602160045260246000fd5b9052565b60008251612148818460208701612376565b9190910192915050565b7f4446483a436f6e74726163743a536d61727454726164653a616c6c6f7765644881526630b7323632b91d60c91b602082015260609190911b6bffffffffffffffffffffffff19166027820152603b0190565b602081526000611ca560208301846120e8565b60208082528251828201528201516001600160a01b039081166040808401919091528301516000916121ed6060850183612114565b8060608601511660808501525050608083015160a08084015261221360c08401826120e8565b949350505050565b6000602080835283548184015260018085015460018060a01b0380821660408701526122506060870160ff8460a01c16612114565b60028701541660808601525060a08085015260038501805460009080841c8482168061227d57607f821691505b86821081141561229b57634e487b7160e01b84526022600452602484fd5b60c0890182905260e089018180156122ba57600181146122cb576122f6565b60ff198516825288820195506122f6565b60008781526020902060005b858110156122f057815484820152908901908a016122d7565b83019650505b50939a9950505050505050505050565b60008219821115612319576123196123f8565b500190565b60008261233b57634e487b7160e01b600052601260045260246000fd5b500490565b600081600019048311821515161561235a5761235a6123f8565b500290565b600082821015612371576123716123f8565b500390565b60005b83811015612391578181015183820152602001612379565b83811115611b285750506000910152565b600181811c908216806123b657607f821691505b602082108114156123d757634e487b7160e01b600052602260045260246000fd5b50919050565b60006000198214156123f1576123f16123f8565b5060010190565b634e487b7160e01b600052601160045260246000fd5b634e487b7160e01b600052602160045260246000fd5b6001600160a01b03811681146105ee57600080fdfea26469706673582212204fccd13016dfb8c30be9e1850ef97315ac628e841cf9e85c5ff4904daa399fa964736f6c63430008060033",
  "linkReferences": {},
  "deployedLinkReferences": {}
}