{
  "_format": "hh-sol-artifact-1",
  "contractName": "SmartTradeRouter",
  "sourceName": "contracts/automate/SmartTrade/Router.sol",
  "abi": [
    {
      "inputs": [
        {
          "internalType": "address",
          "name": "_info",
          "type": "address"
        }
      ],
      "stateMutability": "nonpayable",
      "type": "constructor"
    },
    {
      "anonymous": false,
      "inputs": [
        {
          "indexed": true,
          "internalType": "address",
          "name": "handler",
          "type": "address"
        }
      ],
      "name": "HandlerAdded",
      "type": "event"
    },
    {
      "anonymous": false,
      "inputs": [
        {
          "indexed": true,
          "internalType": "address",
          "name": "handler",
          "type": "address"
        }
      ],
      "name": "HandlerRemoved",
      "type": "event"
    },
    {
      "anonymous": false,
      "inputs": [
        {
          "indexed": true,
          "internalType": "uint256",
          "name": "id",
          "type": "uint256"
        }
      ],
      "name": "OrderCanceled",
      "type": "event"
    },
    {
      "anonymous": false,
      "inputs": [
        {
          "indexed": true,
          "internalType": "uint256",
          "name": "id",
          "type": "uint256"
        },
        {
          "indexed": true,
          "internalType": "address",
          "name": "owner",
          "type": "address"
        },
        {
          "indexed": true,
          "internalType": "address",
          "name": "handler",
          "type": "address"
        }
      ],
      "name": "OrderCreated",
      "type": "event"
    },
    {
      "anonymous": false,
      "inputs": [
        {
          "indexed": true,
          "internalType": "uint256",
          "name": "id",
          "type": "uint256"
        }
      ],
      "name": "OrderSuccessed",
      "type": "event"
    },
    {
      "anonymous": false,
      "inputs": [
        {
          "indexed": true,
          "internalType": "uint256",
          "name": "id",
          "type": "uint256"
        }
      ],
      "name": "OrderUpdated",
      "type": "event"
    },
    {
      "anonymous": false,
      "inputs": [
        {
          "indexed": true,
          "internalType": "address",
          "name": "previousOwner",
          "type": "address"
        },
        {
          "indexed": true,
          "internalType": "address",
          "name": "newOwner",
          "type": "address"
        }
      ],
      "name": "OwnershipTransferred",
      "type": "event"
    },
    {
      "anonymous": false,
      "inputs": [
        {
          "indexed": false,
          "internalType": "address",
          "name": "account",
          "type": "address"
        }
      ],
      "name": "Paused",
      "type": "event"
    },
    {
      "anonymous": false,
      "inputs": [
        {
          "indexed": true,
          "internalType": "address",
          "name": "info",
          "type": "address"
        }
      ],
      "name": "StorageChanged",
      "type": "event"
    },
    {
      "anonymous": false,
      "inputs": [
        {
          "indexed": false,
          "internalType": "address",
          "name": "account",
          "type": "address"
        }
      ],
      "name": "Unpaused",
      "type": "event"
    },
    {
      "inputs": [
        {
          "internalType": "uint256",
          "name": "orderId",
          "type": "uint256"
        },
        {
          "internalType": "address",
          "name": "token",
          "type": "address"
        }
      ],
      "name": "balanceOf",
      "outputs": [
        {
          "internalType": "uint256",
          "name": "",
          "type": "uint256"
        }
      ],
      "stateMutability": "view",
      "type": "function"
    },
    {
      "inputs": [
        {
          "internalType": "uint256",
          "name": "id",
          "type": "uint256"
        },
        {
          "internalType": "address[]",
          "name": "refundTokens",
          "type": "address[]"
        }
      ],
      "name": "cancelOrder",
      "outputs": [],
      "stateMutability": "nonpayable",
      "type": "function"
    },
    {
      "inputs": [
        {
          "internalType": "address",
          "name": "_info",
          "type": "address"
        }
      ],
      "name": "changeStorage",
      "outputs": [],
      "stateMutability": "nonpayable",
      "type": "function"
    },
    {
      "inputs": [
        {
          "internalType": "address",
          "name": "handler",
          "type": "address"
        },
        {
          "internalType": "bytes",
          "name": "callData",
          "type": "bytes"
        },
        {
          "internalType": "address[]",
          "name": "tokens",
          "type": "address[]"
        },
        {
          "internalType": "uint256[]",
          "name": "amounts",
          "type": "uint256[]"
        }
      ],
      "name": "createOrder",
      "outputs": [
        {
          "internalType": "uint256",
          "name": "",
          "type": "uint256"
        }
      ],
      "stateMutability": "payable",
      "type": "function"
    },
    {
      "inputs": [
        {
          "internalType": "uint256",
          "name": "orderId",
          "type": "uint256"
        },
        {
          "internalType": "address[]",
          "name": "tokens",
          "type": "address[]"
        },
        {
          "internalType": "uint256[]",
          "name": "amounts",
          "type": "uint256[]"
        }
      ],
      "name": "deposit",
      "outputs": [],
      "stateMutability": "nonpayable",
      "type": "function"
    },
    {
      "inputs": [],
      "name": "fee",
      "outputs": [
        {
          "internalType": "uint256",
          "name": "",
          "type": "uint256"
        }
      ],
      "stateMutability": "view",
      "type": "function"
    },
    {
      "inputs": [
        {
          "internalType": "uint256",
          "name": "id",
          "type": "uint256"
        },
        {
          "internalType": "bytes",
          "name": "options",
          "type": "bytes"
        },
        {
          "internalType": "uint256",
          "name": "gasFee",
          "type": "uint256"
        }
      ],
      "name": "handleOrder",
      "outputs": [],
      "stateMutability": "nonpayable",
      "type": "function"
    },
    {
      "inputs": [],
      "name": "info",
      "outputs": [
        {
          "internalType": "contract Storage",
          "name": "",
          "type": "address"
        }
      ],
      "stateMutability": "view",
      "type": "function"
    },
    {
      "inputs": [
        {
          "internalType": "uint256",
          "name": "id",
          "type": "uint256"
        }
      ],
      "name": "order",
      "outputs": [
        {
          "components": [
            {
              "internalType": "uint256",
              "name": "id",
              "type": "uint256"
            },
            {
              "internalType": "address",
              "name": "owner",
              "type": "address"
            },
            {
              "internalType": "enum SmartTradeRouter.OrderStatus",
              "name": "status",
              "type": "uint8"
            },
            {
              "internalType": "address",
              "name": "handler",
              "type": "address"
            },
            {
              "internalType": "bytes",
              "name": "callData",
              "type": "bytes"
            }
          ],
          "internalType": "struct SmartTradeRouter.Order",
          "name": "",
          "type": "tuple"
        }
      ],
      "stateMutability": "view",
      "type": "function"
    },
    {
      "inputs": [],
      "name": "ordersCount",
      "outputs": [
        {
          "internalType": "uint256",
          "name": "",
          "type": "uint256"
        }
      ],
      "stateMutability": "view",
      "type": "function"
    },
    {
      "inputs": [],
      "name": "owner",
      "outputs": [
        {
          "internalType": "address",
          "name": "",
          "type": "address"
        }
      ],
      "stateMutability": "view",
      "type": "function"
    },
    {
      "inputs": [],
      "name": "pause",
      "outputs": [],
      "stateMutability": "nonpayable",
      "type": "function"
    },
    {
      "inputs": [],
      "name": "paused",
      "outputs": [
        {
          "internalType": "bool",
          "name": "",
          "type": "bool"
        }
      ],
      "stateMutability": "view",
      "type": "function"
    },
    {
      "inputs": [
        {
          "internalType": "uint256",
          "name": "orderId",
          "type": "uint256"
        },
        {
          "internalType": "address[]",
          "name": "tokens",
          "type": "address[]"
        },
        {
          "internalType": "uint256[]",
          "name": "amounts",
          "type": "uint256[]"
        },
        {
          "internalType": "address",
          "name": "recipient",
          "type": "address"
        }
      ],
      "name": "refund",
      "outputs": [],
      "stateMutability": "nonpayable",
      "type": "function"
    },
    {
      "inputs": [],
      "name": "renounceOwnership",
      "outputs": [],
      "stateMutability": "nonpayable",
      "type": "function"
    },
    {
      "inputs": [
        {
          "internalType": "address",
          "name": "newOwner",
          "type": "address"
        }
      ],
      "name": "transferOwnership",
      "outputs": [],
      "stateMutability": "nonpayable",
      "type": "function"
    },
    {
      "inputs": [],
      "name": "unpause",
      "outputs": [],
      "stateMutability": "nonpayable",
      "type": "function"
    },
    {
      "inputs": [
        {
          "internalType": "uint256",
          "name": "id",
          "type": "uint256"
        },
        {
          "internalType": "bytes",
          "name": "callData",
          "type": "bytes"
        }
      ],
      "name": "updateOrder",
      "outputs": [],
      "stateMutability": "nonpayable",
      "type": "function"
    }
  ],
  "bytecode": "0x60806040523480156200001157600080fd5b5060405162002f5538038062002f55833981016040819052620000349162000143565b6200003f33620000f3565b6000805460ff60a01b191690556001600160a01b038116620000cd5760405162461bcd60e51b815260206004820152603f60248201527f536d6172745472616465526f757465723a3a636f6e7374727563746f723a206960448201527f6e76616c69642073746f7261676520636f6e7472616374206164647265737300606482015260840160405180910390fd5b600180546001600160a01b0319166001600160a01b039290921691909117905562000175565b600080546001600160a01b038381166001600160a01b0319831681178455604051919092169283917f8be0079c531659141344cd1fd0a4f28419497f9722a3daafe3b4186f6b6457e09190a35050565b6000602082840312156200015657600080fd5b81516001600160a01b03811681146200016e57600080fd5b9392505050565b612dd080620001856000396000f3fe6080604052600436106101095760003560e01c80638456cb5911610095578063c50c97d011610064578063c50c97d0146102df578063ca375b94146102ff578063ddca3f431461031f578063e92ed75114610334578063f2fde38b1461035457600080fd5b80638456cb591461027957806387dc97721461028e5780638da5cb5b146102a1578063a3a9d0d0146102bf57600080fd5b80633656eec2116100dc5780633656eec2146101aa578063370158ea146101ed5780633f4ba83a146102255780635c975abb1461023a578063715018a61461026457600080fd5b806308a051271461010e5780630d7a41b71461013057806321603f431461015057806335daa73114610186575b600080fd5b34801561011a57600080fd5b5061012e6101293660046128ee565b610374565b005b34801561013c57600080fd5b5061012e61014b366004612768565b610557565b34801561015c57600080fd5b5061017061016b3660046126ba565b61093d565b60405161017d9190612b7f565b60405180910390f35b34801561019257600080fd5b5061019c60045481565b60405190815260200161017d565b3480156101b657600080fd5b5061019c6101c53660046126ec565b60009182526003602090815260408084206001600160a01b0393909316845291905290205490565b3480156101f957600080fd5b5060015461020d906001600160a01b031681565b6040516001600160a01b03909116815260200161017d565b34801561023157600080fd5b5061012e610a88565b34801561024657600080fd5b50600054600160a01b900460ff16604051901515815260200161017d565b34801561027057600080fd5b5061012e610bdc565b34801561028557600080fd5b5061012e610bf0565b61019c61029c3660046125eb565b610d41565b3480156102ad57600080fd5b506000546001600160a01b031661020d565b3480156102cb57600080fd5b5061012e6102da36600461271c565b611125565b3480156102eb57600080fd5b5061012e6102fa3660046125b1565b6113fa565b34801561030b57600080fd5b5061012e61031a3660046127e2565b6114d2565b34801561032b57600080fd5b5061019c6118f6565b34801561034057600080fd5b5061012e61034f36600461292d565b611b46565b34801561036057600080fd5b5061012e61036f3660046125b1565b611f10565b61037c611f86565b600083815260026020526040902060018101546001600160a01b03166104005760405162461bcd60e51b815260206004820152602e60248201527f536d6172745472616465526f757465723a3a7570646174654f726465723a207560448201526d373232b334b732b21037b93232b960911b60648201526084015b60405180910390fd5b60018101546001600160a01b031633148061042557506000546001600160a01b031633145b6104825760405162461bcd60e51b815260206004820152602860248201527f536d6172745472616465526f757465723a3a7570646174654f726465723a206660448201526737b93134b23232b760c11b60648201526084016103f7565b60006001820154600160a01b900460ff1660028111156104a4576104a4612d43565b146105175760405162461bcd60e51b815260206004820152603f60248201527f536d6172745472616465526f757465723a3a7570646174654f726465723a206f60448201527f726465722068617320616c7265616479206265656e2070726f6365737365640060648201526084016103f7565b610525600382018484612460565b5060405184907fb8b459bc0688c37baf5f735d17f1711684bc14ab7db116f88bc18bf409b9309a90600090a250505050565b61055f611f86565b6000858152600260205260409020600101546001600160a01b03166105d95760405162461bcd60e51b815260206004820152602a60248201527f536d6172745472616465526f757465723a3a6465706f7369743a20756e64656660448201526934b732b21037b93232b960b11b60648201526084016103f7565b6000858152600260205260409020600101546001600160a01b03163314806106a657506001546040516001600160a01b0390911690637ae1cfca90610622903390602001612b19565b604051602081830303815290604052805190602001206040518263ffffffff1660e01b815260040161065691815260200190565b60206040518083038186803b15801561066e57600080fd5b505afa158015610682573d6000803e3d6000fd5b505050506040513d601f19601f820116820180604052508101906106a69190612698565b6107035760405162461bcd60e51b815260206004820152602860248201527f536d6172745472616465526f757465723a3a6465706f7369743a20666f72656960448201526733b71037b93232b960c11b60648201526084016103f7565b82811461076c5760405162461bcd60e51b815260206004820152603160248201527f536d6172745472616465526f757465723a3a6465706f7369743a20696e76616c6044820152700d2c840c2dadeeadce8e640d8cadccee8d607b1b60648201526084016103f7565b60005b8381101561093557600085858381811061078b5761078b612d59565b90506020020160208101906107a091906125b1565b6001600160a01b0316141561081d5760405162461bcd60e51b815260206004820152603960248201527f536d6172745472616465526f757465723a3a6465706f7369743a20696e76616c60448201527f696420746f6b656e20636f6e747261637420616464726573730000000000000060648201526084016103f7565b82828281811061082f5761082f612d59565b905060200201356000141561084357610923565b610899333085858581811061085a5761085a612d59565b9050602002013588888681811061087357610873612d59565b905060200201602081019061088891906125b1565b6001600160a01b0316929190611fd3565b8282828181106108ab576108ab612d59565b905060200201356003600088815260200190815260200160002060008787858181106108d9576108d9612d59565b90506020020160208101906108ee91906125b1565b6001600160a01b03166001600160a01b03168152602001908152602001600020600082825461091d9190612c3b565b90915550505b8061092d81612d12565b91505061076f565b505050505050565b61096f6040805160a0810182526000808252602082018190529091820190815260006020820152606060409091015290565b600082815260026020818152604092839020835160a0810185528154815260018201546001600160a01b0381169382019390935293909290840191600160a01b900460ff16908111156109c4576109c4612d43565b60028111156109d5576109d5612d43565b815260028201546001600160a01b031660208201526003820180546040909201916109ff90612cd7565b80601f0160208091040260200160405190810160405280929190818152602001828054610a2b90612cd7565b8015610a785780601f10610a4d57610100808354040283529160200191610a78565b820191906000526020600020905b815481529060010190602001808311610a5b57829003601f168201915b5050505050815250509050919050565b6001546040516321f8a72160e01b81527f689d13d8ed8ef1027633ba26e7121121cf427434450a529548f19bf17597439560048201526000916001600160a01b0316906321f8a7219060240160206040518083038186803b158015610aec57600080fd5b505afa158015610b00573d6000803e3d6000fd5b505050506040513d601f19601f82011682018060405250810190610b2491906125ce565b9050610b386000546001600160a01b031690565b6001600160a01b0316336001600160a01b03161480610b5f5750336001600160a01b038216145b610bd15760405162461bcd60e51b815260206004820152603c60248201527f536d6172745472616465526f757465723a3a756e70617573653a2063616c6c6560448201527f72206973206e6f7420746865206f776e6572206f72207061757365720000000060648201526084016103f7565b610bd9612044565b50565b610be4612099565b610bee60006120f3565b565b6001546040516321f8a72160e01b81527f689d13d8ed8ef1027633ba26e7121121cf427434450a529548f19bf17597439560048201526000916001600160a01b0316906321f8a7219060240160206040518083038186803b158015610c5457600080fd5b505afa158015610c68573d6000803e3d6000fd5b505050506040513d601f19601f82011682018060405250810190610c8c91906125ce565b9050610ca06000546001600160a01b031690565b6001600160a01b0316336001600160a01b03161480610cc75750336001600160a01b038216145b610d395760405162461bcd60e51b815260206004820152603a60248201527f536d6172745472616465526f757465723a3a70617573653a2063616c6c65722060448201527f6973206e6f7420746865206f776e6572206f722070617573657200000000000060648201526084016103f7565b610bd9612143565b6000610d4b611f86565b6001546040516001600160a01b0390911690637ae1cfca90610d71908b90602001612b19565b604051602081830303815290604052805190602001206040518263ffffffff1660e01b8152600401610da591815260200190565b60206040518083038186803b158015610dbd57600080fd5b505afa158015610dd1573d6000803e3d6000fd5b505050506040513d601f19601f82011682018060405250810190610df59190612698565b610e605760405162461bcd60e51b815260206004820152603660248201527f536d6172745472616465526f757465723a3a6372656174654f726465723a20696044820152756e76616c69642068616e646c6572206164647265737360501b60648201526084016103f7565b60048054906000610e7083612d12565b909155505060045460008181526002602081905260409091209182556001820180543360ff60a01b19166001600160a81b0319909116179055810180546001600160a01b0319166001600160a01b038b16179055610ed2600382018989612460565b506002810154600182015482546040516001600160a01b0393841693909216917fd4e0aaf5be9b8773c644dfebba8b63f878965712ad8589d85ca4bc9d1b671e2c90600090a460028101546040516303e5aa2d60e21b81526001600160a01b0390911690630f96a8b490610f4a908490600401612be2565b600060405180830381600087803b158015610f6457600080fd5b505af1158015610f78573d6000803e3d6000fd5b505086159150610f939050578054610f939087878787610557565b3415611118576001546040516321f8a72160e01b81527fe78c16c6d839536d3155985aab4e9c6013c8c3d446054bcebc48612f359d81f560048201526000916001600160a01b0316906321f8a7219060240160206040518083038186803b158015610ffd57600080fd5b505afa158015611011573d6000803e3d6000fd5b505050506040513d601f19601f8201168201806040525081019061103591906125ce565b90506001600160a01b0381166110b35760405162461bcd60e51b815260206004820152603f60248201527f536d6172745472616465526f757465723a3a6372656174654f726465723a206960448201527f6e76616c69642062616c616e636520636f6e747261637420616464726573730060648201526084016103f7565b600182015460405163f340fa0160e01b81526001600160a01b0391821660048201529082169063f340fa019034906024016000604051808303818588803b1580156110fd57600080fd5b505af1158015611111573d6000803e3d6000fd5b5050505050505b5498975050505050505050565b600083815260026020526040902060018101546001600160a01b03166111a45760405162461bcd60e51b815260206004820152602e60248201527f536d6172745472616465526f757465723a3a63616e63656c4f726465723a207560448201526d373232b334b732b21037b93232b960911b60648201526084016103f7565b60018101546001600160a01b03163314806111c957506000546001600160a01b031633145b6112265760405162461bcd60e51b815260206004820152602860248201527f536d6172745472616465526f757465723a3a63616e63656c4f726465723a206660448201526737b93134b23232b760c11b60648201526084016103f7565b60006001820154600160a01b900460ff16600281111561124857611248612d43565b146112bb5760405162461bcd60e51b815260206004820152603f60248201527f536d6172745472616465526f757465723a3a63616e63656c4f726465723a206f60448201527f726465722068617320616c7265616479206265656e2070726f6365737365640060648201526084016103f7565b60018101805460ff60a01b1916600160a11b17905580546040517fc41f4ceb2938876c35e61b705e9d2f18a02c4a26ce5e049a6308a943d46851b390600090a260008267ffffffffffffffff81111561131657611316612d6f565b60405190808252806020026020018201604052801561133f578160200160208202803683370190505b50905060005b838110156113d35760008681526003602052604081209086868481811061136e5761136e612d59565b905060200201602081019061138391906125b1565b6001600160a01b03166001600160a01b03168152602001908152602001600020548282815181106113b6576113b6612d59565b6020908102919091010152806113cb81612d12565b915050611345565b5060018201546113f39086908690869085906001600160a01b03166114d2565b5050505050565b611402612099565b6001600160a01b0381166114885760405162461bcd60e51b815260206004820152604160248201527f536d6172745472616465526f757465723a3a6368616e676553746f726167653a60448201527f20696e76616c69642073746f7261676520636f6e7472616374206164647265736064820152607360f81b608482015260a4016103f7565b600180546001600160a01b0319166001600160a01b0383169081179091556040517f8cbb7a6ee88dbf214a9b660a9f1af063e42a24cbfe26a046a718b3f621baa53990600090a250565b6114da611f86565b6000858152600260205260409020600101546001600160a01b031633148061150c57506000546001600160a01b031633145b806115bc57506001546040516001600160a01b0390911690637ae1cfca90611538903390602001612b19565b604051602081830303815290604052805190602001206040518263ffffffff1660e01b815260040161156c91815260200190565b60206040518083038186803b15801561158457600080fd5b505afa158015611598573d6000803e3d6000fd5b505050506040513d601f19601f820116820180604052508101906115bc9190612698565b6116185760405162461bcd60e51b815260206004820152602760248201527f536d6172745472616465526f757465723a3a726566756e643a20666f72656967604482015266371037b93232b960c91b60648201526084016103f7565b815183146116815760405162461bcd60e51b815260206004820152603060248201527f536d6172745472616465526f757465723a3a726566756e643a20696e76616c6960448201526f0c840c2dadeeadce8e640d8cadccee8d60831b60648201526084016103f7565b60005b838110156109355760008585838181106116a0576116a0612d59565b90506020020160208101906116b591906125b1565b6001600160a01b031614156117325760405162461bcd60e51b815260206004820152603860248201527f536d6172745472616465526f757465723a3a726566756e643a20696e76616c6960448201527f6420746f6b656e20636f6e74726163742061646472657373000000000000000060648201526084016103f7565b82818151811061174457611744612d59565b602002602001015160001415611759576118e4565b82818151811061176b5761176b612d59565b602002602001015161179e8787878581811061178957611789612d59565b90506020020160208101906101c591906125b1565b10156118035760405162461bcd60e51b815260206004820152602e60248201527f536d6172745472616465526f757465723a3a726566756e643a20696e7375666660448201526d696369656e742062616c616e636560901b60648201526084016103f7565b82818151811061181557611815612d59565b602002602001015160036000888152602001908152602001600020600087878581811061184457611844612d59565b905060200201602081019061185991906125b1565b6001600160a01b03166001600160a01b0316815260200190815260200160002060008282546118889190612c94565b925050819055506118e4828483815181106118a5576118a5612d59565b60200260200101518787858181106118bf576118bf612d59565b90506020020160208101906118d491906125b1565b6001600160a01b03169190612186565b806118ee81612d12565b915050611684565b60015460405163bd02d0f560e01b81527f01417eba2c08fa95fc5f4564fd6603141800a2c49db0f9dae8bab823cc80c3ab600482015260009182916001600160a01b039091169063bd02d0f59060240160206040518083038186803b15801561195e57600080fd5b505afa158015611972573d6000803e3d6000fd5b505050506040513d601f19601f8201168201806040525081019061199691906126d3565b9050806119a557600091505090565b6001546040516321f8a72160e01b81527f65c90423fe7c880476633a7e36521740f87199d233dc56eb4ca6643eb76f605f60048201526000916001600160a01b0316906321f8a7219060240160206040518083038186803b158015611a0957600080fd5b505afa158015611a1d573d6000803e3d6000fd5b505050506040513d601f19601f82011682018060405250810190611a4191906125ce565b6001600160a01b031663feaf968c6040518163ffffffff1660e01b815260040160a06040518083038186803b158015611a7957600080fd5b505afa158015611a8d573d6000803e3d6000fd5b505050506040513d601f19601f82011682018060405250810190611ab19190612980565b50505091505060008113611b225760405162461bcd60e51b815260206004820152603260248201527f536d6172745472616465526f757465723a3a6665653a20696e76616c6964207060448201527172696365206665656420726573706f6e736560701b60648201526084016103f7565b80611b3583670de0b6b3a7640000612c75565b611b3f9190612c53565b9250505090565b611b4e611f86565b600084815260026020526040902060018101546001600160a01b0316611bcd5760405162461bcd60e51b815260206004820152602e60248201527f536d6172745472616465526f757465723a3a68616e646c654f726465723a207560448201526d373232b334b732b21037b93232b960911b60648201526084016103f7565b60006001820154600160a01b900460ff166002811115611bef57611bef612d43565b14611c625760405162461bcd60e51b815260206004820152603f60248201527f536d6172745472616465526f757465723a3a68616e646c654f726465723a206f60448201527f726465722068617320616c7265616479206265656e2070726f6365737365640060648201526084016103f7565b60018101546001600160a01b03163214611e61576001546040516321f8a72160e01b81527fe78c16c6d839536d3155985aab4e9c6013c8c3d446054bcebc48612f359d81f560048201526000916001600160a01b0316906321f8a7219060240160206040518083038186803b158015611cda57600080fd5b505afa158015611cee573d6000803e3d6000fd5b505050506040513d601f19601f82011682018060405250810190611d1291906125ce565b90506001600160a01b038116611d905760405162461bcd60e51b815260206004820152603f60248201527f536d6172745472616465526f757465723a3a68616e646c654f726465723a206960448201527f6e76616c69642062616c616e636520636f6e747261637420616464726573730060648201526084016103f7565b60018201546001600160a01b038083169163e578a225911685611db16118f6565b6040516001600160e01b031960e086901b1681526001600160a01b0390931660048401526024830191909152604482015260806064820152601060848201526f536d617274547261646548616e646c6560801b60a482015260c401602060405180830381600087803b158015611e2657600080fd5b505af1158015611e3a573d6000803e3d6000fd5b505050506040513d601f19601f82011682018060405250810190611e5e91906126d3565b50505b60028101546040516323cb824760e01b81526001600160a01b03909116906323cb824790611e9790849088908890600401612bf5565b600060405180830381600087803b158015611eb157600080fd5b505af1158015611ec5573d6000803e3d6000fd5b5050505060018101805460ff60a01b1916600160a01b17905560405185907f182a8675c662ed6d9324fc2ae9526bf4c72c7bbbcca41f1311c91e94acd2cc5290600090a25050505050565b611f18612099565b6001600160a01b038116611f7d5760405162461bcd60e51b815260206004820152602660248201527f4f776e61626c653a206e6577206f776e657220697320746865207a65726f206160448201526564647265737360d01b60648201526084016103f7565b610bd9816120f3565b600054600160a01b900460ff1615610bee5760405162461bcd60e51b815260206004820152601060248201526f14185d5cd8589b194e881c185d5cd95960821b60448201526064016103f7565b6040516001600160a01b038085166024830152831660448201526064810182905261203e9085906323b872dd60e01b906084015b60408051601f198184030181529190526020810180516001600160e01b03166001600160e01b0319909316929092179091526121bb565b50505050565b61204c61228d565b6000805460ff60a01b191690557f5db9ee0a495bf2e6ff9c91a7834c1ba4fdd244a5e8aa4e537bd38aeae4b073aa335b6040516001600160a01b03909116815260200160405180910390a1565b6000546001600160a01b03163314610bee5760405162461bcd60e51b815260206004820181905260248201527f4f776e61626c653a2063616c6c6572206973206e6f7420746865206f776e657260448201526064016103f7565b600080546001600160a01b038381166001600160a01b0319831681178455604051919092169283917f8be0079c531659141344cd1fd0a4f28419497f9722a3daafe3b4186f6b6457e09190a35050565b61214b611f86565b6000805460ff60a01b1916600160a01b1790557f62e78cea01bee320cd4e420270b5ea74000d11b0c9f74754ebdbfc544b05a25861207c3390565b6040516001600160a01b0383166024820152604481018290526121b690849063a9059cbb60e01b90606401612007565b505050565b6000612210826040518060400160405280602081526020017f5361666545524332303a206c6f772d6c6576656c2063616c6c206661696c6564815250856001600160a01b03166122dd9092919063ffffffff16565b8051909150156121b6578080602001905181019061222e9190612698565b6121b65760405162461bcd60e51b815260206004820152602a60248201527f5361666545524332303a204552433230206f7065726174696f6e20646964206e6044820152691bdd081cdd58d8d9595960b21b60648201526084016103f7565b600054600160a01b900460ff16610bee5760405162461bcd60e51b815260206004820152601460248201527314185d5cd8589b194e881b9bdd081c185d5cd95960621b60448201526064016103f7565b60606122ec84846000856122f6565b90505b9392505050565b6060824710156123575760405162461bcd60e51b815260206004820152602660248201527f416464726573733a20696e73756666696369656e742062616c616e636520666f6044820152651c8818d85b1b60d21b60648201526084016103f7565b6001600160a01b0385163b6123ae5760405162461bcd60e51b815260206004820152601d60248201527f416464726573733a2063616c6c20746f206e6f6e2d636f6e747261637400000060448201526064016103f7565b600080866001600160a01b031685876040516123ca9190612afd565b60006040518083038185875af1925050503d8060008114612407576040519150601f19603f3d011682016040523d82523d6000602084013e61240c565b606091505b509150915061241c828286612427565b979650505050505050565b606083156124365750816122ef565b8251156124465782518084602001fd5b8160405162461bcd60e51b81526004016103f79190612b6c565b82805461246c90612cd7565b90600052602060002090601f01602090048101928261248e57600085556124d4565b82601f106124a75782800160ff198235161785556124d4565b828001600101855582156124d4579182015b828111156124d45782358255916020019190600101906124b9565b506124e09291506124e4565b5090565b5b808211156124e057600081556001016124e5565b803561250481612d85565b919050565b60008083601f84011261251b57600080fd5b50813567ffffffffffffffff81111561253357600080fd5b6020830191508360208260051b850101111561254e57600080fd5b9250929050565b60008083601f84011261256757600080fd5b50813567ffffffffffffffff81111561257f57600080fd5b60208301915083602082850101111561254e57600080fd5b805169ffffffffffffffffffff8116811461250457600080fd5b6000602082840312156125c357600080fd5b81356122ef81612d85565b6000602082840312156125e057600080fd5b81516122ef81612d85565b60008060008060008060006080888a03121561260657600080fd5b873561261181612d85565b9650602088013567ffffffffffffffff8082111561262e57600080fd5b61263a8b838c01612555565b909850965060408a013591508082111561265357600080fd5b61265f8b838c01612509565b909650945060608a013591508082111561267857600080fd5b506126858a828b01612509565b989b979a50959850939692959293505050565b6000602082840312156126aa57600080fd5b815180151581146122ef57600080fd5b6000602082840312156126cc57600080fd5b5035919050565b6000602082840312156126e557600080fd5b5051919050565b600080604083850312156126ff57600080fd5b82359150602083013561271181612d85565b809150509250929050565b60008060006040848603121561273157600080fd5b83359250602084013567ffffffffffffffff81111561274f57600080fd5b61275b86828701612509565b9497909650939450505050565b60008060008060006060868803121561278057600080fd5b85359450602086013567ffffffffffffffff8082111561279f57600080fd5b6127ab89838a01612509565b909650945060408801359150808211156127c457600080fd5b506127d188828901612509565b969995985093965092949392505050565b6000806000806000608086880312156127fa57600080fd5b8535945060208087013567ffffffffffffffff8082111561281a57600080fd5b6128268a838b01612509565b9097509550604089013591508082111561283f57600080fd5b818901915089601f83011261285357600080fd5b81358181111561286557612865612d6f565b8060051b604051601f19603f8301168101818110858211171561288a5761288a612d6f565b604052828152858101935084860182860187018e10156128a957600080fd5b600095505b838610156128cc5780358552600195909501949386019386016128ae565b508097505050505050506128e2606087016124f9565b90509295509295909350565b60008060006040848603121561290357600080fd5b83359250602084013567ffffffffffffffff81111561292157600080fd5b61275b86828701612555565b6000806000806060858703121561294357600080fd5b84359350602085013567ffffffffffffffff81111561296157600080fd5b61296d87828801612555565b9598909750949560400135949350505050565b600080600080600060a0868803121561299857600080fd5b6129a186612597565b94506020860151935060408601519250606086015191506128e260808701612597565b600081518084526129dc816020860160208601612cab565b601f01601f19169290920160200192915050565b60038110612a0e57634e487b7160e01b600052602160045260246000fd5b9052565b80548252600060018083015460018060a01b03602081831681880152612a416040880160ff8560a01c166129f0565b6002860154909116606087015260a060808701526003850180549092506000919080851c85821680612a7457607f821691505b838210811415612a9257634e487b7160e01b85526022600452602485fd5b60a08a0182905260c08a01818015612ab15760018114612ac257612aed565b60ff19851682528582019650612aed565b60008881526020902060005b85811015612ae757815484820152908a01908701612ace565b83019750505b50949a9950505050505050505050565b60008251612b0f818460208701612cab565b9190910192915050565b7f4446483a436f6e74726163743a536d61727454726164653a616c6c6f7765644881526630b7323632b91d60c91b602082015260609190911b6bffffffffffffffffffffffff19166027820152603b0190565b6020815260006122ef60208301846129c4565b60208082528251828201528201516001600160a01b03908116604080840191909152830151600091612bb460608501836129f0565b8060608601511660808501525050608083015160a080840152612bda60c08401826129c4565b949350505050565b6020815260006122ef6020830184612a12565b604081526000612c086040830186612a12565b8281036020840152838152838560208301376000602085830101526020601f19601f860116820101915050949350505050565b60008219821115612c4e57612c4e612d2d565b500190565b600082612c7057634e487b7160e01b600052601260045260246000fd5b500490565b6000816000190483118215151615612c8f57612c8f612d2d565b500290565b600082821015612ca657612ca6612d2d565b500390565b60005b83811015612cc6578181015183820152602001612cae565b8381111561203e5750506000910152565b600181811c90821680612ceb57607f821691505b60208210811415612d0c57634e487b7160e01b600052602260045260246000fd5b50919050565b6000600019821415612d2657612d26612d2d565b5060010190565b634e487b7160e01b600052601160045260246000fd5b634e487b7160e01b600052602160045260246000fd5b634e487b7160e01b600052603260045260246000fd5b634e487b7160e01b600052604160045260246000fd5b6001600160a01b0381168114610bd957600080fdfea2646970667358221220ed2978a0710fe9be051cb3c69e3e805284a797895800a9a77b1054dfb04c089664736f6c63430008060033",
  "linkReferences": {},
  "deployedLinkReferences": {}
}