{
  "_format": "hh-sol-artifact-1",
  "contractName": "SmartTradeRouter",
  "sourceName": "contracts/automate/SmartTrade/Router.sol",
  "abi": [
    {
      "inputs": [
        {
          "internalType": "address",
          "name": "_info",
          "type": "address"
        }
      ],
      "stateMutability": "nonpayable",
      "type": "constructor"
    },
    {
      "anonymous": false,
      "inputs": [
        {
          "indexed": true,
          "internalType": "address",
          "name": "handler",
          "type": "address"
        }
      ],
      "name": "HandlerAdded",
      "type": "event"
    },
    {
      "anonymous": false,
      "inputs": [
        {
          "indexed": true,
          "internalType": "address",
          "name": "handler",
          "type": "address"
        }
      ],
      "name": "HandlerRemoved",
      "type": "event"
    },
    {
      "anonymous": false,
      "inputs": [
        {
          "indexed": true,
          "internalType": "uint256",
          "name": "id",
          "type": "uint256"
        }
      ],
      "name": "OrderCanceled",
      "type": "event"
    },
    {
      "anonymous": false,
      "inputs": [
        {
          "indexed": true,
          "internalType": "uint256",
          "name": "id",
          "type": "uint256"
        },
        {
          "indexed": true,
          "internalType": "address",
          "name": "owner",
          "type": "address"
        },
        {
          "indexed": true,
          "internalType": "address",
          "name": "handler",
          "type": "address"
        }
      ],
      "name": "OrderCreated",
      "type": "event"
    },
    {
      "anonymous": false,
      "inputs": [
        {
          "indexed": true,
          "internalType": "uint256",
          "name": "id",
          "type": "uint256"
        }
      ],
      "name": "OrderSuccessed",
      "type": "event"
    },
    {
      "anonymous": false,
      "inputs": [
        {
          "indexed": true,
          "internalType": "address",
          "name": "previousOwner",
          "type": "address"
        },
        {
          "indexed": true,
          "internalType": "address",
          "name": "newOwner",
          "type": "address"
        }
      ],
      "name": "OwnershipTransferred",
      "type": "event"
    },
    {
      "anonymous": false,
      "inputs": [
        {
          "indexed": false,
          "internalType": "address",
          "name": "account",
          "type": "address"
        }
      ],
      "name": "Paused",
      "type": "event"
    },
    {
      "anonymous": false,
      "inputs": [
        {
          "indexed": true,
          "internalType": "address",
          "name": "info",
          "type": "address"
        }
      ],
      "name": "StorageChanged",
      "type": "event"
    },
    {
      "anonymous": false,
      "inputs": [
        {
          "indexed": false,
          "internalType": "address",
          "name": "account",
          "type": "address"
        }
      ],
      "name": "Unpaused",
      "type": "event"
    },
    {
      "inputs": [
        {
          "internalType": "uint256",
          "name": "orderId",
          "type": "uint256"
        },
        {
          "internalType": "address",
          "name": "token",
          "type": "address"
        }
      ],
      "name": "balanceOf",
      "outputs": [
        {
          "internalType": "uint256",
          "name": "",
          "type": "uint256"
        }
      ],
      "stateMutability": "view",
      "type": "function"
    },
    {
      "inputs": [
        {
          "internalType": "uint256",
          "name": "id",
          "type": "uint256"
        },
        {
          "internalType": "address[]",
          "name": "refundTokens",
          "type": "address[]"
        }
      ],
      "name": "cancelOrder",
      "outputs": [],
      "stateMutability": "nonpayable",
      "type": "function"
    },
    {
      "inputs": [
        {
          "internalType": "address",
          "name": "_info",
          "type": "address"
        }
      ],
      "name": "changeStorage",
      "outputs": [],
      "stateMutability": "nonpayable",
      "type": "function"
    },
    {
      "inputs": [
        {
          "internalType": "address",
          "name": "handler",
          "type": "address"
        },
        {
          "internalType": "bytes",
          "name": "callData",
          "type": "bytes"
        },
        {
          "internalType": "address[]",
          "name": "tokens",
          "type": "address[]"
        },
        {
          "internalType": "uint256[]",
          "name": "amounts",
          "type": "uint256[]"
        }
      ],
      "name": "createOrder",
      "outputs": [
        {
          "internalType": "uint256",
          "name": "",
          "type": "uint256"
        }
      ],
      "stateMutability": "payable",
      "type": "function"
    },
    {
      "inputs": [
        {
          "internalType": "uint256",
          "name": "orderId",
          "type": "uint256"
        },
        {
          "internalType": "address[]",
          "name": "tokens",
          "type": "address[]"
        },
        {
          "internalType": "uint256[]",
          "name": "amounts",
          "type": "uint256[]"
        }
      ],
      "name": "deposit",
      "outputs": [],
      "stateMutability": "nonpayable",
      "type": "function"
    },
    {
      "inputs": [],
      "name": "fee",
      "outputs": [
        {
          "internalType": "uint256",
          "name": "",
          "type": "uint256"
        }
      ],
      "stateMutability": "view",
      "type": "function"
    },
    {
      "inputs": [
        {
          "internalType": "uint256",
          "name": "id",
          "type": "uint256"
        },
        {
          "internalType": "bytes",
          "name": "options",
          "type": "bytes"
        },
        {
          "internalType": "uint256",
          "name": "gasFee",
          "type": "uint256"
        }
      ],
      "name": "handleOrder",
      "outputs": [],
      "stateMutability": "nonpayable",
      "type": "function"
    },
    {
      "inputs": [],
      "name": "info",
      "outputs": [
        {
          "internalType": "contract Storage",
          "name": "",
          "type": "address"
        }
      ],
      "stateMutability": "view",
      "type": "function"
    },
    {
      "inputs": [
        {
          "internalType": "uint256",
          "name": "id",
          "type": "uint256"
        }
      ],
      "name": "order",
      "outputs": [
        {
          "components": [
            {
              "internalType": "uint256",
              "name": "id",
              "type": "uint256"
            },
            {
              "internalType": "address",
              "name": "owner",
              "type": "address"
            },
            {
              "internalType": "enum SmartTradeRouter.OrderStatus",
              "name": "status",
              "type": "uint8"
            },
            {
              "internalType": "address",
              "name": "handler",
              "type": "address"
            },
            {
              "internalType": "bytes",
              "name": "callData",
              "type": "bytes"
            }
          ],
          "internalType": "struct SmartTradeRouter.Order",
          "name": "",
          "type": "tuple"
        }
      ],
      "stateMutability": "view",
      "type": "function"
    },
    {
      "inputs": [],
      "name": "ordersCount",
      "outputs": [
        {
          "internalType": "uint256",
          "name": "",
          "type": "uint256"
        }
      ],
      "stateMutability": "view",
      "type": "function"
    },
    {
      "inputs": [],
      "name": "owner",
      "outputs": [
        {
          "internalType": "address",
          "name": "",
          "type": "address"
        }
      ],
      "stateMutability": "view",
      "type": "function"
    },
    {
      "inputs": [],
      "name": "pause",
      "outputs": [],
      "stateMutability": "nonpayable",
      "type": "function"
    },
    {
      "inputs": [],
      "name": "paused",
      "outputs": [
        {
          "internalType": "bool",
          "name": "",
          "type": "bool"
        }
      ],
      "stateMutability": "view",
      "type": "function"
    },
    {
      "inputs": [
        {
          "internalType": "uint256",
          "name": "orderId",
          "type": "uint256"
        },
        {
          "internalType": "address[]",
          "name": "tokens",
          "type": "address[]"
        },
        {
          "internalType": "uint256[]",
          "name": "amounts",
          "type": "uint256[]"
        },
        {
          "internalType": "address",
          "name": "recipient",
          "type": "address"
        }
      ],
      "name": "refund",
      "outputs": [],
      "stateMutability": "nonpayable",
      "type": "function"
    },
    {
      "inputs": [],
      "name": "renounceOwnership",
      "outputs": [],
      "stateMutability": "nonpayable",
      "type": "function"
    },
    {
      "inputs": [
        {
          "internalType": "address",
          "name": "newOwner",
          "type": "address"
        }
      ],
      "name": "transferOwnership",
      "outputs": [],
      "stateMutability": "nonpayable",
      "type": "function"
    },
    {
      "inputs": [],
      "name": "unpause",
      "outputs": [],
      "stateMutability": "nonpayable",
      "type": "function"
    }
  ],
  "bytecode": "0x60806040523480156200001157600080fd5b5060405162002d0d38038062002d0d833981016040819052620000349162000143565b6200003f33620000f3565b6000805460ff60a01b191690556001600160a01b038116620000cd5760405162461bcd60e51b815260206004820152603f60248201527f536d6172745472616465526f757465723a3a636f6e7374727563746f723a206960448201527f6e76616c69642073746f7261676520636f6e7472616374206164647265737300606482015260840160405180910390fd5b600180546001600160a01b0319166001600160a01b039290921691909117905562000175565b600080546001600160a01b038381166001600160a01b0319831681178455604051919092169283917f8be0079c531659141344cd1fd0a4f28419497f9722a3daafe3b4186f6b6457e09190a35050565b6000602082840312156200015657600080fd5b81516001600160a01b03811681146200016e57600080fd5b9392505050565b612b8880620001856000396000f3fe6080604052600436106100fe5760003560e01c80638456cb5911610095578063c50c97d011610064578063c50c97d0146102b4578063ca375b94146102d4578063ddca3f43146102f4578063e92ed75114610309578063f2fde38b1461032957600080fd5b80638456cb591461024e57806387dc9772146102635780638da5cb5b14610276578063a3a9d0d01461029457600080fd5b8063370158ea116100d1578063370158ea146101c25780633f4ba83a146101fa5780635c975abb1461020f578063715018a61461023957600080fd5b80630d7a41b71461010357806321603f431461012557806335daa7311461015b5780633656eec21461017f575b600080fd5b34801561010f57600080fd5b5061012361011e36600461255f565b610349565b005b34801561013157600080fd5b506101456101403660046124b1565b610734565b6040516101529190612937565b60405180910390f35b34801561016757600080fd5b5061017160045481565b604051908152602001610152565b34801561018b57600080fd5b5061017161019a3660046124e3565b60009182526003602090815260408084206001600160a01b0393909316845291905290205490565b3480156101ce57600080fd5b506001546101e2906001600160a01b031681565b6040516001600160a01b039091168152602001610152565b34801561020657600080fd5b5061012361087f565b34801561021b57600080fd5b50600054600160a01b900460ff166040519015158152602001610152565b34801561024557600080fd5b506101236109d3565b34801561025a57600080fd5b506101236109e7565b6101716102713660046123e2565b610b38565b34801561028257600080fd5b506000546001600160a01b03166101e2565b3480156102a057600080fd5b506101236102af366004612513565b610f1c565b3480156102c057600080fd5b506101236102cf3660046123a8565b6111f1565b3480156102e057600080fd5b506101236102ef3660046125d9565b6112c9565b34801561030057600080fd5b506101716116ed565b34801561031557600080fd5b506101236103243660046126e5565b61193d565b34801561033557600080fd5b506101236103443660046123a8565b611d07565b610351611d7d565b6000858152600260205260409020600101546001600160a01b03166103d05760405162461bcd60e51b815260206004820152602a60248201527f536d6172745472616465526f757465723a3a6465706f7369743a20756e64656660448201526934b732b21037b93232b960b11b60648201526084015b60405180910390fd5b6000858152600260205260409020600101546001600160a01b031633148061049d57506001546040516001600160a01b0390911690637ae1cfca906104199033906020016128d1565b604051602081830303815290604052805190602001206040518263ffffffff1660e01b815260040161044d91815260200190565b60206040518083038186803b15801561046557600080fd5b505afa158015610479573d6000803e3d6000fd5b505050506040513d601f19601f8201168201806040525081019061049d919061248f565b6104fa5760405162461bcd60e51b815260206004820152602860248201527f536d6172745472616465526f757465723a3a6465706f7369743a20666f72656960448201526733b71037b93232b960c11b60648201526084016103c7565b8281146105635760405162461bcd60e51b815260206004820152603160248201527f536d6172745472616465526f757465723a3a6465706f7369743a20696e76616c6044820152700d2c840c2dadeeadce8e640d8cadccee8d607b1b60648201526084016103c7565b60005b8381101561072c57600085858381811061058257610582612b11565b905060200201602081019061059791906123a8565b6001600160a01b031614156106145760405162461bcd60e51b815260206004820152603960248201527f536d6172745472616465526f757465723a3a6465706f7369743a20696e76616c60448201527f696420746f6b656e20636f6e747261637420616464726573730000000000000060648201526084016103c7565b82828281811061062657610626612b11565b905060200201356000141561063a5761071a565b610690333085858581811061065157610651612b11565b9050602002013588888681811061066a5761066a612b11565b905060200201602081019061067f91906123a8565b6001600160a01b0316929190611dca565b8282828181106106a2576106a2612b11565b905060200201356003600088815260200190815260200160002060008787858181106106d0576106d0612b11565b90506020020160208101906106e591906123a8565b6001600160a01b03166001600160a01b03168152602001908152602001600020600082825461071491906129f3565b90915550505b8061072481612aca565b915050610566565b505050505050565b6107666040805160a0810182526000808252602082018190529091820190815260006020820152606060409091015290565b600082815260026020818152604092839020835160a0810185528154815260018201546001600160a01b0381169382019390935293909290840191600160a01b900460ff16908111156107bb576107bb612afb565b60028111156107cc576107cc612afb565b815260028201546001600160a01b031660208201526003820180546040909201916107f690612a8f565b80601f016020809104026020016040519081016040528092919081815260200182805461082290612a8f565b801561086f5780601f106108445761010080835404028352916020019161086f565b820191906000526020600020905b81548152906001019060200180831161085257829003601f168201915b5050505050815250509050919050565b6001546040516321f8a72160e01b81527f689d13d8ed8ef1027633ba26e7121121cf427434450a529548f19bf17597439560048201526000916001600160a01b0316906321f8a7219060240160206040518083038186803b1580156108e357600080fd5b505afa1580156108f7573d6000803e3d6000fd5b505050506040513d601f19601f8201168201806040525081019061091b91906123c5565b905061092f6000546001600160a01b031690565b6001600160a01b0316336001600160a01b031614806109565750336001600160a01b038216145b6109c85760405162461bcd60e51b815260206004820152603c60248201527f536d6172745472616465526f757465723a3a756e70617573653a2063616c6c6560448201527f72206973206e6f7420746865206f776e6572206f72207061757365720000000060648201526084016103c7565b6109d0611e3b565b50565b6109db611e90565b6109e56000611eea565b565b6001546040516321f8a72160e01b81527f689d13d8ed8ef1027633ba26e7121121cf427434450a529548f19bf17597439560048201526000916001600160a01b0316906321f8a7219060240160206040518083038186803b158015610a4b57600080fd5b505afa158015610a5f573d6000803e3d6000fd5b505050506040513d601f19601f82011682018060405250810190610a8391906123c5565b9050610a976000546001600160a01b031690565b6001600160a01b0316336001600160a01b03161480610abe5750336001600160a01b038216145b610b305760405162461bcd60e51b815260206004820152603a60248201527f536d6172745472616465526f757465723a3a70617573653a2063616c6c65722060448201527f6973206e6f7420746865206f776e6572206f722070617573657200000000000060648201526084016103c7565b6109d0611f3a565b6000610b42611d7d565b6001546040516001600160a01b0390911690637ae1cfca90610b68908b906020016128d1565b604051602081830303815290604052805190602001206040518263ffffffff1660e01b8152600401610b9c91815260200190565b60206040518083038186803b158015610bb457600080fd5b505afa158015610bc8573d6000803e3d6000fd5b505050506040513d601f19601f82011682018060405250810190610bec919061248f565b610c575760405162461bcd60e51b815260206004820152603660248201527f536d6172745472616465526f757465723a3a6372656174654f726465723a20696044820152756e76616c69642068616e646c6572206164647265737360501b60648201526084016103c7565b60048054906000610c6783612aca565b909155505060045460008181526002602081905260409091209182556001820180543360ff60a01b19166001600160a81b0319909116179055810180546001600160a01b0319166001600160a01b038b16179055610cc9600382018989612257565b506002810154600182015482546040516001600160a01b0393841693909216917fd4e0aaf5be9b8773c644dfebba8b63f878965712ad8589d85ca4bc9d1b671e2c90600090a460028101546040516303e5aa2d60e21b81526001600160a01b0390911690630f96a8b490610d4190849060040161299a565b600060405180830381600087803b158015610d5b57600080fd5b505af1158015610d6f573d6000803e3d6000fd5b505086159150610d8a9050578054610d8a9087878787610349565b3415610f0f576001546040516321f8a72160e01b81527fe78c16c6d839536d3155985aab4e9c6013c8c3d446054bcebc48612f359d81f560048201526000916001600160a01b0316906321f8a7219060240160206040518083038186803b158015610df457600080fd5b505afa158015610e08573d6000803e3d6000fd5b505050506040513d601f19601f82011682018060405250810190610e2c91906123c5565b90506001600160a01b038116610eaa5760405162461bcd60e51b815260206004820152603f60248201527f536d6172745472616465526f757465723a3a6372656174654f726465723a206960448201527f6e76616c69642062616c616e636520636f6e747261637420616464726573730060648201526084016103c7565b600182015460405163f340fa0160e01b81526001600160a01b0391821660048201529082169063f340fa019034906024016000604051808303818588803b158015610ef457600080fd5b505af1158015610f08573d6000803e3d6000fd5b5050505050505b5498975050505050505050565b600083815260026020526040902060018101546001600160a01b0316610f9b5760405162461bcd60e51b815260206004820152602e60248201527f536d6172745472616465526f757465723a3a63616e63656c4f726465723a207560448201526d373232b334b732b21037b93232b960911b60648201526084016103c7565b60018101546001600160a01b0316331480610fc057506000546001600160a01b031633145b61101d5760405162461bcd60e51b815260206004820152602860248201527f536d6172745472616465526f757465723a3a63616e63656c4f726465723a206660448201526737b93134b23232b760c11b60648201526084016103c7565b60006001820154600160a01b900460ff16600281111561103f5761103f612afb565b146110b25760405162461bcd60e51b815260206004820152603f60248201527f536d6172745472616465526f757465723a3a63616e63656c4f726465723a206f60448201527f726465722068617320616c7265616479206265656e2070726f6365737365640060648201526084016103c7565b60018101805460ff60a01b1916600160a11b17905580546040517fc41f4ceb2938876c35e61b705e9d2f18a02c4a26ce5e049a6308a943d46851b390600090a260008267ffffffffffffffff81111561110d5761110d612b27565b604051908082528060200260200182016040528015611136578160200160208202803683370190505b50905060005b838110156111ca5760008681526003602052604081209086868481811061116557611165612b11565b905060200201602081019061117a91906123a8565b6001600160a01b03166001600160a01b03168152602001908152602001600020548282815181106111ad576111ad612b11565b6020908102919091010152806111c281612aca565b91505061113c565b5060018201546111ea9086908690869085906001600160a01b03166112c9565b5050505050565b6111f9611e90565b6001600160a01b03811661127f5760405162461bcd60e51b815260206004820152604160248201527f536d6172745472616465526f757465723a3a6368616e676553746f726167653a60448201527f20696e76616c69642073746f7261676520636f6e7472616374206164647265736064820152607360f81b608482015260a4016103c7565b600180546001600160a01b0319166001600160a01b0383169081179091556040517f8cbb7a6ee88dbf214a9b660a9f1af063e42a24cbfe26a046a718b3f621baa53990600090a250565b6112d1611d7d565b6000858152600260205260409020600101546001600160a01b031633148061130357506000546001600160a01b031633145b806113b357506001546040516001600160a01b0390911690637ae1cfca9061132f9033906020016128d1565b604051602081830303815290604052805190602001206040518263ffffffff1660e01b815260040161136391815260200190565b60206040518083038186803b15801561137b57600080fd5b505afa15801561138f573d6000803e3d6000fd5b505050506040513d601f19601f820116820180604052508101906113b3919061248f565b61140f5760405162461bcd60e51b815260206004820152602760248201527f536d6172745472616465526f757465723a3a726566756e643a20666f72656967604482015266371037b93232b960c91b60648201526084016103c7565b815183146114785760405162461bcd60e51b815260206004820152603060248201527f536d6172745472616465526f757465723a3a726566756e643a20696e76616c6960448201526f0c840c2dadeeadce8e640d8cadccee8d60831b60648201526084016103c7565b60005b8381101561072c57600085858381811061149757611497612b11565b90506020020160208101906114ac91906123a8565b6001600160a01b031614156115295760405162461bcd60e51b815260206004820152603860248201527f536d6172745472616465526f757465723a3a726566756e643a20696e76616c6960448201527f6420746f6b656e20636f6e74726163742061646472657373000000000000000060648201526084016103c7565b82818151811061153b5761153b612b11565b602002602001015160001415611550576116db565b82818151811061156257611562612b11565b60200260200101516115958787878581811061158057611580612b11565b905060200201602081019061019a91906123a8565b10156115fa5760405162461bcd60e51b815260206004820152602e60248201527f536d6172745472616465526f757465723a3a726566756e643a20696e7375666660448201526d696369656e742062616c616e636560901b60648201526084016103c7565b82818151811061160c5761160c612b11565b602002602001015160036000888152602001908152602001600020600087878581811061163b5761163b612b11565b905060200201602081019061165091906123a8565b6001600160a01b03166001600160a01b03168152602001908152602001600020600082825461167f9190612a4c565b925050819055506116db8284838151811061169c5761169c612b11565b60200260200101518787858181106116b6576116b6612b11565b90506020020160208101906116cb91906123a8565b6001600160a01b03169190611f7d565b806116e581612aca565b91505061147b565b60015460405163bd02d0f560e01b81527f01417eba2c08fa95fc5f4564fd6603141800a2c49db0f9dae8bab823cc80c3ab600482015260009182916001600160a01b039091169063bd02d0f59060240160206040518083038186803b15801561175557600080fd5b505afa158015611769573d6000803e3d6000fd5b505050506040513d601f19601f8201168201806040525081019061178d91906124ca565b90508061179c57600091505090565b6001546040516321f8a72160e01b81527f65c90423fe7c880476633a7e36521740f87199d233dc56eb4ca6643eb76f605f60048201526000916001600160a01b0316906321f8a7219060240160206040518083038186803b15801561180057600080fd5b505afa158015611814573d6000803e3d6000fd5b505050506040513d601f19601f8201168201806040525081019061183891906123c5565b6001600160a01b031663feaf968c6040518163ffffffff1660e01b815260040160a06040518083038186803b15801561187057600080fd5b505afa158015611884573d6000803e3d6000fd5b505050506040513d601f19601f820116820180604052508101906118a89190612738565b505050915050600081136119195760405162461bcd60e51b815260206004820152603260248201527f536d6172745472616465526f757465723a3a6665653a20696e76616c6964207060448201527172696365206665656420726573706f6e736560701b60648201526084016103c7565b8061192c83670de0b6b3a7640000612a2d565b6119369190612a0b565b9250505090565b611945611d7d565b600084815260026020526040902060018101546001600160a01b03166119c45760405162461bcd60e51b815260206004820152602e60248201527f536d6172745472616465526f757465723a3a68616e646c654f726465723a207560448201526d373232b334b732b21037b93232b960911b60648201526084016103c7565b60006001820154600160a01b900460ff1660028111156119e6576119e6612afb565b14611a595760405162461bcd60e51b815260206004820152603f60248201527f536d6172745472616465526f757465723a3a68616e646c654f726465723a206f60448201527f726465722068617320616c7265616479206265656e2070726f6365737365640060648201526084016103c7565b60018101546001600160a01b03163214611c58576001546040516321f8a72160e01b81527fe78c16c6d839536d3155985aab4e9c6013c8c3d446054bcebc48612f359d81f560048201526000916001600160a01b0316906321f8a7219060240160206040518083038186803b158015611ad157600080fd5b505afa158015611ae5573d6000803e3d6000fd5b505050506040513d601f19601f82011682018060405250810190611b0991906123c5565b90506001600160a01b038116611b875760405162461bcd60e51b815260206004820152603f60248201527f536d6172745472616465526f757465723a3a68616e646c654f726465723a206960448201527f6e76616c69642062616c616e636520636f6e747261637420616464726573730060648201526084016103c7565b60018201546001600160a01b038083169163e578a225911685611ba86116ed565b6040516001600160e01b031960e086901b1681526001600160a01b0390931660048401526024830191909152604482015260806064820152601060848201526f536d617274547261646548616e646c6560801b60a482015260c401602060405180830381600087803b158015611c1d57600080fd5b505af1158015611c31573d6000803e3d6000fd5b505050506040513d601f19601f82011682018060405250810190611c5591906124ca565b50505b60028101546040516323cb824760e01b81526001600160a01b03909116906323cb824790611c8e908490889088906004016129ad565b600060405180830381600087803b158015611ca857600080fd5b505af1158015611cbc573d6000803e3d6000fd5b5050505060018101805460ff60a01b1916600160a01b17905560405185907f182a8675c662ed6d9324fc2ae9526bf4c72c7bbbcca41f1311c91e94acd2cc5290600090a25050505050565b611d0f611e90565b6001600160a01b038116611d745760405162461bcd60e51b815260206004820152602660248201527f4f776e61626c653a206e6577206f776e657220697320746865207a65726f206160448201526564647265737360d01b60648201526084016103c7565b6109d081611eea565b600054600160a01b900460ff16156109e55760405162461bcd60e51b815260206004820152601060248201526f14185d5cd8589b194e881c185d5cd95960821b60448201526064016103c7565b6040516001600160a01b0380851660248301528316604482015260648101829052611e359085906323b872dd60e01b906084015b60408051601f198184030181529190526020810180516001600160e01b03166001600160e01b031990931692909217909152611fb2565b50505050565b611e43612084565b6000805460ff60a01b191690557f5db9ee0a495bf2e6ff9c91a7834c1ba4fdd244a5e8aa4e537bd38aeae4b073aa335b6040516001600160a01b03909116815260200160405180910390a1565b6000546001600160a01b031633146109e55760405162461bcd60e51b815260206004820181905260248201527f4f776e61626c653a2063616c6c6572206973206e6f7420746865206f776e657260448201526064016103c7565b600080546001600160a01b038381166001600160a01b0319831681178455604051919092169283917f8be0079c531659141344cd1fd0a4f28419497f9722a3daafe3b4186f6b6457e09190a35050565b611f42611d7d565b6000805460ff60a01b1916600160a01b1790557f62e78cea01bee320cd4e420270b5ea74000d11b0c9f74754ebdbfc544b05a258611e733390565b6040516001600160a01b038316602482015260448101829052611fad90849063a9059cbb60e01b90606401611dfe565b505050565b6000612007826040518060400160405280602081526020017f5361666545524332303a206c6f772d6c6576656c2063616c6c206661696c6564815250856001600160a01b03166120d49092919063ffffffff16565b805190915015611fad5780806020019051810190612025919061248f565b611fad5760405162461bcd60e51b815260206004820152602a60248201527f5361666545524332303a204552433230206f7065726174696f6e20646964206e6044820152691bdd081cdd58d8d9595960b21b60648201526084016103c7565b600054600160a01b900460ff166109e55760405162461bcd60e51b815260206004820152601460248201527314185d5cd8589b194e881b9bdd081c185d5cd95960621b60448201526064016103c7565b60606120e384846000856120ed565b90505b9392505050565b60608247101561214e5760405162461bcd60e51b815260206004820152602660248201527f416464726573733a20696e73756666696369656e742062616c616e636520666f6044820152651c8818d85b1b60d21b60648201526084016103c7565b6001600160a01b0385163b6121a55760405162461bcd60e51b815260206004820152601d60248201527f416464726573733a2063616c6c20746f206e6f6e2d636f6e747261637400000060448201526064016103c7565b600080866001600160a01b031685876040516121c191906128b5565b60006040518083038185875af1925050503d80600081146121fe576040519150601f19603f3d011682016040523d82523d6000602084013e612203565b606091505b509150915061221382828661221e565b979650505050505050565b6060831561222d5750816120e6565b82511561223d5782518084602001fd5b8160405162461bcd60e51b81526004016103c79190612924565b82805461226390612a8f565b90600052602060002090601f01602090048101928261228557600085556122cb565b82601f1061229e5782800160ff198235161785556122cb565b828001600101855582156122cb579182015b828111156122cb5782358255916020019190600101906122b0565b506122d79291506122db565b5090565b5b808211156122d757600081556001016122dc565b80356122fb81612b3d565b919050565b60008083601f84011261231257600080fd5b50813567ffffffffffffffff81111561232a57600080fd5b6020830191508360208260051b850101111561234557600080fd5b9250929050565b60008083601f84011261235e57600080fd5b50813567ffffffffffffffff81111561237657600080fd5b60208301915083602082850101111561234557600080fd5b805169ffffffffffffffffffff811681146122fb57600080fd5b6000602082840312156123ba57600080fd5b81356120e681612b3d565b6000602082840312156123d757600080fd5b81516120e681612b3d565b60008060008060008060006080888a0312156123fd57600080fd5b873561240881612b3d565b9650602088013567ffffffffffffffff8082111561242557600080fd5b6124318b838c0161234c565b909850965060408a013591508082111561244a57600080fd5b6124568b838c01612300565b909650945060608a013591508082111561246f57600080fd5b5061247c8a828b01612300565b989b979a50959850939692959293505050565b6000602082840312156124a157600080fd5b815180151581146120e657600080fd5b6000602082840312156124c357600080fd5b5035919050565b6000602082840312156124dc57600080fd5b5051919050565b600080604083850312156124f657600080fd5b82359150602083013561250881612b3d565b809150509250929050565b60008060006040848603121561252857600080fd5b83359250602084013567ffffffffffffffff81111561254657600080fd5b61255286828701612300565b9497909650939450505050565b60008060008060006060868803121561257757600080fd5b85359450602086013567ffffffffffffffff8082111561259657600080fd5b6125a289838a01612300565b909650945060408801359150808211156125bb57600080fd5b506125c888828901612300565b969995985093965092949392505050565b6000806000806000608086880312156125f157600080fd5b8535945060208087013567ffffffffffffffff8082111561261157600080fd5b61261d8a838b01612300565b9097509550604089013591508082111561263657600080fd5b818901915089601f83011261264a57600080fd5b81358181111561265c5761265c612b27565b8060051b604051601f19603f8301168101818110858211171561268157612681612b27565b604052828152858101935084860182860187018e10156126a057600080fd5b600095505b838610156126c35780358552600195909501949386019386016126a5565b508097505050505050506126d9606087016122f0565b90509295509295909350565b600080600080606085870312156126fb57600080fd5b84359350602085013567ffffffffffffffff81111561271957600080fd5b6127258782880161234c565b9598909750949560400135949350505050565b600080600080600060a0868803121561275057600080fd5b6127598661238e565b94506020860151935060408601519250606086015191506126d96080870161238e565b60008151808452612794816020860160208601612a63565b601f01601f19169290920160200192915050565b600381106127c657634e487b7160e01b600052602160045260246000fd5b9052565b80548252600060018083015460018060a01b036020818316818801526127f96040880160ff8560a01c166127a8565b6002860154909116606087015260a060808701526003850180549092506000919080851c8582168061282c57607f821691505b83821081141561284a57634e487b7160e01b85526022600452602485fd5b60a08a0182905260c08a01818015612869576001811461287a576128a5565b60ff198516825285820196506128a5565b60008881526020902060005b8581101561289f57815484820152908a01908701612886565b83019750505b50949a9950505050505050505050565b600082516128c7818460208701612a63565b9190910192915050565b7f4446483a436f6e74726163743a536d61727454726164653a616c6c6f7765644881526630b7323632b91d60c91b602082015260609190911b6bffffffffffffffffffffffff19166027820152603b0190565b6020815260006120e6602083018461277c565b60208082528251828201528201516001600160a01b0390811660408084019190915283015160009161296c60608501836127a8565b8060608601511660808501525050608083015160a08084015261299260c084018261277c565b949350505050565b6020815260006120e660208301846127ca565b6040815260006129c060408301866127ca565b8281036020840152838152838560208301376000602085830101526020601f19601f860116820101915050949350505050565b60008219821115612a0657612a06612ae5565b500190565b600082612a2857634e487b7160e01b600052601260045260246000fd5b500490565b6000816000190483118215151615612a4757612a47612ae5565b500290565b600082821015612a5e57612a5e612ae5565b500390565b60005b83811015612a7e578181015183820152602001612a66565b83811115611e355750506000910152565b600181811c90821680612aa357607f821691505b60208210811415612ac457634e487b7160e01b600052602260045260246000fd5b50919050565b6000600019821415612ade57612ade612ae5565b5060010190565b634e487b7160e01b600052601160045260246000fd5b634e487b7160e01b600052602160045260246000fd5b634e487b7160e01b600052603260045260246000fd5b634e487b7160e01b600052604160045260246000fd5b6001600160a01b03811681146109d057600080fdfea2646970667358221220283135d2a92f06cb37d2f2a7b4ab75e632fe9e74c0c4eb2c9d0b2893e37f53fd64736f6c63430008060033",
  "linkReferences": {},
  "deployedLinkReferences": {}
}