{
  "_format": "hh-sol-artifact-1",
  "contractName": "SmartTradeRouter",
  "sourceName": "contracts/automate/SmartTrade/Router.sol",
  "abi": [
    {
      "inputs": [
        {
          "internalType": "address",
          "name": "_info",
          "type": "address"
        }
      ],
      "stateMutability": "nonpayable",
      "type": "constructor"
    },
    {
      "anonymous": false,
      "inputs": [
        {
          "indexed": true,
          "internalType": "address",
          "name": "handler",
          "type": "address"
        }
      ],
      "name": "HandlerAdded",
      "type": "event"
    },
    {
      "anonymous": false,
      "inputs": [
        {
          "indexed": true,
          "internalType": "address",
          "name": "handler",
          "type": "address"
        }
      ],
      "name": "HandlerRemoved",
      "type": "event"
    },
    {
      "anonymous": false,
      "inputs": [
        {
          "indexed": true,
          "internalType": "uint256",
          "name": "id",
          "type": "uint256"
        }
      ],
      "name": "OrderCanceled",
      "type": "event"
    },
    {
      "anonymous": false,
      "inputs": [
        {
          "indexed": true,
          "internalType": "uint256",
          "name": "id",
          "type": "uint256"
        },
        {
          "indexed": true,
          "internalType": "address",
          "name": "owner",
          "type": "address"
        },
        {
          "indexed": true,
          "internalType": "address",
          "name": "handler",
          "type": "address"
        }
      ],
      "name": "OrderCreated",
      "type": "event"
    },
    {
      "anonymous": false,
      "inputs": [
        {
          "indexed": true,
          "internalType": "uint256",
          "name": "id",
          "type": "uint256"
        }
      ],
      "name": "OrderSuccessed",
      "type": "event"
    },
    {
      "anonymous": false,
      "inputs": [
        {
          "indexed": true,
          "internalType": "address",
          "name": "previousOwner",
          "type": "address"
        },
        {
          "indexed": true,
          "internalType": "address",
          "name": "newOwner",
          "type": "address"
        }
      ],
      "name": "OwnershipTransferred",
      "type": "event"
    },
    {
      "anonymous": false,
      "inputs": [
        {
          "indexed": false,
          "internalType": "address",
          "name": "account",
          "type": "address"
        }
      ],
      "name": "Paused",
      "type": "event"
    },
    {
      "anonymous": false,
      "inputs": [
        {
          "indexed": true,
          "internalType": "address",
          "name": "info",
          "type": "address"
        }
      ],
      "name": "StorageChanged",
      "type": "event"
    },
    {
      "anonymous": false,
      "inputs": [
        {
          "indexed": false,
          "internalType": "address",
          "name": "account",
          "type": "address"
        }
      ],
      "name": "Unpaused",
      "type": "event"
    },
    {
      "inputs": [
        {
          "internalType": "address",
          "name": "account",
          "type": "address"
        },
        {
          "internalType": "address",
          "name": "token",
          "type": "address"
        }
      ],
      "name": "balanceOf",
      "outputs": [
        {
          "internalType": "uint256",
          "name": "",
          "type": "uint256"
        }
      ],
      "stateMutability": "view",
      "type": "function"
    },
    {
      "inputs": [
        {
          "internalType": "uint256",
          "name": "id",
          "type": "uint256"
        }
      ],
      "name": "cancelOrder",
      "outputs": [],
      "stateMutability": "nonpayable",
      "type": "function"
    },
    {
      "inputs": [
        {
          "internalType": "address",
          "name": "_info",
          "type": "address"
        }
      ],
      "name": "changeStorage",
      "outputs": [],
      "stateMutability": "nonpayable",
      "type": "function"
    },
    {
      "inputs": [
        {
          "internalType": "address",
          "name": "handler",
          "type": "address"
        },
        {
          "internalType": "bytes",
          "name": "callData",
          "type": "bytes"
        },
        {
          "internalType": "address",
          "name": "token",
          "type": "address"
        },
        {
          "internalType": "uint256",
          "name": "amount",
          "type": "uint256"
        }
      ],
      "name": "createOrder",
      "outputs": [
        {
          "internalType": "uint256",
          "name": "",
          "type": "uint256"
        }
      ],
      "stateMutability": "payable",
      "type": "function"
    },
    {
      "inputs": [
        {
          "internalType": "address",
          "name": "recipient",
          "type": "address"
        },
        {
          "internalType": "address",
          "name": "token",
          "type": "address"
        },
        {
          "internalType": "uint256",
          "name": "amount",
          "type": "uint256"
        }
      ],
      "name": "deposit",
      "outputs": [],
      "stateMutability": "nonpayable",
      "type": "function"
    },
    {
      "inputs": [],
      "name": "fee",
      "outputs": [
        {
          "internalType": "uint256",
          "name": "",
          "type": "uint256"
        }
      ],
      "stateMutability": "view",
      "type": "function"
    },
    {
      "inputs": [
        {
          "internalType": "uint256",
          "name": "id",
          "type": "uint256"
        },
        {
          "internalType": "bytes",
          "name": "options",
          "type": "bytes"
        },
        {
          "internalType": "uint256",
          "name": "gasFee",
          "type": "uint256"
        }
      ],
      "name": "handleOrder",
      "outputs": [],
      "stateMutability": "nonpayable",
      "type": "function"
    },
    {
      "inputs": [],
      "name": "info",
      "outputs": [
        {
          "internalType": "contract Storage",
          "name": "",
          "type": "address"
        }
      ],
      "stateMutability": "view",
      "type": "function"
    },
    {
      "inputs": [
        {
          "internalType": "uint256",
          "name": "id",
          "type": "uint256"
        }
      ],
      "name": "order",
      "outputs": [
        {
          "components": [
            {
              "internalType": "uint256",
              "name": "id",
              "type": "uint256"
            },
            {
              "internalType": "address",
              "name": "owner",
              "type": "address"
            },
            {
              "internalType": "enum SmartTradeRouter.OrderStatus",
              "name": "status",
              "type": "uint8"
            },
            {
              "internalType": "address",
              "name": "handler",
              "type": "address"
            },
            {
              "internalType": "bytes",
              "name": "callData",
              "type": "bytes"
            }
          ],
          "internalType": "struct SmartTradeRouter.Order",
          "name": "",
          "type": "tuple"
        }
      ],
      "stateMutability": "view",
      "type": "function"
    },
    {
      "inputs": [],
      "name": "ordersCount",
      "outputs": [
        {
          "internalType": "uint256",
          "name": "",
          "type": "uint256"
        }
      ],
      "stateMutability": "view",
      "type": "function"
    },
    {
      "inputs": [],
      "name": "owner",
      "outputs": [
        {
          "internalType": "address",
          "name": "",
          "type": "address"
        }
      ],
      "stateMutability": "view",
      "type": "function"
    },
    {
      "inputs": [],
      "name": "pause",
      "outputs": [],
      "stateMutability": "nonpayable",
      "type": "function"
    },
    {
      "inputs": [],
      "name": "paused",
      "outputs": [
        {
          "internalType": "bool",
          "name": "",
          "type": "bool"
        }
      ],
      "stateMutability": "view",
      "type": "function"
    },
    {
      "inputs": [
        {
          "internalType": "address",
          "name": "spender",
          "type": "address"
        },
        {
          "internalType": "address",
          "name": "token",
          "type": "address"
        },
        {
          "internalType": "uint256",
          "name": "amount",
          "type": "uint256"
        }
      ],
      "name": "refund",
      "outputs": [],
      "stateMutability": "nonpayable",
      "type": "function"
    },
    {
      "inputs": [],
      "name": "renounceOwnership",
      "outputs": [],
      "stateMutability": "nonpayable",
      "type": "function"
    },
    {
      "inputs": [
        {
          "internalType": "address",
          "name": "newOwner",
          "type": "address"
        }
      ],
      "name": "transferOwnership",
      "outputs": [],
      "stateMutability": "nonpayable",
      "type": "function"
    },
    {
      "inputs": [],
      "name": "unpause",
      "outputs": [],
      "stateMutability": "nonpayable",
      "type": "function"
    }
  ],
  "bytecode": "0x60806040523480156200001157600080fd5b506040516200269d3803806200269d833981016040819052620000349162000143565b6200003f33620000f3565b6000805460ff60a01b191690556001600160a01b038116620000cd5760405162461bcd60e51b815260206004820152603f60248201527f536d6172745472616465526f757465723a3a636f6e7374727563746f723a206960448201527f6e76616c69642073746f7261676520636f6e7472616374206164647265737300606482015260840160405180910390fd5b600180546001600160a01b0319166001600160a01b039290921691909117905562000175565b600080546001600160a01b038381166001600160a01b0319831681178455604051919092169283917f8be0079c531659141344cd1fd0a4f28419497f9722a3daafe3b4186f6b6457e09190a35050565b6000602082840312156200015657600080fd5b81516001600160a01b03811681146200016e57600080fd5b9392505050565b61251880620001856000396000f3fe6080604052600436106100fe5760003560e01c80638340f54911610095578063c50c97d011610064578063c50c97d014610291578063ddca3f43146102b1578063e92ed751146102c6578063f2fde38b146102e6578063f7888aec1461030657600080fd5b80638340f5491461022b5780638456cb591461024b5780638da5cb5b14610260578063a17bf2651461027e57600080fd5b8063514fcac7116100d1578063514fcac7146101ac5780635c975abb146101cc578063715018a6146101f657806382ad6f351461020b57600080fd5b806321603f431461010357806335daa73114610139578063370158ea1461015d5780633f4ba83a14610195575b600080fd5b34801561010f57600080fd5b5061012361011e366004612063565b61034c565b60405161013091906122f3565b60405180910390f35b34801561014557600080fd5b5061014f60045481565b604051908152602001610130565b34801561016957600080fd5b5060015461017d906001600160a01b031681565b6040516001600160a01b039091168152602001610130565b3480156101a157600080fd5b506101aa610498565b005b3480156101b857600080fd5b506101aa6101c7366004612063565b6105f1565b3480156101d857600080fd5b50600054600160a01b900460ff166040519015158152602001610130565b34801561020257600080fd5b506101aa6107cb565b34801561021757600080fd5b506101aa610226366004611f90565b6107df565b34801561023757600080fd5b506101aa610246366004611f90565b610add565b34801561025757600080fd5b506101aa610c8c565b34801561026c57600080fd5b506000546001600160a01b031661017d565b61014f61028c366004611fd1565b610ddd565b34801561029d57600080fd5b506101aa6102ac366004611f1d565b6111df565b3480156102bd57600080fd5b5061014f6112b7565b3480156102d257600080fd5b506101aa6102e1366004612095565b611507565b3480156102f257600080fd5b506101aa610301366004611f1d565b6118d1565b34801561031257600080fd5b5061014f610321366004611f57565b6001600160a01b03918216600090815260026020908152604080832093909416825291909152205490565b61037e6040805160a0810182526000808252602082018190529091820190815260006020820152606060409091015290565b600082815260036020908152604091829020825160a0810184528154815260018201546001600160a01b0381169382019390935292909190830190600160a01b900460ff1660028111156103d4576103d46124b7565b60028111156103e5576103e56124b7565b815260028201546001600160a01b0316602082015260038201805460409092019161040f9061244b565b80601f016020809104026020016040519081016040528092919081815260200182805461043b9061244b565b80156104885780601f1061045d57610100808354040283529160200191610488565b820191906000526020600020905b81548152906001019060200180831161046b57829003601f168201915b5050505050815250509050919050565b6001546040516321f8a72160e01b81527f689d13d8ed8ef1027633ba26e7121121cf427434450a529548f19bf17597439560048201526000916001600160a01b0316906321f8a7219060240160206040518083038186803b1580156104fc57600080fd5b505afa158015610510573d6000803e3d6000fd5b505050506040513d601f19601f820116820180604052508101906105349190611f3a565b90506105486000546001600160a01b031690565b6001600160a01b0316336001600160a01b0316148061056f5750336001600160a01b038216145b6105e65760405162461bcd60e51b815260206004820152603c60248201527f536d6172745472616465526f757465723a3a756e70617573653a2063616c6c6560448201527f72206973206e6f7420746865206f776e6572206f72207061757365720000000060648201526084015b60405180910390fd5b6105ee611947565b50565b600081815260036020526040902060018101546001600160a01b03166106705760405162461bcd60e51b815260206004820152602e60248201527f536d6172745472616465526f757465723a3a63616e63656c4f726465723a207560448201526d373232b334b732b21037b93232b960911b60648201526084016105dd565b60018101546001600160a01b031633148061069557506000546001600160a01b031633145b6106f25760405162461bcd60e51b815260206004820152602860248201527f536d6172745472616465526f757465723a3a63616e63656c4f726465723a206660448201526737b93134b23232b760c11b60648201526084016105dd565b60006001820154600160a01b900460ff166002811115610714576107146124b7565b146107875760405162461bcd60e51b815260206004820152603f60248201527f536d6172745472616465526f757465723a3a63616e63656c4f726465723a206f60448201527f726465722068617320616c7265616479206265656e2070726f6365737365640060648201526084016105dd565b60018101805460ff60a01b1916600160a11b17905580546040517fc41f4ceb2938876c35e61b705e9d2f18a02c4a26ce5e049a6308a943d46851b390600090a25050565b6107d361199c565b6107dd60006119f6565b565b6107e7611a46565b6001600160a01b0383166108595760405162461bcd60e51b815260206004820152603360248201527f536d6172745472616465526f757465723a3a726566756e643a20696e76616c696044820152726420726563697069656e74206164647265737360681b60648201526084016105dd565b6001600160a01b03831633148061091557506001546040516001600160a01b0390911690637ae1cfca9061089190339060200161228d565b604051602081830303815290604052805190602001206040518263ffffffff1660e01b81526004016108c591815260200190565b60206040518083038186803b1580156108dd57600080fd5b505afa1580156108f1573d6000803e3d6000fd5b505050506040513d601f19601f820116820180604052508101906109159190612041565b61091e57600080fd5b6001600160a01b03821661099a5760405162461bcd60e51b815260206004820152603860248201527f536d6172745472616465526f757465723a3a726566756e643a20696e76616c6960448201527f6420746f6b656e20636f6e74726163742061646472657373000000000000000060648201526084016105dd565b600081116109fb5760405162461bcd60e51b815260206004820152602860248201527f536d6172745472616465526f757465723a3a726566756e643a20696e76616c696044820152671908185b5bdd5b9d60c21b60648201526084016105dd565b6001600160a01b03808416600090815260026020908152604080832093861683529290522054811115610a875760405162461bcd60e51b815260206004820152602e60248201527f536d6172745472616465526f757465723a3a726566756e643a20696e7375666660448201526d696369656e742062616c616e636560901b60648201526084016105dd565b6001600160a01b03808416600090815260026020908152604080832093861683529290529081208054839290610abe908490612408565b90915550610ad890506001600160a01b0383163383611a93565b505050565b610ae5611a46565b6001600160a01b038316610b585760405162461bcd60e51b815260206004820152603460248201527f536d6172745472616465526f757465723a3a6465706f7369743a20696e76616c604482015273696420726563697069656e74206164647265737360601b60648201526084016105dd565b6001600160a01b038216610bd45760405162461bcd60e51b815260206004820152603960248201527f536d6172745472616465526f757465723a3a6465706f7369743a20696e76616c60448201527f696420746f6b656e20636f6e747261637420616464726573730000000000000060648201526084016105dd565b60008111610c365760405162461bcd60e51b815260206004820152602960248201527f536d6172745472616465526f757465723a3a6465706f7369743a20696e76616c6044820152681a5908185b5bdd5b9d60ba1b60648201526084016105dd565b610c4b6001600160a01b038316333084611af6565b6001600160a01b03808416600090815260026020908152604080832093861683529290529081208054839290610c829084906123af565b9091555050505050565b6001546040516321f8a72160e01b81527f689d13d8ed8ef1027633ba26e7121121cf427434450a529548f19bf17597439560048201526000916001600160a01b0316906321f8a7219060240160206040518083038186803b158015610cf057600080fd5b505afa158015610d04573d6000803e3d6000fd5b505050506040513d601f19601f82011682018060405250810190610d289190611f3a565b9050610d3c6000546001600160a01b031690565b6001600160a01b0316336001600160a01b03161480610d635750336001600160a01b038216145b610dd55760405162461bcd60e51b815260206004820152603a60248201527f536d6172745472616465526f757465723a3a70617573653a2063616c6c65722060448201527f6973206e6f7420746865206f776e6572206f722070617573657200000000000060648201526084016105dd565b6105ee611b34565b6000610de7611a46565b6001546040516001600160a01b0390911690637ae1cfca90610e0d90899060200161228d565b604051602081830303815290604052805190602001206040518263ffffffff1660e01b8152600401610e4191815260200190565b60206040518083038186803b158015610e5957600080fd5b505afa158015610e6d573d6000803e3d6000fd5b505050506040513d601f19601f82011682018060405250810190610e919190612041565b610efc5760405162461bcd60e51b815260206004820152603660248201527f536d6172745472616465526f757465723a3a6372656174654f726465723a20696044820152756e76616c69642068616e646c6572206164647265737360501b60648201526084016105dd565b60048054906000610f0c83612486565b909155505060045460008181526003602081905260409091209182556001820180543360ff60a01b19166001600160a81b03199091161790556002820180546001600160a01b0319166001600160a01b038a16179055610f6f9082018787611e1c565b506002810154600182015482546040516001600160a01b0393841693909216917fd4e0aaf5be9b8773c644dfebba8b63f878965712ad8589d85ca4bc9d1b671e2c90600090a460028101546040516303e5aa2d60e21b81526001600160a01b0390911690630f96a8b490610fe7908490600401612356565b600060405180830381600087803b15801561100157600080fd5b505af1158015611015573d6000803e3d6000fd5b505050506001600160a01b038416158015906110315750600083115b1561104f57600181015461104f906001600160a01b03168585610add565b34156111d4576001546040516321f8a72160e01b81527fe78c16c6d839536d3155985aab4e9c6013c8c3d446054bcebc48612f359d81f560048201526000916001600160a01b0316906321f8a7219060240160206040518083038186803b1580156110b957600080fd5b505afa1580156110cd573d6000803e3d6000fd5b505050506040513d601f19601f820116820180604052508101906110f19190611f3a565b90506001600160a01b03811661116f5760405162461bcd60e51b815260206004820152603f60248201527f536d6172745472616465526f757465723a3a6372656174654f726465723a206960448201527f6e76616c69642062616c616e636520636f6e747261637420616464726573730060648201526084016105dd565b600182015460405163f340fa0160e01b81526001600160a01b0391821660048201529082169063f340fa019034906024016000604051808303818588803b1580156111b957600080fd5b505af11580156111cd573d6000803e3d6000fd5b5050505050505b549695505050505050565b6111e761199c565b6001600160a01b03811661126d5760405162461bcd60e51b815260206004820152604160248201527f536d6172745472616465526f757465723a3a6368616e676553746f726167653a60448201527f20696e76616c69642073746f7261676520636f6e7472616374206164647265736064820152607360f81b608482015260a4016105dd565b600180546001600160a01b0319166001600160a01b0383169081179091556040517f8cbb7a6ee88dbf214a9b660a9f1af063e42a24cbfe26a046a718b3f621baa53990600090a250565b60015460405163bd02d0f560e01b81527f01417eba2c08fa95fc5f4564fd6603141800a2c49db0f9dae8bab823cc80c3ab600482015260009182916001600160a01b039091169063bd02d0f59060240160206040518083038186803b15801561131f57600080fd5b505afa158015611333573d6000803e3d6000fd5b505050506040513d601f19601f82011682018060405250810190611357919061207c565b90508061136657600091505090565b6001546040516321f8a72160e01b81527f65c90423fe7c880476633a7e36521740f87199d233dc56eb4ca6643eb76f605f60048201526000916001600160a01b0316906321f8a7219060240160206040518083038186803b1580156113ca57600080fd5b505afa1580156113de573d6000803e3d6000fd5b505050506040513d601f19601f820116820180604052508101906114029190611f3a565b6001600160a01b031663feaf968c6040518163ffffffff1660e01b815260040160a06040518083038186803b15801561143a57600080fd5b505afa15801561144e573d6000803e3d6000fd5b505050506040513d601f19601f8201168201806040525081019061147291906120e8565b505050915050600081136114e35760405162461bcd60e51b815260206004820152603260248201527f536d6172745472616465526f757465723a3a6665653a20696e76616c6964207060448201527172696365206665656420726573706f6e736560701b60648201526084016105dd565b806114f683670de0b6b3a76400006123e9565b61150091906123c7565b9250505090565b61150f611a46565b600084815260036020526040902060018101546001600160a01b031661158e5760405162461bcd60e51b815260206004820152602e60248201527f536d6172745472616465526f757465723a3a68616e646c654f726465723a207560448201526d373232b334b732b21037b93232b960911b60648201526084016105dd565b60006001820154600160a01b900460ff1660028111156115b0576115b06124b7565b146116235760405162461bcd60e51b815260206004820152603f60248201527f536d6172745472616465526f757465723a3a68616e646c654f726465723a206f60448201527f726465722068617320616c7265616479206265656e2070726f6365737365640060648201526084016105dd565b60018101546001600160a01b03163214611822576001546040516321f8a72160e01b81527fe78c16c6d839536d3155985aab4e9c6013c8c3d446054bcebc48612f359d81f560048201526000916001600160a01b0316906321f8a7219060240160206040518083038186803b15801561169b57600080fd5b505afa1580156116af573d6000803e3d6000fd5b505050506040513d601f19601f820116820180604052508101906116d39190611f3a565b90506001600160a01b0381166117515760405162461bcd60e51b815260206004820152603f60248201527f536d6172745472616465526f757465723a3a68616e646c654f726465723a206960448201527f6e76616c69642062616c616e636520636f6e747261637420616464726573730060648201526084016105dd565b60018201546001600160a01b038083169163e578a2259116856117726112b7565b6040516001600160e01b031960e086901b1681526001600160a01b0390931660048401526024830191909152604482015260806064820152601060848201526f536d617274547261646548616e646c6560801b60a482015260c401602060405180830381600087803b1580156117e757600080fd5b505af11580156117fb573d6000803e3d6000fd5b505050506040513d601f19601f8201168201806040525081019061181f919061207c565b50505b60028101546040516323cb824760e01b81526001600160a01b03909116906323cb82479061185890849088908890600401612369565b600060405180830381600087803b15801561187257600080fd5b505af1158015611886573d6000803e3d6000fd5b5050505060018101805460ff60a01b1916600160a01b17905560405185907f182a8675c662ed6d9324fc2ae9526bf4c72c7bbbcca41f1311c91e94acd2cc5290600090a25050505050565b6118d961199c565b6001600160a01b03811661193e5760405162461bcd60e51b815260206004820152602660248201527f4f776e61626c653a206e6577206f776e657220697320746865207a65726f206160448201526564647265737360d01b60648201526084016105dd565b6105ee816119f6565b61194f611b77565b6000805460ff60a01b191690557f5db9ee0a495bf2e6ff9c91a7834c1ba4fdd244a5e8aa4e537bd38aeae4b073aa335b6040516001600160a01b03909116815260200160405180910390a1565b6000546001600160a01b031633146107dd5760405162461bcd60e51b815260206004820181905260248201527f4f776e61626c653a2063616c6c6572206973206e6f7420746865206f776e657260448201526064016105dd565b600080546001600160a01b038381166001600160a01b0319831681178455604051919092169283917f8be0079c531659141344cd1fd0a4f28419497f9722a3daafe3b4186f6b6457e09190a35050565b600054600160a01b900460ff16156107dd5760405162461bcd60e51b815260206004820152601060248201526f14185d5cd8589b194e881c185d5cd95960821b60448201526064016105dd565b6040516001600160a01b038316602482015260448101829052610ad890849063a9059cbb60e01b906064015b60408051601f198184030181529190526020810180516001600160e01b03166001600160e01b031990931692909217909152611bc7565b6040516001600160a01b0380851660248301528316604482015260648101829052611b2e9085906323b872dd60e01b90608401611abf565b50505050565b611b3c611a46565b6000805460ff60a01b1916600160a01b1790557f62e78cea01bee320cd4e420270b5ea74000d11b0c9f74754ebdbfc544b05a25861197f3390565b600054600160a01b900460ff166107dd5760405162461bcd60e51b815260206004820152601460248201527314185d5cd8589b194e881b9bdd081c185d5cd95960621b60448201526064016105dd565b6000611c1c826040518060400160405280602081526020017f5361666545524332303a206c6f772d6c6576656c2063616c6c206661696c6564815250856001600160a01b0316611c999092919063ffffffff16565b805190915015610ad85780806020019051810190611c3a9190612041565b610ad85760405162461bcd60e51b815260206004820152602a60248201527f5361666545524332303a204552433230206f7065726174696f6e20646964206e6044820152691bdd081cdd58d8d9595960b21b60648201526084016105dd565b6060611ca88484600085611cb2565b90505b9392505050565b606082471015611d135760405162461bcd60e51b815260206004820152602660248201527f416464726573733a20696e73756666696369656e742062616c616e636520666f6044820152651c8818d85b1b60d21b60648201526084016105dd565b6001600160a01b0385163b611d6a5760405162461bcd60e51b815260206004820152601d60248201527f416464726573733a2063616c6c20746f206e6f6e2d636f6e747261637400000060448201526064016105dd565b600080866001600160a01b03168587604051611d869190612271565b60006040518083038185875af1925050503d8060008114611dc3576040519150601f19603f3d011682016040523d82523d6000602084013e611dc8565b606091505b5091509150611dd8828286611de3565b979650505050505050565b60608315611df2575081611cab565b825115611e025782518084602001fd5b8160405162461bcd60e51b81526004016105dd91906122e0565b828054611e289061244b565b90600052602060002090601f016020900481019282611e4a5760008555611e90565b82601f10611e635782800160ff19823516178555611e90565b82800160010185558215611e90579182015b82811115611e90578235825591602001919060010190611e75565b50611e9c929150611ea0565b5090565b5b80821115611e9c5760008155600101611ea1565b60008083601f840112611ec757600080fd5b50813567ffffffffffffffff811115611edf57600080fd5b602083019150836020828501011115611ef757600080fd5b9250929050565b805169ffffffffffffffffffff81168114611f1857600080fd5b919050565b600060208284031215611f2f57600080fd5b8135611cab816124cd565b600060208284031215611f4c57600080fd5b8151611cab816124cd565b60008060408385031215611f6a57600080fd5b8235611f75816124cd565b91506020830135611f85816124cd565b809150509250929050565b600080600060608486031215611fa557600080fd5b8335611fb0816124cd565b92506020840135611fc0816124cd565b929592945050506040919091013590565b600080600080600060808688031215611fe957600080fd5b8535611ff4816124cd565b9450602086013567ffffffffffffffff81111561201057600080fd5b61201c88828901611eb5565b9095509350506040860135612030816124cd565b949793965091946060013592915050565b60006020828403121561205357600080fd5b81518015158114611cab57600080fd5b60006020828403121561207557600080fd5b5035919050565b60006020828403121561208e57600080fd5b5051919050565b600080600080606085870312156120ab57600080fd5b84359350602085013567ffffffffffffffff8111156120c957600080fd5b6120d587828801611eb5565b9598909750949560400135949350505050565b600080600080600060a0868803121561210057600080fd5b61210986611efe565b945060208601519350604086015192506060860151915061212c60808701611efe565b90509295509295909350565b6000815180845261215081602086016020860161241f565b601f01601f19169290920160200192915050565b6003811061218257634e487b7160e01b600052602160045260246000fd5b9052565b80548252600060018083015460018060a01b036020818316818801526121b56040880160ff8560a01c16612164565b6002860154909116606087015260a060808701526003850180549092506000919080851c858216806121e857607f821691505b83821081141561220657634e487b7160e01b85526022600452602485fd5b60a08a0182905260c08a01818015612225576001811461223657612261565b60ff19851682528582019650612261565b60008881526020902060005b8581101561225b57815484820152908a01908701612242565b83019750505b50949a9950505050505050505050565b6000825161228381846020870161241f565b9190910192915050565b7f4446483a436f6e74726163743a536d61727454726164653a616c6c6f7765644881526630b7323632b91d60c91b602082015260609190911b6bffffffffffffffffffffffff19166027820152603b0190565b602081526000611cab6020830184612138565b60208082528251828201528201516001600160a01b039081166040808401919091528301516000916123286060850183612164565b8060608601511660808501525050608083015160a08084015261234e60c0840182612138565b949350505050565b602081526000611cab6020830184612186565b60408152600061237c6040830186612186565b8281036020840152838152838560208301376000602085830101526020601f19601f860116820101915050949350505050565b600082198211156123c2576123c26124a1565b500190565b6000826123e457634e487b7160e01b600052601260045260246000fd5b500490565b6000816000190483118215151615612403576124036124a1565b500290565b60008282101561241a5761241a6124a1565b500390565b60005b8381101561243a578181015183820152602001612422565b83811115611b2e5750506000910152565b600181811c9082168061245f57607f821691505b6020821081141561248057634e487b7160e01b600052602260045260246000fd5b50919050565b600060001982141561249a5761249a6124a1565b5060010190565b634e487b7160e01b600052601160045260246000fd5b634e487b7160e01b600052602160045260246000fd5b6001600160a01b03811681146105ee57600080fdfea26469706673582212202733619e374886d1ed62c8c84619c590759dc2a79865812548e9720a80007a8b64736f6c63430008060033",
  "linkReferences": {},
  "deployedLinkReferences": {}
}