{
  "name": "GovernorBravo",
  "address": "0xc69397DD57aa74eCd714c5D005D354a30cD5855f",
  "abi": [
    {
      "anonymous": false,
      "inputs": [
        {
          "indexed": false,
          "internalType": "address",
          "name": "oldAdmin",
          "type": "address"
        },
        {
          "indexed": false,
          "internalType": "address",
          "name": "newAdmin",
          "type": "address"
        }
      ],
      "name": "NewAdmin",
      "type": "event"
    },
    {
      "anonymous": false,
      "inputs": [
        {
          "indexed": false,
          "internalType": "address",
          "name": "oldImplementation",
          "type": "address"
        },
        {
          "indexed": false,
          "internalType": "address",
          "name": "newImplementation",
          "type": "address"
        }
      ],
      "name": "NewImplementation",
      "type": "event"
    },
    {
      "anonymous": false,
      "inputs": [
        {
          "indexed": false,
          "internalType": "address",
          "name": "oldPendingAdmin",
          "type": "address"
        },
        {
          "indexed": false,
          "internalType": "address",
          "name": "newPendingAdmin",
          "type": "address"
        }
      ],
      "name": "NewPendingAdmin",
      "type": "event"
    },
    {
      "anonymous": false,
      "inputs": [
        {
          "indexed": false,
          "internalType": "uint256",
          "name": "id",
          "type": "uint256"
        }
      ],
      "name": "ProposalCanceled",
      "type": "event"
    },
    {
      "anonymous": false,
      "inputs": [
        {
          "indexed": false,
          "internalType": "uint256",
          "name": "id",
          "type": "uint256"
        },
        {
          "indexed": false,
          "internalType": "address",
          "name": "proposer",
          "type": "address"
        },
        {
          "indexed": false,
          "internalType": "address[]",
          "name": "targets",
          "type": "address[]"
        },
        {
          "indexed": false,
          "internalType": "uint256[]",
          "name": "values",
          "type": "uint256[]"
        },
        {
          "indexed": false,
          "internalType": "string[]",
          "name": "signatures",
          "type": "string[]"
        },
        {
          "indexed": false,
          "internalType": "bytes[]",
          "name": "calldatas",
          "type": "bytes[]"
        },
        {
          "indexed": false,
          "internalType": "uint256",
          "name": "startBlock",
          "type": "uint256"
        },
        {
          "indexed": false,
          "internalType": "uint256",
          "name": "endBlock",
          "type": "uint256"
        },
        {
          "indexed": false,
          "internalType": "string",
          "name": "description",
          "type": "string"
        }
      ],
      "name": "ProposalCreated",
      "type": "event"
    },
    {
      "anonymous": false,
      "inputs": [
        {
          "indexed": false,
          "internalType": "uint256",
          "name": "id",
          "type": "uint256"
        }
      ],
      "name": "ProposalExecuted",
      "type": "event"
    },
    {
      "anonymous": false,
      "inputs": [
        {
          "indexed": false,
          "internalType": "uint256",
          "name": "id",
          "type": "uint256"
        },
        {
          "indexed": false,
          "internalType": "uint256",
          "name": "eta",
          "type": "uint256"
        }
      ],
      "name": "ProposalQueued",
      "type": "event"
    },
    {
      "anonymous": false,
      "inputs": [
        {
          "indexed": false,
          "internalType": "uint256",
          "name": "oldProposalThreshold",
          "type": "uint256"
        },
        {
          "indexed": false,
          "internalType": "uint256",
          "name": "newProposalThreshold",
          "type": "uint256"
        }
      ],
      "name": "ProposalThresholdSet",
      "type": "event"
    },
    {
      "anonymous": false,
      "inputs": [
        {
          "indexed": true,
          "internalType": "address",
          "name": "voter",
          "type": "address"
        },
        {
          "indexed": false,
          "internalType": "uint256",
          "name": "proposalId",
          "type": "uint256"
        },
        {
          "indexed": false,
          "internalType": "uint8",
          "name": "support",
          "type": "uint8"
        },
        {
          "indexed": false,
          "internalType": "uint256",
          "name": "votes",
          "type": "uint256"
        },
        {
          "indexed": false,
          "internalType": "string",
          "name": "reason",
          "type": "string"
        }
      ],
      "name": "VoteCast",
      "type": "event"
    },
    {
      "anonymous": false,
      "inputs": [
        {
          "indexed": false,
          "internalType": "uint256",
          "name": "oldVotingDelay",
          "type": "uint256"
        },
        {
          "indexed": false,
          "internalType": "uint256",
          "name": "newVotingDelay",
          "type": "uint256"
        }
      ],
      "name": "VotingDelaySet",
      "type": "event"
    },
    {
      "anonymous": false,
      "inputs": [
        {
          "indexed": false,
          "internalType": "uint256",
          "name": "oldVotingPeriod",
          "type": "uint256"
        },
        {
          "indexed": false,
          "internalType": "uint256",
          "name": "newVotingPeriod",
          "type": "uint256"
        }
      ],
      "name": "VotingPeriodSet",
      "type": "event"
    },
    {
      "inputs": [],
      "name": "BALLOT_TYPEHASH",
      "outputs": [
        {
          "internalType": "bytes32",
          "name": "",
          "type": "bytes32"
        }
      ],
      "stateMutability": "view",
      "type": "function"
    },
    {
      "inputs": [],
      "name": "DOMAIN_TYPEHASH",
      "outputs": [
        {
          "internalType": "bytes32",
          "name": "",
          "type": "bytes32"
        }
      ],
      "stateMutability": "view",
      "type": "function"
    },
    {
      "inputs": [],
      "name": "MAX_PROPOSAL_THRESHOLD",
      "outputs": [
        {
          "internalType": "uint256",
          "name": "",
          "type": "uint256"
        }
      ],
      "stateMutability": "view",
      "type": "function"
    },
    {
      "inputs": [],
      "name": "MAX_VOTING_DELAY",
      "outputs": [
        {
          "internalType": "uint256",
          "name": "",
          "type": "uint256"
        }
      ],
      "stateMutability": "view",
      "type": "function"
    },
    {
      "inputs": [],
      "name": "MAX_VOTING_PERIOD",
      "outputs": [
        {
          "internalType": "uint256",
          "name": "",
          "type": "uint256"
        }
      ],
      "stateMutability": "view",
      "type": "function"
    },
    {
      "inputs": [],
      "name": "MIN_PROPOSAL_THRESHOLD",
      "outputs": [
        {
          "internalType": "uint256",
          "name": "",
          "type": "uint256"
        }
      ],
      "stateMutability": "view",
      "type": "function"
    },
    {
      "inputs": [],
      "name": "MIN_VOTING_DELAY",
      "outputs": [
        {
          "internalType": "uint256",
          "name": "",
          "type": "uint256"
        }
      ],
      "stateMutability": "view",
      "type": "function"
    },
    {
      "inputs": [],
      "name": "MIN_VOTING_PERIOD",
      "outputs": [
        {
          "internalType": "uint256",
          "name": "",
          "type": "uint256"
        }
      ],
      "stateMutability": "view",
      "type": "function"
    },
    {
      "inputs": [],
      "name": "_acceptAdmin",
      "outputs": [],
      "stateMutability": "nonpayable",
      "type": "function"
    },
    {
      "inputs": [
        {
          "internalType": "address",
          "name": "newPendingAdmin",
          "type": "address"
        }
      ],
      "name": "_setPendingAdmin",
      "outputs": [],
      "stateMutability": "nonpayable",
      "type": "function"
    },
    {
      "inputs": [
        {
          "internalType": "uint256",
          "name": "newProposalThreshold",
          "type": "uint256"
        }
      ],
      "name": "_setProposalThreshold",
      "outputs": [],
      "stateMutability": "nonpayable",
      "type": "function"
    },
    {
      "inputs": [
        {
          "internalType": "uint256",
          "name": "newVotingDelay",
          "type": "uint256"
        }
      ],
      "name": "_setVotingDelay",
      "outputs": [],
      "stateMutability": "nonpayable",
      "type": "function"
    },
    {
      "inputs": [
        {
          "internalType": "uint256",
          "name": "newVotingPeriod",
          "type": "uint256"
        }
      ],
      "name": "_setVotingPeriod",
      "outputs": [],
      "stateMutability": "nonpayable",
      "type": "function"
    },
    {
      "inputs": [],
      "name": "admin",
      "outputs": [
        {
          "internalType": "address",
          "name": "",
          "type": "address"
        }
      ],
      "stateMutability": "view",
      "type": "function"
    },
    {
      "inputs": [
        {
          "internalType": "uint256",
          "name": "proposalId",
          "type": "uint256"
        }
      ],
      "name": "cancel",
      "outputs": [],
      "stateMutability": "nonpayable",
      "type": "function"
    },
    {
      "inputs": [
        {
          "internalType": "uint256",
          "name": "proposalId",
          "type": "uint256"
        },
        {
          "internalType": "uint8",
          "name": "support",
          "type": "uint8"
        }
      ],
      "name": "castVote",
      "outputs": [],
      "stateMutability": "nonpayable",
      "type": "function"
    },
    {
      "inputs": [
        {
          "internalType": "uint256",
          "name": "proposalId",
          "type": "uint256"
        },
        {
          "internalType": "uint8",
          "name": "support",
          "type": "uint8"
        },
        {
          "internalType": "uint8",
          "name": "v",
          "type": "uint8"
        },
        {
          "internalType": "bytes32",
          "name": "r",
          "type": "bytes32"
        },
        {
          "internalType": "bytes32",
          "name": "s",
          "type": "bytes32"
        }
      ],
      "name": "castVoteBySig",
      "outputs": [],
      "stateMutability": "nonpayable",
      "type": "function"
    },
    {
      "inputs": [
        {
          "internalType": "uint256",
          "name": "proposalId",
          "type": "uint256"
        },
        {
          "internalType": "uint8",
          "name": "support",
          "type": "uint8"
        },
        {
          "internalType": "string",
          "name": "reason",
          "type": "string"
        }
      ],
      "name": "castVoteWithReason",
      "outputs": [],
      "stateMutability": "nonpayable",
      "type": "function"
    },
    {
      "inputs": [
        {
          "internalType": "uint256",
          "name": "proposalId",
          "type": "uint256"
        }
      ],
      "name": "execute",
      "outputs": [],
      "stateMutability": "payable",
      "type": "function"
    },
    {
      "inputs": [
        {
          "internalType": "uint256",
          "name": "proposalId",
          "type": "uint256"
        }
      ],
      "name": "getActions",
      "outputs": [
        {
          "internalType": "address[]",
          "name": "targets",
          "type": "address[]"
        },
        {
          "internalType": "uint256[]",
          "name": "values",
          "type": "uint256[]"
        },
        {
          "internalType": "string[]",
          "name": "signatures",
          "type": "string[]"
        },
        {
          "internalType": "bytes[]",
          "name": "calldatas",
          "type": "bytes[]"
        }
      ],
      "stateMutability": "view",
      "type": "function"
    },
    {
      "inputs": [
        {
          "internalType": "uint256",
          "name": "proposalId",
          "type": "uint256"
        },
        {
          "internalType": "address",
          "name": "voter",
          "type": "address"
        }
      ],
      "name": "getReceipt",
      "outputs": [
        {
          "components": [
            {
              "internalType": "bool",
              "name": "hasVoted",
              "type": "bool"
            },
            {
              "internalType": "uint8",
              "name": "support",
              "type": "uint8"
            },
            {
              "internalType": "uint96",
              "name": "votes",
              "type": "uint96"
            }
          ],
          "internalType": "struct GovernorBravoDelegateStorageV1.Receipt",
          "name": "",
          "type": "tuple"
        }
      ],
      "stateMutability": "view",
      "type": "function"
    },
    {
      "inputs": [],
      "name": "governanceToken",
      "outputs": [
        {
          "internalType": "contract GovernanceTokenInterface",
          "name": "",
          "type": "address"
        }
      ],
      "stateMutability": "view",
      "type": "function"
    },
    {
      "inputs": [],
      "name": "implementation",
      "outputs": [
        {
          "internalType": "address",
          "name": "",
          "type": "address"
        }
      ],
      "stateMutability": "view",
      "type": "function"
    },
    {
      "inputs": [
        {
          "internalType": "address",
          "name": "timelock_",
          "type": "address"
        },
        {
          "internalType": "address",
          "name": "governanceToken_",
          "type": "address"
        },
        {
          "internalType": "uint256",
          "name": "votingPeriod_",
          "type": "uint256"
        },
        {
          "internalType": "uint256",
          "name": "votingDelay_",
          "type": "uint256"
        },
        {
          "internalType": "uint256",
          "name": "proposalThreshold_",
          "type": "uint256"
        }
      ],
      "name": "initialize",
      "outputs": [],
      "stateMutability": "nonpayable",
      "type": "function"
    },
    {
      "inputs": [
        {
          "internalType": "address",
          "name": "",
          "type": "address"
        }
      ],
      "name": "latestProposalIds",
      "outputs": [
        {
          "internalType": "uint256",
          "name": "",
          "type": "uint256"
        }
      ],
      "stateMutability": "view",
      "type": "function"
    },
    {
      "inputs": [],
      "name": "name",
      "outputs": [
        {
          "internalType": "string",
          "name": "",
          "type": "string"
        }
      ],
      "stateMutability": "view",
      "type": "function"
    },
    {
      "inputs": [],
      "name": "pendingAdmin",
      "outputs": [
        {
          "internalType": "address",
          "name": "",
          "type": "address"
        }
      ],
      "stateMutability": "view",
      "type": "function"
    },
    {
      "inputs": [],
      "name": "proposalCount",
      "outputs": [
        {
          "internalType": "uint256",
          "name": "",
          "type": "uint256"
        }
      ],
      "stateMutability": "view",
      "type": "function"
    },
    {
      "inputs": [],
      "name": "proposalMaxOperations",
      "outputs": [
        {
          "internalType": "uint256",
          "name": "",
          "type": "uint256"
        }
      ],
      "stateMutability": "view",
      "type": "function"
    },
    {
      "inputs": [],
      "name": "proposalThreshold",
      "outputs": [
        {
          "internalType": "uint256",
          "name": "",
          "type": "uint256"
        }
      ],
      "stateMutability": "view",
      "type": "function"
    },
    {
      "inputs": [
        {
          "internalType": "uint256",
          "name": "",
          "type": "uint256"
        }
      ],
      "name": "proposals",
      "outputs": [
        {
          "internalType": "uint256",
          "name": "id",
          "type": "uint256"
        },
        {
          "internalType": "address",
          "name": "proposer",
          "type": "address"
        },
        {
          "internalType": "uint256",
          "name": "eta",
          "type": "uint256"
        },
        {
          "internalType": "uint256",
          "name": "startBlock",
          "type": "uint256"
        },
        {
          "internalType": "uint256",
          "name": "endBlock",
          "type": "uint256"
        },
        {
          "internalType": "uint256",
          "name": "forVotes",
          "type": "uint256"
        },
        {
          "internalType": "uint256",
          "name": "againstVotes",
          "type": "uint256"
        },
        {
          "internalType": "uint256",
          "name": "abstainVotes",
          "type": "uint256"
        },
        {
          "internalType": "bool",
          "name": "canceled",
          "type": "bool"
        },
        {
          "internalType": "bool",
          "name": "executed",
          "type": "bool"
        }
      ],
      "stateMutability": "view",
      "type": "function"
    },
    {
      "inputs": [
        {
          "internalType": "address[]",
          "name": "targets",
          "type": "address[]"
        },
        {
          "internalType": "uint256[]",
          "name": "values",
          "type": "uint256[]"
        },
        {
          "internalType": "string[]",
          "name": "signatures",
          "type": "string[]"
        },
        {
          "internalType": "bytes[]",
          "name": "calldatas",
          "type": "bytes[]"
        },
        {
          "internalType": "string",
          "name": "description",
          "type": "string"
        }
      ],
      "name": "propose",
      "outputs": [
        {
          "internalType": "uint256",
          "name": "",
          "type": "uint256"
        }
      ],
      "stateMutability": "nonpayable",
      "type": "function"
    },
    {
      "inputs": [
        {
          "internalType": "uint256",
          "name": "proposalId",
          "type": "uint256"
        }
      ],
      "name": "queue",
      "outputs": [],
      "stateMutability": "nonpayable",
      "type": "function"
    },
    {
      "inputs": [],
      "name": "quorumVotes",
      "outputs": [
        {
          "internalType": "uint256",
          "name": "",
          "type": "uint256"
        }
      ],
      "stateMutability": "view",
      "type": "function"
    },
    {
      "inputs": [
        {
          "internalType": "uint256",
          "name": "proposalId",
          "type": "uint256"
        }
      ],
      "name": "state",
      "outputs": [
        {
          "internalType": "enum GovernorBravoDelegateStorageV1.ProposalState",
          "name": "",
          "type": "uint8"
        }
      ],
      "stateMutability": "view",
      "type": "function"
    },
    {
      "inputs": [],
      "name": "timelock",
      "outputs": [
        {
          "internalType": "contract TimelockInterface",
          "name": "",
          "type": "address"
        }
      ],
      "stateMutability": "view",
      "type": "function"
    },
    {
      "inputs": [],
      "name": "votingDelay",
      "outputs": [
        {
          "internalType": "uint256",
          "name": "",
          "type": "uint256"
        }
      ],
      "stateMutability": "view",
      "type": "function"
    },
    {
      "inputs": [],
      "name": "votingPeriod",
      "outputs": [
        {
          "internalType": "uint256",
          "name": "",
          "type": "uint256"
        }
      ],
      "stateMutability": "view",
      "type": "function"
    }
  ],
  "transactionHash": "0x51f95872b6c9175b922ff8d636c5c462c05801a66939bc058a14d984babd699f",
  "blockNumber": 11292238,
  "args": [],
  "solcInputHash": "eb62bab71dc31592bd895f6e28413e79",
  "bytecode": "0x608060405234801561001057600080fd5b506138cc806100206000396000f3fe6080604052600436106102255760003560e01c8063791f5d2311610123578063da35c664116100ab578063e48083fe1161006f578063e48083fe146107e5578063e9c714f2146107fa578063f851a4401461080f578063f96dae0a1461082f578063fe0d94c11461084f57600080fd5b8063da35c66414610691578063da95691a146106a7578063ddf0b009146106c7578063deaaa7cc146106e7578063e23a9a521461071b57600080fd5b8063b1126263116100f2578063b112626314610605578063b58131b01461061b578063b71d1a0c14610631578063d13f90b414610651578063d33219b41461067157600080fd5b8063791f5d231461059a5780637b3c71d3146105b95780637bdbe4d0146105d9578063a64e024a146105ee57600080fd5b806324bc1a64116101b15780633bccf4fd116101755780633bccf4fd146104ed5780633e4f49e61461050d57806340e58ee51461053a578063567813881461055a5780635c60da1b1461057a57600080fd5b806324bc1a641461045057806325fd935a14610450578063267822471461046f578063328dd982146104a75780633932abb1146104d757600080fd5b806317977c61116101f857806317977c611461039a57806317ba1b8b146103c75780631dfb1b5a146103e757806320606b7014610407578063215809ca1461043b57600080fd5b8063013cf08b1461022a57806302a251a31461030257806306fdde03146103265780630ea2d98c14610378575b600080fd5b34801561023657600080fd5b506102a76102453660046131f6565b60096020819052600091825260409091208054600182015460028301546007840154600885015495850154600a860154600b870154600c9097015495976001600160a01b03909516969395929493919290919060ff808216916101009004168a565b604080519a8b526001600160a01b0390991660208b0152978901969096526060880194909452608087019290925260a086015260c085015260e084015215156101008301521515610120820152610140015b60405180910390f35b34801561030e57600080fd5b5061031860045481565b6040519081526020016102f9565b34801561033257600080fd5b5061036b604051806040016040528060198152602001784465466948656c70657220476f7665726e6f7220427261766f60381b81525081565b6040516102f991906135f7565b34801561038457600080fd5b506103986103933660046131f6565b610862565b005b3480156103a657600080fd5b506103186103b536600461300a565b600a6020526000908152604090205481565b3480156103d357600080fd5b506103986103e23660046131f6565b61098d565b3480156103f357600080fd5b506103986104023660046131f6565b610ad8565b34801561041357600080fd5b506103187f8cad95687ba82c2ce50e74f7b754645e5117c3a5bec8151c0726d5857980a86681565b34801561044757600080fd5b50610318600081565b34801561045c57600080fd5b506103186a211654585005212800000081565b34801561047b57600080fd5b5060015461048f906001600160a01b031681565b6040516001600160a01b0390911681526020016102f9565b3480156104b357600080fd5b506104c76104c23660046131f6565b610bff565b6040516102f99493929190613577565b3480156104e357600080fd5b5061031860035481565b3480156104f957600080fd5b506103986105083660046132e5565b610e90565b34801561051957600080fd5b5061052d6105283660046131f6565b61110f565b6040516102f991906135cf565b34801561054657600080fd5b506103986105553660046131f6565b6112d4565b34801561056657600080fd5b5061039861057536600461323b565b6115f3565b34801561058657600080fd5b5060025461048f906001600160a01b031681565b3480156105a657600080fd5b506103186a027b46536c66c8e300000081565b3480156105c557600080fd5b506103986105d436600461325e565b61165e565b3480156105e557600080fd5b50610318600a81565b3480156105fa57600080fd5b5061031862013b0081565b34801561061157600080fd5b50610318619d8081565b34801561062757600080fd5b5061031860055481565b34801561063d57600080fd5b5061039861064c36600461300a565b6116ae565b34801561065d57600080fd5b5061039861066c366004613025565b611775565b34801561067d57600080fd5b5060075461048f906001600160a01b031681565b34801561069d57600080fd5b5061031860065481565b3480156106b357600080fd5b506103186106c2366004613072565b611a3c565b3480156106d357600080fd5b506103986106e23660046131f6565b611fa9565b3480156106f357600080fd5b506103187f150214d74d59b7d1e90c73fc22ef3d991dd0a76b046543d4d80ab92d2a50328f81565b34801561072757600080fd5b506107b561073636600461320f565b60408051606081018252600080825260208201819052918101919091525060009182526009602090815260408084206001600160a01b03939093168452600d9092018152918190208151606081018352905460ff8082161515835261010082041693820193909352620100009092046001600160601b03169082015290565b6040805182511515815260208084015160ff1690820152918101516001600160601b0316908201526060016102f9565b3480156107f157600080fd5b50610318600181565b34801561080657600080fd5b506103986122ea565b34801561081b57600080fd5b5060005461048f906001600160a01b031681565b34801561083b57600080fd5b5060085461048f906001600160a01b031681565b61039861085d3660046131f6565b612414565b6000546001600160a01b031633146108d55760405162461bcd60e51b815260206004820152602b60248201527f476f7665726e6f72427261766f3a3a5f736574566f74696e67506572696f643a60448201526a2061646d696e206f6e6c7960a81b60648201526084015b60405180910390fd5b62013b008111156109475760405162461bcd60e51b815260206004820152603660248201527f476f7665726e6f72427261766f3a3a5f736574566f74696e67506572696f643a604482015275081a5b9d985b1a59081d9bdd1a5b99c81c195c9a5bd960521b60648201526084016108cc565b600480549082905560408051828152602081018490527f7e3f7f0708a84de9203036abaa450dccc85ad5ff52f78c170f3edb55cf5e882891015b60405180910390a15050565b6000546001600160a01b03163314610a005760405162461bcd60e51b815260206004820152603060248201527f476f7665726e6f72427261766f3a3a5f73657450726f706f73616c546872657360448201526f686f6c643a2061646d696e206f6e6c7960801b60648201526084016108cc565b6a027b46536c66c8e30000008110158015610a2657506a21165458500521280000008111155b610a9a576040805162461bcd60e51b81526020600482015260248101919091527f476f7665726e6f72427261766f3a3a5f73657450726f706f73616c546872657360448201527f686f6c643a20696e76616c69642070726f706f73616c207468726573686f6c6460648201526084016108cc565b600580549082905560408051828152602081018490527fccb45da8d5717e6c4544694297c4ba5cf151d455c9bb0ed4fc7a38411bc054619101610981565b6000546001600160a01b03163314610b455760405162461bcd60e51b815260206004820152602a60248201527f476f7665726e6f72427261766f3a3a5f736574566f74696e6744656c61793a2060448201526961646d696e206f6e6c7960b01b60648201526084016108cc565b60018110158015610b585750619d808111155b610bc15760405162461bcd60e51b815260206004820152603460248201527f476f7665726e6f72427261766f3a3a5f736574566f74696e6744656c61793a20604482015273696e76616c696420766f74696e672064656c617960601b60648201526084016108cc565b600380549082905560408051828152602081018490527fc565b045403dc03c2eea82b81a0465edad9e2e7fc4d97e11421c209da93d7a939101610981565b60608060608060006009600087815260200190815260200160002090508060030181600401826005018360060183805480602002602001604051908101604052809291908181526020018280548015610c8157602002820191906000526020600020905b81546001600160a01b03168152600190910190602001808311610c63575b5050505050935082805480602002602001604051908101604052809291908181526020018280548015610cd357602002820191906000526020600020905b815481526020019060010190808311610cbf575b5050505050925081805480602002602001604051908101604052809291908181526020016000905b82821015610da7578382906000526020600020018054610d1a906137ce565b80601f0160208091040260200160405190810160405280929190818152602001828054610d46906137ce565b8015610d935780601f10610d6857610100808354040283529160200191610d93565b820191906000526020600020905b815481529060010190602001808311610d7657829003601f168201915b505050505081526020019060010190610cfb565b50505050915080805480602002602001604051908101604052809291908181526020016000905b82821015610e7a578382906000526020600020018054610ded906137ce565b80601f0160208091040260200160405190810160405280929190818152602001828054610e19906137ce565b8015610e665780601f10610e3b57610100808354040283529160200191610e66565b820191906000526020600020905b815481529060010190602001808311610e4957829003601f168201915b505050505081526020019060010190610dce565b5050505090509450945094509450509193509193565b60408051808201825260198152784465466948656c70657220476f7665726e6f7220427261766f60381b60209182015281517f8cad95687ba82c2ce50e74f7b754645e5117c3a5bec8151c0726d5857980a866818301527fa23ea4f8575d811f6bf655653606c6de379b4d56d6b8542b06793571d8fb999181840152466060820152306080808301919091528351808303909101815260a0820184528051908301207f150214d74d59b7d1e90c73fc22ef3d991dd0a76b046543d4d80ab92d2a50328f60c083015260e0820189905260ff8816610100808401919091528451808403909101815261012083019094528351939092019290922061190160f01b6101408401526101428301829052610162830181905290916000906101820160408051601f198184030181528282528051602091820120600080855291840180845281905260ff8a169284019290925260608301889052608083018790529092509060019060a0016020604051602081039080840390855afa158015611019573d6000803e3d6000fd5b5050604051601f1901519150506001600160a01b0381166110945760405162461bcd60e51b815260206004820152602f60248201527f476f7665726e6f72427261766f3a3a63617374566f746542795369673a20696e60448201526e76616c6964207369676e617475726560881b60648201526084016108cc565b806001600160a01b03167fb8e138887d0aa13bab447e82de9d5c1777041ecd21ca36ba824ff1e6c07ddda48a8a6110cc858e8e612660565b6040805193845260ff90921660208401526001600160601b03169082015260806060820181905260009082015260a00160405180910390a2505050505050505050565b60008160065410156111755760405162461bcd60e51b815260206004820152602960248201527f476f7665726e6f72427261766f3a3a73746174653a20696e76616c69642070726044820152681bdc1bdcd85b081a5960ba1b60648201526084016108cc565b6000828152600960205260409020600c81015460ff16156111995750600292915050565b806007015443116111ad5750600092915050565b806008015443116111c15750600192915050565b80600a015481600901541115806111e657506a21165458500521280000008160090154105b156111f45750600392915050565b60028101546112065750600492915050565b600c810154610100900460ff16156112215750600792915050565b600760009054906101000a90046001600160a01b03166001600160a01b031663c1a287e26040518163ffffffff1660e01b815260040160206040518083038186803b15801561126f57600080fd5b505afa158015611283573d6000803e3d6000fd5b505050506040513d601f19601f820116820180604052508101906112a79190613166565b81600201546112b6919061376f565b42106112c55750600692915050565b50600592915050565b50919050565b60076112df8261110f565b60078111156112f0576112f0613834565b141561135d5760405162461bcd60e51b815260206004820152603660248201527f476f7665726e6f72427261766f3a3a63616e63656c3a2063616e6e6f742063616044820152751b98d95b08195e1958dd5d1959081c1c9bdc1bdcd85b60521b60648201526084016108cc565b600081815260096020526040902060018101546001600160a01b031633148061143357506005546008546001838101546001600160a01b039283169263782d6fe1929116906113ac9043613787565b6040516001600160e01b031960e085901b1681526001600160a01b039092166004830152602482015260440160206040518083038186803b1580156113f057600080fd5b505afa158015611404573d6000803e3d6000fd5b505050506040513d601f19601f820116820180604052508101906114289190613333565b6001600160601b0316105b6114975760405162461bcd60e51b815260206004820152602f60248201527f476f7665726e6f72427261766f3a3a63616e63656c3a2070726f706f7365722060448201526e18589bdd99481d1a1c995cda1bdb19608a1b60648201526084016108cc565b600c8101805460ff1916600117905560005b60038201548110156115c2576007546003830180546001600160a01b039092169163591fcdfe9190849081106114e1576114e161384a565b6000918252602090912001546004850180546001600160a01b03909216918590811061150f5761150f61384a565b906000526020600020015485600501858154811061152f5761152f61384a565b9060005260206000200186600601868154811061154e5761154e61384a565b9060005260206000200187600201546040518663ffffffff1660e01b815260040161157d95949392919061353e565b600060405180830381600087803b15801561159757600080fd5b505af11580156115ab573d6000803e3d6000fd5b5050505080806115ba90613803565b9150506114a9565b506040518281527f789cf55be980739dad1d0699b93b58e806b51c9d96619bfa8fe0a28abaa7b30c90602001610981565b337fb8e138887d0aa13bab447e82de9d5c1777041ecd21ca36ba824ff1e6c07ddda48383611622848383612660565b6040805193845260ff90921660208401526001600160601b03169082015260806060820181905260009082015260a00160405180910390a25050565b337fb8e138887d0aa13bab447e82de9d5c1777041ecd21ca36ba824ff1e6c07ddda4858561168d848383612660565b86866040516116a09594939291906136a2565b60405180910390a250505050565b6000546001600160a01b0316331461171b5760405162461bcd60e51b815260206004820152602a60248201527f476f7665726e6f72427261766f3a5f73657450656e64696e6741646d696e3a2060448201526961646d696e206f6e6c7960b01b60648201526084016108cc565b600180546001600160a01b038381166001600160a01b031983168117909355604080519190921680825260208201939093527fca4f2f25d0898edd99413412fb94012f9e54ec8142f9b093e7720646a95b16a99101610981565b6007546001600160a01b0316156117ea5760405162461bcd60e51b815260206004820152603360248201527f476f7665726e6f72427261766f3a3a696e697469616c697a653a2063616e206f6044820152726e6c7920696e697469616c697a65206f6e636560681b60648201526084016108cc565b6001600160a01b03851661184a5760405162461bcd60e51b8152602060048201526033602482015260008051602061387783398151915260448201527269642074696d656c6f636b206164647265737360681b60648201526084016108cc565b6001600160a01b0384166118b45760405162461bcd60e51b815260206004820152603b602482015260008051602061387783398151915260448201527f696420676f7665726e616e636520746f6b656e2061646472657373000000000060648201526084016108cc565b62013b0083111561190e5760405162461bcd60e51b8152602060048201526030602482015260008051602061387783398151915260448201526f1a59081d9bdd1a5b99c81c195c9a5bd960821b60648201526084016108cc565b600182101580156119215750619d808211155b6119735760405162461bcd60e51b815260206004820152602f602482015260008051602061387783398151915260448201526e696420766f74696e672064656c617960881b60648201526084016108cc565b6a027b46536c66c8e3000000811015801561199957506a21165458500521280000008111155b6119f15760405162461bcd60e51b815260206004820152603560248201526000805160206138778339815191526044820152741a59081c1c9bdc1bdcd85b081d1a1c995cda1bdb19605a1b60648201526084016108cc565b600080546001600160a01b039687166001600160a01b031991821681179092556007805482169092179091556008805495909616941693909317909355600455600391909155600555565b600554600854600091906001600160a01b031663782d6fe133611a60600143613787565b6040516001600160e01b031960e085901b1681526001600160a01b039092166004830152602482015260440160206040518083038186803b158015611aa457600080fd5b505afa158015611ab8573d6000803e3d6000fd5b505050506040513d601f19601f82011682018060405250810190611adc9190613333565b6001600160601b031611611b585760405162461bcd60e51b815260206004820152603f60248201527f476f7665726e6f72427261766f3a3a70726f706f73653a2070726f706f73657260448201527f20766f7465732062656c6f772070726f706f73616c207468726573686f6c640060648201526084016108cc565b84518651148015611b6a575083518651145b8015611b77575082518651145b611bf75760405162461bcd60e51b8152602060048201526044602482018190527f476f7665726e6f72427261766f3a3a70726f706f73653a2070726f706f73616c908201527f2066756e6374696f6e20696e666f726d6174696f6e206172697479206d69736d6064820152630c2e8c6d60e31b608482015260a4016108cc565b8551611c5a5760405162461bcd60e51b815260206004820152602c60248201527f476f7665726e6f72427261766f3a3a70726f706f73653a206d7573742070726f60448201526b7669646520616374696f6e7360a01b60648201526084016108cc565b600a86511115611cbd5760405162461bcd60e51b815260206004820152602860248201527f476f7665726e6f72427261766f3a3a70726f706f73653a20746f6f206d616e7960448201526720616374696f6e7360c01b60648201526084016108cc565b336000908152600a60205260409020548015611e3e576000611cde8261110f565b90506001816007811115611cf457611cf4613834565b1415611d8e5760405162461bcd60e51b815260206004820152605860248201527f476f7665726e6f72427261766f3a3a70726f706f73653a206f6e65206c69766560448201527f2070726f706f73616c207065722070726f706f7365722c20666f756e6420616e60648201527f20616c7265616479206163746976652070726f706f73616c0000000000000000608482015260a4016108cc565b6000816007811115611da257611da2613834565b1415611e3c5760405162461bcd60e51b815260206004820152605960248201527f476f7665726e6f72427261766f3a3a70726f706f73653a206f6e65206c69766560448201527f2070726f706f73616c207065722070726f706f7365722c20666f756e6420616e60648201527f20616c72656164792070656e64696e672070726f706f73616c00000000000000608482015260a4016108cc565b505b600060035443611e4e919061376f565b9050600060045482611e60919061376f565b600680549192506000611e7283613803565b909155505060065460008181526009602090815260409091209182556001820180546001600160a01b031916331790558a51611eb6916003840191908d0190612b29565b508851611ecc90600483019060208c0190612b8e565b508751611ee290600583019060208b0190612bc9565b508651611ef890600683019060208a0190612c22565b508281600701819055508181600801819055508060000154600a60008360010160009054906101000a90046001600160a01b03166001600160a01b03166001600160a01b03168152602001908152602001600020819055507f7d84a6263ae0d98d3329bd7b46bb4e8d6f98cd35a7adb45c274c8b7fd5ebd5e08160000154338c8c8c8c89898e604051611f939998979695949392919061360a565b60405180910390a1549998505050505050505050565b6004611fb48261110f565b6007811115611fc557611fc5613834565b146120465760405162461bcd60e51b8152602060048201526044602482018190527f476f7665726e6f72427261766f3a3a71756575653a2070726f706f73616c2063908201527f616e206f6e6c79206265207175657565642069662069742069732073756363656064820152631959195960e21b608482015260a4016108cc565b60008181526009602090815260408083206007548251630d48571f60e31b815292519194936001600160a01b0390911692636a42b8f89260048083019392829003018186803b15801561209857600080fd5b505afa1580156120ac573d6000803e3d6000fd5b505050506040513d601f19601f820116820180604052508101906120d09190613166565b6120da904261376f565b905060005b60038301548110156122a4576122928360030182815481106121035761210361384a565b6000918252602090912001546004850180546001600160a01b0390921691849081106121315761213161384a565b90600052602060002001548560050184815481106121515761215161384a565b906000526020600020018054612166906137ce565b80601f0160208091040260200160405190810160405280929190818152602001828054612192906137ce565b80156121df5780601f106121b4576101008083540402835291602001916121df565b820191906000526020600020905b8154815290600101906020018083116121c257829003601f168201915b50505050508660060185815481106121f9576121f961384a565b90600052602060002001805461220e906137ce565b80601f016020809104026020016040519081016040528092919081815260200182805461223a906137ce565b80156122875780601f1061225c57610100808354040283529160200191612287565b820191906000526020600020905b81548152906001019060200180831161226a57829003601f168201915b505050505086612954565b8061229c81613803565b9150506120df565b506002820181905560408051848152602081018390527f9a2e42fd6722813d69113e7d0079d3d940171428df7373df9c7f7617cfda2892910160405180910390a1505050565b6001546001600160a01b03163314801561230357503315155b6123665760405162461bcd60e51b815260206004820152602e60248201527f476f7665726e6f72427261766f3a5f61636365707441646d696e3a2070656e6460448201526d696e672061646d696e206f6e6c7960901b60648201526084016108cc565b60008054600180546001600160a01b038082166001600160a01b031980861682179096559490911690915560408051919092168082526020820184905292917ff9ffabca9c8276e99321725bcb43fb076a6c66a54b7f21c4e8146d8519b417dc910160405180910390a1600154604080516001600160a01b03808516825290921660208301527fca4f2f25d0898edd99413412fb94012f9e54ec8142f9b093e7720646a95b16a99101610981565b600561241f8261110f565b600781111561243057612430613834565b146124b15760405162461bcd60e51b815260206004820152604560248201527f476f7665726e6f72427261766f3a3a657865637574653a2070726f706f73616c60448201527f2063616e206f6e6c7920626520657865637574656420696620697420697320716064820152641d595d595960da1b608482015260a4016108cc565b6000818152600960205260408120600c8101805461ff001916610100179055905b600382015481101561262f576007546004830180546001600160a01b0390921691630825f38f91908490811061250a5761250a61384a565b906000526020600020015484600301848154811061252a5761252a61384a565b6000918252602090912001546004860180546001600160a01b0390921691869081106125585761255861384a565b90600052602060002001548660050186815481106125785761257861384a565b906000526020600020018760060187815481106125975761259761384a565b9060005260206000200188600201546040518763ffffffff1660e01b81526004016125c695949392919061353e565b6000604051808303818588803b1580156125df57600080fd5b505af11580156125f3573d6000803e3d6000fd5b50505050506040513d6000823e601f3d908101601f1916820160405261261c919081019061317f565b508061262781613803565b9150506124d2565b506040518281527f712ae1383f79ac853f8d882153778e0260ef8f03b504e2866e0593e04d2b291f90602001610981565b6000600161266d8461110f565b600781111561267e5761267e613834565b146126e55760405162461bcd60e51b815260206004820152603160248201527f476f7665726e6f72427261766f3a3a63617374566f7465496e7465726e616c3a604482015270081d9bdd1a5b99c81a5cc818db1bdcd959607a1b60648201526084016108cc565b60028260ff1611156127545760405162461bcd60e51b815260206004820152603260248201527f476f7665726e6f72427261766f3a3a63617374566f7465496e7465726e616c3a60448201527120696e76616c696420766f7465207479706560701b60648201526084016108cc565b60008381526009602090815260408083206001600160a01b0388168452600d8101909252909120805460ff16156127ea5760405162461bcd60e51b815260206004820152603460248201527f476f7665726e6f72427261766f3a3a63617374566f7465496e7465726e616c3a604482015273081d9bdd195c88185b1c9958591e481d9bdd195960621b60648201526084016108cc565b600854600783015460405163782d6fe160e01b81526000926001600160a01b03169163782d6fe191612834918b916004016001600160a01b03929092168252602082015260400190565b60206040518083038186803b15801561284c57600080fd5b505afa158015612860573d6000803e3d6000fd5b505050506040513d601f19601f820116820180604052508101906128849190613333565b905060ff85166128b157806001600160601b031683600a01546128a7919061376f565b600a84015561290b565b8460ff16600114156128e057806001600160601b031683600901546128d6919061376f565b600984015561290b565b8460ff166002141561290b57806001600160601b031683600b0154612905919061376f565b600b8401555b81546001600160601b03821662010000026dffffffffffffffffffffffff00001960ff88166101000261ffff199093169290921760011791909116179091559150509392505050565b6007546040516001600160a01b039091169063f2b065379061298290889088908890889088906020016134f2565b604051602081830303815290604052805190602001206040518263ffffffff1660e01b81526004016129b691815260200190565b60206040518083038186803b1580156129ce57600080fd5b505afa1580156129e2573d6000803e3d6000fd5b505050506040513d601f19601f82011682018060405250810190612a069190613144565b15612a975760405162461bcd60e51b815260206004820152605560248201527f476f7665726e6f72427261766f3a3a71756575654f72526576657274496e746560448201527f726e616c3a206964656e746963616c2070726f706f73616c20616374696f6e20606482015274616c7265616479207175657565642061742065746160581b608482015260a4016108cc565b600754604051633a66f90160e01b81526001600160a01b0390911690633a66f90190612acf90889088908890889088906004016134f2565b602060405180830381600087803b158015612ae957600080fd5b505af1158015612afd573d6000803e3d6000fd5b505050506040513d601f19601f82011682018060405250810190612b219190613166565b505050505050565b828054828255906000526020600020908101928215612b7e579160200282015b82811115612b7e57825182546001600160a01b0319166001600160a01b03909116178255602090920191600190910190612b49565b50612b8a929150612c7b565b5090565b828054828255906000526020600020908101928215612b7e579160200282015b82811115612b7e578251825591602001919060010190612bae565b828054828255906000526020600020908101928215612c16579160200282015b82811115612c165782518051612c06918491602090910190612c90565b5091602001919060010190612be9565b50612b8a929150612d03565b828054828255906000526020600020908101928215612c6f579160200282015b82811115612c6f5782518051612c5f918491602090910190612c90565b5091602001919060010190612c42565b50612b8a929150612d20565b5b80821115612b8a5760008155600101612c7c565b828054612c9c906137ce565b90600052602060002090601f016020900481019282612cbe5760008555612b7e565b82601f10612cd757805160ff1916838001178555612b7e565b82800160010185558215612b7e5791820182811115612b7e578251825591602001919060010190612bae565b80821115612b8a576000612d178282612d3d565b50600101612d03565b80821115612b8a576000612d348282612d3d565b50600101612d20565b508054612d49906137ce565b6000825580601f10612d59575050565b601f016020900490600052602060002090810190612d779190612c7b565b50565b6000612d8d612d8884613747565b6136f2565b9050828152838383011115612da157600080fd5b828260208301376000602084830101529392505050565b80356001600160a01b0381168114612dcf57600080fd5b919050565b600082601f830112612de557600080fd5b81356020612df5612d8883613723565b80838252828201915082860187848660051b8901011115612e1557600080fd5b60005b85811015612e3b57612e2982612db8565b84529284019290840190600101612e18565b5090979650505050505050565b600082601f830112612e5957600080fd5b81356020612e69612d8883613723565b80838252828201915082860187848660051b8901011115612e8957600080fd5b60005b85811015612e3b57813567ffffffffffffffff811115612eab57600080fd5b8801603f81018a13612ebc57600080fd5b612ecd8a8783013560408401612d7a565b8552509284019290840190600101612e8c565b600082601f830112612ef157600080fd5b81356020612f01612d8883613723565b80838252828201915082860187848660051b8901011115612f2157600080fd5b6000805b86811015612f6457823567ffffffffffffffff811115612f43578283fd5b612f518b88838d0101612fd2565b8652509385019391850191600101612f25565b509198975050505050505050565b600082601f830112612f8357600080fd5b81356020612f93612d8883613723565b80838252828201915082860187848660051b8901011115612fb357600080fd5b60005b85811015612e3b57813584529284019290840190600101612fb6565b600082601f830112612fe357600080fd5b612ff283833560208501612d7a565b9392505050565b803560ff81168114612dcf57600080fd5b60006020828403121561301c57600080fd5b612ff282612db8565b600080600080600060a0868803121561303d57600080fd5b61304686612db8565b945061305460208701612db8565b94979496505050506040830135926060810135926080909101359150565b600080600080600060a0868803121561308a57600080fd5b853567ffffffffffffffff808211156130a257600080fd5b6130ae89838a01612dd4565b965060208801359150808211156130c457600080fd5b6130d089838a01612f72565b955060408801359150808211156130e657600080fd5b6130f289838a01612ee0565b9450606088013591508082111561310857600080fd5b61311489838a01612e48565b9350608088013591508082111561312a57600080fd5b5061313788828901612fd2565b9150509295509295909350565b60006020828403121561315657600080fd5b81518015158114612ff257600080fd5b60006020828403121561317857600080fd5b5051919050565b60006020828403121561319157600080fd5b815167ffffffffffffffff8111156131a857600080fd5b8201601f810184136131b957600080fd5b80516131c7612d8882613747565b8181528560208385010111156131dc57600080fd5b6131ed82602083016020860161379e565b95945050505050565b60006020828403121561320857600080fd5b5035919050565b6000806040838503121561322257600080fd5b8235915061323260208401612db8565b90509250929050565b6000806040838503121561324e57600080fd5b8235915061323260208401612ff9565b6000806000806060858703121561327457600080fd5b8435935061328460208601612ff9565b9250604085013567ffffffffffffffff808211156132a157600080fd5b818701915087601f8301126132b557600080fd5b8135818111156132c457600080fd5b8860208285010111156132d657600080fd5b95989497505060200194505050565b600080600080600060a086880312156132fd57600080fd5b8535945061330d60208701612ff9565b935061331b60408701612ff9565b94979396509394606081013594506080013592915050565b60006020828403121561334557600080fd5b81516001600160601b0381168114612ff257600080fd5b600081518084526020808501945080840160005b838110156133955781516001600160a01b031687529582019590820190600101613370565b509495945050505050565b600081518084526020808501808196508360051b8101915082860160005b858110156133e85782840389526133d6848351613425565b988501989350908401906001016133be565b5091979650505050505050565b600081518084526020808501945080840160005b8381101561339557815187529582019590820190600101613409565b6000815180845261343d81602086016020860161379e565b601f01601f19169290920160200192915050565b8054600090600181811c908083168061346b57607f831692505b602080841082141561348d57634e487b7160e01b600052602260045260246000fd5b8388528180156134a457600181146134b8576134e6565b60ff198616898301526040890196506134e6565b876000528160002060005b868110156134de5781548b82018501529085019083016134c3565b8a0183019750505b50505050505092915050565b60018060a01b038616815284602082015260a06040820152600061351960a0830186613425565b828103606084015261352b8186613425565b9150508260808301529695505050505050565b60018060a01b038616815284602082015260a06040820152600061356560a0830186613451565b828103606084015261352b8186613451565b60808152600061358a608083018761335c565b828103602084015261359c81876133f5565b905082810360408401526135b081866133a0565b905082810360608401526135c481856133a0565b979650505050505050565b60208101600883106135f157634e487b7160e01b600052602160045260246000fd5b91905290565b602081526000612ff26020830184613425565b8981526001600160a01b0389166020820152610120604082018190526000906136358382018b61335c565b90508281036060840152613649818a6133f5565b9050828103608084015261365d81896133a0565b905082810360a084015261367181886133a0565b90508560c08401528460e08401528281036101008401526136928185613425565b9c9b505050505050505050505050565b85815260ff851660208201526001600160601b038416604082015260806060820152816080820152818360a0830137600081830160a090810191909152601f909201601f19160101949350505050565b604051601f8201601f1916810167ffffffffffffffff8111828210171561371b5761371b613860565b604052919050565b600067ffffffffffffffff82111561373d5761373d613860565b5060051b60200190565b600067ffffffffffffffff82111561376157613761613860565b50601f01601f191660200190565b600082198211156137825761378261381e565b500190565b6000828210156137995761379961381e565b500390565b60005b838110156137b95781810151838201526020016137a1565b838111156137c8576000848401525b50505050565b600181811c908216806137e257607f821691505b602082108114156112ce57634e487b7160e01b600052602260045260246000fd5b60006000198214156138175761381761381e565b5060010190565b634e487b7160e01b600052601160045260246000fd5b634e487b7160e01b600052602160045260246000fd5b634e487b7160e01b600052603260045260246000fd5b634e487b7160e01b600052604160045260246000fdfe476f7665726e6f72427261766f3a3a696e697469616c697a653a20696e76616ca264697066735822122051ebbd6622aa74998664cd2a7e0fa469cfb4629353488ad4438542a0bc40eaee64736f6c63430008060033",
  "devdoc": {
    "kind": "dev",
    "methods": {
      "_acceptAdmin()": {
        "details": "Admin function for pending admin to accept role and update admin"
      },
      "_setPendingAdmin(address)": {
        "details": "Admin function to begin change of admin. The newPendingAdmin must call `_acceptAdmin` to finalize the transfer.",
        "params": {
          "newPendingAdmin": "New pending admin."
        }
      },
      "_setProposalThreshold(uint256)": {
        "details": "newProposalThreshold must be greater than the hardcoded min",
        "params": {
          "newProposalThreshold": "new proposal threshold"
        }
      },
      "_setVotingDelay(uint256)": {
        "params": {
          "newVotingDelay": "new voting delay, in blocks"
        }
      },
      "_setVotingPeriod(uint256)": {
        "params": {
          "newVotingPeriod": "new voting period, in blocks"
        }
      },
      "cancel(uint256)": {
        "params": {
          "proposalId": "The id of the proposal to cancel"
        }
      },
      "castVote(uint256,uint8)": {
        "params": {
          "proposalId": "The id of the proposal to vote on",
          "support": "The support value for the vote. 0=against, 1=for, 2=abstain"
        }
      },
      "castVoteBySig(uint256,uint8,uint8,bytes32,bytes32)": {
        "details": "External function that accepts EIP-712 signatures for voting on proposals."
      },
      "castVoteWithReason(uint256,uint8,string)": {
        "params": {
          "proposalId": "The id of the proposal to vote on",
          "reason": "The reason given for the vote by the voter",
          "support": "The support value for the vote. 0=against, 1=for, 2=abstain"
        }
      },
      "execute(uint256)": {
        "params": {
          "proposalId": "The id of the proposal to execute"
        }
      },
      "getActions(uint256)": {
        "params": {
          "proposalId": "the id of the proposal"
        },
        "returns": {
          "calldatas": "Calldatas of the proposal actions",
          "signatures": "Signatures of the proposal actions",
          "targets": "Targets of the proposal actions",
          "values": "Values of the proposal actions"
        }
      },
      "getReceipt(uint256,address)": {
        "params": {
          "proposalId": "the id of proposal",
          "voter": "The address of the voter"
        },
        "returns": {
          "_0": "The voting receipt"
        }
      },
      "initialize(address,address,uint256,uint256,uint256)": {
        "params": {
          "governanceToken_": "The address of the governance token",
          "proposalThreshold_": "The initial proposal threshold",
          "timelock_": "The address of the Timelock",
          "votingDelay_": "The initial voting delay",
          "votingPeriod_": "The initial voting period"
        }
      },
      "propose(address[],uint256[],string[],bytes[],string)": {
        "params": {
          "calldatas": "Calldatas for proposal calls",
          "description": "String description of the proposal",
          "signatures": "Function signatures for proposal calls",
          "targets": "Target addresses for proposal calls",
          "values": "Eth values for proposal calls"
        },
        "returns": {
          "_0": "Proposal id of new proposal"
        }
      },
      "queue(uint256)": {
        "params": {
          "proposalId": "The id of the proposal to queue"
        }
      },
      "state(uint256)": {
        "params": {
          "proposalId": "The id of the proposal"
        },
        "returns": {
          "_0": "Proposal state"
        }
      }
    },
    "version": 1
  },
  "userdoc": {
    "events": {
      "NewAdmin(address,address)": {
        "notice": "Emitted when pendingAdmin is accepted, which means admin is updated"
      },
      "NewImplementation(address,address)": {
        "notice": "Emitted when implementation is changed"
      },
      "NewPendingAdmin(address,address)": {
        "notice": "Emitted when pendingAdmin is changed"
      },
      "ProposalCanceled(uint256)": {
        "notice": "An event emitted when a proposal has been canceled"
      },
      "ProposalCreated(uint256,address,address[],uint256[],string[],bytes[],uint256,uint256,string)": {
        "notice": "An event emitted when a new proposal is created"
      },
      "ProposalExecuted(uint256)": {
        "notice": "An event emitted when a proposal has been executed in the Timelock"
      },
      "ProposalQueued(uint256,uint256)": {
        "notice": "An event emitted when a proposal has been queued in the Timelock"
      },
      "ProposalThresholdSet(uint256,uint256)": {
        "notice": "Emitted when proposal threshold is set"
      },
      "VoteCast(address,uint256,uint8,uint256,string)": {
        "notice": "An event emitted when a vote has been cast on a proposal"
      },
      "VotingDelaySet(uint256,uint256)": {
        "notice": "An event emitted when the voting delay is set"
      },
      "VotingPeriodSet(uint256,uint256)": {
        "notice": "An event emitted when the voting period is set"
      }
    },
    "kind": "user",
    "methods": {
      "BALLOT_TYPEHASH()": {
        "notice": "The EIP-712 typehash for the ballot struct used by the contract"
      },
      "DOMAIN_TYPEHASH()": {
        "notice": "The EIP-712 typehash for the contract's domain"
      },
      "MAX_PROPOSAL_THRESHOLD()": {
        "notice": "The maximum setable proposal threshold"
      },
      "MAX_VOTING_DELAY()": {
        "notice": "The max setable voting delay"
      },
      "MAX_VOTING_PERIOD()": {
        "notice": "The max setable voting period"
      },
      "MIN_PROPOSAL_THRESHOLD()": {
        "notice": "The minimum setable proposal threshold"
      },
      "MIN_VOTING_DELAY()": {
        "notice": "The min setable voting delay"
      },
      "MIN_VOTING_PERIOD()": {
        "notice": "The minimum setable voting period"
      },
      "_acceptAdmin()": {
        "notice": "Accepts transfer of admin rights. msg.sender must be pendingAdmin"
      },
      "_setPendingAdmin(address)": {
        "notice": "Begins transfer of admin rights. The newPendingAdmin must call `_acceptAdmin` to finalize the transfer."
      },
      "_setProposalThreshold(uint256)": {
        "notice": "Admin function for setting the proposal threshold"
      },
      "_setVotingDelay(uint256)": {
        "notice": "Admin function for setting the voting delay"
      },
      "_setVotingPeriod(uint256)": {
        "notice": "Admin function for setting the voting period"
      },
      "admin()": {
        "notice": "Administrator for this contract"
      },
      "cancel(uint256)": {
        "notice": "Cancels a proposal only if sender is the proposer, or proposer delegates dropped below proposal threshold"
      },
      "castVote(uint256,uint8)": {
        "notice": "Cast a vote for a proposal"
      },
      "castVoteBySig(uint256,uint8,uint8,bytes32,bytes32)": {
        "notice": "Cast a vote for a proposal by signature"
      },
      "castVoteWithReason(uint256,uint8,string)": {
        "notice": "Cast a vote for a proposal with a reason"
      },
      "execute(uint256)": {
        "notice": "Executes a queued proposal if eta has passed"
      },
      "getActions(uint256)": {
        "notice": "Gets actions of a proposal"
      },
      "getReceipt(uint256,address)": {
        "notice": "Gets the receipt for a voter on a given proposal"
      },
      "governanceToken()": {
        "notice": "The address of the governance token"
      },
      "implementation()": {
        "notice": "Active brains of Governor"
      },
      "initialize(address,address,uint256,uint256,uint256)": {
        "notice": "Used to initialize the contract during delegator contructor"
      },
      "latestProposalIds(address)": {
        "notice": "The latest proposal for each proposer"
      },
      "name()": {
        "notice": "The name of this contract"
      },
      "pendingAdmin()": {
        "notice": "Pending administrator for this contract"
      },
      "proposalCount()": {
        "notice": "The total number of proposals"
      },
      "proposalMaxOperations()": {
        "notice": "The maximum number of actions that can be included in a proposal"
      },
      "proposalThreshold()": {
        "notice": "The number of votes required in order for a voter to become a proposer"
      },
      "proposals(uint256)": {
        "notice": "The official record of all proposals ever proposed"
      },
      "propose(address[],uint256[],string[],bytes[],string)": {
        "notice": "Function used to propose a new proposal. Sender must have delegates above the proposal threshold"
      },
      "queue(uint256)": {
        "notice": "Queues a proposal of state succeeded"
      },
      "quorumVotes()": {
        "notice": "The number of votes in support of a proposal required in order for a quorum to be reached and for a vote to succeed"
      },
      "state(uint256)": {
        "notice": "Gets the state of a proposal"
      },
      "timelock()": {
        "notice": "The address of the Protocol Timelock"
      },
      "votingDelay()": {
        "notice": "The delay before voting on a proposal may take place, once proposed, in blocks"
      },
      "votingPeriod()": {
        "notice": "The duration of voting on a proposal, in blocks"
      }
    },
    "version": 1
  },
  "storageLayout": {
    "storage": [
      {
        "astId": 1384,
        "contract": "contracts/governance/GovernorBravo.sol:GovernorBravo",
        "label": "admin",
        "offset": 0,
        "slot": "0",
        "type": "t_address"
      },
      {
        "astId": 1387,
        "contract": "contracts/governance/GovernorBravo.sol:GovernorBravo",
        "label": "pendingAdmin",
        "offset": 0,
        "slot": "1",
        "type": "t_address"
      },
      {
        "astId": 1390,
        "contract": "contracts/governance/GovernorBravo.sol:GovernorBravo",
        "label": "implementation",
        "offset": 0,
        "slot": "2",
        "type": "t_address"
      },
      {
        "astId": 1397,
        "contract": "contracts/governance/GovernorBravo.sol:GovernorBravo",
        "label": "votingDelay",
        "offset": 0,
        "slot": "3",
        "type": "t_uint256"
      },
      {
        "astId": 1400,
        "contract": "contracts/governance/GovernorBravo.sol:GovernorBravo",
        "label": "votingPeriod",
        "offset": 0,
        "slot": "4",
        "type": "t_uint256"
      },
      {
        "astId": 1403,
        "contract": "contracts/governance/GovernorBravo.sol:GovernorBravo",
        "label": "proposalThreshold",
        "offset": 0,
        "slot": "5",
        "type": "t_uint256"
      },
      {
        "astId": 1406,
        "contract": "contracts/governance/GovernorBravo.sol:GovernorBravo",
        "label": "proposalCount",
        "offset": 0,
        "slot": "6",
        "type": "t_uint256"
      },
      {
        "astId": 1410,
        "contract": "contracts/governance/GovernorBravo.sol:GovernorBravo",
        "label": "timelock",
        "offset": 0,
        "slot": "7",
        "type": "t_contract(TimelockInterface)1562"
      },
      {
        "astId": 1414,
        "contract": "contracts/governance/GovernorBravo.sol:GovernorBravo",
        "label": "governanceToken",
        "offset": 0,
        "slot": "8",
        "type": "t_contract(GovernanceTokenInterface)1572"
      },
      {
        "astId": 1420,
        "contract": "contracts/governance/GovernorBravo.sol:GovernorBravo",
        "label": "proposals",
        "offset": 0,
        "slot": "9",
        "type": "t_mapping(t_uint256,t_struct(Proposal)1478_storage)"
      },
      {
        "astId": 1425,
        "contract": "contracts/governance/GovernorBravo.sol:GovernorBravo",
        "label": "latestProposalIds",
        "offset": 0,
        "slot": "10",
        "type": "t_mapping(t_address,t_uint256)"
      }
    ],
    "types": {
      "t_address": {
        "encoding": "inplace",
        "label": "address",
        "numberOfBytes": "20"
      },
      "t_array(t_address)dyn_storage": {
        "base": "t_address",
        "encoding": "dynamic_array",
        "label": "address[]",
        "numberOfBytes": "32"
      },
      "t_array(t_bytes_storage)dyn_storage": {
        "base": "t_bytes_storage",
        "encoding": "dynamic_array",
        "label": "bytes[]",
        "numberOfBytes": "32"
      },
      "t_array(t_string_storage)dyn_storage": {
        "base": "t_string_storage",
        "encoding": "dynamic_array",
        "label": "string[]",
        "numberOfBytes": "32"
      },
      "t_array(t_uint256)dyn_storage": {
        "base": "t_uint256",
        "encoding": "dynamic_array",
        "label": "uint256[]",
        "numberOfBytes": "32"
      },
      "t_bool": {
        "encoding": "inplace",
        "label": "bool",
        "numberOfBytes": "1"
      },
      "t_bytes_storage": {
        "encoding": "bytes",
        "label": "bytes",
        "numberOfBytes": "32"
      },
      "t_contract(GovernanceTokenInterface)1572": {
        "encoding": "inplace",
        "label": "contract GovernanceTokenInterface",
        "numberOfBytes": "20"
      },
      "t_contract(TimelockInterface)1562": {
        "encoding": "inplace",
        "label": "contract TimelockInterface",
        "numberOfBytes": "20"
      },
      "t_mapping(t_address,t_struct(Receipt)1488_storage)": {
        "encoding": "mapping",
        "key": "t_address",
        "label": "mapping(address => struct GovernorBravoDelegateStorageV1.Receipt)",
        "numberOfBytes": "32",
        "value": "t_struct(Receipt)1488_storage"
      },
      "t_mapping(t_address,t_uint256)": {
        "encoding": "mapping",
        "key": "t_address",
        "label": "mapping(address => uint256)",
        "numberOfBytes": "32",
        "value": "t_uint256"
      },
      "t_mapping(t_uint256,t_struct(Proposal)1478_storage)": {
        "encoding": "mapping",
        "key": "t_uint256",
        "label": "mapping(uint256 => struct GovernorBravoDelegateStorageV1.Proposal)",
        "numberOfBytes": "32",
        "value": "t_struct(Proposal)1478_storage"
      },
      "t_string_storage": {
        "encoding": "bytes",
        "label": "string",
        "numberOfBytes": "32"
      },
      "t_struct(Proposal)1478_storage": {
        "encoding": "inplace",
        "label": "struct GovernorBravoDelegateStorageV1.Proposal",
        "members": [
          {
            "astId": 1428,
            "contract": "contracts/governance/GovernorBravo.sol:GovernorBravo",
            "label": "id",
            "offset": 0,
            "slot": "0",
            "type": "t_uint256"
          },
          {
            "astId": 1431,
            "contract": "contracts/governance/GovernorBravo.sol:GovernorBravo",
            "label": "proposer",
            "offset": 0,
            "slot": "1",
            "type": "t_address"
          },
          {
            "astId": 1434,
            "contract": "contracts/governance/GovernorBravo.sol:GovernorBravo",
            "label": "eta",
            "offset": 0,
            "slot": "2",
            "type": "t_uint256"
          },
          {
            "astId": 1438,
            "contract": "contracts/governance/GovernorBravo.sol:GovernorBravo",
            "label": "targets",
            "offset": 0,
            "slot": "3",
            "type": "t_array(t_address)dyn_storage"
          },
          {
            "astId": 1442,
            "contract": "contracts/governance/GovernorBravo.sol:GovernorBravo",
            "label": "values",
            "offset": 0,
            "slot": "4",
            "type": "t_array(t_uint256)dyn_storage"
          },
          {
            "astId": 1446,
            "contract": "contracts/governance/GovernorBravo.sol:GovernorBravo",
            "label": "signatures",
            "offset": 0,
            "slot": "5",
            "type": "t_array(t_string_storage)dyn_storage"
          },
          {
            "astId": 1450,
            "contract": "contracts/governance/GovernorBravo.sol:GovernorBravo",
            "label": "calldatas",
            "offset": 0,
            "slot": "6",
            "type": "t_array(t_bytes_storage)dyn_storage"
          },
          {
            "astId": 1453,
            "contract": "contracts/governance/GovernorBravo.sol:GovernorBravo",
            "label": "startBlock",
            "offset": 0,
            "slot": "7",
            "type": "t_uint256"
          },
          {
            "astId": 1456,
            "contract": "contracts/governance/GovernorBravo.sol:GovernorBravo",
            "label": "endBlock",
            "offset": 0,
            "slot": "8",
            "type": "t_uint256"
          },
          {
            "astId": 1459,
            "contract": "contracts/governance/GovernorBravo.sol:GovernorBravo",
            "label": "forVotes",
            "offset": 0,
            "slot": "9",
            "type": "t_uint256"
          },
          {
            "astId": 1462,
            "contract": "contracts/governance/GovernorBravo.sol:GovernorBravo",
            "label": "againstVotes",
            "offset": 0,
            "slot": "10",
            "type": "t_uint256"
          },
          {
            "astId": 1465,
            "contract": "contracts/governance/GovernorBravo.sol:GovernorBravo",
            "label": "abstainVotes",
            "offset": 0,
            "slot": "11",
            "type": "t_uint256"
          },
          {
            "astId": 1468,
            "contract": "contracts/governance/GovernorBravo.sol:GovernorBravo",
            "label": "canceled",
            "offset": 0,
            "slot": "12",
            "type": "t_bool"
          },
          {
            "astId": 1471,
            "contract": "contracts/governance/GovernorBravo.sol:GovernorBravo",
            "label": "executed",
            "offset": 1,
            "slot": "12",
            "type": "t_bool"
          },
          {
            "astId": 1477,
            "contract": "contracts/governance/GovernorBravo.sol:GovernorBravo",
            "label": "receipts",
            "offset": 0,
            "slot": "13",
            "type": "t_mapping(t_address,t_struct(Receipt)1488_storage)"
          }
        ],
        "numberOfBytes": "448"
      },
      "t_struct(Receipt)1488_storage": {
        "encoding": "inplace",
        "label": "struct GovernorBravoDelegateStorageV1.Receipt",
        "members": [
          {
            "astId": 1481,
            "contract": "contracts/governance/GovernorBravo.sol:GovernorBravo",
            "label": "hasVoted",
            "offset": 0,
            "slot": "0",
            "type": "t_bool"
          },
          {
            "astId": 1484,
            "contract": "contracts/governance/GovernorBravo.sol:GovernorBravo",
            "label": "support",
            "offset": 1,
            "slot": "0",
            "type": "t_uint8"
          },
          {
            "astId": 1487,
            "contract": "contracts/governance/GovernorBravo.sol:GovernorBravo",
            "label": "votes",
            "offset": 2,
            "slot": "0",
            "type": "t_uint96"
          }
        ],
        "numberOfBytes": "32"
      },
      "t_uint256": {
        "encoding": "inplace",
        "label": "uint256",
        "numberOfBytes": "32"
      },
      "t_uint8": {
        "encoding": "inplace",
        "label": "uint8",
        "numberOfBytes": "1"
      },
      "t_uint96": {
        "encoding": "inplace",
        "label": "uint96",
        "numberOfBytes": "12"
      }
    }
  }
}