{
  "name": "ProxyFactory",
  "address": "0xdcEBCae8c537c30a43DCC336278220d99540C00B",
  "abi": [
    {
      "anonymous": false,
      "inputs": [
        {
          "indexed": true,
          "internalType": "address",
          "name": "prototype",
          "type": "address"
        },
        {
          "indexed": true,
          "internalType": "address",
          "name": "proxy",
          "type": "address"
        }
      ],
      "name": "ProxyCreated",
      "type": "event"
    },
    {
      "inputs": [
        {
          "internalType": "address",
          "name": "prototype",
          "type": "address"
        },
        {
          "internalType": "bytes",
          "name": "args",
          "type": "bytes"
        }
      ],
      "name": "create",
      "outputs": [
        {
          "internalType": "address",
          "name": "proxy",
          "type": "address"
        }
      ],
      "stateMutability": "nonpayable",
      "type": "function"
    }
  ],
  "transactionHash": "0x76a15d071616a07cb03bcfed92275dd27a1e06a7b6e2a858a5cdf9f35d23e8d7",
  "blockNumber": 5961157,
  "args": [],
  "solcInputHash": "12fb6e7df0f49d959f0d90672680f947",
  "bytecode": "0x608060405234801561001057600080fd5b50610391806100206000396000f3fe608060405234801561001057600080fd5b506004361061002b5760003560e01c8063a3f697ba14610030575b600080fd5b61004361003e36600461022e565b61005f565b6040516001600160a01b03909116815260200160405180910390f35b6040516340925bc760e11b81526001600160a01b0383166004820152600090738586719c29A043C8305252de4DFfE94F4324559090638124b78e9060240160206040518083038186803b1580156100b557600080fd5b505af41580156100c9573d6000803e3d6000fd5b505050506040513d601f19601f820116820180604052508101906100ed919061020a565b8251909150156101c4576000816001600160a01b03168360405161011191906102f2565b6000604051808303816000865af19150503d806000811461014e576040519150601f19603f3d011682016040523d82523d6000602084013e610153565b606091505b50509050806101c25760405162461bcd60e51b815260206004820152603160248201527f50726f7879466163746f72793a3a6372656174653a2070726f787920696e69746044820152701a585b1a5e985d1a5bdb8819985a5b1959607a1b606482015260840160405180910390fd5b505b806001600160a01b0316836001600160a01b03167f9678a1e87ca9f1a37dc659a97b39d812d98cd236947e1b53b3d0d6fd346acb6e60405160405180910390a392915050565b60006020828403121561021c57600080fd5b815161022781610343565b9392505050565b6000806040838503121561024157600080fd5b823561024c81610343565b9150602083013567ffffffffffffffff8082111561026957600080fd5b818501915085601f83011261027d57600080fd5b81358181111561028f5761028f61032d565b604051601f8201601f19908116603f011681019083821181831017156102b7576102b761032d565b816040528281528860208487010111156102d057600080fd5b8260208601602083013760006020848301015280955050505050509250929050565b6000825160005b8181101561031357602081860181015185830152016102f9565b81811115610322576000828501525b509190910192915050565b634e487b7160e01b600052604160045260246000fd5b6001600160a01b038116811461035857600080fd5b5056fea26469706673582212201446b52f019c75eb024568f6aa5af1246b93afd266671cd97dcb2ae889d066de64736f6c63430008060033",
  "deployedBytecode": "0x608060405234801561001057600080fd5b506004361061002b5760003560e01c8063a3f697ba14610030575b600080fd5b61004361003e36600461022e565b61005f565b6040516001600160a01b03909116815260200160405180910390f35b6040516340925bc760e11b81526001600160a01b038316600482015260009073__$d3a1c43bdbf195fbbe2b1b74a9a2651292$__90638124b78e9060240160206040518083038186803b1580156100b557600080fd5b505af41580156100c9573d6000803e3d6000fd5b505050506040513d601f19601f820116820180604052508101906100ed919061020a565b8251909150156101c4576000816001600160a01b03168360405161011191906102f2565b6000604051808303816000865af19150503d806000811461014e576040519150601f19603f3d011682016040523d82523d6000602084013e610153565b606091505b50509050806101c25760405162461bcd60e51b815260206004820152603160248201527f50726f7879466163746f72793a3a6372656174653a2070726f787920696e69746044820152701a585b1a5e985d1a5bdb8819985a5b1959607a1b606482015260840160405180910390fd5b505b806001600160a01b0316836001600160a01b03167f9678a1e87ca9f1a37dc659a97b39d812d98cd236947e1b53b3d0d6fd346acb6e60405160405180910390a392915050565b60006020828403121561021c57600080fd5b815161022781610343565b9392505050565b6000806040838503121561024157600080fd5b823561024c81610343565b9150602083013567ffffffffffffffff8082111561026957600080fd5b818501915085601f83011261027d57600080fd5b81358181111561028f5761028f61032d565b604051601f8201601f19908116603f011681019083821181831017156102b7576102b761032d565b816040528281528860208487010111156102d057600080fd5b8260208601602083013760006020848301015280955050505050509250929050565b6000825160005b8181101561031357602081860181015185830152016102f9565b81811115610322576000828501525b509190910192915050565b634e487b7160e01b600052604160045260246000fd5b6001600160a01b038116811461035857600080fd5b5056fea26469706673582212201446b52f019c75eb024568f6aa5af1246b93afd266671cd97dcb2ae889d066de64736f6c63430008060033",
  "libraries": {
    "ERC1167": "0x8586719c29A043C8305252de4DFfE94F43245590"
  },
  "devdoc": {
    "kind": "dev",
    "methods": {
      "create(address,bytes)": {
        "params": {
          "args": "Encoded call to the init function.",
          "prototype": "Address of prototype contract."
        }
      }
    },
    "version": 1
  },
  "userdoc": {
    "kind": "user",
    "methods": {
      "create(address,bytes)": {
        "notice": "Create proxy contract by prototype."
      }
    },
    "version": 1
  },
  "storageLayout": {
    "storage": [],
    "types": null
  }
}