{
  "contracts/governance/GovernorBravo.sol": {
    "GovernorBravo": {
      "abi": [
        {
          "anonymous": false,
          "inputs": [
            {
              "indexed": false,
              "internalType": "address",
              "name": "oldAdmin",
              "type": "address"
            },
            {
              "indexed": false,
              "internalType": "address",
              "name": "newAdmin",
              "type": "address"
            }
          ],
          "name": "NewAdmin",
          "type": "event"
        },
        {
          "anonymous": false,
          "inputs": [
            {
              "indexed": false,
              "internalType": "address",
              "name": "oldImplementation",
              "type": "address"
            },
            {
              "indexed": false,
              "internalType": "address",
              "name": "newImplementation",
              "type": "address"
            }
          ],
          "name": "NewImplementation",
          "type": "event"
        },
        {
          "anonymous": false,
          "inputs": [
            {
              "indexed": false,
              "internalType": "address",
              "name": "oldPendingAdmin",
              "type": "address"
            },
            {
              "indexed": false,
              "internalType": "address",
              "name": "newPendingAdmin",
              "type": "address"
            }
          ],
          "name": "NewPendingAdmin",
          "type": "event"
        },
        {
          "anonymous": false,
          "inputs": [
            {
              "indexed": false,
              "internalType": "uint256",
              "name": "id",
              "type": "uint256"
            }
          ],
          "name": "ProposalCanceled",
          "type": "event"
        },
        {
          "anonymous": false,
          "inputs": [
            {
              "indexed": false,
              "internalType": "uint256",
              "name": "id",
              "type": "uint256"
            },
            {
              "indexed": false,
              "internalType": "address",
              "name": "proposer",
              "type": "address"
            },
            {
              "indexed": false,
              "internalType": "address[]",
              "name": "targets",
              "type": "address[]"
            },
            {
              "indexed": false,
              "internalType": "uint256[]",
              "name": "values",
              "type": "uint256[]"
            },
            {
              "indexed": false,
              "internalType": "string[]",
              "name": "signatures",
              "type": "string[]"
            },
            {
              "indexed": false,
              "internalType": "bytes[]",
              "name": "calldatas",
              "type": "bytes[]"
            },
            {
              "indexed": false,
              "internalType": "uint256",
              "name": "startBlock",
              "type": "uint256"
            },
            {
              "indexed": false,
              "internalType": "uint256",
              "name": "endBlock",
              "type": "uint256"
            },
            {
              "indexed": false,
              "internalType": "string",
              "name": "description",
              "type": "string"
            }
          ],
          "name": "ProposalCreated",
          "type": "event"
        },
        {
          "anonymous": false,
          "inputs": [
            {
              "indexed": false,
              "internalType": "uint256",
              "name": "id",
              "type": "uint256"
            }
          ],
          "name": "ProposalExecuted",
          "type": "event"
        },
        {
          "anonymous": false,
          "inputs": [
            {
              "indexed": false,
              "internalType": "uint256",
              "name": "id",
              "type": "uint256"
            },
            {
              "indexed": false,
              "internalType": "uint256",
              "name": "eta",
              "type": "uint256"
            }
          ],
          "name": "ProposalQueued",
          "type": "event"
        },
        {
          "anonymous": false,
          "inputs": [
            {
              "indexed": false,
              "internalType": "uint256",
              "name": "oldProposalThreshold",
              "type": "uint256"
            },
            {
              "indexed": false,
              "internalType": "uint256",
              "name": "newProposalThreshold",
              "type": "uint256"
            }
          ],
          "name": "ProposalThresholdSet",
          "type": "event"
        },
        {
          "anonymous": false,
          "inputs": [
            {
              "indexed": true,
              "internalType": "address",
              "name": "voter",
              "type": "address"
            },
            {
              "indexed": false,
              "internalType": "uint256",
              "name": "proposalId",
              "type": "uint256"
            },
            {
              "indexed": false,
              "internalType": "uint8",
              "name": "support",
              "type": "uint8"
            },
            {
              "indexed": false,
              "internalType": "uint256",
              "name": "votes",
              "type": "uint256"
            },
            {
              "indexed": false,
              "internalType": "string",
              "name": "reason",
              "type": "string"
            }
          ],
          "name": "VoteCast",
          "type": "event"
        },
        {
          "anonymous": false,
          "inputs": [
            {
              "indexed": false,
              "internalType": "uint256",
              "name": "oldVotingDelay",
              "type": "uint256"
            },
            {
              "indexed": false,
              "internalType": "uint256",
              "name": "newVotingDelay",
              "type": "uint256"
            }
          ],
          "name": "VotingDelaySet",
          "type": "event"
        },
        {
          "anonymous": false,
          "inputs": [
            {
              "indexed": false,
              "internalType": "uint256",
              "name": "oldVotingPeriod",
              "type": "uint256"
            },
            {
              "indexed": false,
              "internalType": "uint256",
              "name": "newVotingPeriod",
              "type": "uint256"
            }
          ],
          "name": "VotingPeriodSet",
          "type": "event"
        },
        {
          "inputs": [],
          "name": "BALLOT_TYPEHASH",
          "outputs": [
            {
              "internalType": "bytes32",
              "name": "",
              "type": "bytes32"
            }
          ],
          "stateMutability": "view",
          "type": "function"
        },
        {
          "inputs": [],
          "name": "DOMAIN_TYPEHASH",
          "outputs": [
            {
              "internalType": "bytes32",
              "name": "",
              "type": "bytes32"
            }
          ],
          "stateMutability": "view",
          "type": "function"
        },
        {
          "inputs": [],
          "name": "MAX_PROPOSAL_THRESHOLD",
          "outputs": [
            {
              "internalType": "uint256",
              "name": "",
              "type": "uint256"
            }
          ],
          "stateMutability": "view",
          "type": "function"
        },
        {
          "inputs": [],
          "name": "MAX_VOTING_DELAY",
          "outputs": [
            {
              "internalType": "uint256",
              "name": "",
              "type": "uint256"
            }
          ],
          "stateMutability": "view",
          "type": "function"
        },
        {
          "inputs": [],
          "name": "MAX_VOTING_PERIOD",
          "outputs": [
            {
              "internalType": "uint256",
              "name": "",
              "type": "uint256"
            }
          ],
          "stateMutability": "view",
          "type": "function"
        },
        {
          "inputs": [],
          "name": "MIN_PROPOSAL_THRESHOLD",
          "outputs": [
            {
              "internalType": "uint256",
              "name": "",
              "type": "uint256"
            }
          ],
          "stateMutability": "view",
          "type": "function"
        },
        {
          "inputs": [],
          "name": "MIN_VOTING_DELAY",
          "outputs": [
            {
              "internalType": "uint256",
              "name": "",
              "type": "uint256"
            }
          ],
          "stateMutability": "view",
          "type": "function"
        },
        {
          "inputs": [],
          "name": "MIN_VOTING_PERIOD",
          "outputs": [
            {
              "internalType": "uint256",
              "name": "",
              "type": "uint256"
            }
          ],
          "stateMutability": "view",
          "type": "function"
        },
        {
          "inputs": [],
          "name": "_acceptAdmin",
          "outputs": [],
          "stateMutability": "nonpayable",
          "type": "function"
        },
        {
          "inputs": [
            {
              "internalType": "address",
              "name": "newPendingAdmin",
              "type": "address"
            }
          ],
          "name": "_setPendingAdmin",
          "outputs": [],
          "stateMutability": "nonpayable",
          "type": "function"
        },
        {
          "inputs": [
            {
              "internalType": "uint256",
              "name": "newProposalThreshold",
              "type": "uint256"
            }
          ],
          "name": "_setProposalThreshold",
          "outputs": [],
          "stateMutability": "nonpayable",
          "type": "function"
        },
        {
          "inputs": [
            {
              "internalType": "uint256",
              "name": "newVotingDelay",
              "type": "uint256"
            }
          ],
          "name": "_setVotingDelay",
          "outputs": [],
          "stateMutability": "nonpayable",
          "type": "function"
        },
        {
          "inputs": [
            {
              "internalType": "uint256",
              "name": "newVotingPeriod",
              "type": "uint256"
            }
          ],
          "name": "_setVotingPeriod",
          "outputs": [],
          "stateMutability": "nonpayable",
          "type": "function"
        },
        {
          "inputs": [],
          "name": "admin",
          "outputs": [
            {
              "internalType": "address",
              "name": "",
              "type": "address"
            }
          ],
          "stateMutability": "view",
          "type": "function"
        },
        {
          "inputs": [
            {
              "internalType": "uint256",
              "name": "proposalId",
              "type": "uint256"
            }
          ],
          "name": "cancel",
          "outputs": [],
          "stateMutability": "nonpayable",
          "type": "function"
        },
        {
          "inputs": [
            {
              "internalType": "uint256",
              "name": "proposalId",
              "type": "uint256"
            },
            {
              "internalType": "uint8",
              "name": "support",
              "type": "uint8"
            }
          ],
          "name": "castVote",
          "outputs": [],
          "stateMutability": "nonpayable",
          "type": "function"
        },
        {
          "inputs": [
            {
              "internalType": "uint256",
              "name": "proposalId",
              "type": "uint256"
            },
            {
              "internalType": "uint8",
              "name": "support",
              "type": "uint8"
            },
            {
              "internalType": "uint8",
              "name": "v",
              "type": "uint8"
            },
            {
              "internalType": "bytes32",
              "name": "r",
              "type": "bytes32"
            },
            {
              "internalType": "bytes32",
              "name": "s",
              "type": "bytes32"
            }
          ],
          "name": "castVoteBySig",
          "outputs": [],
          "stateMutability": "nonpayable",
          "type": "function"
        },
        {
          "inputs": [
            {
              "internalType": "uint256",
              "name": "proposalId",
              "type": "uint256"
            },
            {
              "internalType": "uint8",
              "name": "support",
              "type": "uint8"
            },
            {
              "internalType": "string",
              "name": "reason",
              "type": "string"
            }
          ],
          "name": "castVoteWithReason",
          "outputs": [],
          "stateMutability": "nonpayable",
          "type": "function"
        },
        {
          "inputs": [
            {
              "internalType": "uint256",
              "name": "proposalId",
              "type": "uint256"
            }
          ],
          "name": "execute",
          "outputs": [],
          "stateMutability": "payable",
          "type": "function"
        },
        {
          "inputs": [
            {
              "internalType": "uint256",
              "name": "proposalId",
              "type": "uint256"
            }
          ],
          "name": "getActions",
          "outputs": [
            {
              "internalType": "address[]",
              "name": "targets",
              "type": "address[]"
            },
            {
              "internalType": "uint256[]",
              "name": "values",
              "type": "uint256[]"
            },
            {
              "internalType": "string[]",
              "name": "signatures",
              "type": "string[]"
            },
            {
              "internalType": "bytes[]",
              "name": "calldatas",
              "type": "bytes[]"
            }
          ],
          "stateMutability": "view",
          "type": "function"
        },
        {
          "inputs": [
            {
              "internalType": "uint256",
              "name": "proposalId",
              "type": "uint256"
            },
            {
              "internalType": "address",
              "name": "voter",
              "type": "address"
            }
          ],
          "name": "getReceipt",
          "outputs": [
            {
              "components": [
                {
                  "internalType": "bool",
                  "name": "hasVoted",
                  "type": "bool"
                },
                {
                  "internalType": "uint8",
                  "name": "support",
                  "type": "uint8"
                },
                {
                  "internalType": "uint96",
                  "name": "votes",
                  "type": "uint96"
                }
              ],
              "internalType": "struct GovernorBravoDelegateStorageV1.Receipt",
              "name": "",
              "type": "tuple"
            }
          ],
          "stateMutability": "view",
          "type": "function"
        },
        {
          "inputs": [],
          "name": "governanceToken",
          "outputs": [
            {
              "internalType": "contract GovernanceTokenInterface",
              "name": "",
              "type": "address"
            }
          ],
          "stateMutability": "view",
          "type": "function"
        },
        {
          "inputs": [],
          "name": "implementation",
          "outputs": [
            {
              "internalType": "address",
              "name": "",
              "type": "address"
            }
          ],
          "stateMutability": "view",
          "type": "function"
        },
        {
          "inputs": [
            {
              "internalType": "address",
              "name": "timelock_",
              "type": "address"
            },
            {
              "internalType": "address",
              "name": "governanceToken_",
              "type": "address"
            },
            {
              "internalType": "uint256",
              "name": "votingPeriod_",
              "type": "uint256"
            },
            {
              "internalType": "uint256",
              "name": "votingDelay_",
              "type": "uint256"
            },
            {
              "internalType": "uint256",
              "name": "proposalThreshold_",
              "type": "uint256"
            }
          ],
          "name": "initialize",
          "outputs": [],
          "stateMutability": "nonpayable",
          "type": "function"
        },
        {
          "inputs": [
            {
              "internalType": "address",
              "name": "",
              "type": "address"
            }
          ],
          "name": "latestProposalIds",
          "outputs": [
            {
              "internalType": "uint256",
              "name": "",
              "type": "uint256"
            }
          ],
          "stateMutability": "view",
          "type": "function"
        },
        {
          "inputs": [],
          "name": "name",
          "outputs": [
            {
              "internalType": "string",
              "name": "",
              "type": "string"
            }
          ],
          "stateMutability": "view",
          "type": "function"
        },
        {
          "inputs": [],
          "name": "pendingAdmin",
          "outputs": [
            {
              "internalType": "address",
              "name": "",
              "type": "address"
            }
          ],
          "stateMutability": "view",
          "type": "function"
        },
        {
          "inputs": [],
          "name": "proposalCount",
          "outputs": [
            {
              "internalType": "uint256",
              "name": "",
              "type": "uint256"
            }
          ],
          "stateMutability": "view",
          "type": "function"
        },
        {
          "inputs": [],
          "name": "proposalMaxOperations",
          "outputs": [
            {
              "internalType": "uint256",
              "name": "",
              "type": "uint256"
            }
          ],
          "stateMutability": "view",
          "type": "function"
        },
        {
          "inputs": [],
          "name": "proposalThreshold",
          "outputs": [
            {
              "internalType": "uint256",
              "name": "",
              "type": "uint256"
            }
          ],
          "stateMutability": "view",
          "type": "function"
        },
        {
          "inputs": [
            {
              "internalType": "uint256",
              "name": "",
              "type": "uint256"
            }
          ],
          "name": "proposals",
          "outputs": [
            {
              "internalType": "uint256",
              "name": "id",
              "type": "uint256"
            },
            {
              "internalType": "address",
              "name": "proposer",
              "type": "address"
            },
            {
              "internalType": "uint256",
              "name": "eta",
              "type": "uint256"
            },
            {
              "internalType": "uint256",
              "name": "startBlock",
              "type": "uint256"
            },
            {
              "internalType": "uint256",
              "name": "endBlock",
              "type": "uint256"
            },
            {
              "internalType": "uint256",
              "name": "forVotes",
              "type": "uint256"
            },
            {
              "internalType": "uint256",
              "name": "againstVotes",
              "type": "uint256"
            },
            {
              "internalType": "uint256",
              "name": "abstainVotes",
              "type": "uint256"
            },
            {
              "internalType": "bool",
              "name": "canceled",
              "type": "bool"
            },
            {
              "internalType": "bool",
              "name": "executed",
              "type": "bool"
            }
          ],
          "stateMutability": "view",
          "type": "function"
        },
        {
          "inputs": [
            {
              "internalType": "address[]",
              "name": "targets",
              "type": "address[]"
            },
            {
              "internalType": "uint256[]",
              "name": "values",
              "type": "uint256[]"
            },
            {
              "internalType": "string[]",
              "name": "signatures",
              "type": "string[]"
            },
            {
              "internalType": "bytes[]",
              "name": "calldatas",
              "type": "bytes[]"
            },
            {
              "internalType": "string",
              "name": "description",
              "type": "string"
            }
          ],
          "name": "propose",
          "outputs": [
            {
              "internalType": "uint256",
              "name": "",
              "type": "uint256"
            }
          ],
          "stateMutability": "nonpayable",
          "type": "function"
        },
        {
          "inputs": [
            {
              "internalType": "uint256",
              "name": "proposalId",
              "type": "uint256"
            }
          ],
          "name": "queue",
          "outputs": [],
          "stateMutability": "nonpayable",
          "type": "function"
        },
        {
          "inputs": [],
          "name": "quorumVotes",
          "outputs": [
            {
              "internalType": "uint256",
              "name": "",
              "type": "uint256"
            }
          ],
          "stateMutability": "view",
          "type": "function"
        },
        {
          "inputs": [
            {
              "internalType": "uint256",
              "name": "proposalId",
              "type": "uint256"
            }
          ],
          "name": "state",
          "outputs": [
            {
              "internalType": "enum GovernorBravoDelegateStorageV1.ProposalState",
              "name": "",
              "type": "uint8"
            }
          ],
          "stateMutability": "view",
          "type": "function"
        },
        {
          "inputs": [],
          "name": "timelock",
          "outputs": [
            {
              "internalType": "contract TimelockInterface",
              "name": "",
              "type": "address"
            }
          ],
          "stateMutability": "view",
          "type": "function"
        },
        {
          "inputs": [],
          "name": "votingDelay",
          "outputs": [
            {
              "internalType": "uint256",
              "name": "",
              "type": "uint256"
            }
          ],
          "stateMutability": "view",
          "type": "function"
        },
        {
          "inputs": [],
          "name": "votingPeriod",
          "outputs": [
            {
              "internalType": "uint256",
              "name": "",
              "type": "uint256"
            }
          ],
          "stateMutability": "view",
          "type": "function"
        }
      ],
      "evm": {
        "bytecode": {
          "linkReferences": {},
          "object": "608060405234801561001057600080fd5b506138e9806100206000396000f3fe6080604052600436106102255760003560e01c8063791f5d2311610123578063da35c664116100ab578063e48083fe1161006f578063e48083fe146107e6578063e9c714f2146107fb578063f851a44014610810578063f96dae0a14610830578063fe0d94c11461085057600080fd5b8063da35c66414610692578063da95691a146106a8578063ddf0b009146106c8578063deaaa7cc146106e8578063e23a9a521461071c57600080fd5b8063b1126263116100f2578063b112626314610606578063b58131b01461061c578063b71d1a0c14610632578063d13f90b414610652578063d33219b41461067257600080fd5b8063791f5d231461059b5780637b3c71d3146105ba5780637bdbe4d0146105da578063a64e024a146105ef57600080fd5b806324bc1a64116101b15780633bccf4fd116101755780633bccf4fd146104ee5780633e4f49e61461050e57806340e58ee51461053b578063567813881461055b5780635c60da1b1461057b57600080fd5b806324bc1a641461045157806325fd935a146104515780632678224714610470578063328dd982146104a85780633932abb1146104d857600080fd5b806317977c61116101f857806317977c611461039a57806317ba1b8b146103c75780631dfb1b5a146103e757806320606b7014610407578063215809ca1461043b57600080fd5b8063013cf08b1461022a57806302a251a31461030257806306fdde03146103265780630ea2d98c14610378575b600080fd5b34801561023657600080fd5b506102a7610245366004613213565b60096020819052600091825260409091208054600182015460028301546007840154600885015495850154600a860154600b870154600c9097015495976001600160a01b03909516969395929493919290919060ff808216916101009004168a565b604080519a8b526001600160a01b0390991660208b0152978901969096526060880194909452608087019290925260a086015260c085015260e084015215156101008301521515610120820152610140015b60405180910390f35b34801561030e57600080fd5b5061031860045481565b6040519081526020016102f9565b34801561033257600080fd5b5061036b604051806040016040528060198152602001784465466948656c70657220476f7665726e6f7220427261766f60381b81525081565b6040516102f99190613614565b34801561038457600080fd5b50610398610393366004613213565b610863565b005b3480156103a657600080fd5b506103186103b5366004613027565b600a6020526000908152604090205481565b3480156103d357600080fd5b506103986103e2366004613213565b61099c565b3480156103f357600080fd5b50610398610402366004613213565b610ae7565b34801561041357600080fd5b506103187f8cad95687ba82c2ce50e74f7b754645e5117c3a5bec8151c0726d5857980a86681565b34801561044757600080fd5b5061031861168081565b34801561045d57600080fd5b506103186a211654585005212800000081565b34801561047c57600080fd5b50600154610490906001600160a01b031681565b6040516001600160a01b0390911681526020016102f9565b3480156104b457600080fd5b506104c86104c3366004613213565b610c0e565b6040516102f99493929190613594565b3480156104e457600080fd5b5061031860035481565b3480156104fa57600080fd5b50610398610509366004613302565b610e9f565b34801561051a57600080fd5b5061052e610529366004613213565b61111e565b6040516102f991906135ec565b34801561054757600080fd5b50610398610556366004613213565b6112e3565b34801561056757600080fd5b50610398610576366004613258565b611602565b34801561058757600080fd5b50600254610490906001600160a01b031681565b3480156105a757600080fd5b506103186a027b46536c66c8e300000081565b3480156105c657600080fd5b506103986105d536600461327b565b61166d565b3480156105e657600080fd5b50610318600a81565b3480156105fb57600080fd5b5061031862013b0081565b34801561061257600080fd5b50610318619d8081565b34801561062857600080fd5b5061031860055481565b34801561063e57600080fd5b5061039861064d366004613027565b6116bd565b34801561065e57600080fd5b5061039861066d366004613042565b611784565b34801561067e57600080fd5b50600754610490906001600160a01b031681565b34801561069e57600080fd5b5061031860065481565b3480156106b457600080fd5b506103186106c336600461308f565b611a59565b3480156106d457600080fd5b506103986106e3366004613213565b611fc6565b3480156106f457600080fd5b506103187f150214d74d59b7d1e90c73fc22ef3d991dd0a76b046543d4d80ab92d2a50328f81565b34801561072857600080fd5b506107b661073736600461322c565b60408051606081018252600080825260208201819052918101919091525060009182526009602090815260408084206001600160a01b03939093168452600d9092018152918190208151606081018352905460ff8082161515835261010082041693820193909352620100009092046001600160601b03169082015290565b6040805182511515815260208084015160ff1690820152918101516001600160601b0316908201526060016102f9565b3480156107f257600080fd5b50610318600181565b34801561080757600080fd5b50610398612307565b34801561081c57600080fd5b50600054610490906001600160a01b031681565b34801561083c57600080fd5b50600854610490906001600160a01b031681565b61039861085e366004613213565b612431565b6000546001600160a01b031633146108d65760405162461bcd60e51b815260206004820152602b60248201527f476f7665726e6f72427261766f3a3a5f736574566f74696e67506572696f643a60448201526a2061646d696e206f6e6c7960a81b60648201526084015b60405180910390fd5b61168081101580156108eb575062013b008111155b6109565760405162461bcd60e51b815260206004820152603660248201527f476f7665726e6f72427261766f3a3a5f736574566f74696e67506572696f643a604482015275081a5b9d985b1a59081d9bdd1a5b99c81c195c9a5bd960521b60648201526084016108cd565b600480549082905560408051828152602081018490527f7e3f7f0708a84de9203036abaa450dccc85ad5ff52f78c170f3edb55cf5e882891015b60405180910390a15050565b6000546001600160a01b03163314610a0f5760405162461bcd60e51b815260206004820152603060248201527f476f7665726e6f72427261766f3a3a5f73657450726f706f73616c546872657360448201526f686f6c643a2061646d696e206f6e6c7960801b60648201526084016108cd565b6a027b46536c66c8e30000008110158015610a3557506a21165458500521280000008111155b610aa9576040805162461bcd60e51b81526020600482015260248101919091527f476f7665726e6f72427261766f3a3a5f73657450726f706f73616c546872657360448201527f686f6c643a20696e76616c69642070726f706f73616c207468726573686f6c6460648201526084016108cd565b600580549082905560408051828152602081018490527fccb45da8d5717e6c4544694297c4ba5cf151d455c9bb0ed4fc7a38411bc054619101610990565b6000546001600160a01b03163314610b545760405162461bcd60e51b815260206004820152602a60248201527f476f7665726e6f72427261766f3a3a5f736574566f74696e6744656c61793a2060448201526961646d696e206f6e6c7960b01b60648201526084016108cd565b60018110158015610b675750619d808111155b610bd05760405162461bcd60e51b815260206004820152603460248201527f476f7665726e6f72427261766f3a3a5f736574566f74696e6744656c61793a20604482015273696e76616c696420766f74696e672064656c617960601b60648201526084016108cd565b600380549082905560408051828152602081018490527fc565b045403dc03c2eea82b81a0465edad9e2e7fc4d97e11421c209da93d7a939101610990565b60608060608060006009600087815260200190815260200160002090508060030181600401826005018360060183805480602002602001604051908101604052809291908181526020018280548015610c9057602002820191906000526020600020905b81546001600160a01b03168152600190910190602001808311610c72575b5050505050935082805480602002602001604051908101604052809291908181526020018280548015610ce257602002820191906000526020600020905b815481526020019060010190808311610cce575b5050505050925081805480602002602001604051908101604052809291908181526020016000905b82821015610db6578382906000526020600020018054610d29906137eb565b80601f0160208091040260200160405190810160405280929190818152602001828054610d55906137eb565b8015610da25780601f10610d7757610100808354040283529160200191610da2565b820191906000526020600020905b815481529060010190602001808311610d8557829003601f168201915b505050505081526020019060010190610d0a565b50505050915080805480602002602001604051908101604052809291908181526020016000905b82821015610e89578382906000526020600020018054610dfc906137eb565b80601f0160208091040260200160405190810160405280929190818152602001828054610e28906137eb565b8015610e755780601f10610e4a57610100808354040283529160200191610e75565b820191906000526020600020905b815481529060010190602001808311610e5857829003601f168201915b505050505081526020019060010190610ddd565b5050505090509450945094509450509193509193565b60408051808201825260198152784465466948656c70657220476f7665726e6f7220427261766f60381b60209182015281517f8cad95687ba82c2ce50e74f7b754645e5117c3a5bec8151c0726d5857980a866818301527fa23ea4f8575d811f6bf655653606c6de379b4d56d6b8542b06793571d8fb999181840152466060820152306080808301919091528351808303909101815260a0820184528051908301207f150214d74d59b7d1e90c73fc22ef3d991dd0a76b046543d4d80ab92d2a50328f60c083015260e0820189905260ff8816610100808401919091528451808403909101815261012083019094528351939092019290922061190160f01b6101408401526101428301829052610162830181905290916000906101820160408051601f198184030181528282528051602091820120600080855291840180845281905260ff8a169284019290925260608301889052608083018790529092509060019060a0016020604051602081039080840390855afa158015611028573d6000803e3d6000fd5b5050604051601f1901519150506001600160a01b0381166110a35760405162461bcd60e51b815260206004820152602f60248201527f476f7665726e6f72427261766f3a3a63617374566f746542795369673a20696e60448201526e76616c6964207369676e617475726560881b60648201526084016108cd565b806001600160a01b03167fb8e138887d0aa13bab447e82de9d5c1777041ecd21ca36ba824ff1e6c07ddda48a8a6110db858e8e61267d565b6040805193845260ff90921660208401526001600160601b03169082015260806060820181905260009082015260a00160405180910390a2505050505050505050565b60008160065410156111845760405162461bcd60e51b815260206004820152602960248201527f476f7665726e6f72427261766f3a3a73746174653a20696e76616c69642070726044820152681bdc1bdcd85b081a5960ba1b60648201526084016108cd565b6000828152600960205260409020600c81015460ff16156111a85750600292915050565b806007015443116111bc5750600092915050565b806008015443116111d05750600192915050565b80600a015481600901541115806111f557506a21165458500521280000008160090154105b156112035750600392915050565b60028101546112155750600492915050565b600c810154610100900460ff16156112305750600792915050565b600760009054906101000a90046001600160a01b03166001600160a01b031663c1a287e26040518163ffffffff1660e01b815260040160206040518083038186803b15801561127e57600080fd5b505afa158015611292573d6000803e3d6000fd5b505050506040513d601f19601f820116820180604052508101906112b69190613183565b81600201546112c5919061378c565b42106112d45750600692915050565b50600592915050565b50919050565b60076112ee8261111e565b60078111156112ff576112ff613851565b141561136c5760405162461bcd60e51b815260206004820152603660248201527f476f7665726e6f72427261766f3a3a63616e63656c3a2063616e6e6f742063616044820152751b98d95b08195e1958dd5d1959081c1c9bdc1bdcd85b60521b60648201526084016108cd565b600081815260096020526040902060018101546001600160a01b031633148061144257506005546008546001838101546001600160a01b039283169263782d6fe1929116906113bb90436137a4565b6040516001600160e01b031960e085901b1681526001600160a01b039092166004830152602482015260440160206040518083038186803b1580156113ff57600080fd5b505afa158015611413573d6000803e3d6000fd5b505050506040513d601f19601f820116820180604052508101906114379190613350565b6001600160601b0316105b6114a65760405162461bcd60e51b815260206004820152602f60248201527f476f7665726e6f72427261766f3a3a63616e63656c3a2070726f706f7365722060448201526e18589bdd99481d1a1c995cda1bdb19608a1b60648201526084016108cd565b600c8101805460ff1916600117905560005b60038201548110156115d1576007546003830180546001600160a01b039092169163591fcdfe9190849081106114f0576114f0613867565b6000918252602090912001546004850180546001600160a01b03909216918590811061151e5761151e613867565b906000526020600020015485600501858154811061153e5761153e613867565b9060005260206000200186600601868154811061155d5761155d613867565b9060005260206000200187600201546040518663ffffffff1660e01b815260040161158c95949392919061355b565b600060405180830381600087803b1580156115a657600080fd5b505af11580156115ba573d6000803e3d6000fd5b5050505080806115c990613820565b9150506114b8565b506040518281527f789cf55be980739dad1d0699b93b58e806b51c9d96619bfa8fe0a28abaa7b30c90602001610990565b337fb8e138887d0aa13bab447e82de9d5c1777041ecd21ca36ba824ff1e6c07ddda4838361163184838361267d565b6040805193845260ff90921660208401526001600160601b03169082015260806060820181905260009082015260a00160405180910390a25050565b337fb8e138887d0aa13bab447e82de9d5c1777041ecd21ca36ba824ff1e6c07ddda4858561169c84838361267d565b86866040516116af9594939291906136bf565b60405180910390a250505050565b6000546001600160a01b0316331461172a5760405162461bcd60e51b815260206004820152602a60248201527f476f7665726e6f72427261766f3a5f73657450656e64696e6741646d696e3a2060448201526961646d696e206f6e6c7960b01b60648201526084016108cd565b600180546001600160a01b038381166001600160a01b031983168117909355604080519190921680825260208201939093527fca4f2f25d0898edd99413412fb94012f9e54ec8142f9b093e7720646a95b16a99101610990565b6007546001600160a01b0316156117f95760405162461bcd60e51b815260206004820152603360248201527f476f7665726e6f72427261766f3a3a696e697469616c697a653a2063616e206f6044820152726e6c7920696e697469616c697a65206f6e636560681b60648201526084016108cd565b6001600160a01b0385166118595760405162461bcd60e51b8152602060048201526033602482015260008051602061389483398151915260448201527269642074696d656c6f636b206164647265737360681b60648201526084016108cd565b6001600160a01b0384166118c35760405162461bcd60e51b815260206004820152603b602482015260008051602061389483398151915260448201527f696420676f7665726e616e636520746f6b656e2061646472657373000000000060648201526084016108cd565b61168083101580156118d8575062013b008311155b61192b5760405162461bcd60e51b8152602060048201526030602482015260008051602061389483398151915260448201526f1a59081d9bdd1a5b99c81c195c9a5bd960821b60648201526084016108cd565b6001821015801561193e5750619d808211155b6119905760405162461bcd60e51b815260206004820152602f602482015260008051602061389483398151915260448201526e696420766f74696e672064656c617960881b60648201526084016108cd565b6a027b46536c66c8e300000081101580156119b657506a21165458500521280000008111155b611a0e5760405162461bcd60e51b815260206004820152603560248201526000805160206138948339815191526044820152741a59081c1c9bdc1bdcd85b081d1a1c995cda1bdb19605a1b60648201526084016108cd565b600080546001600160a01b039687166001600160a01b031991821681179092556007805482169092179091556008805495909616941693909317909355600455600391909155600555565b600554600854600091906001600160a01b031663782d6fe133611a7d6001436137a4565b6040516001600160e01b031960e085901b1681526001600160a01b039092166004830152602482015260440160206040518083038186803b158015611ac157600080fd5b505afa158015611ad5573d6000803e3d6000fd5b505050506040513d601f19601f82011682018060405250810190611af99190613350565b6001600160601b031611611b755760405162461bcd60e51b815260206004820152603f60248201527f476f7665726e6f72427261766f3a3a70726f706f73653a2070726f706f73657260448201527f20766f7465732062656c6f772070726f706f73616c207468726573686f6c640060648201526084016108cd565b84518651148015611b87575083518651145b8015611b94575082518651145b611c145760405162461bcd60e51b8152602060048201526044602482018190527f476f7665726e6f72427261766f3a3a70726f706f73653a2070726f706f73616c908201527f2066756e6374696f6e20696e666f726d6174696f6e206172697479206d69736d6064820152630c2e8c6d60e31b608482015260a4016108cd565b8551611c775760405162461bcd60e51b815260206004820152602c60248201527f476f7665726e6f72427261766f3a3a70726f706f73653a206d7573742070726f60448201526b7669646520616374696f6e7360a01b60648201526084016108cd565b600a86511115611cda5760405162461bcd60e51b815260206004820152602860248201527f476f7665726e6f72427261766f3a3a70726f706f73653a20746f6f206d616e7960448201526720616374696f6e7360c01b60648201526084016108cd565b336000908152600a60205260409020548015611e5b576000611cfb8261111e565b90506001816007811115611d1157611d11613851565b1415611dab5760405162461bcd60e51b815260206004820152605860248201527f476f7665726e6f72427261766f3a3a70726f706f73653a206f6e65206c69766560448201527f2070726f706f73616c207065722070726f706f7365722c20666f756e6420616e60648201527f20616c7265616479206163746976652070726f706f73616c0000000000000000608482015260a4016108cd565b6000816007811115611dbf57611dbf613851565b1415611e595760405162461bcd60e51b815260206004820152605960248201527f476f7665726e6f72427261766f3a3a70726f706f73653a206f6e65206c69766560448201527f2070726f706f73616c207065722070726f706f7365722c20666f756e6420616e60648201527f20616c72656164792070656e64696e672070726f706f73616c00000000000000608482015260a4016108cd565b505b600060035443611e6b919061378c565b9050600060045482611e7d919061378c565b600680549192506000611e8f83613820565b909155505060065460008181526009602090815260409091209182556001820180546001600160a01b031916331790558a51611ed3916003840191908d0190612b46565b508851611ee990600483019060208c0190612bab565b508751611eff90600583019060208b0190612be6565b508651611f1590600683019060208a0190612c3f565b508281600701819055508181600801819055508060000154600a60008360010160009054906101000a90046001600160a01b03166001600160a01b03166001600160a01b03168152602001908152602001600020819055507f7d84a6263ae0d98d3329bd7b46bb4e8d6f98cd35a7adb45c274c8b7fd5ebd5e08160000154338c8c8c8c89898e604051611fb099989796959493929190613627565b60405180910390a1549998505050505050505050565b6004611fd18261111e565b6007811115611fe257611fe2613851565b146120635760405162461bcd60e51b8152602060048201526044602482018190527f476f7665726e6f72427261766f3a3a71756575653a2070726f706f73616c2063908201527f616e206f6e6c79206265207175657565642069662069742069732073756363656064820152631959195960e21b608482015260a4016108cd565b60008181526009602090815260408083206007548251630d48571f60e31b815292519194936001600160a01b0390911692636a42b8f89260048083019392829003018186803b1580156120b557600080fd5b505afa1580156120c9573d6000803e3d6000fd5b505050506040513d601f19601f820116820180604052508101906120ed9190613183565b6120f7904261378c565b905060005b60038301548110156122c1576122af83600301828154811061212057612120613867565b6000918252602090912001546004850180546001600160a01b03909216918490811061214e5761214e613867565b906000526020600020015485600501848154811061216e5761216e613867565b906000526020600020018054612183906137eb565b80601f01602080910402602001604051908101604052809291908181526020018280546121af906137eb565b80156121fc5780601f106121d1576101008083540402835291602001916121fc565b820191906000526020600020905b8154815290600101906020018083116121df57829003601f168201915b505050505086600601858154811061221657612216613867565b90600052602060002001805461222b906137eb565b80601f0160208091040260200160405190810160405280929190818152602001828054612257906137eb565b80156122a45780601f10612279576101008083540402835291602001916122a4565b820191906000526020600020905b81548152906001019060200180831161228757829003601f168201915b505050505086612971565b806122b981613820565b9150506120fc565b506002820181905560408051848152602081018390527f9a2e42fd6722813d69113e7d0079d3d940171428df7373df9c7f7617cfda2892910160405180910390a1505050565b6001546001600160a01b03163314801561232057503315155b6123835760405162461bcd60e51b815260206004820152602e60248201527f476f7665726e6f72427261766f3a5f61636365707441646d696e3a2070656e6460448201526d696e672061646d696e206f6e6c7960901b60648201526084016108cd565b60008054600180546001600160a01b038082166001600160a01b031980861682179096559490911690915560408051919092168082526020820184905292917ff9ffabca9c8276e99321725bcb43fb076a6c66a54b7f21c4e8146d8519b417dc910160405180910390a1600154604080516001600160a01b03808516825290921660208301527fca4f2f25d0898edd99413412fb94012f9e54ec8142f9b093e7720646a95b16a99101610990565b600561243c8261111e565b600781111561244d5761244d613851565b146124ce5760405162461bcd60e51b815260206004820152604560248201527f476f7665726e6f72427261766f3a3a657865637574653a2070726f706f73616c60448201527f2063616e206f6e6c7920626520657865637574656420696620697420697320716064820152641d595d595960da1b608482015260a4016108cd565b6000818152600960205260408120600c8101805461ff001916610100179055905b600382015481101561264c576007546004830180546001600160a01b0390921691630825f38f91908490811061252757612527613867565b906000526020600020015484600301848154811061254757612547613867565b6000918252602090912001546004860180546001600160a01b03909216918690811061257557612575613867565b906000526020600020015486600501868154811061259557612595613867565b906000526020600020018760060187815481106125b4576125b4613867565b9060005260206000200188600201546040518763ffffffff1660e01b81526004016125e395949392919061355b565b6000604051808303818588803b1580156125fc57600080fd5b505af1158015612610573d6000803e3d6000fd5b50505050506040513d6000823e601f3d908101601f19168201604052612639919081019061319c565b508061264481613820565b9150506124ef565b506040518281527f712ae1383f79ac853f8d882153778e0260ef8f03b504e2866e0593e04d2b291f90602001610990565b6000600161268a8461111e565b600781111561269b5761269b613851565b146127025760405162461bcd60e51b815260206004820152603160248201527f476f7665726e6f72427261766f3a3a63617374566f7465496e7465726e616c3a604482015270081d9bdd1a5b99c81a5cc818db1bdcd959607a1b60648201526084016108cd565b60028260ff1611156127715760405162461bcd60e51b815260206004820152603260248201527f476f7665726e6f72427261766f3a3a63617374566f7465496e7465726e616c3a60448201527120696e76616c696420766f7465207479706560701b60648201526084016108cd565b60008381526009602090815260408083206001600160a01b0388168452600d8101909252909120805460ff16156128075760405162461bcd60e51b815260206004820152603460248201527f476f7665726e6f72427261766f3a3a63617374566f7465496e7465726e616c3a604482015273081d9bdd195c88185b1c9958591e481d9bdd195960621b60648201526084016108cd565b600854600783015460405163782d6fe160e01b81526000926001600160a01b03169163782d6fe191612851918b916004016001600160a01b03929092168252602082015260400190565b60206040518083038186803b15801561286957600080fd5b505afa15801561287d573d6000803e3d6000fd5b505050506040513d601f19601f820116820180604052508101906128a19190613350565b905060ff85166128ce57806001600160601b031683600a01546128c4919061378c565b600a840155612928565b8460ff16600114156128fd57806001600160601b031683600901546128f3919061378c565b6009840155612928565b8460ff166002141561292857806001600160601b031683600b0154612922919061378c565b600b8401555b81546001600160601b03821662010000026dffffffffffffffffffffffff00001960ff88166101000261ffff199093169290921760011791909116179091559150509392505050565b6007546040516001600160a01b039091169063f2b065379061299f908890889088908890889060200161350f565b604051602081830303815290604052805190602001206040518263ffffffff1660e01b81526004016129d391815260200190565b60206040518083038186803b1580156129eb57600080fd5b505afa1580156129ff573d6000803e3d6000fd5b505050506040513d601f19601f82011682018060405250810190612a239190613161565b15612ab45760405162461bcd60e51b815260206004820152605560248201527f476f7665726e6f72427261766f3a3a71756575654f72526576657274496e746560448201527f726e616c3a206964656e746963616c2070726f706f73616c20616374696f6e20606482015274616c7265616479207175657565642061742065746160581b608482015260a4016108cd565b600754604051633a66f90160e01b81526001600160a01b0390911690633a66f90190612aec908890889088908890889060040161350f565b602060405180830381600087803b158015612b0657600080fd5b505af1158015612b1a573d6000803e3d6000fd5b505050506040513d601f19601f82011682018060405250810190612b3e9190613183565b505050505050565b828054828255906000526020600020908101928215612b9b579160200282015b82811115612b9b57825182546001600160a01b0319166001600160a01b03909116178255602090920191600190910190612b66565b50612ba7929150612c98565b5090565b828054828255906000526020600020908101928215612b9b579160200282015b82811115612b9b578251825591602001919060010190612bcb565b828054828255906000526020600020908101928215612c33579160200282015b82811115612c335782518051612c23918491602090910190612cad565b5091602001919060010190612c06565b50612ba7929150612d20565b828054828255906000526020600020908101928215612c8c579160200282015b82811115612c8c5782518051612c7c918491602090910190612cad565b5091602001919060010190612c5f565b50612ba7929150612d3d565b5b80821115612ba75760008155600101612c99565b828054612cb9906137eb565b90600052602060002090601f016020900481019282612cdb5760008555612b9b565b82601f10612cf457805160ff1916838001178555612b9b565b82800160010185558215612b9b5791820182811115612b9b578251825591602001919060010190612bcb565b80821115612ba7576000612d348282612d5a565b50600101612d20565b80821115612ba7576000612d518282612d5a565b50600101612d3d565b508054612d66906137eb565b6000825580601f10612d76575050565b601f016020900490600052602060002090810190612d949190612c98565b50565b6000612daa612da584613764565b61370f565b9050828152838383011115612dbe57600080fd5b828260208301376000602084830101529392505050565b80356001600160a01b0381168114612dec57600080fd5b919050565b600082601f830112612e0257600080fd5b81356020612e12612da583613740565b80838252828201915082860187848660051b8901011115612e3257600080fd5b60005b85811015612e5857612e4682612dd5565b84529284019290840190600101612e35565b5090979650505050505050565b600082601f830112612e7657600080fd5b81356020612e86612da583613740565b80838252828201915082860187848660051b8901011115612ea657600080fd5b60005b85811015612e5857813567ffffffffffffffff811115612ec857600080fd5b8801603f81018a13612ed957600080fd5b612eea8a8783013560408401612d97565b8552509284019290840190600101612ea9565b600082601f830112612f0e57600080fd5b81356020612f1e612da583613740565b80838252828201915082860187848660051b8901011115612f3e57600080fd5b6000805b86811015612f8157823567ffffffffffffffff811115612f60578283fd5b612f6e8b88838d0101612fef565b8652509385019391850191600101612f42565b509198975050505050505050565b600082601f830112612fa057600080fd5b81356020612fb0612da583613740565b80838252828201915082860187848660051b8901011115612fd057600080fd5b60005b85811015612e5857813584529284019290840190600101612fd3565b600082601f83011261300057600080fd5b61300f83833560208501612d97565b9392505050565b803560ff81168114612dec57600080fd5b60006020828403121561303957600080fd5b61300f82612dd5565b600080600080600060a0868803121561305a57600080fd5b61306386612dd5565b945061307160208701612dd5565b94979496505050506040830135926060810135926080909101359150565b600080600080600060a086880312156130a757600080fd5b853567ffffffffffffffff808211156130bf57600080fd5b6130cb89838a01612df1565b965060208801359150808211156130e157600080fd5b6130ed89838a01612f8f565b9550604088013591508082111561310357600080fd5b61310f89838a01612efd565b9450606088013591508082111561312557600080fd5b61313189838a01612e65565b9350608088013591508082111561314757600080fd5b5061315488828901612fef565b9150509295509295909350565b60006020828403121561317357600080fd5b8151801515811461300f57600080fd5b60006020828403121561319557600080fd5b5051919050565b6000602082840312156131ae57600080fd5b815167ffffffffffffffff8111156131c557600080fd5b8201601f810184136131d657600080fd5b80516131e4612da582613764565b8181528560208385010111156131f957600080fd5b61320a8260208301602086016137bb565b95945050505050565b60006020828403121561322557600080fd5b5035919050565b6000806040838503121561323f57600080fd5b8235915061324f60208401612dd5565b90509250929050565b6000806040838503121561326b57600080fd5b8235915061324f60208401613016565b6000806000806060858703121561329157600080fd5b843593506132a160208601613016565b9250604085013567ffffffffffffffff808211156132be57600080fd5b818701915087601f8301126132d257600080fd5b8135818111156132e157600080fd5b8860208285010111156132f357600080fd5b95989497505060200194505050565b600080600080600060a0868803121561331a57600080fd5b8535945061332a60208701613016565b935061333860408701613016565b94979396509394606081013594506080013592915050565b60006020828403121561336257600080fd5b81516001600160601b038116811461300f57600080fd5b600081518084526020808501945080840160005b838110156133b25781516001600160a01b03168752958201959082019060010161338d565b509495945050505050565b600081518084526020808501808196508360051b8101915082860160005b858110156134055782840389526133f3848351613442565b988501989350908401906001016133db565b5091979650505050505050565b600081518084526020808501945080840160005b838110156133b257815187529582019590820190600101613426565b6000815180845261345a8160208601602086016137bb565b601f01601f19169290920160200192915050565b8054600090600181811c908083168061348857607f831692505b60208084108214156134aa57634e487b7160e01b600052602260045260246000fd5b8388528180156134c157600181146134d557613503565b60ff19861689830152604089019650613503565b876000528160002060005b868110156134fb5781548b82018501529085019083016134e0565b8a0183019750505b50505050505092915050565b60018060a01b038616815284602082015260a06040820152600061353660a0830186613442565b82810360608401526135488186613442565b9150508260808301529695505050505050565b60018060a01b038616815284602082015260a06040820152600061358260a083018661346e565b8281036060840152613548818661346e565b6080815260006135a76080830187613379565b82810360208401526135b98187613412565b905082810360408401526135cd81866133bd565b905082810360608401526135e181856133bd565b979650505050505050565b602081016008831061360e57634e487b7160e01b600052602160045260246000fd5b91905290565b60208152600061300f6020830184613442565b8981526001600160a01b0389166020820152610120604082018190526000906136528382018b613379565b90508281036060840152613666818a613412565b9050828103608084015261367a81896133bd565b905082810360a084015261368e81886133bd565b90508560c08401528460e08401528281036101008401526136af8185613442565b9c9b505050505050505050505050565b85815260ff851660208201526001600160601b038416604082015260806060820152816080820152818360a0830137600081830160a090810191909152601f909201601f19160101949350505050565b604051601f8201601f1916810167ffffffffffffffff811182821017156137385761373861387d565b604052919050565b600067ffffffffffffffff82111561375a5761375a61387d565b5060051b60200190565b600067ffffffffffffffff82111561377e5761377e61387d565b50601f01601f191660200190565b6000821982111561379f5761379f61383b565b500190565b6000828210156137b6576137b661383b565b500390565b60005b838110156137d65781810151838201526020016137be565b838111156137e5576000848401525b50505050565b600181811c908216806137ff57607f821691505b602082108114156112dd57634e487b7160e01b600052602260045260246000fd5b60006000198214156138345761383461383b565b5060010190565b634e487b7160e01b600052601160045260246000fd5b634e487b7160e01b600052602160045260246000fd5b634e487b7160e01b600052603260045260246000fd5b634e487b7160e01b600052604160045260246000fdfe476f7665726e6f72427261766f3a3a696e697469616c697a653a20696e76616ca26469706673582212206e099a634124223fdfe61b6ec3e256af6afeb2f5ece234e8c1fc285ffa5eddbc64736f6c63430008060033",
          "opcodes": "PUSH1 0x80 PUSH1 0x40 MSTORE CALLVALUE DUP1 ISZERO PUSH2 0x10 JUMPI PUSH1 0x0 DUP1 REVERT JUMPDEST POP PUSH2 0x38E9 DUP1 PUSH2 0x20 PUSH1 0x0 CODECOPY PUSH1 0x0 RETURN INVALID PUSH1 0x80 PUSH1 0x40 MSTORE PUSH1 0x4 CALLDATASIZE LT PUSH2 0x225 JUMPI PUSH1 0x0 CALLDATALOAD PUSH1 0xE0 SHR DUP1 PUSH4 0x791F5D23 GT PUSH2 0x123 JUMPI DUP1 PUSH4 0xDA35C664 GT PUSH2 0xAB JUMPI DUP1 PUSH4 0xE48083FE GT PUSH2 0x6F JUMPI DUP1 PUSH4 0xE48083FE EQ PUSH2 0x7E6 JUMPI DUP1 PUSH4 0xE9C714F2 EQ PUSH2 0x7FB JUMPI DUP1 PUSH4 0xF851A440 EQ PUSH2 0x810 JUMPI DUP1 PUSH4 0xF96DAE0A EQ PUSH2 0x830 JUMPI DUP1 PUSH4 0xFE0D94C1 EQ PUSH2 0x850 JUMPI PUSH1 0x0 DUP1 REVERT JUMPDEST DUP1 PUSH4 0xDA35C664 EQ PUSH2 0x692 JUMPI DUP1 PUSH4 0xDA95691A EQ PUSH2 0x6A8 JUMPI DUP1 PUSH4 0xDDF0B009 EQ PUSH2 0x6C8 JUMPI DUP1 PUSH4 0xDEAAA7CC EQ PUSH2 0x6E8 JUMPI DUP1 PUSH4 0xE23A9A52 EQ PUSH2 0x71C JUMPI PUSH1 0x0 DUP1 REVERT JUMPDEST DUP1 PUSH4 0xB1126263 GT PUSH2 0xF2 JUMPI DUP1 PUSH4 0xB1126263 EQ PUSH2 0x606 JUMPI DUP1 PUSH4 0xB58131B0 EQ PUSH2 0x61C JUMPI DUP1 PUSH4 0xB71D1A0C EQ PUSH2 0x632 JUMPI DUP1 PUSH4 0xD13F90B4 EQ PUSH2 0x652 JUMPI DUP1 PUSH4 0xD33219B4 EQ PUSH2 0x672 JUMPI PUSH1 0x0 DUP1 REVERT JUMPDEST DUP1 PUSH4 0x791F5D23 EQ PUSH2 0x59B JUMPI DUP1 PUSH4 0x7B3C71D3 EQ PUSH2 0x5BA JUMPI DUP1 PUSH4 0x7BDBE4D0 EQ PUSH2 0x5DA JUMPI DUP1 PUSH4 0xA64E024A EQ PUSH2 0x5EF JUMPI PUSH1 0x0 DUP1 REVERT JUMPDEST DUP1 PUSH4 0x24BC1A64 GT PUSH2 0x1B1 JUMPI DUP1 PUSH4 0x3BCCF4FD GT PUSH2 0x175 JUMPI DUP1 PUSH4 0x3BCCF4FD EQ PUSH2 0x4EE JUMPI DUP1 PUSH4 0x3E4F49E6 EQ PUSH2 0x50E JUMPI DUP1 PUSH4 0x40E58EE5 EQ PUSH2 0x53B JUMPI DUP1 PUSH4 0x56781388 EQ PUSH2 0x55B JUMPI DUP1 PUSH4 0x5C60DA1B EQ PUSH2 0x57B JUMPI PUSH1 0x0 DUP1 REVERT JUMPDEST DUP1 PUSH4 0x24BC1A64 EQ PUSH2 0x451 JUMPI DUP1 PUSH4 0x25FD935A EQ PUSH2 0x451 JUMPI DUP1 PUSH4 0x26782247 EQ PUSH2 0x470 JUMPI DUP1 PUSH4 0x328DD982 EQ PUSH2 0x4A8 JUMPI DUP1 PUSH4 0x3932ABB1 EQ PUSH2 0x4D8 JUMPI PUSH1 0x0 DUP1 REVERT JUMPDEST DUP1 PUSH4 0x17977C61 GT PUSH2 0x1F8 JUMPI DUP1 PUSH4 0x17977C61 EQ PUSH2 0x39A JUMPI DUP1 PUSH4 0x17BA1B8B EQ PUSH2 0x3C7 JUMPI DUP1 PUSH4 0x1DFB1B5A EQ PUSH2 0x3E7 JUMPI DUP1 PUSH4 0x20606B70 EQ PUSH2 0x407 JUMPI DUP1 PUSH4 0x215809CA EQ PUSH2 0x43B JUMPI PUSH1 0x0 DUP1 REVERT JUMPDEST DUP1 PUSH4 0x13CF08B EQ PUSH2 0x22A JUMPI DUP1 PUSH4 0x2A251A3 EQ PUSH2 0x302 JUMPI DUP1 PUSH4 0x6FDDE03 EQ PUSH2 0x326 JUMPI DUP1 PUSH4 0xEA2D98C EQ PUSH2 0x378 JUMPI JUMPDEST PUSH1 0x0 DUP1 REVERT JUMPDEST CALLVALUE DUP1 ISZERO PUSH2 0x236 JUMPI PUSH1 0x0 DUP1 REVERT JUMPDEST POP PUSH2 0x2A7 PUSH2 0x245 CALLDATASIZE PUSH1 0x4 PUSH2 0x3213 JUMP JUMPDEST PUSH1 0x9 PUSH1 0x20 DUP2 SWAP1 MSTORE PUSH1 0x0 SWAP2 DUP3 MSTORE PUSH1 0x40 SWAP1 SWAP2 KECCAK256 DUP1 SLOAD PUSH1 0x1 DUP3 ADD SLOAD PUSH1 0x2 DUP4 ADD SLOAD PUSH1 0x7 DUP5 ADD SLOAD PUSH1 0x8 DUP6 ADD SLOAD SWAP6 DUP6 ADD SLOAD PUSH1 0xA DUP7 ADD SLOAD PUSH1 0xB DUP8 ADD SLOAD PUSH1 0xC SWAP1 SWAP8 ADD SLOAD SWAP6 SWAP8 PUSH1 0x1 PUSH1 0x1 PUSH1 0xA0 SHL SUB SWAP1 SWAP6 AND SWAP7 SWAP4 SWAP6 SWAP3 SWAP5 SWAP4 SWAP2 SWAP3 SWAP1 SWAP2 SWAP1 PUSH1 0xFF DUP1 DUP3 AND SWAP2 PUSH2 0x100 SWAP1 DIV AND DUP11 JUMP JUMPDEST PUSH1 0x40 DUP1 MLOAD SWAP11 DUP12 MSTORE PUSH1 0x1 PUSH1 0x1 PUSH1 0xA0 SHL SUB SWAP1 SWAP10 AND PUSH1 0x20 DUP12 ADD MSTORE SWAP8 DUP10 ADD SWAP7 SWAP1 SWAP7 MSTORE PUSH1 0x60 DUP9 ADD SWAP5 SWAP1 SWAP5 MSTORE PUSH1 0x80 DUP8 ADD SWAP3 SWAP1 SWAP3 MSTORE PUSH1 0xA0 DUP7 ADD MSTORE PUSH1 0xC0 DUP6 ADD MSTORE PUSH1 0xE0 DUP5 ADD MSTORE ISZERO ISZERO PUSH2 0x100 DUP4 ADD MSTORE ISZERO ISZERO PUSH2 0x120 DUP3 ADD MSTORE PUSH2 0x140 ADD JUMPDEST PUSH1 0x40 MLOAD DUP1 SWAP2 SUB SWAP1 RETURN JUMPDEST CALLVALUE DUP1 ISZERO PUSH2 0x30E JUMPI PUSH1 0x0 DUP1 REVERT JUMPDEST POP PUSH2 0x318 PUSH1 0x4 SLOAD DUP2 JUMP JUMPDEST PUSH1 0x40 MLOAD SWAP1 DUP2 MSTORE PUSH1 0x20 ADD PUSH2 0x2F9 JUMP JUMPDEST CALLVALUE DUP1 ISZERO PUSH2 0x332 JUMPI PUSH1 0x0 DUP1 REVERT JUMPDEST POP PUSH2 0x36B PUSH1 0x40 MLOAD DUP1 PUSH1 0x40 ADD PUSH1 0x40 MSTORE DUP1 PUSH1 0x19 DUP2 MSTORE PUSH1 0x20 ADD PUSH25 0x4465466948656C70657220476F7665726E6F7220427261766F PUSH1 0x38 SHL DUP2 MSTORE POP DUP2 JUMP JUMPDEST PUSH1 0x40 MLOAD PUSH2 0x2F9 SWAP2 SWAP1 PUSH2 0x3614 JUMP JUMPDEST CALLVALUE DUP1 ISZERO PUSH2 0x384 JUMPI PUSH1 0x0 DUP1 REVERT JUMPDEST POP PUSH2 0x398 PUSH2 0x393 CALLDATASIZE PUSH1 0x4 PUSH2 0x3213 JUMP JUMPDEST PUSH2 0x863 JUMP JUMPDEST STOP JUMPDEST CALLVALUE DUP1 ISZERO PUSH2 0x3A6 JUMPI PUSH1 0x0 DUP1 REVERT JUMPDEST POP PUSH2 0x318 PUSH2 0x3B5 CALLDATASIZE PUSH1 0x4 PUSH2 0x3027 JUMP JUMPDEST PUSH1 0xA PUSH1 0x20 MSTORE PUSH1 0x0 SWAP1 DUP2 MSTORE PUSH1 0x40 SWAP1 KECCAK256 SLOAD DUP2 JUMP JUMPDEST CALLVALUE DUP1 ISZERO PUSH2 0x3D3 JUMPI PUSH1 0x0 DUP1 REVERT JUMPDEST POP PUSH2 0x398 PUSH2 0x3E2 CALLDATASIZE PUSH1 0x4 PUSH2 0x3213 JUMP JUMPDEST PUSH2 0x99C JUMP JUMPDEST CALLVALUE DUP1 ISZERO PUSH2 0x3F3 JUMPI PUSH1 0x0 DUP1 REVERT JUMPDEST POP PUSH2 0x398 PUSH2 0x402 CALLDATASIZE PUSH1 0x4 PUSH2 0x3213 JUMP JUMPDEST PUSH2 0xAE7 JUMP JUMPDEST CALLVALUE DUP1 ISZERO PUSH2 0x413 JUMPI PUSH1 0x0 DUP1 REVERT JUMPDEST POP PUSH2 0x318 PUSH32 0x8CAD95687BA82C2CE50E74F7B754645E5117C3A5BEC8151C0726D5857980A866 DUP2 JUMP JUMPDEST CALLVALUE DUP1 ISZERO PUSH2 0x447 JUMPI PUSH1 0x0 DUP1 REVERT JUMPDEST POP PUSH2 0x318 PUSH2 0x1680 DUP2 JUMP JUMPDEST CALLVALUE DUP1 ISZERO PUSH2 0x45D JUMPI PUSH1 0x0 DUP1 REVERT JUMPDEST POP PUSH2 0x318 PUSH11 0x2116545850052128000000 DUP2 JUMP JUMPDEST CALLVALUE DUP1 ISZERO PUSH2 0x47C JUMPI PUSH1 0x0 DUP1 REVERT JUMPDEST POP PUSH1 0x1 SLOAD PUSH2 0x490 SWAP1 PUSH1 0x1 PUSH1 0x1 PUSH1 0xA0 SHL SUB AND DUP2 JUMP JUMPDEST PUSH1 0x40 MLOAD PUSH1 0x1 PUSH1 0x1 PUSH1 0xA0 SHL SUB SWAP1 SWAP2 AND DUP2 MSTORE PUSH1 0x20 ADD PUSH2 0x2F9 JUMP JUMPDEST CALLVALUE DUP1 ISZERO PUSH2 0x4B4 JUMPI PUSH1 0x0 DUP1 REVERT JUMPDEST POP PUSH2 0x4C8 PUSH2 0x4C3 CALLDATASIZE PUSH1 0x4 PUSH2 0x3213 JUMP JUMPDEST PUSH2 0xC0E JUMP JUMPDEST PUSH1 0x40 MLOAD PUSH2 0x2F9 SWAP5 SWAP4 SWAP3 SWAP2 SWAP1 PUSH2 0x3594 JUMP JUMPDEST CALLVALUE DUP1 ISZERO PUSH2 0x4E4 JUMPI PUSH1 0x0 DUP1 REVERT JUMPDEST POP PUSH2 0x318 PUSH1 0x3 SLOAD DUP2 JUMP JUMPDEST CALLVALUE DUP1 ISZERO PUSH2 0x4FA JUMPI PUSH1 0x0 DUP1 REVERT JUMPDEST POP PUSH2 0x398 PUSH2 0x509 CALLDATASIZE PUSH1 0x4 PUSH2 0x3302 JUMP JUMPDEST PUSH2 0xE9F JUMP JUMPDEST CALLVALUE DUP1 ISZERO PUSH2 0x51A JUMPI PUSH1 0x0 DUP1 REVERT JUMPDEST POP PUSH2 0x52E PUSH2 0x529 CALLDATASIZE PUSH1 0x4 PUSH2 0x3213 JUMP JUMPDEST PUSH2 0x111E JUMP JUMPDEST PUSH1 0x40 MLOAD PUSH2 0x2F9 SWAP2 SWAP1 PUSH2 0x35EC JUMP JUMPDEST CALLVALUE DUP1 ISZERO PUSH2 0x547 JUMPI PUSH1 0x0 DUP1 REVERT JUMPDEST POP PUSH2 0x398 PUSH2 0x556 CALLDATASIZE PUSH1 0x4 PUSH2 0x3213 JUMP JUMPDEST PUSH2 0x12E3 JUMP JUMPDEST CALLVALUE DUP1 ISZERO PUSH2 0x567 JUMPI PUSH1 0x0 DUP1 REVERT JUMPDEST POP PUSH2 0x398 PUSH2 0x576 CALLDATASIZE PUSH1 0x4 PUSH2 0x3258 JUMP JUMPDEST PUSH2 0x1602 JUMP JUMPDEST CALLVALUE DUP1 ISZERO PUSH2 0x587 JUMPI PUSH1 0x0 DUP1 REVERT JUMPDEST POP PUSH1 0x2 SLOAD PUSH2 0x490 SWAP1 PUSH1 0x1 PUSH1 0x1 PUSH1 0xA0 SHL SUB AND DUP2 JUMP JUMPDEST CALLVALUE DUP1 ISZERO PUSH2 0x5A7 JUMPI PUSH1 0x0 DUP1 REVERT JUMPDEST POP PUSH2 0x318 PUSH11 0x27B46536C66C8E3000000 DUP2 JUMP JUMPDEST CALLVALUE DUP1 ISZERO PUSH2 0x5C6 JUMPI PUSH1 0x0 DUP1 REVERT JUMPDEST POP PUSH2 0x398 PUSH2 0x5D5 CALLDATASIZE PUSH1 0x4 PUSH2 0x327B JUMP JUMPDEST PUSH2 0x166D JUMP JUMPDEST CALLVALUE DUP1 ISZERO PUSH2 0x5E6 JUMPI PUSH1 0x0 DUP1 REVERT JUMPDEST POP PUSH2 0x318 PUSH1 0xA DUP2 JUMP JUMPDEST CALLVALUE DUP1 ISZERO PUSH2 0x5FB JUMPI PUSH1 0x0 DUP1 REVERT JUMPDEST POP PUSH2 0x318 PUSH3 0x13B00 DUP2 JUMP JUMPDEST CALLVALUE DUP1 ISZERO PUSH2 0x612 JUMPI PUSH1 0x0 DUP1 REVERT JUMPDEST POP PUSH2 0x318 PUSH2 0x9D80 DUP2 JUMP JUMPDEST CALLVALUE DUP1 ISZERO PUSH2 0x628 JUMPI PUSH1 0x0 DUP1 REVERT JUMPDEST POP PUSH2 0x318 PUSH1 0x5 SLOAD DUP2 JUMP JUMPDEST CALLVALUE DUP1 ISZERO PUSH2 0x63E JUMPI PUSH1 0x0 DUP1 REVERT JUMPDEST POP PUSH2 0x398 PUSH2 0x64D CALLDATASIZE PUSH1 0x4 PUSH2 0x3027 JUMP JUMPDEST PUSH2 0x16BD JUMP JUMPDEST CALLVALUE DUP1 ISZERO PUSH2 0x65E JUMPI PUSH1 0x0 DUP1 REVERT JUMPDEST POP PUSH2 0x398 PUSH2 0x66D CALLDATASIZE PUSH1 0x4 PUSH2 0x3042 JUMP JUMPDEST PUSH2 0x1784 JUMP JUMPDEST CALLVALUE DUP1 ISZERO PUSH2 0x67E JUMPI PUSH1 0x0 DUP1 REVERT JUMPDEST POP PUSH1 0x7 SLOAD PUSH2 0x490 SWAP1 PUSH1 0x1 PUSH1 0x1 PUSH1 0xA0 SHL SUB AND DUP2 JUMP JUMPDEST CALLVALUE DUP1 ISZERO PUSH2 0x69E JUMPI PUSH1 0x0 DUP1 REVERT JUMPDEST POP PUSH2 0x318 PUSH1 0x6 SLOAD DUP2 JUMP JUMPDEST CALLVALUE DUP1 ISZERO PUSH2 0x6B4 JUMPI PUSH1 0x0 DUP1 REVERT JUMPDEST POP PUSH2 0x318 PUSH2 0x6C3 CALLDATASIZE PUSH1 0x4 PUSH2 0x308F JUMP JUMPDEST PUSH2 0x1A59 JUMP JUMPDEST CALLVALUE DUP1 ISZERO PUSH2 0x6D4 JUMPI PUSH1 0x0 DUP1 REVERT JUMPDEST POP PUSH2 0x398 PUSH2 0x6E3 CALLDATASIZE PUSH1 0x4 PUSH2 0x3213 JUMP JUMPDEST PUSH2 0x1FC6 JUMP JUMPDEST CALLVALUE DUP1 ISZERO PUSH2 0x6F4 JUMPI PUSH1 0x0 DUP1 REVERT JUMPDEST POP PUSH2 0x318 PUSH32 0x150214D74D59B7D1E90C73FC22EF3D991DD0A76B046543D4D80AB92D2A50328F DUP2 JUMP JUMPDEST CALLVALUE DUP1 ISZERO PUSH2 0x728 JUMPI PUSH1 0x0 DUP1 REVERT JUMPDEST POP PUSH2 0x7B6 PUSH2 0x737 CALLDATASIZE PUSH1 0x4 PUSH2 0x322C JUMP JUMPDEST PUSH1 0x40 DUP1 MLOAD PUSH1 0x60 DUP2 ADD DUP3 MSTORE PUSH1 0x0 DUP1 DUP3 MSTORE PUSH1 0x20 DUP3 ADD DUP2 SWAP1 MSTORE SWAP2 DUP2 ADD SWAP2 SWAP1 SWAP2 MSTORE POP PUSH1 0x0 SWAP2 DUP3 MSTORE PUSH1 0x9 PUSH1 0x20 SWAP1 DUP2 MSTORE PUSH1 0x40 DUP1 DUP5 KECCAK256 PUSH1 0x1 PUSH1 0x1 PUSH1 0xA0 SHL SUB SWAP4 SWAP1 SWAP4 AND DUP5 MSTORE PUSH1 0xD SWAP1 SWAP3 ADD DUP2 MSTORE SWAP2 DUP2 SWAP1 KECCAK256 DUP2 MLOAD PUSH1 0x60 DUP2 ADD DUP4 MSTORE SWAP1 SLOAD PUSH1 0xFF DUP1 DUP3 AND ISZERO ISZERO DUP4 MSTORE PUSH2 0x100 DUP3 DIV AND SWAP4 DUP3 ADD SWAP4 SWAP1 SWAP4 MSTORE PUSH3 0x10000 SWAP1 SWAP3 DIV PUSH1 0x1 PUSH1 0x1 PUSH1 0x60 SHL SUB AND SWAP1 DUP3 ADD MSTORE SWAP1 JUMP JUMPDEST PUSH1 0x40 DUP1 MLOAD DUP3 MLOAD ISZERO ISZERO DUP2 MSTORE PUSH1 0x20 DUP1 DUP5 ADD MLOAD PUSH1 0xFF AND SWAP1 DUP3 ADD MSTORE SWAP2 DUP2 ADD MLOAD PUSH1 0x1 PUSH1 0x1 PUSH1 0x60 SHL SUB AND SWAP1 DUP3 ADD MSTORE PUSH1 0x60 ADD PUSH2 0x2F9 JUMP JUMPDEST CALLVALUE DUP1 ISZERO PUSH2 0x7F2 JUMPI PUSH1 0x0 DUP1 REVERT JUMPDEST POP PUSH2 0x318 PUSH1 0x1 DUP2 JUMP JUMPDEST CALLVALUE DUP1 ISZERO PUSH2 0x807 JUMPI PUSH1 0x0 DUP1 REVERT JUMPDEST POP PUSH2 0x398 PUSH2 0x2307 JUMP JUMPDEST CALLVALUE DUP1 ISZERO PUSH2 0x81C JUMPI PUSH1 0x0 DUP1 REVERT JUMPDEST POP PUSH1 0x0 SLOAD PUSH2 0x490 SWAP1 PUSH1 0x1 PUSH1 0x1 PUSH1 0xA0 SHL SUB AND DUP2 JUMP JUMPDEST CALLVALUE DUP1 ISZERO PUSH2 0x83C JUMPI PUSH1 0x0 DUP1 REVERT JUMPDEST POP PUSH1 0x8 SLOAD PUSH2 0x490 SWAP1 PUSH1 0x1 PUSH1 0x1 PUSH1 0xA0 SHL SUB AND DUP2 JUMP JUMPDEST PUSH2 0x398 PUSH2 0x85E CALLDATASIZE PUSH1 0x4 PUSH2 0x3213 JUMP JUMPDEST PUSH2 0x2431 JUMP JUMPDEST PUSH1 0x0 SLOAD PUSH1 0x1 PUSH1 0x1 PUSH1 0xA0 SHL SUB AND CALLER EQ PUSH2 0x8D6 JUMPI PUSH1 0x40 MLOAD PUSH3 0x461BCD PUSH1 0xE5 SHL DUP2 MSTORE PUSH1 0x20 PUSH1 0x4 DUP3 ADD MSTORE PUSH1 0x2B PUSH1 0x24 DUP3 ADD MSTORE PUSH32 0x476F7665726E6F72427261766F3A3A5F736574566F74696E67506572696F643A PUSH1 0x44 DUP3 ADD MSTORE PUSH11 0x2061646D696E206F6E6C79 PUSH1 0xA8 SHL PUSH1 0x64 DUP3 ADD MSTORE PUSH1 0x84 ADD JUMPDEST PUSH1 0x40 MLOAD DUP1 SWAP2 SUB SWAP1 REVERT JUMPDEST PUSH2 0x1680 DUP2 LT ISZERO DUP1 ISZERO PUSH2 0x8EB JUMPI POP PUSH3 0x13B00 DUP2 GT ISZERO JUMPDEST PUSH2 0x956 JUMPI PUSH1 0x40 MLOAD PUSH3 0x461BCD PUSH1 0xE5 SHL DUP2 MSTORE PUSH1 0x20 PUSH1 0x4 DUP3 ADD MSTORE PUSH1 0x36 PUSH1 0x24 DUP3 ADD MSTORE PUSH32 0x476F7665726E6F72427261766F3A3A5F736574566F74696E67506572696F643A PUSH1 0x44 DUP3 ADD MSTORE PUSH22 0x81A5B9D985B1A59081D9BDD1A5B99C81C195C9A5BD9 PUSH1 0x52 SHL PUSH1 0x64 DUP3 ADD MSTORE PUSH1 0x84 ADD PUSH2 0x8CD JUMP JUMPDEST PUSH1 0x4 DUP1 SLOAD SWAP1 DUP3 SWAP1 SSTORE PUSH1 0x40 DUP1 MLOAD DUP3 DUP2 MSTORE PUSH1 0x20 DUP2 ADD DUP5 SWAP1 MSTORE PUSH32 0x7E3F7F0708A84DE9203036ABAA450DCCC85AD5FF52F78C170F3EDB55CF5E8828 SWAP2 ADD JUMPDEST PUSH1 0x40 MLOAD DUP1 SWAP2 SUB SWAP1 LOG1 POP POP JUMP JUMPDEST PUSH1 0x0 SLOAD PUSH1 0x1 PUSH1 0x1 PUSH1 0xA0 SHL SUB AND CALLER EQ PUSH2 0xA0F JUMPI PUSH1 0x40 MLOAD PUSH3 0x461BCD PUSH1 0xE5 SHL DUP2 MSTORE PUSH1 0x20 PUSH1 0x4 DUP3 ADD MSTORE PUSH1 0x30 PUSH1 0x24 DUP3 ADD MSTORE PUSH32 0x476F7665726E6F72427261766F3A3A5F73657450726F706F73616C5468726573 PUSH1 0x44 DUP3 ADD MSTORE PUSH16 0x686F6C643A2061646D696E206F6E6C79 PUSH1 0x80 SHL PUSH1 0x64 DUP3 ADD MSTORE PUSH1 0x84 ADD PUSH2 0x8CD JUMP JUMPDEST PUSH11 0x27B46536C66C8E3000000 DUP2 LT ISZERO DUP1 ISZERO PUSH2 0xA35 JUMPI POP PUSH11 0x2116545850052128000000 DUP2 GT ISZERO JUMPDEST PUSH2 0xAA9 JUMPI PUSH1 0x40 DUP1 MLOAD PUSH3 0x461BCD PUSH1 0xE5 SHL DUP2 MSTORE PUSH1 0x20 PUSH1 0x4 DUP3 ADD MSTORE PUSH1 0x24 DUP2 ADD SWAP2 SWAP1 SWAP2 MSTORE PUSH32 0x476F7665726E6F72427261766F3A3A5F73657450726F706F73616C5468726573 PUSH1 0x44 DUP3 ADD MSTORE PUSH32 0x686F6C643A20696E76616C69642070726F706F73616C207468726573686F6C64 PUSH1 0x64 DUP3 ADD MSTORE PUSH1 0x84 ADD PUSH2 0x8CD JUMP JUMPDEST PUSH1 0x5 DUP1 SLOAD SWAP1 DUP3 SWAP1 SSTORE PUSH1 0x40 DUP1 MLOAD DUP3 DUP2 MSTORE PUSH1 0x20 DUP2 ADD DUP5 SWAP1 MSTORE PUSH32 0xCCB45DA8D5717E6C4544694297C4BA5CF151D455C9BB0ED4FC7A38411BC05461 SWAP2 ADD PUSH2 0x990 JUMP JUMPDEST PUSH1 0x0 SLOAD PUSH1 0x1 PUSH1 0x1 PUSH1 0xA0 SHL SUB AND CALLER EQ PUSH2 0xB54 JUMPI PUSH1 0x40 MLOAD PUSH3 0x461BCD PUSH1 0xE5 SHL DUP2 MSTORE PUSH1 0x20 PUSH1 0x4 DUP3 ADD MSTORE PUSH1 0x2A PUSH1 0x24 DUP3 ADD MSTORE PUSH32 0x476F7665726E6F72427261766F3A3A5F736574566F74696E6744656C61793A20 PUSH1 0x44 DUP3 ADD MSTORE PUSH10 0x61646D696E206F6E6C79 PUSH1 0xB0 SHL PUSH1 0x64 DUP3 ADD MSTORE PUSH1 0x84 ADD PUSH2 0x8CD JUMP JUMPDEST PUSH1 0x1 DUP2 LT ISZERO DUP1 ISZERO PUSH2 0xB67 JUMPI POP PUSH2 0x9D80 DUP2 GT ISZERO JUMPDEST PUSH2 0xBD0 JUMPI PUSH1 0x40 MLOAD PUSH3 0x461BCD PUSH1 0xE5 SHL DUP2 MSTORE PUSH1 0x20 PUSH1 0x4 DUP3 ADD MSTORE PUSH1 0x34 PUSH1 0x24 DUP3 ADD MSTORE PUSH32 0x476F7665726E6F72427261766F3A3A5F736574566F74696E6744656C61793A20 PUSH1 0x44 DUP3 ADD MSTORE PUSH20 0x696E76616C696420766F74696E672064656C6179 PUSH1 0x60 SHL PUSH1 0x64 DUP3 ADD MSTORE PUSH1 0x84 ADD PUSH2 0x8CD JUMP JUMPDEST PUSH1 0x3 DUP1 SLOAD SWAP1 DUP3 SWAP1 SSTORE PUSH1 0x40 DUP1 MLOAD DUP3 DUP2 MSTORE PUSH1 0x20 DUP2 ADD DUP5 SWAP1 MSTORE PUSH32 0xC565B045403DC03C2EEA82B81A0465EDAD9E2E7FC4D97E11421C209DA93D7A93 SWAP2 ADD PUSH2 0x990 JUMP JUMPDEST PUSH1 0x60 DUP1 PUSH1 0x60 DUP1 PUSH1 0x0 PUSH1 0x9 PUSH1 0x0 DUP8 DUP2 MSTORE PUSH1 0x20 ADD SWAP1 DUP2 MSTORE PUSH1 0x20 ADD PUSH1 0x0 KECCAK256 SWAP1 POP DUP1 PUSH1 0x3 ADD DUP2 PUSH1 0x4 ADD DUP3 PUSH1 0x5 ADD DUP4 PUSH1 0x6 ADD DUP4 DUP1 SLOAD DUP1 PUSH1 0x20 MUL PUSH1 0x20 ADD PUSH1 0x40 MLOAD SWAP1 DUP2 ADD PUSH1 0x40 MSTORE DUP1 SWAP3 SWAP2 SWAP1 DUP2 DUP2 MSTORE PUSH1 0x20 ADD DUP3 DUP1 SLOAD DUP1 ISZERO PUSH2 0xC90 JUMPI PUSH1 0x20 MUL DUP3 ADD SWAP2 SWAP1 PUSH1 0x0 MSTORE PUSH1 0x20 PUSH1 0x0 KECCAK256 SWAP1 JUMPDEST DUP2 SLOAD PUSH1 0x1 PUSH1 0x1 PUSH1 0xA0 SHL SUB AND DUP2 MSTORE PUSH1 0x1 SWAP1 SWAP2 ADD SWAP1 PUSH1 0x20 ADD DUP1 DUP4 GT PUSH2 0xC72 JUMPI JUMPDEST POP POP POP POP POP SWAP4 POP DUP3 DUP1 SLOAD DUP1 PUSH1 0x20 MUL PUSH1 0x20 ADD PUSH1 0x40 MLOAD SWAP1 DUP2 ADD PUSH1 0x40 MSTORE DUP1 SWAP3 SWAP2 SWAP1 DUP2 DUP2 MSTORE PUSH1 0x20 ADD DUP3 DUP1 SLOAD DUP1 ISZERO PUSH2 0xCE2 JUMPI PUSH1 0x20 MUL DUP3 ADD SWAP2 SWAP1 PUSH1 0x0 MSTORE PUSH1 0x20 PUSH1 0x0 KECCAK256 SWAP1 JUMPDEST DUP2 SLOAD DUP2 MSTORE PUSH1 0x20 ADD SWAP1 PUSH1 0x1 ADD SWAP1 DUP1 DUP4 GT PUSH2 0xCCE JUMPI JUMPDEST POP POP POP POP POP SWAP3 POP DUP2 DUP1 SLOAD DUP1 PUSH1 0x20 MUL PUSH1 0x20 ADD PUSH1 0x40 MLOAD SWAP1 DUP2 ADD PUSH1 0x40 MSTORE DUP1 SWAP3 SWAP2 SWAP1 DUP2 DUP2 MSTORE PUSH1 0x20 ADD PUSH1 0x0 SWAP1 JUMPDEST DUP3 DUP3 LT ISZERO PUSH2 0xDB6 JUMPI DUP4 DUP3 SWAP1 PUSH1 0x0 MSTORE PUSH1 0x20 PUSH1 0x0 KECCAK256 ADD DUP1 SLOAD PUSH2 0xD29 SWAP1 PUSH2 0x37EB JUMP JUMPDEST DUP1 PUSH1 0x1F ADD PUSH1 0x20 DUP1 SWAP2 DIV MUL PUSH1 0x20 ADD PUSH1 0x40 MLOAD SWAP1 DUP2 ADD PUSH1 0x40 MSTORE DUP1 SWAP3 SWAP2 SWAP1 DUP2 DUP2 MSTORE PUSH1 0x20 ADD DUP3 DUP1 SLOAD PUSH2 0xD55 SWAP1 PUSH2 0x37EB JUMP JUMPDEST DUP1 ISZERO PUSH2 0xDA2 JUMPI DUP1 PUSH1 0x1F LT PUSH2 0xD77 JUMPI PUSH2 0x100 DUP1 DUP4 SLOAD DIV MUL DUP4 MSTORE SWAP2 PUSH1 0x20 ADD SWAP2 PUSH2 0xDA2 JUMP JUMPDEST DUP3 ADD SWAP2 SWAP1 PUSH1 0x0 MSTORE PUSH1 0x20 PUSH1 0x0 KECCAK256 SWAP1 JUMPDEST DUP2 SLOAD DUP2 MSTORE SWAP1 PUSH1 0x1 ADD SWAP1 PUSH1 0x20 ADD DUP1 DUP4 GT PUSH2 0xD85 JUMPI DUP3 SWAP1 SUB PUSH1 0x1F AND DUP3 ADD SWAP2 JUMPDEST POP POP POP POP POP DUP2 MSTORE PUSH1 0x20 ADD SWAP1 PUSH1 0x1 ADD SWAP1 PUSH2 0xD0A JUMP JUMPDEST POP POP POP POP SWAP2 POP DUP1 DUP1 SLOAD DUP1 PUSH1 0x20 MUL PUSH1 0x20 ADD PUSH1 0x40 MLOAD SWAP1 DUP2 ADD PUSH1 0x40 MSTORE DUP1 SWAP3 SWAP2 SWAP1 DUP2 DUP2 MSTORE PUSH1 0x20 ADD PUSH1 0x0 SWAP1 JUMPDEST DUP3 DUP3 LT ISZERO PUSH2 0xE89 JUMPI DUP4 DUP3 SWAP1 PUSH1 0x0 MSTORE PUSH1 0x20 PUSH1 0x0 KECCAK256 ADD DUP1 SLOAD PUSH2 0xDFC SWAP1 PUSH2 0x37EB JUMP JUMPDEST DUP1 PUSH1 0x1F ADD PUSH1 0x20 DUP1 SWAP2 DIV MUL PUSH1 0x20 ADD PUSH1 0x40 MLOAD SWAP1 DUP2 ADD PUSH1 0x40 MSTORE DUP1 SWAP3 SWAP2 SWAP1 DUP2 DUP2 MSTORE PUSH1 0x20 ADD DUP3 DUP1 SLOAD PUSH2 0xE28 SWAP1 PUSH2 0x37EB JUMP JUMPDEST DUP1 ISZERO PUSH2 0xE75 JUMPI DUP1 PUSH1 0x1F LT PUSH2 0xE4A JUMPI PUSH2 0x100 DUP1 DUP4 SLOAD DIV MUL DUP4 MSTORE SWAP2 PUSH1 0x20 ADD SWAP2 PUSH2 0xE75 JUMP JUMPDEST DUP3 ADD SWAP2 SWAP1 PUSH1 0x0 MSTORE PUSH1 0x20 PUSH1 0x0 KECCAK256 SWAP1 JUMPDEST DUP2 SLOAD DUP2 MSTORE SWAP1 PUSH1 0x1 ADD SWAP1 PUSH1 0x20 ADD DUP1 DUP4 GT PUSH2 0xE58 JUMPI DUP3 SWAP1 SUB PUSH1 0x1F AND DUP3 ADD SWAP2 JUMPDEST POP POP POP POP POP DUP2 MSTORE PUSH1 0x20 ADD SWAP1 PUSH1 0x1 ADD SWAP1 PUSH2 0xDDD JUMP JUMPDEST POP POP POP POP SWAP1 POP SWAP5 POP SWAP5 POP SWAP5 POP SWAP5 POP POP SWAP2 SWAP4 POP SWAP2 SWAP4 JUMP JUMPDEST PUSH1 0x40 DUP1 MLOAD DUP1 DUP3 ADD DUP3 MSTORE PUSH1 0x19 DUP2 MSTORE PUSH25 0x4465466948656C70657220476F7665726E6F7220427261766F PUSH1 0x38 SHL PUSH1 0x20 SWAP2 DUP3 ADD MSTORE DUP2 MLOAD PUSH32 0x8CAD95687BA82C2CE50E74F7B754645E5117C3A5BEC8151C0726D5857980A866 DUP2 DUP4 ADD MSTORE PUSH32 0xA23EA4F8575D811F6BF655653606C6DE379B4D56D6B8542B06793571D8FB9991 DUP2 DUP5 ADD MSTORE CHAINID PUSH1 0x60 DUP3 ADD MSTORE ADDRESS PUSH1 0x80 DUP1 DUP4 ADD SWAP2 SWAP1 SWAP2 MSTORE DUP4 MLOAD DUP1 DUP4 SUB SWAP1 SWAP2 ADD DUP2 MSTORE PUSH1 0xA0 DUP3 ADD DUP5 MSTORE DUP1 MLOAD SWAP1 DUP4 ADD KECCAK256 PUSH32 0x150214D74D59B7D1E90C73FC22EF3D991DD0A76B046543D4D80AB92D2A50328F PUSH1 0xC0 DUP4 ADD MSTORE PUSH1 0xE0 DUP3 ADD DUP10 SWAP1 MSTORE PUSH1 0xFF DUP9 AND PUSH2 0x100 DUP1 DUP5 ADD SWAP2 SWAP1 SWAP2 MSTORE DUP5 MLOAD DUP1 DUP5 SUB SWAP1 SWAP2 ADD DUP2 MSTORE PUSH2 0x120 DUP4 ADD SWAP1 SWAP5 MSTORE DUP4 MLOAD SWAP4 SWAP1 SWAP3 ADD SWAP3 SWAP1 SWAP3 KECCAK256 PUSH2 0x1901 PUSH1 0xF0 SHL PUSH2 0x140 DUP5 ADD MSTORE PUSH2 0x142 DUP4 ADD DUP3 SWAP1 MSTORE PUSH2 0x162 DUP4 ADD DUP2 SWAP1 MSTORE SWAP1 SWAP2 PUSH1 0x0 SWAP1 PUSH2 0x182 ADD PUSH1 0x40 DUP1 MLOAD PUSH1 0x1F NOT DUP2 DUP5 SUB ADD DUP2 MSTORE DUP3 DUP3 MSTORE DUP1 MLOAD PUSH1 0x20 SWAP2 DUP3 ADD KECCAK256 PUSH1 0x0 DUP1 DUP6 MSTORE SWAP2 DUP5 ADD DUP1 DUP5 MSTORE DUP2 SWAP1 MSTORE PUSH1 0xFF DUP11 AND SWAP3 DUP5 ADD SWAP3 SWAP1 SWAP3 MSTORE PUSH1 0x60 DUP4 ADD DUP9 SWAP1 MSTORE PUSH1 0x80 DUP4 ADD DUP8 SWAP1 MSTORE SWAP1 SWAP3 POP SWAP1 PUSH1 0x1 SWAP1 PUSH1 0xA0 ADD PUSH1 0x20 PUSH1 0x40 MLOAD PUSH1 0x20 DUP2 SUB SWAP1 DUP1 DUP5 SUB SWAP1 DUP6 GAS STATICCALL ISZERO DUP1 ISZERO PUSH2 0x1028 JUMPI RETURNDATASIZE PUSH1 0x0 DUP1 RETURNDATACOPY RETURNDATASIZE PUSH1 0x0 REVERT JUMPDEST POP POP PUSH1 0x40 MLOAD PUSH1 0x1F NOT ADD MLOAD SWAP2 POP POP PUSH1 0x1 PUSH1 0x1 PUSH1 0xA0 SHL SUB DUP2 AND PUSH2 0x10A3 JUMPI PUSH1 0x40 MLOAD PUSH3 0x461BCD PUSH1 0xE5 SHL DUP2 MSTORE PUSH1 0x20 PUSH1 0x4 DUP3 ADD MSTORE PUSH1 0x2F PUSH1 0x24 DUP3 ADD MSTORE PUSH32 0x476F7665726E6F72427261766F3A3A63617374566F746542795369673A20696E PUSH1 0x44 DUP3 ADD MSTORE PUSH15 0x76616C6964207369676E6174757265 PUSH1 0x88 SHL PUSH1 0x64 DUP3 ADD MSTORE PUSH1 0x84 ADD PUSH2 0x8CD JUMP JUMPDEST DUP1 PUSH1 0x1 PUSH1 0x1 PUSH1 0xA0 SHL SUB AND PUSH32 0xB8E138887D0AA13BAB447E82DE9D5C1777041ECD21CA36BA824FF1E6C07DDDA4 DUP11 DUP11 PUSH2 0x10DB DUP6 DUP15 DUP15 PUSH2 0x267D JUMP JUMPDEST PUSH1 0x40 DUP1 MLOAD SWAP4 DUP5 MSTORE PUSH1 0xFF SWAP1 SWAP3 AND PUSH1 0x20 DUP5 ADD MSTORE PUSH1 0x1 PUSH1 0x1 PUSH1 0x60 SHL SUB AND SWAP1 DUP3 ADD MSTORE PUSH1 0x80 PUSH1 0x60 DUP3 ADD DUP2 SWAP1 MSTORE PUSH1 0x0 SWAP1 DUP3 ADD MSTORE PUSH1 0xA0 ADD PUSH1 0x40 MLOAD DUP1 SWAP2 SUB SWAP1 LOG2 POP POP POP POP POP POP POP POP POP JUMP JUMPDEST PUSH1 0x0 DUP2 PUSH1 0x6 SLOAD LT ISZERO PUSH2 0x1184 JUMPI PUSH1 0x40 MLOAD PUSH3 0x461BCD PUSH1 0xE5 SHL DUP2 MSTORE PUSH1 0x20 PUSH1 0x4 DUP3 ADD MSTORE PUSH1 0x29 PUSH1 0x24 DUP3 ADD MSTORE PUSH32 0x476F7665726E6F72427261766F3A3A73746174653A20696E76616C6964207072 PUSH1 0x44 DUP3 ADD MSTORE PUSH9 0x1BDC1BDCD85B081A59 PUSH1 0xBA SHL PUSH1 0x64 DUP3 ADD MSTORE PUSH1 0x84 ADD PUSH2 0x8CD JUMP JUMPDEST PUSH1 0x0 DUP3 DUP2 MSTORE PUSH1 0x9 PUSH1 0x20 MSTORE PUSH1 0x40 SWAP1 KECCAK256 PUSH1 0xC DUP2 ADD SLOAD PUSH1 0xFF AND ISZERO PUSH2 0x11A8 JUMPI POP PUSH1 0x2 SWAP3 SWAP2 POP POP JUMP JUMPDEST DUP1 PUSH1 0x7 ADD SLOAD NUMBER GT PUSH2 0x11BC JUMPI POP PUSH1 0x0 SWAP3 SWAP2 POP POP JUMP JUMPDEST DUP1 PUSH1 0x8 ADD SLOAD NUMBER GT PUSH2 0x11D0 JUMPI POP PUSH1 0x1 SWAP3 SWAP2 POP POP JUMP JUMPDEST DUP1 PUSH1 0xA ADD SLOAD DUP2 PUSH1 0x9 ADD SLOAD GT ISZERO DUP1 PUSH2 0x11F5 JUMPI POP PUSH11 0x2116545850052128000000 DUP2 PUSH1 0x9 ADD SLOAD LT JUMPDEST ISZERO PUSH2 0x1203 JUMPI POP PUSH1 0x3 SWAP3 SWAP2 POP POP JUMP JUMPDEST PUSH1 0x2 DUP2 ADD SLOAD PUSH2 0x1215 JUMPI POP PUSH1 0x4 SWAP3 SWAP2 POP POP JUMP JUMPDEST PUSH1 0xC DUP2 ADD SLOAD PUSH2 0x100 SWAP1 DIV PUSH1 0xFF AND ISZERO PUSH2 0x1230 JUMPI POP PUSH1 0x7 SWAP3 SWAP2 POP POP JUMP JUMPDEST PUSH1 0x7 PUSH1 0x0 SWAP1 SLOAD SWAP1 PUSH2 0x100 EXP SWAP1 DIV PUSH1 0x1 PUSH1 0x1 PUSH1 0xA0 SHL SUB AND PUSH1 0x1 PUSH1 0x1 PUSH1 0xA0 SHL SUB AND PUSH4 0xC1A287E2 PUSH1 0x40 MLOAD DUP2 PUSH4 0xFFFFFFFF AND PUSH1 0xE0 SHL DUP2 MSTORE PUSH1 0x4 ADD PUSH1 0x20 PUSH1 0x40 MLOAD DUP1 DUP4 SUB DUP2 DUP7 DUP1 EXTCODESIZE ISZERO DUP1 ISZERO PUSH2 0x127E JUMPI PUSH1 0x0 DUP1 REVERT JUMPDEST POP GAS STATICCALL ISZERO DUP1 ISZERO PUSH2 0x1292 JUMPI RETURNDATASIZE PUSH1 0x0 DUP1 RETURNDATACOPY RETURNDATASIZE PUSH1 0x0 REVERT JUMPDEST POP POP POP POP PUSH1 0x40 MLOAD RETURNDATASIZE PUSH1 0x1F NOT PUSH1 0x1F DUP3 ADD AND DUP3 ADD DUP1 PUSH1 0x40 MSTORE POP DUP2 ADD SWAP1 PUSH2 0x12B6 SWAP2 SWAP1 PUSH2 0x3183 JUMP JUMPDEST DUP2 PUSH1 0x2 ADD SLOAD PUSH2 0x12C5 SWAP2 SWAP1 PUSH2 0x378C JUMP JUMPDEST TIMESTAMP LT PUSH2 0x12D4 JUMPI POP PUSH1 0x6 SWAP3 SWAP2 POP POP JUMP JUMPDEST POP PUSH1 0x5 SWAP3 SWAP2 POP POP JUMP JUMPDEST POP SWAP2 SWAP1 POP JUMP JUMPDEST PUSH1 0x7 PUSH2 0x12EE DUP3 PUSH2 0x111E JUMP JUMPDEST PUSH1 0x7 DUP2 GT ISZERO PUSH2 0x12FF JUMPI PUSH2 0x12FF PUSH2 0x3851 JUMP JUMPDEST EQ ISZERO PUSH2 0x136C JUMPI PUSH1 0x40 MLOAD PUSH3 0x461BCD PUSH1 0xE5 SHL DUP2 MSTORE PUSH1 0x20 PUSH1 0x4 DUP3 ADD MSTORE PUSH1 0x36 PUSH1 0x24 DUP3 ADD MSTORE PUSH32 0x476F7665726E6F72427261766F3A3A63616E63656C3A2063616E6E6F74206361 PUSH1 0x44 DUP3 ADD MSTORE PUSH22 0x1B98D95B08195E1958DD5D1959081C1C9BDC1BDCD85B PUSH1 0x52 SHL PUSH1 0x64 DUP3 ADD MSTORE PUSH1 0x84 ADD PUSH2 0x8CD JUMP JUMPDEST PUSH1 0x0 DUP2 DUP2 MSTORE PUSH1 0x9 PUSH1 0x20 MSTORE PUSH1 0x40 SWAP1 KECCAK256 PUSH1 0x1 DUP2 ADD SLOAD PUSH1 0x1 PUSH1 0x1 PUSH1 0xA0 SHL SUB AND CALLER EQ DUP1 PUSH2 0x1442 JUMPI POP PUSH1 0x5 SLOAD PUSH1 0x8 SLOAD PUSH1 0x1 DUP4 DUP2 ADD SLOAD PUSH1 0x1 PUSH1 0x1 PUSH1 0xA0 SHL SUB SWAP3 DUP4 AND SWAP3 PUSH4 0x782D6FE1 SWAP3 SWAP2 AND SWAP1 PUSH2 0x13BB SWAP1 NUMBER PUSH2 0x37A4 JUMP JUMPDEST PUSH1 0x40 MLOAD PUSH1 0x1 PUSH1 0x1 PUSH1 0xE0 SHL SUB NOT PUSH1 0xE0 DUP6 SWAP1 SHL AND DUP2 MSTORE PUSH1 0x1 PUSH1 0x1 PUSH1 0xA0 SHL SUB SWAP1 SWAP3 AND PUSH1 0x4 DUP4 ADD MSTORE PUSH1 0x24 DUP3 ADD MSTORE PUSH1 0x44 ADD PUSH1 0x20 PUSH1 0x40 MLOAD DUP1 DUP4 SUB DUP2 DUP7 DUP1 EXTCODESIZE ISZERO DUP1 ISZERO PUSH2 0x13FF JUMPI PUSH1 0x0 DUP1 REVERT JUMPDEST POP GAS STATICCALL ISZERO DUP1 ISZERO PUSH2 0x1413 JUMPI RETURNDATASIZE PUSH1 0x0 DUP1 RETURNDATACOPY RETURNDATASIZE PUSH1 0x0 REVERT JUMPDEST POP POP POP POP PUSH1 0x40 MLOAD RETURNDATASIZE PUSH1 0x1F NOT PUSH1 0x1F DUP3 ADD AND DUP3 ADD DUP1 PUSH1 0x40 MSTORE POP DUP2 ADD SWAP1 PUSH2 0x1437 SWAP2 SWAP1 PUSH2 0x3350 JUMP JUMPDEST PUSH1 0x1 PUSH1 0x1 PUSH1 0x60 SHL SUB AND LT JUMPDEST PUSH2 0x14A6 JUMPI PUSH1 0x40 MLOAD PUSH3 0x461BCD PUSH1 0xE5 SHL DUP2 MSTORE PUSH1 0x20 PUSH1 0x4 DUP3 ADD MSTORE PUSH1 0x2F PUSH1 0x24 DUP3 ADD MSTORE PUSH32 0x476F7665726E6F72427261766F3A3A63616E63656C3A2070726F706F73657220 PUSH1 0x44 DUP3 ADD MSTORE PUSH15 0x18589BDD99481D1A1C995CDA1BDB19 PUSH1 0x8A SHL PUSH1 0x64 DUP3 ADD MSTORE PUSH1 0x84 ADD PUSH2 0x8CD JUMP JUMPDEST PUSH1 0xC DUP2 ADD DUP1 SLOAD PUSH1 0xFF NOT AND PUSH1 0x1 OR SWAP1 SSTORE PUSH1 0x0 JUMPDEST PUSH1 0x3 DUP3 ADD SLOAD DUP2 LT ISZERO PUSH2 0x15D1 JUMPI PUSH1 0x7 SLOAD PUSH1 0x3 DUP4 ADD DUP1 SLOAD PUSH1 0x1 PUSH1 0x1 PUSH1 0xA0 SHL SUB SWAP1 SWAP3 AND SWAP2 PUSH4 0x591FCDFE SWAP2 SWAP1 DUP5 SWAP1 DUP2 LT PUSH2 0x14F0 JUMPI PUSH2 0x14F0 PUSH2 0x3867 JUMP JUMPDEST PUSH1 0x0 SWAP2 DUP3 MSTORE PUSH1 0x20 SWAP1 SWAP2 KECCAK256 ADD SLOAD PUSH1 0x4 DUP6 ADD DUP1 SLOAD PUSH1 0x1 PUSH1 0x1 PUSH1 0xA0 SHL SUB SWAP1 SWAP3 AND SWAP2 DUP6 SWAP1 DUP2 LT PUSH2 0x151E JUMPI PUSH2 0x151E PUSH2 0x3867 JUMP JUMPDEST SWAP1 PUSH1 0x0 MSTORE PUSH1 0x20 PUSH1 0x0 KECCAK256 ADD SLOAD DUP6 PUSH1 0x5 ADD DUP6 DUP2 SLOAD DUP2 LT PUSH2 0x153E JUMPI PUSH2 0x153E PUSH2 0x3867 JUMP JUMPDEST SWAP1 PUSH1 0x0 MSTORE PUSH1 0x20 PUSH1 0x0 KECCAK256 ADD DUP7 PUSH1 0x6 ADD DUP7 DUP2 SLOAD DUP2 LT PUSH2 0x155D JUMPI PUSH2 0x155D PUSH2 0x3867 JUMP JUMPDEST SWAP1 PUSH1 0x0 MSTORE PUSH1 0x20 PUSH1 0x0 KECCAK256 ADD DUP8 PUSH1 0x2 ADD SLOAD PUSH1 0x40 MLOAD DUP7 PUSH4 0xFFFFFFFF AND PUSH1 0xE0 SHL DUP2 MSTORE PUSH1 0x4 ADD PUSH2 0x158C SWAP6 SWAP5 SWAP4 SWAP3 SWAP2 SWAP1 PUSH2 0x355B JUMP JUMPDEST PUSH1 0x0 PUSH1 0x40 MLOAD DUP1 DUP4 SUB DUP2 PUSH1 0x0 DUP8 DUP1 EXTCODESIZE ISZERO DUP1 ISZERO PUSH2 0x15A6 JUMPI PUSH1 0x0 DUP1 REVERT JUMPDEST POP GAS CALL ISZERO DUP1 ISZERO PUSH2 0x15BA JUMPI RETURNDATASIZE PUSH1 0x0 DUP1 RETURNDATACOPY RETURNDATASIZE PUSH1 0x0 REVERT JUMPDEST POP POP POP POP DUP1 DUP1 PUSH2 0x15C9 SWAP1 PUSH2 0x3820 JUMP JUMPDEST SWAP2 POP POP PUSH2 0x14B8 JUMP JUMPDEST POP PUSH1 0x40 MLOAD DUP3 DUP2 MSTORE PUSH32 0x789CF55BE980739DAD1D0699B93B58E806B51C9D96619BFA8FE0A28ABAA7B30C SWAP1 PUSH1 0x20 ADD PUSH2 0x990 JUMP JUMPDEST CALLER PUSH32 0xB8E138887D0AA13BAB447E82DE9D5C1777041ECD21CA36BA824FF1E6C07DDDA4 DUP4 DUP4 PUSH2 0x1631 DUP5 DUP4 DUP4 PUSH2 0x267D JUMP JUMPDEST PUSH1 0x40 DUP1 MLOAD SWAP4 DUP5 MSTORE PUSH1 0xFF SWAP1 SWAP3 AND PUSH1 0x20 DUP5 ADD MSTORE PUSH1 0x1 PUSH1 0x1 PUSH1 0x60 SHL SUB AND SWAP1 DUP3 ADD MSTORE PUSH1 0x80 PUSH1 0x60 DUP3 ADD DUP2 SWAP1 MSTORE PUSH1 0x0 SWAP1 DUP3 ADD MSTORE PUSH1 0xA0 ADD PUSH1 0x40 MLOAD DUP1 SWAP2 SUB SWAP1 LOG2 POP POP JUMP JUMPDEST CALLER PUSH32 0xB8E138887D0AA13BAB447E82DE9D5C1777041ECD21CA36BA824FF1E6C07DDDA4 DUP6 DUP6 PUSH2 0x169C DUP5 DUP4 DUP4 PUSH2 0x267D JUMP JUMPDEST DUP7 DUP7 PUSH1 0x40 MLOAD PUSH2 0x16AF SWAP6 SWAP5 SWAP4 SWAP3 SWAP2 SWAP1 PUSH2 0x36BF JUMP JUMPDEST PUSH1 0x40 MLOAD DUP1 SWAP2 SUB SWAP1 LOG2 POP POP POP POP JUMP JUMPDEST PUSH1 0x0 SLOAD PUSH1 0x1 PUSH1 0x1 PUSH1 0xA0 SHL SUB AND CALLER EQ PUSH2 0x172A JUMPI PUSH1 0x40 MLOAD PUSH3 0x461BCD PUSH1 0xE5 SHL DUP2 MSTORE PUSH1 0x20 PUSH1 0x4 DUP3 ADD MSTORE PUSH1 0x2A PUSH1 0x24 DUP3 ADD MSTORE PUSH32 0x476F7665726E6F72427261766F3A5F73657450656E64696E6741646D696E3A20 PUSH1 0x44 DUP3 ADD MSTORE PUSH10 0x61646D696E206F6E6C79 PUSH1 0xB0 SHL PUSH1 0x64 DUP3 ADD MSTORE PUSH1 0x84 ADD PUSH2 0x8CD JUMP JUMPDEST PUSH1 0x1 DUP1 SLOAD PUSH1 0x1 PUSH1 0x1 PUSH1 0xA0 SHL SUB DUP4 DUP2 AND PUSH1 0x1 PUSH1 0x1 PUSH1 0xA0 SHL SUB NOT DUP4 AND DUP2 OR SWAP1 SWAP4 SSTORE PUSH1 0x40 DUP1 MLOAD SWAP2 SWAP1 SWAP3 AND DUP1 DUP3 MSTORE PUSH1 0x20 DUP3 ADD SWAP4 SWAP1 SWAP4 MSTORE PUSH32 0xCA4F2F25D0898EDD99413412FB94012F9E54EC8142F9B093E7720646A95B16A9 SWAP2 ADD PUSH2 0x990 JUMP JUMPDEST PUSH1 0x7 SLOAD PUSH1 0x1 PUSH1 0x1 PUSH1 0xA0 SHL SUB AND ISZERO PUSH2 0x17F9 JUMPI PUSH1 0x40 MLOAD PUSH3 0x461BCD PUSH1 0xE5 SHL DUP2 MSTORE PUSH1 0x20 PUSH1 0x4 DUP3 ADD MSTORE PUSH1 0x33 PUSH1 0x24 DUP3 ADD MSTORE PUSH32 0x476F7665726E6F72427261766F3A3A696E697469616C697A653A2063616E206F PUSH1 0x44 DUP3 ADD MSTORE PUSH19 0x6E6C7920696E697469616C697A65206F6E6365 PUSH1 0x68 SHL PUSH1 0x64 DUP3 ADD MSTORE PUSH1 0x84 ADD PUSH2 0x8CD JUMP JUMPDEST PUSH1 0x1 PUSH1 0x1 PUSH1 0xA0 SHL SUB DUP6 AND PUSH2 0x1859 JUMPI PUSH1 0x40 MLOAD PUSH3 0x461BCD PUSH1 0xE5 SHL DUP2 MSTORE PUSH1 0x20 PUSH1 0x4 DUP3 ADD MSTORE PUSH1 0x33 PUSH1 0x24 DUP3 ADD MSTORE PUSH1 0x0 DUP1 MLOAD PUSH1 0x20 PUSH2 0x3894 DUP4 CODECOPY DUP2 MLOAD SWAP2 MSTORE PUSH1 0x44 DUP3 ADD MSTORE PUSH19 0x69642074696D656C6F636B2061646472657373 PUSH1 0x68 SHL PUSH1 0x64 DUP3 ADD MSTORE PUSH1 0x84 ADD PUSH2 0x8CD JUMP JUMPDEST PUSH1 0x1 PUSH1 0x1 PUSH1 0xA0 SHL SUB DUP5 AND PUSH2 0x18C3 JUMPI PUSH1 0x40 MLOAD PUSH3 0x461BCD PUSH1 0xE5 SHL DUP2 MSTORE PUSH1 0x20 PUSH1 0x4 DUP3 ADD MSTORE PUSH1 0x3B PUSH1 0x24 DUP3 ADD MSTORE PUSH1 0x0 DUP1 MLOAD PUSH1 0x20 PUSH2 0x3894 DUP4 CODECOPY DUP2 MLOAD SWAP2 MSTORE PUSH1 0x44 DUP3 ADD MSTORE PUSH32 0x696420676F7665726E616E636520746F6B656E20616464726573730000000000 PUSH1 0x64 DUP3 ADD MSTORE PUSH1 0x84 ADD PUSH2 0x8CD JUMP JUMPDEST PUSH2 0x1680 DUP4 LT ISZERO DUP1 ISZERO PUSH2 0x18D8 JUMPI POP PUSH3 0x13B00 DUP4 GT ISZERO JUMPDEST PUSH2 0x192B JUMPI PUSH1 0x40 MLOAD PUSH3 0x461BCD PUSH1 0xE5 SHL DUP2 MSTORE PUSH1 0x20 PUSH1 0x4 DUP3 ADD MSTORE PUSH1 0x30 PUSH1 0x24 DUP3 ADD MSTORE PUSH1 0x0 DUP1 MLOAD PUSH1 0x20 PUSH2 0x3894 DUP4 CODECOPY DUP2 MLOAD SWAP2 MSTORE PUSH1 0x44 DUP3 ADD MSTORE PUSH16 0x1A59081D9BDD1A5B99C81C195C9A5BD9 PUSH1 0x82 SHL PUSH1 0x64 DUP3 ADD MSTORE PUSH1 0x84 ADD PUSH2 0x8CD JUMP JUMPDEST PUSH1 0x1 DUP3 LT ISZERO DUP1 ISZERO PUSH2 0x193E JUMPI POP PUSH2 0x9D80 DUP3 GT ISZERO JUMPDEST PUSH2 0x1990 JUMPI PUSH1 0x40 MLOAD PUSH3 0x461BCD PUSH1 0xE5 SHL DUP2 MSTORE PUSH1 0x20 PUSH1 0x4 DUP3 ADD MSTORE PUSH1 0x2F PUSH1 0x24 DUP3 ADD MSTORE PUSH1 0x0 DUP1 MLOAD PUSH1 0x20 PUSH2 0x3894 DUP4 CODECOPY DUP2 MLOAD SWAP2 MSTORE PUSH1 0x44 DUP3 ADD MSTORE PUSH15 0x696420766F74696E672064656C6179 PUSH1 0x88 SHL PUSH1 0x64 DUP3 ADD MSTORE PUSH1 0x84 ADD PUSH2 0x8CD JUMP JUMPDEST PUSH11 0x27B46536C66C8E3000000 DUP2 LT ISZERO DUP1 ISZERO PUSH2 0x19B6 JUMPI POP PUSH11 0x2116545850052128000000 DUP2 GT ISZERO JUMPDEST PUSH2 0x1A0E JUMPI PUSH1 0x40 MLOAD PUSH3 0x461BCD PUSH1 0xE5 SHL DUP2 MSTORE PUSH1 0x20 PUSH1 0x4 DUP3 ADD MSTORE PUSH1 0x35 PUSH1 0x24 DUP3 ADD MSTORE PUSH1 0x0 DUP1 MLOAD PUSH1 0x20 PUSH2 0x3894 DUP4 CODECOPY DUP2 MLOAD SWAP2 MSTORE PUSH1 0x44 DUP3 ADD MSTORE PUSH21 0x1A59081C1C9BDC1BDCD85B081D1A1C995CDA1BDB19 PUSH1 0x5A SHL PUSH1 0x64 DUP3 ADD MSTORE PUSH1 0x84 ADD PUSH2 0x8CD JUMP JUMPDEST PUSH1 0x0 DUP1 SLOAD PUSH1 0x1 PUSH1 0x1 PUSH1 0xA0 SHL SUB SWAP7 DUP8 AND PUSH1 0x1 PUSH1 0x1 PUSH1 0xA0 SHL SUB NOT SWAP2 DUP3 AND DUP2 OR SWAP1 SWAP3 SSTORE PUSH1 0x7 DUP1 SLOAD DUP3 AND SWAP1 SWAP3 OR SWAP1 SWAP2 SSTORE PUSH1 0x8 DUP1 SLOAD SWAP6 SWAP1 SWAP7 AND SWAP5 AND SWAP4 SWAP1 SWAP4 OR SWAP1 SWAP4 SSTORE PUSH1 0x4 SSTORE PUSH1 0x3 SWAP2 SWAP1 SWAP2 SSTORE PUSH1 0x5 SSTORE JUMP JUMPDEST PUSH1 0x5 SLOAD PUSH1 0x8 SLOAD PUSH1 0x0 SWAP2 SWAP1 PUSH1 0x1 PUSH1 0x1 PUSH1 0xA0 SHL SUB AND PUSH4 0x782D6FE1 CALLER PUSH2 0x1A7D PUSH1 0x1 NUMBER PUSH2 0x37A4 JUMP JUMPDEST PUSH1 0x40 MLOAD PUSH1 0x1 PUSH1 0x1 PUSH1 0xE0 SHL SUB NOT PUSH1 0xE0 DUP6 SWAP1 SHL AND DUP2 MSTORE PUSH1 0x1 PUSH1 0x1 PUSH1 0xA0 SHL SUB SWAP1 SWAP3 AND PUSH1 0x4 DUP4 ADD MSTORE PUSH1 0x24 DUP3 ADD MSTORE PUSH1 0x44 ADD PUSH1 0x20 PUSH1 0x40 MLOAD DUP1 DUP4 SUB DUP2 DUP7 DUP1 EXTCODESIZE ISZERO DUP1 ISZERO PUSH2 0x1AC1 JUMPI PUSH1 0x0 DUP1 REVERT JUMPDEST POP GAS STATICCALL ISZERO DUP1 ISZERO PUSH2 0x1AD5 JUMPI RETURNDATASIZE PUSH1 0x0 DUP1 RETURNDATACOPY RETURNDATASIZE PUSH1 0x0 REVERT JUMPDEST POP POP POP POP PUSH1 0x40 MLOAD RETURNDATASIZE PUSH1 0x1F NOT PUSH1 0x1F DUP3 ADD AND DUP3 ADD DUP1 PUSH1 0x40 MSTORE POP DUP2 ADD SWAP1 PUSH2 0x1AF9 SWAP2 SWAP1 PUSH2 0x3350 JUMP JUMPDEST PUSH1 0x1 PUSH1 0x1 PUSH1 0x60 SHL SUB AND GT PUSH2 0x1B75 JUMPI PUSH1 0x40 MLOAD PUSH3 0x461BCD PUSH1 0xE5 SHL DUP2 MSTORE PUSH1 0x20 PUSH1 0x4 DUP3 ADD MSTORE PUSH1 0x3F PUSH1 0x24 DUP3 ADD MSTORE PUSH32 0x476F7665726E6F72427261766F3A3A70726F706F73653A2070726F706F736572 PUSH1 0x44 DUP3 ADD MSTORE PUSH32 0x20766F7465732062656C6F772070726F706F73616C207468726573686F6C6400 PUSH1 0x64 DUP3 ADD MSTORE PUSH1 0x84 ADD PUSH2 0x8CD JUMP JUMPDEST DUP5 MLOAD DUP7 MLOAD EQ DUP1 ISZERO PUSH2 0x1B87 JUMPI POP DUP4 MLOAD DUP7 MLOAD EQ JUMPDEST DUP1 ISZERO PUSH2 0x1B94 JUMPI POP DUP3 MLOAD DUP7 MLOAD EQ JUMPDEST PUSH2 0x1C14 JUMPI PUSH1 0x40 MLOAD PUSH3 0x461BCD PUSH1 0xE5 SHL DUP2 MSTORE PUSH1 0x20 PUSH1 0x4 DUP3 ADD MSTORE PUSH1 0x44 PUSH1 0x24 DUP3 ADD DUP2 SWAP1 MSTORE PUSH32 0x476F7665726E6F72427261766F3A3A70726F706F73653A2070726F706F73616C SWAP1 DUP3 ADD MSTORE PUSH32 0x2066756E6374696F6E20696E666F726D6174696F6E206172697479206D69736D PUSH1 0x64 DUP3 ADD MSTORE PUSH4 0xC2E8C6D PUSH1 0xE3 SHL PUSH1 0x84 DUP3 ADD MSTORE PUSH1 0xA4 ADD PUSH2 0x8CD JUMP JUMPDEST DUP6 MLOAD PUSH2 0x1C77 JUMPI PUSH1 0x40 MLOAD PUSH3 0x461BCD PUSH1 0xE5 SHL DUP2 MSTORE PUSH1 0x20 PUSH1 0x4 DUP3 ADD MSTORE PUSH1 0x2C PUSH1 0x24 DUP3 ADD MSTORE PUSH32 0x476F7665726E6F72427261766F3A3A70726F706F73653A206D7573742070726F PUSH1 0x44 DUP3 ADD MSTORE PUSH12 0x7669646520616374696F6E73 PUSH1 0xA0 SHL PUSH1 0x64 DUP3 ADD MSTORE PUSH1 0x84 ADD PUSH2 0x8CD JUMP JUMPDEST PUSH1 0xA DUP7 MLOAD GT ISZERO PUSH2 0x1CDA JUMPI PUSH1 0x40 MLOAD PUSH3 0x461BCD PUSH1 0xE5 SHL DUP2 MSTORE PUSH1 0x20 PUSH1 0x4 DUP3 ADD MSTORE PUSH1 0x28 PUSH1 0x24 DUP3 ADD MSTORE PUSH32 0x476F7665726E6F72427261766F3A3A70726F706F73653A20746F6F206D616E79 PUSH1 0x44 DUP3 ADD MSTORE PUSH8 0x20616374696F6E73 PUSH1 0xC0 SHL PUSH1 0x64 DUP3 ADD MSTORE PUSH1 0x84 ADD PUSH2 0x8CD JUMP JUMPDEST CALLER PUSH1 0x0 SWAP1 DUP2 MSTORE PUSH1 0xA PUSH1 0x20 MSTORE PUSH1 0x40 SWAP1 KECCAK256 SLOAD DUP1 ISZERO PUSH2 0x1E5B JUMPI PUSH1 0x0 PUSH2 0x1CFB DUP3 PUSH2 0x111E JUMP JUMPDEST SWAP1 POP PUSH1 0x1 DUP2 PUSH1 0x7 DUP2 GT ISZERO PUSH2 0x1D11 JUMPI PUSH2 0x1D11 PUSH2 0x3851 JUMP JUMPDEST EQ ISZERO PUSH2 0x1DAB JUMPI PUSH1 0x40 MLOAD PUSH3 0x461BCD PUSH1 0xE5 SHL DUP2 MSTORE PUSH1 0x20 PUSH1 0x4 DUP3 ADD MSTORE PUSH1 0x58 PUSH1 0x24 DUP3 ADD MSTORE PUSH32 0x476F7665726E6F72427261766F3A3A70726F706F73653A206F6E65206C697665 PUSH1 0x44 DUP3 ADD MSTORE PUSH32 0x2070726F706F73616C207065722070726F706F7365722C20666F756E6420616E PUSH1 0x64 DUP3 ADD MSTORE PUSH32 0x20616C7265616479206163746976652070726F706F73616C0000000000000000 PUSH1 0x84 DUP3 ADD MSTORE PUSH1 0xA4 ADD PUSH2 0x8CD JUMP JUMPDEST PUSH1 0x0 DUP2 PUSH1 0x7 DUP2 GT ISZERO PUSH2 0x1DBF JUMPI PUSH2 0x1DBF PUSH2 0x3851 JUMP JUMPDEST EQ ISZERO PUSH2 0x1E59 JUMPI PUSH1 0x40 MLOAD PUSH3 0x461BCD PUSH1 0xE5 SHL DUP2 MSTORE PUSH1 0x20 PUSH1 0x4 DUP3 ADD MSTORE PUSH1 0x59 PUSH1 0x24 DUP3 ADD MSTORE PUSH32 0x476F7665726E6F72427261766F3A3A70726F706F73653A206F6E65206C697665 PUSH1 0x44 DUP3 ADD MSTORE PUSH32 0x2070726F706F73616C207065722070726F706F7365722C20666F756E6420616E PUSH1 0x64 DUP3 ADD MSTORE PUSH32 0x20616C72656164792070656E64696E672070726F706F73616C00000000000000 PUSH1 0x84 DUP3 ADD MSTORE PUSH1 0xA4 ADD PUSH2 0x8CD JUMP JUMPDEST POP JUMPDEST PUSH1 0x0 PUSH1 0x3 SLOAD NUMBER PUSH2 0x1E6B SWAP2 SWAP1 PUSH2 0x378C JUMP JUMPDEST SWAP1 POP PUSH1 0x0 PUSH1 0x4 SLOAD DUP3 PUSH2 0x1E7D SWAP2 SWAP1 PUSH2 0x378C JUMP JUMPDEST PUSH1 0x6 DUP1 SLOAD SWAP2 SWAP3 POP PUSH1 0x0 PUSH2 0x1E8F DUP4 PUSH2 0x3820 JUMP JUMPDEST SWAP1 SWAP2 SSTORE POP POP PUSH1 0x6 SLOAD PUSH1 0x0 DUP2 DUP2 MSTORE PUSH1 0x9 PUSH1 0x20 SWAP1 DUP2 MSTORE PUSH1 0x40 SWAP1 SWAP2 KECCAK256 SWAP2 DUP3 SSTORE PUSH1 0x1 DUP3 ADD DUP1 SLOAD PUSH1 0x1 PUSH1 0x1 PUSH1 0xA0 SHL SUB NOT AND CALLER OR SWAP1 SSTORE DUP11 MLOAD PUSH2 0x1ED3 SWAP2 PUSH1 0x3 DUP5 ADD SWAP2 SWAP1 DUP14 ADD SWAP1 PUSH2 0x2B46 JUMP JUMPDEST POP DUP9 MLOAD PUSH2 0x1EE9 SWAP1 PUSH1 0x4 DUP4 ADD SWAP1 PUSH1 0x20 DUP13 ADD SWAP1 PUSH2 0x2BAB JUMP JUMPDEST POP DUP8 MLOAD PUSH2 0x1EFF SWAP1 PUSH1 0x5 DUP4 ADD SWAP1 PUSH1 0x20 DUP12 ADD SWAP1 PUSH2 0x2BE6 JUMP JUMPDEST POP DUP7 MLOAD PUSH2 0x1F15 SWAP1 PUSH1 0x6 DUP4 ADD SWAP1 PUSH1 0x20 DUP11 ADD SWAP1 PUSH2 0x2C3F JUMP JUMPDEST POP DUP3 DUP2 PUSH1 0x7 ADD DUP2 SWAP1 SSTORE POP DUP2 DUP2 PUSH1 0x8 ADD DUP2 SWAP1 SSTORE POP DUP1 PUSH1 0x0 ADD SLOAD PUSH1 0xA PUSH1 0x0 DUP4 PUSH1 0x1 ADD PUSH1 0x0 SWAP1 SLOAD SWAP1 PUSH2 0x100 EXP SWAP1 DIV PUSH1 0x1 PUSH1 0x1 PUSH1 0xA0 SHL SUB AND PUSH1 0x1 PUSH1 0x1 PUSH1 0xA0 SHL SUB AND PUSH1 0x1 PUSH1 0x1 PUSH1 0xA0 SHL SUB AND DUP2 MSTORE PUSH1 0x20 ADD SWAP1 DUP2 MSTORE PUSH1 0x20 ADD PUSH1 0x0 KECCAK256 DUP2 SWAP1 SSTORE POP PUSH32 0x7D84A6263AE0D98D3329BD7B46BB4E8D6F98CD35A7ADB45C274C8B7FD5EBD5E0 DUP2 PUSH1 0x0 ADD SLOAD CALLER DUP13 DUP13 DUP13 DUP13 DUP10 DUP10 DUP15 PUSH1 0x40 MLOAD PUSH2 0x1FB0 SWAP10 SWAP9 SWAP8 SWAP7 SWAP6 SWAP5 SWAP4 SWAP3 SWAP2 SWAP1 PUSH2 0x3627 JUMP JUMPDEST PUSH1 0x40 MLOAD DUP1 SWAP2 SUB SWAP1 LOG1 SLOAD SWAP10 SWAP9 POP POP POP POP POP POP POP POP POP JUMP JUMPDEST PUSH1 0x4 PUSH2 0x1FD1 DUP3 PUSH2 0x111E JUMP JUMPDEST PUSH1 0x7 DUP2 GT ISZERO PUSH2 0x1FE2 JUMPI PUSH2 0x1FE2 PUSH2 0x3851 JUMP JUMPDEST EQ PUSH2 0x2063 JUMPI PUSH1 0x40 MLOAD PUSH3 0x461BCD PUSH1 0xE5 SHL DUP2 MSTORE PUSH1 0x20 PUSH1 0x4 DUP3 ADD MSTORE PUSH1 0x44 PUSH1 0x24 DUP3 ADD DUP2 SWAP1 MSTORE PUSH32 0x476F7665726E6F72427261766F3A3A71756575653A2070726F706F73616C2063 SWAP1 DUP3 ADD MSTORE PUSH32 0x616E206F6E6C7920626520717565756564206966206974206973207375636365 PUSH1 0x64 DUP3 ADD MSTORE PUSH4 0x19591959 PUSH1 0xE2 SHL PUSH1 0x84 DUP3 ADD MSTORE PUSH1 0xA4 ADD PUSH2 0x8CD JUMP JUMPDEST PUSH1 0x0 DUP2 DUP2 MSTORE PUSH1 0x9 PUSH1 0x20 SWAP1 DUP2 MSTORE PUSH1 0x40 DUP1 DUP4 KECCAK256 PUSH1 0x7 SLOAD DUP3 MLOAD PUSH4 0xD48571F PUSH1 0xE3 SHL DUP2 MSTORE SWAP3 MLOAD SWAP2 SWAP5 SWAP4 PUSH1 0x1 PUSH1 0x1 PUSH1 0xA0 SHL SUB SWAP1 SWAP2 AND SWAP3 PUSH4 0x6A42B8F8 SWAP3 PUSH1 0x4 DUP1 DUP4 ADD SWAP4 SWAP3 DUP3 SWAP1 SUB ADD DUP2 DUP7 DUP1 EXTCODESIZE ISZERO DUP1 ISZERO PUSH2 0x20B5 JUMPI PUSH1 0x0 DUP1 REVERT JUMPDEST POP GAS STATICCALL ISZERO DUP1 ISZERO PUSH2 0x20C9 JUMPI RETURNDATASIZE PUSH1 0x0 DUP1 RETURNDATACOPY RETURNDATASIZE PUSH1 0x0 REVERT JUMPDEST POP POP POP POP PUSH1 0x40 MLOAD RETURNDATASIZE PUSH1 0x1F NOT PUSH1 0x1F DUP3 ADD AND DUP3 ADD DUP1 PUSH1 0x40 MSTORE POP DUP2 ADD SWAP1 PUSH2 0x20ED SWAP2 SWAP1 PUSH2 0x3183 JUMP JUMPDEST PUSH2 0x20F7 SWAP1 TIMESTAMP PUSH2 0x378C JUMP JUMPDEST SWAP1 POP PUSH1 0x0 JUMPDEST PUSH1 0x3 DUP4 ADD SLOAD DUP2 LT ISZERO PUSH2 0x22C1 JUMPI PUSH2 0x22AF DUP4 PUSH1 0x3 ADD DUP3 DUP2 SLOAD DUP2 LT PUSH2 0x2120 JUMPI PUSH2 0x2120 PUSH2 0x3867 JUMP JUMPDEST PUSH1 0x0 SWAP2 DUP3 MSTORE PUSH1 0x20 SWAP1 SWAP2 KECCAK256 ADD SLOAD PUSH1 0x4 DUP6 ADD DUP1 SLOAD PUSH1 0x1 PUSH1 0x1 PUSH1 0xA0 SHL SUB SWAP1 SWAP3 AND SWAP2 DUP5 SWAP1 DUP2 LT PUSH2 0x214E JUMPI PUSH2 0x214E PUSH2 0x3867 JUMP JUMPDEST SWAP1 PUSH1 0x0 MSTORE PUSH1 0x20 PUSH1 0x0 KECCAK256 ADD SLOAD DUP6 PUSH1 0x5 ADD DUP5 DUP2 SLOAD DUP2 LT PUSH2 0x216E JUMPI PUSH2 0x216E PUSH2 0x3867 JUMP JUMPDEST SWAP1 PUSH1 0x0 MSTORE PUSH1 0x20 PUSH1 0x0 KECCAK256 ADD DUP1 SLOAD PUSH2 0x2183 SWAP1 PUSH2 0x37EB JUMP JUMPDEST DUP1 PUSH1 0x1F ADD PUSH1 0x20 DUP1 SWAP2 DIV MUL PUSH1 0x20 ADD PUSH1 0x40 MLOAD SWAP1 DUP2 ADD PUSH1 0x40 MSTORE DUP1 SWAP3 SWAP2 SWAP1 DUP2 DUP2 MSTORE PUSH1 0x20 ADD DUP3 DUP1 SLOAD PUSH2 0x21AF SWAP1 PUSH2 0x37EB JUMP JUMPDEST DUP1 ISZERO PUSH2 0x21FC JUMPI DUP1 PUSH1 0x1F LT PUSH2 0x21D1 JUMPI PUSH2 0x100 DUP1 DUP4 SLOAD DIV MUL DUP4 MSTORE SWAP2 PUSH1 0x20 ADD SWAP2 PUSH2 0x21FC JUMP JUMPDEST DUP3 ADD SWAP2 SWAP1 PUSH1 0x0 MSTORE PUSH1 0x20 PUSH1 0x0 KECCAK256 SWAP1 JUMPDEST DUP2 SLOAD DUP2 MSTORE SWAP1 PUSH1 0x1 ADD SWAP1 PUSH1 0x20 ADD DUP1 DUP4 GT PUSH2 0x21DF JUMPI DUP3 SWAP1 SUB PUSH1 0x1F AND DUP3 ADD SWAP2 JUMPDEST POP POP POP POP POP DUP7 PUSH1 0x6 ADD DUP6 DUP2 SLOAD DUP2 LT PUSH2 0x2216 JUMPI PUSH2 0x2216 PUSH2 0x3867 JUMP JUMPDEST SWAP1 PUSH1 0x0 MSTORE PUSH1 0x20 PUSH1 0x0 KECCAK256 ADD DUP1 SLOAD PUSH2 0x222B SWAP1 PUSH2 0x37EB JUMP JUMPDEST DUP1 PUSH1 0x1F ADD PUSH1 0x20 DUP1 SWAP2 DIV MUL PUSH1 0x20 ADD PUSH1 0x40 MLOAD SWAP1 DUP2 ADD PUSH1 0x40 MSTORE DUP1 SWAP3 SWAP2 SWAP1 DUP2 DUP2 MSTORE PUSH1 0x20 ADD DUP3 DUP1 SLOAD PUSH2 0x2257 SWAP1 PUSH2 0x37EB JUMP JUMPDEST DUP1 ISZERO PUSH2 0x22A4 JUMPI DUP1 PUSH1 0x1F LT PUSH2 0x2279 JUMPI PUSH2 0x100 DUP1 DUP4 SLOAD DIV MUL DUP4 MSTORE SWAP2 PUSH1 0x20 ADD SWAP2 PUSH2 0x22A4 JUMP JUMPDEST DUP3 ADD SWAP2 SWAP1 PUSH1 0x0 MSTORE PUSH1 0x20 PUSH1 0x0 KECCAK256 SWAP1 JUMPDEST DUP2 SLOAD DUP2 MSTORE SWAP1 PUSH1 0x1 ADD SWAP1 PUSH1 0x20 ADD DUP1 DUP4 GT PUSH2 0x2287 JUMPI DUP3 SWAP1 SUB PUSH1 0x1F AND DUP3 ADD SWAP2 JUMPDEST POP POP POP POP POP DUP7 PUSH2 0x2971 JUMP JUMPDEST DUP1 PUSH2 0x22B9 DUP2 PUSH2 0x3820 JUMP JUMPDEST SWAP2 POP POP PUSH2 0x20FC JUMP JUMPDEST POP PUSH1 0x2 DUP3 ADD DUP2 SWAP1 SSTORE PUSH1 0x40 DUP1 MLOAD DUP5 DUP2 MSTORE PUSH1 0x20 DUP2 ADD DUP4 SWAP1 MSTORE PUSH32 0x9A2E42FD6722813D69113E7D0079D3D940171428DF7373DF9C7F7617CFDA2892 SWAP2 ADD PUSH1 0x40 MLOAD DUP1 SWAP2 SUB SWAP1 LOG1 POP POP POP JUMP JUMPDEST PUSH1 0x1 SLOAD PUSH1 0x1 PUSH1 0x1 PUSH1 0xA0 SHL SUB AND CALLER EQ DUP1 ISZERO PUSH2 0x2320 JUMPI POP CALLER ISZERO ISZERO JUMPDEST PUSH2 0x2383 JUMPI PUSH1 0x40 MLOAD PUSH3 0x461BCD PUSH1 0xE5 SHL DUP2 MSTORE PUSH1 0x20 PUSH1 0x4 DUP3 ADD MSTORE PUSH1 0x2E PUSH1 0x24 DUP3 ADD MSTORE PUSH32 0x476F7665726E6F72427261766F3A5F61636365707441646D696E3A2070656E64 PUSH1 0x44 DUP3 ADD MSTORE PUSH14 0x696E672061646D696E206F6E6C79 PUSH1 0x90 SHL PUSH1 0x64 DUP3 ADD MSTORE PUSH1 0x84 ADD PUSH2 0x8CD JUMP JUMPDEST PUSH1 0x0 DUP1 SLOAD PUSH1 0x1 DUP1 SLOAD PUSH1 0x1 PUSH1 0x1 PUSH1 0xA0 SHL SUB DUP1 DUP3 AND PUSH1 0x1 PUSH1 0x1 PUSH1 0xA0 SHL SUB NOT DUP1 DUP7 AND DUP3 OR SWAP1 SWAP7 SSTORE SWAP5 SWAP1 SWAP2 AND SWAP1 SWAP2 SSTORE PUSH1 0x40 DUP1 MLOAD SWAP2 SWAP1 SWAP3 AND DUP1 DUP3 MSTORE PUSH1 0x20 DUP3 ADD DUP5 SWAP1 MSTORE SWAP3 SWAP2 PUSH32 0xF9FFABCA9C8276E99321725BCB43FB076A6C66A54B7F21C4E8146D8519B417DC SWAP2 ADD PUSH1 0x40 MLOAD DUP1 SWAP2 SUB SWAP1 LOG1 PUSH1 0x1 SLOAD PUSH1 0x40 DUP1 MLOAD PUSH1 0x1 PUSH1 0x1 PUSH1 0xA0 SHL SUB DUP1 DUP6 AND DUP3 MSTORE SWAP1 SWAP3 AND PUSH1 0x20 DUP4 ADD MSTORE PUSH32 0xCA4F2F25D0898EDD99413412FB94012F9E54EC8142F9B093E7720646A95B16A9 SWAP2 ADD PUSH2 0x990 JUMP JUMPDEST PUSH1 0x5 PUSH2 0x243C DUP3 PUSH2 0x111E JUMP JUMPDEST PUSH1 0x7 DUP2 GT ISZERO PUSH2 0x244D JUMPI PUSH2 0x244D PUSH2 0x3851 JUMP JUMPDEST EQ PUSH2 0x24CE JUMPI PUSH1 0x40 MLOAD PUSH3 0x461BCD PUSH1 0xE5 SHL DUP2 MSTORE PUSH1 0x20 PUSH1 0x4 DUP3 ADD MSTORE PUSH1 0x45 PUSH1 0x24 DUP3 ADD MSTORE PUSH32 0x476F7665726E6F72427261766F3A3A657865637574653A2070726F706F73616C PUSH1 0x44 DUP3 ADD MSTORE PUSH32 0x2063616E206F6E6C792062652065786563757465642069662069742069732071 PUSH1 0x64 DUP3 ADD MSTORE PUSH5 0x1D595D5959 PUSH1 0xDA SHL PUSH1 0x84 DUP3 ADD MSTORE PUSH1 0xA4 ADD PUSH2 0x8CD JUMP JUMPDEST PUSH1 0x0 DUP2 DUP2 MSTORE PUSH1 0x9 PUSH1 0x20 MSTORE PUSH1 0x40 DUP2 KECCAK256 PUSH1 0xC DUP2 ADD DUP1 SLOAD PUSH2 0xFF00 NOT AND PUSH2 0x100 OR SWAP1 SSTORE SWAP1 JUMPDEST PUSH1 0x3 DUP3 ADD SLOAD DUP2 LT ISZERO PUSH2 0x264C JUMPI PUSH1 0x7 SLOAD PUSH1 0x4 DUP4 ADD DUP1 SLOAD PUSH1 0x1 PUSH1 0x1 PUSH1 0xA0 SHL SUB SWAP1 SWAP3 AND SWAP2 PUSH4 0x825F38F SWAP2 SWAP1 DUP5 SWAP1 DUP2 LT PUSH2 0x2527 JUMPI PUSH2 0x2527 PUSH2 0x3867 JUMP JUMPDEST SWAP1 PUSH1 0x0 MSTORE PUSH1 0x20 PUSH1 0x0 KECCAK256 ADD SLOAD DUP5 PUSH1 0x3 ADD DUP5 DUP2 SLOAD DUP2 LT PUSH2 0x2547 JUMPI PUSH2 0x2547 PUSH2 0x3867 JUMP JUMPDEST PUSH1 0x0 SWAP2 DUP3 MSTORE PUSH1 0x20 SWAP1 SWAP2 KECCAK256 ADD SLOAD PUSH1 0x4 DUP7 ADD DUP1 SLOAD PUSH1 0x1 PUSH1 0x1 PUSH1 0xA0 SHL SUB SWAP1 SWAP3 AND SWAP2 DUP7 SWAP1 DUP2 LT PUSH2 0x2575 JUMPI PUSH2 0x2575 PUSH2 0x3867 JUMP JUMPDEST SWAP1 PUSH1 0x0 MSTORE PUSH1 0x20 PUSH1 0x0 KECCAK256 ADD SLOAD DUP7 PUSH1 0x5 ADD DUP7 DUP2 SLOAD DUP2 LT PUSH2 0x2595 JUMPI PUSH2 0x2595 PUSH2 0x3867 JUMP JUMPDEST SWAP1 PUSH1 0x0 MSTORE PUSH1 0x20 PUSH1 0x0 KECCAK256 ADD DUP8 PUSH1 0x6 ADD DUP8 DUP2 SLOAD DUP2 LT PUSH2 0x25B4 JUMPI PUSH2 0x25B4 PUSH2 0x3867 JUMP JUMPDEST SWAP1 PUSH1 0x0 MSTORE PUSH1 0x20 PUSH1 0x0 KECCAK256 ADD DUP9 PUSH1 0x2 ADD SLOAD PUSH1 0x40 MLOAD DUP8 PUSH4 0xFFFFFFFF AND PUSH1 0xE0 SHL DUP2 MSTORE PUSH1 0x4 ADD PUSH2 0x25E3 SWAP6 SWAP5 SWAP4 SWAP3 SWAP2 SWAP1 PUSH2 0x355B JUMP JUMPDEST PUSH1 0x0 PUSH1 0x40 MLOAD DUP1 DUP4 SUB DUP2 DUP6 DUP9 DUP1 EXTCODESIZE ISZERO DUP1 ISZERO PUSH2 0x25FC JUMPI PUSH1 0x0 DUP1 REVERT JUMPDEST POP GAS CALL ISZERO DUP1 ISZERO PUSH2 0x2610 JUMPI RETURNDATASIZE PUSH1 0x0 DUP1 RETURNDATACOPY RETURNDATASIZE PUSH1 0x0 REVERT JUMPDEST POP POP POP POP POP PUSH1 0x40 MLOAD RETURNDATASIZE PUSH1 0x0 DUP3 RETURNDATACOPY PUSH1 0x1F RETURNDATASIZE SWAP1 DUP2 ADD PUSH1 0x1F NOT AND DUP3 ADD PUSH1 0x40 MSTORE PUSH2 0x2639 SWAP2 SWAP1 DUP2 ADD SWAP1 PUSH2 0x319C JUMP JUMPDEST POP DUP1 PUSH2 0x2644 DUP2 PUSH2 0x3820 JUMP JUMPDEST SWAP2 POP POP PUSH2 0x24EF JUMP JUMPDEST POP PUSH1 0x40 MLOAD DUP3 DUP2 MSTORE PUSH32 0x712AE1383F79AC853F8D882153778E0260EF8F03B504E2866E0593E04D2B291F SWAP1 PUSH1 0x20 ADD PUSH2 0x990 JUMP JUMPDEST PUSH1 0x0 PUSH1 0x1 PUSH2 0x268A DUP5 PUSH2 0x111E JUMP JUMPDEST PUSH1 0x7 DUP2 GT ISZERO PUSH2 0x269B JUMPI PUSH2 0x269B PUSH2 0x3851 JUMP JUMPDEST EQ PUSH2 0x2702 JUMPI PUSH1 0x40 MLOAD PUSH3 0x461BCD PUSH1 0xE5 SHL DUP2 MSTORE PUSH1 0x20 PUSH1 0x4 DUP3 ADD MSTORE PUSH1 0x31 PUSH1 0x24 DUP3 ADD MSTORE PUSH32 0x476F7665726E6F72427261766F3A3A63617374566F7465496E7465726E616C3A PUSH1 0x44 DUP3 ADD MSTORE PUSH17 0x81D9BDD1A5B99C81A5CC818DB1BDCD959 PUSH1 0x7A SHL PUSH1 0x64 DUP3 ADD MSTORE PUSH1 0x84 ADD PUSH2 0x8CD JUMP JUMPDEST PUSH1 0x2 DUP3 PUSH1 0xFF AND GT ISZERO PUSH2 0x2771 JUMPI PUSH1 0x40 MLOAD PUSH3 0x461BCD PUSH1 0xE5 SHL DUP2 MSTORE PUSH1 0x20 PUSH1 0x4 DUP3 ADD MSTORE PUSH1 0x32 PUSH1 0x24 DUP3 ADD MSTORE PUSH32 0x476F7665726E6F72427261766F3A3A63617374566F7465496E7465726E616C3A PUSH1 0x44 DUP3 ADD MSTORE PUSH18 0x20696E76616C696420766F74652074797065 PUSH1 0x70 SHL PUSH1 0x64 DUP3 ADD MSTORE PUSH1 0x84 ADD PUSH2 0x8CD JUMP JUMPDEST PUSH1 0x0 DUP4 DUP2 MSTORE PUSH1 0x9 PUSH1 0x20 SWAP1 DUP2 MSTORE PUSH1 0x40 DUP1 DUP4 KECCAK256 PUSH1 0x1 PUSH1 0x1 PUSH1 0xA0 SHL SUB DUP9 AND DUP5 MSTORE PUSH1 0xD DUP2 ADD SWAP1 SWAP3 MSTORE SWAP1 SWAP2 KECCAK256 DUP1 SLOAD PUSH1 0xFF AND ISZERO PUSH2 0x2807 JUMPI PUSH1 0x40 MLOAD PUSH3 0x461BCD PUSH1 0xE5 SHL DUP2 MSTORE PUSH1 0x20 PUSH1 0x4 DUP3 ADD MSTORE PUSH1 0x34 PUSH1 0x24 DUP3 ADD MSTORE PUSH32 0x476F7665726E6F72427261766F3A3A63617374566F7465496E7465726E616C3A PUSH1 0x44 DUP3 ADD MSTORE PUSH20 0x81D9BDD195C88185B1C9958591E481D9BDD1959 PUSH1 0x62 SHL PUSH1 0x64 DUP3 ADD MSTORE PUSH1 0x84 ADD PUSH2 0x8CD JUMP JUMPDEST PUSH1 0x8 SLOAD PUSH1 0x7 DUP4 ADD SLOAD PUSH1 0x40 MLOAD PUSH4 0x782D6FE1 PUSH1 0xE0 SHL DUP2 MSTORE PUSH1 0x0 SWAP3 PUSH1 0x1 PUSH1 0x1 PUSH1 0xA0 SHL SUB AND SWAP2 PUSH4 0x782D6FE1 SWAP2 PUSH2 0x2851 SWAP2 DUP12 SWAP2 PUSH1 0x4 ADD PUSH1 0x1 PUSH1 0x1 PUSH1 0xA0 SHL SUB SWAP3 SWAP1 SWAP3 AND DUP3 MSTORE PUSH1 0x20 DUP3 ADD MSTORE PUSH1 0x40 ADD SWAP1 JUMP JUMPDEST PUSH1 0x20 PUSH1 0x40 MLOAD DUP1 DUP4 SUB DUP2 DUP7 DUP1 EXTCODESIZE ISZERO DUP1 ISZERO PUSH2 0x2869 JUMPI PUSH1 0x0 DUP1 REVERT JUMPDEST POP GAS STATICCALL ISZERO DUP1 ISZERO PUSH2 0x287D JUMPI RETURNDATASIZE PUSH1 0x0 DUP1 RETURNDATACOPY RETURNDATASIZE PUSH1 0x0 REVERT JUMPDEST POP POP POP POP PUSH1 0x40 MLOAD RETURNDATASIZE PUSH1 0x1F NOT PUSH1 0x1F DUP3 ADD AND DUP3 ADD DUP1 PUSH1 0x40 MSTORE POP DUP2 ADD SWAP1 PUSH2 0x28A1 SWAP2 SWAP1 PUSH2 0x3350 JUMP JUMPDEST SWAP1 POP PUSH1 0xFF DUP6 AND PUSH2 0x28CE JUMPI DUP1 PUSH1 0x1 PUSH1 0x1 PUSH1 0x60 SHL SUB AND DUP4 PUSH1 0xA ADD SLOAD PUSH2 0x28C4 SWAP2 SWAP1 PUSH2 0x378C JUMP JUMPDEST PUSH1 0xA DUP5 ADD SSTORE PUSH2 0x2928 JUMP JUMPDEST DUP5 PUSH1 0xFF AND PUSH1 0x1 EQ ISZERO PUSH2 0x28FD JUMPI DUP1 PUSH1 0x1 PUSH1 0x1 PUSH1 0x60 SHL SUB AND DUP4 PUSH1 0x9 ADD SLOAD PUSH2 0x28F3 SWAP2 SWAP1 PUSH2 0x378C JUMP JUMPDEST PUSH1 0x9 DUP5 ADD SSTORE PUSH2 0x2928 JUMP JUMPDEST DUP5 PUSH1 0xFF AND PUSH1 0x2 EQ ISZERO PUSH2 0x2928 JUMPI DUP1 PUSH1 0x1 PUSH1 0x1 PUSH1 0x60 SHL SUB AND DUP4 PUSH1 0xB ADD SLOAD PUSH2 0x2922 SWAP2 SWAP1 PUSH2 0x378C JUMP JUMPDEST PUSH1 0xB DUP5 ADD SSTORE JUMPDEST DUP2 SLOAD PUSH1 0x1 PUSH1 0x1 PUSH1 0x60 SHL SUB DUP3 AND PUSH3 0x10000 MUL PUSH14 0xFFFFFFFFFFFFFFFFFFFFFFFF0000 NOT PUSH1 0xFF DUP9 AND PUSH2 0x100 MUL PUSH2 0xFFFF NOT SWAP1 SWAP4 AND SWAP3 SWAP1 SWAP3 OR PUSH1 0x1 OR SWAP2 SWAP1 SWAP2 AND OR SWAP1 SWAP2 SSTORE SWAP2 POP POP SWAP4 SWAP3 POP POP POP JUMP JUMPDEST PUSH1 0x7 SLOAD PUSH1 0x40 MLOAD PUSH1 0x1 PUSH1 0x1 PUSH1 0xA0 SHL SUB SWAP1 SWAP2 AND SWAP1 PUSH4 0xF2B06537 SWAP1 PUSH2 0x299F SWAP1 DUP9 SWAP1 DUP9 SWAP1 DUP9 SWAP1 DUP9 SWAP1 DUP9 SWAP1 PUSH1 0x20 ADD PUSH2 0x350F JUMP JUMPDEST PUSH1 0x40 MLOAD PUSH1 0x20 DUP2 DUP4 SUB SUB DUP2 MSTORE SWAP1 PUSH1 0x40 MSTORE DUP1 MLOAD SWAP1 PUSH1 0x20 ADD KECCAK256 PUSH1 0x40 MLOAD DUP3 PUSH4 0xFFFFFFFF AND PUSH1 0xE0 SHL DUP2 MSTORE PUSH1 0x4 ADD PUSH2 0x29D3 SWAP2 DUP2 MSTORE PUSH1 0x20 ADD SWAP1 JUMP JUMPDEST PUSH1 0x20 PUSH1 0x40 MLOAD DUP1 DUP4 SUB DUP2 DUP7 DUP1 EXTCODESIZE ISZERO DUP1 ISZERO PUSH2 0x29EB JUMPI PUSH1 0x0 DUP1 REVERT JUMPDEST POP GAS STATICCALL ISZERO DUP1 ISZERO PUSH2 0x29FF JUMPI RETURNDATASIZE PUSH1 0x0 DUP1 RETURNDATACOPY RETURNDATASIZE PUSH1 0x0 REVERT JUMPDEST POP POP POP POP PUSH1 0x40 MLOAD RETURNDATASIZE PUSH1 0x1F NOT PUSH1 0x1F DUP3 ADD AND DUP3 ADD DUP1 PUSH1 0x40 MSTORE POP DUP2 ADD SWAP1 PUSH2 0x2A23 SWAP2 SWAP1 PUSH2 0x3161 JUMP JUMPDEST ISZERO PUSH2 0x2AB4 JUMPI PUSH1 0x40 MLOAD PUSH3 0x461BCD PUSH1 0xE5 SHL DUP2 MSTORE PUSH1 0x20 PUSH1 0x4 DUP3 ADD MSTORE PUSH1 0x55 PUSH1 0x24 DUP3 ADD MSTORE PUSH32 0x476F7665726E6F72427261766F3A3A71756575654F72526576657274496E7465 PUSH1 0x44 DUP3 ADD MSTORE PUSH32 0x726E616C3A206964656E746963616C2070726F706F73616C20616374696F6E20 PUSH1 0x64 DUP3 ADD MSTORE PUSH21 0x616C72656164792071756575656420617420657461 PUSH1 0x58 SHL PUSH1 0x84 DUP3 ADD MSTORE PUSH1 0xA4 ADD PUSH2 0x8CD JUMP JUMPDEST PUSH1 0x7 SLOAD PUSH1 0x40 MLOAD PUSH4 0x3A66F901 PUSH1 0xE0 SHL DUP2 MSTORE PUSH1 0x1 PUSH1 0x1 PUSH1 0xA0 SHL SUB SWAP1 SWAP2 AND SWAP1 PUSH4 0x3A66F901 SWAP1 PUSH2 0x2AEC SWAP1 DUP9 SWAP1 DUP9 SWAP1 DUP9 SWAP1 DUP9 SWAP1 DUP9 SWAP1 PUSH1 0x4 ADD PUSH2 0x350F JUMP JUMPDEST PUSH1 0x20 PUSH1 0x40 MLOAD DUP1 DUP4 SUB DUP2 PUSH1 0x0 DUP8 DUP1 EXTCODESIZE ISZERO DUP1 ISZERO PUSH2 0x2B06 JUMPI PUSH1 0x0 DUP1 REVERT JUMPDEST POP GAS CALL ISZERO DUP1 ISZERO PUSH2 0x2B1A JUMPI RETURNDATASIZE PUSH1 0x0 DUP1 RETURNDATACOPY RETURNDATASIZE PUSH1 0x0 REVERT JUMPDEST POP POP POP POP PUSH1 0x40 MLOAD RETURNDATASIZE PUSH1 0x1F NOT PUSH1 0x1F DUP3 ADD AND DUP3 ADD DUP1 PUSH1 0x40 MSTORE POP DUP2 ADD SWAP1 PUSH2 0x2B3E SWAP2 SWAP1 PUSH2 0x3183 JUMP JUMPDEST POP POP POP POP POP POP JUMP JUMPDEST DUP3 DUP1 SLOAD DUP3 DUP3 SSTORE SWAP1 PUSH1 0x0 MSTORE PUSH1 0x20 PUSH1 0x0 KECCAK256 SWAP1 DUP2 ADD SWAP3 DUP3 ISZERO PUSH2 0x2B9B JUMPI SWAP2 PUSH1 0x20 MUL DUP3 ADD JUMPDEST DUP3 DUP2 GT ISZERO PUSH2 0x2B9B JUMPI DUP3 MLOAD DUP3 SLOAD PUSH1 0x1 PUSH1 0x1 PUSH1 0xA0 SHL SUB NOT AND PUSH1 0x1 PUSH1 0x1 PUSH1 0xA0 SHL SUB SWAP1 SWAP2 AND OR DUP3 SSTORE PUSH1 0x20 SWAP1 SWAP3 ADD SWAP2 PUSH1 0x1 SWAP1 SWAP2 ADD SWAP1 PUSH2 0x2B66 JUMP JUMPDEST POP PUSH2 0x2BA7 SWAP3 SWAP2 POP PUSH2 0x2C98 JUMP JUMPDEST POP SWAP1 JUMP JUMPDEST DUP3 DUP1 SLOAD DUP3 DUP3 SSTORE SWAP1 PUSH1 0x0 MSTORE PUSH1 0x20 PUSH1 0x0 KECCAK256 SWAP1 DUP2 ADD SWAP3 DUP3 ISZERO PUSH2 0x2B9B JUMPI SWAP2 PUSH1 0x20 MUL DUP3 ADD JUMPDEST DUP3 DUP2 GT ISZERO PUSH2 0x2B9B JUMPI DUP3 MLOAD DUP3 SSTORE SWAP2 PUSH1 0x20 ADD SWAP2 SWAP1 PUSH1 0x1 ADD SWAP1 PUSH2 0x2BCB JUMP JUMPDEST DUP3 DUP1 SLOAD DUP3 DUP3 SSTORE SWAP1 PUSH1 0x0 MSTORE PUSH1 0x20 PUSH1 0x0 KECCAK256 SWAP1 DUP2 ADD SWAP3 DUP3 ISZERO PUSH2 0x2C33 JUMPI SWAP2 PUSH1 0x20 MUL DUP3 ADD JUMPDEST DUP3 DUP2 GT ISZERO PUSH2 0x2C33 JUMPI DUP3 MLOAD DUP1 MLOAD PUSH2 0x2C23 SWAP2 DUP5 SWAP2 PUSH1 0x20 SWAP1 SWAP2 ADD SWAP1 PUSH2 0x2CAD JUMP JUMPDEST POP SWAP2 PUSH1 0x20 ADD SWAP2 SWAP1 PUSH1 0x1 ADD SWAP1 PUSH2 0x2C06 JUMP JUMPDEST POP PUSH2 0x2BA7 SWAP3 SWAP2 POP PUSH2 0x2D20 JUMP JUMPDEST DUP3 DUP1 SLOAD DUP3 DUP3 SSTORE SWAP1 PUSH1 0x0 MSTORE PUSH1 0x20 PUSH1 0x0 KECCAK256 SWAP1 DUP2 ADD SWAP3 DUP3 ISZERO PUSH2 0x2C8C JUMPI SWAP2 PUSH1 0x20 MUL DUP3 ADD JUMPDEST DUP3 DUP2 GT ISZERO PUSH2 0x2C8C JUMPI DUP3 MLOAD DUP1 MLOAD PUSH2 0x2C7C SWAP2 DUP5 SWAP2 PUSH1 0x20 SWAP1 SWAP2 ADD SWAP1 PUSH2 0x2CAD JUMP JUMPDEST POP SWAP2 PUSH1 0x20 ADD SWAP2 SWAP1 PUSH1 0x1 ADD SWAP1 PUSH2 0x2C5F JUMP JUMPDEST POP PUSH2 0x2BA7 SWAP3 SWAP2 POP PUSH2 0x2D3D JUMP JUMPDEST JUMPDEST DUP1 DUP3 GT ISZERO PUSH2 0x2BA7 JUMPI PUSH1 0x0 DUP2 SSTORE PUSH1 0x1 ADD PUSH2 0x2C99 JUMP JUMPDEST DUP3 DUP1 SLOAD PUSH2 0x2CB9 SWAP1 PUSH2 0x37EB JUMP JUMPDEST SWAP1 PUSH1 0x0 MSTORE PUSH1 0x20 PUSH1 0x0 KECCAK256 SWAP1 PUSH1 0x1F ADD PUSH1 0x20 SWAP1 DIV DUP2 ADD SWAP3 DUP3 PUSH2 0x2CDB JUMPI PUSH1 0x0 DUP6 SSTORE PUSH2 0x2B9B JUMP JUMPDEST DUP3 PUSH1 0x1F LT PUSH2 0x2CF4 JUMPI DUP1 MLOAD PUSH1 0xFF NOT AND DUP4 DUP1 ADD OR DUP6 SSTORE PUSH2 0x2B9B JUMP JUMPDEST DUP3 DUP1 ADD PUSH1 0x1 ADD DUP6 SSTORE DUP3 ISZERO PUSH2 0x2B9B JUMPI SWAP2 DUP3 ADD DUP3 DUP2 GT ISZERO PUSH2 0x2B9B JUMPI DUP3 MLOAD DUP3 SSTORE SWAP2 PUSH1 0x20 ADD SWAP2 SWAP1 PUSH1 0x1 ADD SWAP1 PUSH2 0x2BCB JUMP JUMPDEST DUP1 DUP3 GT ISZERO PUSH2 0x2BA7 JUMPI PUSH1 0x0 PUSH2 0x2D34 DUP3 DUP3 PUSH2 0x2D5A JUMP JUMPDEST POP PUSH1 0x1 ADD PUSH2 0x2D20 JUMP JUMPDEST DUP1 DUP3 GT ISZERO PUSH2 0x2BA7 JUMPI PUSH1 0x0 PUSH2 0x2D51 DUP3 DUP3 PUSH2 0x2D5A JUMP JUMPDEST POP PUSH1 0x1 ADD PUSH2 0x2D3D JUMP JUMPDEST POP DUP1 SLOAD PUSH2 0x2D66 SWAP1 PUSH2 0x37EB JUMP JUMPDEST PUSH1 0x0 DUP3 SSTORE DUP1 PUSH1 0x1F LT PUSH2 0x2D76 JUMPI POP POP JUMP JUMPDEST PUSH1 0x1F ADD PUSH1 0x20 SWAP1 DIV SWAP1 PUSH1 0x0 MSTORE PUSH1 0x20 PUSH1 0x0 KECCAK256 SWAP1 DUP2 ADD SWAP1 PUSH2 0x2D94 SWAP2 SWAP1 PUSH2 0x2C98 JUMP JUMPDEST POP JUMP JUMPDEST PUSH1 0x0 PUSH2 0x2DAA PUSH2 0x2DA5 DUP5 PUSH2 0x3764 JUMP JUMPDEST PUSH2 0x370F JUMP JUMPDEST SWAP1 POP DUP3 DUP2 MSTORE DUP4 DUP4 DUP4 ADD GT ISZERO PUSH2 0x2DBE JUMPI PUSH1 0x0 DUP1 REVERT JUMPDEST DUP3 DUP3 PUSH1 0x20 DUP4 ADD CALLDATACOPY PUSH1 0x0 PUSH1 0x20 DUP5 DUP4 ADD ADD MSTORE SWAP4 SWAP3 POP POP POP JUMP JUMPDEST DUP1 CALLDATALOAD PUSH1 0x1 PUSH1 0x1 PUSH1 0xA0 SHL SUB DUP2 AND DUP2 EQ PUSH2 0x2DEC JUMPI PUSH1 0x0 DUP1 REVERT JUMPDEST SWAP2 SWAP1 POP JUMP JUMPDEST PUSH1 0x0 DUP3 PUSH1 0x1F DUP4 ADD SLT PUSH2 0x2E02 JUMPI PUSH1 0x0 DUP1 REVERT JUMPDEST DUP2 CALLDATALOAD PUSH1 0x20 PUSH2 0x2E12 PUSH2 0x2DA5 DUP4 PUSH2 0x3740 JUMP JUMPDEST DUP1 DUP4 DUP3 MSTORE DUP3 DUP3 ADD SWAP2 POP DUP3 DUP7 ADD DUP8 DUP5 DUP7 PUSH1 0x5 SHL DUP10 ADD ADD GT ISZERO PUSH2 0x2E32 JUMPI PUSH1 0x0 DUP1 REVERT JUMPDEST PUSH1 0x0 JUMPDEST DUP6 DUP2 LT ISZERO PUSH2 0x2E58 JUMPI PUSH2 0x2E46 DUP3 PUSH2 0x2DD5 JUMP JUMPDEST DUP5 MSTORE SWAP3 DUP5 ADD SWAP3 SWAP1 DUP5 ADD SWAP1 PUSH1 0x1 ADD PUSH2 0x2E35 JUMP JUMPDEST POP SWAP1 SWAP8 SWAP7 POP POP POP POP POP POP POP JUMP JUMPDEST PUSH1 0x0 DUP3 PUSH1 0x1F DUP4 ADD SLT PUSH2 0x2E76 JUMPI PUSH1 0x0 DUP1 REVERT JUMPDEST DUP2 CALLDATALOAD PUSH1 0x20 PUSH2 0x2E86 PUSH2 0x2DA5 DUP4 PUSH2 0x3740 JUMP JUMPDEST DUP1 DUP4 DUP3 MSTORE DUP3 DUP3 ADD SWAP2 POP DUP3 DUP7 ADD DUP8 DUP5 DUP7 PUSH1 0x5 SHL DUP10 ADD ADD GT ISZERO PUSH2 0x2EA6 JUMPI PUSH1 0x0 DUP1 REVERT JUMPDEST PUSH1 0x0 JUMPDEST DUP6 DUP2 LT ISZERO PUSH2 0x2E58 JUMPI DUP2 CALLDATALOAD PUSH8 0xFFFFFFFFFFFFFFFF DUP2 GT ISZERO PUSH2 0x2EC8 JUMPI PUSH1 0x0 DUP1 REVERT JUMPDEST DUP9 ADD PUSH1 0x3F DUP2 ADD DUP11 SGT PUSH2 0x2ED9 JUMPI PUSH1 0x0 DUP1 REVERT JUMPDEST PUSH2 0x2EEA DUP11 DUP8 DUP4 ADD CALLDATALOAD PUSH1 0x40 DUP5 ADD PUSH2 0x2D97 JUMP JUMPDEST DUP6 MSTORE POP SWAP3 DUP5 ADD SWAP3 SWAP1 DUP5 ADD SWAP1 PUSH1 0x1 ADD PUSH2 0x2EA9 JUMP JUMPDEST PUSH1 0x0 DUP3 PUSH1 0x1F DUP4 ADD SLT PUSH2 0x2F0E JUMPI PUSH1 0x0 DUP1 REVERT JUMPDEST DUP2 CALLDATALOAD PUSH1 0x20 PUSH2 0x2F1E PUSH2 0x2DA5 DUP4 PUSH2 0x3740 JUMP JUMPDEST DUP1 DUP4 DUP3 MSTORE DUP3 DUP3 ADD SWAP2 POP DUP3 DUP7 ADD DUP8 DUP5 DUP7 PUSH1 0x5 SHL DUP10 ADD ADD GT ISZERO PUSH2 0x2F3E JUMPI PUSH1 0x0 DUP1 REVERT JUMPDEST PUSH1 0x0 DUP1 JUMPDEST DUP7 DUP2 LT ISZERO PUSH2 0x2F81 JUMPI DUP3 CALLDATALOAD PUSH8 0xFFFFFFFFFFFFFFFF DUP2 GT ISZERO PUSH2 0x2F60 JUMPI DUP3 DUP4 REVERT JUMPDEST PUSH2 0x2F6E DUP12 DUP9 DUP4 DUP14 ADD ADD PUSH2 0x2FEF JUMP JUMPDEST DUP7 MSTORE POP SWAP4 DUP6 ADD SWAP4 SWAP2 DUP6 ADD SWAP2 PUSH1 0x1 ADD PUSH2 0x2F42 JUMP JUMPDEST POP SWAP2 SWAP9 SWAP8 POP POP POP POP POP POP POP POP JUMP JUMPDEST PUSH1 0x0 DUP3 PUSH1 0x1F DUP4 ADD SLT PUSH2 0x2FA0 JUMPI PUSH1 0x0 DUP1 REVERT JUMPDEST DUP2 CALLDATALOAD PUSH1 0x20 PUSH2 0x2FB0 PUSH2 0x2DA5 DUP4 PUSH2 0x3740 JUMP JUMPDEST DUP1 DUP4 DUP3 MSTORE DUP3 DUP3 ADD SWAP2 POP DUP3 DUP7 ADD DUP8 DUP5 DUP7 PUSH1 0x5 SHL DUP10 ADD ADD GT ISZERO PUSH2 0x2FD0 JUMPI PUSH1 0x0 DUP1 REVERT JUMPDEST PUSH1 0x0 JUMPDEST DUP6 DUP2 LT ISZERO PUSH2 0x2E58 JUMPI DUP2 CALLDATALOAD DUP5 MSTORE SWAP3 DUP5 ADD SWAP3 SWAP1 DUP5 ADD SWAP1 PUSH1 0x1 ADD PUSH2 0x2FD3 JUMP JUMPDEST PUSH1 0x0 DUP3 PUSH1 0x1F DUP4 ADD SLT PUSH2 0x3000 JUMPI PUSH1 0x0 DUP1 REVERT JUMPDEST PUSH2 0x300F DUP4 DUP4 CALLDATALOAD PUSH1 0x20 DUP6 ADD PUSH2 0x2D97 JUMP JUMPDEST SWAP4 SWAP3 POP POP POP JUMP JUMPDEST DUP1 CALLDATALOAD PUSH1 0xFF DUP2 AND DUP2 EQ PUSH2 0x2DEC JUMPI PUSH1 0x0 DUP1 REVERT JUMPDEST PUSH1 0x0 PUSH1 0x20 DUP3 DUP5 SUB SLT ISZERO PUSH2 0x3039 JUMPI PUSH1 0x0 DUP1 REVERT JUMPDEST PUSH2 0x300F DUP3 PUSH2 0x2DD5 JUMP JUMPDEST PUSH1 0x0 DUP1 PUSH1 0x0 DUP1 PUSH1 0x0 PUSH1 0xA0 DUP7 DUP9 SUB SLT ISZERO PUSH2 0x305A JUMPI PUSH1 0x0 DUP1 REVERT JUMPDEST PUSH2 0x3063 DUP7 PUSH2 0x2DD5 JUMP JUMPDEST SWAP5 POP PUSH2 0x3071 PUSH1 0x20 DUP8 ADD PUSH2 0x2DD5 JUMP JUMPDEST SWAP5 SWAP8 SWAP5 SWAP7 POP POP POP POP PUSH1 0x40 DUP4 ADD CALLDATALOAD SWAP3 PUSH1 0x60 DUP2 ADD CALLDATALOAD SWAP3 PUSH1 0x80 SWAP1 SWAP2 ADD CALLDATALOAD SWAP2 POP JUMP JUMPDEST PUSH1 0x0 DUP1 PUSH1 0x0 DUP1 PUSH1 0x0 PUSH1 0xA0 DUP7 DUP9 SUB SLT ISZERO PUSH2 0x30A7 JUMPI PUSH1 0x0 DUP1 REVERT JUMPDEST DUP6 CALLDATALOAD PUSH8 0xFFFFFFFFFFFFFFFF DUP1 DUP3 GT ISZERO PUSH2 0x30BF JUMPI PUSH1 0x0 DUP1 REVERT JUMPDEST PUSH2 0x30CB DUP10 DUP4 DUP11 ADD PUSH2 0x2DF1 JUMP JUMPDEST SWAP7 POP PUSH1 0x20 DUP9 ADD CALLDATALOAD SWAP2 POP DUP1 DUP3 GT ISZERO PUSH2 0x30E1 JUMPI PUSH1 0x0 DUP1 REVERT JUMPDEST PUSH2 0x30ED DUP10 DUP4 DUP11 ADD PUSH2 0x2F8F JUMP JUMPDEST SWAP6 POP PUSH1 0x40 DUP9 ADD CALLDATALOAD SWAP2 POP DUP1 DUP3 GT ISZERO PUSH2 0x3103 JUMPI PUSH1 0x0 DUP1 REVERT JUMPDEST PUSH2 0x310F DUP10 DUP4 DUP11 ADD PUSH2 0x2EFD JUMP JUMPDEST SWAP5 POP PUSH1 0x60 DUP9 ADD CALLDATALOAD SWAP2 POP DUP1 DUP3 GT ISZERO PUSH2 0x3125 JUMPI PUSH1 0x0 DUP1 REVERT JUMPDEST PUSH2 0x3131 DUP10 DUP4 DUP11 ADD PUSH2 0x2E65 JUMP JUMPDEST SWAP4 POP PUSH1 0x80 DUP9 ADD CALLDATALOAD SWAP2 POP DUP1 DUP3 GT ISZERO PUSH2 0x3147 JUMPI PUSH1 0x0 DUP1 REVERT JUMPDEST POP PUSH2 0x3154 DUP9 DUP3 DUP10 ADD PUSH2 0x2FEF JUMP JUMPDEST SWAP2 POP POP SWAP3 SWAP6 POP SWAP3 SWAP6 SWAP1 SWAP4 POP JUMP JUMPDEST PUSH1 0x0 PUSH1 0x20 DUP3 DUP5 SUB SLT ISZERO PUSH2 0x3173 JUMPI PUSH1 0x0 DUP1 REVERT JUMPDEST DUP2 MLOAD DUP1 ISZERO ISZERO DUP2 EQ PUSH2 0x300F JUMPI PUSH1 0x0 DUP1 REVERT JUMPDEST PUSH1 0x0 PUSH1 0x20 DUP3 DUP5 SUB SLT ISZERO PUSH2 0x3195 JUMPI PUSH1 0x0 DUP1 REVERT JUMPDEST POP MLOAD SWAP2 SWAP1 POP JUMP JUMPDEST PUSH1 0x0 PUSH1 0x20 DUP3 DUP5 SUB SLT ISZERO PUSH2 0x31AE JUMPI PUSH1 0x0 DUP1 REVERT JUMPDEST DUP2 MLOAD PUSH8 0xFFFFFFFFFFFFFFFF DUP2 GT ISZERO PUSH2 0x31C5 JUMPI PUSH1 0x0 DUP1 REVERT JUMPDEST DUP3 ADD PUSH1 0x1F DUP2 ADD DUP5 SGT PUSH2 0x31D6 JUMPI PUSH1 0x0 DUP1 REVERT JUMPDEST DUP1 MLOAD PUSH2 0x31E4 PUSH2 0x2DA5 DUP3 PUSH2 0x3764 JUMP JUMPDEST DUP2 DUP2 MSTORE DUP6 PUSH1 0x20 DUP4 DUP6 ADD ADD GT ISZERO PUSH2 0x31F9 JUMPI PUSH1 0x0 DUP1 REVERT JUMPDEST PUSH2 0x320A DUP3 PUSH1 0x20 DUP4 ADD PUSH1 0x20 DUP7 ADD PUSH2 0x37BB JUMP JUMPDEST SWAP6 SWAP5 POP POP POP POP POP JUMP JUMPDEST PUSH1 0x0 PUSH1 0x20 DUP3 DUP5 SUB SLT ISZERO PUSH2 0x3225 JUMPI PUSH1 0x0 DUP1 REVERT JUMPDEST POP CALLDATALOAD SWAP2 SWAP1 POP JUMP JUMPDEST PUSH1 0x0 DUP1 PUSH1 0x40 DUP4 DUP6 SUB SLT ISZERO PUSH2 0x323F JUMPI PUSH1 0x0 DUP1 REVERT JUMPDEST DUP3 CALLDATALOAD SWAP2 POP PUSH2 0x324F PUSH1 0x20 DUP5 ADD PUSH2 0x2DD5 JUMP JUMPDEST SWAP1 POP SWAP3 POP SWAP3 SWAP1 POP JUMP JUMPDEST PUSH1 0x0 DUP1 PUSH1 0x40 DUP4 DUP6 SUB SLT ISZERO PUSH2 0x326B JUMPI PUSH1 0x0 DUP1 REVERT JUMPDEST DUP3 CALLDATALOAD SWAP2 POP PUSH2 0x324F PUSH1 0x20 DUP5 ADD PUSH2 0x3016 JUMP JUMPDEST PUSH1 0x0 DUP1 PUSH1 0x0 DUP1 PUSH1 0x60 DUP6 DUP8 SUB SLT ISZERO PUSH2 0x3291 JUMPI PUSH1 0x0 DUP1 REVERT JUMPDEST DUP5 CALLDATALOAD SWAP4 POP PUSH2 0x32A1 PUSH1 0x20 DUP7 ADD PUSH2 0x3016 JUMP JUMPDEST SWAP3 POP PUSH1 0x40 DUP6 ADD CALLDATALOAD PUSH8 0xFFFFFFFFFFFFFFFF DUP1 DUP3 GT ISZERO PUSH2 0x32BE JUMPI PUSH1 0x0 DUP1 REVERT JUMPDEST DUP2 DUP8 ADD SWAP2 POP DUP8 PUSH1 0x1F DUP4 ADD SLT PUSH2 0x32D2 JUMPI PUSH1 0x0 DUP1 REVERT JUMPDEST DUP2 CALLDATALOAD DUP2 DUP2 GT ISZERO PUSH2 0x32E1 JUMPI PUSH1 0x0 DUP1 REVERT JUMPDEST DUP9 PUSH1 0x20 DUP3 DUP6 ADD ADD GT ISZERO PUSH2 0x32F3 JUMPI PUSH1 0x0 DUP1 REVERT JUMPDEST SWAP6 SWAP9 SWAP5 SWAP8 POP POP PUSH1 0x20 ADD SWAP5 POP POP POP JUMP JUMPDEST PUSH1 0x0 DUP1 PUSH1 0x0 DUP1 PUSH1 0x0 PUSH1 0xA0 DUP7 DUP9 SUB SLT ISZERO PUSH2 0x331A JUMPI PUSH1 0x0 DUP1 REVERT JUMPDEST DUP6 CALLDATALOAD SWAP5 POP PUSH2 0x332A PUSH1 0x20 DUP8 ADD PUSH2 0x3016 JUMP JUMPDEST SWAP4 POP PUSH2 0x3338 PUSH1 0x40 DUP8 ADD PUSH2 0x3016 JUMP JUMPDEST SWAP5 SWAP8 SWAP4 SWAP7 POP SWAP4 SWAP5 PUSH1 0x60 DUP2 ADD CALLDATALOAD SWAP5 POP PUSH1 0x80 ADD CALLDATALOAD SWAP3 SWAP2 POP POP JUMP JUMPDEST PUSH1 0x0 PUSH1 0x20 DUP3 DUP5 SUB SLT ISZERO PUSH2 0x3362 JUMPI PUSH1 0x0 DUP1 REVERT JUMPDEST DUP2 MLOAD PUSH1 0x1 PUSH1 0x1 PUSH1 0x60 SHL SUB DUP2 AND DUP2 EQ PUSH2 0x300F JUMPI PUSH1 0x0 DUP1 REVERT JUMPDEST PUSH1 0x0 DUP2 MLOAD DUP1 DUP5 MSTORE PUSH1 0x20 DUP1 DUP6 ADD SWAP5 POP DUP1 DUP5 ADD PUSH1 0x0 JUMPDEST DUP4 DUP2 LT ISZERO PUSH2 0x33B2 JUMPI DUP2 MLOAD PUSH1 0x1 PUSH1 0x1 PUSH1 0xA0 SHL SUB AND DUP8 MSTORE SWAP6 DUP3 ADD SWAP6 SWAP1 DUP3 ADD SWAP1 PUSH1 0x1 ADD PUSH2 0x338D JUMP JUMPDEST POP SWAP5 SWAP6 SWAP5 POP POP POP POP POP JUMP JUMPDEST PUSH1 0x0 DUP2 MLOAD DUP1 DUP5 MSTORE PUSH1 0x20 DUP1 DUP6 ADD DUP1 DUP2 SWAP7 POP DUP4 PUSH1 0x5 SHL DUP2 ADD SWAP2 POP DUP3 DUP7 ADD PUSH1 0x0 JUMPDEST DUP6 DUP2 LT ISZERO PUSH2 0x3405 JUMPI DUP3 DUP5 SUB DUP10 MSTORE PUSH2 0x33F3 DUP5 DUP4 MLOAD PUSH2 0x3442 JUMP JUMPDEST SWAP9 DUP6 ADD SWAP9 SWAP4 POP SWAP1 DUP5 ADD SWAP1 PUSH1 0x1 ADD PUSH2 0x33DB JUMP JUMPDEST POP SWAP2 SWAP8 SWAP7 POP POP POP POP POP POP POP JUMP JUMPDEST PUSH1 0x0 DUP2 MLOAD DUP1 DUP5 MSTORE PUSH1 0x20 DUP1 DUP6 ADD SWAP5 POP DUP1 DUP5 ADD PUSH1 0x0 JUMPDEST DUP4 DUP2 LT ISZERO PUSH2 0x33B2 JUMPI DUP2 MLOAD DUP8 MSTORE SWAP6 DUP3 ADD SWAP6 SWAP1 DUP3 ADD SWAP1 PUSH1 0x1 ADD PUSH2 0x3426 JUMP JUMPDEST PUSH1 0x0 DUP2 MLOAD DUP1 DUP5 MSTORE PUSH2 0x345A DUP2 PUSH1 0x20 DUP7 ADD PUSH1 0x20 DUP7 ADD PUSH2 0x37BB JUMP JUMPDEST PUSH1 0x1F ADD PUSH1 0x1F NOT AND SWAP3 SWAP1 SWAP3 ADD PUSH1 0x20 ADD SWAP3 SWAP2 POP POP JUMP JUMPDEST DUP1 SLOAD PUSH1 0x0 SWAP1 PUSH1 0x1 DUP2 DUP2 SHR SWAP1 DUP1 DUP4 AND DUP1 PUSH2 0x3488 JUMPI PUSH1 0x7F DUP4 AND SWAP3 POP JUMPDEST PUSH1 0x20 DUP1 DUP5 LT DUP3 EQ ISZERO PUSH2 0x34AA JUMPI PUSH4 0x4E487B71 PUSH1 0xE0 SHL PUSH1 0x0 MSTORE PUSH1 0x22 PUSH1 0x4 MSTORE PUSH1 0x24 PUSH1 0x0 REVERT JUMPDEST DUP4 DUP9 MSTORE DUP2 DUP1 ISZERO PUSH2 0x34C1 JUMPI PUSH1 0x1 DUP2 EQ PUSH2 0x34D5 JUMPI PUSH2 0x3503 JUMP JUMPDEST PUSH1 0xFF NOT DUP7 AND DUP10 DUP4 ADD MSTORE PUSH1 0x40 DUP10 ADD SWAP7 POP PUSH2 0x3503 JUMP JUMPDEST DUP8 PUSH1 0x0 MSTORE DUP2 PUSH1 0x0 KECCAK256 PUSH1 0x0 JUMPDEST DUP7 DUP2 LT ISZERO PUSH2 0x34FB JUMPI DUP2 SLOAD DUP12 DUP3 ADD DUP6 ADD MSTORE SWAP1 DUP6 ADD SWAP1 DUP4 ADD PUSH2 0x34E0 JUMP JUMPDEST DUP11 ADD DUP4 ADD SWAP8 POP POP JUMPDEST POP POP POP POP POP POP SWAP3 SWAP2 POP POP JUMP JUMPDEST PUSH1 0x1 DUP1 PUSH1 0xA0 SHL SUB DUP7 AND DUP2 MSTORE DUP5 PUSH1 0x20 DUP3 ADD MSTORE PUSH1 0xA0 PUSH1 0x40 DUP3 ADD MSTORE PUSH1 0x0 PUSH2 0x3536 PUSH1 0xA0 DUP4 ADD DUP7 PUSH2 0x3442 JUMP JUMPDEST DUP3 DUP2 SUB PUSH1 0x60 DUP5 ADD MSTORE PUSH2 0x3548 DUP2 DUP7 PUSH2 0x3442 JUMP JUMPDEST SWAP2 POP POP DUP3 PUSH1 0x80 DUP4 ADD MSTORE SWAP7 SWAP6 POP POP POP POP POP POP JUMP JUMPDEST PUSH1 0x1 DUP1 PUSH1 0xA0 SHL SUB DUP7 AND DUP2 MSTORE DUP5 PUSH1 0x20 DUP3 ADD MSTORE PUSH1 0xA0 PUSH1 0x40 DUP3 ADD MSTORE PUSH1 0x0 PUSH2 0x3582 PUSH1 0xA0 DUP4 ADD DUP7 PUSH2 0x346E JUMP JUMPDEST DUP3 DUP2 SUB PUSH1 0x60 DUP5 ADD MSTORE PUSH2 0x3548 DUP2 DUP7 PUSH2 0x346E JUMP JUMPDEST PUSH1 0x80 DUP2 MSTORE PUSH1 0x0 PUSH2 0x35A7 PUSH1 0x80 DUP4 ADD DUP8 PUSH2 0x3379 JUMP JUMPDEST DUP3 DUP2 SUB PUSH1 0x20 DUP5 ADD MSTORE PUSH2 0x35B9 DUP2 DUP8 PUSH2 0x3412 JUMP JUMPDEST SWAP1 POP DUP3 DUP2 SUB PUSH1 0x40 DUP5 ADD MSTORE PUSH2 0x35CD DUP2 DUP7 PUSH2 0x33BD JUMP JUMPDEST SWAP1 POP DUP3 DUP2 SUB PUSH1 0x60 DUP5 ADD MSTORE PUSH2 0x35E1 DUP2 DUP6 PUSH2 0x33BD JUMP JUMPDEST SWAP8 SWAP7 POP POP POP POP POP POP POP JUMP JUMPDEST PUSH1 0x20 DUP2 ADD PUSH1 0x8 DUP4 LT PUSH2 0x360E JUMPI PUSH4 0x4E487B71 PUSH1 0xE0 SHL PUSH1 0x0 MSTORE PUSH1 0x21 PUSH1 0x4 MSTORE PUSH1 0x24 PUSH1 0x0 REVERT JUMPDEST SWAP2 SWAP1 MSTORE SWAP1 JUMP JUMPDEST PUSH1 0x20 DUP2 MSTORE PUSH1 0x0 PUSH2 0x300F PUSH1 0x20 DUP4 ADD DUP5 PUSH2 0x3442 JUMP JUMPDEST DUP10 DUP2 MSTORE PUSH1 0x1 PUSH1 0x1 PUSH1 0xA0 SHL SUB DUP10 AND PUSH1 0x20 DUP3 ADD MSTORE PUSH2 0x120 PUSH1 0x40 DUP3 ADD DUP2 SWAP1 MSTORE PUSH1 0x0 SWAP1 PUSH2 0x3652 DUP4 DUP3 ADD DUP12 PUSH2 0x3379 JUMP JUMPDEST SWAP1 POP DUP3 DUP2 SUB PUSH1 0x60 DUP5 ADD MSTORE PUSH2 0x3666 DUP2 DUP11 PUSH2 0x3412 JUMP JUMPDEST SWAP1 POP DUP3 DUP2 SUB PUSH1 0x80 DUP5 ADD MSTORE PUSH2 0x367A DUP2 DUP10 PUSH2 0x33BD JUMP JUMPDEST SWAP1 POP DUP3 DUP2 SUB PUSH1 0xA0 DUP5 ADD MSTORE PUSH2 0x368E DUP2 DUP9 PUSH2 0x33BD JUMP JUMPDEST SWAP1 POP DUP6 PUSH1 0xC0 DUP5 ADD MSTORE DUP5 PUSH1 0xE0 DUP5 ADD MSTORE DUP3 DUP2 SUB PUSH2 0x100 DUP5 ADD MSTORE PUSH2 0x36AF DUP2 DUP6 PUSH2 0x3442 JUMP JUMPDEST SWAP13 SWAP12 POP POP POP POP POP POP POP POP POP POP POP POP JUMP JUMPDEST DUP6 DUP2 MSTORE PUSH1 0xFF DUP6 AND PUSH1 0x20 DUP3 ADD MSTORE PUSH1 0x1 PUSH1 0x1 PUSH1 0x60 SHL SUB DUP5 AND PUSH1 0x40 DUP3 ADD MSTORE PUSH1 0x80 PUSH1 0x60 DUP3 ADD MSTORE DUP2 PUSH1 0x80 DUP3 ADD MSTORE DUP2 DUP4 PUSH1 0xA0 DUP4 ADD CALLDATACOPY PUSH1 0x0 DUP2 DUP4 ADD PUSH1 0xA0 SWAP1 DUP2 ADD SWAP2 SWAP1 SWAP2 MSTORE PUSH1 0x1F SWAP1 SWAP3 ADD PUSH1 0x1F NOT AND ADD ADD SWAP5 SWAP4 POP POP POP POP JUMP JUMPDEST PUSH1 0x40 MLOAD PUSH1 0x1F DUP3 ADD PUSH1 0x1F NOT AND DUP2 ADD PUSH8 0xFFFFFFFFFFFFFFFF DUP2 GT DUP3 DUP3 LT OR ISZERO PUSH2 0x3738 JUMPI PUSH2 0x3738 PUSH2 0x387D JUMP JUMPDEST PUSH1 0x40 MSTORE SWAP2 SWAP1 POP JUMP JUMPDEST PUSH1 0x0 PUSH8 0xFFFFFFFFFFFFFFFF DUP3 GT ISZERO PUSH2 0x375A JUMPI PUSH2 0x375A PUSH2 0x387D JUMP JUMPDEST POP PUSH1 0x5 SHL PUSH1 0x20 ADD SWAP1 JUMP JUMPDEST PUSH1 0x0 PUSH8 0xFFFFFFFFFFFFFFFF DUP3 GT ISZERO PUSH2 0x377E JUMPI PUSH2 0x377E PUSH2 0x387D JUMP JUMPDEST POP PUSH1 0x1F ADD PUSH1 0x1F NOT AND PUSH1 0x20 ADD SWAP1 JUMP JUMPDEST PUSH1 0x0 DUP3 NOT DUP3 GT ISZERO PUSH2 0x379F JUMPI PUSH2 0x379F PUSH2 0x383B JUMP JUMPDEST POP ADD SWAP1 JUMP JUMPDEST PUSH1 0x0 DUP3 DUP3 LT ISZERO PUSH2 0x37B6 JUMPI PUSH2 0x37B6 PUSH2 0x383B JUMP JUMPDEST POP SUB SWAP1 JUMP JUMPDEST PUSH1 0x0 JUMPDEST DUP4 DUP2 LT ISZERO PUSH2 0x37D6 JUMPI DUP2 DUP2 ADD MLOAD DUP4 DUP3 ADD MSTORE PUSH1 0x20 ADD PUSH2 0x37BE JUMP JUMPDEST DUP4 DUP2 GT ISZERO PUSH2 0x37E5 JUMPI PUSH1 0x0 DUP5 DUP5 ADD MSTORE JUMPDEST POP POP POP POP JUMP JUMPDEST PUSH1 0x1 DUP2 DUP2 SHR SWAP1 DUP3 AND DUP1 PUSH2 0x37FF JUMPI PUSH1 0x7F DUP3 AND SWAP2 POP JUMPDEST PUSH1 0x20 DUP3 LT DUP2 EQ ISZERO PUSH2 0x12DD JUMPI PUSH4 0x4E487B71 PUSH1 0xE0 SHL PUSH1 0x0 MSTORE PUSH1 0x22 PUSH1 0x4 MSTORE PUSH1 0x24 PUSH1 0x0 REVERT JUMPDEST PUSH1 0x0 PUSH1 0x0 NOT DUP3 EQ ISZERO PUSH2 0x3834 JUMPI PUSH2 0x3834 PUSH2 0x383B JUMP JUMPDEST POP PUSH1 0x1 ADD SWAP1 JUMP JUMPDEST PUSH4 0x4E487B71 PUSH1 0xE0 SHL PUSH1 0x0 MSTORE PUSH1 0x11 PUSH1 0x4 MSTORE PUSH1 0x24 PUSH1 0x0 REVERT JUMPDEST PUSH4 0x4E487B71 PUSH1 0xE0 SHL PUSH1 0x0 MSTORE PUSH1 0x21 PUSH1 0x4 MSTORE PUSH1 0x24 PUSH1 0x0 REVERT JUMPDEST PUSH4 0x4E487B71 PUSH1 0xE0 SHL PUSH1 0x0 MSTORE PUSH1 0x32 PUSH1 0x4 MSTORE PUSH1 0x24 PUSH1 0x0 REVERT JUMPDEST PUSH4 0x4E487B71 PUSH1 0xE0 SHL PUSH1 0x0 MSTORE PUSH1 0x41 PUSH1 0x4 MSTORE PUSH1 0x24 PUSH1 0x0 REVERT INVALID SELFBALANCE PUSH16 0x7665726E6F72427261766F3A3A696E69 PUSH21 0x69616C697A653A20696E76616CA264697066735822 SLT KECCAK256 PUSH15 0x99A634124223FDFE61B6EC3E256AF PUSH11 0xFEB2F5ECE234E8C1FC285F STATICCALL 0x5E 0xDD 0xBC PUSH5 0x736F6C6343 STOP ADDMOD MOD STOP CALLER "
        },
        "methodIdentifiers": {
          "BALLOT_TYPEHASH()": "deaaa7cc",
          "DOMAIN_TYPEHASH()": "20606b70",
          "MAX_PROPOSAL_THRESHOLD()": "25fd935a",
          "MAX_VOTING_DELAY()": "b1126263",
          "MAX_VOTING_PERIOD()": "a64e024a",
          "MIN_PROPOSAL_THRESHOLD()": "791f5d23",
          "MIN_VOTING_DELAY()": "e48083fe",
          "MIN_VOTING_PERIOD()": "215809ca",
          "_acceptAdmin()": "e9c714f2",
          "_setPendingAdmin(address)": "b71d1a0c",
          "_setProposalThreshold(uint256)": "17ba1b8b",
          "_setVotingDelay(uint256)": "1dfb1b5a",
          "_setVotingPeriod(uint256)": "0ea2d98c",
          "admin()": "f851a440",
          "cancel(uint256)": "40e58ee5",
          "castVote(uint256,uint8)": "56781388",
          "castVoteBySig(uint256,uint8,uint8,bytes32,bytes32)": "3bccf4fd",
          "castVoteWithReason(uint256,uint8,string)": "7b3c71d3",
          "execute(uint256)": "fe0d94c1",
          "getActions(uint256)": "328dd982",
          "getReceipt(uint256,address)": "e23a9a52",
          "governanceToken()": "f96dae0a",
          "implementation()": "5c60da1b",
          "initialize(address,address,uint256,uint256,uint256)": "d13f90b4",
          "latestProposalIds(address)": "17977c61",
          "name()": "06fdde03",
          "pendingAdmin()": "26782247",
          "proposalCount()": "da35c664",
          "proposalMaxOperations()": "7bdbe4d0",
          "proposalThreshold()": "b58131b0",
          "proposals(uint256)": "013cf08b",
          "propose(address[],uint256[],string[],bytes[],string)": "da95691a",
          "queue(uint256)": "ddf0b009",
          "quorumVotes()": "24bc1a64",
          "state(uint256)": "3e4f49e6",
          "timelock()": "d33219b4",
          "votingDelay()": "3932abb1",
          "votingPeriod()": "02a251a3"
        }
      },
      "storageLayout": {
        "storage": [
          {
            "astId": 1384,
            "contract": "contracts/governance/GovernorBravo.sol:GovernorBravo",
            "label": "admin",
            "offset": 0,
            "slot": "0",
            "type": "t_address"
          },
          {
            "astId": 1387,
            "contract": "contracts/governance/GovernorBravo.sol:GovernorBravo",
            "label": "pendingAdmin",
            "offset": 0,
            "slot": "1",
            "type": "t_address"
          },
          {
            "astId": 1390,
            "contract": "contracts/governance/GovernorBravo.sol:GovernorBravo",
            "label": "implementation",
            "offset": 0,
            "slot": "2",
            "type": "t_address"
          },
          {
            "astId": 1397,
            "contract": "contracts/governance/GovernorBravo.sol:GovernorBravo",
            "label": "votingDelay",
            "offset": 0,
            "slot": "3",
            "type": "t_uint256"
          },
          {
            "astId": 1400,
            "contract": "contracts/governance/GovernorBravo.sol:GovernorBravo",
            "label": "votingPeriod",
            "offset": 0,
            "slot": "4",
            "type": "t_uint256"
          },
          {
            "astId": 1403,
            "contract": "contracts/governance/GovernorBravo.sol:GovernorBravo",
            "label": "proposalThreshold",
            "offset": 0,
            "slot": "5",
            "type": "t_uint256"
          },
          {
            "astId": 1406,
            "contract": "contracts/governance/GovernorBravo.sol:GovernorBravo",
            "label": "proposalCount",
            "offset": 0,
            "slot": "6",
            "type": "t_uint256"
          },
          {
            "astId": 1410,
            "contract": "contracts/governance/GovernorBravo.sol:GovernorBravo",
            "label": "timelock",
            "offset": 0,
            "slot": "7",
            "type": "t_contract(TimelockInterface)1562"
          },
          {
            "astId": 1414,
            "contract": "contracts/governance/GovernorBravo.sol:GovernorBravo",
            "label": "governanceToken",
            "offset": 0,
            "slot": "8",
            "type": "t_contract(GovernanceTokenInterface)1572"
          },
          {
            "astId": 1420,
            "contract": "contracts/governance/GovernorBravo.sol:GovernorBravo",
            "label": "proposals",
            "offset": 0,
            "slot": "9",
            "type": "t_mapping(t_uint256,t_struct(Proposal)1478_storage)"
          },
          {
            "astId": 1425,
            "contract": "contracts/governance/GovernorBravo.sol:GovernorBravo",
            "label": "latestProposalIds",
            "offset": 0,
            "slot": "10",
            "type": "t_mapping(t_address,t_uint256)"
          }
        ],
        "types": {
          "t_address": {
            "encoding": "inplace",
            "label": "address",
            "numberOfBytes": "20"
          },
          "t_array(t_address)dyn_storage": {
            "base": "t_address",
            "encoding": "dynamic_array",
            "label": "address[]",
            "numberOfBytes": "32"
          },
          "t_array(t_bytes_storage)dyn_storage": {
            "base": "t_bytes_storage",
            "encoding": "dynamic_array",
            "label": "bytes[]",
            "numberOfBytes": "32"
          },
          "t_array(t_string_storage)dyn_storage": {
            "base": "t_string_storage",
            "encoding": "dynamic_array",
            "label": "string[]",
            "numberOfBytes": "32"
          },
          "t_array(t_uint256)dyn_storage": {
            "base": "t_uint256",
            "encoding": "dynamic_array",
            "label": "uint256[]",
            "numberOfBytes": "32"
          },
          "t_bool": {
            "encoding": "inplace",
            "label": "bool",
            "numberOfBytes": "1"
          },
          "t_bytes_storage": {
            "encoding": "bytes",
            "label": "bytes",
            "numberOfBytes": "32"
          },
          "t_contract(GovernanceTokenInterface)1572": {
            "encoding": "inplace",
            "label": "contract GovernanceTokenInterface",
            "numberOfBytes": "20"
          },
          "t_contract(TimelockInterface)1562": {
            "encoding": "inplace",
            "label": "contract TimelockInterface",
            "numberOfBytes": "20"
          },
          "t_mapping(t_address,t_struct(Receipt)1488_storage)": {
            "encoding": "mapping",
            "key": "t_address",
            "label": "mapping(address => struct GovernorBravoDelegateStorageV1.Receipt)",
            "numberOfBytes": "32",
            "value": "t_struct(Receipt)1488_storage"
          },
          "t_mapping(t_address,t_uint256)": {
            "encoding": "mapping",
            "key": "t_address",
            "label": "mapping(address => uint256)",
            "numberOfBytes": "32",
            "value": "t_uint256"
          },
          "t_mapping(t_uint256,t_struct(Proposal)1478_storage)": {
            "encoding": "mapping",
            "key": "t_uint256",
            "label": "mapping(uint256 => struct GovernorBravoDelegateStorageV1.Proposal)",
            "numberOfBytes": "32",
            "value": "t_struct(Proposal)1478_storage"
          },
          "t_string_storage": {
            "encoding": "bytes",
            "label": "string",
            "numberOfBytes": "32"
          },
          "t_struct(Proposal)1478_storage": {
            "encoding": "inplace",
            "label": "struct GovernorBravoDelegateStorageV1.Proposal",
            "members": [
              {
                "astId": 1428,
                "contract": "contracts/governance/GovernorBravo.sol:GovernorBravo",
                "label": "id",
                "offset": 0,
                "slot": "0",
                "type": "t_uint256"
              },
              {
                "astId": 1431,
                "contract": "contracts/governance/GovernorBravo.sol:GovernorBravo",
                "label": "proposer",
                "offset": 0,
                "slot": "1",
                "type": "t_address"
              },
              {
                "astId": 1434,
                "contract": "contracts/governance/GovernorBravo.sol:GovernorBravo",
                "label": "eta",
                "offset": 0,
                "slot": "2",
                "type": "t_uint256"
              },
              {
                "astId": 1438,
                "contract": "contracts/governance/GovernorBravo.sol:GovernorBravo",
                "label": "targets",
                "offset": 0,
                "slot": "3",
                "type": "t_array(t_address)dyn_storage"
              },
              {
                "astId": 1442,
                "contract": "contracts/governance/GovernorBravo.sol:GovernorBravo",
                "label": "values",
                "offset": 0,
                "slot": "4",
                "type": "t_array(t_uint256)dyn_storage"
              },
              {
                "astId": 1446,
                "contract": "contracts/governance/GovernorBravo.sol:GovernorBravo",
                "label": "signatures",
                "offset": 0,
                "slot": "5",
                "type": "t_array(t_string_storage)dyn_storage"
              },
              {
                "astId": 1450,
                "contract": "contracts/governance/GovernorBravo.sol:GovernorBravo",
                "label": "calldatas",
                "offset": 0,
                "slot": "6",
                "type": "t_array(t_bytes_storage)dyn_storage"
              },
              {
                "astId": 1453,
                "contract": "contracts/governance/GovernorBravo.sol:GovernorBravo",
                "label": "startBlock",
                "offset": 0,
                "slot": "7",
                "type": "t_uint256"
              },
              {
                "astId": 1456,
                "contract": "contracts/governance/GovernorBravo.sol:GovernorBravo",
                "label": "endBlock",
                "offset": 0,
                "slot": "8",
                "type": "t_uint256"
              },
              {
                "astId": 1459,
                "contract": "contracts/governance/GovernorBravo.sol:GovernorBravo",
                "label": "forVotes",
                "offset": 0,
                "slot": "9",
                "type": "t_uint256"
              },
              {
                "astId": 1462,
                "contract": "contracts/governance/GovernorBravo.sol:GovernorBravo",
                "label": "againstVotes",
                "offset": 0,
                "slot": "10",
                "type": "t_uint256"
              },
              {
                "astId": 1465,
                "contract": "contracts/governance/GovernorBravo.sol:GovernorBravo",
                "label": "abstainVotes",
                "offset": 0,
                "slot": "11",
                "type": "t_uint256"
              },
              {
                "astId": 1468,
                "contract": "contracts/governance/GovernorBravo.sol:GovernorBravo",
                "label": "canceled",
                "offset": 0,
                "slot": "12",
                "type": "t_bool"
              },
              {
                "astId": 1471,
                "contract": "contracts/governance/GovernorBravo.sol:GovernorBravo",
                "label": "executed",
                "offset": 1,
                "slot": "12",
                "type": "t_bool"
              },
              {
                "astId": 1477,
                "contract": "contracts/governance/GovernorBravo.sol:GovernorBravo",
                "label": "receipts",
                "offset": 0,
                "slot": "13",
                "type": "t_mapping(t_address,t_struct(Receipt)1488_storage)"
              }
            ],
            "numberOfBytes": "448"
          },
          "t_struct(Receipt)1488_storage": {
            "encoding": "inplace",
            "label": "struct GovernorBravoDelegateStorageV1.Receipt",
            "members": [
              {
                "astId": 1481,
                "contract": "contracts/governance/GovernorBravo.sol:GovernorBravo",
                "label": "hasVoted",
                "offset": 0,
                "slot": "0",
                "type": "t_bool"
              },
              {
                "astId": 1484,
                "contract": "contracts/governance/GovernorBravo.sol:GovernorBravo",
                "label": "support",
                "offset": 1,
                "slot": "0",
                "type": "t_uint8"
              },
              {
                "astId": 1487,
                "contract": "contracts/governance/GovernorBravo.sol:GovernorBravo",
                "label": "votes",
                "offset": 2,
                "slot": "0",
                "type": "t_uint96"
              }
            ],
            "numberOfBytes": "32"
          },
          "t_uint256": {
            "encoding": "inplace",
            "label": "uint256",
            "numberOfBytes": "32"
          },
          "t_uint8": {
            "encoding": "inplace",
            "label": "uint8",
            "numberOfBytes": "1"
          },
          "t_uint96": {
            "encoding": "inplace",
            "label": "uint96",
            "numberOfBytes": "12"
          }
        }
      }
    }
  }
}