{
  "contracts/governance/GovernorMultisig.sol": {
    "GovernorMultisig": {
      "abi": [
        {
          "anonymous": false,
          "inputs": [
            {
              "indexed": false,
              "internalType": "bytes32",
              "name": "operation",
              "type": "bytes32"
            },
            {
              "indexed": false,
              "internalType": "address",
              "name": "lastCanceller",
              "type": "address"
            }
          ],
          "name": "OperationCancelled",
          "type": "event"
        },
        {
          "anonymous": false,
          "inputs": [
            {
              "indexed": false,
              "internalType": "bytes32",
              "name": "operation",
              "type": "bytes32"
            },
            {
              "indexed": false,
              "internalType": "uint256",
              "name": "howMany",
              "type": "uint256"
            },
            {
              "indexed": false,
              "internalType": "uint256",
              "name": "ownersCount",
              "type": "uint256"
            },
            {
              "indexed": false,
              "internalType": "address",
              "name": "proposer",
              "type": "address"
            }
          ],
          "name": "OperationCreated",
          "type": "event"
        },
        {
          "anonymous": false,
          "inputs": [
            {
              "indexed": false,
              "internalType": "bytes32",
              "name": "operation",
              "type": "bytes32"
            },
            {
              "indexed": false,
              "internalType": "uint256",
              "name": "votes",
              "type": "uint256"
            },
            {
              "indexed": false,
              "internalType": "uint256",
              "name": "ownersCount",
              "type": "uint256"
            },
            {
              "indexed": false,
              "internalType": "address",
              "name": "downvoter",
              "type": "address"
            }
          ],
          "name": "OperationDownvoted",
          "type": "event"
        },
        {
          "anonymous": false,
          "inputs": [
            {
              "indexed": false,
              "internalType": "bytes32",
              "name": "operation",
              "type": "bytes32"
            },
            {
              "indexed": false,
              "internalType": "uint256",
              "name": "howMany",
              "type": "uint256"
            },
            {
              "indexed": false,
              "internalType": "uint256",
              "name": "ownersCount",
              "type": "uint256"
            },
            {
              "indexed": false,
              "internalType": "address",
              "name": "performer",
              "type": "address"
            }
          ],
          "name": "OperationPerformed",
          "type": "event"
        },
        {
          "anonymous": false,
          "inputs": [
            {
              "indexed": false,
              "internalType": "bytes32",
              "name": "operation",
              "type": "bytes32"
            },
            {
              "indexed": false,
              "internalType": "uint256",
              "name": "votes",
              "type": "uint256"
            },
            {
              "indexed": false,
              "internalType": "uint256",
              "name": "howMany",
              "type": "uint256"
            },
            {
              "indexed": false,
              "internalType": "uint256",
              "name": "ownersCount",
              "type": "uint256"
            },
            {
              "indexed": false,
              "internalType": "address",
              "name": "upvoter",
              "type": "address"
            }
          ],
          "name": "OperationUpvoted",
          "type": "event"
        },
        {
          "anonymous": false,
          "inputs": [
            {
              "indexed": false,
              "internalType": "address[]",
              "name": "previousOwners",
              "type": "address[]"
            },
            {
              "indexed": false,
              "internalType": "uint256",
              "name": "howManyOwnersDecide",
              "type": "uint256"
            },
            {
              "indexed": false,
              "internalType": "address[]",
              "name": "newOwners",
              "type": "address[]"
            },
            {
              "indexed": false,
              "internalType": "uint256",
              "name": "newHowManyOwnersDecide",
              "type": "uint256"
            }
          ],
          "name": "OwnershipTransferred",
          "type": "event"
        },
        {
          "inputs": [],
          "name": "MAX_OPERATIONS",
          "outputs": [
            {
              "internalType": "uint256",
              "name": "",
              "type": "uint256"
            }
          ],
          "stateMutability": "view",
          "type": "function"
        },
        {
          "inputs": [
            {
              "internalType": "uint256",
              "name": "",
              "type": "uint256"
            }
          ],
          "name": "allOperations",
          "outputs": [
            {
              "internalType": "bytes32",
              "name": "",
              "type": "bytes32"
            }
          ],
          "stateMutability": "view",
          "type": "function"
        },
        {
          "inputs": [],
          "name": "allOperationsCount",
          "outputs": [
            {
              "internalType": "uint256",
              "name": "",
              "type": "uint256"
            }
          ],
          "stateMutability": "view",
          "type": "function"
        },
        {
          "inputs": [
            {
              "internalType": "bytes32",
              "name": "",
              "type": "bytes32"
            }
          ],
          "name": "allOperationsIndicies",
          "outputs": [
            {
              "internalType": "uint256",
              "name": "",
              "type": "uint256"
            }
          ],
          "stateMutability": "view",
          "type": "function"
        },
        {
          "inputs": [
            {
              "internalType": "bytes32",
              "name": "operation",
              "type": "bytes32"
            }
          ],
          "name": "cancelPending",
          "outputs": [],
          "stateMutability": "nonpayable",
          "type": "function"
        },
        {
          "inputs": [
            {
              "internalType": "address[]",
              "name": "targets",
              "type": "address[]"
            },
            {
              "internalType": "uint256[]",
              "name": "values",
              "type": "uint256[]"
            },
            {
              "internalType": "string[]",
              "name": "signatures",
              "type": "string[]"
            },
            {
              "internalType": "bytes[]",
              "name": "calldatas",
              "type": "bytes[]"
            }
          ],
          "name": "executeTransaction",
          "outputs": [],
          "stateMutability": "nonpayable",
          "type": "function"
        },
        {
          "inputs": [],
          "name": "howManyOwnersDecide",
          "outputs": [
            {
              "internalType": "uint256",
              "name": "",
              "type": "uint256"
            }
          ],
          "stateMutability": "view",
          "type": "function"
        },
        {
          "inputs": [
            {
              "internalType": "address",
              "name": "wallet",
              "type": "address"
            }
          ],
          "name": "isOwner",
          "outputs": [
            {
              "internalType": "bool",
              "name": "",
              "type": "bool"
            }
          ],
          "stateMutability": "view",
          "type": "function"
        },
        {
          "inputs": [
            {
              "internalType": "uint256",
              "name": "",
              "type": "uint256"
            }
          ],
          "name": "owners",
          "outputs": [
            {
              "internalType": "address",
              "name": "",
              "type": "address"
            }
          ],
          "stateMutability": "view",
          "type": "function"
        },
        {
          "inputs": [],
          "name": "ownersCount",
          "outputs": [
            {
              "internalType": "uint256",
              "name": "",
              "type": "uint256"
            }
          ],
          "stateMutability": "view",
          "type": "function"
        },
        {
          "inputs": [],
          "name": "ownersGeneration",
          "outputs": [
            {
              "internalType": "uint256",
              "name": "",
              "type": "uint256"
            }
          ],
          "stateMutability": "view",
          "type": "function"
        },
        {
          "inputs": [
            {
              "internalType": "address",
              "name": "",
              "type": "address"
            }
          ],
          "name": "ownersIndices",
          "outputs": [
            {
              "internalType": "uint256",
              "name": "",
              "type": "uint256"
            }
          ],
          "stateMutability": "view",
          "type": "function"
        },
        {
          "inputs": [
            {
              "internalType": "address[]",
              "name": "newOwners",
              "type": "address[]"
            }
          ],
          "name": "transferOwnership",
          "outputs": [],
          "stateMutability": "nonpayable",
          "type": "function"
        },
        {
          "inputs": [
            {
              "internalType": "address[]",
              "name": "newOwners",
              "type": "address[]"
            },
            {
              "internalType": "uint256",
              "name": "newHowManyOwnersDecide",
              "type": "uint256"
            }
          ],
          "name": "transferOwnershipWithHowMany",
          "outputs": [],
          "stateMutability": "nonpayable",
          "type": "function"
        },
        {
          "inputs": [
            {
              "internalType": "bytes32",
              "name": "",
              "type": "bytes32"
            }
          ],
          "name": "votesCountByOperation",
          "outputs": [
            {
              "internalType": "uint256",
              "name": "",
              "type": "uint256"
            }
          ],
          "stateMutability": "view",
          "type": "function"
        },
        {
          "inputs": [
            {
              "internalType": "bytes32",
              "name": "",
              "type": "bytes32"
            }
          ],
          "name": "votesMaskByOperation",
          "outputs": [
            {
              "internalType": "uint256",
              "name": "",
              "type": "uint256"
            }
          ],
          "stateMutability": "view",
          "type": "function"
        }
      ],
      "evm": {
        "bytecode": {
          "linkReferences": {},
          "object": "608060405234801561001057600080fd5b506002805460018181019092557f405787fa12a823e0f2b7631cc41b3ba8828b3321ca811111fa75cd3aa3bb5ace0180546001600160a01b03191633908117909155600090815260066020526040902081905580556119ed806100746000396000f3fe608060405234801561001057600080fd5b50600436106101005760003560e01c80638680ce4b11610097578063b948854611610066578063b94885461461022a578063cc047a0414610232578063e851834114610252578063ea1a26441461026557600080fd5b80638680ce4b146101db578063893372ca146101ee57806390a5308514610201578063b25bb3a71461022157600080fd5b80632f54bf6e116100d35780632f54bf6e14610165578063431ab233146101a0578063568b5915146101b35780635dc2803a146101d357600080fd5b8063025e7c271461010557806318bcd3d01461013557806322f2f89a1461014a5780632f4a81df1461015c575b600080fd5b610118610113366004611635565b610285565b6040516001600160a01b0390911681526020015b60405180910390f35b610148610143366004611497565b6102af565b005b6003545b60405190815260200161012c565b61014e60015481565b610190610173366004611475565b6001600160a01b0316600090815260066020526040902054151590565b604051901515815260200161012c565b61014e6101ae366004611635565b6102be565b61014e6101c1366004611635565b60086020526000908152604090205481565b61014e600a81565b6101486101e9366004611525565b6102df565b6101486101fc366004611635565b610670565b61014e61020f366004611635565b60096020526000908152604090205481565b61014e60005481565b60025461014e565b61014e610240366004611475565b60066020526000908152604090205481565b6101486102603660046114d9565b610848565b61014e610273366004611635565b60076020526000908152604090205481565b6002818154811061029557600080fd5b6000918252602090912001546001600160a01b0316905081565b6102ba828280610848565b5050565b600381815481106102ce57600080fd5b600091825260209091200154905081565b6102ea600154610ce1565b1561066a576004546001600160a01b031615801561031b57600480546001600160a01b031916331790556001546005555b8351855114801561032d575082518551145b801561033a575081518551145b6103b15760405162461bcd60e51b8152602060048201526049602482015260008051602061197883398151915260448201527f74696f6e3a2066756e6374696f6e20696e666f726d6174696f6e206172697479606482015268040dad2e6dac2e8c6d60bb1b608482015260a4015b60405180910390fd5b84516104135760405162461bcd60e51b815260206004820152603a602482015260008051602061197883398151915260448201527f74696f6e3a206d7573742070726f7669646520616374696f6e7300000000000060648201526084016103a8565b600a855111156104725760405162461bcd60e51b8152602060048201526036602482015260008051602061197883398151915260448201527574696f6e3a20746f6f206d616e7920616374696f6e7360501b60648201526084016103a8565b60005b85518160ff16101561064b576000848260ff16815181106104985761049861194b565b60200260200101515160001461050e57848260ff16815181106104bd576104bd61194b565b602002602001015180519060200120848360ff16815181106104e1576104e161194b565b60200260200101516040516020016104fa929190611689565b60405160208183030381529060405261052c565b838260ff16815181106105235761052361194b565b60200260200101515b90506000878360ff16815181106105455761054561194b565b60200260200101516001600160a01b0316878460ff168151811061056b5761056b61194b565b60200260200101518360405161058191906116bf565b60006040518083038185875af1925050503d80600081146105be576040519150601f19603f3d011682016040523d82523d6000602084013e6105c3565b606091505b50509050806106365760405162461bcd60e51b815260206004820152604460248201819052600080516020611978833981519152908201527f74696f6e3a207472616e73616374696f6e20657865637574696f6e20726576656064820152631c9d195960e21b608482015260a4016103a8565b50508080610643906118ff565b915050610475565b50801561066857600480546001600160a01b031916905560006005555b505b50505050565b61067a6001610ce1565b15610845576004546001600160a01b03161580156106aa57600480546001600160a01b0319163317905560016005555b336000908152600660205260408120546106c6906001906118cd565b90506106d3816002611823565b600084815260086020526040902054166107485760405162461bcd60e51b815260206004820152603060248201527f63616e63656c50656e64696e673a206f7065726174696f6e206e6f7420666f7560448201526f3732103337b9103a3434b9903ab9b2b960811b60648201526084016103a8565b610753816002611823565b6000848152600860209081526040808320805494199094169093556009905290812054610782906001906118cd565b60008581526009602090815260409182902083905560025482518881529182018490528183015233606082015290519192507f3e0a7036018b5a2a3c5d0afa14e51998ef3cf98c38e4289a8897222b3acf75a7919081900360800190a180610826576107ed84611086565b604080518581523360208201527f55e0dd61c29aac6fc36807628300ad3e3ec68655ae76ae4002f7fb101496fa9f910160405180910390a15b505080156102ba57600480546001600160a01b03191690556000600555505b50565b610853600154610ce1565b15610cdc576004546001600160a01b031615801561088457600480546001600160a01b031916331790556001546005555b826108db5760405162461bcd60e51b815260206004820152603360248201526000805160206119988339815191526044820152726e65727320617272617920697320656d70747960681b60648201526084016103a8565b6101008311156109415760405162461bcd60e51b815260206004820152603e602482015260008051602061199883398151915260448201527f6e65727320636f756e742069732067726561746572207468656e20323536000060648201526084016103a8565b600082116109b75760405162461bcd60e51b815260206004820152603f60248201527f7472616e736665724f776e65727368697057697468486f774d616e793a206e6560448201527f77486f774d616e794f776e65727344656369646520657175616c20746f20300060648201526084016103a8565b82821115610a475760405162461bcd60e51b815260206004820152605160248201527f7472616e736665724f776e65727368697057697468486f774d616e793a206e6560448201527f77486f774d616e794f776e657273446563696465206578636565647320746865606482015270206e756d626572206f66206f776e65727360781b608482015260a4016103a8565b60005b600254811015610aa2576006600060028381548110610a6b57610a6b61194b565b60009182526020808320909101546001600160a01b0316835282019290925260400181205580610a9a816118e4565b915050610a4a565b5060005b83811015610c4a576000858583818110610ac257610ac261194b565b9050602002016020810190610ad79190611475565b6001600160a01b03161415610b425760405162461bcd60e51b8152602060048201526038602482015260008051602061199883398151915260448201527f6e65727320617272617920636f6e7461696e73207a65726f000000000000000060648201526084016103a8565b60066000868684818110610b5857610b5861194b565b9050602002016020810190610b6d9190611475565b6001600160a01b0316815260208101919091526040016000205415610be85760405162461bcd60e51b815260206004820152603e602482015260008051602061199883398151915260448201527f6e65727320617272617920636f6e7461696e73206475706c696361746573000060648201526084016103a8565b610bf38160016117c8565b60066000878785818110610c0957610c0961194b565b9050602002016020810190610c1e9190611475565b6001600160a01b0316815260208101919091526040016000205580610c42816118e4565b915050610aa6565b507fd167b96814cd24898418cc293e8d47d54afe6dcf0631283f0830e1eae621f6bd6002600154868686604051610c859594939291906116cb565b60405180910390a1610c9960028585611181565b506001829055610cab600360006111e4565b600080549080610cba836118e4565b9190505550801561066a57600480546001600160a01b03191690556000600555505b505050565b6004546000906001600160a01b0316331415610d8557600554821115610d7d5760405162461bcd60e51b8152602060048201526044602482018190527f636865636b486f774d616e794f776e6572733a206e6573746564206f776e6572908201527f73206d6f64696669657220636865636b2072657175697265206d6f7265206f776064820152636e65727360e01b608482015260a4016103a8565b506001919050565b33600090815260066020526040902054610df85760405162461bcd60e51b815260206004820152602e60248201527f636865636b486f774d616e794f776e6572733a206d73672e73656e646572206960448201526d39903737ba1030b71037bbb732b960911b60648201526084016103a8565b33600090815260066020526040812054610e14906001906118cd565b905060008036600054604051602001610e2f939291906116ad565b604051602081830303815290604052805190602001209050816002610e549190611823565b6000828152600860205260409020541615610ed75760405162461bcd60e51b815260206004820152603960248201527f636865636b486f774d616e794f776e6572733a206f776e657220616c7265616460448201527f7920766f74656420666f7220746865206f7065726174696f6e0000000000000060648201526084016103a8565b610ee2826002611823565b600082815260086020908152604080832080549094179093556009905290812054610f0e9060016117c8565b600083815260096020526040902081905590506001811415610fb857600380546000848152600760209081526040808320849055600184018555939091527fc2575a0e9e593c00f959f8c92f12db2869c3395a3b0502d05e2516446f71f85b90910184905560025482518581529182018890528183015233606082015290517f6bab0114f9524353d2d33e64edd3ebbd16e21edd57de2226ba76c310a7ce22659181900360800190a15b60025460408051848152602081018490528082018890526060810192909252336080830152517f8dd9582c6577aea81973b5adeb6c135f6e18565d99578b7ba0c9377437ec02219181900360a00190a160008281526009602052604090205485141561107b5761102782611086565b600254604080518481526020810188905280820192909252336060830152517f8a11c8ca99994c292318ce367f65bf6ff61d390bc814b3588496f6fbcc32807a9181900360800190a1506001949350505050565b506000949350505050565b6000818152600760205260409020546003546110a4906001906118cd565b81101561112d57600380546110bb906001906118cd565b815481106110cb576110cb61194b565b9060005260206000200154600382815481106110e9576110e961194b565b906000526020600020018190555080600760006003848154811061110f5761110f61194b565b90600052602060002001548152602001908152602001600020819055505b600380548061113e5761113e611935565b6000828152602080822083016000199081018390559092019092559281526008835260408082208290556009845280822082905560079093529182209190915550565b8280548282559060005260206000209081019282156111d4579160200282015b828111156111d45781546001600160a01b0319166001600160a01b038435161782556020909201916001909101906111a1565b506111e09291506111fe565b5090565b508054600082559060005260206000209081019061084591905b5b808211156111e057600081556001016111ff565b600067ffffffffffffffff83111561122d5761122d611961565b611240601f8401601f1916602001611773565b905082815283838301111561125457600080fd5b828260208301376000602084830101529392505050565b80356001600160a01b038116811461128257600080fd5b919050565b60008083601f84011261129957600080fd5b50813567ffffffffffffffff8111156112b157600080fd5b6020830191508360208260051b85010111156112cc57600080fd5b9250929050565b600082601f8301126112e457600080fd5b813560206112f96112f4836117a4565b611773565b80838252828201915082860187848660051b890101111561131957600080fd5b60005b8581101561137057813567ffffffffffffffff81111561133b57600080fd5b8801603f81018a1361134c57600080fd5b61135d8a8783013560408401611213565b855250928401929084019060010161131c565b5090979650505050505050565b600082601f83011261138e57600080fd5b8135602061139e6112f4836117a4565b80838252828201915082860187848660051b89010111156113be57600080fd5b60005b8581101561137057813567ffffffffffffffff8111156113e057600080fd5b8801603f81018a136113f157600080fd5b6114028a8783013560408401611213565b85525092840192908401906001016113c1565b600082601f83011261142657600080fd5b813560206114366112f4836117a4565b80838252828201915082860187848660051b890101111561145657600080fd5b60005b8581101561137057813584529284019290840190600101611459565b60006020828403121561148757600080fd5b6114908261126b565b9392505050565b600080602083850312156114aa57600080fd5b823567ffffffffffffffff8111156114c157600080fd5b6114cd85828601611287565b90969095509350505050565b6000806000604084860312156114ee57600080fd5b833567ffffffffffffffff81111561150557600080fd5b61151186828701611287565b909790965060209590950135949350505050565b6000806000806080858703121561153b57600080fd5b843567ffffffffffffffff8082111561155357600080fd5b818701915087601f83011261156757600080fd5b813560206115776112f4836117a4565b8083825282820191508286018c848660051b890101111561159757600080fd5b600096505b848710156115c1576115ad8161126b565b83526001969096019591830191830161159c565b50985050880135925050808211156115d857600080fd5b6115e488838901611415565b945060408701359150808211156115fa57600080fd5b6116068883890161137d565b9350606087013591508082111561161c57600080fd5b50611629878288016112d3565b91505092959194509250565b60006020828403121561164757600080fd5b5035919050565b6000815160005b8181101561166f5760208185018101518683015201611655565b8181111561167e576000828601525b509290920192915050565b6001600160e01b03198316815260006116a5600483018461164e565b949350505050565b82848237909101908152602001919050565b6000611490828461164e565b6000608082016080835280885480835260a08501915089600052602092508260002060005b828110156117155781546001600160a01b0316845292840192600191820191016116f0565b50505083820188905283810360408501528581528690820160005b8781101561175c576001600160a01b036117498461126b565b1682529183019190830190600101611730565b508093505050508260608301529695505050505050565b604051601f8201601f1916810167ffffffffffffffff8111828210171561179c5761179c611961565b604052919050565b600067ffffffffffffffff8211156117be576117be611961565b5060051b60200190565b600082198211156117db576117db61191f565b500190565b600181815b8085111561181b5781600019048211156118015761180161191f565b8085161561180e57918102915b93841c93908002906117e5565b509250929050565b60006114908383600082611839575060016118c7565b81611846575060006118c7565b816001811461185c576002811461186657611882565b60019150506118c7565b60ff8411156118775761187761191f565b50506001821b6118c7565b5060208310610133831016604e8410600b84101617156118a5575081810a6118c7565b6118af83836117e0565b80600019048211156118c3576118c361191f565b0290505b92915050565b6000828210156118df576118df61191f565b500390565b60006000198214156118f8576118f861191f565b5060010190565b600060ff821660ff8114156119165761191661191f565b60010192915050565b634e487b7160e01b600052601160045260246000fd5b634e487b7160e01b600052603160045260246000fd5b634e487b7160e01b600052603260045260246000fd5b634e487b7160e01b600052604160045260246000fdfe476f7665726e6f724d756c74697369673a3a657865637574655472616e7361637472616e736665724f776e65727368697057697468486f774d616e793a206f77a2646970667358221220735088289b2a09729f5010f8cdea17d0c18289a0c9212d8bb1b9448268e9fa6964736f6c63430008060033",
          "opcodes": "PUSH1 0x80 PUSH1 0x40 MSTORE CALLVALUE DUP1 ISZERO PUSH2 0x10 JUMPI PUSH1 0x0 DUP1 REVERT JUMPDEST POP PUSH1 0x2 DUP1 SLOAD PUSH1 0x1 DUP2 DUP2 ADD SWAP1 SWAP3 SSTORE PUSH32 0x405787FA12A823E0F2B7631CC41B3BA8828B3321CA811111FA75CD3AA3BB5ACE ADD DUP1 SLOAD PUSH1 0x1 PUSH1 0x1 PUSH1 0xA0 SHL SUB NOT AND CALLER SWAP1 DUP2 OR SWAP1 SWAP2 SSTORE PUSH1 0x0 SWAP1 DUP2 MSTORE PUSH1 0x6 PUSH1 0x20 MSTORE PUSH1 0x40 SWAP1 KECCAK256 DUP2 SWAP1 SSTORE DUP1 SSTORE PUSH2 0x19ED DUP1 PUSH2 0x74 PUSH1 0x0 CODECOPY PUSH1 0x0 RETURN INVALID PUSH1 0x80 PUSH1 0x40 MSTORE CALLVALUE DUP1 ISZERO PUSH2 0x10 JUMPI PUSH1 0x0 DUP1 REVERT JUMPDEST POP PUSH1 0x4 CALLDATASIZE LT PUSH2 0x100 JUMPI PUSH1 0x0 CALLDATALOAD PUSH1 0xE0 SHR DUP1 PUSH4 0x8680CE4B GT PUSH2 0x97 JUMPI DUP1 PUSH4 0xB9488546 GT PUSH2 0x66 JUMPI DUP1 PUSH4 0xB9488546 EQ PUSH2 0x22A JUMPI DUP1 PUSH4 0xCC047A04 EQ PUSH2 0x232 JUMPI DUP1 PUSH4 0xE8518341 EQ PUSH2 0x252 JUMPI DUP1 PUSH4 0xEA1A2644 EQ PUSH2 0x265 JUMPI PUSH1 0x0 DUP1 REVERT JUMPDEST DUP1 PUSH4 0x8680CE4B EQ PUSH2 0x1DB JUMPI DUP1 PUSH4 0x893372CA EQ PUSH2 0x1EE JUMPI DUP1 PUSH4 0x90A53085 EQ PUSH2 0x201 JUMPI DUP1 PUSH4 0xB25BB3A7 EQ PUSH2 0x221 JUMPI PUSH1 0x0 DUP1 REVERT JUMPDEST DUP1 PUSH4 0x2F54BF6E GT PUSH2 0xD3 JUMPI DUP1 PUSH4 0x2F54BF6E EQ PUSH2 0x165 JUMPI DUP1 PUSH4 0x431AB233 EQ PUSH2 0x1A0 JUMPI DUP1 PUSH4 0x568B5915 EQ PUSH2 0x1B3 JUMPI DUP1 PUSH4 0x5DC2803A EQ PUSH2 0x1D3 JUMPI PUSH1 0x0 DUP1 REVERT JUMPDEST DUP1 PUSH4 0x25E7C27 EQ PUSH2 0x105 JUMPI DUP1 PUSH4 0x18BCD3D0 EQ PUSH2 0x135 JUMPI DUP1 PUSH4 0x22F2F89A EQ PUSH2 0x14A JUMPI DUP1 PUSH4 0x2F4A81DF EQ PUSH2 0x15C JUMPI JUMPDEST PUSH1 0x0 DUP1 REVERT JUMPDEST PUSH2 0x118 PUSH2 0x113 CALLDATASIZE PUSH1 0x4 PUSH2 0x1635 JUMP JUMPDEST PUSH2 0x285 JUMP JUMPDEST PUSH1 0x40 MLOAD PUSH1 0x1 PUSH1 0x1 PUSH1 0xA0 SHL SUB SWAP1 SWAP2 AND DUP2 MSTORE PUSH1 0x20 ADD JUMPDEST PUSH1 0x40 MLOAD DUP1 SWAP2 SUB SWAP1 RETURN JUMPDEST PUSH2 0x148 PUSH2 0x143 CALLDATASIZE PUSH1 0x4 PUSH2 0x1497 JUMP JUMPDEST PUSH2 0x2AF JUMP JUMPDEST STOP JUMPDEST PUSH1 0x3 SLOAD JUMPDEST PUSH1 0x40 MLOAD SWAP1 DUP2 MSTORE PUSH1 0x20 ADD PUSH2 0x12C JUMP JUMPDEST PUSH2 0x14E PUSH1 0x1 SLOAD DUP2 JUMP JUMPDEST PUSH2 0x190 PUSH2 0x173 CALLDATASIZE PUSH1 0x4 PUSH2 0x1475 JUMP JUMPDEST PUSH1 0x1 PUSH1 0x1 PUSH1 0xA0 SHL SUB AND PUSH1 0x0 SWAP1 DUP2 MSTORE PUSH1 0x6 PUSH1 0x20 MSTORE PUSH1 0x40 SWAP1 KECCAK256 SLOAD ISZERO ISZERO SWAP1 JUMP JUMPDEST PUSH1 0x40 MLOAD SWAP1 ISZERO ISZERO DUP2 MSTORE PUSH1 0x20 ADD PUSH2 0x12C JUMP JUMPDEST PUSH2 0x14E PUSH2 0x1AE CALLDATASIZE PUSH1 0x4 PUSH2 0x1635 JUMP JUMPDEST PUSH2 0x2BE JUMP JUMPDEST PUSH2 0x14E PUSH2 0x1C1 CALLDATASIZE PUSH1 0x4 PUSH2 0x1635 JUMP JUMPDEST PUSH1 0x8 PUSH1 0x20 MSTORE PUSH1 0x0 SWAP1 DUP2 MSTORE PUSH1 0x40 SWAP1 KECCAK256 SLOAD DUP2 JUMP JUMPDEST PUSH2 0x14E PUSH1 0xA DUP2 JUMP JUMPDEST PUSH2 0x148 PUSH2 0x1E9 CALLDATASIZE PUSH1 0x4 PUSH2 0x1525 JUMP JUMPDEST PUSH2 0x2DF JUMP JUMPDEST PUSH2 0x148 PUSH2 0x1FC CALLDATASIZE PUSH1 0x4 PUSH2 0x1635 JUMP JUMPDEST PUSH2 0x670 JUMP JUMPDEST PUSH2 0x14E PUSH2 0x20F CALLDATASIZE PUSH1 0x4 PUSH2 0x1635 JUMP JUMPDEST PUSH1 0x9 PUSH1 0x20 MSTORE PUSH1 0x0 SWAP1 DUP2 MSTORE PUSH1 0x40 SWAP1 KECCAK256 SLOAD DUP2 JUMP JUMPDEST PUSH2 0x14E PUSH1 0x0 SLOAD DUP2 JUMP JUMPDEST PUSH1 0x2 SLOAD PUSH2 0x14E JUMP JUMPDEST PUSH2 0x14E PUSH2 0x240 CALLDATASIZE PUSH1 0x4 PUSH2 0x1475 JUMP JUMPDEST PUSH1 0x6 PUSH1 0x20 MSTORE PUSH1 0x0 SWAP1 DUP2 MSTORE PUSH1 0x40 SWAP1 KECCAK256 SLOAD DUP2 JUMP JUMPDEST PUSH2 0x148 PUSH2 0x260 CALLDATASIZE PUSH1 0x4 PUSH2 0x14D9 JUMP JUMPDEST PUSH2 0x848 JUMP JUMPDEST PUSH2 0x14E PUSH2 0x273 CALLDATASIZE PUSH1 0x4 PUSH2 0x1635 JUMP JUMPDEST PUSH1 0x7 PUSH1 0x20 MSTORE PUSH1 0x0 SWAP1 DUP2 MSTORE PUSH1 0x40 SWAP1 KECCAK256 SLOAD DUP2 JUMP JUMPDEST PUSH1 0x2 DUP2 DUP2 SLOAD DUP2 LT PUSH2 0x295 JUMPI PUSH1 0x0 DUP1 REVERT JUMPDEST PUSH1 0x0 SWAP2 DUP3 MSTORE PUSH1 0x20 SWAP1 SWAP2 KECCAK256 ADD SLOAD PUSH1 0x1 PUSH1 0x1 PUSH1 0xA0 SHL SUB AND SWAP1 POP DUP2 JUMP JUMPDEST PUSH2 0x2BA DUP3 DUP3 DUP1 PUSH2 0x848 JUMP JUMPDEST POP POP JUMP JUMPDEST PUSH1 0x3 DUP2 DUP2 SLOAD DUP2 LT PUSH2 0x2CE JUMPI PUSH1 0x0 DUP1 REVERT JUMPDEST PUSH1 0x0 SWAP2 DUP3 MSTORE PUSH1 0x20 SWAP1 SWAP2 KECCAK256 ADD SLOAD SWAP1 POP DUP2 JUMP JUMPDEST PUSH2 0x2EA PUSH1 0x1 SLOAD PUSH2 0xCE1 JUMP JUMPDEST ISZERO PUSH2 0x66A JUMPI PUSH1 0x4 SLOAD PUSH1 0x1 PUSH1 0x1 PUSH1 0xA0 SHL SUB AND ISZERO DUP1 ISZERO PUSH2 0x31B JUMPI PUSH1 0x4 DUP1 SLOAD PUSH1 0x1 PUSH1 0x1 PUSH1 0xA0 SHL SUB NOT AND CALLER OR SWAP1 SSTORE PUSH1 0x1 SLOAD PUSH1 0x5 SSTORE JUMPDEST DUP4 MLOAD DUP6 MLOAD EQ DUP1 ISZERO PUSH2 0x32D JUMPI POP DUP3 MLOAD DUP6 MLOAD EQ JUMPDEST DUP1 ISZERO PUSH2 0x33A JUMPI POP DUP2 MLOAD DUP6 MLOAD EQ JUMPDEST PUSH2 0x3B1 JUMPI PUSH1 0x40 MLOAD PUSH3 0x461BCD PUSH1 0xE5 SHL DUP2 MSTORE PUSH1 0x20 PUSH1 0x4 DUP3 ADD MSTORE PUSH1 0x49 PUSH1 0x24 DUP3 ADD MSTORE PUSH1 0x0 DUP1 MLOAD PUSH1 0x20 PUSH2 0x1978 DUP4 CODECOPY DUP2 MLOAD SWAP2 MSTORE PUSH1 0x44 DUP3 ADD MSTORE PUSH32 0x74696F6E3A2066756E6374696F6E20696E666F726D6174696F6E206172697479 PUSH1 0x64 DUP3 ADD MSTORE PUSH9 0x40DAD2E6DAC2E8C6D PUSH1 0xBB SHL PUSH1 0x84 DUP3 ADD MSTORE PUSH1 0xA4 ADD JUMPDEST PUSH1 0x40 MLOAD DUP1 SWAP2 SUB SWAP1 REVERT JUMPDEST DUP5 MLOAD PUSH2 0x413 JUMPI PUSH1 0x40 MLOAD PUSH3 0x461BCD PUSH1 0xE5 SHL DUP2 MSTORE PUSH1 0x20 PUSH1 0x4 DUP3 ADD MSTORE PUSH1 0x3A PUSH1 0x24 DUP3 ADD MSTORE PUSH1 0x0 DUP1 MLOAD PUSH1 0x20 PUSH2 0x1978 DUP4 CODECOPY DUP2 MLOAD SWAP2 MSTORE PUSH1 0x44 DUP3 ADD MSTORE PUSH32 0x74696F6E3A206D7573742070726F7669646520616374696F6E73000000000000 PUSH1 0x64 DUP3 ADD MSTORE PUSH1 0x84 ADD PUSH2 0x3A8 JUMP JUMPDEST PUSH1 0xA DUP6 MLOAD GT ISZERO PUSH2 0x472 JUMPI PUSH1 0x40 MLOAD PUSH3 0x461BCD PUSH1 0xE5 SHL DUP2 MSTORE PUSH1 0x20 PUSH1 0x4 DUP3 ADD MSTORE PUSH1 0x36 PUSH1 0x24 DUP3 ADD MSTORE PUSH1 0x0 DUP1 MLOAD PUSH1 0x20 PUSH2 0x1978 DUP4 CODECOPY DUP2 MLOAD SWAP2 MSTORE PUSH1 0x44 DUP3 ADD MSTORE PUSH22 0x74696F6E3A20746F6F206D616E7920616374696F6E73 PUSH1 0x50 SHL PUSH1 0x64 DUP3 ADD MSTORE PUSH1 0x84 ADD PUSH2 0x3A8 JUMP JUMPDEST PUSH1 0x0 JUMPDEST DUP6 MLOAD DUP2 PUSH1 0xFF AND LT ISZERO PUSH2 0x64B JUMPI PUSH1 0x0 DUP5 DUP3 PUSH1 0xFF AND DUP2 MLOAD DUP2 LT PUSH2 0x498 JUMPI PUSH2 0x498 PUSH2 0x194B JUMP JUMPDEST PUSH1 0x20 MUL PUSH1 0x20 ADD ADD MLOAD MLOAD PUSH1 0x0 EQ PUSH2 0x50E JUMPI DUP5 DUP3 PUSH1 0xFF AND DUP2 MLOAD DUP2 LT PUSH2 0x4BD JUMPI PUSH2 0x4BD PUSH2 0x194B JUMP JUMPDEST PUSH1 0x20 MUL PUSH1 0x20 ADD ADD MLOAD DUP1 MLOAD SWAP1 PUSH1 0x20 ADD KECCAK256 DUP5 DUP4 PUSH1 0xFF AND DUP2 MLOAD DUP2 LT PUSH2 0x4E1 JUMPI PUSH2 0x4E1 PUSH2 0x194B JUMP JUMPDEST PUSH1 0x20 MUL PUSH1 0x20 ADD ADD MLOAD PUSH1 0x40 MLOAD PUSH1 0x20 ADD PUSH2 0x4FA SWAP3 SWAP2 SWAP1 PUSH2 0x1689 JUMP JUMPDEST PUSH1 0x40 MLOAD PUSH1 0x20 DUP2 DUP4 SUB SUB DUP2 MSTORE SWAP1 PUSH1 0x40 MSTORE PUSH2 0x52C JUMP JUMPDEST DUP4 DUP3 PUSH1 0xFF AND DUP2 MLOAD DUP2 LT PUSH2 0x523 JUMPI PUSH2 0x523 PUSH2 0x194B JUMP JUMPDEST PUSH1 0x20 MUL PUSH1 0x20 ADD ADD MLOAD JUMPDEST SWAP1 POP PUSH1 0x0 DUP8 DUP4 PUSH1 0xFF AND DUP2 MLOAD DUP2 LT PUSH2 0x545 JUMPI PUSH2 0x545 PUSH2 0x194B JUMP JUMPDEST PUSH1 0x20 MUL PUSH1 0x20 ADD ADD MLOAD PUSH1 0x1 PUSH1 0x1 PUSH1 0xA0 SHL SUB AND DUP8 DUP5 PUSH1 0xFF AND DUP2 MLOAD DUP2 LT PUSH2 0x56B JUMPI PUSH2 0x56B PUSH2 0x194B JUMP JUMPDEST PUSH1 0x20 MUL PUSH1 0x20 ADD ADD MLOAD DUP4 PUSH1 0x40 MLOAD PUSH2 0x581 SWAP2 SWAP1 PUSH2 0x16BF JUMP JUMPDEST PUSH1 0x0 PUSH1 0x40 MLOAD DUP1 DUP4 SUB DUP2 DUP6 DUP8 GAS CALL SWAP3 POP POP POP RETURNDATASIZE DUP1 PUSH1 0x0 DUP2 EQ PUSH2 0x5BE JUMPI PUSH1 0x40 MLOAD SWAP2 POP PUSH1 0x1F NOT PUSH1 0x3F RETURNDATASIZE ADD AND DUP3 ADD PUSH1 0x40 MSTORE RETURNDATASIZE DUP3 MSTORE RETURNDATASIZE PUSH1 0x0 PUSH1 0x20 DUP5 ADD RETURNDATACOPY PUSH2 0x5C3 JUMP JUMPDEST PUSH1 0x60 SWAP2 POP JUMPDEST POP POP SWAP1 POP DUP1 PUSH2 0x636 JUMPI PUSH1 0x40 MLOAD PUSH3 0x461BCD PUSH1 0xE5 SHL DUP2 MSTORE PUSH1 0x20 PUSH1 0x4 DUP3 ADD MSTORE PUSH1 0x44 PUSH1 0x24 DUP3 ADD DUP2 SWAP1 MSTORE PUSH1 0x0 DUP1 MLOAD PUSH1 0x20 PUSH2 0x1978 DUP4 CODECOPY DUP2 MLOAD SWAP2 MSTORE SWAP1 DUP3 ADD MSTORE PUSH32 0x74696F6E3A207472616E73616374696F6E20657865637574696F6E2072657665 PUSH1 0x64 DUP3 ADD MSTORE PUSH4 0x1C9D1959 PUSH1 0xE2 SHL PUSH1 0x84 DUP3 ADD MSTORE PUSH1 0xA4 ADD PUSH2 0x3A8 JUMP JUMPDEST POP POP DUP1 DUP1 PUSH2 0x643 SWAP1 PUSH2 0x18FF JUMP JUMPDEST SWAP2 POP POP PUSH2 0x475 JUMP JUMPDEST POP DUP1 ISZERO PUSH2 0x668 JUMPI PUSH1 0x4 DUP1 SLOAD PUSH1 0x1 PUSH1 0x1 PUSH1 0xA0 SHL SUB NOT AND SWAP1 SSTORE PUSH1 0x0 PUSH1 0x5 SSTORE JUMPDEST POP JUMPDEST POP POP POP POP JUMP JUMPDEST PUSH2 0x67A PUSH1 0x1 PUSH2 0xCE1 JUMP JUMPDEST ISZERO PUSH2 0x845 JUMPI PUSH1 0x4 SLOAD PUSH1 0x1 PUSH1 0x1 PUSH1 0xA0 SHL SUB AND ISZERO DUP1 ISZERO PUSH2 0x6AA JUMPI PUSH1 0x4 DUP1 SLOAD PUSH1 0x1 PUSH1 0x1 PUSH1 0xA0 SHL SUB NOT AND CALLER OR SWAP1 SSTORE PUSH1 0x1 PUSH1 0x5 SSTORE JUMPDEST CALLER PUSH1 0x0 SWAP1 DUP2 MSTORE PUSH1 0x6 PUSH1 0x20 MSTORE PUSH1 0x40 DUP2 KECCAK256 SLOAD PUSH2 0x6C6 SWAP1 PUSH1 0x1 SWAP1 PUSH2 0x18CD JUMP JUMPDEST SWAP1 POP PUSH2 0x6D3 DUP2 PUSH1 0x2 PUSH2 0x1823 JUMP JUMPDEST PUSH1 0x0 DUP5 DUP2 MSTORE PUSH1 0x8 PUSH1 0x20 MSTORE PUSH1 0x40 SWAP1 KECCAK256 SLOAD AND PUSH2 0x748 JUMPI PUSH1 0x40 MLOAD PUSH3 0x461BCD PUSH1 0xE5 SHL DUP2 MSTORE PUSH1 0x20 PUSH1 0x4 DUP3 ADD MSTORE PUSH1 0x30 PUSH1 0x24 DUP3 ADD MSTORE PUSH32 0x63616E63656C50656E64696E673A206F7065726174696F6E206E6F7420666F75 PUSH1 0x44 DUP3 ADD MSTORE PUSH16 0x3732103337B9103A3434B9903AB9B2B9 PUSH1 0x81 SHL PUSH1 0x64 DUP3 ADD MSTORE PUSH1 0x84 ADD PUSH2 0x3A8 JUMP JUMPDEST PUSH2 0x753 DUP2 PUSH1 0x2 PUSH2 0x1823 JUMP JUMPDEST PUSH1 0x0 DUP5 DUP2 MSTORE PUSH1 0x8 PUSH1 0x20 SWAP1 DUP2 MSTORE PUSH1 0x40 DUP1 DUP4 KECCAK256 DUP1 SLOAD SWAP5 NOT SWAP1 SWAP5 AND SWAP1 SWAP4 SSTORE PUSH1 0x9 SWAP1 MSTORE SWAP1 DUP2 KECCAK256 SLOAD PUSH2 0x782 SWAP1 PUSH1 0x1 SWAP1 PUSH2 0x18CD JUMP JUMPDEST PUSH1 0x0 DUP6 DUP2 MSTORE PUSH1 0x9 PUSH1 0x20 SWAP1 DUP2 MSTORE PUSH1 0x40 SWAP2 DUP3 SWAP1 KECCAK256 DUP4 SWAP1 SSTORE PUSH1 0x2 SLOAD DUP3 MLOAD DUP9 DUP2 MSTORE SWAP2 DUP3 ADD DUP5 SWAP1 MSTORE DUP2 DUP4 ADD MSTORE CALLER PUSH1 0x60 DUP3 ADD MSTORE SWAP1 MLOAD SWAP2 SWAP3 POP PUSH32 0x3E0A7036018B5A2A3C5D0AFA14E51998EF3CF98C38E4289A8897222B3ACF75A7 SWAP2 SWAP1 DUP2 SWAP1 SUB PUSH1 0x80 ADD SWAP1 LOG1 DUP1 PUSH2 0x826 JUMPI PUSH2 0x7ED DUP5 PUSH2 0x1086 JUMP JUMPDEST PUSH1 0x40 DUP1 MLOAD DUP6 DUP2 MSTORE CALLER PUSH1 0x20 DUP3 ADD MSTORE PUSH32 0x55E0DD61C29AAC6FC36807628300AD3E3EC68655AE76AE4002F7FB101496FA9F SWAP2 ADD PUSH1 0x40 MLOAD DUP1 SWAP2 SUB SWAP1 LOG1 JUMPDEST POP POP DUP1 ISZERO PUSH2 0x2BA JUMPI PUSH1 0x4 DUP1 SLOAD PUSH1 0x1 PUSH1 0x1 PUSH1 0xA0 SHL SUB NOT AND SWAP1 SSTORE PUSH1 0x0 PUSH1 0x5 SSTORE POP JUMPDEST POP JUMP JUMPDEST PUSH2 0x853 PUSH1 0x1 SLOAD PUSH2 0xCE1 JUMP JUMPDEST ISZERO PUSH2 0xCDC JUMPI PUSH1 0x4 SLOAD PUSH1 0x1 PUSH1 0x1 PUSH1 0xA0 SHL SUB AND ISZERO DUP1 ISZERO PUSH2 0x884 JUMPI PUSH1 0x4 DUP1 SLOAD PUSH1 0x1 PUSH1 0x1 PUSH1 0xA0 SHL SUB NOT AND CALLER OR SWAP1 SSTORE PUSH1 0x1 SLOAD PUSH1 0x5 SSTORE JUMPDEST DUP3 PUSH2 0x8DB JUMPI PUSH1 0x40 MLOAD PUSH3 0x461BCD PUSH1 0xE5 SHL DUP2 MSTORE PUSH1 0x20 PUSH1 0x4 DUP3 ADD MSTORE PUSH1 0x33 PUSH1 0x24 DUP3 ADD MSTORE PUSH1 0x0 DUP1 MLOAD PUSH1 0x20 PUSH2 0x1998 DUP4 CODECOPY DUP2 MLOAD SWAP2 MSTORE PUSH1 0x44 DUP3 ADD MSTORE PUSH19 0x6E65727320617272617920697320656D707479 PUSH1 0x68 SHL PUSH1 0x64 DUP3 ADD MSTORE PUSH1 0x84 ADD PUSH2 0x3A8 JUMP JUMPDEST PUSH2 0x100 DUP4 GT ISZERO PUSH2 0x941 JUMPI PUSH1 0x40 MLOAD PUSH3 0x461BCD PUSH1 0xE5 SHL DUP2 MSTORE PUSH1 0x20 PUSH1 0x4 DUP3 ADD MSTORE PUSH1 0x3E PUSH1 0x24 DUP3 ADD MSTORE PUSH1 0x0 DUP1 MLOAD PUSH1 0x20 PUSH2 0x1998 DUP4 CODECOPY DUP2 MLOAD SWAP2 MSTORE PUSH1 0x44 DUP3 ADD MSTORE PUSH32 0x6E65727320636F756E742069732067726561746572207468656E203235360000 PUSH1 0x64 DUP3 ADD MSTORE PUSH1 0x84 ADD PUSH2 0x3A8 JUMP JUMPDEST PUSH1 0x0 DUP3 GT PUSH2 0x9B7 JUMPI PUSH1 0x40 MLOAD PUSH3 0x461BCD PUSH1 0xE5 SHL DUP2 MSTORE PUSH1 0x20 PUSH1 0x4 DUP3 ADD MSTORE PUSH1 0x3F PUSH1 0x24 DUP3 ADD MSTORE PUSH32 0x7472616E736665724F776E65727368697057697468486F774D616E793A206E65 PUSH1 0x44 DUP3 ADD MSTORE PUSH32 0x77486F774D616E794F776E65727344656369646520657175616C20746F203000 PUSH1 0x64 DUP3 ADD MSTORE PUSH1 0x84 ADD PUSH2 0x3A8 JUMP JUMPDEST DUP3 DUP3 GT ISZERO PUSH2 0xA47 JUMPI PUSH1 0x40 MLOAD PUSH3 0x461BCD PUSH1 0xE5 SHL DUP2 MSTORE PUSH1 0x20 PUSH1 0x4 DUP3 ADD MSTORE PUSH1 0x51 PUSH1 0x24 DUP3 ADD MSTORE PUSH32 0x7472616E736665724F776E65727368697057697468486F774D616E793A206E65 PUSH1 0x44 DUP3 ADD MSTORE PUSH32 0x77486F774D616E794F776E657273446563696465206578636565647320746865 PUSH1 0x64 DUP3 ADD MSTORE PUSH17 0x206E756D626572206F66206F776E657273 PUSH1 0x78 SHL PUSH1 0x84 DUP3 ADD MSTORE PUSH1 0xA4 ADD PUSH2 0x3A8 JUMP JUMPDEST PUSH1 0x0 JUMPDEST PUSH1 0x2 SLOAD DUP2 LT ISZERO PUSH2 0xAA2 JUMPI PUSH1 0x6 PUSH1 0x0 PUSH1 0x2 DUP4 DUP2 SLOAD DUP2 LT PUSH2 0xA6B JUMPI PUSH2 0xA6B PUSH2 0x194B JUMP JUMPDEST PUSH1 0x0 SWAP2 DUP3 MSTORE PUSH1 0x20 DUP1 DUP4 KECCAK256 SWAP1 SWAP2 ADD SLOAD PUSH1 0x1 PUSH1 0x1 PUSH1 0xA0 SHL SUB AND DUP4 MSTORE DUP3 ADD SWAP3 SWAP1 SWAP3 MSTORE PUSH1 0x40 ADD DUP2 KECCAK256 SSTORE DUP1 PUSH2 0xA9A DUP2 PUSH2 0x18E4 JUMP JUMPDEST SWAP2 POP POP PUSH2 0xA4A JUMP JUMPDEST POP PUSH1 0x0 JUMPDEST DUP4 DUP2 LT ISZERO PUSH2 0xC4A JUMPI PUSH1 0x0 DUP6 DUP6 DUP4 DUP2 DUP2 LT PUSH2 0xAC2 JUMPI PUSH2 0xAC2 PUSH2 0x194B JUMP JUMPDEST SWAP1 POP PUSH1 0x20 MUL ADD PUSH1 0x20 DUP2 ADD SWAP1 PUSH2 0xAD7 SWAP2 SWAP1 PUSH2 0x1475 JUMP JUMPDEST PUSH1 0x1 PUSH1 0x1 PUSH1 0xA0 SHL SUB AND EQ ISZERO PUSH2 0xB42 JUMPI PUSH1 0x40 MLOAD PUSH3 0x461BCD PUSH1 0xE5 SHL DUP2 MSTORE PUSH1 0x20 PUSH1 0x4 DUP3 ADD MSTORE PUSH1 0x38 PUSH1 0x24 DUP3 ADD MSTORE PUSH1 0x0 DUP1 MLOAD PUSH1 0x20 PUSH2 0x1998 DUP4 CODECOPY DUP2 MLOAD SWAP2 MSTORE PUSH1 0x44 DUP3 ADD MSTORE PUSH32 0x6E65727320617272617920636F6E7461696E73207A65726F0000000000000000 PUSH1 0x64 DUP3 ADD MSTORE PUSH1 0x84 ADD PUSH2 0x3A8 JUMP JUMPDEST PUSH1 0x6 PUSH1 0x0 DUP7 DUP7 DUP5 DUP2 DUP2 LT PUSH2 0xB58 JUMPI PUSH2 0xB58 PUSH2 0x194B JUMP JUMPDEST SWAP1 POP PUSH1 0x20 MUL ADD PUSH1 0x20 DUP2 ADD SWAP1 PUSH2 0xB6D SWAP2 SWAP1 PUSH2 0x1475 JUMP JUMPDEST PUSH1 0x1 PUSH1 0x1 PUSH1 0xA0 SHL SUB AND DUP2 MSTORE PUSH1 0x20 DUP2 ADD SWAP2 SWAP1 SWAP2 MSTORE PUSH1 0x40 ADD PUSH1 0x0 KECCAK256 SLOAD ISZERO PUSH2 0xBE8 JUMPI PUSH1 0x40 MLOAD PUSH3 0x461BCD PUSH1 0xE5 SHL DUP2 MSTORE PUSH1 0x20 PUSH1 0x4 DUP3 ADD MSTORE PUSH1 0x3E PUSH1 0x24 DUP3 ADD MSTORE PUSH1 0x0 DUP1 MLOAD PUSH1 0x20 PUSH2 0x1998 DUP4 CODECOPY DUP2 MLOAD SWAP2 MSTORE PUSH1 0x44 DUP3 ADD MSTORE PUSH32 0x6E65727320617272617920636F6E7461696E73206475706C6963617465730000 PUSH1 0x64 DUP3 ADD MSTORE PUSH1 0x84 ADD PUSH2 0x3A8 JUMP JUMPDEST PUSH2 0xBF3 DUP2 PUSH1 0x1 PUSH2 0x17C8 JUMP JUMPDEST PUSH1 0x6 PUSH1 0x0 DUP8 DUP8 DUP6 DUP2 DUP2 LT PUSH2 0xC09 JUMPI PUSH2 0xC09 PUSH2 0x194B JUMP JUMPDEST SWAP1 POP PUSH1 0x20 MUL ADD PUSH1 0x20 DUP2 ADD SWAP1 PUSH2 0xC1E SWAP2 SWAP1 PUSH2 0x1475 JUMP JUMPDEST PUSH1 0x1 PUSH1 0x1 PUSH1 0xA0 SHL SUB AND DUP2 MSTORE PUSH1 0x20 DUP2 ADD SWAP2 SWAP1 SWAP2 MSTORE PUSH1 0x40 ADD PUSH1 0x0 KECCAK256 SSTORE DUP1 PUSH2 0xC42 DUP2 PUSH2 0x18E4 JUMP JUMPDEST SWAP2 POP POP PUSH2 0xAA6 JUMP JUMPDEST POP PUSH32 0xD167B96814CD24898418CC293E8D47D54AFE6DCF0631283F0830E1EAE621F6BD PUSH1 0x2 PUSH1 0x1 SLOAD DUP7 DUP7 DUP7 PUSH1 0x40 MLOAD PUSH2 0xC85 SWAP6 SWAP5 SWAP4 SWAP3 SWAP2 SWAP1 PUSH2 0x16CB JUMP JUMPDEST PUSH1 0x40 MLOAD DUP1 SWAP2 SUB SWAP1 LOG1 PUSH2 0xC99 PUSH1 0x2 DUP6 DUP6 PUSH2 0x1181 JUMP JUMPDEST POP PUSH1 0x1 DUP3 SWAP1 SSTORE PUSH2 0xCAB PUSH1 0x3 PUSH1 0x0 PUSH2 0x11E4 JUMP JUMPDEST PUSH1 0x0 DUP1 SLOAD SWAP1 DUP1 PUSH2 0xCBA DUP4 PUSH2 0x18E4 JUMP JUMPDEST SWAP2 SWAP1 POP SSTORE POP DUP1 ISZERO PUSH2 0x66A JUMPI PUSH1 0x4 DUP1 SLOAD PUSH1 0x1 PUSH1 0x1 PUSH1 0xA0 SHL SUB NOT AND SWAP1 SSTORE PUSH1 0x0 PUSH1 0x5 SSTORE POP JUMPDEST POP POP POP JUMP JUMPDEST PUSH1 0x4 SLOAD PUSH1 0x0 SWAP1 PUSH1 0x1 PUSH1 0x1 PUSH1 0xA0 SHL SUB AND CALLER EQ ISZERO PUSH2 0xD85 JUMPI PUSH1 0x5 SLOAD DUP3 GT ISZERO PUSH2 0xD7D JUMPI PUSH1 0x40 MLOAD PUSH3 0x461BCD PUSH1 0xE5 SHL DUP2 MSTORE PUSH1 0x20 PUSH1 0x4 DUP3 ADD MSTORE PUSH1 0x44 PUSH1 0x24 DUP3 ADD DUP2 SWAP1 MSTORE PUSH32 0x636865636B486F774D616E794F776E6572733A206E6573746564206F776E6572 SWAP1 DUP3 ADD MSTORE PUSH32 0x73206D6F64696669657220636865636B2072657175697265206D6F7265206F77 PUSH1 0x64 DUP3 ADD MSTORE PUSH4 0x6E657273 PUSH1 0xE0 SHL PUSH1 0x84 DUP3 ADD MSTORE PUSH1 0xA4 ADD PUSH2 0x3A8 JUMP JUMPDEST POP PUSH1 0x1 SWAP2 SWAP1 POP JUMP JUMPDEST CALLER PUSH1 0x0 SWAP1 DUP2 MSTORE PUSH1 0x6 PUSH1 0x20 MSTORE PUSH1 0x40 SWAP1 KECCAK256 SLOAD PUSH2 0xDF8 JUMPI PUSH1 0x40 MLOAD PUSH3 0x461BCD PUSH1 0xE5 SHL DUP2 MSTORE PUSH1 0x20 PUSH1 0x4 DUP3 ADD MSTORE PUSH1 0x2E PUSH1 0x24 DUP3 ADD MSTORE PUSH32 0x636865636B486F774D616E794F776E6572733A206D73672E73656E6465722069 PUSH1 0x44 DUP3 ADD MSTORE PUSH14 0x39903737BA1030B71037BBB732B9 PUSH1 0x91 SHL PUSH1 0x64 DUP3 ADD MSTORE PUSH1 0x84 ADD PUSH2 0x3A8 JUMP JUMPDEST CALLER PUSH1 0x0 SWAP1 DUP2 MSTORE PUSH1 0x6 PUSH1 0x20 MSTORE PUSH1 0x40 DUP2 KECCAK256 SLOAD PUSH2 0xE14 SWAP1 PUSH1 0x1 SWAP1 PUSH2 0x18CD JUMP JUMPDEST SWAP1 POP PUSH1 0x0 DUP1 CALLDATASIZE PUSH1 0x0 SLOAD PUSH1 0x40 MLOAD PUSH1 0x20 ADD PUSH2 0xE2F SWAP4 SWAP3 SWAP2 SWAP1 PUSH2 0x16AD JUMP JUMPDEST PUSH1 0x40 MLOAD PUSH1 0x20 DUP2 DUP4 SUB SUB DUP2 MSTORE SWAP1 PUSH1 0x40 MSTORE DUP1 MLOAD SWAP1 PUSH1 0x20 ADD KECCAK256 SWAP1 POP DUP2 PUSH1 0x2 PUSH2 0xE54 SWAP2 SWAP1 PUSH2 0x1823 JUMP JUMPDEST PUSH1 0x0 DUP3 DUP2 MSTORE PUSH1 0x8 PUSH1 0x20 MSTORE PUSH1 0x40 SWAP1 KECCAK256 SLOAD AND ISZERO PUSH2 0xED7 JUMPI PUSH1 0x40 MLOAD PUSH3 0x461BCD PUSH1 0xE5 SHL DUP2 MSTORE PUSH1 0x20 PUSH1 0x4 DUP3 ADD MSTORE PUSH1 0x39 PUSH1 0x24 DUP3 ADD MSTORE PUSH32 0x636865636B486F774D616E794F776E6572733A206F776E657220616C72656164 PUSH1 0x44 DUP3 ADD MSTORE PUSH32 0x7920766F74656420666F7220746865206F7065726174696F6E00000000000000 PUSH1 0x64 DUP3 ADD MSTORE PUSH1 0x84 ADD PUSH2 0x3A8 JUMP JUMPDEST PUSH2 0xEE2 DUP3 PUSH1 0x2 PUSH2 0x1823 JUMP JUMPDEST PUSH1 0x0 DUP3 DUP2 MSTORE PUSH1 0x8 PUSH1 0x20 SWAP1 DUP2 MSTORE PUSH1 0x40 DUP1 DUP4 KECCAK256 DUP1 SLOAD SWAP1 SWAP5 OR SWAP1 SWAP4 SSTORE PUSH1 0x9 SWAP1 MSTORE SWAP1 DUP2 KECCAK256 SLOAD PUSH2 0xF0E SWAP1 PUSH1 0x1 PUSH2 0x17C8 JUMP JUMPDEST PUSH1 0x0 DUP4 DUP2 MSTORE PUSH1 0x9 PUSH1 0x20 MSTORE PUSH1 0x40 SWAP1 KECCAK256 DUP2 SWAP1 SSTORE SWAP1 POP PUSH1 0x1 DUP2 EQ ISZERO PUSH2 0xFB8 JUMPI PUSH1 0x3 DUP1 SLOAD PUSH1 0x0 DUP5 DUP2 MSTORE PUSH1 0x7 PUSH1 0x20 SWAP1 DUP2 MSTORE PUSH1 0x40 DUP1 DUP4 KECCAK256 DUP5 SWAP1 SSTORE PUSH1 0x1 DUP5 ADD DUP6 SSTORE SWAP4 SWAP1 SWAP2 MSTORE PUSH32 0xC2575A0E9E593C00F959F8C92F12DB2869C3395A3B0502D05E2516446F71F85B SWAP1 SWAP2 ADD DUP5 SWAP1 SSTORE PUSH1 0x2 SLOAD DUP3 MLOAD DUP6 DUP2 MSTORE SWAP2 DUP3 ADD DUP9 SWAP1 MSTORE DUP2 DUP4 ADD MSTORE CALLER PUSH1 0x60 DUP3 ADD MSTORE SWAP1 MLOAD PUSH32 0x6BAB0114F9524353D2D33E64EDD3EBBD16E21EDD57DE2226BA76C310A7CE2265 SWAP2 DUP2 SWAP1 SUB PUSH1 0x80 ADD SWAP1 LOG1 JUMPDEST PUSH1 0x2 SLOAD PUSH1 0x40 DUP1 MLOAD DUP5 DUP2 MSTORE PUSH1 0x20 DUP2 ADD DUP5 SWAP1 MSTORE DUP1 DUP3 ADD DUP9 SWAP1 MSTORE PUSH1 0x60 DUP2 ADD SWAP3 SWAP1 SWAP3 MSTORE CALLER PUSH1 0x80 DUP4 ADD MSTORE MLOAD PUSH32 0x8DD9582C6577AEA81973B5ADEB6C135F6E18565D99578B7BA0C9377437EC0221 SWAP2 DUP2 SWAP1 SUB PUSH1 0xA0 ADD SWAP1 LOG1 PUSH1 0x0 DUP3 DUP2 MSTORE PUSH1 0x9 PUSH1 0x20 MSTORE PUSH1 0x40 SWAP1 KECCAK256 SLOAD DUP6 EQ ISZERO PUSH2 0x107B JUMPI PUSH2 0x1027 DUP3 PUSH2 0x1086 JUMP JUMPDEST PUSH1 0x2 SLOAD PUSH1 0x40 DUP1 MLOAD DUP5 DUP2 MSTORE PUSH1 0x20 DUP2 ADD DUP9 SWAP1 MSTORE DUP1 DUP3 ADD SWAP3 SWAP1 SWAP3 MSTORE CALLER PUSH1 0x60 DUP4 ADD MSTORE MLOAD PUSH32 0x8A11C8CA99994C292318CE367F65BF6FF61D390BC814B3588496F6FBCC32807A SWAP2 DUP2 SWAP1 SUB PUSH1 0x80 ADD SWAP1 LOG1 POP PUSH1 0x1 SWAP5 SWAP4 POP POP POP POP JUMP JUMPDEST POP PUSH1 0x0 SWAP5 SWAP4 POP POP POP POP JUMP JUMPDEST PUSH1 0x0 DUP2 DUP2 MSTORE PUSH1 0x7 PUSH1 0x20 MSTORE PUSH1 0x40 SWAP1 KECCAK256 SLOAD PUSH1 0x3 SLOAD PUSH2 0x10A4 SWAP1 PUSH1 0x1 SWAP1 PUSH2 0x18CD JUMP JUMPDEST DUP2 LT ISZERO PUSH2 0x112D JUMPI PUSH1 0x3 DUP1 SLOAD PUSH2 0x10BB SWAP1 PUSH1 0x1 SWAP1 PUSH2 0x18CD JUMP JUMPDEST DUP2 SLOAD DUP2 LT PUSH2 0x10CB JUMPI PUSH2 0x10CB PUSH2 0x194B JUMP JUMPDEST SWAP1 PUSH1 0x0 MSTORE PUSH1 0x20 PUSH1 0x0 KECCAK256 ADD SLOAD PUSH1 0x3 DUP3 DUP2 SLOAD DUP2 LT PUSH2 0x10E9 JUMPI PUSH2 0x10E9 PUSH2 0x194B JUMP JUMPDEST SWAP1 PUSH1 0x0 MSTORE PUSH1 0x20 PUSH1 0x0 KECCAK256 ADD DUP2 SWAP1 SSTORE POP DUP1 PUSH1 0x7 PUSH1 0x0 PUSH1 0x3 DUP5 DUP2 SLOAD DUP2 LT PUSH2 0x110F JUMPI PUSH2 0x110F PUSH2 0x194B JUMP JUMPDEST SWAP1 PUSH1 0x0 MSTORE PUSH1 0x20 PUSH1 0x0 KECCAK256 ADD SLOAD DUP2 MSTORE PUSH1 0x20 ADD SWAP1 DUP2 MSTORE PUSH1 0x20 ADD PUSH1 0x0 KECCAK256 DUP2 SWAP1 SSTORE POP JUMPDEST PUSH1 0x3 DUP1 SLOAD DUP1 PUSH2 0x113E JUMPI PUSH2 0x113E PUSH2 0x1935 JUMP JUMPDEST PUSH1 0x0 DUP3 DUP2 MSTORE PUSH1 0x20 DUP1 DUP3 KECCAK256 DUP4 ADD PUSH1 0x0 NOT SWAP1 DUP2 ADD DUP4 SWAP1 SSTORE SWAP1 SWAP3 ADD SWAP1 SWAP3 SSTORE SWAP3 DUP2 MSTORE PUSH1 0x8 DUP4 MSTORE PUSH1 0x40 DUP1 DUP3 KECCAK256 DUP3 SWAP1 SSTORE PUSH1 0x9 DUP5 MSTORE DUP1 DUP3 KECCAK256 DUP3 SWAP1 SSTORE PUSH1 0x7 SWAP1 SWAP4 MSTORE SWAP2 DUP3 KECCAK256 SWAP2 SWAP1 SWAP2 SSTORE POP JUMP JUMPDEST DUP3 DUP1 SLOAD DUP3 DUP3 SSTORE SWAP1 PUSH1 0x0 MSTORE PUSH1 0x20 PUSH1 0x0 KECCAK256 SWAP1 DUP2 ADD SWAP3 DUP3 ISZERO PUSH2 0x11D4 JUMPI SWAP2 PUSH1 0x20 MUL DUP3 ADD JUMPDEST DUP3 DUP2 GT ISZERO PUSH2 0x11D4 JUMPI DUP2 SLOAD PUSH1 0x1 PUSH1 0x1 PUSH1 0xA0 SHL SUB NOT AND PUSH1 0x1 PUSH1 0x1 PUSH1 0xA0 SHL SUB DUP5 CALLDATALOAD AND OR DUP3 SSTORE PUSH1 0x20 SWAP1 SWAP3 ADD SWAP2 PUSH1 0x1 SWAP1 SWAP2 ADD SWAP1 PUSH2 0x11A1 JUMP JUMPDEST POP PUSH2 0x11E0 SWAP3 SWAP2 POP PUSH2 0x11FE JUMP JUMPDEST POP SWAP1 JUMP JUMPDEST POP DUP1 SLOAD PUSH1 0x0 DUP3 SSTORE SWAP1 PUSH1 0x0 MSTORE PUSH1 0x20 PUSH1 0x0 KECCAK256 SWAP1 DUP2 ADD SWAP1 PUSH2 0x845 SWAP2 SWAP1 JUMPDEST JUMPDEST DUP1 DUP3 GT ISZERO PUSH2 0x11E0 JUMPI PUSH1 0x0 DUP2 SSTORE PUSH1 0x1 ADD PUSH2 0x11FF JUMP JUMPDEST PUSH1 0x0 PUSH8 0xFFFFFFFFFFFFFFFF DUP4 GT ISZERO PUSH2 0x122D JUMPI PUSH2 0x122D PUSH2 0x1961 JUMP JUMPDEST PUSH2 0x1240 PUSH1 0x1F DUP5 ADD PUSH1 0x1F NOT AND PUSH1 0x20 ADD PUSH2 0x1773 JUMP JUMPDEST SWAP1 POP DUP3 DUP2 MSTORE DUP4 DUP4 DUP4 ADD GT ISZERO PUSH2 0x1254 JUMPI PUSH1 0x0 DUP1 REVERT JUMPDEST DUP3 DUP3 PUSH1 0x20 DUP4 ADD CALLDATACOPY PUSH1 0x0 PUSH1 0x20 DUP5 DUP4 ADD ADD MSTORE SWAP4 SWAP3 POP POP POP JUMP JUMPDEST DUP1 CALLDATALOAD PUSH1 0x1 PUSH1 0x1 PUSH1 0xA0 SHL SUB DUP2 AND DUP2 EQ PUSH2 0x1282 JUMPI PUSH1 0x0 DUP1 REVERT JUMPDEST SWAP2 SWAP1 POP JUMP JUMPDEST PUSH1 0x0 DUP1 DUP4 PUSH1 0x1F DUP5 ADD SLT PUSH2 0x1299 JUMPI PUSH1 0x0 DUP1 REVERT JUMPDEST POP DUP2 CALLDATALOAD PUSH8 0xFFFFFFFFFFFFFFFF DUP2 GT ISZERO PUSH2 0x12B1 JUMPI PUSH1 0x0 DUP1 REVERT JUMPDEST PUSH1 0x20 DUP4 ADD SWAP2 POP DUP4 PUSH1 0x20 DUP3 PUSH1 0x5 SHL DUP6 ADD ADD GT ISZERO PUSH2 0x12CC JUMPI PUSH1 0x0 DUP1 REVERT JUMPDEST SWAP3 POP SWAP3 SWAP1 POP JUMP JUMPDEST PUSH1 0x0 DUP3 PUSH1 0x1F DUP4 ADD SLT PUSH2 0x12E4 JUMPI PUSH1 0x0 DUP1 REVERT JUMPDEST DUP2 CALLDATALOAD PUSH1 0x20 PUSH2 0x12F9 PUSH2 0x12F4 DUP4 PUSH2 0x17A4 JUMP JUMPDEST PUSH2 0x1773 JUMP JUMPDEST DUP1 DUP4 DUP3 MSTORE DUP3 DUP3 ADD SWAP2 POP DUP3 DUP7 ADD DUP8 DUP5 DUP7 PUSH1 0x5 SHL DUP10 ADD ADD GT ISZERO PUSH2 0x1319 JUMPI PUSH1 0x0 DUP1 REVERT JUMPDEST PUSH1 0x0 JUMPDEST DUP6 DUP2 LT ISZERO PUSH2 0x1370 JUMPI DUP2 CALLDATALOAD PUSH8 0xFFFFFFFFFFFFFFFF DUP2 GT ISZERO PUSH2 0x133B JUMPI PUSH1 0x0 DUP1 REVERT JUMPDEST DUP9 ADD PUSH1 0x3F DUP2 ADD DUP11 SGT PUSH2 0x134C JUMPI PUSH1 0x0 DUP1 REVERT JUMPDEST PUSH2 0x135D DUP11 DUP8 DUP4 ADD CALLDATALOAD PUSH1 0x40 DUP5 ADD PUSH2 0x1213 JUMP JUMPDEST DUP6 MSTORE POP SWAP3 DUP5 ADD SWAP3 SWAP1 DUP5 ADD SWAP1 PUSH1 0x1 ADD PUSH2 0x131C JUMP JUMPDEST POP SWAP1 SWAP8 SWAP7 POP POP POP POP POP POP POP JUMP JUMPDEST PUSH1 0x0 DUP3 PUSH1 0x1F DUP4 ADD SLT PUSH2 0x138E JUMPI PUSH1 0x0 DUP1 REVERT JUMPDEST DUP2 CALLDATALOAD PUSH1 0x20 PUSH2 0x139E PUSH2 0x12F4 DUP4 PUSH2 0x17A4 JUMP JUMPDEST DUP1 DUP4 DUP3 MSTORE DUP3 DUP3 ADD SWAP2 POP DUP3 DUP7 ADD DUP8 DUP5 DUP7 PUSH1 0x5 SHL DUP10 ADD ADD GT ISZERO PUSH2 0x13BE JUMPI PUSH1 0x0 DUP1 REVERT JUMPDEST PUSH1 0x0 JUMPDEST DUP6 DUP2 LT ISZERO PUSH2 0x1370 JUMPI DUP2 CALLDATALOAD PUSH8 0xFFFFFFFFFFFFFFFF DUP2 GT ISZERO PUSH2 0x13E0 JUMPI PUSH1 0x0 DUP1 REVERT JUMPDEST DUP9 ADD PUSH1 0x3F DUP2 ADD DUP11 SGT PUSH2 0x13F1 JUMPI PUSH1 0x0 DUP1 REVERT JUMPDEST PUSH2 0x1402 DUP11 DUP8 DUP4 ADD CALLDATALOAD PUSH1 0x40 DUP5 ADD PUSH2 0x1213 JUMP JUMPDEST DUP6 MSTORE POP SWAP3 DUP5 ADD SWAP3 SWAP1 DUP5 ADD SWAP1 PUSH1 0x1 ADD PUSH2 0x13C1 JUMP JUMPDEST PUSH1 0x0 DUP3 PUSH1 0x1F DUP4 ADD SLT PUSH2 0x1426 JUMPI PUSH1 0x0 DUP1 REVERT JUMPDEST DUP2 CALLDATALOAD PUSH1 0x20 PUSH2 0x1436 PUSH2 0x12F4 DUP4 PUSH2 0x17A4 JUMP JUMPDEST DUP1 DUP4 DUP3 MSTORE DUP3 DUP3 ADD SWAP2 POP DUP3 DUP7 ADD DUP8 DUP5 DUP7 PUSH1 0x5 SHL DUP10 ADD ADD GT ISZERO PUSH2 0x1456 JUMPI PUSH1 0x0 DUP1 REVERT JUMPDEST PUSH1 0x0 JUMPDEST DUP6 DUP2 LT ISZERO PUSH2 0x1370 JUMPI DUP2 CALLDATALOAD DUP5 MSTORE SWAP3 DUP5 ADD SWAP3 SWAP1 DUP5 ADD SWAP1 PUSH1 0x1 ADD PUSH2 0x1459 JUMP JUMPDEST PUSH1 0x0 PUSH1 0x20 DUP3 DUP5 SUB SLT ISZERO PUSH2 0x1487 JUMPI PUSH1 0x0 DUP1 REVERT JUMPDEST PUSH2 0x1490 DUP3 PUSH2 0x126B JUMP JUMPDEST SWAP4 SWAP3 POP POP POP JUMP JUMPDEST PUSH1 0x0 DUP1 PUSH1 0x20 DUP4 DUP6 SUB SLT ISZERO PUSH2 0x14AA JUMPI PUSH1 0x0 DUP1 REVERT JUMPDEST DUP3 CALLDATALOAD PUSH8 0xFFFFFFFFFFFFFFFF DUP2 GT ISZERO PUSH2 0x14C1 JUMPI PUSH1 0x0 DUP1 REVERT JUMPDEST PUSH2 0x14CD DUP6 DUP3 DUP7 ADD PUSH2 0x1287 JUMP JUMPDEST SWAP1 SWAP7 SWAP1 SWAP6 POP SWAP4 POP POP POP POP JUMP JUMPDEST PUSH1 0x0 DUP1 PUSH1 0x0 PUSH1 0x40 DUP5 DUP7 SUB SLT ISZERO PUSH2 0x14EE JUMPI PUSH1 0x0 DUP1 REVERT JUMPDEST DUP4 CALLDATALOAD PUSH8 0xFFFFFFFFFFFFFFFF DUP2 GT ISZERO PUSH2 0x1505 JUMPI PUSH1 0x0 DUP1 REVERT JUMPDEST PUSH2 0x1511 DUP7 DUP3 DUP8 ADD PUSH2 0x1287 JUMP JUMPDEST SWAP1 SWAP8 SWAP1 SWAP7 POP PUSH1 0x20 SWAP6 SWAP1 SWAP6 ADD CALLDATALOAD SWAP5 SWAP4 POP POP POP POP JUMP JUMPDEST PUSH1 0x0 DUP1 PUSH1 0x0 DUP1 PUSH1 0x80 DUP6 DUP8 SUB SLT ISZERO PUSH2 0x153B JUMPI PUSH1 0x0 DUP1 REVERT JUMPDEST DUP5 CALLDATALOAD PUSH8 0xFFFFFFFFFFFFFFFF DUP1 DUP3 GT ISZERO PUSH2 0x1553 JUMPI PUSH1 0x0 DUP1 REVERT JUMPDEST DUP2 DUP8 ADD SWAP2 POP DUP8 PUSH1 0x1F DUP4 ADD SLT PUSH2 0x1567 JUMPI PUSH1 0x0 DUP1 REVERT JUMPDEST DUP2 CALLDATALOAD PUSH1 0x20 PUSH2 0x1577 PUSH2 0x12F4 DUP4 PUSH2 0x17A4 JUMP JUMPDEST DUP1 DUP4 DUP3 MSTORE DUP3 DUP3 ADD SWAP2 POP DUP3 DUP7 ADD DUP13 DUP5 DUP7 PUSH1 0x5 SHL DUP10 ADD ADD GT ISZERO PUSH2 0x1597 JUMPI PUSH1 0x0 DUP1 REVERT JUMPDEST PUSH1 0x0 SWAP7 POP JUMPDEST DUP5 DUP8 LT ISZERO PUSH2 0x15C1 JUMPI PUSH2 0x15AD DUP2 PUSH2 0x126B JUMP JUMPDEST DUP4 MSTORE PUSH1 0x1 SWAP7 SWAP1 SWAP7 ADD SWAP6 SWAP2 DUP4 ADD SWAP2 DUP4 ADD PUSH2 0x159C JUMP JUMPDEST POP SWAP9 POP POP DUP9 ADD CALLDATALOAD SWAP3 POP POP DUP1 DUP3 GT ISZERO PUSH2 0x15D8 JUMPI PUSH1 0x0 DUP1 REVERT JUMPDEST PUSH2 0x15E4 DUP9 DUP4 DUP10 ADD PUSH2 0x1415 JUMP JUMPDEST SWAP5 POP PUSH1 0x40 DUP8 ADD CALLDATALOAD SWAP2 POP DUP1 DUP3 GT ISZERO PUSH2 0x15FA JUMPI PUSH1 0x0 DUP1 REVERT JUMPDEST PUSH2 0x1606 DUP9 DUP4 DUP10 ADD PUSH2 0x137D JUMP JUMPDEST SWAP4 POP PUSH1 0x60 DUP8 ADD CALLDATALOAD SWAP2 POP DUP1 DUP3 GT ISZERO PUSH2 0x161C JUMPI PUSH1 0x0 DUP1 REVERT JUMPDEST POP PUSH2 0x1629 DUP8 DUP3 DUP9 ADD PUSH2 0x12D3 JUMP JUMPDEST SWAP2 POP POP SWAP3 SWAP6 SWAP2 SWAP5 POP SWAP3 POP JUMP JUMPDEST PUSH1 0x0 PUSH1 0x20 DUP3 DUP5 SUB SLT ISZERO PUSH2 0x1647 JUMPI PUSH1 0x0 DUP1 REVERT JUMPDEST POP CALLDATALOAD SWAP2 SWAP1 POP JUMP JUMPDEST PUSH1 0x0 DUP2 MLOAD PUSH1 0x0 JUMPDEST DUP2 DUP2 LT ISZERO PUSH2 0x166F JUMPI PUSH1 0x20 DUP2 DUP6 ADD DUP2 ADD MLOAD DUP7 DUP4 ADD MSTORE ADD PUSH2 0x1655 JUMP JUMPDEST DUP2 DUP2 GT ISZERO PUSH2 0x167E JUMPI PUSH1 0x0 DUP3 DUP7 ADD MSTORE JUMPDEST POP SWAP3 SWAP1 SWAP3 ADD SWAP3 SWAP2 POP POP JUMP JUMPDEST PUSH1 0x1 PUSH1 0x1 PUSH1 0xE0 SHL SUB NOT DUP4 AND DUP2 MSTORE PUSH1 0x0 PUSH2 0x16A5 PUSH1 0x4 DUP4 ADD DUP5 PUSH2 0x164E JUMP JUMPDEST SWAP5 SWAP4 POP POP POP POP JUMP JUMPDEST DUP3 DUP5 DUP3 CALLDATACOPY SWAP1 SWAP2 ADD SWAP1 DUP2 MSTORE PUSH1 0x20 ADD SWAP2 SWAP1 POP JUMP JUMPDEST PUSH1 0x0 PUSH2 0x1490 DUP3 DUP5 PUSH2 0x164E JUMP JUMPDEST PUSH1 0x0 PUSH1 0x80 DUP3 ADD PUSH1 0x80 DUP4 MSTORE DUP1 DUP9 SLOAD DUP1 DUP4 MSTORE PUSH1 0xA0 DUP6 ADD SWAP2 POP DUP10 PUSH1 0x0 MSTORE PUSH1 0x20 SWAP3 POP DUP3 PUSH1 0x0 KECCAK256 PUSH1 0x0 JUMPDEST DUP3 DUP2 LT ISZERO PUSH2 0x1715 JUMPI DUP2 SLOAD PUSH1 0x1 PUSH1 0x1 PUSH1 0xA0 SHL SUB AND DUP5 MSTORE SWAP3 DUP5 ADD SWAP3 PUSH1 0x1 SWAP2 DUP3 ADD SWAP2 ADD PUSH2 0x16F0 JUMP JUMPDEST POP POP POP DUP4 DUP3 ADD DUP9 SWAP1 MSTORE DUP4 DUP2 SUB PUSH1 0x40 DUP6 ADD MSTORE DUP6 DUP2 MSTORE DUP7 SWAP1 DUP3 ADD PUSH1 0x0 JUMPDEST DUP8 DUP2 LT ISZERO PUSH2 0x175C JUMPI PUSH1 0x1 PUSH1 0x1 PUSH1 0xA0 SHL SUB PUSH2 0x1749 DUP5 PUSH2 0x126B JUMP JUMPDEST AND DUP3 MSTORE SWAP2 DUP4 ADD SWAP2 SWAP1 DUP4 ADD SWAP1 PUSH1 0x1 ADD PUSH2 0x1730 JUMP JUMPDEST POP DUP1 SWAP4 POP POP POP POP DUP3 PUSH1 0x60 DUP4 ADD MSTORE SWAP7 SWAP6 POP POP POP POP POP POP JUMP JUMPDEST PUSH1 0x40 MLOAD PUSH1 0x1F DUP3 ADD PUSH1 0x1F NOT AND DUP2 ADD PUSH8 0xFFFFFFFFFFFFFFFF DUP2 GT DUP3 DUP3 LT OR ISZERO PUSH2 0x179C JUMPI PUSH2 0x179C PUSH2 0x1961 JUMP JUMPDEST PUSH1 0x40 MSTORE SWAP2 SWAP1 POP JUMP JUMPDEST PUSH1 0x0 PUSH8 0xFFFFFFFFFFFFFFFF DUP3 GT ISZERO PUSH2 0x17BE JUMPI PUSH2 0x17BE PUSH2 0x1961 JUMP JUMPDEST POP PUSH1 0x5 SHL PUSH1 0x20 ADD SWAP1 JUMP JUMPDEST PUSH1 0x0 DUP3 NOT DUP3 GT ISZERO PUSH2 0x17DB JUMPI PUSH2 0x17DB PUSH2 0x191F JUMP JUMPDEST POP ADD SWAP1 JUMP JUMPDEST PUSH1 0x1 DUP2 DUP2 JUMPDEST DUP1 DUP6 GT ISZERO PUSH2 0x181B JUMPI DUP2 PUSH1 0x0 NOT DIV DUP3 GT ISZERO PUSH2 0x1801 JUMPI PUSH2 0x1801 PUSH2 0x191F JUMP JUMPDEST DUP1 DUP6 AND ISZERO PUSH2 0x180E JUMPI SWAP2 DUP2 MUL SWAP2 JUMPDEST SWAP4 DUP5 SHR SWAP4 SWAP1 DUP1 MUL SWAP1 PUSH2 0x17E5 JUMP JUMPDEST POP SWAP3 POP SWAP3 SWAP1 POP JUMP JUMPDEST PUSH1 0x0 PUSH2 0x1490 DUP4 DUP4 PUSH1 0x0 DUP3 PUSH2 0x1839 JUMPI POP PUSH1 0x1 PUSH2 0x18C7 JUMP JUMPDEST DUP2 PUSH2 0x1846 JUMPI POP PUSH1 0x0 PUSH2 0x18C7 JUMP JUMPDEST DUP2 PUSH1 0x1 DUP2 EQ PUSH2 0x185C JUMPI PUSH1 0x2 DUP2 EQ PUSH2 0x1866 JUMPI PUSH2 0x1882 JUMP JUMPDEST PUSH1 0x1 SWAP2 POP POP PUSH2 0x18C7 JUMP JUMPDEST PUSH1 0xFF DUP5 GT ISZERO PUSH2 0x1877 JUMPI PUSH2 0x1877 PUSH2 0x191F JUMP JUMPDEST POP POP PUSH1 0x1 DUP3 SHL PUSH2 0x18C7 JUMP JUMPDEST POP PUSH1 0x20 DUP4 LT PUSH2 0x133 DUP4 LT AND PUSH1 0x4E DUP5 LT PUSH1 0xB DUP5 LT AND OR ISZERO PUSH2 0x18A5 JUMPI POP DUP2 DUP2 EXP PUSH2 0x18C7 JUMP JUMPDEST PUSH2 0x18AF DUP4 DUP4 PUSH2 0x17E0 JUMP JUMPDEST DUP1 PUSH1 0x0 NOT DIV DUP3 GT ISZERO PUSH2 0x18C3 JUMPI PUSH2 0x18C3 PUSH2 0x191F JUMP JUMPDEST MUL SWAP1 POP JUMPDEST SWAP3 SWAP2 POP POP JUMP JUMPDEST PUSH1 0x0 DUP3 DUP3 LT ISZERO PUSH2 0x18DF JUMPI PUSH2 0x18DF PUSH2 0x191F JUMP JUMPDEST POP SUB SWAP1 JUMP JUMPDEST PUSH1 0x0 PUSH1 0x0 NOT DUP3 EQ ISZERO PUSH2 0x18F8 JUMPI PUSH2 0x18F8 PUSH2 0x191F JUMP JUMPDEST POP PUSH1 0x1 ADD SWAP1 JUMP JUMPDEST PUSH1 0x0 PUSH1 0xFF DUP3 AND PUSH1 0xFF DUP2 EQ ISZERO PUSH2 0x1916 JUMPI PUSH2 0x1916 PUSH2 0x191F JUMP JUMPDEST PUSH1 0x1 ADD SWAP3 SWAP2 POP POP JUMP JUMPDEST PUSH4 0x4E487B71 PUSH1 0xE0 SHL PUSH1 0x0 MSTORE PUSH1 0x11 PUSH1 0x4 MSTORE PUSH1 0x24 PUSH1 0x0 REVERT JUMPDEST PUSH4 0x4E487B71 PUSH1 0xE0 SHL PUSH1 0x0 MSTORE PUSH1 0x31 PUSH1 0x4 MSTORE PUSH1 0x24 PUSH1 0x0 REVERT JUMPDEST PUSH4 0x4E487B71 PUSH1 0xE0 SHL PUSH1 0x0 MSTORE PUSH1 0x32 PUSH1 0x4 MSTORE PUSH1 0x24 PUSH1 0x0 REVERT JUMPDEST PUSH4 0x4E487B71 PUSH1 0xE0 SHL PUSH1 0x0 MSTORE PUSH1 0x41 PUSH1 0x4 MSTORE PUSH1 0x24 PUSH1 0x0 REVERT INVALID SELFBALANCE PUSH16 0x7665726E6F724D756C74697369673A3A PUSH6 0x786563757465 SLOAD PUSH19 0x616E7361637472616E736665724F776E657273 PUSH9 0x697057697468486F77 0x4D PUSH2 0x6E79 GASPRICE KECCAK256 PUSH16 0x77A2646970667358221220735088289B 0x2A MULMOD PUSH19 0x9F5010F8CDEA17D0C18289A0C9212D8BB1B944 DUP3 PUSH9 0xE9FA6964736F6C6343 STOP ADDMOD MOD STOP CALLER "
        },
        "methodIdentifiers": {
          "MAX_OPERATIONS()": "5dc2803a",
          "allOperations(uint256)": "431ab233",
          "allOperationsCount()": "22f2f89a",
          "allOperationsIndicies(bytes32)": "ea1a2644",
          "cancelPending(bytes32)": "893372ca",
          "executeTransaction(address[],uint256[],string[],bytes[])": "8680ce4b",
          "howManyOwnersDecide()": "2f4a81df",
          "isOwner(address)": "2f54bf6e",
          "owners(uint256)": "025e7c27",
          "ownersCount()": "b9488546",
          "ownersGeneration()": "b25bb3a7",
          "ownersIndices(address)": "cc047a04",
          "transferOwnership(address[])": "18bcd3d0",
          "transferOwnershipWithHowMany(address[],uint256)": "e8518341",
          "votesCountByOperation(bytes32)": "90a53085",
          "votesMaskByOperation(bytes32)": "568b5915"
        }
      },
      "storageLayout": {
        "storage": [
          {
            "astId": 134,
            "contract": "contracts/governance/GovernorMultisig.sol:GovernorMultisig",
            "label": "ownersGeneration",
            "offset": 0,
            "slot": "0",
            "type": "t_uint256"
          },
          {
            "astId": 136,
            "contract": "contracts/governance/GovernorMultisig.sol:GovernorMultisig",
            "label": "howManyOwnersDecide",
            "offset": 0,
            "slot": "1",
            "type": "t_uint256"
          },
          {
            "astId": 139,
            "contract": "contracts/governance/GovernorMultisig.sol:GovernorMultisig",
            "label": "owners",
            "offset": 0,
            "slot": "2",
            "type": "t_array(t_address)dyn_storage"
          },
          {
            "astId": 142,
            "contract": "contracts/governance/GovernorMultisig.sol:GovernorMultisig",
            "label": "allOperations",
            "offset": 0,
            "slot": "3",
            "type": "t_array(t_bytes32)dyn_storage"
          },
          {
            "astId": 144,
            "contract": "contracts/governance/GovernorMultisig.sol:GovernorMultisig",
            "label": "insideCallSender",
            "offset": 0,
            "slot": "4",
            "type": "t_address"
          },
          {
            "astId": 146,
            "contract": "contracts/governance/GovernorMultisig.sol:GovernorMultisig",
            "label": "insideCallCount",
            "offset": 0,
            "slot": "5",
            "type": "t_uint256"
          },
          {
            "astId": 150,
            "contract": "contracts/governance/GovernorMultisig.sol:GovernorMultisig",
            "label": "ownersIndices",
            "offset": 0,
            "slot": "6",
            "type": "t_mapping(t_address,t_uint256)"
          },
          {
            "astId": 154,
            "contract": "contracts/governance/GovernorMultisig.sol:GovernorMultisig",
            "label": "allOperationsIndicies",
            "offset": 0,
            "slot": "7",
            "type": "t_mapping(t_bytes32,t_uint256)"
          },
          {
            "astId": 158,
            "contract": "contracts/governance/GovernorMultisig.sol:GovernorMultisig",
            "label": "votesMaskByOperation",
            "offset": 0,
            "slot": "8",
            "type": "t_mapping(t_bytes32,t_uint256)"
          },
          {
            "astId": 162,
            "contract": "contracts/governance/GovernorMultisig.sol:GovernorMultisig",
            "label": "votesCountByOperation",
            "offset": 0,
            "slot": "9",
            "type": "t_mapping(t_bytes32,t_uint256)"
          }
        ],
        "types": {
          "t_address": {
            "encoding": "inplace",
            "label": "address",
            "numberOfBytes": "20"
          },
          "t_array(t_address)dyn_storage": {
            "base": "t_address",
            "encoding": "dynamic_array",
            "label": "address[]",
            "numberOfBytes": "32"
          },
          "t_array(t_bytes32)dyn_storage": {
            "base": "t_bytes32",
            "encoding": "dynamic_array",
            "label": "bytes32[]",
            "numberOfBytes": "32"
          },
          "t_bytes32": {
            "encoding": "inplace",
            "label": "bytes32",
            "numberOfBytes": "32"
          },
          "t_mapping(t_address,t_uint256)": {
            "encoding": "mapping",
            "key": "t_address",
            "label": "mapping(address => uint256)",
            "numberOfBytes": "32",
            "value": "t_uint256"
          },
          "t_mapping(t_bytes32,t_uint256)": {
            "encoding": "mapping",
            "key": "t_bytes32",
            "label": "mapping(bytes32 => uint256)",
            "numberOfBytes": "32",
            "value": "t_uint256"
          },
          "t_uint256": {
            "encoding": "inplace",
            "label": "uint256",
            "numberOfBytes": "32"
          }
        }
      }
    }
  }
}