{
  "contracts/proxy/ERC1167.sol": {
    "ERC1167": {
      "abi": [
        {
          "inputs": [],
          "name": "CLONE",
          "outputs": [
            {
              "internalType": "bytes",
              "name": "",
              "type": "bytes"
            }
          ],
          "stateMutability": "view",
          "type": "function"
        },
        {
          "inputs": [
            {
              "internalType": "address",
              "name": "proxy",
              "type": "address"
            }
          ],
          "name": "implementation",
          "outputs": [
            {
              "internalType": "address",
              "name": "impl",
              "type": "address"
            }
          ],
          "stateMutability": "view",
          "type": "function"
        }
      ],
      "evm": {
        "bytecode": {
          "linkReferences": {},
          "object": "6105c261003a600b82828239805160001a60731461002d57634e487b7160e01b600052600060045260246000fd5b30600052607381538281f3fe730000000000000000000000000000000000000000301460806040526004361061004b5760003560e01c80636b424266146100505780636b8807181461006e5780638124b78e14610099575b600080fd5b6100586100b9565b604051610065919061046a565b60405180910390f35b61008161007c36600461043a565b6100d5565b6040516001600160a01b039091168152602001610065565b8180156100a557600080fd5b506100816100b436600461043a565b610399565b6040518060600160405280602d8152602001610560602d913981565b80803b602d81118015906100ea575060298110155b156103935760408051603f8301601f19168101909152818152600190600090838260208301883c600091505b8280156101235750600982105b1561019d576040518060600160405280602d8152602001610560602d9139828151811061015257610152610549565b602001015160f81c60f81b6001600160f81b03191681838151811061017957610179610549565b01602001516001600160f81b0319161492508161019581610518565b925050610116565b600091505b8280156101af5750600f82105b1561030c578160041415610268576101c884602d6104de565b6040518060600160405280602d8152602001610560602d913960016101ee85602d6104de565b6101f891906104de565b8151811061020857610208610549565b016020015161021a919060f81c6104f5565b60f81b6001600160f81b03191681600184845161023791906104de565b61024191906104de565b8151811061025157610251610549565b01602001516001600160f81b0319161492506102fa565b6040518060600160405280602d8152602001610560602d9139600161028e84602d6104de565b61029891906104de565b815181106102a8576102a8610549565b602001015160f81c60f81b6001600160f81b0319168160018484516102cd91906104de565b6102d791906104de565b815181106102e7576102e7610549565b01602001516001600160f81b0319161492505b8161030481610518565b9250506101a2565b61031784602d6104de565b6103229060736104f5565b60f81b6001600160f81b0319168160098151811061034257610342610549565b01602001516001600160f81b0319161461035b57600092505b6000831561038e5750601e8101516001600160a01b031661037d85602d6104de565b6103889060086104bf565b81901c95505b505050505b50919050565b6000604051733d602d80600a3d3981f3363d3d373d3d3d363d7360601b81528260601b60148201526e5af43d82803e903d91602b57fd5bf360881b60288201526037816000f09150506001600160a01b0381166104355760405162461bcd60e51b8152602060048201526016602482015275115490cc4c4d8dce8818dc99585d194819985a5b195960521b604482015260640160405180910390fd5b919050565b60006020828403121561044c57600080fd5b81356001600160a01b038116811461046357600080fd5b9392505050565b600060208083528351808285015260005b818110156104975785810183015185820160400152820161047b565b818111156104a9576000604083870101525b50601f01601f1916929092016040019392505050565b60008160001904831182151516156104d9576104d9610533565b500290565b6000828210156104f0576104f0610533565b500390565b600060ff821660ff84168082101561050f5761050f610533565b90039392505050565b600060001982141561052c5761052c610533565b5060010190565b634e487b7160e01b600052601160045260246000fd5b634e487b7160e01b600052603260045260246000fdfe363d3d373d3d3d363d73bebebebebebebebebebebebebebebebebebebebe5af43d82803e903d91602b57fd5bf3a2646970667358221220b50b0495e81f33c137caa3634e26308ffc893ce19dc253bca612752d5e590c7664736f6c63430008060033",
          "opcodes": "PUSH2 0x5C2 PUSH2 0x3A PUSH1 0xB DUP3 DUP3 DUP3 CODECOPY DUP1 MLOAD PUSH1 0x0 BYTE PUSH1 0x73 EQ PUSH2 0x2D JUMPI PUSH4 0x4E487B71 PUSH1 0xE0 SHL PUSH1 0x0 MSTORE PUSH1 0x0 PUSH1 0x4 MSTORE PUSH1 0x24 PUSH1 0x0 REVERT JUMPDEST ADDRESS PUSH1 0x0 MSTORE PUSH1 0x73 DUP2 MSTORE8 DUP3 DUP2 RETURN INVALID PUSH20 0x0 ADDRESS EQ PUSH1 0x80 PUSH1 0x40 MSTORE PUSH1 0x4 CALLDATASIZE LT PUSH2 0x4B JUMPI PUSH1 0x0 CALLDATALOAD PUSH1 0xE0 SHR DUP1 PUSH4 0x6B424266 EQ PUSH2 0x50 JUMPI DUP1 PUSH4 0x6B880718 EQ PUSH2 0x6E JUMPI DUP1 PUSH4 0x8124B78E EQ PUSH2 0x99 JUMPI JUMPDEST PUSH1 0x0 DUP1 REVERT JUMPDEST PUSH2 0x58 PUSH2 0xB9 JUMP JUMPDEST PUSH1 0x40 MLOAD PUSH2 0x65 SWAP2 SWAP1 PUSH2 0x46A JUMP JUMPDEST PUSH1 0x40 MLOAD DUP1 SWAP2 SUB SWAP1 RETURN JUMPDEST PUSH2 0x81 PUSH2 0x7C CALLDATASIZE PUSH1 0x4 PUSH2 0x43A JUMP JUMPDEST PUSH2 0xD5 JUMP JUMPDEST PUSH1 0x40 MLOAD PUSH1 0x1 PUSH1 0x1 PUSH1 0xA0 SHL SUB SWAP1 SWAP2 AND DUP2 MSTORE PUSH1 0x20 ADD PUSH2 0x65 JUMP JUMPDEST DUP2 DUP1 ISZERO PUSH2 0xA5 JUMPI PUSH1 0x0 DUP1 REVERT JUMPDEST POP PUSH2 0x81 PUSH2 0xB4 CALLDATASIZE PUSH1 0x4 PUSH2 0x43A JUMP JUMPDEST PUSH2 0x399 JUMP JUMPDEST PUSH1 0x40 MLOAD DUP1 PUSH1 0x60 ADD PUSH1 0x40 MSTORE DUP1 PUSH1 0x2D DUP2 MSTORE PUSH1 0x20 ADD PUSH2 0x560 PUSH1 0x2D SWAP2 CODECOPY DUP2 JUMP JUMPDEST DUP1 DUP1 EXTCODESIZE PUSH1 0x2D DUP2 GT DUP1 ISZERO SWAP1 PUSH2 0xEA JUMPI POP PUSH1 0x29 DUP2 LT ISZERO JUMPDEST ISZERO PUSH2 0x393 JUMPI PUSH1 0x40 DUP1 MLOAD PUSH1 0x3F DUP4 ADD PUSH1 0x1F NOT AND DUP2 ADD SWAP1 SWAP2 MSTORE DUP2 DUP2 MSTORE PUSH1 0x1 SWAP1 PUSH1 0x0 SWAP1 DUP4 DUP3 PUSH1 0x20 DUP4 ADD DUP9 EXTCODECOPY PUSH1 0x0 SWAP2 POP JUMPDEST DUP3 DUP1 ISZERO PUSH2 0x123 JUMPI POP PUSH1 0x9 DUP3 LT JUMPDEST ISZERO PUSH2 0x19D JUMPI PUSH1 0x40 MLOAD DUP1 PUSH1 0x60 ADD PUSH1 0x40 MSTORE DUP1 PUSH1 0x2D DUP2 MSTORE PUSH1 0x20 ADD PUSH2 0x560 PUSH1 0x2D SWAP2 CODECOPY DUP3 DUP2 MLOAD DUP2 LT PUSH2 0x152 JUMPI PUSH2 0x152 PUSH2 0x549 JUMP JUMPDEST PUSH1 0x20 ADD ADD MLOAD PUSH1 0xF8 SHR PUSH1 0xF8 SHL PUSH1 0x1 PUSH1 0x1 PUSH1 0xF8 SHL SUB NOT AND DUP2 DUP4 DUP2 MLOAD DUP2 LT PUSH2 0x179 JUMPI PUSH2 0x179 PUSH2 0x549 JUMP JUMPDEST ADD PUSH1 0x20 ADD MLOAD PUSH1 0x1 PUSH1 0x1 PUSH1 0xF8 SHL SUB NOT AND EQ SWAP3 POP DUP2 PUSH2 0x195 DUP2 PUSH2 0x518 JUMP JUMPDEST SWAP3 POP POP PUSH2 0x116 JUMP JUMPDEST PUSH1 0x0 SWAP2 POP JUMPDEST DUP3 DUP1 ISZERO PUSH2 0x1AF JUMPI POP PUSH1 0xF DUP3 LT JUMPDEST ISZERO PUSH2 0x30C JUMPI DUP2 PUSH1 0x4 EQ ISZERO PUSH2 0x268 JUMPI PUSH2 0x1C8 DUP5 PUSH1 0x2D PUSH2 0x4DE JUMP JUMPDEST PUSH1 0x40 MLOAD DUP1 PUSH1 0x60 ADD PUSH1 0x40 MSTORE DUP1 PUSH1 0x2D DUP2 MSTORE PUSH1 0x20 ADD PUSH2 0x560 PUSH1 0x2D SWAP2 CODECOPY PUSH1 0x1 PUSH2 0x1EE DUP6 PUSH1 0x2D PUSH2 0x4DE JUMP JUMPDEST PUSH2 0x1F8 SWAP2 SWAP1 PUSH2 0x4DE JUMP JUMPDEST DUP2 MLOAD DUP2 LT PUSH2 0x208 JUMPI PUSH2 0x208 PUSH2 0x549 JUMP JUMPDEST ADD PUSH1 0x20 ADD MLOAD PUSH2 0x21A SWAP2 SWAP1 PUSH1 0xF8 SHR PUSH2 0x4F5 JUMP JUMPDEST PUSH1 0xF8 SHL PUSH1 0x1 PUSH1 0x1 PUSH1 0xF8 SHL SUB NOT AND DUP2 PUSH1 0x1 DUP5 DUP5 MLOAD PUSH2 0x237 SWAP2 SWAP1 PUSH2 0x4DE JUMP JUMPDEST PUSH2 0x241 SWAP2 SWAP1 PUSH2 0x4DE JUMP JUMPDEST DUP2 MLOAD DUP2 LT PUSH2 0x251 JUMPI PUSH2 0x251 PUSH2 0x549 JUMP JUMPDEST ADD PUSH1 0x20 ADD MLOAD PUSH1 0x1 PUSH1 0x1 PUSH1 0xF8 SHL SUB NOT AND EQ SWAP3 POP PUSH2 0x2FA JUMP JUMPDEST PUSH1 0x40 MLOAD DUP1 PUSH1 0x60 ADD PUSH1 0x40 MSTORE DUP1 PUSH1 0x2D DUP2 MSTORE PUSH1 0x20 ADD PUSH2 0x560 PUSH1 0x2D SWAP2 CODECOPY PUSH1 0x1 PUSH2 0x28E DUP5 PUSH1 0x2D PUSH2 0x4DE JUMP JUMPDEST PUSH2 0x298 SWAP2 SWAP1 PUSH2 0x4DE JUMP JUMPDEST DUP2 MLOAD DUP2 LT PUSH2 0x2A8 JUMPI PUSH2 0x2A8 PUSH2 0x549 JUMP JUMPDEST PUSH1 0x20 ADD ADD MLOAD PUSH1 0xF8 SHR PUSH1 0xF8 SHL PUSH1 0x1 PUSH1 0x1 PUSH1 0xF8 SHL SUB NOT AND DUP2 PUSH1 0x1 DUP5 DUP5 MLOAD PUSH2 0x2CD SWAP2 SWAP1 PUSH2 0x4DE JUMP JUMPDEST PUSH2 0x2D7 SWAP2 SWAP1 PUSH2 0x4DE JUMP JUMPDEST DUP2 MLOAD DUP2 LT PUSH2 0x2E7 JUMPI PUSH2 0x2E7 PUSH2 0x549 JUMP JUMPDEST ADD PUSH1 0x20 ADD MLOAD PUSH1 0x1 PUSH1 0x1 PUSH1 0xF8 SHL SUB NOT AND EQ SWAP3 POP JUMPDEST DUP2 PUSH2 0x304 DUP2 PUSH2 0x518 JUMP JUMPDEST SWAP3 POP POP PUSH2 0x1A2 JUMP JUMPDEST PUSH2 0x317 DUP5 PUSH1 0x2D PUSH2 0x4DE JUMP JUMPDEST PUSH2 0x322 SWAP1 PUSH1 0x73 PUSH2 0x4F5 JUMP JUMPDEST PUSH1 0xF8 SHL PUSH1 0x1 PUSH1 0x1 PUSH1 0xF8 SHL SUB NOT AND DUP2 PUSH1 0x9 DUP2 MLOAD DUP2 LT PUSH2 0x342 JUMPI PUSH2 0x342 PUSH2 0x549 JUMP JUMPDEST ADD PUSH1 0x20 ADD MLOAD PUSH1 0x1 PUSH1 0x1 PUSH1 0xF8 SHL SUB NOT AND EQ PUSH2 0x35B JUMPI PUSH1 0x0 SWAP3 POP JUMPDEST PUSH1 0x0 DUP4 ISZERO PUSH2 0x38E JUMPI POP PUSH1 0x1E DUP2 ADD MLOAD PUSH1 0x1 PUSH1 0x1 PUSH1 0xA0 SHL SUB AND PUSH2 0x37D DUP6 PUSH1 0x2D PUSH2 0x4DE JUMP JUMPDEST PUSH2 0x388 SWAP1 PUSH1 0x8 PUSH2 0x4BF JUMP JUMPDEST DUP2 SWAP1 SHR SWAP6 POP JUMPDEST POP POP POP POP JUMPDEST POP SWAP2 SWAP1 POP JUMP JUMPDEST PUSH1 0x0 PUSH1 0x40 MLOAD PUSH20 0x3D602D80600A3D3981F3363D3D373D3D3D363D73 PUSH1 0x60 SHL DUP2 MSTORE DUP3 PUSH1 0x60 SHL PUSH1 0x14 DUP3 ADD MSTORE PUSH15 0x5AF43D82803E903D91602B57FD5BF3 PUSH1 0x88 SHL PUSH1 0x28 DUP3 ADD MSTORE PUSH1 0x37 DUP2 PUSH1 0x0 CREATE SWAP2 POP POP PUSH1 0x1 PUSH1 0x1 PUSH1 0xA0 SHL SUB DUP2 AND PUSH2 0x435 JUMPI PUSH1 0x40 MLOAD PUSH3 0x461BCD PUSH1 0xE5 SHL DUP2 MSTORE PUSH1 0x20 PUSH1 0x4 DUP3 ADD MSTORE PUSH1 0x16 PUSH1 0x24 DUP3 ADD MSTORE PUSH22 0x115490CC4C4D8DCE8818DC99585D194819985A5B1959 PUSH1 0x52 SHL PUSH1 0x44 DUP3 ADD MSTORE PUSH1 0x64 ADD PUSH1 0x40 MLOAD DUP1 SWAP2 SUB SWAP1 REVERT JUMPDEST SWAP2 SWAP1 POP JUMP JUMPDEST PUSH1 0x0 PUSH1 0x20 DUP3 DUP5 SUB SLT ISZERO PUSH2 0x44C JUMPI PUSH1 0x0 DUP1 REVERT JUMPDEST DUP2 CALLDATALOAD PUSH1 0x1 PUSH1 0x1 PUSH1 0xA0 SHL SUB DUP2 AND DUP2 EQ PUSH2 0x463 JUMPI PUSH1 0x0 DUP1 REVERT JUMPDEST SWAP4 SWAP3 POP POP POP JUMP JUMPDEST PUSH1 0x0 PUSH1 0x20 DUP1 DUP4 MSTORE DUP4 MLOAD DUP1 DUP3 DUP6 ADD MSTORE PUSH1 0x0 JUMPDEST DUP2 DUP2 LT ISZERO PUSH2 0x497 JUMPI DUP6 DUP2 ADD DUP4 ADD MLOAD DUP6 DUP3 ADD PUSH1 0x40 ADD MSTORE DUP3 ADD PUSH2 0x47B JUMP JUMPDEST DUP2 DUP2 GT ISZERO PUSH2 0x4A9 JUMPI PUSH1 0x0 PUSH1 0x40 DUP4 DUP8 ADD ADD MSTORE JUMPDEST POP PUSH1 0x1F ADD PUSH1 0x1F NOT AND SWAP3 SWAP1 SWAP3 ADD PUSH1 0x40 ADD SWAP4 SWAP3 POP POP POP JUMP JUMPDEST PUSH1 0x0 DUP2 PUSH1 0x0 NOT DIV DUP4 GT DUP3 ISZERO ISZERO AND ISZERO PUSH2 0x4D9 JUMPI PUSH2 0x4D9 PUSH2 0x533 JUMP JUMPDEST POP MUL SWAP1 JUMP JUMPDEST PUSH1 0x0 DUP3 DUP3 LT ISZERO PUSH2 0x4F0 JUMPI PUSH2 0x4F0 PUSH2 0x533 JUMP JUMPDEST POP SUB SWAP1 JUMP JUMPDEST PUSH1 0x0 PUSH1 0xFF DUP3 AND PUSH1 0xFF DUP5 AND DUP1 DUP3 LT ISZERO PUSH2 0x50F JUMPI PUSH2 0x50F PUSH2 0x533 JUMP JUMPDEST SWAP1 SUB SWAP4 SWAP3 POP POP POP JUMP JUMPDEST PUSH1 0x0 PUSH1 0x0 NOT DUP3 EQ ISZERO PUSH2 0x52C JUMPI PUSH2 0x52C PUSH2 0x533 JUMP JUMPDEST POP PUSH1 0x1 ADD SWAP1 JUMP JUMPDEST PUSH4 0x4E487B71 PUSH1 0xE0 SHL PUSH1 0x0 MSTORE PUSH1 0x11 PUSH1 0x4 MSTORE PUSH1 0x24 PUSH1 0x0 REVERT JUMPDEST PUSH4 0x4E487B71 PUSH1 0xE0 SHL PUSH1 0x0 MSTORE PUSH1 0x32 PUSH1 0x4 MSTORE PUSH1 0x24 PUSH1 0x0 REVERT INVALID CALLDATASIZE RETURNDATASIZE RETURNDATASIZE CALLDATACOPY RETURNDATASIZE RETURNDATASIZE RETURNDATASIZE CALLDATASIZE RETURNDATASIZE PUSH20 0xBEBEBEBEBEBEBEBEBEBEBEBEBEBEBEBEBEBEBEBE GAS DELEGATECALL RETURNDATASIZE DUP3 DUP1 RETURNDATACOPY SWAP1 RETURNDATASIZE SWAP2 PUSH1 0x2B JUMPI REVERT JUMPDEST RETURN LOG2 PUSH5 0x6970667358 0x22 SLT KECCAK256 0xB5 SIGNEXTEND DIV SWAP6 0xE8 0x1F CALLER 0xC1 CALLDATACOPY 0xCA LOG3 PUSH4 0x4E26308F 0xFC DUP10 EXTCODECOPY 0xE1 SWAP14 0xC2 MSTORE8 0xBC 0xA6 SLT PUSH22 0x2D5E590C7664736F6C63430008060033000000000000 "
        },
        "methodIdentifiers": {
          "CLONE()": "6b424266",
          "clone(address)": "8124b78e",
          "implementation(address)": "6b880718"
        }
      },
      "storageLayout": {
        "storage": [],
        "types": null
      }
    }
  }
}