{
  "_format": "hh-sol-artifact-1",
  "contractName": "WrapMock",
  "sourceName": "contracts/interfaces/NativeWrapper/mock/WrapMock.sol",
  "abi": [
    {
      "inputs": [
        {
          "internalType": "string",
          "name": "name",
          "type": "string"
        },
        {
          "internalType": "string",
          "name": "symbol",
          "type": "string"
        },
        {
          "internalType": "uint256",
          "name": "initialSupply",
          "type": "uint256"
        }
      ],
      "stateMutability": "nonpayable",
      "type": "constructor"
    },
    {
      "anonymous": false,
      "inputs": [
        {
          "indexed": true,
          "internalType": "address",
          "name": "owner",
          "type": "address"
        },
        {
          "indexed": true,
          "internalType": "address",
          "name": "spender",
          "type": "address"
        },
        {
          "indexed": false,
          "internalType": "uint256",
          "name": "value",
          "type": "uint256"
        }
      ],
      "name": "Approval",
      "type": "event"
    },
    {
      "anonymous": false,
      "inputs": [
        {
          "indexed": true,
          "internalType": "address",
          "name": "dst",
          "type": "address"
        },
        {
          "indexed": false,
          "internalType": "uint256",
          "name": "wad",
          "type": "uint256"
        }
      ],
      "name": "Deposit",
      "type": "event"
    },
    {
      "anonymous": false,
      "inputs": [
        {
          "indexed": true,
          "internalType": "address",
          "name": "from",
          "type": "address"
        },
        {
          "indexed": true,
          "internalType": "address",
          "name": "to",
          "type": "address"
        },
        {
          "indexed": false,
          "internalType": "uint256",
          "name": "value",
          "type": "uint256"
        }
      ],
      "name": "Transfer",
      "type": "event"
    },
    {
      "anonymous": false,
      "inputs": [
        {
          "indexed": true,
          "internalType": "address",
          "name": "src",
          "type": "address"
        },
        {
          "indexed": false,
          "internalType": "uint256",
          "name": "wad",
          "type": "uint256"
        }
      ],
      "name": "Withdrawal",
      "type": "event"
    },
    {
      "inputs": [
        {
          "internalType": "address",
          "name": "owner",
          "type": "address"
        },
        {
          "internalType": "address",
          "name": "spender",
          "type": "address"
        }
      ],
      "name": "allowance",
      "outputs": [
        {
          "internalType": "uint256",
          "name": "",
          "type": "uint256"
        }
      ],
      "stateMutability": "view",
      "type": "function"
    },
    {
      "inputs": [
        {
          "internalType": "address",
          "name": "spender",
          "type": "address"
        },
        {
          "internalType": "uint256",
          "name": "amount",
          "type": "uint256"
        }
      ],
      "name": "approve",
      "outputs": [
        {
          "internalType": "bool",
          "name": "",
          "type": "bool"
        }
      ],
      "stateMutability": "nonpayable",
      "type": "function"
    },
    {
      "inputs": [
        {
          "internalType": "address",
          "name": "account",
          "type": "address"
        }
      ],
      "name": "balanceOf",
      "outputs": [
        {
          "internalType": "uint256",
          "name": "",
          "type": "uint256"
        }
      ],
      "stateMutability": "view",
      "type": "function"
    },
    {
      "inputs": [
        {
          "internalType": "address",
          "name": "account",
          "type": "address"
        },
        {
          "internalType": "uint256",
          "name": "amount",
          "type": "uint256"
        }
      ],
      "name": "burn",
      "outputs": [],
      "stateMutability": "nonpayable",
      "type": "function"
    },
    {
      "inputs": [],
      "name": "decimals",
      "outputs": [
        {
          "internalType": "uint8",
          "name": "",
          "type": "uint8"
        }
      ],
      "stateMutability": "view",
      "type": "function"
    },
    {
      "inputs": [
        {
          "internalType": "address",
          "name": "spender",
          "type": "address"
        },
        {
          "internalType": "uint256",
          "name": "subtractedValue",
          "type": "uint256"
        }
      ],
      "name": "decreaseAllowance",
      "outputs": [
        {
          "internalType": "bool",
          "name": "",
          "type": "bool"
        }
      ],
      "stateMutability": "nonpayable",
      "type": "function"
    },
    {
      "inputs": [],
      "name": "deposit",
      "outputs": [],
      "stateMutability": "payable",
      "type": "function"
    },
    {
      "inputs": [
        {
          "internalType": "address",
          "name": "spender",
          "type": "address"
        },
        {
          "internalType": "uint256",
          "name": "addedValue",
          "type": "uint256"
        }
      ],
      "name": "increaseAllowance",
      "outputs": [
        {
          "internalType": "bool",
          "name": "",
          "type": "bool"
        }
      ],
      "stateMutability": "nonpayable",
      "type": "function"
    },
    {
      "inputs": [
        {
          "internalType": "address",
          "name": "account",
          "type": "address"
        },
        {
          "internalType": "uint256",
          "name": "amount",
          "type": "uint256"
        }
      ],
      "name": "mint",
      "outputs": [],
      "stateMutability": "nonpayable",
      "type": "function"
    },
    {
      "inputs": [],
      "name": "name",
      "outputs": [
        {
          "internalType": "string",
          "name": "",
          "type": "string"
        }
      ],
      "stateMutability": "view",
      "type": "function"
    },
    {
      "inputs": [],
      "name": "symbol",
      "outputs": [
        {
          "internalType": "string",
          "name": "",
          "type": "string"
        }
      ],
      "stateMutability": "view",
      "type": "function"
    },
    {
      "inputs": [],
      "name": "totalSupply",
      "outputs": [
        {
          "internalType": "uint256",
          "name": "",
          "type": "uint256"
        }
      ],
      "stateMutability": "view",
      "type": "function"
    },
    {
      "inputs": [
        {
          "internalType": "address",
          "name": "to",
          "type": "address"
        },
        {
          "internalType": "uint256",
          "name": "amount",
          "type": "uint256"
        }
      ],
      "name": "transfer",
      "outputs": [
        {
          "internalType": "bool",
          "name": "",
          "type": "bool"
        }
      ],
      "stateMutability": "nonpayable",
      "type": "function"
    },
    {
      "inputs": [
        {
          "internalType": "address",
          "name": "from",
          "type": "address"
        },
        {
          "internalType": "address",
          "name": "to",
          "type": "address"
        },
        {
          "internalType": "uint256",
          "name": "amount",
          "type": "uint256"
        }
      ],
      "name": "transferFrom",
      "outputs": [
        {
          "internalType": "bool",
          "name": "",
          "type": "bool"
        }
      ],
      "stateMutability": "nonpayable",
      "type": "function"
    },
    {
      "inputs": [
        {
          "internalType": "uint256",
          "name": "wad",
          "type": "uint256"
        }
      ],
      "name": "withdraw",
      "outputs": [],
      "stateMutability": "nonpayable",
      "type": "function"
    }
  ],
  "bytecode": "0x60806040523480156200001157600080fd5b5060405162001134380380620011348339810160408190526200003491620002da565b82828282828160039080519060200190620000519291906200017d565b508051620000679060049060208401906200017d565b505050620000856200007e6200009160201b60201c565b8262000095565b505050505050620003c7565b3390565b6001600160a01b038216620000f05760405162461bcd60e51b815260206004820152601f60248201527f45524332303a206d696e7420746f20746865207a65726f206164647265737300604482015260640160405180910390fd5b80600260008282546200010491906200034d565b90915550506001600160a01b03821660009081526020819052604081208054839290620001339084906200034d565b90915550506040518181526001600160a01b038316906000907fddf252ad1be2c89b69c2b068fc378daa952ba7f163c4a11628f55a4df523b3ef9060200160405180910390a35050565b8280546200018b9062000374565b90600052602060002090601f016020900481019282620001af5760008555620001fa565b82601f10620001ca57805160ff1916838001178555620001fa565b82800160010185558215620001fa579182015b82811115620001fa578251825591602001919060010190620001dd565b50620002089291506200020c565b5090565b5b808211156200020857600081556001016200020d565b600082601f8301126200023557600080fd5b81516001600160401b0380821115620002525762000252620003b1565b604051601f8301601f19908116603f011681019082821181831017156200027d576200027d620003b1565b816040528381526020925086838588010111156200029a57600080fd5b600091505b83821015620002be57858201830151818301840152908201906200029f565b83821115620002d05760008385830101525b9695505050505050565b600080600060608486031215620002f057600080fd5b83516001600160401b03808211156200030857600080fd5b620003168783880162000223565b945060208601519150808211156200032d57600080fd5b506200033c8682870162000223565b925050604084015190509250925092565b600082198211156200036f57634e487b7160e01b600052601160045260246000fd5b500190565b600181811c908216806200038957607f821691505b60208210811415620003ab57634e487b7160e01b600052602260045260246000fd5b50919050565b634e487b7160e01b600052604160045260246000fd5b610d5d80620003d76000396000f3fe6080604052600436106100e85760003560e01c806340c10f191161008a578063a457c2d711610059578063a457c2d714610270578063a9059cbb14610290578063d0e30db0146102b0578063dd62ed3e146102b857600080fd5b806340c10f19146101e557806370a082311461020557806395d89b411461023b5780639dc29fac1461025057600080fd5b806323b872dd116100c657806323b872dd146101675780632e1a7d4d14610187578063313ce567146101a957806339509351146101c557600080fd5b806306fdde03146100ed578063095ea7b31461011857806318160ddd14610148575b600080fd5b3480156100f957600080fd5b506101026102d8565b60405161010f9190610c52565b60405180910390f35b34801561012457600080fd5b50610138610133366004610c0f565b61036a565b604051901515815260200161010f565b34801561015457600080fd5b506002545b60405190815260200161010f565b34801561017357600080fd5b50610138610182366004610bd3565b610382565b34801561019357600080fd5b506101a76101a2366004610c39565b6103a6565b005b3480156101b557600080fd5b506040516012815260200161010f565b3480156101d157600080fd5b506101386101e0366004610c0f565b610492565b3480156101f157600080fd5b506101a7610200366004610c0f565b6104b4565b34801561021157600080fd5b50610159610220366004610b7e565b6001600160a01b031660009081526020819052604090205490565b34801561024757600080fd5b506101026104c2565b34801561025c57600080fd5b506101a761026b366004610c0f565b6104d1565b34801561027c57600080fd5b5061013861028b366004610c0f565b6104db565b34801561029c57600080fd5b506101386102ab366004610c0f565b610556565b6101a7610564565b3480156102c457600080fd5b506101596102d3366004610ba0565b6105a5565b6060600380546102e790610cd6565b80601f016020809104026020016040519081016040528092919081815260200182805461031390610cd6565b80156103605780601f1061033557610100808354040283529160200191610360565b820191906000526020600020905b81548152906001019060200180831161034357829003601f168201915b5050505050905090565b6000336103788185856105d0565b5060019392505050565b6000336103908582856106f5565b61039b85858561076f565b506001949350505050565b6103b0338261093d565b604051600090339083908381818185875af1925050503d80600081146103f2576040519150601f19603f3d011682016040523d82523d6000602084013e6103f7565b606091505b50509050806104595760405162461bcd60e51b815260206004820152602360248201527f577261704d6f636b3a3a77697468647261773a20747261736e666572206661696044820152621b195960ea1b60648201526084015b60405180910390fd5b60405182815233907f7fcf532c15f0a6db0bd6d0e038bea71d30d808c7d98cb3bf7268a95bf5081b659060200160405180910390a25050565b6000336103788185856104a583836105a5565b6104af9190610ca7565b6105d0565b6104be8282610a83565b5050565b6060600480546102e790610cd6565b6104be828261093d565b600033816104e982866105a5565b9050838110156105495760405162461bcd60e51b815260206004820152602560248201527f45524332303a2064656372656173656420616c6c6f77616e63652062656c6f77604482015264207a65726f60d81b6064820152608401610450565b61039b82868684036105d0565b60003361037881858561076f565b61056e3334610a83565b60405134815233907fe1fffcc4923d04b559f4d29a8bfc6cda04eb5b0d3c460751c2402c5c5cc9109c9060200160405180910390a2565b6001600160a01b03918216600090815260016020908152604080832093909416825291909152205490565b6001600160a01b0383166106325760405162461bcd60e51b8152602060048201526024808201527f45524332303a20617070726f76652066726f6d20746865207a65726f206164646044820152637265737360e01b6064820152608401610450565b6001600160a01b0382166106935760405162461bcd60e51b815260206004820152602260248201527f45524332303a20617070726f766520746f20746865207a65726f206164647265604482015261737360f01b6064820152608401610450565b6001600160a01b0383811660008181526001602090815260408083209487168084529482529182902085905590518481527f8c5be1e5ebec7d5bd14f71427d1e84f3dd0314c0f7b2291e5b200ac8c7c3b92591015b60405180910390a3505050565b600061070184846105a5565b90506000198114610769578181101561075c5760405162461bcd60e51b815260206004820152601d60248201527f45524332303a20696e73756666696369656e7420616c6c6f77616e63650000006044820152606401610450565b61076984848484036105d0565b50505050565b6001600160a01b0383166107d35760405162461bcd60e51b815260206004820152602560248201527f45524332303a207472616e736665722066726f6d20746865207a65726f206164604482015264647265737360d81b6064820152608401610450565b6001600160a01b0382166108355760405162461bcd60e51b815260206004820152602360248201527f45524332303a207472616e7366657220746f20746865207a65726f206164647260448201526265737360e81b6064820152608401610450565b6001600160a01b038316600090815260208190526040902054818110156108ad5760405162461bcd60e51b815260206004820152602660248201527f45524332303a207472616e7366657220616d6f756e7420657863656564732062604482015265616c616e636560d01b6064820152608401610450565b6001600160a01b038085166000908152602081905260408082208585039055918516815290812080548492906108e4908490610ca7565b92505081905550826001600160a01b0316846001600160a01b03167fddf252ad1be2c89b69c2b068fc378daa952ba7f163c4a11628f55a4df523b3ef8460405161093091815260200190565b60405180910390a3610769565b6001600160a01b03821661099d5760405162461bcd60e51b815260206004820152602160248201527f45524332303a206275726e2066726f6d20746865207a65726f206164647265736044820152607360f81b6064820152608401610450565b6001600160a01b03821660009081526020819052604090205481811015610a115760405162461bcd60e51b815260206004820152602260248201527f45524332303a206275726e20616d6f756e7420657863656564732062616c616e604482015261636560f01b6064820152608401610450565b6001600160a01b0383166000908152602081905260408120838303905560028054849290610a40908490610cbf565b90915550506040518281526000906001600160a01b038516907fddf252ad1be2c89b69c2b068fc378daa952ba7f163c4a11628f55a4df523b3ef906020016106e8565b6001600160a01b038216610ad95760405162461bcd60e51b815260206004820152601f60248201527f45524332303a206d696e7420746f20746865207a65726f2061646472657373006044820152606401610450565b8060026000828254610aeb9190610ca7565b90915550506001600160a01b03821660009081526020819052604081208054839290610b18908490610ca7565b90915550506040518181526001600160a01b038316906000907fddf252ad1be2c89b69c2b068fc378daa952ba7f163c4a11628f55a4df523b3ef9060200160405180910390a35050565b80356001600160a01b0381168114610b7957600080fd5b919050565b600060208284031215610b9057600080fd5b610b9982610b62565b9392505050565b60008060408385031215610bb357600080fd5b610bbc83610b62565b9150610bca60208401610b62565b90509250929050565b600080600060608486031215610be857600080fd5b610bf184610b62565b9250610bff60208501610b62565b9150604084013590509250925092565b60008060408385031215610c2257600080fd5b610c2b83610b62565b946020939093013593505050565b600060208284031215610c4b57600080fd5b5035919050565b600060208083528351808285015260005b81811015610c7f57858101830151858201604001528201610c63565b81811115610c91576000604083870101525b50601f01601f1916929092016040019392505050565b60008219821115610cba57610cba610d11565b500190565b600082821015610cd157610cd1610d11565b500390565b600181811c90821680610cea57607f821691505b60208210811415610d0b57634e487b7160e01b600052602260045260246000fd5b50919050565b634e487b7160e01b600052601160045260246000fdfea2646970667358221220f96575db5ac04df2658404fe30cd28970a0d7f3dc7a4cbe51adcc3222d04d65b64736f6c63430008060033",
  "linkReferences": {},
  "deployedLinkReferences": {}
}