{
  "_format": "hh-sol-artifact-1",
  "contractName": "SmartTrade",
  "sourceName": "contracts/automate/SmartTrade.sol",
  "abi": [
    {
      "inputs": [
        {
          "internalType": "address",
          "name": "_balance",
          "type": "address"
        }
      ],
      "stateMutability": "nonpayable",
      "type": "constructor"
    },
    {
      "anonymous": false,
      "inputs": [
        {
          "indexed": true,
          "internalType": "address",
          "name": "balance",
          "type": "address"
        }
      ],
      "name": "BalanceChanged",
      "type": "event"
    },
    {
      "anonymous": false,
      "inputs": [
        {
          "indexed": true,
          "internalType": "uint256",
          "name": "id",
          "type": "uint256"
        }
      ],
      "name": "OrderCanceled",
      "type": "event"
    },
    {
      "anonymous": false,
      "inputs": [
        {
          "indexed": true,
          "internalType": "uint256",
          "name": "id",
          "type": "uint256"
        }
      ],
      "name": "OrderCompleted",
      "type": "event"
    },
    {
      "anonymous": false,
      "inputs": [
        {
          "indexed": true,
          "internalType": "uint256",
          "name": "id",
          "type": "uint256"
        },
        {
          "indexed": true,
          "internalType": "address",
          "name": "customer",
          "type": "address"
        }
      ],
      "name": "OrderCreated",
      "type": "event"
    },
    {
      "anonymous": false,
      "inputs": [
        {
          "indexed": true,
          "internalType": "address",
          "name": "previousOwner",
          "type": "address"
        },
        {
          "indexed": true,
          "internalType": "address",
          "name": "newOwner",
          "type": "address"
        }
      ],
      "name": "OwnershipTransferred",
      "type": "event"
    },
    {
      "inputs": [],
      "name": "activeOrders",
      "outputs": [
        {
          "internalType": "uint256[]",
          "name": "oids",
          "type": "uint256[]"
        }
      ],
      "stateMutability": "view",
      "type": "function"
    },
    {
      "inputs": [],
      "name": "balance",
      "outputs": [
        {
          "internalType": "contract ApprovableBalance",
          "name": "",
          "type": "address"
        }
      ],
      "stateMutability": "view",
      "type": "function"
    },
    {
      "inputs": [
        {
          "internalType": "uint256",
          "name": "oid",
          "type": "uint256"
        }
      ],
      "name": "cancelOrder",
      "outputs": [],
      "stateMutability": "nonpayable",
      "type": "function"
    },
    {
      "inputs": [
        {
          "internalType": "address",
          "name": "_balance",
          "type": "address"
        }
      ],
      "name": "changeBalance",
      "outputs": [],
      "stateMutability": "nonpayable",
      "type": "function"
    },
    {
      "inputs": [
        {
          "internalType": "uint256",
          "name": "oid",
          "type": "uint256"
        },
        {
          "internalType": "uint256",
          "name": "gasFee",
          "type": "uint256"
        },
        {
          "internalType": "uint256",
          "name": "protocolFee",
          "type": "uint256"
        },
        {
          "internalType": "uint256",
          "name": "deadline",
          "type": "uint256"
        }
      ],
      "name": "check",
      "outputs": [],
      "stateMutability": "nonpayable",
      "type": "function"
    },
    {
      "inputs": [
        {
          "internalType": "uint256",
          "name": "amountIn",
          "type": "uint256"
        },
        {
          "internalType": "address",
          "name": "router",
          "type": "address"
        },
        {
          "internalType": "address[]",
          "name": "path",
          "type": "address[]"
        },
        {
          "components": [
            {
              "internalType": "uint256",
              "name": "amountOut",
              "type": "uint256"
            },
            {
              "internalType": "uint256",
              "name": "amountOutMin",
              "type": "uint256"
            },
            {
              "internalType": "uint256",
              "name": "throttle",
              "type": "uint256"
            },
            {
              "internalType": "uint256",
              "name": "throttleBlock",
              "type": "uint256"
            }
          ],
          "internalType": "struct SmartTrade.Limit",
          "name": "takeProfit",
          "type": "tuple"
        },
        {
          "components": [
            {
              "internalType": "uint256",
              "name": "amountOut",
              "type": "uint256"
            },
            {
              "internalType": "uint256",
              "name": "amountOutMin",
              "type": "uint256"
            },
            {
              "internalType": "uint256",
              "name": "throttle",
              "type": "uint256"
            },
            {
              "internalType": "uint256",
              "name": "throttleBlock",
              "type": "uint256"
            }
          ],
          "internalType": "struct SmartTrade.Limit",
          "name": "stopLoss",
          "type": "tuple"
        }
      ],
      "name": "createOrder",
      "outputs": [
        {
          "internalType": "uint256",
          "name": "oid",
          "type": "uint256"
        }
      ],
      "stateMutability": "nonpayable",
      "type": "function"
    },
    {
      "inputs": [
        {
          "internalType": "uint256",
          "name": "oid",
          "type": "uint256"
        }
      ],
      "name": "isActive",
      "outputs": [
        {
          "internalType": "bool",
          "name": "",
          "type": "bool"
        }
      ],
      "stateMutability": "view",
      "type": "function"
    },
    {
      "inputs": [
        {
          "internalType": "uint256",
          "name": "",
          "type": "uint256"
        }
      ],
      "name": "orders",
      "outputs": [
        {
          "internalType": "uint256",
          "name": "id",
          "type": "uint256"
        },
        {
          "internalType": "address",
          "name": "customer",
          "type": "address"
        },
        {
          "internalType": "uint256",
          "name": "amountIn",
          "type": "uint256"
        },
        {
          "internalType": "address",
          "name": "router",
          "type": "address"
        },
        {
          "components": [
            {
              "internalType": "uint256",
              "name": "amountOut",
              "type": "uint256"
            },
            {
              "internalType": "uint256",
              "name": "amountOutMin",
              "type": "uint256"
            },
            {
              "internalType": "uint256",
              "name": "throttle",
              "type": "uint256"
            },
            {
              "internalType": "uint256",
              "name": "throttleBlock",
              "type": "uint256"
            }
          ],
          "internalType": "struct SmartTrade.Limit",
          "name": "takeProfit",
          "type": "tuple"
        },
        {
          "components": [
            {
              "internalType": "uint256",
              "name": "amountOut",
              "type": "uint256"
            },
            {
              "internalType": "uint256",
              "name": "amountOutMin",
              "type": "uint256"
            },
            {
              "internalType": "uint256",
              "name": "throttle",
              "type": "uint256"
            },
            {
              "internalType": "uint256",
              "name": "throttleBlock",
              "type": "uint256"
            }
          ],
          "internalType": "struct SmartTrade.Limit",
          "name": "stopLoss",
          "type": "tuple"
        }
      ],
      "stateMutability": "view",
      "type": "function"
    },
    {
      "inputs": [],
      "name": "ordersCount",
      "outputs": [
        {
          "internalType": "uint256",
          "name": "",
          "type": "uint256"
        }
      ],
      "stateMutability": "view",
      "type": "function"
    },
    {
      "inputs": [],
      "name": "owner",
      "outputs": [
        {
          "internalType": "address",
          "name": "",
          "type": "address"
        }
      ],
      "stateMutability": "view",
      "type": "function"
    },
    {
      "inputs": [],
      "name": "renounceOwnership",
      "outputs": [],
      "stateMutability": "nonpayable",
      "type": "function"
    },
    {
      "inputs": [
        {
          "internalType": "address",
          "name": "newOwner",
          "type": "address"
        }
      ],
      "name": "transferOwnership",
      "outputs": [],
      "stateMutability": "nonpayable",
      "type": "function"
    }
  ],
  "bytecode": "0x608060405234801561001057600080fd5b5060405161178838038061178883398101604081905261002f916100ad565b6100383361005d565b600180546001600160a01b0319166001600160a01b03929092169190911790556100dd565b600080546001600160a01b038381166001600160a01b0319831681178455604051919092169283917f8be0079c531659141344cd1fd0a4f28419497f9722a3daafe3b4186f6b6457e09190a35050565b6000602082840312156100bf57600080fd5b81516001600160a01b03811681146100d657600080fd5b9392505050565b61169c806100ec6000396000f3fe608060405234801561001057600080fd5b50600436106100b45760003560e01c80638da5cb5b116100715780638da5cb5b1461013b578063a4726bb814610160578063a85c38ef14610175578063b69ef8a814610232578063be8c21b914610245578063f2fde38b1461025857600080fd5b806313909aca146100b957806335daa731146100ce578063514fcac7146100ea578063715018a6146100fd57806382afd23b146101055780638427e6f714610128575b600080fd5b6100cc6100c73660046111f8565b61026b565b005b6100d760055481565b6040519081526020015b60405180910390f35b6100cc6100f83660046112d2565b6102bd565b6100cc61045c565b6101186101133660046112d2565b610470565b60405190151581526020016100e1565b6100cc6101363660046113cb565b610483565b6000546001600160a01b03165b6040516001600160a01b0390911681526020016100e1565b6101686106be565b6040516100e19190611446565b6102206101833660046112d2565b60026020818152600092835260409283902080546001820154938201546003830154865160808082018952600586015482526006860154828801526007860154828a0152600886015460608084019190915289519182018a5260098701548252600a87015497820197909752600b86015498810198909852600c909401549487019490945290946001600160a01b03948516949193909116919086565b6040516100e19695949392919061148a565b600154610148906001600160a01b031681565b6100d76102533660046112eb565b610760565b6100cc6102663660046111f8565b610a48565b610273610ac1565b600180546001600160a01b0319166001600160a01b0383169081179091556040517fb9b8a6f5b5776563f2c6478897492499e1b0c907edb2d2ba0cddc34981ea251790600090a250565b60055481106103255760405162461bcd60e51b815260206004820152602960248201527f536d61727454726164653a3a63616e63656c4f726465723a20696e76616c6964604482015268081bdc99195c881a5960ba1b60648201526084015b60405180910390fd5b61032e81610470565b6103935760405162461bcd60e51b815260206004820152603060248201527f536d61727454726164653a3a63616e63656c4f726465723a206f72646572206160448201526f1b1c9958591e4818dbdb5c1b195d195960821b606482015260840161031c565b6000818152600260205260409020600101546001600160a01b031633146104225760405162461bcd60e51b815260206004820152603960248201527f536d61727454726164653a3a63616e63656c4f726465723a206f6e6c79206f7760448201527f6e65722063616e2063616e63656c2074686973206f7264657200000000000000606482015260840161031c565b61042d600382610b1b565b5060405181907fc41f4ceb2938876c35e61b705e9d2f18a02c4a26ce5e049a6308a943d46851b390600090a250565b610464610ac1565b61046e6000610b2e565b565b600061047d600383610b7e565b92915050565b60055484106104df5760405162461bcd60e51b815260206004820152602260248201527f536d61727454726164653a636865636b3a20696e76616c6964206f72646572206044820152611a5960f21b606482015260840161031c565b60008481526002602052604090206104f685610470565b61054c5760405162461bcd60e51b815260206004820152602160248201527f536d61727454726164653a636865636b3a206f7264657220636f6d706c6574656044820152601960fa1b606482015260840161031c565b6003810154600282015460405163d06ca61f60e01b81526000926001600160a01b03169163d06ca61f91610587919060048088019101611512565b60006040518083038186803b15801561059f57600080fd5b505afa1580156105b3573d6000803e3d6000fd5b505050506040513d6000823e601f3d908101601f191682016040526105db9190810190611213565b60058301549091501561064d57600582015460048301548290610600906001906115dc565b815181106106105761061061163a565b6020026020010151106106345761062d8283600501878787610b96565b50506106b8565b60088201541561064d5761062d82836005018787610c5d565b6009820154156106b55760098201546004830154829061066f906001906115dc565b8151811061067f5761067f61163a565b60200260200101511161069c5761062d8283600901878787610b96565b600c820154156106b55761062d82836009018787610c5d565b50505b50505050565b60606106ca6003610cdb565b67ffffffffffffffff8111156106e2576106e2611650565b60405190808252806020026020018201604052801561070b578160200160208202803683370190505b50905060005b61071b6003610cdb565b81101561075c5761072d600382610ce5565b82828151811061073f5761073f61163a565b602090810291909101015280610754816115f3565b915050610711565b5090565b60008086116107c55760405162461bcd60e51b815260206004820152602b60248201527f536d6172745472616465723a3a6372656174654f726465723a20696e76616c6960448201526a321030b6b7bab73a1034b760a91b606482015260840161031c565b6001600160a01b03851661082c5760405162461bcd60e51b815260206004820152602860248201527f536d6172745472616465723a3a6372656174654f726465723a20696e76616c6960448201526732103937baba32b960c11b606482015260840161031c565b600184511161088c5760405162461bcd60e51b815260206004820152602660248201527f536d6172745472616465723a3a6372656174654f726465723a20696e76616c696044820152650c840e0c2e8d60d31b606482015260840161031c565b825115158061089b5750815115155b6108f55760405162461bcd60e51b815260206004820152602560248201527f536d6172745472616465723a3a6372656174654f726465723a20656d7074792060448201526437b93232b960d91b606482015260840161031c565b60058054906000610905836115f3565b909155506040805160e0810182528281523360208083019182528284018b81526001600160a01b038b811660608601908152608086018c815260a087018c905260c087018b9052600089815260028087529890208751815595516001870180546001600160a01b031990811692861692909217905593519786019790975551600385018054909316911617905592518051949550919390926109ae926004850192910190611105565b5060a08201518051600583015560208082015160068401556040808301516007850155606092830151600885015560c0909401518051600985015590810151600a84015592830151600b8301559190910151600c90910155610a11600382610cf1565b50604051339082907f4ceaea0569072c9203c8c195ffccdbca9851b9d0410f577878a6792f12ec9b5290600090a395945050505050565b610a50610ac1565b6001600160a01b038116610ab55760405162461bcd60e51b815260206004820152602660248201527f4f776e61626c653a206e6577206f776e657220697320746865207a65726f206160448201526564647265737360d01b606482015260840161031c565b610abe81610b2e565b50565b6000546001600160a01b0316331461046e5760405162461bcd60e51b815260206004820181905260248201527f4f776e61626c653a2063616c6c6572206973206e6f7420746865206f776e6572604482015260640161031c565b6000610b278383610cfd565b9392505050565b600080546001600160a01b038381166001600160a01b0319831681178455604051919092169283917f8be0079c531659141344cd1fd0a4f28419497f9722a3daafe3b4186f6b6457e09190a35050565b60008181526001830160205260408120541515610b27565b600284015415610c45576003840154610c25574360038501556001805490860154604051632bc43fd960e01b81526001600160a01b0391821660048201526024810186905260006044820152911690632bc43fd990606401600060405180830381600087803b158015610c0857600080fd5b505af1158015610c1c573d6000803e3d6000fd5b50505050610c56565b83600201548460030154610c3991906115c4565b431015610c4557610c56565b610c56858560010154858585610df0565b5050505050565b600060038401556001805490850154604051632bc43fd960e01b81526001600160a01b0391821660048201526024810185905260448101849052911690632bc43fd990606401600060405180830381600087803b158015610cbd57600080fd5b505af1158015610cd1573d6000803e3d6000fd5b5050505050505050565b600061047d825490565b6000610b27838361108c565b6000610b2783836110b6565b60008181526001830160205260408120548015610de6576000610d216001836115dc565b8554909150600090610d35906001906115dc565b9050818114610d9a576000866000018281548110610d5557610d5561163a565b9060005260206000200154905080876000018481548110610d7857610d7861163a565b6000918252602080832090910192909255918252600188019052604090208390555b8554869080610dab57610dab611624565b60019003818190600052602060002001600090559055856001016000868152602001908152602001600020600090556001935050505061047d565b600091505061047d565b6001805490860154604051632bc43fd960e01b81526001600160a01b0391821660048201526024810186905260448101859052911690632bc43fd990606401600060405180830381600087803b158015610e4957600080fd5b505af1158015610e5d573d6000803e3d6000fd5b50508654610e6f925060039150610b1b565b50600085600401600081548110610e8857610e8861163a565b600091825260209091200154600187015460028801546040516323b872dd60e01b81526001600160a01b03928316600482015230602482015260448101919091529116915081906323b872dd90606401602060405180830381600087803b158015610ef257600080fd5b505af1158015610f06573d6000803e3d6000fd5b505050506040513d601f19601f82011682018060405250810190610f2a91906112b0565b506003860154600287015460405163095ea7b360e01b81526001600160a01b03928316600482015260248101919091529082169063095ea7b390604401602060405180830381600087803b158015610f8157600080fd5b505af1158015610f95573d6000803e3d6000fd5b505050506040513d601f19601f82011682018060405250810190610fb991906112b0565b506003860154600287015460018801546040516338ed173960e01b81526001600160a01b03938416936338ed1739936110029390928b926004808f0193909116918a9101611533565b600060405180830381600087803b15801561101c57600080fd5b505af1158015611030573d6000803e3d6000fd5b505050506040513d6000823e601f3d908101601f191682016040526110589190810190611213565b5085546040517f02a7d4d9472af7118644884b9a0ee443540c0027e938dd0aa35be8ecbe946c0a90600090a2505050505050565b60008260000182815481106110a3576110a361163a565b9060005260206000200154905092915050565b60008181526001830160205260408120546110fd5750815460018181018455600084815260208082209093018490558454848252828601909352604090209190915561047d565b50600061047d565b82805482825590600052602060002090810192821561115a579160200282015b8281111561115a57825182546001600160a01b0319166001600160a01b03909116178255602090920191600190910190611125565b5061075c9291505b8082111561075c5760008155600101611162565b80356001600160a01b038116811461118d57600080fd5b919050565b6000608082840312156111a457600080fd5b6040516080810181811067ffffffffffffffff821117156111c7576111c7611650565b8060405250809150823581526020830135602082015260408301356040820152606083013560608201525092915050565b60006020828403121561120a57600080fd5b610b2782611176565b6000602080838503121561122657600080fd5b825167ffffffffffffffff81111561123d57600080fd5b8301601f8101851361124e57600080fd5b805161126161125c826115a0565b61156f565b80828252848201915084840188868560051b870101111561128157600080fd5b600094505b838510156112a4578051835260019490940193918501918501611286565b50979650505050505050565b6000602082840312156112c257600080fd5b81518015158114610b2757600080fd5b6000602082840312156112e457600080fd5b5035919050565b6000806000806000610160868803121561130457600080fd5b853594506020611315818801611176565b9450604087013567ffffffffffffffff81111561133157600080fd5b8701601f8101891361134257600080fd5b803561135061125c826115a0565b8082825284820191508484018c868560051b870101111561137057600080fd5b600094505b8385101561139a5761138681611176565b835260019490940193918501918501611375565b5080975050505050506113b08760608801611192565b91506113bf8760e08801611192565b90509295509295909350565b600080600080608085870312156113e157600080fd5b5050823594602084013594506040840135936060013592509050565b6000815480845260208085019450836000528060002060005b8381101561143b5781546001600160a01b031687529582019560019182019101611416565b509495945050505050565b6020808252825182820181905260009190848201906040850190845b8181101561147e57835183529284019291840191600101611462565b50909695505050505050565b8681526001600160a01b038681166020830152604082018690528416606082015261018081016114de6080830185805182526020810151602083015260408101516040830152606081015160608301525050565b8251610100830152602083015161012083015260408301516101408301526060830151610160830152979650505050505050565b82815260406020820152600061152b60408301846113fd565b949350505050565b85815284602082015260a06040820152600061155260a08301866113fd565b6001600160a01b0394909416606083015250608001529392505050565b604051601f8201601f1916810167ffffffffffffffff8111828210171561159857611598611650565b604052919050565b600067ffffffffffffffff8211156115ba576115ba611650565b5060051b60200190565b600082198211156115d7576115d761160e565b500190565b6000828210156115ee576115ee61160e565b500390565b60006000198214156116075761160761160e565b5060010190565b634e487b7160e01b600052601160045260246000fd5b634e487b7160e01b600052603160045260246000fd5b634e487b7160e01b600052603260045260246000fd5b634e487b7160e01b600052604160045260246000fdfea26469706673582212202143c09b5e2d8c3277f30132329c2b46c85efec476cc19f1957a41714524493864736f6c63430008060033",
  "linkReferences": {},
  "deployedLinkReferences": {}
}