{
  "_format": "hh-sol-artifact-1",
  "contractName": "Multiownable",
  "sourceName": "contracts/governance/Multiownable.sol",
  "abi": [
    {
      "inputs": [],
      "stateMutability": "nonpayable",
      "type": "constructor"
    },
    {
      "anonymous": false,
      "inputs": [
        {
          "indexed": false,
          "internalType": "bytes32",
          "name": "operation",
          "type": "bytes32"
        },
        {
          "indexed": false,
          "internalType": "address",
          "name": "lastCanceller",
          "type": "address"
        }
      ],
      "name": "OperationCancelled",
      "type": "event"
    },
    {
      "anonymous": false,
      "inputs": [
        {
          "indexed": false,
          "internalType": "bytes32",
          "name": "operation",
          "type": "bytes32"
        },
        {
          "indexed": false,
          "internalType": "uint256",
          "name": "howMany",
          "type": "uint256"
        },
        {
          "indexed": false,
          "internalType": "uint256",
          "name": "ownersCount",
          "type": "uint256"
        },
        {
          "indexed": false,
          "internalType": "address",
          "name": "proposer",
          "type": "address"
        }
      ],
      "name": "OperationCreated",
      "type": "event"
    },
    {
      "anonymous": false,
      "inputs": [
        {
          "indexed": false,
          "internalType": "bytes32",
          "name": "operation",
          "type": "bytes32"
        },
        {
          "indexed": false,
          "internalType": "uint256",
          "name": "votes",
          "type": "uint256"
        },
        {
          "indexed": false,
          "internalType": "uint256",
          "name": "ownersCount",
          "type": "uint256"
        },
        {
          "indexed": false,
          "internalType": "address",
          "name": "downvoter",
          "type": "address"
        }
      ],
      "name": "OperationDownvoted",
      "type": "event"
    },
    {
      "anonymous": false,
      "inputs": [
        {
          "indexed": false,
          "internalType": "bytes32",
          "name": "operation",
          "type": "bytes32"
        },
        {
          "indexed": false,
          "internalType": "uint256",
          "name": "howMany",
          "type": "uint256"
        },
        {
          "indexed": false,
          "internalType": "uint256",
          "name": "ownersCount",
          "type": "uint256"
        },
        {
          "indexed": false,
          "internalType": "address",
          "name": "performer",
          "type": "address"
        }
      ],
      "name": "OperationPerformed",
      "type": "event"
    },
    {
      "anonymous": false,
      "inputs": [
        {
          "indexed": false,
          "internalType": "bytes32",
          "name": "operation",
          "type": "bytes32"
        },
        {
          "indexed": false,
          "internalType": "uint256",
          "name": "votes",
          "type": "uint256"
        },
        {
          "indexed": false,
          "internalType": "uint256",
          "name": "howMany",
          "type": "uint256"
        },
        {
          "indexed": false,
          "internalType": "uint256",
          "name": "ownersCount",
          "type": "uint256"
        },
        {
          "indexed": false,
          "internalType": "address",
          "name": "upvoter",
          "type": "address"
        }
      ],
      "name": "OperationUpvoted",
      "type": "event"
    },
    {
      "anonymous": false,
      "inputs": [
        {
          "indexed": false,
          "internalType": "address[]",
          "name": "previousOwners",
          "type": "address[]"
        },
        {
          "indexed": false,
          "internalType": "uint256",
          "name": "howManyOwnersDecide",
          "type": "uint256"
        },
        {
          "indexed": false,
          "internalType": "address[]",
          "name": "newOwners",
          "type": "address[]"
        },
        {
          "indexed": false,
          "internalType": "uint256",
          "name": "newHowManyOwnersDecide",
          "type": "uint256"
        }
      ],
      "name": "OwnershipTransferred",
      "type": "event"
    },
    {
      "inputs": [
        {
          "internalType": "uint256",
          "name": "",
          "type": "uint256"
        }
      ],
      "name": "allOperations",
      "outputs": [
        {
          "internalType": "bytes32",
          "name": "",
          "type": "bytes32"
        }
      ],
      "stateMutability": "view",
      "type": "function"
    },
    {
      "inputs": [],
      "name": "allOperationsCount",
      "outputs": [
        {
          "internalType": "uint256",
          "name": "",
          "type": "uint256"
        }
      ],
      "stateMutability": "view",
      "type": "function"
    },
    {
      "inputs": [
        {
          "internalType": "bytes32",
          "name": "",
          "type": "bytes32"
        }
      ],
      "name": "allOperationsIndicies",
      "outputs": [
        {
          "internalType": "uint256",
          "name": "",
          "type": "uint256"
        }
      ],
      "stateMutability": "view",
      "type": "function"
    },
    {
      "inputs": [
        {
          "internalType": "bytes32",
          "name": "operation",
          "type": "bytes32"
        }
      ],
      "name": "cancelPending",
      "outputs": [],
      "stateMutability": "nonpayable",
      "type": "function"
    },
    {
      "inputs": [],
      "name": "howManyOwnersDecide",
      "outputs": [
        {
          "internalType": "uint256",
          "name": "",
          "type": "uint256"
        }
      ],
      "stateMutability": "view",
      "type": "function"
    },
    {
      "inputs": [
        {
          "internalType": "address",
          "name": "wallet",
          "type": "address"
        }
      ],
      "name": "isOwner",
      "outputs": [
        {
          "internalType": "bool",
          "name": "",
          "type": "bool"
        }
      ],
      "stateMutability": "view",
      "type": "function"
    },
    {
      "inputs": [
        {
          "internalType": "uint256",
          "name": "",
          "type": "uint256"
        }
      ],
      "name": "owners",
      "outputs": [
        {
          "internalType": "address",
          "name": "",
          "type": "address"
        }
      ],
      "stateMutability": "view",
      "type": "function"
    },
    {
      "inputs": [],
      "name": "ownersCount",
      "outputs": [
        {
          "internalType": "uint256",
          "name": "",
          "type": "uint256"
        }
      ],
      "stateMutability": "view",
      "type": "function"
    },
    {
      "inputs": [],
      "name": "ownersGeneration",
      "outputs": [
        {
          "internalType": "uint256",
          "name": "",
          "type": "uint256"
        }
      ],
      "stateMutability": "view",
      "type": "function"
    },
    {
      "inputs": [
        {
          "internalType": "address",
          "name": "",
          "type": "address"
        }
      ],
      "name": "ownersIndices",
      "outputs": [
        {
          "internalType": "uint256",
          "name": "",
          "type": "uint256"
        }
      ],
      "stateMutability": "view",
      "type": "function"
    },
    {
      "inputs": [
        {
          "internalType": "address[]",
          "name": "newOwners",
          "type": "address[]"
        }
      ],
      "name": "transferOwnership",
      "outputs": [],
      "stateMutability": "nonpayable",
      "type": "function"
    },
    {
      "inputs": [
        {
          "internalType": "address[]",
          "name": "newOwners",
          "type": "address[]"
        },
        {
          "internalType": "uint256",
          "name": "newHowManyOwnersDecide",
          "type": "uint256"
        }
      ],
      "name": "transferOwnershipWithHowMany",
      "outputs": [],
      "stateMutability": "nonpayable",
      "type": "function"
    },
    {
      "inputs": [
        {
          "internalType": "bytes32",
          "name": "",
          "type": "bytes32"
        }
      ],
      "name": "votesCountByOperation",
      "outputs": [
        {
          "internalType": "uint256",
          "name": "",
          "type": "uint256"
        }
      ],
      "stateMutability": "view",
      "type": "function"
    },
    {
      "inputs": [
        {
          "internalType": "bytes32",
          "name": "",
          "type": "bytes32"
        }
      ],
      "name": "votesMaskByOperation",
      "outputs": [
        {
          "internalType": "uint256",
          "name": "",
          "type": "uint256"
        }
      ],
      "stateMutability": "view",
      "type": "function"
    }
  ],
  "bytecode": "0x608060405234801561001057600080fd5b506002805460018181019092557f405787fa12a823e0f2b7631cc41b3ba8828b3321ca811111fa75cd3aa3bb5ace0180546001600160a01b0319163390811790915560009081526006602052604090208190558055611211806100746000396000f3fe608060405234801561001057600080fd5b50600436106100ea5760003560e01c8063893372ca1161008c578063b948854611610066578063b9488546146101f9578063cc047a0414610201578063e851834114610221578063ea1a26441461023457600080fd5b8063893372ca146101bd57806390a53085146101d0578063b25bb3a7146101f057600080fd5b80632f4a81df116100c85780632f4a81df146101465780632f54bf6e1461014f578063431ab2331461018a578063568b59151461019d57600080fd5b8063025e7c27146100ef57806318bcd3d01461011f57806322f2f89a14610134575b600080fd5b6101026100fd366004610f6f565b610254565b6040516001600160a01b0390911681526020015b60405180910390f35b61013261012d366004610ee1565b61027e565b005b6003545b604051908152602001610116565b61013860015481565b61017a61015d366004610ebf565b6001600160a01b0316600090815260066020526040902054151590565b6040519015158152602001610116565b610138610198366004610f6f565b61028d565b6101386101ab366004610f6f565b60086020526000908152604090205481565b6101326101cb366004610f6f565b6102ae565b6101386101de366004610f6f565b60096020526000908152604090205481565b61013860005481565b600254610138565b61013861020f366004610ebf565b60066020526000908152604090205481565b61013261022f366004610f23565b61048b565b610138610242366004610f6f565b60076020526000908152604090205481565b6002818154811061026457600080fd5b6000918252602090912001546001600160a01b0316905081565b61028982828061048b565b5050565b6003818154811061029d57600080fd5b600091825260209091200154905081565b6102b86001610925565b15610488576004546001600160a01b03161580156102e857600480546001600160a01b0319163317905560016005555b3360009081526006602052604081205461030490600190611147565b905061031181600261109d565b6000848152600860205260409020541661038b5760405162461bcd60e51b815260206004820152603060248201527f63616e63656c50656e64696e673a206f7065726174696f6e206e6f7420666f7560448201526f3732103337b9103a3434b9903ab9b2b960811b60648201526084015b60405180910390fd5b61039681600261109d565b60008481526008602090815260408083208054941990941690935560099052908120546103c590600190611147565b60008581526009602090815260409182902083905560025482518881529182018490528183015233606082015290519192507f3e0a7036018b5a2a3c5d0afa14e51998ef3cf98c38e4289a8897222b3acf75a7919081900360800190a1806104695761043084610cca565b604080518581523360208201527f55e0dd61c29aac6fc36807628300ad3e3ec68655ae76ae4002f7fb101496fa9f910160405180910390a15b5050801561028957600480546001600160a01b03191690556000600555505b50565b610496600154610925565b15610920576004546001600160a01b03161580156104c757600480546001600160a01b031916331790556001546005555b8261051e5760405162461bcd60e51b815260206004820152603360248201526000805160206111bc8339815191526044820152726e65727320617272617920697320656d70747960681b6064820152608401610382565b6101008311156105845760405162461bcd60e51b815260206004820152603e60248201526000805160206111bc83398151915260448201527f6e65727320636f756e742069732067726561746572207468656e2032353600006064820152608401610382565b600082116105fa5760405162461bcd60e51b815260206004820152603f60248201527f7472616e736665724f776e65727368697057697468486f774d616e793a206e6560448201527f77486f774d616e794f776e65727344656369646520657175616c20746f2030006064820152608401610382565b8282111561068a5760405162461bcd60e51b815260206004820152605160248201527f7472616e736665724f776e65727368697057697468486f774d616e793a206e6560448201527f77486f774d616e794f776e657273446563696465206578636565647320746865606482015270206e756d626572206f66206f776e65727360781b608482015260a401610382565b60005b6002548110156106e55760066000600283815481106106ae576106ae6111a5565b60009182526020808320909101546001600160a01b03168352820192909252604001812055806106dd8161115e565b91505061068d565b5060005b8381101561088d576000858583818110610705576107056111a5565b905060200201602081019061071a9190610ebf565b6001600160a01b031614156107855760405162461bcd60e51b815260206004820152603860248201526000805160206111bc83398151915260448201527f6e65727320617272617920636f6e7461696e73207a65726f00000000000000006064820152608401610382565b6006600086868481811061079b5761079b6111a5565b90506020020160208101906107b09190610ebf565b6001600160a01b031681526020810191909152604001600020541561082b5760405162461bcd60e51b815260206004820152603e60248201526000805160206111bc83398151915260448201527f6e65727320617272617920636f6e7461696e73206475706c69636174657300006064820152608401610382565b610836816001611042565b6006600087878581811061084c5761084c6111a5565b90506020020160208101906108619190610ebf565b6001600160a01b03168152602081019190915260400160002055806108858161115e565b9150506106e9565b507fd167b96814cd24898418cc293e8d47d54afe6dcf0631283f0830e1eae621f6bd60026001548686866040516108c8959493929190610f9a565b60405180910390a16108dc60028585610dc5565b5060018290556108ee60036000610e28565b6000805490806108fd8361115e565b9190505550801561091e57600480546001600160a01b031916905560006005555b505b505050565b6004546000906001600160a01b03163314156109c9576005548211156109c15760405162461bcd60e51b8152602060048201526044602482018190527f636865636b486f774d616e794f776e6572733a206e6573746564206f776e6572908201527f73206d6f64696669657220636865636b2072657175697265206d6f7265206f776064820152636e65727360e01b608482015260a401610382565b506001919050565b33600090815260066020526040902054610a3c5760405162461bcd60e51b815260206004820152602e60248201527f636865636b486f774d616e794f776e6572733a206d73672e73656e646572206960448201526d39903737ba1030b71037bbb732b960911b6064820152608401610382565b33600090815260066020526040812054610a5890600190611147565b905060008036600054604051602001610a7393929190610f88565b604051602081830303815290604052805190602001209050816002610a98919061109d565b6000828152600860205260409020541615610b1b5760405162461bcd60e51b815260206004820152603960248201527f636865636b486f774d616e794f776e6572733a206f776e657220616c7265616460448201527f7920766f74656420666f7220746865206f7065726174696f6e000000000000006064820152608401610382565b610b2682600261109d565b600082815260086020908152604080832080549094179093556009905290812054610b52906001611042565b600083815260096020526040902081905590506001811415610bfc57600380546000848152600760209081526040808320849055600184018555939091527fc2575a0e9e593c00f959f8c92f12db2869c3395a3b0502d05e2516446f71f85b90910184905560025482518581529182018890528183015233606082015290517f6bab0114f9524353d2d33e64edd3ebbd16e21edd57de2226ba76c310a7ce22659181900360800190a15b60025460408051848152602081018490528082018890526060810192909252336080830152517f8dd9582c6577aea81973b5adeb6c135f6e18565d99578b7ba0c9377437ec02219181900360a00190a1600082815260096020526040902054851415610cbf57610c6b82610cca565b600254604080518481526020810188905280820192909252336060830152517f8a11c8ca99994c292318ce367f65bf6ff61d390bc814b3588496f6fbcc32807a9181900360800190a1506001949350505050565b506000949350505050565b600081815260076020526040902054600354610ce890600190611147565b811015610d715760038054610cff90600190611147565b81548110610d0f57610d0f6111a5565b906000526020600020015460038281548110610d2d57610d2d6111a5565b9060005260206000200181905550806007600060038481548110610d5357610d536111a5565b90600052602060002001548152602001908152602001600020819055505b6003805480610d8257610d8261118f565b6000828152602080822083016000199081018390559092019092559281526008835260408082208290556009845280822082905560079093529182209190915550565b828054828255906000526020600020908101928215610e18579160200282015b82811115610e185781546001600160a01b0319166001600160a01b03843516178255602090920191600190910190610de5565b50610e24929150610e42565b5090565b508054600082559060005260206000209081019061048891905b5b80821115610e245760008155600101610e43565b80356001600160a01b0381168114610e6e57600080fd5b919050565b60008083601f840112610e8557600080fd5b50813567ffffffffffffffff811115610e9d57600080fd5b6020830191508360208260051b8501011115610eb857600080fd5b9250929050565b600060208284031215610ed157600080fd5b610eda82610e57565b9392505050565b60008060208385031215610ef457600080fd5b823567ffffffffffffffff811115610f0b57600080fd5b610f1785828601610e73565b90969095509350505050565b600080600060408486031215610f3857600080fd5b833567ffffffffffffffff811115610f4f57600080fd5b610f5b86828701610e73565b909790965060209590950135949350505050565b600060208284031215610f8157600080fd5b5035919050565b82848237909101908152602001919050565b6000608082016080835280885480835260a08501915089600052602092508260002060005b82811015610fe45781546001600160a01b031684529284019260019182019101610fbf565b50505083820188905283810360408501528581528690820160005b8781101561102b576001600160a01b0361101884610e57565b1682529183019190830190600101610fff565b508093505050508260608301529695505050505050565b6000821982111561105557611055611179565b500190565b600181815b8085111561109557816000190482111561107b5761107b611179565b8085161561108857918102915b93841c939080029061105f565b509250929050565b6000610eda83836000826110b357506001611141565b816110c057506000611141565b81600181146110d657600281146110e0576110fc565b6001915050611141565b60ff8411156110f1576110f1611179565b50506001821b611141565b5060208310610133831016604e8410600b841016171561111f575081810a611141565b611129838361105a565b806000190482111561113d5761113d611179565b0290505b92915050565b60008282101561115957611159611179565b500390565b600060001982141561117257611172611179565b5060010190565b634e487b7160e01b600052601160045260246000fd5b634e487b7160e01b600052603160045260246000fd5b634e487b7160e01b600052603260045260246000fdfe7472616e736665724f776e65727368697057697468486f774d616e793a206f77a2646970667358221220da89d21e8388e68eac1b4bd1d76867b4e5ae0dba5e9f9032ffe53b5d8674306964736f6c63430008060033",
  "linkReferences": {},
  "deployedLinkReferences": {}
}