{
  "_format": "hh-sol-artifact-1",
  "contractName": "Option",
  "sourceName": "contracts/investments/Option.sol",
  "abi": [
    {
      "anonymous": false,
      "inputs": [],
      "name": "Cancel",
      "type": "event"
    },
    {
      "anonymous": false,
      "inputs": [
        {
          "indexed": false,
          "internalType": "uint256",
          "name": "amount",
          "type": "uint256"
        }
      ],
      "name": "Claim",
      "type": "event"
    },
    {
      "anonymous": false,
      "inputs": [
        {
          "indexed": true,
          "internalType": "address",
          "name": "recipient",
          "type": "address"
        },
        {
          "indexed": false,
          "internalType": "uint256",
          "name": "amount",
          "type": "uint256"
        },
        {
          "indexed": false,
          "internalType": "uint256",
          "name": "start",
          "type": "uint256"
        },
        {
          "indexed": false,
          "internalType": "uint256",
          "name": "duration",
          "type": "uint256"
        }
      ],
      "name": "Distribute",
      "type": "event"
    },
    {
      "anonymous": false,
      "inputs": [
        {
          "indexed": true,
          "internalType": "address",
          "name": "owner",
          "type": "address"
        }
      ],
      "name": "Initialized",
      "type": "event"
    },
    {
      "inputs": [],
      "name": "admin",
      "outputs": [
        {
          "internalType": "address",
          "name": "",
          "type": "address"
        }
      ],
      "stateMutability": "view",
      "type": "function"
    },
    {
      "inputs": [
        {
          "internalType": "address",
          "name": "recipient",
          "type": "address"
        }
      ],
      "name": "cancel",
      "outputs": [],
      "stateMutability": "nonpayable",
      "type": "function"
    },
    {
      "inputs": [],
      "name": "claim",
      "outputs": [],
      "stateMutability": "nonpayable",
      "type": "function"
    },
    {
      "inputs": [
        {
          "internalType": "address",
          "name": "recipient",
          "type": "address"
        },
        {
          "internalType": "uint256",
          "name": "amount",
          "type": "uint256"
        },
        {
          "internalType": "uint256",
          "name": "start",
          "type": "uint256"
        },
        {
          "internalType": "uint256",
          "name": "duration",
          "type": "uint256"
        }
      ],
      "name": "distribute",
      "outputs": [],
      "stateMutability": "nonpayable",
      "type": "function"
    },
    {
      "inputs": [],
      "name": "earned",
      "outputs": [
        {
          "internalType": "uint256",
          "name": "",
          "type": "uint256"
        }
      ],
      "stateMutability": "view",
      "type": "function"
    },
    {
      "inputs": [
        {
          "internalType": "address",
          "name": "_admin",
          "type": "address"
        },
        {
          "internalType": "address",
          "name": "_token",
          "type": "address"
        },
        {
          "internalType": "address",
          "name": "_distributor",
          "type": "address"
        }
      ],
      "name": "init",
      "outputs": [],
      "stateMutability": "nonpayable",
      "type": "function"
    },
    {
      "inputs": [],
      "name": "initialized",
      "outputs": [
        {
          "internalType": "bool",
          "name": "",
          "type": "bool"
        }
      ],
      "stateMutability": "view",
      "type": "function"
    },
    {
      "inputs": [],
      "name": "lastClaim",
      "outputs": [
        {
          "internalType": "uint256",
          "name": "",
          "type": "uint256"
        }
      ],
      "stateMutability": "view",
      "type": "function"
    },
    {
      "inputs": [],
      "name": "lastTimeRewardApplicable",
      "outputs": [
        {
          "internalType": "uint256",
          "name": "",
          "type": "uint256"
        }
      ],
      "stateMutability": "view",
      "type": "function"
    },
    {
      "inputs": [],
      "name": "owner",
      "outputs": [
        {
          "internalType": "address",
          "name": "",
          "type": "address"
        }
      ],
      "stateMutability": "view",
      "type": "function"
    },
    {
      "inputs": [],
      "name": "periodFinish",
      "outputs": [
        {
          "internalType": "uint256",
          "name": "",
          "type": "uint256"
        }
      ],
      "stateMutability": "view",
      "type": "function"
    },
    {
      "inputs": [],
      "name": "periodStart",
      "outputs": [
        {
          "internalType": "uint256",
          "name": "",
          "type": "uint256"
        }
      ],
      "stateMutability": "view",
      "type": "function"
    },
    {
      "inputs": [],
      "name": "rate",
      "outputs": [
        {
          "internalType": "uint256",
          "name": "",
          "type": "uint256"
        }
      ],
      "stateMutability": "view",
      "type": "function"
    },
    {
      "inputs": [],
      "name": "token",
      "outputs": [
        {
          "internalType": "contract GovernanceToken",
          "name": "",
          "type": "address"
        }
      ],
      "stateMutability": "view",
      "type": "function"
    }
  ],
  "bytecode": "0x608060405234801561001057600080fd5b506001600055610e1c806100256000396000f3fe608060405234801561001057600080fd5b50600436106100ea5760003560e01c806399aba8e31161008c578063ebe2b12b11610066578063ebe2b12b146101b4578063eda4e6d6146101bd578063f851a440146101c6578063fc0c546a146101d957600080fd5b806399aba8e314610190578063a8adb564146101a3578063d6f19262146101ac57600080fd5b80634c33fe94116100c85780634c33fe941461013d5780634e71d92d1461015057806380faa57d146101585780638da5cb5b1461016057600080fd5b8063158ef93e146100ef578063184b9559146101115780632c4e722e14610126575b600080fd5b6001546100fc9060ff1681565b60405190151581526020015b60405180910390f35b61012461011f366004610c68565b6101ec565b005b61012f60065481565b604051908152602001610108565b61012461014b366004610c46565b6102d5565b610124610528565b61012f610729565b6001546101789061010090046001600160a01b031681565b6040516001600160a01b039091168152602001610108565b61012461019e366004610cab565b610775565b61012f60075481565b61012f610b50565b61012f60055481565b61012f60045481565b600254610178906001600160a01b031681565b600354610178906001600160a01b031681565b60015460ff16156102585760405162461bcd60e51b815260206004820152602b60248201527f56657374696e673a3a696e69743a20636f6e747261637420616c72656164792060448201526a1a5b9a5d1a585b1a5e995960aa1b60648201526084015b60405180910390fd5b60018054600280546001600160a01b038088166001600160a01b03199283161790925584821661010081026001600160a81b03199094169390931784179093556003805491861691909316179091556040517f908408e307fc569b417f6cbec5d5a06f44a0a505ac0479b47d421a4b2fd6a1e690600090a2505050565b60015460ff166102f75760405162461bcd60e51b815260040161024f90610d1f565b6002546001600160a01b031633146103515760405162461bcd60e51b815260206004820181905260248201527f56657374696e673a2063616c6c6572206973206e6f74207468652061646d696e604482015260640161024f565b60055443111561039c5760405162461bcd60e51b815260206004820152601660248201527515995cdd1a5b99ce8e98d85b98d95b0e88195b99195960521b604482015260640161024f565b6003546040516370a0823160e01b81523060048201526000916001600160a01b0316906370a082319060240160206040518083038186803b1580156103e057600080fd5b505afa1580156103f4573d6000803e3d6000fd5b505050506040513d601f19601f820116820180604052508101906104189190610d06565b9050600081116104745760405162461bcd60e51b815260206004820152602160248201527f56657374696e673a3a63616e63656c3a20616c72656164792063616e63656c656044820152601960fa1b606482015260840161024f565b60035460405163a9059cbb60e01b81526001600160a01b038481166004830152602482018490529091169063a9059cbb90604401602060405180830381600087803b1580156104c257600080fd5b505af11580156104d6573d6000803e3d6000fd5b505050506040513d601f19601f820116820180604052508101906104fa9190610ce4565b506040517f4aa8e773783771612c47fa512db50b9316d0863fd83c45829adfe92833d7d68b90600090a15050565b60015460ff1661054a5760405162461bcd60e51b815260040161024f90610d1f565b6002600054141561059d5760405162461bcd60e51b815260206004820152601f60248201527f5265656e7472616e637947756172643a207265656e7472616e742063616c6c00604482015260640161024f565b600260005560015461010090046001600160a01b031633146106015760405162461bcd60e51b815260206004820181905260248201527f56657374696e673a2063616c6c6572206973206e6f7420746865206f776e6572604482015260640161024f565b600061060b610b50565b9050600081116106555760405162461bcd60e51b815260206004820152601560248201527456657374696e673a3a636c61696d3a20656d70747960581b604482015260640161024f565b61065d610729565b60075560035460015460405163a9059cbb60e01b81526001600160a01b03610100909204821660048201526024810184905291169063a9059cbb90604401602060405180830381600087803b1580156106b557600080fd5b505af11580156106c9573d6000803e3d6000fd5b505050506040513d601f19601f820116820180604052508101906106ed9190610ce4565b506040518181527f7bb2b3c10797baccb6f8c4791f1edd6ca2f0d028ee0eda64b01a9a57e3a653f79060200160405180910390a1506001600055565b60015460009060ff1661074e5760405162461bcd60e51b815260040161024f90610d1f565b600454431161075e575060045490565b436005541161076e575060055490565b435b905090565b60015461010090046001600160a01b031633146107d45760405162461bcd60e51b815260206004820181905260248201527f56657374696e673a2063616c6c6572206973206e6f7420746865206f776e6572604482015260640161024f565b60015460ff166107f65760405162461bcd60e51b815260040161024f90610d1f565b6001600160a01b03841661085b5760405162461bcd60e51b815260206004820152602660248201527f56657374696e673a3a646973747269627574653a20696e76616c6964207265636044820152651a5c1a595b9d60d21b606482015260840161024f565b600083116108b75760405162461bcd60e51b815260206004820152602360248201527f56657374696e673a3a646973747269627574653a20696e76616c696420616d6f6044820152621d5b9d60ea1b606482015260840161024f565b438210156109125760405162461bcd60e51b815260206004820152602260248201527f56657374696e673a3a646973747269627574653a20696e76616c6964207374616044820152611c9d60f21b606482015260840161024f565b600081116109705760405162461bcd60e51b815260206004820152602560248201527f56657374696e673a3a646973747269627574653a20696e76616c69642064757260448201526430ba34b7b760d91b606482015260840161024f565b600554156109d15760405162461bcd60e51b815260206004820152602860248201527f56657374696e673a3a646973747269627574653a20616c7265616479206469736044820152671d1c9a589d5d195960c21b606482015260840161024f565b6003546040516323b872dd60e01b8152336004820152306024820152604481018590526001600160a01b03909116906323b872dd90606401602060405180830381600087803b158015610a2357600080fd5b505af1158015610a37573d6000803e3d6000fd5b505050506040513d601f19601f82011682018060405250810190610a5b9190610ce4565b5060018054610100600160a81b0319166101006001600160a01b03878116918202929092179092556003546040516317066a5760e21b815260048101939093521690635c19a95c90602401600060405180830381600087803b158015610ac057600080fd5b505af1158015610ad4573d6000803e3d6000fd5b505050508083610ae49190610d78565b6006556004829055610af68183610d60565b600555600782905560408051848152602081018490529081018290526001600160a01b038516907f899f4b1088197f1163efe7b38e0e7ce07a6b129dadf58829dd71fae27f1f23749060600160405180910390a250505050565b60015460009060ff16610b755760405162461bcd60e51b815260040161024f90610d1f565b6004544311610b845750600090565b6005544311610baf57600754610b98610729565b610ba29190610db9565b6006546107709190610d9a565b6003546040516370a0823160e01b81523060048201526001600160a01b03909116906370a082319060240160206040518083038186803b158015610bf257600080fd5b505afa158015610c06573d6000803e3d6000fd5b505050506040513d601f19601f820116820180604052508101906107709190610d06565b80356001600160a01b0381168114610c4157600080fd5b919050565b600060208284031215610c5857600080fd5b610c6182610c2a565b9392505050565b600080600060608486031215610c7d57600080fd5b610c8684610c2a565b9250610c9460208501610c2a565b9150610ca260408501610c2a565b90509250925092565b60008060008060808587031215610cc157600080fd5b610cca85610c2a565b966020860135965060408601359560600135945092505050565b600060208284031215610cf657600080fd5b81518015158114610c6157600080fd5b600060208284031215610d1857600080fd5b5051919050565b60208082526021908201527f56657374696e673a20636f6e7472616374206e6f7420696e697469616c697a656040820152601960fa1b606082015260800190565b60008219821115610d7357610d73610dd0565b500190565b600082610d9557634e487b7160e01b600052601260045260246000fd5b500490565b6000816000190483118215151615610db457610db4610dd0565b500290565b600082821015610dcb57610dcb610dd0565b500390565b634e487b7160e01b600052601160045260246000fdfea2646970667358221220a2c0906dee9a4ec0549903046ddea50712a93fe15b7cb6b1d9f12c628ac1b77664736f6c63430008060033",
  "linkReferences": {},
  "deployedLinkReferences": {}
}