{
  "_format": "hh-sol-artifact-1",
  "contractName": "Storage",
  "sourceName": "contracts/Storage.sol",
  "abi": [
    {
      "anonymous": false,
      "inputs": [
        {
          "indexed": true,
          "internalType": "address",
          "name": "previousOwner",
          "type": "address"
        },
        {
          "indexed": true,
          "internalType": "address",
          "name": "newOwner",
          "type": "address"
        }
      ],
      "name": "OwnershipTransferred",
      "type": "event"
    },
    {
      "anonymous": false,
      "inputs": [
        {
          "indexed": true,
          "internalType": "bytes32",
          "name": "key",
          "type": "bytes32"
        }
      ],
      "name": "Updated",
      "type": "event"
    },
    {
      "inputs": [
        {
          "internalType": "bytes32",
          "name": "key",
          "type": "bytes32"
        }
      ],
      "name": "deleteAddress",
      "outputs": [],
      "stateMutability": "nonpayable",
      "type": "function"
    },
    {
      "inputs": [
        {
          "internalType": "bytes32",
          "name": "key",
          "type": "bytes32"
        }
      ],
      "name": "deleteBool",
      "outputs": [],
      "stateMutability": "nonpayable",
      "type": "function"
    },
    {
      "inputs": [
        {
          "internalType": "bytes32",
          "name": "key",
          "type": "bytes32"
        }
      ],
      "name": "deleteBytes",
      "outputs": [],
      "stateMutability": "nonpayable",
      "type": "function"
    },
    {
      "inputs": [
        {
          "internalType": "bytes32",
          "name": "key",
          "type": "bytes32"
        }
      ],
      "name": "deleteInt",
      "outputs": [],
      "stateMutability": "nonpayable",
      "type": "function"
    },
    {
      "inputs": [
        {
          "internalType": "bytes32",
          "name": "key",
          "type": "bytes32"
        }
      ],
      "name": "deleteString",
      "outputs": [],
      "stateMutability": "nonpayable",
      "type": "function"
    },
    {
      "inputs": [
        {
          "internalType": "bytes32",
          "name": "key",
          "type": "bytes32"
        }
      ],
      "name": "deleteUint",
      "outputs": [],
      "stateMutability": "nonpayable",
      "type": "function"
    },
    {
      "inputs": [
        {
          "internalType": "bytes32",
          "name": "key",
          "type": "bytes32"
        }
      ],
      "name": "getAddress",
      "outputs": [
        {
          "internalType": "address",
          "name": "",
          "type": "address"
        }
      ],
      "stateMutability": "view",
      "type": "function"
    },
    {
      "inputs": [
        {
          "internalType": "bytes32",
          "name": "key",
          "type": "bytes32"
        }
      ],
      "name": "getBool",
      "outputs": [
        {
          "internalType": "bool",
          "name": "",
          "type": "bool"
        }
      ],
      "stateMutability": "view",
      "type": "function"
    },
    {
      "inputs": [
        {
          "internalType": "bytes32",
          "name": "key",
          "type": "bytes32"
        }
      ],
      "name": "getBytes",
      "outputs": [
        {
          "internalType": "bytes",
          "name": "",
          "type": "bytes"
        }
      ],
      "stateMutability": "view",
      "type": "function"
    },
    {
      "inputs": [
        {
          "internalType": "bytes32",
          "name": "key",
          "type": "bytes32"
        }
      ],
      "name": "getInt",
      "outputs": [
        {
          "internalType": "int256",
          "name": "",
          "type": "int256"
        }
      ],
      "stateMutability": "view",
      "type": "function"
    },
    {
      "inputs": [
        {
          "internalType": "bytes32",
          "name": "key",
          "type": "bytes32"
        }
      ],
      "name": "getString",
      "outputs": [
        {
          "internalType": "string",
          "name": "",
          "type": "string"
        }
      ],
      "stateMutability": "view",
      "type": "function"
    },
    {
      "inputs": [
        {
          "internalType": "bytes32",
          "name": "key",
          "type": "bytes32"
        }
      ],
      "name": "getUint",
      "outputs": [
        {
          "internalType": "uint256",
          "name": "",
          "type": "uint256"
        }
      ],
      "stateMutability": "view",
      "type": "function"
    },
    {
      "inputs": [],
      "name": "owner",
      "outputs": [
        {
          "internalType": "address",
          "name": "",
          "type": "address"
        }
      ],
      "stateMutability": "view",
      "type": "function"
    },
    {
      "inputs": [],
      "name": "renounceOwnership",
      "outputs": [],
      "stateMutability": "nonpayable",
      "type": "function"
    },
    {
      "inputs": [
        {
          "internalType": "bytes32",
          "name": "key",
          "type": "bytes32"
        },
        {
          "internalType": "address",
          "name": "value",
          "type": "address"
        }
      ],
      "name": "setAddress",
      "outputs": [],
      "stateMutability": "nonpayable",
      "type": "function"
    },
    {
      "inputs": [
        {
          "internalType": "bytes32",
          "name": "key",
          "type": "bytes32"
        },
        {
          "internalType": "bool",
          "name": "value",
          "type": "bool"
        }
      ],
      "name": "setBool",
      "outputs": [],
      "stateMutability": "nonpayable",
      "type": "function"
    },
    {
      "inputs": [
        {
          "internalType": "bytes32",
          "name": "key",
          "type": "bytes32"
        },
        {
          "internalType": "bytes",
          "name": "value",
          "type": "bytes"
        }
      ],
      "name": "setBytes",
      "outputs": [],
      "stateMutability": "nonpayable",
      "type": "function"
    },
    {
      "inputs": [
        {
          "internalType": "bytes32",
          "name": "key",
          "type": "bytes32"
        },
        {
          "internalType": "int256",
          "name": "value",
          "type": "int256"
        }
      ],
      "name": "setInt",
      "outputs": [],
      "stateMutability": "nonpayable",
      "type": "function"
    },
    {
      "inputs": [
        {
          "internalType": "bytes32",
          "name": "key",
          "type": "bytes32"
        },
        {
          "internalType": "string",
          "name": "value",
          "type": "string"
        }
      ],
      "name": "setString",
      "outputs": [],
      "stateMutability": "nonpayable",
      "type": "function"
    },
    {
      "inputs": [
        {
          "internalType": "bytes32",
          "name": "key",
          "type": "bytes32"
        },
        {
          "internalType": "uint256",
          "name": "value",
          "type": "uint256"
        }
      ],
      "name": "setUint",
      "outputs": [],
      "stateMutability": "nonpayable",
      "type": "function"
    },
    {
      "inputs": [
        {
          "internalType": "address",
          "name": "newOwner",
          "type": "address"
        }
      ],
      "name": "transferOwnership",
      "outputs": [],
      "stateMutability": "nonpayable",
      "type": "function"
    }
  ],
  "bytecode": "0x608060405234801561001057600080fd5b5061001a3361001f565b61006f565b600080546001600160a01b038381166001600160a01b0319831681178455604051919092169283917f8be0079c531659141344cd1fd0a4f28419497f9722a3daafe3b4186f6b6457e09190a35050565b610ae88061007e6000396000f3fe608060405234801561001057600080fd5b50600436106101375760003560e01c80638da5cb5b116100b8578063ca446dd91161007c578063ca446dd9146102c9578063dc97d962146102dc578063e2a4853a146102fc578063e2b202bf1461030f578063f2fde38b14610322578063f6bb3cc41461033557600080fd5b80638da5cb5b14610244578063986e791a14610255578063abfdcced14610275578063bd02d0f514610288578063c031a180146102b657600080fd5b8063616b59f6116100ff578063616b59f6146101d05780636e899550146101e3578063715018a6146101f65780637ae1cfca146101fe5780638c1600951461023157600080fd5b80630e14a3761461013c57806321f8a721146101515780632c62ff2d146101975780632e28d084146101aa5780633e49bed0146101bd575b600080fd5b61014f61014a36600461090f565b610348565b005b61017a61015f36600461090f565b6000908152600560205260409020546001600160a01b031690565b6040516001600160a01b0390911681526020015b60405180910390f35b61014f6101a536600461090f565b610384565b61014f6101b8366004610989565b6103ba565b61014f6101cb3660046109d5565b6103fa565b61014f6101de36600461090f565b61042c565b61014f6101f1366004610989565b610467565b61014f610488565b61022161020c36600461090f565b60009081526002602052604090205460ff1690565b604051901515815260200161018e565b61014f61023f36600461090f565b61049c565b6000546001600160a01b031661017a565b61026861026336600461090f565b6104cd565b60405161018e9190610a44565b61014f610283366004610954565b61056f565b6102a861029636600461090f565b60009081526003602052604090205490565b60405190815260200161018e565b6102686102c436600461090f565b6105aa565b61014f6102d7366004610928565b6105c7565b6102a86102ea36600461090f565b60009081526004602052604090205490565b61014f61030a3660046109d5565b61060f565b61014f61031d36600461090f565b610641565b61014f6103303660046108ed565b610672565b61014f61034336600461090f565b6106f0565b61035061070f565b60008181526005602052604080822080546001600160a01b0319169055518291600080516020610a9383398151915291a250565b61038c61070f565b600081815260026020526040808220805460ff19169055518291600080516020610a9383398151915291a250565b6103c261070f565b60008381526001602052604090206103db9083836107b9565b506040518390600080516020610a9383398151915290600090a2505050565b61040261070f565b600082815260046020526040808220839055518391600080516020610a9383398151915291a25050565b61043461070f565b600081815260016020526040812061044b9161083d565b6040518190600080516020610a9383398151915290600090a250565b61046f61070f565b60008381526006602052604090206103db9083836107b9565b61049061070f565b61049a6000610769565b565b6104a461070f565b600081815260046020526040808220829055518291600080516020610a9383398151915291a250565b60008181526006602052604090208054606091906104ea90610a57565b80601f016020809104026020016040519081016040528092919081815260200182805461051690610a57565b80156105635780601f1061053857610100808354040283529160200191610563565b820191906000526020600020905b81548152906001019060200180831161054657829003601f168201915b50505050509050919050565b61057761070f565b600082815260026020526040808220805460ff1916841515179055518391600080516020610a9383398151915291a25050565b60008181526001602052604090208054606091906104ea90610a57565b6105cf61070f565b60008281526005602052604080822080546001600160a01b0319166001600160a01b038516179055518391600080516020610a9383398151915291a25050565b61061761070f565b600082815260036020526040808220839055518391600080516020610a9383398151915291a25050565b61064961070f565b600081815260036020526040808220829055518291600080516020610a9383398151915291a250565b61067a61070f565b6001600160a01b0381166106e45760405162461bcd60e51b815260206004820152602660248201527f4f776e61626c653a206e6577206f776e657220697320746865207a65726f206160448201526564647265737360d01b60648201526084015b60405180910390fd5b6106ed81610769565b50565b6106f861070f565b600081815260066020526040812061044b9161083d565b6000546001600160a01b0316331461049a5760405162461bcd60e51b815260206004820181905260248201527f4f776e61626c653a2063616c6c6572206973206e6f7420746865206f776e657260448201526064016106db565b600080546001600160a01b038381166001600160a01b0319831681178455604051919092169283917f8be0079c531659141344cd1fd0a4f28419497f9722a3daafe3b4186f6b6457e09190a35050565b8280546107c590610a57565b90600052602060002090601f0160209004810192826107e7576000855561082d565b82601f106108005782800160ff1982351617855561082d565b8280016001018555821561082d579182015b8281111561082d578235825591602001919060010190610812565b50610839929150610873565b5090565b50805461084990610a57565b6000825580601f10610859575050565b601f0160209004906000526020600020908101906106ed91905b5b808211156108395760008155600101610874565b80356001600160a01b038116811461089f57600080fd5b919050565b60008083601f8401126108b657600080fd5b50813567ffffffffffffffff8111156108ce57600080fd5b6020830191508360208285010111156108e657600080fd5b9250929050565b6000602082840312156108ff57600080fd5b61090882610888565b9392505050565b60006020828403121561092157600080fd5b5035919050565b6000806040838503121561093b57600080fd5b8235915061094b60208401610888565b90509250929050565b6000806040838503121561096757600080fd5b823591506020830135801515811461097e57600080fd5b809150509250929050565b60008060006040848603121561099e57600080fd5b83359250602084013567ffffffffffffffff8111156109bc57600080fd5b6109c8868287016108a4565b9497909650939450505050565b600080604083850312156109e857600080fd5b50508035926020909101359150565b6000815180845260005b81811015610a1d57602081850181015186830182015201610a01565b81811115610a2f576000602083870101525b50601f01601f19169290920160200192915050565b60208152600061090860208301846109f7565b600181811c90821680610a6b57607f821691505b60208210811415610a8c57634e487b7160e01b600052602260045260246000fd5b5091905056feae7f59c2ef152eb4d4f56fcc655f53926d60b7e58e08ec8c79387e25adbf3331a26469706673582212208d83c9d273e8a960827cd47ec5ae8ef2f30bc45d22979e0c0c6ad0bb50a6fe3864736f6c63430008060033",
  "linkReferences": {},
  "deployedLinkReferences": {}
}