{
  "_format": "hh-sol-artifact-1",
  "contractName": "GovernanceToken",
  "sourceName": "contracts/governance/GovernanceToken.sol",
  "abi": [
    {
      "inputs": [
        {
          "internalType": "address",
          "name": "account",
          "type": "address"
        }
      ],
      "stateMutability": "nonpayable",
      "type": "constructor"
    },
    {
      "anonymous": false,
      "inputs": [
        {
          "indexed": true,
          "internalType": "address",
          "name": "owner",
          "type": "address"
        },
        {
          "indexed": true,
          "internalType": "address",
          "name": "spender",
          "type": "address"
        },
        {
          "indexed": false,
          "internalType": "uint256",
          "name": "amount",
          "type": "uint256"
        }
      ],
      "name": "Approval",
      "type": "event"
    },
    {
      "anonymous": false,
      "inputs": [
        {
          "indexed": true,
          "internalType": "address",
          "name": "delegator",
          "type": "address"
        },
        {
          "indexed": true,
          "internalType": "address",
          "name": "fromDelegate",
          "type": "address"
        },
        {
          "indexed": true,
          "internalType": "address",
          "name": "toDelegate",
          "type": "address"
        }
      ],
      "name": "DelegateChanged",
      "type": "event"
    },
    {
      "anonymous": false,
      "inputs": [
        {
          "indexed": true,
          "internalType": "address",
          "name": "delegate",
          "type": "address"
        },
        {
          "indexed": false,
          "internalType": "uint256",
          "name": "previousBalance",
          "type": "uint256"
        },
        {
          "indexed": false,
          "internalType": "uint256",
          "name": "newBalance",
          "type": "uint256"
        }
      ],
      "name": "DelegateVotesChanged",
      "type": "event"
    },
    {
      "anonymous": false,
      "inputs": [
        {
          "indexed": true,
          "internalType": "address",
          "name": "previousOwner",
          "type": "address"
        },
        {
          "indexed": true,
          "internalType": "address",
          "name": "newOwner",
          "type": "address"
        }
      ],
      "name": "OwnershipTransferred",
      "type": "event"
    },
    {
      "anonymous": false,
      "inputs": [
        {
          "indexed": true,
          "internalType": "address",
          "name": "from",
          "type": "address"
        },
        {
          "indexed": true,
          "internalType": "address",
          "name": "to",
          "type": "address"
        },
        {
          "indexed": false,
          "internalType": "uint256",
          "name": "amount",
          "type": "uint256"
        }
      ],
      "name": "Transfer",
      "type": "event"
    },
    {
      "inputs": [],
      "name": "DELEGATION_TYPEHASH",
      "outputs": [
        {
          "internalType": "bytes32",
          "name": "",
          "type": "bytes32"
        }
      ],
      "stateMutability": "view",
      "type": "function"
    },
    {
      "inputs": [],
      "name": "DOMAIN_TYPEHASH",
      "outputs": [
        {
          "internalType": "bytes32",
          "name": "",
          "type": "bytes32"
        }
      ],
      "stateMutability": "view",
      "type": "function"
    },
    {
      "inputs": [
        {
          "internalType": "address",
          "name": "account",
          "type": "address"
        },
        {
          "internalType": "address",
          "name": "spender",
          "type": "address"
        }
      ],
      "name": "allowance",
      "outputs": [
        {
          "internalType": "uint256",
          "name": "",
          "type": "uint256"
        }
      ],
      "stateMutability": "view",
      "type": "function"
    },
    {
      "inputs": [
        {
          "internalType": "address",
          "name": "spender",
          "type": "address"
        },
        {
          "internalType": "uint256",
          "name": "rawAmount",
          "type": "uint256"
        }
      ],
      "name": "approve",
      "outputs": [
        {
          "internalType": "bool",
          "name": "",
          "type": "bool"
        }
      ],
      "stateMutability": "nonpayable",
      "type": "function"
    },
    {
      "inputs": [
        {
          "internalType": "address",
          "name": "account",
          "type": "address"
        }
      ],
      "name": "balanceOf",
      "outputs": [
        {
          "internalType": "uint256",
          "name": "",
          "type": "uint256"
        }
      ],
      "stateMutability": "view",
      "type": "function"
    },
    {
      "inputs": [
        {
          "internalType": "address",
          "name": "account",
          "type": "address"
        },
        {
          "internalType": "uint256",
          "name": "amount",
          "type": "uint256"
        }
      ],
      "name": "burn",
      "outputs": [],
      "stateMutability": "nonpayable",
      "type": "function"
    },
    {
      "inputs": [
        {
          "internalType": "address",
          "name": "",
          "type": "address"
        },
        {
          "internalType": "uint32",
          "name": "",
          "type": "uint32"
        }
      ],
      "name": "checkpoints",
      "outputs": [
        {
          "internalType": "uint32",
          "name": "fromBlock",
          "type": "uint32"
        },
        {
          "internalType": "uint96",
          "name": "votes",
          "type": "uint96"
        }
      ],
      "stateMutability": "view",
      "type": "function"
    },
    {
      "inputs": [],
      "name": "decimals",
      "outputs": [
        {
          "internalType": "uint8",
          "name": "",
          "type": "uint8"
        }
      ],
      "stateMutability": "view",
      "type": "function"
    },
    {
      "inputs": [
        {
          "internalType": "address",
          "name": "delegatee",
          "type": "address"
        }
      ],
      "name": "delegate",
      "outputs": [],
      "stateMutability": "nonpayable",
      "type": "function"
    },
    {
      "inputs": [
        {
          "internalType": "address",
          "name": "delegatee",
          "type": "address"
        },
        {
          "internalType": "uint256",
          "name": "nonce",
          "type": "uint256"
        },
        {
          "internalType": "uint256",
          "name": "expiry",
          "type": "uint256"
        },
        {
          "internalType": "uint8",
          "name": "v",
          "type": "uint8"
        },
        {
          "internalType": "bytes32",
          "name": "r",
          "type": "bytes32"
        },
        {
          "internalType": "bytes32",
          "name": "s",
          "type": "bytes32"
        }
      ],
      "name": "delegateBySig",
      "outputs": [],
      "stateMutability": "nonpayable",
      "type": "function"
    },
    {
      "inputs": [
        {
          "internalType": "address",
          "name": "",
          "type": "address"
        }
      ],
      "name": "delegates",
      "outputs": [
        {
          "internalType": "address",
          "name": "",
          "type": "address"
        }
      ],
      "stateMutability": "view",
      "type": "function"
    },
    {
      "inputs": [
        {
          "internalType": "address",
          "name": "account",
          "type": "address"
        }
      ],
      "name": "getCurrentVotes",
      "outputs": [
        {
          "internalType": "uint96",
          "name": "",
          "type": "uint96"
        }
      ],
      "stateMutability": "view",
      "type": "function"
    },
    {
      "inputs": [
        {
          "internalType": "address",
          "name": "account",
          "type": "address"
        },
        {
          "internalType": "uint256",
          "name": "blockNumber",
          "type": "uint256"
        }
      ],
      "name": "getPriorVotes",
      "outputs": [
        {
          "internalType": "uint96",
          "name": "",
          "type": "uint96"
        }
      ],
      "stateMutability": "view",
      "type": "function"
    },
    {
      "inputs": [
        {
          "internalType": "address",
          "name": "account",
          "type": "address"
        },
        {
          "internalType": "uint256",
          "name": "amount",
          "type": "uint256"
        }
      ],
      "name": "mint",
      "outputs": [],
      "stateMutability": "nonpayable",
      "type": "function"
    },
    {
      "inputs": [],
      "name": "name",
      "outputs": [
        {
          "internalType": "string",
          "name": "",
          "type": "string"
        }
      ],
      "stateMutability": "view",
      "type": "function"
    },
    {
      "inputs": [
        {
          "internalType": "address",
          "name": "",
          "type": "address"
        }
      ],
      "name": "nonces",
      "outputs": [
        {
          "internalType": "uint256",
          "name": "",
          "type": "uint256"
        }
      ],
      "stateMutability": "view",
      "type": "function"
    },
    {
      "inputs": [
        {
          "internalType": "address",
          "name": "",
          "type": "address"
        }
      ],
      "name": "numCheckpoints",
      "outputs": [
        {
          "internalType": "uint32",
          "name": "",
          "type": "uint32"
        }
      ],
      "stateMutability": "view",
      "type": "function"
    },
    {
      "inputs": [],
      "name": "owner",
      "outputs": [
        {
          "internalType": "address",
          "name": "",
          "type": "address"
        }
      ],
      "stateMutability": "view",
      "type": "function"
    },
    {
      "inputs": [],
      "name": "renounceOwnership",
      "outputs": [],
      "stateMutability": "nonpayable",
      "type": "function"
    },
    {
      "inputs": [],
      "name": "symbol",
      "outputs": [
        {
          "internalType": "string",
          "name": "",
          "type": "string"
        }
      ],
      "stateMutability": "view",
      "type": "function"
    },
    {
      "inputs": [],
      "name": "totalSupply",
      "outputs": [
        {
          "internalType": "uint256",
          "name": "",
          "type": "uint256"
        }
      ],
      "stateMutability": "view",
      "type": "function"
    },
    {
      "inputs": [
        {
          "internalType": "address",
          "name": "dst",
          "type": "address"
        },
        {
          "internalType": "uint256",
          "name": "rawAmount",
          "type": "uint256"
        }
      ],
      "name": "transfer",
      "outputs": [
        {
          "internalType": "bool",
          "name": "",
          "type": "bool"
        }
      ],
      "stateMutability": "nonpayable",
      "type": "function"
    },
    {
      "inputs": [
        {
          "internalType": "address",
          "name": "src",
          "type": "address"
        },
        {
          "internalType": "address",
          "name": "dst",
          "type": "address"
        },
        {
          "internalType": "uint256",
          "name": "rawAmount",
          "type": "uint256"
        }
      ],
      "name": "transferFrom",
      "outputs": [
        {
          "internalType": "bool",
          "name": "",
          "type": "bool"
        }
      ],
      "stateMutability": "nonpayable",
      "type": "function"
    },
    {
      "inputs": [
        {
          "internalType": "address",
          "name": "newOwner",
          "type": "address"
        }
      ],
      "name": "transferOwnership",
      "outputs": [],
      "stateMutability": "nonpayable",
      "type": "function"
    }
  ],
  "bytecode": "0x60806040526b033b2e3c9fd0803ce800000060015534801561002057600080fd5b50604051620020203803806200202083398101604081905261004191610113565b61004a336100c3565b600180546001600160a01b038316600081815260036020908152604080832080546001600160601b0319166001600160601b039096169590951790945593549251928352909290917fddf252ad1be2c89b69c2b068fc378daa952ba7f163c4a11628f55a4df523b3ef910160405180910390a350610143565b600080546001600160a01b038381166001600160a01b0319831681178455604051919092169283917f8be0079c531659141344cd1fd0a4f28419497f9722a3daafe3b4186f6b6457e09190a35050565b60006020828403121561012557600080fd5b81516001600160a01b038116811461013c57600080fd5b9392505050565b611ecd80620001536000396000f3fe608060405234801561001057600080fd5b50600436106101585760003560e01c8063782d6fe1116100c3578063b4b5ea571161007c578063b4b5ea57146103bf578063c3cda520146103d2578063dd62ed3e146103e5578063e7a324dc14610427578063f1127ed81461044e578063f2fde38b146104b557600080fd5b8063782d6fe11461031b5780637ecebe00146103465780638da5cb5b1461036657806395d89b41146103775780639dc29fac14610399578063a9059cbb146103ac57600080fd5b806340c10f191161011557806340c10f191461023d578063587cde1e146102525780635c19a95c146102935780636fcfff45146102a657806370a08231146102e1578063715018a61461031357600080fd5b806306fdde031461015d578063095ea7b3146101af57806318160ddd146101d257806320606b70146101e957806323b872dd14610210578063313ce56714610223575b600080fd5b6101996040518060400160405280601b81526020017f4465466948656c70657220476f7665726e616e636520546f6b656e000000000081525081565b6040516101a69190611a9d565b60405180910390f35b6101c26101bd3660046119d3565b6104c8565b60405190151581526020016101a6565b6101db60015481565b6040519081526020016101a6565b6101db7f8cad95687ba82c2ce50e74f7b754645e5117c3a5bec8151c0726d5857980a86681565b6101c261021e366004611997565b610589565b61022b601281565b60405160ff90911681526020016101a6565b61025061024b3660046119d3565b6106d5565b005b61027b610260366004611949565b6004602052600090815260409020546001600160a01b031681565b6040516001600160a01b0390911681526020016101a6565b6102506102a1366004611949565b6106eb565b6102cc6102b4366004611949565b60066020526000908152604090205463ffffffff1681565b60405163ffffffff90911681526020016101a6565b6101db6102ef366004611949565b6001600160a01b03166000908152600360205260409020546001600160601b031690565b6102506106f8565b61032e6103293660046119d3565b61070c565b6040516001600160601b0390911681526020016101a6565b6101db610354366004611949565b60076020526000908152604090205481565b6000546001600160a01b031661027b565b610199604051806040016040528060038152602001620888c960eb1b81525081565b6102506103a73660046119d3565b6109a3565b6101c26103ba3660046119d3565b6109b5565b61032e6103cd366004611949565b6109f1565b6102506103e03660046119fd565b610a6f565b6101db6103f3366004611964565b6001600160a01b0391821660009081526002602090815260408083209390941682529190915220546001600160601b031690565b6101db7fe48329057bfd03d55e49b547132e39cffd9c1820ad7b9d4c5307691425d15adf81565b61049161045c366004611a5d565b600560209081526000928352604080842090915290825290205463ffffffff811690600160201b90046001600160601b031682565b6040805163ffffffff90931683526001600160601b039091166020830152016101a6565b6102506104c3366004611949565b610d91565b6000808260001914156104e357506001600160601b03610508565b61050583604051806060016040528060308152602001611db160309139610e07565b90505b3360008181526002602090815260408083206001600160a01b0389168085529083529281902080546001600160601b0319166001600160601b03871690811790915590519081529192917f8c5be1e5ebec7d5bd14f71427d1e84f3dd0314c0f7b2291e5b200ac8c7c3b925910160405180910390a360019150505b92915050565b6001600160a01b03831660009081526002602090815260408083203380855290835281842054825160608101909352603080845291936001600160601b039091169285926105e19288929190611db190830139610e07565b9050866001600160a01b0316836001600160a01b0316141580156106155750816001600160601b03166001600160601b0314155b156106bd57600061063f8383604051806080016040528060488152602001611de160489139610e36565b6001600160a01b038981166000818152600260209081526040808320948a168084529482529182902080546001600160601b0319166001600160601b0387169081179091559151918252939450919290917f8c5be1e5ebec7d5bd14f71427d1e84f3dd0314c0f7b2291e5b200ac8c7c3b925910160405180910390a3505b6106c8878783610e80565b5060019695505050505050565b6106dd6110ef565b6106e78282611149565b5050565b6106f533826112b9565b50565b6107006110ef565b61070a6000611343565b565b600043821061077d5760405162461bcd60e51b815260206004820152603260248201527f476f7665726e616e6365546f6b656e3a3a6765745072696f72566f7465733a206044820152711b9bdd081e595d0819195d195c9b5a5b995960721b60648201526084015b60405180910390fd5b6001600160a01b03831660009081526006602052604090205463ffffffff16806107ab576000915050610583565b6001600160a01b038416600090815260056020526040812084916107d0600185611b9c565b63ffffffff90811682526020820192909252604001600020541611610843576001600160a01b038416600090815260056020526040812090610813600184611b9c565b63ffffffff168152602081019190915260400160002054600160201b90046001600160601b031691506105839050565b6001600160a01b038416600090815260056020908152604080832083805290915290205463ffffffff1683101561087e576000915050610583565b60008061088c600184611b9c565b90505b8163ffffffff168163ffffffff16111561095e57600060026108b18484611b9c565b6108bb9190611b54565b6108c59083611b9c565b6001600160a01b038816600090815260056020908152604080832063ffffffff858116855290835292819020815180830190925254928316808252600160201b9093046001600160601b031691810191909152919250871415610932576020015194506105839350505050565b805163ffffffff1687111561094957819350610957565b610954600183611b9c565b92505b505061088f565b506001600160a01b038516600090815260056020908152604080832063ffffffff909416835292905220546001600160601b03600160201b9091041691505092915050565b6109ab6110ef565b6106e78282611393565b6000806109da83604051806060016040528060318152602001611d8060319139610e07565b90506109e7338583610e80565b5060019392505050565b6001600160a01b03811660009081526006602052604081205463ffffffff1680610a1c576000610a68565b6001600160a01b038316600090815260056020526040812090610a40600184611b9c565b63ffffffff168152602081019190915260400160002054600160201b90046001600160601b03165b9392505050565b604080518082018252601b81527f4465466948656c70657220476f7665726e616e636520546f6b656e000000000060209182015281517f8cad95687ba82c2ce50e74f7b754645e5117c3a5bec8151c0726d5857980a866818301527fd7c8c6107487837a1771c108a0a2a705c25f429fa16bc096355ca3ce9077c90881840152466060820152306080808301919091528351808303909101815260a0820184528051908301207fe48329057bfd03d55e49b547132e39cffd9c1820ad7b9d4c5307691425d15adf60c08301526001600160a01b038a1660e083015261010082018990526101208083018990528451808403909101815261014083019094528351939092019290922061190160f01b6101608401526101628301829052610182830181905290916000906101a20160408051601f198184030181528282528051602091820120600080855291840180845281905260ff8a169284019290925260608301889052608083018790529092509060019060a0016020604051602081039080840390855afa158015610c07573d6000803e3d6000fd5b5050604051601f1901519150506001600160a01b038116610c845760405162461bcd60e51b815260206004820152603160248201527f476f7665726e616e6365546f6b656e3a3a64656c656761746542795369673a20604482015270696e76616c6964207369676e617475726560781b6064820152608401610774565b6001600160a01b0381166000908152600760205260408120805491610ca883611be1565b919050558914610d105760405162461bcd60e51b815260206004820152602d60248201527f476f7665726e616e6365546f6b656e3a3a64656c656761746542795369673a2060448201526c696e76616c6964206e6f6e636560981b6064820152608401610774565b87421115610d7a5760405162461bcd60e51b815260206004820152603160248201527f476f7665726e616e6365546f6b656e3a3a64656c656761746542795369673a206044820152701cda59db985d1d5c9948195e1c1a5c9959607a1b6064820152608401610774565b610d84818b6112b9565b505050505b505050505050565b610d996110ef565b6001600160a01b038116610dfe5760405162461bcd60e51b815260206004820152602660248201527f4f776e61626c653a206e6577206f776e657220697320746865207a65726f206160448201526564647265737360d01b6064820152608401610774565b6106f581611343565b600081600160601b8410610e2e5760405162461bcd60e51b81526004016107749190611a9d565b509192915050565b6000836001600160601b0316836001600160601b031611158290610e6d5760405162461bcd60e51b81526004016107749190611a9d565b50610e788385611bc1565b949350505050565b6001600160a01b038316610f0c5760405162461bcd60e51b815260206004820152604760248201527f476f7665726e616e6365546f6b656e3a3a5f7472616e73666572546f6b656e7360448201527f3a2063616e6e6f74207472616e736665722066726f6d20746865207a65726f206064820152666164647265737360c81b608482015260a401610774565b6001600160a01b038216610f965760405162461bcd60e51b815260206004820152604560248201527f476f7665726e616e6365546f6b656e3a3a5f7472616e73666572546f6b656e7360448201527f3a2063616e6e6f74207472616e7366657220746f20746865207a65726f206164606482015264647265737360d81b608482015260a401610774565b6001600160a01b038316600090815260036020908152604091829020548251608081019093526041808452610fe1936001600160601b039092169285929190611e5790830139610e36565b6001600160a01b03848116600090815260036020908152604080832080546001600160601b0319166001600160601b0396871617905592861682529082902054825160608101909352603b8084526110499491909116928592909190611c8490830139611519565b6001600160a01b0383811660008181526003602090815260409182902080546001600160601b0319166001600160601b03968716179055905193851684529092918616917fddf252ad1be2c89b69c2b068fc378daa952ba7f163c4a11628f55a4df523b3ef910160405180910390a36001600160a01b038084166000908152600460205260408082205485841683529120546110ea92918216911683611566565b505050565b6000546001600160a01b0316331461070a5760405162461bcd60e51b815260206004820181905260248201527f4f776e61626c653a2063616c6c6572206973206e6f7420746865206f776e65726044820152606401610774565b6001600160a01b0382166111b85760405162461bcd60e51b815260206004820152603060248201527f476f7665726e616e6365546f6b656e3a3a5f6d696e743a206d696e7420746f2060448201526f746865207a65726f206164647265737360801b6064820152608401610774565b60006111dc826040518060600160405280602e8152602001611e29602e9139610e07565b9050806001600160601b0316600160008282546111f99190611af2565b90915550506001600160a01b03831660009081526003602090815260409182902054825160608101909352602d808452611249936001600160601b039092169285929190611cbf90830139611519565b6001600160a01b038416600081815260036020908152604080832080546001600160601b0319166001600160601b03968716179055519385168452919290917fddf252ad1be2c89b69c2b068fc378daa952ba7f163c4a11628f55a4df523b3ef91015b60405180910390a3505050565b6001600160a01b03808316600081815260046020818152604080842080546003845282862054949093528787166001600160a01b031984168117909155905191909516946001600160601b039092169391928592917f3134e8a2e6d97e929a7e54011ea5485d7d196dd5f0ba4d4ef95803e8e3fc257f9190a461133d828483611566565b50505050565b600080546001600160a01b038381166001600160a01b0319831681178455604051919092169283917f8be0079c531659141344cd1fd0a4f28419497f9722a3daafe3b4186f6b6457e09190a35050565b6001600160a01b0382166114045760405162461bcd60e51b815260206004820152603260248201527f476f7665726e616e6365546f6b656e3a3a5f6275726e3a206275726e2066726f6044820152716d20746865207a65726f206164647265737360701b6064820152608401610774565b6000611428826040518060600160405280602e8152602001611d1f602e9139610e07565b905061148560036000856001600160a01b03166001600160a01b0316815260200190815260200160002060009054906101000a90046001600160601b031682604051806060016040528060338152602001611d4d60339139610e36565b6001600160a01b038416600090815260036020526040812080546001600160601b0319166001600160601b0393841617905560018054928416929091906114cd908490611b85565b90915550506040516001600160601b03821681526000906001600160a01b038516907fddf252ad1be2c89b69c2b068fc378daa952ba7f163c4a11628f55a4df523b3ef906020016112ac565b6000806115268486611b32565b9050846001600160601b0316816001600160601b03161015839061155d5760405162461bcd60e51b81526004016107749190611a9d565b50949350505050565b816001600160a01b0316836001600160a01b03161415801561159157506000816001600160601b0316115b156110ea576001600160a01b03831615611656576001600160a01b03831660009081526006602052604081205463ffffffff1690816115d157600061161d565b6001600160a01b0385166000908152600560205260408120906115f5600185611b9c565b63ffffffff168152602081019190915260400160002054600160201b90046001600160601b03165b905060006116448285604051806060016040528060338152602001611cec60339139610e36565b90506116528684848461170e565b5050505b6001600160a01b038216156110ea576001600160a01b03821660009081526006602052604081205463ffffffff1690816116915760006116dd565b6001600160a01b0384166000908152600560205260408120906116b5600185611b9c565b63ffffffff168152602081019190915260400160002054600160201b90046001600160601b03165b905060006117048285604051806060016040528060328152602001611c5260329139611519565b9050610d89858484845b6000611732436040518060600160405280603f8152602001611c13603f9139611906565b905060008463ffffffff1611801561178c57506001600160a01b038516600090815260056020526040812063ffffffff831691611770600188611b9c565b63ffffffff908116825260208201929092526040016000205416145b15611800576001600160a01b038516600090815260056020526040812083916117b6600188611b9c565b63ffffffff168152602081019190915260400160002080546001600160601b0392909216600160201b026fffffffffffffffffffffffff00000000199092169190911790556118b1565b60408051808201825263ffffffff80841682526001600160601b0380861660208085019182526001600160a01b038b166000908152600582528681208b8616825290915294909420925183549451909116600160201b026fffffffffffffffffffffffffffffffff19909416911617919091179055611880846001611b0a565b6001600160a01b0386166000908152600660205260409020805463ffffffff191663ffffffff929092169190911790555b604080516001600160601b038086168252841660208201526001600160a01b038716917fdec2bacdd2f05b59de34da9b523dff8be42e5e38e818c82fdb0bae774387a724910160405180910390a25050505050565b600081600160201b8410610e2e5760405162461bcd60e51b81526004016107749190611a9d565b80356001600160a01b038116811461194457600080fd5b919050565b60006020828403121561195b57600080fd5b610a688261192d565b6000806040838503121561197757600080fd5b6119808361192d565b915061198e6020840161192d565b90509250929050565b6000806000606084860312156119ac57600080fd5b6119b58461192d565b92506119c36020850161192d565b9150604084013590509250925092565b600080604083850312156119e657600080fd5b6119ef8361192d565b946020939093013593505050565b60008060008060008060c08789031215611a1657600080fd5b611a1f8761192d565b95506020870135945060408701359350606087013560ff81168114611a4357600080fd5b9598949750929560808101359460a0909101359350915050565b60008060408385031215611a7057600080fd5b611a798361192d565b9150602083013563ffffffff81168114611a9257600080fd5b809150509250929050565b600060208083528351808285015260005b81811015611aca57858101830151858201604001528201611aae565b81811115611adc576000604083870101525b50601f01601f1916929092016040019392505050565b60008219821115611b0557611b05611bfc565b500190565b600063ffffffff808316818516808303821115611b2957611b29611bfc565b01949350505050565b60006001600160601b03808316818516808303821115611b2957611b29611bfc565b600063ffffffff80841680611b7957634e487b7160e01b600052601260045260246000fd5b92169190910492915050565b600082821015611b9757611b97611bfc565b500390565b600063ffffffff83811690831681811015611bb957611bb9611bfc565b039392505050565b60006001600160601b0383811690831681811015611bb957611bb9611bfc565b6000600019821415611bf557611bf5611bfc565b5060010190565b634e487b7160e01b600052601160045260246000fdfe476f7665726e616e6365546f6b656e3a3a5f7772697465436865636b706f696e743a20626c6f636b206e756d62657220657863656564732033322062697473476f7665726e616e6365546f6b656e3a3a5f6d6f7665566f7465733a20766f746520616d6f756e74206f766572666c6f7773476f7665726e616e6365546f6b656e3a3a5f7472616e73666572546f6b656e733a207472616e7366657220616d6f756e74206f766572666c6f7773476f7665726e616e6365546f6b656e3a3a5f6d696e743a206d696e7420616d6f756e74206f766572666c6f7773476f7665726e616e6365546f6b656e3a3a5f6d6f7665566f7465733a20766f746520616d6f756e7420756e646572666c6f7773476f7665726e616e6365546f6b656e3a3a5f6275726e3a20616d6f756e7420657863656564732039362062697473476f7665726e616e6365546f6b656e3a3a5f6275726e3a206275726e20616d6f756e7420657863656564732062616c616e6365476f7665726e616e6365546f6b656e3a3a7472616e736665723a20616d6f756e7420657863656564732039362062697473476f7665726e616e6365546f6b656e3a3a617070726f76653a20616d6f756e7420657863656564732039362062697473476f7665726e616e6365546f6b656e3a3a7472616e7366657246726f6d3a207472616e7366657220616d6f756e742065786365656473207370656e64657220616c6c6f77616e6365476f7665726e616e6365546f6b656e3a3a5f6d696e743a20616d6f756e7420657863656564732039362062697473476f7665726e616e6365546f6b656e3a3a5f7472616e73666572546f6b656e733a207472616e7366657220616d6f756e7420657863656564732062616c616e6365a2646970667358221220d7ac94608efdf8d6c3879ae7f95288f3b118cad2249253a56dc9acec23e5882a64736f6c63430008060033",
  "linkReferences": {},
  "deployedLinkReferences": {}
}