{
  "_format": "hh-sol-artifact-1",
  "contractName": "StoreV1",
  "sourceName": "contracts/Store/StoreV1.sol",
  "abi": [
    {
      "anonymous": false,
      "inputs": [
        {
          "indexed": true,
          "internalType": "uint8",
          "name": "product",
          "type": "uint8"
        },
        {
          "indexed": true,
          "internalType": "address",
          "name": "recipient",
          "type": "address"
        }
      ],
      "name": "Buy",
      "type": "event"
    },
    {
      "anonymous": false,
      "inputs": [
        {
          "indexed": false,
          "internalType": "uint8",
          "name": "version",
          "type": "uint8"
        }
      ],
      "name": "Initialized",
      "type": "event"
    },
    {
      "anonymous": false,
      "inputs": [
        {
          "indexed": true,
          "internalType": "address",
          "name": "previousOwner",
          "type": "address"
        },
        {
          "indexed": true,
          "internalType": "address",
          "name": "newOwner",
          "type": "address"
        }
      ],
      "name": "OwnershipTransferred",
      "type": "event"
    },
    {
      "anonymous": false,
      "inputs": [
        {
          "indexed": false,
          "internalType": "address",
          "name": "account",
          "type": "address"
        }
      ],
      "name": "Paused",
      "type": "event"
    },
    {
      "anonymous": false,
      "inputs": [
        {
          "indexed": true,
          "internalType": "uint8",
          "name": "product",
          "type": "uint8"
        },
        {
          "indexed": false,
          "internalType": "uint256",
          "name": "priceUSD",
          "type": "uint256"
        }
      ],
      "name": "ProductChanged",
      "type": "event"
    },
    {
      "anonymous": false,
      "inputs": [
        {
          "indexed": true,
          "internalType": "address",
          "name": "info",
          "type": "address"
        }
      ],
      "name": "StorageChanged",
      "type": "event"
    },
    {
      "anonymous": false,
      "inputs": [
        {
          "indexed": false,
          "internalType": "address",
          "name": "account",
          "type": "address"
        }
      ],
      "name": "Unpaused",
      "type": "event"
    },
    {
      "inputs": [
        {
          "internalType": "uint8",
          "name": "product",
          "type": "uint8"
        },
        {
          "internalType": "address",
          "name": "recipient",
          "type": "address"
        },
        {
          "internalType": "uint256",
          "name": "priceMax",
          "type": "uint256"
        },
        {
          "internalType": "uint256",
          "name": "deadline",
          "type": "uint256"
        }
      ],
      "name": "buy",
      "outputs": [],
      "stateMutability": "payable",
      "type": "function"
    },
    {
      "inputs": [
        {
          "internalType": "uint8",
          "name": "id",
          "type": "uint8"
        },
        {
          "internalType": "uint256",
          "name": "priceUSD",
          "type": "uint256"
        }
      ],
      "name": "changeProduct",
      "outputs": [],
      "stateMutability": "nonpayable",
      "type": "function"
    },
    {
      "inputs": [
        {
          "internalType": "address",
          "name": "_info",
          "type": "address"
        }
      ],
      "name": "changeStorage",
      "outputs": [],
      "stateMutability": "nonpayable",
      "type": "function"
    },
    {
      "inputs": [],
      "name": "info",
      "outputs": [
        {
          "internalType": "contract Storage",
          "name": "",
          "type": "address"
        }
      ],
      "stateMutability": "view",
      "type": "function"
    },
    {
      "inputs": [
        {
          "internalType": "address",
          "name": "_info",
          "type": "address"
        }
      ],
      "name": "initialize",
      "outputs": [],
      "stateMutability": "nonpayable",
      "type": "function"
    },
    {
      "inputs": [],
      "name": "owner",
      "outputs": [
        {
          "internalType": "address",
          "name": "",
          "type": "address"
        }
      ],
      "stateMutability": "view",
      "type": "function"
    },
    {
      "inputs": [],
      "name": "pause",
      "outputs": [],
      "stateMutability": "nonpayable",
      "type": "function"
    },
    {
      "inputs": [],
      "name": "paused",
      "outputs": [
        {
          "internalType": "bool",
          "name": "",
          "type": "bool"
        }
      ],
      "stateMutability": "view",
      "type": "function"
    },
    {
      "inputs": [
        {
          "internalType": "uint8",
          "name": "product",
          "type": "uint8"
        }
      ],
      "name": "price",
      "outputs": [
        {
          "internalType": "uint256",
          "name": "",
          "type": "uint256"
        }
      ],
      "stateMutability": "view",
      "type": "function"
    },
    {
      "inputs": [
        {
          "internalType": "uint8",
          "name": "",
          "type": "uint8"
        }
      ],
      "name": "products",
      "outputs": [
        {
          "internalType": "uint256",
          "name": "",
          "type": "uint256"
        }
      ],
      "stateMutability": "view",
      "type": "function"
    },
    {
      "inputs": [],
      "name": "renounceOwnership",
      "outputs": [],
      "stateMutability": "nonpayable",
      "type": "function"
    },
    {
      "inputs": [
        {
          "internalType": "address",
          "name": "newOwner",
          "type": "address"
        }
      ],
      "name": "transferOwnership",
      "outputs": [],
      "stateMutability": "nonpayable",
      "type": "function"
    },
    {
      "inputs": [],
      "name": "unpause",
      "outputs": [],
      "stateMutability": "nonpayable",
      "type": "function"
    }
  ],
  "bytecode": "0x608060405234801561001057600080fd5b50610fa9806100206000396000f3fe6080604052600436106100c25760003560e01c80638456cb591161007f578063c4d66de811610059578063c4d66de814610201578063c50c97d014610221578063cbaf78a714610241578063f2fde38b1461025457600080fd5b80638456cb59146101ae5780638da5cb5b146101c3578063b7fafcd7146101e157600080fd5b8063355d2797146100c7578063370158ea146101075780633f4ba83a1461013f5780635c975abb146101565780635f9f353b14610179578063715018a614610199575b600080fd5b3480156100d357600080fd5b506100f46100e2366004610dcc565b60986020526000908152604090205481565b6040519081526020015b60405180910390f35b34801561011357600080fd5b50609754610127906001600160a01b031681565b6040516001600160a01b0390911681526020016100fe565b34801561014b57600080fd5b50610154610274565b005b34801561016257600080fd5b5060655460ff1660405190151581526020016100fe565b34801561018557600080fd5b50610154610194366004610e7b565b610286565b3480156101a557600080fd5b506101546102e1565b3480156101ba57600080fd5b506101546102f3565b3480156101cf57600080fd5b506033546001600160a01b0316610127565b3480156101ed57600080fd5b506100f46101fc366004610dcc565b610303565b34801561020d57600080fd5b5061015461021c366004610d92565b6104b8565b34801561022d57600080fd5b5061015461023c366004610d92565b61065f565b61015461024f366004610e37565b610726565b34801561026057600080fd5b5061015461026f366004610d92565b610a5e565b61027c610ad7565b610284610b31565b565b61028e610ad7565b60ff821660008181526098602052604090819020839055517f4653d4e03195792cc3ccc156f8b5e7e79d8c9ffb38eddb428012c14502799d69906102d59084815260200190565b60405180910390a25050565b6102e9610ad7565b6102846000610b83565b6102fb610ad7565b610284610bd5565b6097546040516321f8a72160e01b81527f65c90423fe7c880476633a7e36521740f87199d233dc56eb4ca6643eb76f605f600482015260009182916001600160a01b03909116906321f8a7219060240160206040518083038186803b15801561036b57600080fd5b505afa15801561037f573d6000803e3d6000fd5b505050506040513d601f19601f820116820180604052508101906103a39190610daf565b6001600160a01b031663feaf968c6040518163ffffffff1660e01b815260040160a06040518083038186803b1580156103db57600080fd5b505afa1580156103ef573d6000803e3d6000fd5b505050506040513d601f19601f820116820180604052508101906104139190610de7565b505050915050600081136104805760405162461bcd60e51b815260206004820152602960248201527f53746f72653a3a70726963653a20696e76616c6964207072696365206665656460448201526820726573706f6e736560b81b60648201526084015b60405180910390fd5b60ff831660009081526098602052604090205481906104a790670de0b6b3a7640000610f12565b6104b19190610ef0565b9392505050565b600054610100900460ff16158080156104d85750600054600160ff909116105b806104f25750303b1580156104f2575060005460ff166001145b6105555760405162461bcd60e51b815260206004820152602e60248201527f496e697469616c697a61626c653a20636f6e747261637420697320616c72656160448201526d191e481a5b9a5d1a585b1a5e995960921b6064820152608401610477565b6000805460ff191660011790558015610578576000805461ff0019166101001790555b6001600160a01b0382166105ea5760405162461bcd60e51b815260206004820152603360248201527f53746f72653a3a696e697469616c697a653a20696e76616c69642073746f7261604482015272676520636f6e7472616374206164647265737360681b6064820152608401610477565b6105f2610c12565b6105fa610c41565b609780546001600160a01b0319166001600160a01b038416179055801561065b576000805461ff0019169055604051600181527f7f26b83ff96e1f2b6a682f133852f6798a09c465da95921460cefb38474024989060200160405180910390a15b5050565b610667610ad7565b6001600160a01b0381166106dc5760405162461bcd60e51b815260206004820152603660248201527f53746f72653a3a6368616e676553746f726167653a20696e76616c69642073746044820152756f7261676520636f6e7472616374206164647265737360501b6064820152608401610477565b609780546001600160a01b0319166001600160a01b0383169081179091556040517f8cbb7a6ee88dbf214a9b660a9f1af063e42a24cbfe26a046a718b3f621baa53990600090a250565b61072e610c70565b60ff841660009081526098602052604090205461078d5760405162461bcd60e51b815260206004820152601d60248201527f53746f72653a3a6275793a20756e646566696e65642070726f647563740000006044820152606401610477565b428110156107d35760405162461bcd60e51b815260206004820152601360248201527214dd1bdc994e8e989d5e4e88195e1c1a5c9959606a1b6044820152606401610477565b60006107de85610303565b90508034101561084c5760405162461bcd60e51b815260206004820152603360248201527f53746f72653a3a6275793a20696e73756666696369656e742066756e647320746044820152726f207061792070726f6475637420707269636560681b6064820152608401610477565b8281111561089c5760405162461bcd60e51b815260206004820152601b60248201527f53746f72653a3a6275793a2065786365737369766520707269636500000000006044820152606401610477565b6097546040516321f8a72160e01b81527f97b6c1bbfe58bd1142f870b705c6115c0d70f24d0df558bd3f57f082d456e89660048201526000916001600160a01b0316906321f8a7219060240160206040518083038186803b15801561090057600080fd5b505afa158015610914573d6000803e3d6000fd5b505050506040513d601f19601f820116820180604052508101906109389190610daf565b90506001600160a01b0381166109a65760405162461bcd60e51b815260206004820152602d60248201527f53746f72653a3a6275793a20696e76616c696420747265617375727920636f6e60448201526c7472616374206164647265737360981b6064820152608401610477565b6040516001600160a01b0382169083156108fc029084906000818181858888f193505050501580156109dc573d6000803e3d6000fd5b5081341115610a1d57336108fc6109f38434610f31565b6040518115909202916000818181858888f19350505050158015610a1b573d6000803e3d6000fd5b505b6040516001600160a01b0386169060ff8816907f2c63ae6df00e90babc5d4997368fce457d90df78673d14a11435b7e4ecc2394090600090a3505050505050565b610a66610ad7565b6001600160a01b038116610acb5760405162461bcd60e51b815260206004820152602660248201527f4f776e61626c653a206e6577206f776e657220697320746865207a65726f206160448201526564647265737360d01b6064820152608401610477565b610ad481610b83565b50565b6033546001600160a01b031633146102845760405162461bcd60e51b815260206004820181905260248201527f4f776e61626c653a2063616c6c6572206973206e6f7420746865206f776e65726044820152606401610477565b610b39610cb6565b6065805460ff191690557f5db9ee0a495bf2e6ff9c91a7834c1ba4fdd244a5e8aa4e537bd38aeae4b073aa335b6040516001600160a01b03909116815260200160405180910390a1565b603380546001600160a01b038381166001600160a01b0319831681179093556040519116919082907f8be0079c531659141344cd1fd0a4f28419497f9722a3daafe3b4186f6b6457e090600090a35050565b610bdd610c70565b6065805460ff191660011790557f62e78cea01bee320cd4e420270b5ea74000d11b0c9f74754ebdbfc544b05a258610b663390565b600054610100900460ff16610c395760405162461bcd60e51b815260040161047790610ea5565b610284610cff565b600054610100900460ff16610c685760405162461bcd60e51b815260040161047790610ea5565b610284610d2f565b60655460ff16156102845760405162461bcd60e51b815260206004820152601060248201526f14185d5cd8589b194e881c185d5cd95960821b6044820152606401610477565b60655460ff166102845760405162461bcd60e51b815260206004820152601460248201527314185d5cd8589b194e881b9bdd081c185d5cd95960621b6044820152606401610477565b600054610100900460ff16610d265760405162461bcd60e51b815260040161047790610ea5565b61028433610b83565b600054610100900460ff16610d565760405162461bcd60e51b815260040161047790610ea5565b6065805460ff19169055565b803560ff81168114610d7357600080fd5b919050565b805169ffffffffffffffffffff81168114610d7357600080fd5b600060208284031215610da457600080fd5b81356104b181610f5e565b600060208284031215610dc157600080fd5b81516104b181610f5e565b600060208284031215610dde57600080fd5b6104b182610d62565b600080600080600060a08688031215610dff57600080fd5b610e0886610d78565b9450602086015193506040860151925060608601519150610e2b60808701610d78565b90509295509295909350565b60008060008060808587031215610e4d57600080fd5b610e5685610d62565b93506020850135610e6681610f5e565b93969395505050506040820135916060013590565b60008060408385031215610e8e57600080fd5b610e9783610d62565b946020939093013593505050565b6020808252602b908201527f496e697469616c697a61626c653a20636f6e7472616374206973206e6f74206960408201526a6e697469616c697a696e6760a81b606082015260800190565b600082610f0d57634e487b7160e01b600052601260045260246000fd5b500490565b6000816000190483118215151615610f2c57610f2c610f48565b500290565b600082821015610f4357610f43610f48565b500390565b634e487b7160e01b600052601160045260246000fd5b6001600160a01b0381168114610ad457600080fdfea2646970667358221220137038d4a37bb0bedf8aa3a4d0eafd0943ec8c667dabc4d5dfd35f10f6c0cd9464736f6c63430008060033",
  "linkReferences": {},
  "deployedLinkReferences": {}
}