{
  "_format": "hh-sol-artifact-1",
  "contractName": "LPTokensManager",
  "sourceName": "contracts/automate/LPTokensManager.sol",
  "abi": [
    {
      "inputs": [
        {
          "internalType": "address",
          "name": "_info",
          "type": "address"
        }
      ],
      "stateMutability": "nonpayable",
      "type": "constructor"
    },
    {
      "anonymous": false,
      "inputs": [
        {
          "indexed": true,
          "internalType": "address",
          "name": "previousOwner",
          "type": "address"
        },
        {
          "indexed": true,
          "internalType": "address",
          "name": "newOwner",
          "type": "address"
        }
      ],
      "name": "OwnershipTransferred",
      "type": "event"
    },
    {
      "anonymous": false,
      "inputs": [
        {
          "indexed": true,
          "internalType": "address",
          "name": "info",
          "type": "address"
        }
      ],
      "name": "StorageChanged",
      "type": "event"
    },
    {
      "inputs": [
        {
          "internalType": "uint256",
          "name": "amount",
          "type": "uint256"
        },
        {
          "internalType": "address",
          "name": "router",
          "type": "address"
        },
        {
          "components": [
            {
              "internalType": "address[]",
              "name": "path",
              "type": "address[]"
            },
            {
              "internalType": "uint256",
              "name": "outMin",
              "type": "uint256"
            }
          ],
          "internalType": "struct LPTokensManager.Swap",
          "name": "swap0",
          "type": "tuple"
        },
        {
          "components": [
            {
              "internalType": "address[]",
              "name": "path",
              "type": "address[]"
            },
            {
              "internalType": "uint256",
              "name": "outMin",
              "type": "uint256"
            }
          ],
          "internalType": "struct LPTokensManager.Swap",
          "name": "swap1",
          "type": "tuple"
        },
        {
          "internalType": "contract IPair",
          "name": "to",
          "type": "address"
        },
        {
          "internalType": "uint256",
          "name": "deadline",
          "type": "uint256"
        }
      ],
      "name": "buyLiquidity",
      "outputs": [],
      "stateMutability": "payable",
      "type": "function"
    },
    {
      "inputs": [
        {
          "internalType": "address",
          "name": "_info",
          "type": "address"
        }
      ],
      "name": "changeStorage",
      "outputs": [],
      "stateMutability": "nonpayable",
      "type": "function"
    },
    {
      "inputs": [],
      "name": "fee",
      "outputs": [
        {
          "internalType": "uint256",
          "name": "",
          "type": "uint256"
        }
      ],
      "stateMutability": "view",
      "type": "function"
    },
    {
      "inputs": [],
      "name": "info",
      "outputs": [
        {
          "internalType": "contract Storage",
          "name": "",
          "type": "address"
        }
      ],
      "stateMutability": "view",
      "type": "function"
    },
    {
      "inputs": [],
      "name": "owner",
      "outputs": [
        {
          "internalType": "address",
          "name": "",
          "type": "address"
        }
      ],
      "stateMutability": "view",
      "type": "function"
    },
    {
      "inputs": [],
      "name": "renounceOwnership",
      "outputs": [],
      "stateMutability": "nonpayable",
      "type": "function"
    },
    {
      "inputs": [
        {
          "internalType": "uint256",
          "name": "amount",
          "type": "uint256"
        },
        {
          "internalType": "address",
          "name": "router",
          "type": "address"
        },
        {
          "components": [
            {
              "internalType": "address[]",
              "name": "path",
              "type": "address[]"
            },
            {
              "internalType": "uint256",
              "name": "outMin",
              "type": "uint256"
            }
          ],
          "internalType": "struct LPTokensManager.Swap",
          "name": "swap0",
          "type": "tuple"
        },
        {
          "components": [
            {
              "internalType": "address[]",
              "name": "path",
              "type": "address[]"
            },
            {
              "internalType": "uint256",
              "name": "outMin",
              "type": "uint256"
            }
          ],
          "internalType": "struct LPTokensManager.Swap",
          "name": "swap1",
          "type": "tuple"
        },
        {
          "internalType": "contract IPair",
          "name": "from",
          "type": "address"
        },
        {
          "internalType": "uint256",
          "name": "deadline",
          "type": "uint256"
        }
      ],
      "name": "sellLiquidity",
      "outputs": [],
      "stateMutability": "payable",
      "type": "function"
    },
    {
      "inputs": [
        {
          "internalType": "address",
          "name": "newOwner",
          "type": "address"
        }
      ],
      "name": "transferOwnership",
      "outputs": [],
      "stateMutability": "nonpayable",
      "type": "function"
    }
  ],
  "bytecode": "0x60806040523480156200001157600080fd5b506040516200236c3803806200236c833981016040819052620000349162000136565b6200003f33620000e6565b6001600160a01b038116620000c05760405162461bcd60e51b815260206004820152603e60248201527f4c50546f6b656e734d616e616765723a3a636f6e7374727563746f723a20696e60448201527f76616c69642073746f7261676520636f6e747261637420616464726573730000606482015260840160405180910390fd5b600180546001600160a01b0319166001600160a01b039290921691909117905562000168565b600080546001600160a01b038381166001600160a01b0319831681178455604051919092169283917f8be0079c531659141344cd1fd0a4f28419497f9722a3daafe3b4186f6b6457e09190a35050565b6000602082840312156200014957600080fd5b81516001600160a01b03811681146200016157600080fd5b9392505050565b6121f480620001786000396000f3fe60806040526004361061007b5760003560e01c80638da5cb5b1161004e5780638da5cb5b146100fa578063c50c97d014610118578063ddca3f4314610138578063f2fde38b1461015b57600080fd5b806301b886a214610080578063370158ea146100955780636a103af7146100d2578063715018a6146100e5575b600080fd5b61009361008e366004611df8565b61017b565b005b3480156100a157600080fd5b506001546100b5906001600160a01b031681565b6040516001600160a01b0390911681526020015b60405180910390f35b6100936100e0366004611df8565b6107f5565b3480156100f157600080fd5b50610093610e8f565b34801561010657600080fd5b506000546001600160a01b03166100b5565b34801561012457600080fd5b50610093610133366004611d83565b610ea3565b34801561014457600080fd5b5061014d610f73565b6040519081526020016100c9565b34801561016757600080fd5b50610093610176366004611d83565b6111c2565b6001546040516001600160a01b0390911690637ae1cfca906101a1908890602001611f53565b604051602081830303815290604052805190602001206040518263ffffffff1660e01b81526004016101d591815260200190565b60206040518083038186803b1580156101ed57600080fd5b505afa158015610201573d6000803e3d6000fd5b505050506040513d601f19601f820116820180604052508101906102259190611dbd565b6102955760405162461bcd60e51b815260206004820152603660248201527f4c50546f6b656e734d616e616765723a3a73656c6c4c69717569646974793a20604482015275696e76616c696420726f75746572206164647265737360501b60648201526084015b60405180910390fd5b825180516102a5906001906120e9565b815181106102b5576102b561215d565b60200260200101516001600160a01b0316846000015160018660000151516102dd91906120e9565b815181106102ed576102ed61215d565b60200260200101516001600160a01b0316146103675760405162461bcd60e51b815260206004820152603360248201527f4c50546f6b656e734d616e616765723a3a73656c6c4c697175646974793a20656044820152726e6420746f6b656e206e6f7420657175616c7360681b606482015260840161028c565b61036f61123b565b6000826001600160a01b0316630dfe16816040518163ffffffff1660e01b815260040160206040518083038186803b1580156103aa57600080fd5b505afa1580156103be573d6000803e3d6000fd5b505050506040513d601f19601f820116820180604052508101906103e29190611da0565b9050806001600160a01b031685600001516000815181106104055761040561215d565b60200260200101516001600160a01b0316146104795760405162461bcd60e51b815260206004820152602d60248201527f4c50546f6b656e734d616e616765723a3a73656c6c4c697175646974793a206960448201526c06e76616c696420746f6b656e3609c1b606482015260840161028c565b6000836001600160a01b031663d21220a76040518163ffffffff1660e01b815260040160206040518083038186803b1580156104b457600080fd5b505afa1580156104c8573d6000803e3d6000fd5b505050506040513d601f19601f820116820180604052508101906104ec9190611da0565b9050806001600160a01b0316856000015160008151811061050f5761050f61215d565b60200260200101516001600160a01b0316146105835760405162461bcd60e51b815260206004820152602d60248201527f4c50546f6b656e734d616e616765723a3a73656c6c4c697175646974793a206960448201526c6e76616c696420746f6b656e3160981b606482015260840161028c565b6105986001600160a01b03851633308b611575565b6105a384888a6115e0565b604051635d5155ef60e11b81526001600160a01b0383811660048301528281166024830152604482018a905260006064830181905260848301523060a483015260c4820185905288169063baa2abde9060e4016040805180830381600087803b15801561060f57600080fd5b505af1158015610623573d6000803e3d6000fd5b505050506040513d601f19601f820116820180604052508101906106479190611e95565b50506040516370a0823160e01b81523060048201526000906001600160a01b038416906370a082319060240160206040518083038186803b15801561068b57600080fd5b505afa15801561069f573d6000803e3d6000fd5b505050506040513d601f19601f820116820180604052508101906106c39190611ddf565b90506106d08389836115e0565b6106e5888289602001518a600001518861168d565b6040516370a0823160e01b81523060048201526000906001600160a01b038416906370a082319060240160206040518083038186803b15801561072757600080fd5b505afa15801561073b573d6000803e3d6000fd5b505050506040513d601f19601f8201168201806040525081019061075f9190611ddf565b905061076c838a836115e0565b610781898289602001518a600001518961168d565b604080516060810182526001600160a01b03808716825285166020820152895180516107e993830191906107b7906001906120e9565b815181106107c7576107c761215d565b60200260200101516001600160a01b03166001600160a01b031681525061175a565b50505050505050505050565b6001546040516001600160a01b0390911690637ae1cfca9061081b908890602001611f53565b604051602081830303815290604052805190602001206040518263ffffffff1660e01b815260040161084f91815260200190565b60206040518083038186803b15801561086757600080fd5b505afa15801561087b573d6000803e3d6000fd5b505050506040513d601f19601f8201168201806040525081019061089f9190611dbd565b6109095760405162461bcd60e51b815260206004820152603560248201527f4c50546f6b656e734d616e616765723a3a6275794c69717569646974793a20696044820152746e76616c696420726f75746572206164647265737360581b606482015260840161028c565b8251805160009061091c5761091c61215d565b60200260200101516001600160a01b031684600001516000815181106109445761094461215d565b60200260200101516001600160a01b0316146109bf5760405162461bcd60e51b815260206004820152603460248201527f4c50546f6b656e734d616e616765723a3a6275794c697175646974793a20737460448201527361727420746f6b656e206e6f7420657175616c7360601b606482015260840161028c565b6109c761123b565b6000826001600160a01b0316630dfe16816040518163ffffffff1660e01b815260040160206040518083038186803b158015610a0257600080fd5b505afa158015610a16573d6000803e3d6000fd5b505050506040513d601f19601f82011682018060405250810190610a3a9190611da0565b855180519192506001600160a01b03831691610a58906001906120e9565b81518110610a6857610a6861215d565b60200260200101516001600160a01b031614610adb5760405162461bcd60e51b815260206004820152602c60248201527f4c50546f6b656e734d616e616765723a3a6275794c697175646974793a20696e60448201526b076616c696420746f6b656e360a41b606482015260840161028c565b6000836001600160a01b031663d21220a76040518163ffffffff1660e01b815260040160206040518083038186803b158015610b1657600080fd5b505afa158015610b2a573d6000803e3d6000fd5b505050506040513d601f19601f82011682018060405250810190610b4e9190611da0565b855180519192506001600160a01b03831691610b6c906001906120e9565b81518110610b7c57610b7c61215d565b60200260200101516001600160a01b031614610bef5760405162461bcd60e51b815260206004820152602c60248201527f4c50546f6b656e734d616e616765723a3a6275794c697175646974793a20696e60448201526b76616c696420746f6b656e3160a01b606482015260840161028c565b610c2d33308a8960000151600081518110610c0c57610c0c61215d565b60200260200101516001600160a01b0316611575909392919063ffffffff16565b610c568660000151600081518110610c4757610c4761215d565b6020026020010151888a6115e0565b6000610c6360028a6120a8565b9050610c7a888289602001518a600001518861168d565b6000610c86828b6120e9565b9050610c9d898289602001518a600001518961168d565b6040516370a0823160e01b81523060048201526001600160a01b038516906370a082319060240160206040518083038186803b158015610cdc57600080fd5b505afa158015610cf0573d6000803e3d6000fd5b505050506040513d601f19601f82011682018060405250810190610d149190611ddf565b6040516370a0823160e01b81523060048201529092506001600160a01b038416906370a082319060240160206040518083038186803b158015610d5657600080fd5b505afa158015610d6a573d6000803e3d6000fd5b505050506040513d601f19601f82011682018060405250810190610d8e9190611ddf565b9050610d9b848a846115e0565b610da6838a836115e0565b60405162e8e33760e81b81526001600160a01b0385811660048301528481166024830152604482018490526064820183905260006084830181905260a48301523360c483015260e482018790528a169063e8e337009061010401606060405180830381600087803b158015610e1a57600080fd5b505af1158015610e2e573d6000803e3d6000fd5b505050506040513d601f19601f82011682018060405250810190610e529190611eb9565b5050604080516060810182526001600160a01b038088168252861660208201528a5180516107e9945091928301916000906107c7576107c761215d565b610e97611842565b610ea1600061189c565b565b610eab611842565b6001600160a01b038116610f29576040805162461bcd60e51b81526020600482015260248101919091527f4c50546f6b656e734d616e616765723a3a6368616e676553746f726167653a2060448201527f696e76616c69642073746f7261676520636f6e74726163742061646472657373606482015260840161028c565b600180546001600160a01b0319166001600160a01b0383169081179091556040517f8cbb7a6ee88dbf214a9b660a9f1af063e42a24cbfe26a046a718b3f621baa53990600090a250565b60015460405163bd02d0f560e01b81527feebabcb54b738af1a03a24c286cb262943e64f88c2af668d107fd70d305229e7600482015260009182916001600160a01b039091169063bd02d0f59060240160206040518083038186803b158015610fdb57600080fd5b505afa158015610fef573d6000803e3d6000fd5b505050506040513d601f19601f820116820180604052508101906110139190611ddf565b90508061102257600091505090565b6001546040516321f8a72160e01b81527f65c90423fe7c880476633a7e36521740f87199d233dc56eb4ca6643eb76f605f60048201526000916001600160a01b0316906321f8a7219060240160206040518083038186803b15801561108657600080fd5b505afa15801561109a573d6000803e3d6000fd5b505050506040513d601f19601f820116820180604052508101906110be9190611da0565b6001600160a01b031663feaf968c6040518163ffffffff1660e01b815260040160a06040518083038186803b1580156110f657600080fd5b505afa15801561110a573d6000803e3d6000fd5b505050506040513d601f19601f8201168201806040525081019061112e9190611ee7565b5050509150506000811361119e5760405162461bcd60e51b815260206004820152603160248201527f4c50546f6b656e734d616e616765723a3a6665653a20696e76616c6964207072604482015270696365206665656420726573706f6e736560781b606482015260840161028c565b806111b183670de0b6b3a76400006120ca565b6111bb91906120a8565b9250505090565b6111ca611842565b6001600160a01b03811661122f5760405162461bcd60e51b815260206004820152602660248201527f4f776e61626c653a206e6577206f776e657220697320746865207a65726f206160448201526564647265737360d01b606482015260840161028c565b6112388161189c565b50565b6000611245610f73565b90508061124f5750565b803410156112c15760405162461bcd60e51b8152602060048201526045602482015260008051602061219f83398151915260448201527f20696e73756666696369656e742066756e647320746f2070617920636f6d6d6960648201526439b9b4b7b760d91b608482015260a40161028c565b6001546040516321f8a72160e01b81527f97b6c1bbfe58bd1142f870b705c6115c0d70f24d0df558bd3f57f082d456e89660048201526000916001600160a01b0316906321f8a7219060240160206040518083038186803b15801561132557600080fd5b505afa158015611339573d6000803e3d6000fd5b505050506040513d601f19601f8201168201806040525081019061135d9190611da0565b90506001600160a01b0381166113d45760405162461bcd60e51b8152602060048201526042602482015260008051602061219f83398151915260448201527f20696e76616c696420747265617375727920636f6e7472616374206164647265606482015261737360f01b608482015260a40161028c565b6000816001600160a01b03168360405160006040518083038185875af1925050503d8060008114611421576040519150601f19603f3d011682016040523d82523d6000602084013e611426565b606091505b50509050806114995760405162461bcd60e51b81526020600482015260446024820181905260008051602061219f833981519152908201527f207472616e736665722066656520746f207468652074726561737572792066616064820152631a5b195960e21b608482015260a40161028c565b82341115611570576000336114ae85346120e9565b604051600081818185875af1925050503d80600081146114ea576040519150601f19603f3d011682016040523d82523d6000602084013e6114ef565b606091505b505090508061156e5760405162461bcd60e51b8152602060048201526051602482015260008051602061219f83398151915260448201527f207472616e73666572206f662072656d61696e656420746f6b656e7320746f206064820152701d1a19481cd95b99195c8819985a5b1959607a1b608482015260a40161028c565b505b505050565b6040516001600160a01b038085166024830152831660448201526064810182905261156e9085906323b872dd60e01b906084015b60408051601f198184030181529190526020810180516001600160e01b03166001600160e01b0319909316929092179091526118ec565b604051636eb1769f60e11b81523060048201526001600160a01b03838116602483015284169063dd62ed3e9060440160206040518083038186803b15801561162757600080fd5b505afa15801561163b573d6000803e3d6000fd5b505050506040513d601f19601f8201168201806040525081019061165f9190611ddf565b15611679576116796001600160a01b0384168360006119be565b6115706001600160a01b03841683836119be565b816001835161169c91906120e9565b815181106116ac576116ac61215d565b60200260200101516001600160a01b0316826000815181106116d0576116d061215d565b60200260200101516001600160a01b031614156116ec57611753565b604051635c11d79560e01b81526001600160a01b03861690635c11d795906117209087908790879030908890600401611fdd565b600060405180830381600087803b15801561173a57600080fd5b505af115801561174e573d6000803e3d6000fd5b505050505b5050505050565b60005b600381101561183e57600082826003811061177a5761177a61215d565b60200201516040516370a0823160e01b81523060048201526001600160a01b03909116906370a082319060240160206040518083038186803b1580156117bf57600080fd5b505afa1580156117d3573d6000803e3d6000fd5b505050506040513d601f19601f820116820180604052508101906117f79190611ddf565b9050801561182b5761182b33828585600381106118165761181661215d565b60200201516001600160a01b03169190611ae2565b50806118368161212c565b91505061175d565b5050565b6000546001600160a01b03163314610ea15760405162461bcd60e51b815260206004820181905260248201527f4f776e61626c653a2063616c6c6572206973206e6f7420746865206f776e6572604482015260640161028c565b600080546001600160a01b038381166001600160a01b0319831681178455604051919092169283917f8be0079c531659141344cd1fd0a4f28419497f9722a3daafe3b4186f6b6457e09190a35050565b6000611941826040518060400160405280602081526020017f5361666545524332303a206c6f772d6c6576656c2063616c6c206661696c6564815250856001600160a01b0316611b129092919063ffffffff16565b805190915015611570578080602001905181019061195f9190611dbd565b6115705760405162461bcd60e51b815260206004820152602a60248201527f5361666545524332303a204552433230206f7065726174696f6e20646964206e6044820152691bdd081cdd58d8d9595960b21b606482015260840161028c565b801580611a475750604051636eb1769f60e11b81523060048201526001600160a01b03838116602483015284169063dd62ed3e9060440160206040518083038186803b158015611a0d57600080fd5b505afa158015611a21573d6000803e3d6000fd5b505050506040513d601f19601f82011682018060405250810190611a459190611ddf565b155b611ab25760405162461bcd60e51b815260206004820152603660248201527f5361666545524332303a20617070726f76652066726f6d206e6f6e2d7a65726f60448201527520746f206e6f6e2d7a65726f20616c6c6f77616e636560501b606482015260840161028c565b6040516001600160a01b03831660248201526044810182905261157090849063095ea7b360e01b906064016115a9565b6040516001600160a01b03831660248201526044810182905261157090849063a9059cbb60e01b906064016115a9565b6060611b218484600085611b2b565b90505b9392505050565b606082471015611b8c5760405162461bcd60e51b815260206004820152602660248201527f416464726573733a20696e73756666696369656e742062616c616e636520666f6044820152651c8818d85b1b60d21b606482015260840161028c565b6001600160a01b0385163b611be35760405162461bcd60e51b815260206004820152601d60248201527f416464726573733a2063616c6c20746f206e6f6e2d636f6e7472616374000000604482015260640161028c565b600080866001600160a01b03168587604051611bff9190611f37565b60006040518083038185875af1925050503d8060008114611c3c576040519150601f19603f3d011682016040523d82523d6000602084013e611c41565b606091505b5091509150611c51828286611c5c565b979650505050505050565b60608315611c6b575081611b24565b825115611c7b5782518084602001fd5b8160405162461bcd60e51b815260040161028c9190611faa565b600060408284031215611ca757600080fd5b611caf61204e565b9050813567ffffffffffffffff80821115611cc957600080fd5b818401915084601f830112611cdd57600080fd5b8135602082821115611cf157611cf1612173565b8160051b9250611d02818401612077565b8281528181019085830185870184018a1015611d1d57600080fd5b600096505b84871015611d4c5780359550611d3786612189565b85835260019690960195918301918301611d22565b50808752505080860135818601525050505092915050565b805169ffffffffffffffffffff81168114611d7e57600080fd5b919050565b600060208284031215611d9557600080fd5b8135611b2481612189565b600060208284031215611db257600080fd5b8151611b2481612189565b600060208284031215611dcf57600080fd5b81518015158114611b2457600080fd5b600060208284031215611df157600080fd5b5051919050565b60008060008060008060c08789031215611e1157600080fd5b863595506020870135611e2381612189565b9450604087013567ffffffffffffffff80821115611e4057600080fd5b611e4c8a838b01611c95565b95506060890135915080821115611e6257600080fd5b50611e6f89828a01611c95565b9350506080870135611e8081612189565b8092505060a087013590509295509295509295565b60008060408385031215611ea857600080fd5b505080516020909101519092909150565b600080600060608486031215611ece57600080fd5b8351925060208401519150604084015190509250925092565b600080600080600060a08688031215611eff57600080fd5b611f0886611d64565b9450602086015193506040860151925060608601519150611f2b60808701611d64565b90509295509295909350565b60008251611f49818460208701612100565b9190910192915050565b7f4446483a436f6e74726163743a4c50546f6b656e734d616e616765723a616c6c81526a37bbb2b22937baba32b91d60a91b602082015260609190911b6bffffffffffffffffffffffff1916602b820152603f0190565b6020815260008251806020840152611fc9816040850160208701612100565b601f01601f19169190910160400192915050565b600060a082018783526020878185015260a0604085015281875180845260c086019150828901935060005b8181101561202d5784516001600160a01b031683529383019391830191600101612008565b50506001600160a01b03969096166060850152505050608001529392505050565b6040805190810167ffffffffffffffff8111828210171561207157612071612173565b60405290565b604051601f8201601f1916810167ffffffffffffffff811182821017156120a0576120a0612173565b604052919050565b6000826120c557634e487b7160e01b600052601260045260246000fd5b500490565b60008160001904831182151516156120e4576120e4612147565b500290565b6000828210156120fb576120fb612147565b500390565b60005b8381101561211b578181015183820152602001612103565b8381111561156e5750506000910152565b600060001982141561214057612140612147565b5060010190565b634e487b7160e01b600052601160045260246000fd5b634e487b7160e01b600052603260045260246000fd5b634e487b7160e01b600052604160045260246000fd5b6001600160a01b038116811461123857600080fdfe4c50546f6b656e734d616e616765723a3a5f706179436f6d6d697373696f6e3aa264697066735822122065c4fbef3456e0775ca54643db8b4b6b06f14b1d0867007ea39d5031cb76cd1864736f6c63430008060033",
  "linkReferences": {},
  "deployedLinkReferences": {}
}