{
  "_format": "hh-sol-artifact-1",
  "contractName": "LPTokensManager",
  "sourceName": "contracts/automate/LPTokensManager.sol",
  "abi": [
    {
      "inputs": [
        {
          "internalType": "address",
          "name": "_info",
          "type": "address"
        }
      ],
      "stateMutability": "nonpayable",
      "type": "constructor"
    },
    {
      "anonymous": false,
      "inputs": [
        {
          "indexed": true,
          "internalType": "address",
          "name": "previousOwner",
          "type": "address"
        },
        {
          "indexed": true,
          "internalType": "address",
          "name": "newOwner",
          "type": "address"
        }
      ],
      "name": "OwnershipTransferred",
      "type": "event"
    },
    {
      "anonymous": false,
      "inputs": [
        {
          "indexed": true,
          "internalType": "address",
          "name": "info",
          "type": "address"
        }
      ],
      "name": "StorageChanged",
      "type": "event"
    },
    {
      "stateMutability": "payable",
      "type": "fallback"
    },
    {
      "inputs": [
        {
          "internalType": "uint256",
          "name": "amount",
          "type": "uint256"
        },
        {
          "internalType": "address",
          "name": "router",
          "type": "address"
        },
        {
          "components": [
            {
              "internalType": "address[]",
              "name": "path",
              "type": "address[]"
            },
            {
              "internalType": "uint256",
              "name": "outMin",
              "type": "uint256"
            }
          ],
          "internalType": "struct LPTokensManager.Swap",
          "name": "swap0",
          "type": "tuple"
        },
        {
          "components": [
            {
              "internalType": "address[]",
              "name": "path",
              "type": "address[]"
            },
            {
              "internalType": "uint256",
              "name": "outMin",
              "type": "uint256"
            }
          ],
          "internalType": "struct LPTokensManager.Swap",
          "name": "swap1",
          "type": "tuple"
        },
        {
          "internalType": "contract IPair",
          "name": "to",
          "type": "address"
        },
        {
          "internalType": "uint256",
          "name": "deadline",
          "type": "uint256"
        }
      ],
      "name": "buyLiquidity",
      "outputs": [],
      "stateMutability": "payable",
      "type": "function"
    },
    {
      "inputs": [
        {
          "internalType": "address",
          "name": "router",
          "type": "address"
        },
        {
          "components": [
            {
              "internalType": "address[]",
              "name": "path",
              "type": "address[]"
            },
            {
              "internalType": "uint256",
              "name": "outMin",
              "type": "uint256"
            }
          ],
          "internalType": "struct LPTokensManager.Swap",
          "name": "swap0",
          "type": "tuple"
        },
        {
          "components": [
            {
              "internalType": "address[]",
              "name": "path",
              "type": "address[]"
            },
            {
              "internalType": "uint256",
              "name": "outMin",
              "type": "uint256"
            }
          ],
          "internalType": "struct LPTokensManager.Swap",
          "name": "swap1",
          "type": "tuple"
        },
        {
          "internalType": "contract IPair",
          "name": "to",
          "type": "address"
        },
        {
          "internalType": "uint256",
          "name": "deadline",
          "type": "uint256"
        }
      ],
      "name": "buyLiquidityETH",
      "outputs": [],
      "stateMutability": "payable",
      "type": "function"
    },
    {
      "inputs": [
        {
          "internalType": "address",
          "name": "_info",
          "type": "address"
        }
      ],
      "name": "changeStorage",
      "outputs": [],
      "stateMutability": "nonpayable",
      "type": "function"
    },
    {
      "inputs": [],
      "name": "fee",
      "outputs": [
        {
          "internalType": "uint256",
          "name": "",
          "type": "uint256"
        }
      ],
      "stateMutability": "view",
      "type": "function"
    },
    {
      "inputs": [],
      "name": "info",
      "outputs": [
        {
          "internalType": "contract Storage",
          "name": "",
          "type": "address"
        }
      ],
      "stateMutability": "view",
      "type": "function"
    },
    {
      "inputs": [],
      "name": "owner",
      "outputs": [
        {
          "internalType": "address",
          "name": "",
          "type": "address"
        }
      ],
      "stateMutability": "view",
      "type": "function"
    },
    {
      "inputs": [],
      "name": "renounceOwnership",
      "outputs": [],
      "stateMutability": "nonpayable",
      "type": "function"
    },
    {
      "inputs": [
        {
          "internalType": "uint256",
          "name": "amount",
          "type": "uint256"
        },
        {
          "internalType": "address",
          "name": "router",
          "type": "address"
        },
        {
          "components": [
            {
              "internalType": "address[]",
              "name": "path",
              "type": "address[]"
            },
            {
              "internalType": "uint256",
              "name": "outMin",
              "type": "uint256"
            }
          ],
          "internalType": "struct LPTokensManager.Swap",
          "name": "swap0",
          "type": "tuple"
        },
        {
          "components": [
            {
              "internalType": "address[]",
              "name": "path",
              "type": "address[]"
            },
            {
              "internalType": "uint256",
              "name": "outMin",
              "type": "uint256"
            }
          ],
          "internalType": "struct LPTokensManager.Swap",
          "name": "swap1",
          "type": "tuple"
        },
        {
          "internalType": "contract IPair",
          "name": "from",
          "type": "address"
        },
        {
          "internalType": "uint256",
          "name": "deadline",
          "type": "uint256"
        }
      ],
      "name": "sellLiquidity",
      "outputs": [],
      "stateMutability": "payable",
      "type": "function"
    },
    {
      "inputs": [
        {
          "internalType": "uint256",
          "name": "amount",
          "type": "uint256"
        },
        {
          "internalType": "address",
          "name": "router",
          "type": "address"
        },
        {
          "components": [
            {
              "internalType": "address[]",
              "name": "path",
              "type": "address[]"
            },
            {
              "internalType": "uint256",
              "name": "outMin",
              "type": "uint256"
            }
          ],
          "internalType": "struct LPTokensManager.Swap",
          "name": "swap0",
          "type": "tuple"
        },
        {
          "components": [
            {
              "internalType": "address[]",
              "name": "path",
              "type": "address[]"
            },
            {
              "internalType": "uint256",
              "name": "outMin",
              "type": "uint256"
            }
          ],
          "internalType": "struct LPTokensManager.Swap",
          "name": "swap1",
          "type": "tuple"
        },
        {
          "internalType": "contract IPair",
          "name": "from",
          "type": "address"
        },
        {
          "internalType": "uint256",
          "name": "deadline",
          "type": "uint256"
        }
      ],
      "name": "sellLiquidityETH",
      "outputs": [],
      "stateMutability": "payable",
      "type": "function"
    },
    {
      "inputs": [
        {
          "internalType": "address",
          "name": "newOwner",
          "type": "address"
        }
      ],
      "name": "transferOwnership",
      "outputs": [],
      "stateMutability": "nonpayable",
      "type": "function"
    },
    {
      "stateMutability": "payable",
      "type": "receive"
    }
  ],
  "bytecode": "0x60806040523480156200001157600080fd5b5060405162002afd38038062002afd833981016040819052620000349162000136565b6200003f33620000e6565b6001600160a01b038116620000c05760405162461bcd60e51b815260206004820152603e60248201527f4c50546f6b656e734d616e616765723a3a636f6e7374727563746f723a20696e60448201527f76616c69642073746f7261676520636f6e747261637420616464726573730000606482015260840160405180910390fd5b600180546001600160a01b0319166001600160a01b039290921691909117905562000168565b600080546001600160a01b038381166001600160a01b0319831681178455604051919092169283917f8be0079c531659141344cd1fd0a4f28419497f9722a3daafe3b4186f6b6457e09190a35050565b6000602082840312156200014957600080fd5b81516001600160a01b03811681146200016157600080fd5b9392505050565b61298580620001786000396000f3fe60806040526004361061008f5760003560e01c806376e83d8d1161005657806376e83d8d146101235780638da5cb5b14610136578063c50c97d014610154578063ddca3f4314610174578063f2fde38b1461019757005b806301b886a2146100985780631e2d824a146100ab578063370158ea146100be5780636a103af7146100fb578063715018a61461010e57005b3661009657005b005b6100966100a6366004612589565b6101b7565b6100966100b9366004612589565b610260565b3480156100ca57600080fd5b506001546100de906001600160a01b031681565b6040516001600160a01b0390911681526020015b60405180910390f35b610096610109366004612589565b610515565b34801561011a57600080fd5b506100966105c5565b6100966101313660046124bd565b6105d9565b34801561014257600080fd5b506000546001600160a01b03166100de565b34801561016057600080fd5b5061009661016f366004612483565b610957565b34801561018057600080fd5b50610189610a27565b6040519081526020016100f2565b3480156101a357600080fd5b506100966101b2366004612483565b610c76565b6101bf610cef565b6101d46001600160a01b038316333089611029565b6000806101e5888888888888611094565b604080516060810182526001600160a01b038085168252831660208201528951805194965092945061025693909291830191906102249060019061287a565b81518110610234576102346128ee565b60200260200101516001600160a01b03166001600160a01b0316815250611686565b5050505050505050565b610268610cef565b61027d6001600160a01b038316333089611029565b60008061028e888888888888611094565b6001546040516321f8a72160e01b81527feea535ae568490881a1c023b77030d4e7b6f090754c8c96bb8b6dfe41aaac89960048201529294509092506000916001600160a01b03909116906321f8a7219060240160206040518083038186803b1580156102fa57600080fd5b505afa15801561030e573d6000803e3d6000fd5b505050506040513d601f19601f8201168201806040525081019061033291906124a0565b6040516370a0823160e01b81523060048201529091506001600160a01b03821690632e1a7d4d9082906370a082319060240160206040518083038186803b15801561037c57600080fd5b505afa158015610390573d6000803e3d6000fd5b505050506040513d601f19601f820116820180604052508101906103b49190612570565b6040518263ffffffff1660e01b81526004016103d291815260200190565b600060405180830381600087803b1580156103ec57600080fd5b505af1158015610400573d6000803e3d6000fd5b50506040516000925033915047908381818185875af1925050503d8060008114610446576040519150601f19603f3d011682016040523d82523d6000602084013e61044b565b606091505b50509050806104d35760405162461bcd60e51b815260206004820152604360248201527f4c50546f6b656e734d616e616765723a3a73656c6c4c6971756964697479455460448201527f483a207472616e736665722045544820746f20726563697065696e74206661696064820152621b195960ea1b608482015260a4015b60405180910390fd5b604080516060810182526001600160a01b038087168252851660208201528951805161050993830191906102249060019061287a565b50505050505050505050565b61051d610cef565b61055b333088876000015160008151811061053a5761053a6128ee565b60200260200101516001600160a01b0316611029909392919063ffffffff16565b60008061056c88888888888861179c565b915091506102566040518060600160405280846001600160a01b03166001600160a01b03168152602001836001600160a01b03166001600160a01b031681526020018860000151600081518110610234576102346128ee565b6105cd611dc8565b6105d76000611e22565b565b3460006105e4610a27565b905080156107fb576105f6818361287a565b6001546040516321f8a72160e01b81527f97b6c1bbfe58bd1142f870b705c6115c0d70f24d0df558bd3f57f082d456e89660048201529193506000916001600160a01b03909116906321f8a7219060240160206040518083038186803b15801561065f57600080fd5b505afa158015610673573d6000803e3d6000fd5b505050506040513d601f19601f8201168201806040525081019061069791906124a0565b90506001600160a01b0381166107215760405162461bcd60e51b815260206004820152604360248201527f4c50546f6b656e734d616e616765723a3a6275794c697175696469747945544860448201527f3a20696e76616c696420747265617375727920636f6e7472616374206164647260648201526265737360e81b608482015260a4016104ca565b6000816001600160a01b03168360405160006040518083038185875af1925050503d806000811461076e576040519150601f19603f3d011682016040523d82523d6000602084013e610773565b606091505b50509050806107f85760405162461bcd60e51b815260206004820152604560248201527f4c50546f6b656e734d616e616765723a3a6275794c697175696469747945544860448201527f3a207472616e736665722066656520746f207468652074726561737572792066606482015264185a5b195960da1b608482015260a4016104ca565b50505b6001546040516321f8a72160e01b81527feea535ae568490881a1c023b77030d4e7b6f090754c8c96bb8b6dfe41aaac89960048201526000916001600160a01b0316906321f8a7219060240160206040518083038186803b15801561085f57600080fd5b505afa158015610873573d6000803e3d6000fd5b505050506040513d601f19601f8201168201806040525081019061089791906124a0565b9050806001600160a01b031663d0e30db0846040518263ffffffff1660e01b81526004016000604051808303818588803b1580156108d457600080fd5b505af11580156108e8573d6000803e3d6000fd5b50505050506000806108fe858b8b8b8b8b61179c565b915091506105096040518060600160405280846001600160a01b03166001600160a01b03168152602001836001600160a01b03166001600160a01b031681526020018b60000151600081518110610234576102346128ee565b61095f611dc8565b6001600160a01b0381166109dd576040805162461bcd60e51b81526020600482015260248101919091527f4c50546f6b656e734d616e616765723a3a6368616e676553746f726167653a2060448201527f696e76616c69642073746f7261676520636f6e7472616374206164647265737360648201526084016104ca565b600180546001600160a01b0319166001600160a01b0383169081179091556040517f8cbb7a6ee88dbf214a9b660a9f1af063e42a24cbfe26a046a718b3f621baa53990600090a250565b60015460405163bd02d0f560e01b81527feebabcb54b738af1a03a24c286cb262943e64f88c2af668d107fd70d305229e7600482015260009182916001600160a01b039091169063bd02d0f59060240160206040518083038186803b158015610a8f57600080fd5b505afa158015610aa3573d6000803e3d6000fd5b505050506040513d601f19601f82011682018060405250810190610ac79190612570565b905080610ad657600091505090565b6001546040516321f8a72160e01b81527f65c90423fe7c880476633a7e36521740f87199d233dc56eb4ca6643eb76f605f60048201526000916001600160a01b0316906321f8a7219060240160206040518083038186803b158015610b3a57600080fd5b505afa158015610b4e573d6000803e3d6000fd5b505050506040513d601f19601f82011682018060405250810190610b7291906124a0565b6001600160a01b031663feaf968c6040518163ffffffff1660e01b815260040160a06040518083038186803b158015610baa57600080fd5b505afa158015610bbe573d6000803e3d6000fd5b505050506040513d601f19601f82011682018060405250810190610be29190612678565b50505091505060008113610c525760405162461bcd60e51b815260206004820152603160248201527f4c50546f6b656e734d616e616765723a3a6665653a20696e76616c6964207072604482015270696365206665656420726573706f6e736560781b60648201526084016104ca565b80610c6583670de0b6b3a764000061285b565b610c6f9190612839565b9250505090565b610c7e611dc8565b6001600160a01b038116610ce35760405162461bcd60e51b815260206004820152602660248201527f4f776e61626c653a206e6577206f776e657220697320746865207a65726f206160448201526564647265737360d01b60648201526084016104ca565b610cec81611e22565b50565b6000610cf9610a27565b905080610d035750565b80341015610d755760405162461bcd60e51b8152602060048201526045602482015260008051602061293083398151915260448201527f20696e73756666696369656e742066756e647320746f2070617920636f6d6d6960648201526439b9b4b7b760d91b608482015260a4016104ca565b6001546040516321f8a72160e01b81527f97b6c1bbfe58bd1142f870b705c6115c0d70f24d0df558bd3f57f082d456e89660048201526000916001600160a01b0316906321f8a7219060240160206040518083038186803b158015610dd957600080fd5b505afa158015610ded573d6000803e3d6000fd5b505050506040513d601f19601f82011682018060405250810190610e1191906124a0565b90506001600160a01b038116610e885760405162461bcd60e51b8152602060048201526042602482015260008051602061293083398151915260448201527f20696e76616c696420747265617375727920636f6e7472616374206164647265606482015261737360f01b608482015260a4016104ca565b6000816001600160a01b03168360405160006040518083038185875af1925050503d8060008114610ed5576040519150601f19603f3d011682016040523d82523d6000602084013e610eda565b606091505b5050905080610f4d5760405162461bcd60e51b815260206004820152604460248201819052600080516020612930833981519152908201527f207472616e736665722066656520746f207468652074726561737572792066616064820152631a5b195960e21b608482015260a4016104ca565b8234111561102457600033610f62853461287a565b604051600081818185875af1925050503d8060008114610f9e576040519150601f19603f3d011682016040523d82523d6000602084013e610fa3565b606091505b50509050806110225760405162461bcd60e51b8152602060048201526051602482015260008051602061293083398151915260448201527f207472616e73666572206f662072656d61696e656420746f6b656e7320746f206064820152701d1a19481cd95b99195c8819985a5b1959607a1b608482015260a4016104ca565b505b505050565b6040516001600160a01b03808516602483015283166044820152606481018290526110229085906323b872dd60e01b906084015b60408051601f198184030181529190526020810180516001600160e01b03166001600160e01b031990931692909217909152611e72565b60015460405160009182916001600160a01b0390911690637ae1cfca906110bf908a906020016126e4565b604051602081830303815290604052805190602001206040518263ffffffff1660e01b81526004016110f391815260200190565b60206040518083038186803b15801561110b57600080fd5b505afa15801561111f573d6000803e3d6000fd5b505050506040513d601f19601f82011682018060405250810190611143919061254e565b6111ae5760405162461bcd60e51b815260206004820152603660248201527f4c50546f6b656e734d616e616765723a3a73656c6c4c69717569646974793a20604482015275696e76616c696420726f75746572206164647265737360501b60648201526084016104ca565b845180516111be9060019061287a565b815181106111ce576111ce6128ee565b60200260200101516001600160a01b0316866000015160018860000151516111f6919061287a565b81518110611206576112066128ee565b60200260200101516001600160a01b0316146112805760405162461bcd60e51b815260206004820152603360248201527f4c50546f6b656e734d616e616765723a3a73656c6c4c697175646974793a20656044820152726e6420746f6b656e206e6f7420657175616c7360681b60648201526084016104ca565b836001600160a01b0316630dfe16816040518163ffffffff1660e01b815260040160206040518083038186803b1580156112b957600080fd5b505afa1580156112cd573d6000803e3d6000fd5b505050506040513d601f19601f820116820180604052508101906112f191906124a0565b9150816001600160a01b03168660000151600081518110611314576113146128ee565b60200260200101516001600160a01b0316146113885760405162461bcd60e51b815260206004820152602d60248201527f4c50546f6b656e734d616e616765723a3a73656c6c4c697175646974793a206960448201526c06e76616c696420746f6b656e3609c1b60648201526084016104ca565b836001600160a01b031663d21220a76040518163ffffffff1660e01b815260040160206040518083038186803b1580156113c157600080fd5b505afa1580156113d5573d6000803e3d6000fd5b505050506040513d601f19601f820116820180604052508101906113f991906124a0565b9050806001600160a01b0316856000015160008151811061141c5761141c6128ee565b60200260200101516001600160a01b0316146114905760405162461bcd60e51b815260206004820152602d60248201527f4c50546f6b656e734d616e616765723a3a73656c6c4c697175646974793a206960448201526c6e76616c696420746f6b656e3160981b60648201526084016104ca565b61149b84888a611f44565b604051635d5155ef60e11b81526001600160a01b0383811660048301528281166024830152604482018a905260006064830181905260848301523060a483015260c4820185905288169063baa2abde9060e4016040805180830381600087803b15801561150757600080fd5b505af115801561151b573d6000803e3d6000fd5b505050506040513d601f19601f8201168201806040525081019061153f9190612626565b50506040516370a0823160e01b81523060048201526000906001600160a01b038416906370a082319060240160206040518083038186803b15801561158357600080fd5b505afa158015611597573d6000803e3d6000fd5b505050506040513d601f19601f820116820180604052508101906115bb9190612570565b90506115c8838983611f44565b6115dd888289602001518a6000015188611ff1565b6040516370a0823160e01b81523060048201526000906001600160a01b038416906370a082319060240160206040518083038186803b15801561161f57600080fd5b505afa158015611633573d6000803e3d6000fd5b505050506040513d601f19601f820116820180604052508101906116579190612570565b9050611664838a83611f44565b611679898289602001518a6000015189611ff1565b5050965096945050505050565b60005b60038110156117985760008282600381106116a6576116a66128ee565b60200201516001600160a01b031614156116bf57611786565b60008282600381106116d3576116d36128ee565b60200201516040516370a0823160e01b81523060048201526001600160a01b03909116906370a082319060240160206040518083038186803b15801561171857600080fd5b505afa15801561172c573d6000803e3d6000fd5b505050506040513d601f19601f820116820180604052508101906117509190612570565b9050801561178457611784338285856003811061176f5761176f6128ee565b60200201516001600160a01b031691906120be565b505b80611790816128bd565b915050611689565b5050565b60015460405160009182916001600160a01b0390911690637ae1cfca906117c7908a906020016126e4565b604051602081830303815290604052805190602001206040518263ffffffff1660e01b81526004016117fb91815260200190565b60206040518083038186803b15801561181357600080fd5b505afa158015611827573d6000803e3d6000fd5b505050506040513d601f19601f8201168201806040525081019061184b919061254e565b6118b65760405162461bcd60e51b815260206004820152603660248201527f4c50546f6b656e734d616e616765723a3a5f6275794c69717569646974793a20604482015275696e76616c696420726f75746572206164647265737360501b60648201526084016104ca565b845180516000906118c9576118c96128ee565b60200260200101516001600160a01b031686600001516000815181106118f1576118f16128ee565b60200260200101516001600160a01b03161461196d5760405162461bcd60e51b815260206004820152603560248201527f4c50546f6b656e734d616e616765723a3a5f6275794c697175646974793a20736044820152747461727420746f6b656e206e6f7420657175616c7360581b60648201526084016104ca565b836001600160a01b0316630dfe16816040518163ffffffff1660e01b815260040160206040518083038186803b1580156119a657600080fd5b505afa1580156119ba573d6000803e3d6000fd5b505050506040513d601f19601f820116820180604052508101906119de91906124a0565b865180519193506001600160a01b038416916119fc9060019061287a565b81518110611a0c57611a0c6128ee565b60200260200101516001600160a01b031614611a805760405162461bcd60e51b815260206004820152602d60248201527f4c50546f6b656e734d616e616765723a3a5f6275794c697175646974793a206960448201526c06e76616c696420746f6b656e3609c1b60648201526084016104ca565b836001600160a01b031663d21220a76040518163ffffffff1660e01b815260040160206040518083038186803b158015611ab957600080fd5b505afa158015611acd573d6000803e3d6000fd5b505050506040513d601f19601f82011682018060405250810190611af191906124a0565b855180519192506001600160a01b03831691611b0f9060019061287a565b81518110611b1f57611b1f6128ee565b60200260200101516001600160a01b031614611b935760405162461bcd60e51b815260206004820152602d60248201527f4c50546f6b656e734d616e616765723a3a5f6275794c697175646974793a206960448201526c6e76616c696420746f6b656e3160981b60648201526084016104ca565b611bbc8660000151600081518110611bad57611bad6128ee565b6020026020010151888a611f44565b6000611bc960028a612839565b9050611be0888289602001518a6000015188611ff1565b6000611bec828b61287a565b9050611c03898289602001518a6000015189611ff1565b6040516370a0823160e01b81523060048201526001600160a01b038516906370a082319060240160206040518083038186803b158015611c4257600080fd5b505afa158015611c56573d6000803e3d6000fd5b505050506040513d601f19601f82011682018060405250810190611c7a9190612570565b6040516370a0823160e01b81523060048201529092506001600160a01b038416906370a082319060240160206040518083038186803b158015611cbc57600080fd5b505afa158015611cd0573d6000803e3d6000fd5b505050506040513d601f19601f82011682018060405250810190611cf49190612570565b9050611d01848a84611f44565b611d0c838a83611f44565b60405162e8e33760e81b81526001600160a01b0385811660048301528481166024830152604482018490526064820183905260006084830181905260a48301523360c483015260e482018790528a169063e8e337009061010401606060405180830381600087803b158015611d8057600080fd5b505af1158015611d94573d6000803e3d6000fd5b505050506040513d601f19601f82011682018060405250810190611db8919061264a565b5050505050965096945050505050565b6000546001600160a01b031633146105d75760405162461bcd60e51b815260206004820181905260248201527f4f776e61626c653a2063616c6c6572206973206e6f7420746865206f776e657260448201526064016104ca565b600080546001600160a01b038381166001600160a01b0319831681178455604051919092169283917f8be0079c531659141344cd1fd0a4f28419497f9722a3daafe3b4186f6b6457e09190a35050565b6000611ec7826040518060400160405280602081526020017f5361666545524332303a206c6f772d6c6576656c2063616c6c206661696c6564815250856001600160a01b03166120ee9092919063ffffffff16565b8051909150156110245780806020019051810190611ee5919061254e565b6110245760405162461bcd60e51b815260206004820152602a60248201527f5361666545524332303a204552433230206f7065726174696f6e20646964206e6044820152691bdd081cdd58d8d9595960b21b60648201526084016104ca565b604051636eb1769f60e11b81523060048201526001600160a01b03838116602483015284169063dd62ed3e9060440160206040518083038186803b158015611f8b57600080fd5b505afa158015611f9f573d6000803e3d6000fd5b505050506040513d601f19601f82011682018060405250810190611fc39190612570565b15611fdd57611fdd6001600160a01b038416836000612107565b6110246001600160a01b0384168383612107565b8160018351612000919061287a565b81518110612010576120106128ee565b60200260200101516001600160a01b031682600081518110612034576120346128ee565b60200260200101516001600160a01b03161415612050576120b7565b604051635c11d79560e01b81526001600160a01b03861690635c11d79590612084908790879087903090889060040161276e565b600060405180830381600087803b15801561209e57600080fd5b505af11580156120b2573d6000803e3d6000fd5b505050505b5050505050565b6040516001600160a01b03831660248201526044810182905261102490849063a9059cbb60e01b9060640161105d565b60606120fd848460008561222b565b90505b9392505050565b8015806121905750604051636eb1769f60e11b81523060048201526001600160a01b03838116602483015284169063dd62ed3e9060440160206040518083038186803b15801561215657600080fd5b505afa15801561216a573d6000803e3d6000fd5b505050506040513d601f19601f8201168201806040525081019061218e9190612570565b155b6121fb5760405162461bcd60e51b815260206004820152603660248201527f5361666545524332303a20617070726f76652066726f6d206e6f6e2d7a65726f60448201527520746f206e6f6e2d7a65726f20616c6c6f77616e636560501b60648201526084016104ca565b6040516001600160a01b03831660248201526044810182905261102490849063095ea7b360e01b9060640161105d565b60608247101561228c5760405162461bcd60e51b815260206004820152602660248201527f416464726573733a20696e73756666696369656e742062616c616e636520666f6044820152651c8818d85b1b60d21b60648201526084016104ca565b6001600160a01b0385163b6122e35760405162461bcd60e51b815260206004820152601d60248201527f416464726573733a2063616c6c20746f206e6f6e2d636f6e747261637400000060448201526064016104ca565b600080866001600160a01b031685876040516122ff91906126c8565b60006040518083038185875af1925050503d806000811461233c576040519150601f19603f3d011682016040523d82523d6000602084013e612341565b606091505b509150915061235182828661235c565b979650505050505050565b6060831561236b575081612100565b82511561237b5782518084602001fd5b8160405162461bcd60e51b81526004016104ca919061273b565b6000604082840312156123a757600080fd5b6123af6127df565b9050813567ffffffffffffffff808211156123c957600080fd5b818401915084601f8301126123dd57600080fd5b81356020828211156123f1576123f1612904565b8160051b9250612402818401612808565b8281528181019085830185870184018a101561241d57600080fd5b600096505b8487101561244c57803595506124378661291a565b85835260019690960195918301918301612422565b50808752505080860135818601525050505092915050565b805169ffffffffffffffffffff8116811461247e57600080fd5b919050565b60006020828403121561249557600080fd5b81356121008161291a565b6000602082840312156124b257600080fd5b81516121008161291a565b600080600080600060a086880312156124d557600080fd5b85356124e08161291a565b9450602086013567ffffffffffffffff808211156124fd57600080fd5b61250989838a01612395565b9550604088013591508082111561251f57600080fd5b5061252c88828901612395565b935050606086013561253d8161291a565b949793965091946080013592915050565b60006020828403121561256057600080fd5b8151801515811461210057600080fd5b60006020828403121561258257600080fd5b5051919050565b60008060008060008060c087890312156125a257600080fd5b8635955060208701356125b48161291a565b9450604087013567ffffffffffffffff808211156125d157600080fd5b6125dd8a838b01612395565b955060608901359150808211156125f357600080fd5b5061260089828a01612395565b93505060808701356126118161291a565b8092505060a087013590509295509295509295565b6000806040838503121561263957600080fd5b505080516020909101519092909150565b60008060006060848603121561265f57600080fd5b8351925060208401519150604084015190509250925092565b600080600080600060a0868803121561269057600080fd5b61269986612464565b94506020860151935060408601519250606086015191506126bc60808701612464565b90509295509295909350565b600082516126da818460208701612891565b9190910192915050565b7f4446483a436f6e74726163743a4c50546f6b656e734d616e616765723a616c6c81526a37bbb2b22937baba32b91d60a91b602082015260609190911b6bffffffffffffffffffffffff1916602b820152603f0190565b602081526000825180602084015261275a816040850160208701612891565b601f01601f19169190910160400192915050565b600060a082018783526020878185015260a0604085015281875180845260c086019150828901935060005b818110156127be5784516001600160a01b031683529383019391830191600101612799565b50506001600160a01b03969096166060850152505050608001529392505050565b6040805190810167ffffffffffffffff8111828210171561280257612802612904565b60405290565b604051601f8201601f1916810167ffffffffffffffff8111828210171561283157612831612904565b604052919050565b60008261285657634e487b7160e01b600052601260045260246000fd5b500490565b6000816000190483118215151615612875576128756128d8565b500290565b60008282101561288c5761288c6128d8565b500390565b60005b838110156128ac578181015183820152602001612894565b838111156110225750506000910152565b60006000198214156128d1576128d16128d8565b5060010190565b634e487b7160e01b600052601160045260246000fd5b634e487b7160e01b600052603260045260246000fd5b634e487b7160e01b600052604160045260246000fd5b6001600160a01b0381168114610cec57600080fdfe4c50546f6b656e734d616e616765723a3a5f706179436f6d6d697373696f6e3aa26469706673582212201135532588cc30eabd4631ff8c8e6cb7f34309b476c448efcfb83332414793e764736f6c63430008060033",
  "linkReferences": {},
  "deployedLinkReferences": {}
}