{
  "_format": "hh-sol-artifact-1",
  "contractName": "Balance",
  "sourceName": "contracts/Balance.sol",
  "abi": [
    {
      "inputs": [
        {
          "internalType": "address payable",
          "name": "_treasury",
          "type": "address"
        }
      ],
      "stateMutability": "nonpayable",
      "type": "constructor"
    },
    {
      "anonymous": false,
      "inputs": [
        {
          "indexed": true,
          "internalType": "uint256",
          "name": "bill",
          "type": "uint256"
        }
      ],
      "name": "AcceptClaim",
      "type": "event"
    },
    {
      "anonymous": false,
      "inputs": [
        {
          "indexed": true,
          "internalType": "address",
          "name": "account",
          "type": "address"
        },
        {
          "indexed": true,
          "internalType": "uint256",
          "name": "bill",
          "type": "uint256"
        },
        {
          "indexed": false,
          "internalType": "string",
          "name": "description",
          "type": "string"
        }
      ],
      "name": "Claim",
      "type": "event"
    },
    {
      "anonymous": false,
      "inputs": [
        {
          "indexed": true,
          "internalType": "address",
          "name": "consumer",
          "type": "address"
        }
      ],
      "name": "ConsumerAdded",
      "type": "event"
    },
    {
      "anonymous": false,
      "inputs": [
        {
          "indexed": true,
          "internalType": "address",
          "name": "consumer",
          "type": "address"
        }
      ],
      "name": "ConsumerRemoved",
      "type": "event"
    },
    {
      "anonymous": false,
      "inputs": [
        {
          "indexed": true,
          "internalType": "address",
          "name": "recipient",
          "type": "address"
        },
        {
          "indexed": false,
          "internalType": "uint256",
          "name": "amount",
          "type": "uint256"
        }
      ],
      "name": "Deposit",
      "type": "event"
    },
    {
      "anonymous": false,
      "inputs": [
        {
          "indexed": true,
          "internalType": "address",
          "name": "inspector",
          "type": "address"
        }
      ],
      "name": "InspectorAdded",
      "type": "event"
    },
    {
      "anonymous": false,
      "inputs": [
        {
          "indexed": true,
          "internalType": "address",
          "name": "inspector",
          "type": "address"
        }
      ],
      "name": "InspectorRemoved",
      "type": "event"
    },
    {
      "anonymous": false,
      "inputs": [
        {
          "indexed": true,
          "internalType": "address",
          "name": "previousOwner",
          "type": "address"
        },
        {
          "indexed": true,
          "internalType": "address",
          "name": "newOwner",
          "type": "address"
        }
      ],
      "name": "OwnershipTransferred",
      "type": "event"
    },
    {
      "anonymous": false,
      "inputs": [
        {
          "indexed": true,
          "internalType": "address",
          "name": "recipient",
          "type": "address"
        },
        {
          "indexed": false,
          "internalType": "uint256",
          "name": "amount",
          "type": "uint256"
        }
      ],
      "name": "Refund",
      "type": "event"
    },
    {
      "anonymous": false,
      "inputs": [
        {
          "indexed": true,
          "internalType": "uint256",
          "name": "bill",
          "type": "uint256"
        }
      ],
      "name": "RejectClaim",
      "type": "event"
    },
    {
      "anonymous": false,
      "inputs": [
        {
          "indexed": true,
          "internalType": "address",
          "name": "treasury",
          "type": "address"
        }
      ],
      "name": "TreasuryChanged",
      "type": "event"
    },
    {
      "inputs": [],
      "name": "MAXIMUM_CLAIM_PACKAGE",
      "outputs": [
        {
          "internalType": "uint256",
          "name": "",
          "type": "uint256"
        }
      ],
      "stateMutability": "view",
      "type": "function"
    },
    {
      "inputs": [],
      "name": "MAXIMUM_CONSUMER_COUNT",
      "outputs": [
        {
          "internalType": "uint256",
          "name": "",
          "type": "uint256"
        }
      ],
      "stateMutability": "view",
      "type": "function"
    },
    {
      "inputs": [],
      "name": "MAXIMUM_INSPECTOR_COUNT",
      "outputs": [
        {
          "internalType": "uint256",
          "name": "",
          "type": "uint256"
        }
      ],
      "stateMutability": "view",
      "type": "function"
    },
    {
      "inputs": [
        {
          "internalType": "uint256[]",
          "name": "_bills",
          "type": "uint256[]"
        },
        {
          "internalType": "uint256[]",
          "name": "gasFees",
          "type": "uint256[]"
        },
        {
          "internalType": "uint256[]",
          "name": "protocolFees",
          "type": "uint256[]"
        }
      ],
      "name": "acceptClaims",
      "outputs": [],
      "stateMutability": "nonpayable",
      "type": "function"
    },
    {
      "inputs": [
        {
          "internalType": "address",
          "name": "consumer",
          "type": "address"
        }
      ],
      "name": "addConsumer",
      "outputs": [],
      "stateMutability": "nonpayable",
      "type": "function"
    },
    {
      "inputs": [
        {
          "internalType": "address",
          "name": "inspector",
          "type": "address"
        }
      ],
      "name": "addInspector",
      "outputs": [],
      "stateMutability": "nonpayable",
      "type": "function"
    },
    {
      "inputs": [
        {
          "internalType": "address",
          "name": "",
          "type": "address"
        }
      ],
      "name": "balanceOf",
      "outputs": [
        {
          "internalType": "uint256",
          "name": "",
          "type": "uint256"
        }
      ],
      "stateMutability": "view",
      "type": "function"
    },
    {
      "inputs": [],
      "name": "billCount",
      "outputs": [
        {
          "internalType": "uint256",
          "name": "",
          "type": "uint256"
        }
      ],
      "stateMutability": "view",
      "type": "function"
    },
    {
      "inputs": [
        {
          "internalType": "uint256",
          "name": "",
          "type": "uint256"
        }
      ],
      "name": "bills",
      "outputs": [
        {
          "internalType": "uint256",
          "name": "id",
          "type": "uint256"
        },
        {
          "internalType": "address",
          "name": "claimant",
          "type": "address"
        },
        {
          "internalType": "address",
          "name": "account",
          "type": "address"
        },
        {
          "internalType": "uint256",
          "name": "gasFee",
          "type": "uint256"
        },
        {
          "internalType": "uint256",
          "name": "protocolFee",
          "type": "uint256"
        },
        {
          "internalType": "enum Balance.BillStatus",
          "name": "status",
          "type": "uint8"
        }
      ],
      "stateMutability": "view",
      "type": "function"
    },
    {
      "inputs": [
        {
          "internalType": "address payable",
          "name": "_treasury",
          "type": "address"
        }
      ],
      "name": "changeTreasury",
      "outputs": [],
      "stateMutability": "nonpayable",
      "type": "function"
    },
    {
      "inputs": [
        {
          "internalType": "address",
          "name": "account",
          "type": "address"
        },
        {
          "internalType": "uint256",
          "name": "gasFee",
          "type": "uint256"
        },
        {
          "internalType": "uint256",
          "name": "protocolFee",
          "type": "uint256"
        },
        {
          "internalType": "string",
          "name": "description",
          "type": "string"
        }
      ],
      "name": "claim",
      "outputs": [
        {
          "internalType": "uint256",
          "name": "",
          "type": "uint256"
        }
      ],
      "stateMutability": "nonpayable",
      "type": "function"
    },
    {
      "inputs": [
        {
          "internalType": "address",
          "name": "",
          "type": "address"
        }
      ],
      "name": "claimOf",
      "outputs": [
        {
          "internalType": "uint256",
          "name": "",
          "type": "uint256"
        }
      ],
      "stateMutability": "view",
      "type": "function"
    },
    {
      "inputs": [],
      "name": "consumers",
      "outputs": [
        {
          "internalType": "address[]",
          "name": "",
          "type": "address[]"
        }
      ],
      "stateMutability": "view",
      "type": "function"
    },
    {
      "inputs": [
        {
          "internalType": "address",
          "name": "recipient",
          "type": "address"
        }
      ],
      "name": "deposit",
      "outputs": [],
      "stateMutability": "payable",
      "type": "function"
    },
    {
      "inputs": [],
      "name": "inspectors",
      "outputs": [
        {
          "internalType": "address[]",
          "name": "",
          "type": "address[]"
        }
      ],
      "stateMutability": "view",
      "type": "function"
    },
    {
      "inputs": [
        {
          "internalType": "address",
          "name": "account",
          "type": "address"
        }
      ],
      "name": "netBalanceOf",
      "outputs": [
        {
          "internalType": "uint256",
          "name": "",
          "type": "uint256"
        }
      ],
      "stateMutability": "view",
      "type": "function"
    },
    {
      "inputs": [],
      "name": "owner",
      "outputs": [
        {
          "internalType": "address",
          "name": "",
          "type": "address"
        }
      ],
      "stateMutability": "view",
      "type": "function"
    },
    {
      "inputs": [
        {
          "internalType": "uint256",
          "name": "amount",
          "type": "uint256"
        }
      ],
      "name": "refund",
      "outputs": [],
      "stateMutability": "nonpayable",
      "type": "function"
    },
    {
      "inputs": [
        {
          "internalType": "uint256[]",
          "name": "_bills",
          "type": "uint256[]"
        }
      ],
      "name": "rejectClaims",
      "outputs": [],
      "stateMutability": "nonpayable",
      "type": "function"
    },
    {
      "inputs": [
        {
          "internalType": "address",
          "name": "consumer",
          "type": "address"
        }
      ],
      "name": "removeConsumer",
      "outputs": [],
      "stateMutability": "nonpayable",
      "type": "function"
    },
    {
      "inputs": [
        {
          "internalType": "address",
          "name": "inspector",
          "type": "address"
        }
      ],
      "name": "removeInspector",
      "outputs": [],
      "stateMutability": "nonpayable",
      "type": "function"
    },
    {
      "inputs": [],
      "name": "renounceOwnership",
      "outputs": [],
      "stateMutability": "nonpayable",
      "type": "function"
    },
    {
      "inputs": [
        {
          "internalType": "address",
          "name": "newOwner",
          "type": "address"
        }
      ],
      "name": "transferOwnership",
      "outputs": [],
      "stateMutability": "nonpayable",
      "type": "function"
    },
    {
      "inputs": [],
      "name": "treasury",
      "outputs": [
        {
          "internalType": "address payable",
          "name": "",
          "type": "address"
        }
      ],
      "stateMutability": "view",
      "type": "function"
    }
  ],
  "bytecode": "0x60806040523480156200001157600080fd5b5060405162001ec738038062001ec78339810160408190526200003491620000b5565b6200003f3362000065565b600180546001600160a01b0319166001600160a01b0392909216919091179055620000e7565b600080546001600160a01b038381166001600160a01b0319831681178455604051919092169283917f8be0079c531659141344cd1fd0a4f28419497f9722a3daafe3b4186f6b6457e09190a35050565b600060208284031215620000c857600080fd5b81516001600160a01b0381168114620000e057600080fd5b9392505050565b611dd080620000f76000396000f3fe60806040526004361061014b5760003560e01c806370a08231116100b6578063b14f2a391161006f578063b14f2a39146103e7578063e211544a14610257578063e578a22514610407578063f2fde38b14610427578063f340fa0114610447578063fccd7f721461045a57600080fd5b806370a0823114610332578063715018a61461035f5780637c70e791146103745780637e458492146103945780638da5cb5b146103b4578063ac6f2f2d146103d257600080fd5b8063332d950f11610108578063332d950f1461026c57806341dc341214610282578063435e298014610298578063473f0175146102ba57806361d027b3146102da57806365e3527d1461031257600080fd5b80630b986a50146101505780630e27e3df14610183578063112940f9146101a5578063278ecde1146101c557806328bdcde8146101e5578063328199b714610257575b600080fd5b34801561015c57600080fd5b5061017061016b3660046119a5565b610487565b6040519081526020015b60405180910390f35b34801561018f57600080fd5b506101a361019e3660046119a5565b6104bb565b005b3480156101b157600080fd5b506101a36101c03660046119a5565b61057c565b3480156101d157600080fd5b506101a36101e0366004611b42565b6106b3565b3480156101f157600080fd5b50610245610200366004611b42565b60086020526000908152604090208054600182015460028301546003840154600485015460059095015493946001600160a01b03938416949290931692909160ff1686565b60405161017a96959493929190611c41565b34801561026357600080fd5b50610170606481565b34801561027857600080fd5b506101706101f481565b34801561028e57600080fd5b5061017060095481565b3480156102a457600080fd5b506102ad610830565b60405161017a9190611b5b565b3480156102c657600080fd5b506101a36102d5366004611aba565b6108e3565b3480156102e657600080fd5b506001546102fa906001600160a01b031681565b6040516001600160a01b03909116815260200161017a565b34801561031e57600080fd5b506101a361032d366004611a7d565b610ce2565b34801561033e57600080fd5b5061017061034d3660046119a5565b60066020526000908152604090205481565b34801561036b57600080fd5b506101a3610f2a565b34801561038057600080fd5b506101a361038f3660046119a5565b610f3e565b3480156103a057600080fd5b506101a36103af3660046119a5565b610ffc565b3480156103c057600080fd5b506000546001600160a01b03166102fa565b3480156103de57600080fd5b506102ad611135565b3480156103f357600080fd5b506101a36104023660046119a5565b6111e2565b34801561041357600080fd5b506101706104223660046119c2565b611234565b34801561043357600080fd5b506101a36104423660046119a5565b6114f8565b6101a36104553660046119a5565b611571565b34801561046657600080fd5b506101706104753660046119a5565b60076020526000908152604090205481565b6001600160a01b03811660009081526007602090815260408083205460069092528220546104b59190611ce5565b92915050565b6104c36116a4565b6104ce6004826116fe565b6105395760405162461bcd60e51b815260206004820152603160248201527f42616c616e63653a3a72656d6f7665436f6e73756d65723a20636f6e73756d656044820152701c88185b1c9958591e481c995b5bdd9959607a1b60648201526084015b60405180910390fd5b610544600482611723565b506040516001600160a01b038216907fe3f5ed5f263f1f01764a96edfc7d025f511ec5f7d180e8816908b78bcf74f09890600090a250565b6105846116a4565b61058f6004826116fe565b156105f15760405162461bcd60e51b815260206004820152602c60248201527f42616c616e63653a3a616464436f6e73756d65723a20636f6e73756d6572206160448201526b1b1c9958591e48185919195960a21b6064820152608401610530565b60646105fd6004611738565b106106705760405162461bcd60e51b815260206004820152603c60248201527f42616c616e63653a3a616464436f6e73756d65723a20636f6e73756d6572206d60448201527f757374206e6f7420657863656564206d6178696d756d20636f756e74000000006064820152608401610530565b61067b600482611742565b506040516001600160a01b038216907f28b26e7a3d20aedbc5f8f2ebf7da671c0491723a2b78f47a097b0e46dee0714290600090a250565b33816107125760405162461bcd60e51b815260206004820152602860248201527f42616c616e63653a3a726566756e643a206e65676174697665206f72207a65726044820152671bc81c99599d5b9960c21b6064820152608401610530565b61071b81610487565b8211156107855760405162461bcd60e51b815260206004820152603260248201527f42616c616e63653a3a726566756e643a20726566756e6420616d6f756e742065604482015271786365656473206e65742062616c616e636560701b6064820152608401610530565b6001600160a01b038116600090815260066020526040812080548492906107ad908490611ce5565b90915550506040516001600160a01b0382169083156108fc029084906000818181858888f193505050501580156107e8573d6000803e3d6000fd5b50806001600160a01b03167fbb28353e4598c3b9199101a66e0989549b659a59a54d2c27fbb183f1932c8e6d8360405161082491815260200190565b60405180910390a25050565b6060600061083e6004611738565b67ffffffffffffffff81111561085657610856611d6f565b60405190808252806020026020018201604052801561087f578160200160208202803683370190505b50905060005b61088f6004611738565b8110156108dd576108a1600482611757565b8282815181106108b3576108b3611d59565b6001600160a01b0390921660209283029190910190910152806108d581611cfc565b915050610885565b50919050565b6108f0335b6002906116fe565b61090c5760405162461bcd60e51b815260040161053090611bfd565b8151835114801561091e575080518351145b6109785760405162461bcd60e51b815260206004820152602560248201527f42616c616e63653a3a616363657074436c61696d733a206172697479206d69736044820152640dac2e8c6d60db1b6064820152608401610530565b6101f4835111156109da5760405162461bcd60e51b815260206004820152602660248201527f42616c616e63653a3a616363657074436c61696d733a20746f6f206d616e7920604482015265636c61696d7360d01b6064820152608401610530565b6000805b8451811015610ca05760008582815181106109fb576109fb611d59565b60200260200101519050600081118015610a1757506009548111155b610a715760405162461bcd60e51b815260206004820152602560248201527f42616c616e63653a3a616363657074436c61696d733a2062696c6c206e6f7420604482015264199bdd5b9960da1b6064820152608401610530565b6000858381518110610a8557610a85611d59565b602002602001015190506000858481518110610aa357610aa3611d59565b6020026020010151905060008183610abb9190611ccd565b6000858152600860205260408120600481015460038201549394509092610ae29190611ccd565b90506000600583015460ff166002811115610aff57610aff611d2d565b14610b625760405162461bcd60e51b815260206004820152602d60248201527f42616c616e63653a3a616363657074436c61696d733a2062696c6c20616c726560448201526c18591e481c1c9bd8d95cdcd959609a1b6064820152608401610530565b80831115610bce5760405162461bcd60e51b815260206004820152603360248201527f42616c616e63653a3a616363657074436c61696d733a20636c61696d20616d6f604482015272756e742065786365656473206d61782066656560681b6064820152608401610530565b60058201805460ff19166001179055600382018590556004820184905560028201546001600160a01b031660009081526007602052604081208054839290610c17908490611ce5565b909155505060028201546001600160a01b031660009081526006602052604081208054859290610c48908490611ce5565b90915550610c5890508389611ccd565b8254604051919950907f799d0ccabf9cc5c53a2860d6b8133855f77618de4233ce9bb031395090d1c08090600090a25050505050508080610c9890611cfc565b9150506109de565b506001546040516001600160a01b039091169082156108fc029083906000818181858888f19350505050158015610cdb573d6000803e3d6000fd5b5050505050565b610ceb336108e8565b610d075760405162461bcd60e51b815260040161053090611bfd565b6101f4815110610d685760405162461bcd60e51b815260206004820152602660248201527f42616c616e63653a3a72656a656374436c61696d733a20746f6f206d616e7920604482015265636c61696d7360d01b6064820152608401610530565b60005b8151811015610f26576000828281518110610d8857610d88611d59565b60200260200101519050600081118015610da457506009548111155b610dfe5760405162461bcd60e51b815260206004820152602560248201527f42616c616e63653a3a72656a656374436c61696d733a2062696c6c206e6f7420604482015264199bdd5b9960da1b6064820152608401610530565b600081815260086020526040812090600582015460ff166002811115610e2657610e26611d2d565b14610e895760405162461bcd60e51b815260206004820152602d60248201527f42616c616e63653a3a72656a656374436c61696d733a2062696c6c20616c726560448201526c18591e481c1c9bd8d95cdcd959609a1b6064820152608401610530565b600081600401548260030154610e9f9190611ccd565b60058301805460ff191660029081179091558301546001600160a01b0316600090815260076020526040812080549293508392909190610ee0908490611ce5565b909155505081546040517f64133ae74e171ef7ce5b71e32115aba7117a4f1bd6ef67b768668f5af1af97ad90600090a25050508080610f1e90611cfc565b915050610d6b565b5050565b610f326116a4565b610f3c6000611763565b565b610f466116a4565b610f516002826116fe565b610fb95760405162461bcd60e51b815260206004820152603360248201527f42616c616e63653a3a72656d6f7665496e73706563746f723a20696e737065636044820152721d1bdc88185b1c9958591e481c995b5bdd9959606a1b6064820152608401610530565b610fc4600282611723565b506040516001600160a01b038216907f737c9e54b555afb1794817809534974cb61ead2136d82d4a8fecb34d0932922090600090a250565b6110046116a4565b61100f6002826116fe565b156110735760405162461bcd60e51b815260206004820152602e60248201527f42616c616e63653a3a616464496e73706563746f723a20696e73706563746f7260448201526d08185b1c9958591e48185919195960921b6064820152608401610530565b606461107f6002611738565b106110f25760405162461bcd60e51b815260206004820152603e60248201527f42616c616e63653a3a616464496e73706563746f723a20696e73706563746f7260448201527f206d757374206e6f7420657863656564206d6178696d756d20636f756e7400006064820152608401610530565b6110fd600282611742565b506040516001600160a01b038216907f9ca2a3611f65b351a79d20d5314a16e37fe9b947d2a36232e101bd615994450390600090a250565b606060006111436002611738565b67ffffffffffffffff81111561115b5761115b611d6f565b604051908082528060200260200182016040528015611184578160200160208202803683370190505b50905060005b6111946002611738565b8110156108dd576111a6600282611757565b8282815181106111b8576111b8611d59565b6001600160a01b0390921660209283029190910190910152806111da81611cfc565b91505061118a565b6111ea6116a4565b600180546001600160a01b0319166001600160a01b0383169081179091556040517fc714d22a2f08b695f81e7c707058db484aa5b4d6b4c9fd64beb10fe85832f60890600090a250565b6000326001600160a01b038616148061125357506112536004326116fe565b6112a95760405162461bcd60e51b815260206004820152602160248201527f42616c616e63653a2063616c6c6572206973206e6f74206120636f6e73756d656044820152603960f91b6064820152608401610530565b60006112b58486611ccd565b9050600081116113165760405162461bcd60e51b815260206004820152602660248201527f42616c616e63653a3a636c61696d3a206e65676174697665206f72207a65726f60448201526520636c61696d60d01b6064820152608401610530565b61131f86610487565b8111156113875760405162461bcd60e51b815260206004820152603060248201527f42616c616e63653a3a636c61696d3a20636c61696d20616d6f756e742065786360448201526f65656473206e65742062616c616e636560801b6064820152608401610530565b6001600160a01b038616600090815260076020526040812080548392906113af908490611ccd565b9091555050600980549060006113c483611cfc565b91905055506040518060c0016040528060095481526020016113e33390565b6001600160a01b039081168252881660208201526040810187905260608101869052608001600090526009546000908152600860209081526040918290208351815590830151600180830180546001600160a01b039384166001600160a01b0319918216179091559385015160028085018054929094169190951617909155606084015160038301556080840151600483015560a084015160058301805493949193909260ff1990911691849081111561149f5761149f611d2d565b0217905550905050600954866001600160a01b03167f58fb02bcfedd338314c70bcf748b4f71a01259cf8956f31b34cb09acf29809cb856040516114e39190611ba8565b60405180910390a35050600954949350505050565b6115006116a4565b6001600160a01b0381166115655760405162461bcd60e51b815260206004820152602660248201527f4f776e61626c653a206e6577206f776e657220697320746865207a65726f206160448201526564647265737360d01b6064820152608401610530565b61156e81611763565b50565b6001600160a01b0381166115d35760405162461bcd60e51b815260206004820152602360248201527f42616c616e63653a3a6465706f7369743a20696e76616c696420726563697069604482015262195b9d60ea1b6064820152608401610530565b600034116116365760405162461bcd60e51b815260206004820152602a60248201527f42616c616e63653a3a6465706f7369743a206e65676174697665206f72207a656044820152691c9bc819195c1bdcda5d60b21b6064820152608401610530565b6001600160a01b0381166000908152600660205260408120805434929061165e908490611ccd565b90915550506040513481526001600160a01b038216907fe1fffcc4923d04b559f4d29a8bfc6cda04eb5b0d3c460751c2402c5c5cc9109c9060200160405180910390a250565b6000546001600160a01b03163314610f3c5760405162461bcd60e51b815260206004820181905260248201527f4f776e61626c653a2063616c6c6572206973206e6f7420746865206f776e65726044820152606401610530565b6001600160a01b038116600090815260018301602052604081205415155b9392505050565b600061171c836001600160a01b0384166117b3565b60006104b5825490565b600061171c836001600160a01b0384166118a6565b600061171c83836118f5565b600080546001600160a01b038381166001600160a01b0319831681178455604051919092169283917f8be0079c531659141344cd1fd0a4f28419497f9722a3daafe3b4186f6b6457e09190a35050565b6000818152600183016020526040812054801561189c5760006117d7600183611ce5565b85549091506000906117eb90600190611ce5565b905081811461185057600086600001828154811061180b5761180b611d59565b906000526020600020015490508087600001848154811061182e5761182e611d59565b6000918252602080832090910192909255918252600188019052604090208390555b855486908061186157611861611d43565b6001900381819060005260206000200160009055905585600101600086815260200190815260200160002060009055600193505050506104b5565b60009150506104b5565b60008181526001830160205260408120546118ed575081546001818101845560008481526020808220909301849055845484825282860190935260409020919091556104b5565b5060006104b5565b600082600001828154811061190c5761190c611d59565b9060005260206000200154905092915050565b600082601f83011261193057600080fd5b8135602067ffffffffffffffff82111561194c5761194c611d6f565b8160051b61195b828201611c9c565b83815282810190868401838801850189101561197657600080fd5b600093505b8584101561199957803583526001939093019291840191840161197b565b50979650505050505050565b6000602082840312156119b757600080fd5b813561171c81611d85565b600080600080608085870312156119d857600080fd5b84356119e381611d85565b9350602085810135935060408601359250606086013567ffffffffffffffff80821115611a0f57600080fd5b818801915088601f830112611a2357600080fd5b813581811115611a3557611a35611d6f565b611a47601f8201601f19168501611c9c565b91508082528984828501011115611a5d57600080fd5b808484018584013760008482840101525080935050505092959194509250565b600060208284031215611a8f57600080fd5b813567ffffffffffffffff811115611aa657600080fd5b611ab28482850161191f565b949350505050565b600080600060608486031215611acf57600080fd5b833567ffffffffffffffff80821115611ae757600080fd5b611af38783880161191f565b94506020860135915080821115611b0957600080fd5b611b158783880161191f565b93506040860135915080821115611b2b57600080fd5b50611b388682870161191f565b9150509250925092565b600060208284031215611b5457600080fd5b5035919050565b6020808252825182820181905260009190848201906040850190845b81811015611b9c5783516001600160a01b031683529284019291840191600101611b77565b50909695505050505050565b600060208083528351808285015260005b81811015611bd557858101830151858201604001528201611bb9565b81811115611be7576000604083870101525b50601f01601f1916929092016040019392505050565b60208082526024908201527f42616c616e63653a2063616c6c6572206973206e6f742074686520696e73706560408201526331ba37b960e11b606082015260800190565b8681526001600160a01b03868116602083015285166040820152606081018490526080810183905260c0810160038310611c8b57634e487b7160e01b600052602160045260246000fd5b8260a0830152979650505050505050565b604051601f8201601f1916810167ffffffffffffffff81118282101715611cc557611cc5611d6f565b604052919050565b60008219821115611ce057611ce0611d17565b500190565b600082821015611cf757611cf7611d17565b500390565b6000600019821415611d1057611d10611d17565b5060010190565b634e487b7160e01b600052601160045260246000fd5b634e487b7160e01b600052602160045260246000fd5b634e487b7160e01b600052603160045260246000fd5b634e487b7160e01b600052603260045260246000fd5b634e487b7160e01b600052604160045260246000fd5b6001600160a01b038116811461156e57600080fdfea2646970667358221220b4d017d64db2e37f6f3565e67ec7ebcd53303791f80b07469de73e10ca768e0a64736f6c63430008060033",
  "linkReferences": {},
  "deployedLinkReferences": {}
}