{
  "_format": "hh-sol-artifact-1",
  "contractName": "LPTokensManager",
  "sourceName": "contracts/automate/Uni3/LPTokensManager.sol",
  "abi": [
    {
      "inputs": [
        {
          "internalType": "address",
          "name": "_info",
          "type": "address"
        }
      ],
      "stateMutability": "nonpayable",
      "type": "constructor"
    },
    {
      "anonymous": false,
      "inputs": [
        {
          "indexed": false,
          "internalType": "address",
          "name": "buyer",
          "type": "address"
        },
        {
          "indexed": false,
          "internalType": "address",
          "name": "pool",
          "type": "address"
        },
        {
          "indexed": false,
          "internalType": "uint128",
          "name": "liquidity",
          "type": "uint128"
        },
        {
          "indexed": false,
          "internalType": "uint256",
          "name": "tokenId",
          "type": "uint256"
        }
      ],
      "name": "BuyLiquidity",
      "type": "event"
    },
    {
      "anonymous": false,
      "inputs": [
        {
          "indexed": true,
          "internalType": "address",
          "name": "previousOwner",
          "type": "address"
        },
        {
          "indexed": true,
          "internalType": "address",
          "name": "newOwner",
          "type": "address"
        }
      ],
      "name": "OwnershipTransferred",
      "type": "event"
    },
    {
      "anonymous": false,
      "inputs": [
        {
          "indexed": false,
          "internalType": "address",
          "name": "seller",
          "type": "address"
        },
        {
          "indexed": false,
          "internalType": "address",
          "name": "pool",
          "type": "address"
        },
        {
          "indexed": false,
          "internalType": "uint128",
          "name": "liquidity",
          "type": "uint128"
        }
      ],
      "name": "SellLiquidity",
      "type": "event"
    },
    {
      "anonymous": false,
      "inputs": [
        {
          "indexed": true,
          "internalType": "address",
          "name": "info",
          "type": "address"
        }
      ],
      "name": "StorageChanged",
      "type": "event"
    },
    {
      "stateMutability": "payable",
      "type": "fallback"
    },
    {
      "inputs": [
        {
          "components": [
            {
              "internalType": "address",
              "name": "positionManager",
              "type": "address"
            },
            {
              "internalType": "address",
              "name": "router",
              "type": "address"
            },
            {
              "internalType": "address",
              "name": "from",
              "type": "address"
            },
            {
              "internalType": "uint256",
              "name": "amount",
              "type": "uint256"
            },
            {
              "components": [
                {
                  "internalType": "bytes",
                  "name": "path",
                  "type": "bytes"
                },
                {
                  "internalType": "uint256",
                  "name": "outMin",
                  "type": "uint256"
                }
              ],
              "internalType": "struct LPTokensManager.Swap",
              "name": "swap",
              "type": "tuple"
            },
            {
              "internalType": "address",
              "name": "to",
              "type": "address"
            },
            {
              "internalType": "int24",
              "name": "tickLower",
              "type": "int24"
            },
            {
              "internalType": "int24",
              "name": "tickUpper",
              "type": "int24"
            },
            {
              "internalType": "uint256",
              "name": "deadline",
              "type": "uint256"
            }
          ],
          "internalType": "struct LPTokensManager.BuyLiquidityParams",
          "name": "params",
          "type": "tuple"
        }
      ],
      "name": "buyLiquidity",
      "outputs": [],
      "stateMutability": "payable",
      "type": "function"
    },
    {
      "inputs": [
        {
          "components": [
            {
              "internalType": "address",
              "name": "positionManager",
              "type": "address"
            },
            {
              "internalType": "address",
              "name": "router",
              "type": "address"
            },
            {
              "internalType": "address",
              "name": "from",
              "type": "address"
            },
            {
              "internalType": "uint256",
              "name": "amount",
              "type": "uint256"
            },
            {
              "components": [
                {
                  "internalType": "bytes",
                  "name": "path",
                  "type": "bytes"
                },
                {
                  "internalType": "uint256",
                  "name": "outMin",
                  "type": "uint256"
                }
              ],
              "internalType": "struct LPTokensManager.Swap",
              "name": "swap",
              "type": "tuple"
            },
            {
              "internalType": "address",
              "name": "to",
              "type": "address"
            },
            {
              "internalType": "int24",
              "name": "tickLower",
              "type": "int24"
            },
            {
              "internalType": "int24",
              "name": "tickUpper",
              "type": "int24"
            },
            {
              "internalType": "uint256",
              "name": "deadline",
              "type": "uint256"
            }
          ],
          "internalType": "struct LPTokensManager.BuyLiquidityParams",
          "name": "params",
          "type": "tuple"
        }
      ],
      "name": "buyLiquidityETH",
      "outputs": [],
      "stateMutability": "payable",
      "type": "function"
    },
    {
      "inputs": [
        {
          "internalType": "address",
          "name": "_info",
          "type": "address"
        }
      ],
      "name": "changeStorage",
      "outputs": [],
      "stateMutability": "nonpayable",
      "type": "function"
    },
    {
      "inputs": [],
      "name": "fee",
      "outputs": [
        {
          "internalType": "uint256",
          "name": "",
          "type": "uint256"
        }
      ],
      "stateMutability": "view",
      "type": "function"
    },
    {
      "inputs": [],
      "name": "info",
      "outputs": [
        {
          "internalType": "contract Storage",
          "name": "",
          "type": "address"
        }
      ],
      "stateMutability": "view",
      "type": "function"
    },
    {
      "inputs": [
        {
          "internalType": "address",
          "name": "",
          "type": "address"
        },
        {
          "internalType": "address",
          "name": "",
          "type": "address"
        },
        {
          "internalType": "uint256",
          "name": "",
          "type": "uint256"
        },
        {
          "internalType": "bytes",
          "name": "",
          "type": "bytes"
        }
      ],
      "name": "onERC721Received",
      "outputs": [
        {
          "internalType": "bytes4",
          "name": "",
          "type": "bytes4"
        }
      ],
      "stateMutability": "pure",
      "type": "function"
    },
    {
      "inputs": [],
      "name": "owner",
      "outputs": [
        {
          "internalType": "address",
          "name": "",
          "type": "address"
        }
      ],
      "stateMutability": "view",
      "type": "function"
    },
    {
      "inputs": [],
      "name": "renounceOwnership",
      "outputs": [],
      "stateMutability": "nonpayable",
      "type": "function"
    },
    {
      "inputs": [
        {
          "components": [
            {
              "internalType": "address",
              "name": "positionManager",
              "type": "address"
            },
            {
              "internalType": "address",
              "name": "router",
              "type": "address"
            },
            {
              "internalType": "uint256",
              "name": "from",
              "type": "uint256"
            },
            {
              "components": [
                {
                  "internalType": "bytes",
                  "name": "path",
                  "type": "bytes"
                },
                {
                  "internalType": "uint256",
                  "name": "outMin",
                  "type": "uint256"
                }
              ],
              "internalType": "struct LPTokensManager.Swap",
              "name": "swap",
              "type": "tuple"
            },
            {
              "internalType": "address",
              "name": "to",
              "type": "address"
            },
            {
              "internalType": "uint256",
              "name": "deadline",
              "type": "uint256"
            }
          ],
          "internalType": "struct LPTokensManager.SellLiquidityParams",
          "name": "params",
          "type": "tuple"
        }
      ],
      "name": "sellLiquidity",
      "outputs": [],
      "stateMutability": "payable",
      "type": "function"
    },
    {
      "inputs": [
        {
          "components": [
            {
              "internalType": "address",
              "name": "positionManager",
              "type": "address"
            },
            {
              "internalType": "address",
              "name": "router",
              "type": "address"
            },
            {
              "internalType": "uint256",
              "name": "from",
              "type": "uint256"
            },
            {
              "components": [
                {
                  "internalType": "bytes",
                  "name": "path",
                  "type": "bytes"
                },
                {
                  "internalType": "uint256",
                  "name": "outMin",
                  "type": "uint256"
                }
              ],
              "internalType": "struct LPTokensManager.Swap",
              "name": "swap",
              "type": "tuple"
            },
            {
              "internalType": "address",
              "name": "to",
              "type": "address"
            },
            {
              "internalType": "uint256",
              "name": "deadline",
              "type": "uint256"
            }
          ],
          "internalType": "struct LPTokensManager.SellLiquidityParams",
          "name": "params",
          "type": "tuple"
        }
      ],
      "name": "sellLiquidityETH",
      "outputs": [],
      "stateMutability": "payable",
      "type": "function"
    },
    {
      "inputs": [
        {
          "internalType": "address",
          "name": "newOwner",
          "type": "address"
        }
      ],
      "name": "transferOwnership",
      "outputs": [],
      "stateMutability": "nonpayable",
      "type": "function"
    },
    {
      "stateMutability": "payable",
      "type": "receive"
    }
  ],
  "bytecode": "0x60806040523480156200001157600080fd5b5060405162002f2838038062002f28833981016040819052620000349162000136565b6200003f33620000e6565b6001600160a01b038116620000c05760405162461bcd60e51b815260206004820152603e60248201527f4c50546f6b656e734d616e616765723a3a636f6e7374727563746f723a20696e60448201527f76616c69642073746f7261676520636f6e747261637420616464726573730000606482015260840160405180910390fd5b600180546001600160a01b0319166001600160a01b039290921691909117905562000168565b600080546001600160a01b038381166001600160a01b0319831681178455604051919092169283917f8be0079c531659141344cd1fd0a4f28419497f9722a3daafe3b4186f6b6457e09190a35050565b6000602082840312156200014957600080fd5b81516001600160a01b03811681146200016157600080fd5b9392505050565b612db080620001786000396000f3fe60806040526004361061009a5760003560e01c80637d6deed9116100615780637d6deed91461017957806385612ded1461018c5780638da5cb5b1461019f578063c50c97d0146101bd578063ddca3f43146101dd578063f2fde38b1461020057005b8063150b7a02146100a3578063370158ea14610106578063697567001461013e5780636ed54e7e14610151578063715018a61461016457005b366100a157005b005b3480156100af57600080fd5b506100e86100be3660046126fe565b7f150b7a023d4804d13e8c85fb27262cb750cf6ba9f9dd3bb30d90f482ceeb4b1f95945050505050565b6040516001600160e01b031990911681526020015b60405180910390f35b34801561011257600080fd5b50600154610126906001600160a01b031681565b6040516001600160a01b0390911681526020016100fd565b6100a161014c3660046127dc565b610220565b6100a161015f366004612818565b61025e565b34801561017057600080fd5b506100a1610277565b6100a16101873660046127dc565b61028b565b6100a161019a366004612818565b6105b3565b3480156101ab57600080fd5b506000546001600160a01b0316610126565b3480156101c957600080fd5b506100a16101d83660046126c4565b61080c565b3480156101e957600080fd5b506101f26108dc565b6040519081526020016100fd565b34801561020c57600080fd5b506100a161021b3660046126c4565b610b2b565b610228610ba1565b61025233306060840180359061024190604087016126c4565b6001600160a01b0316929190610ed9565b61025b81610f31565b50565b610266610ba1565b61025b6102728261180d565b612015565b61027f612130565b610289600061218a565b565b3460006102966108dc565b905080156104b2576102a88183612cac565b6001546040516321f8a72160e01b81527f97b6c1bbfe58bd1142f870b705c6115c0d70f24d0df558bd3f57f082d456e89660048201529193506000916001600160a01b03909116906321f8a7219060240160206040518083038186803b15801561031157600080fd5b505afa158015610325573d6000803e3d6000fd5b505050506040513d601f19601f8201168201806040525081019061034991906126e1565b90506001600160a01b0381166103d85760405162461bcd60e51b815260206004820152604360248201527f4c50546f6b656e734d616e616765723a3a6275794c697175696469747945544860448201527f3a20696e76616c696420747265617375727920636f6e7472616374206164647260648201526265737360e81b608482015260a4015b60405180910390fd5b6000816001600160a01b03168360405160006040518083038185875af1925050503d8060008114610425576040519150601f19603f3d011682016040523d82523d6000602084013e61042a565b606091505b50509050806104af5760405162461bcd60e51b815260206004820152604560248201527f4c50546f6b656e734d616e616765723a3a6275794c697175696469747945544860448201527f3a207472616e736665722066656520746f207468652074726561737572792066606482015264185a5b195960da1b608482015260a4016103cf565b50505b6001546040516321f8a72160e01b81527feea535ae568490881a1c023b77030d4e7b6f090754c8c96bb8b6dfe41aaac89960048201526000916001600160a01b0316906321f8a7219060240160206040518083038186803b15801561051657600080fd5b505afa15801561052a573d6000803e3d6000fd5b505050506040513d601f19601f8201168201806040525081019061054e91906126e1565b9050806001600160a01b031663d0e30db0846040518263ffffffff1660e01b81526004016000604051808303818588803b15801561058b57600080fd5b505af115801561059f573d6000803e3d6000fd5b50505050506105ad84610f31565b50505050565b6105bb610ba1565b60006105c68261180d565b6001546040516321f8a72160e01b81527feea535ae568490881a1c023b77030d4e7b6f090754c8c96bb8b6dfe41aaac89960048201529192506000916001600160a01b03909116906321f8a7219060240160206040518083038186803b15801561062f57600080fd5b505afa158015610643573d6000803e3d6000fd5b505050506040513d601f19601f8201168201806040525081019061066791906126e1565b6040516370a0823160e01b81523060048201529091506001600160a01b03821690632e1a7d4d9082906370a082319060240160206040518083038186803b1580156106b157600080fd5b505afa1580156106c5573d6000803e3d6000fd5b505050506040513d601f19601f820116820180604052508101906106e9919061286e565b6040518263ffffffff1660e01b815260040161070791815260200190565b600060405180830381600087803b15801561072157600080fd5b505af1158015610735573d6000803e3d6000fd5b50506040516000925033915047908381818185875af1925050503d806000811461077b576040519150601f19603f3d011682016040523d82523d6000602084013e610780565b606091505b50509050806108035760405162461bcd60e51b815260206004820152604360248201527f4c50546f6b656e734d616e616765723a3a73656c6c4c6971756964697479455460448201527f483a207472616e736665722045544820746f20726563697065696e74206661696064820152621b195960ea1b608482015260a4016103cf565b6105ad83612015565b610814612130565b6001600160a01b038116610892576040805162461bcd60e51b81526020600482015260248101919091527f4c50546f6b656e734d616e616765723a3a6368616e676553746f726167653a2060448201527f696e76616c69642073746f7261676520636f6e7472616374206164647265737360648201526084016103cf565b600180546001600160a01b0319166001600160a01b0383169081179091556040517f8cbb7a6ee88dbf214a9b660a9f1af063e42a24cbfe26a046a718b3f621baa53990600090a250565b60015460405163bd02d0f560e01b81527fbf87aff93d717d71764878875a8e175a6f2571e88c479e99581ec562ac73bee0600482015260009182916001600160a01b039091169063bd02d0f59060240160206040518083038186803b15801561094457600080fd5b505afa158015610958573d6000803e3d6000fd5b505050506040513d601f19601f8201168201806040525081019061097c919061286e565b90508061098b57600091505090565b6001546040516321f8a72160e01b81527f65c90423fe7c880476633a7e36521740f87199d233dc56eb4ca6643eb76f605f60048201526000916001600160a01b0316906321f8a7219060240160206040518083038186803b1580156109ef57600080fd5b505afa158015610a03573d6000803e3d6000fd5b505050506040513d601f19601f82011682018060405250810190610a2791906126e1565b6001600160a01b031663feaf968c6040518163ffffffff1660e01b815260040160a06040518083038186803b158015610a5f57600080fd5b505afa158015610a73573d6000803e3d6000fd5b505050506040513d601f19601f82011682018060405250810190610a9791906128e7565b50505091505060008113610b075760405162461bcd60e51b815260206004820152603160248201527f4c50546f6b656e734d616e616765723a3a6665653a20696e76616c6964207072604482015270696365206665656420726573706f6e736560781b60648201526084016103cf565b80610b1a83670de0b6b3a7640000612c8d565b610b249190612c6b565b9250505090565b610b33612130565b6001600160a01b038116610b985760405162461bcd60e51b815260206004820152602660248201527f4f776e61626c653a206e6577206f776e657220697320746865207a65726f206160448201526564647265737360d01b60648201526084016103cf565b61025b8161218a565b6000610bab6108dc565b905080610bb55750565b80341015610c275760405162461bcd60e51b81526020600482015260456024820152600080516020612d5b83398151915260448201527f20696e73756666696369656e742066756e647320746f2070617920636f6d6d6960648201526439b9b4b7b760d91b608482015260a4016103cf565b6001546040516321f8a72160e01b81527f97b6c1bbfe58bd1142f870b705c6115c0d70f24d0df558bd3f57f082d456e89660048201526000916001600160a01b0316906321f8a7219060240160206040518083038186803b158015610c8b57600080fd5b505afa158015610c9f573d6000803e3d6000fd5b505050506040513d601f19601f82011682018060405250810190610cc391906126e1565b90506001600160a01b038116610d3a5760405162461bcd60e51b81526020600482015260426024820152600080516020612d5b83398151915260448201527f20696e76616c696420747265617375727920636f6e7472616374206164647265606482015261737360f01b608482015260a4016103cf565b6000816001600160a01b03168360405160006040518083038185875af1925050503d8060008114610d87576040519150601f19603f3d011682016040523d82523d6000602084013e610d8c565b606091505b5050905080610dff5760405162461bcd60e51b815260206004820152604460248201819052600080516020612d5b833981519152908201527f207472616e736665722066656520746f207468652074726561737572792066616064820152631a5b195960e21b608482015260a4016103cf565b82341115610ed457600033610e148534612cac565b604051600081818185875af1925050503d8060008114610e50576040519150601f19603f3d011682016040523d82523d6000602084013e610e55565b606091505b50509050806105ad5760405162461bcd60e51b81526020600482015260516024820152600080516020612d5b83398151915260448201527f207472616e73666572206f662072656d61696e656420746f6b656e7320746f206064820152701d1a19481cd95b99195c8819985a5b1959607a1b608482015260a4016103cf565b505050565b6105ad846323b872dd60e01b858585604051602401610efa93929190612a60565b60408051601f198184030181529190526020810180516001600160e01b03166001600160e01b0319909316929092179091526121da565b6000610f4360c0830160a084016126c4565b6001600160a01b0316630dfe16816040518163ffffffff1660e01b815260040160206040518083038186803b158015610f7b57600080fd5b505afa158015610f8f573d6000803e3d6000fd5b505050506040513d601f19601f82011682018060405250810190610fb391906126e1565b90506000610fc760c0840160a085016126c4565b6001600160a01b031663d21220a76040518163ffffffff1660e01b815260040160206040518083038186803b158015610fff57600080fd5b505afa158015611013573d6000803e3d6000fd5b505050506040513d601f19601f8201168201806040525081019061103791906126e1565b9050600061104b60c0850160a086016126c4565b6001600160a01b031663ddca3f436040518163ffffffff1660e01b815260040160206040518083038186803b15801561108357600080fd5b505afa158015611097573d6000803e3d6000fd5b505050506040513d601f19601f820116820180604052508101906110bb9190612853565b90506001600160a01b0383166110d760608601604087016126c4565b6001600160a01b03161415801561110f57506001600160a01b03821661110360608601604087016126c4565b6001600160a01b031614155b156112515761114161112760608601604087016126c4565b61113760408701602088016126c4565b86606001356122ac565b61115160408501602086016126c4565b6001600160a01b031663b858183f604051806080016040528087806080019061117a9190612c55565b6111849080612c07565b8080601f0160208091040260200160405190810160405280939291908181526020018383808284376000920191909152505050908252503060208201526060808901356040830152016111da6080890189612c55565b602001358152506040518263ffffffff1660e01b81526004016111fd9190612a97565b602060405180830381600087803b15801561121757600080fd5b505af115801561122b573d6000803e3d6000fd5b505050506040513d601f19601f8201168201806040525081019061124f919061286e565b505b6040516370a0823160e01b81523060048201526000906001600160a01b038516906370a082319060240160206040518083038186803b15801561129357600080fd5b505afa1580156112a7573d6000803e3d6000fd5b505050506040513d601f19601f820116820180604052508101906112cb919061286e565b6040516370a0823160e01b81523060048201529091506000906001600160a01b038516906370a082319060240160206040518083038186803b15801561131057600080fd5b505afa158015611324573d6000803e3d6000fd5b505050506040513d601f19601f82011682018060405250810190611348919061286e565b90506000818311611359578461135b565b855b9050600082841161136c578661136e565b855b9050600060028486116113815784611383565b855b61138d9190612c6b565b90506113a9836113a360408c0160208d016126c4565b836122ac565b6113b960408a0160208b016126c4565b6040805160e0810182526001600160a01b038681168252858116602083015262ffffff8a168284015230606083015260808201859052600060a0830181905260c083015291516304e45aaf60e01b815292909116916304e45aaf9161142091600401612ae5565b602060405180830381600087803b15801561143a57600080fd5b505af115801561144e573d6000803e3d6000fd5b505050506040513d601f19601f82011682018060405250810190611472919061286e565b506040516370a0823160e01b81523060048201526001600160a01b038916906370a082319060240160206040518083038186803b1580156114b257600080fd5b505afa1580156114c6573d6000803e3d6000fd5b505050506040513d601f19601f820116820180604052508101906114ea919061286e565b6040516370a0823160e01b81523060048201529095506001600160a01b038816906370a082319060240160206040518083038186803b15801561152c57600080fd5b505afa158015611540573d6000803e3d6000fd5b505050506040513d601f19601f82011682018060405250810190611564919061286e565b935061157d8861157760208c018c6126c4565b876122ac565b6115948761158e60208c018c6126c4565b866122ac565b6000806115a460208c018c6126c4565b6001600160a01b031663883164566040518061016001604052808d6001600160a01b031681526020018c6001600160a01b031681526020018b62ffffff1681526020018e60c00160208101906115fa91906127bf565b60020b81526020018e60e001602081019061161591906127bf565b60020b81526020018a81526020018981526020016000815260200160008152602001306001600160a01b031681526020018e61010001358152506040518263ffffffff1660e01b815260040161166b9190612b43565b608060405180830381600087803b15801561168557600080fd5b505af1158015611699573d6000803e3d6000fd5b505050506040513d601f19601f820116820180604052508101906116bd9190612887565b5091935091506116d2905060208c018c6126c4565b6001600160a01b03166342842e0e3033856040518463ffffffff1660e01b815260040161170193929190612a60565b600060405180830381600087803b15801561171b57600080fd5b505af115801561172f573d6000803e3d6000fd5b5050505061179460405180606001604052808c6001600160a01b03166001600160a01b031681526020018b6001600160a01b03166001600160a01b031681526020018d604001602081019061178491906126c4565b6001600160a01b03169052612015565b7fc067f3232bbb44fc17671247b37a6cd47d789a6e7dd7e78e8d099da5fd174a24336117c660c08e0160a08f016126c4565b604080516001600160a01b0393841681529290911660208301526001600160801b038416908201526060810184905260800160405180910390a15050505050505050505050565b611815612647565b600061182460208401846126c4565b9050806001600160a01b03166342842e0e333086604001356040518463ffffffff1660e01b815260040161185a93929190612a60565b600060405180830381600087803b15801561187457600080fd5b505af1158015611888573d6000803e3d6000fd5b50505050600080600080846001600160a01b03166399fbab8888604001356040518263ffffffff1660e01b81526004016118c491815260200190565b6101806040518083038186803b1580156118dd57600080fd5b505afa1580156118f1573d6000803e3d6000fd5b505050506040513d601f19601f820116820180604052508101906119159190612937565b505050509750505095509550955050506000816001600160801b03161115611a0d576040805160a080820183528983013582526001600160801b0384811660208401908152600084860181815260608601918252938d0135608086019081529551630624e65f60e11b8152945160048601529051909116602484015290516044830152516064820152905160848201526001600160a01b03861690630c49ccbe9060a4016040805180830381600087803b1580156119d257600080fd5b505af11580156119e6573d6000803e3d6000fd5b505050506040513d601f19601f82011682018060405250810190611a0a91906128c3565b50505b6040805160808101825288820135815230602082019081526001600160801b0382840181815260608401828152945163fc6f786560e01b81529351600485015291516001600160a01b039081166024850152915181166044840152925190921660648201529086169063fc6f7865906084016040805180830381600087803b158015611a9857600080fd5b505af1158015611aac573d6000803e3d6000fd5b505050506040513d601f19601f82011682018060405250810190611ad091906128c3565b505060408051632142170760e11b81526001600160a01b038716916342842e0e91611b0591309133918d013590600401612a60565b600060405180830381600087803b158015611b1f57600080fd5b505af1158015611b33573d6000803e3d6000fd5b50506040516370a0823160e01b8152306004820152600092506001600160a01b03871691506370a082319060240160206040518083038186803b158015611b7957600080fd5b505afa158015611b8d573d6000803e3d6000fd5b505050506040513d601f19601f82011682018060405250810190611bb1919061286e565b6040516370a0823160e01b81523060048201529091506000906001600160a01b038616906370a082319060240160206040518083038186803b158015611bf657600080fd5b505afa158015611c0a573d6000803e3d6000fd5b505050506040513d601f19601f82011682018060405250810190611c2e919061286e565b90506000818311611c3f5786611c41565b855b90506000828411611c525786611c54565b875b90506000838511611c655784611c67565b835b9050611c80838d60200160208101906113a391906126c4565b611c9060408d0160208e016126c4565b6040805160e0810182526001600160a01b038681168252858116602083015262ffffff8b168284015230606083015260808201859052600060a0830181905260c083015291516304e45aaf60e01b815292909116916304e45aaf91611cf791600401612ae5565b602060405180830381600087803b158015611d1157600080fd5b505af1158015611d25573d6000803e3d6000fd5b505050506040513d601f19601f82011682018060405250810190611d49919061286e565b50611d5a60a08d0160808e016126c4565b6001600160a01b0316896001600160a01b031614158015611d9c5750611d8660a08d0160808e016126c4565b6001600160a01b0316886001600160a01b031614155b15611f4457611db8828d60200160208101906113a391906126c4565b611dc860408d0160208e016126c4565b6001600160a01b031663b858183f60405180608001604052808f8060600190611df19190612c55565b611dfb9080612c07565b8080601f0160208091040260200160405190810160405280939291908181526020018383808284376000920191909152505050908252503060208201819052604080516370a0823160e01b81526004810192909252909101906001600160a01b038716906370a082319060240160206040518083038186803b158015611e8057600080fd5b505afa158015611e94573d6000803e3d6000fd5b505050506040513d601f19601f82011682018060405250810190611eb8919061286e565b81526020018f8060600190611ecd9190612c55565b602001358152506040518263ffffffff1660e01b8152600401611ef09190612a97565b602060405180830381600087803b158015611f0a57600080fd5b505af1158015611f1e573d6000803e3d6000fd5b505050506040513d601f19601f82011682018060405250810190611f42919061286e565b505b7fc2f44b6f7f434453eaa435d9b27173c4e58935da562b7ea62110a1a7a7eed440338d6080016020810190611f7991906126c4565b604080516001600160a01b0393841681529290911660208301526001600160801b0389169082015260600160405180910390a160405180606001604052808a6001600160a01b03166001600160a01b03168152602001896001600160a01b03166001600160a01b031681526020018d6080016020810190611ffa91906126c4565b6001600160a01b031690529c9b505050505050505050505050565b60005b600381101561212c57600082826003811061203557612035612d20565b60200201516001600160a01b0316141561204e5761211a565b600082826003811061206257612062612d20565b60200201516040516370a0823160e01b81523060048201526001600160a01b03909116906370a082319060240160206040518083038186803b1580156120a757600080fd5b505afa1580156120bb573d6000803e3d6000fd5b505050506040513d601f19601f820116820180604052508101906120df919061286e565b9050806120ec575061211a565b612118338285856003811061210357612103612d20565b60200201516001600160a01b03169190612370565b505b8061212481612cef565b915050612018565b5050565b6000546001600160a01b031633146102895760405162461bcd60e51b815260206004820181905260248201527f4f776e61626c653a2063616c6c6572206973206e6f7420746865206f776e657260448201526064016103cf565b600080546001600160a01b038381166001600160a01b0319831681178455604051919092169283917f8be0079c531659141344cd1fd0a4f28419497f9722a3daafe3b4186f6b6457e09190a35050565b600061222f826040518060400160405280602081526020017f5361666545524332303a206c6f772d6c6576656c2063616c6c206661696c6564815250856001600160a01b03166123a09092919063ffffffff16565b805190915015610ed4578080602001905181019061224d919061279d565b610ed45760405162461bcd60e51b815260206004820152602a60248201527f5361666545524332303a204552433230206f7065726174696f6e20646964206e6044820152691bdd081cdd58d8d9595960b21b60648201526084016103cf565b604051636eb1769f60e11b81523060048201526001600160a01b0383811660248301526000919085169063dd62ed3e9060440160206040518083038186803b1580156122f757600080fd5b505afa15801561230b573d6000803e3d6000fd5b505050506040513d601f19601f8201168201806040525081019061232f919061286e565b90508181111561233f5750505050565b801561235a5761235a6001600160a01b0385168460006123b9565b6105ad6001600160a01b038516846000196123b9565b6040516001600160a01b038316602482015260448101829052610ed490849063a9059cbb60e01b90606401610efa565b60606123af84846000856124dd565b90505b9392505050565b8015806124425750604051636eb1769f60e11b81523060048201526001600160a01b03838116602483015284169063dd62ed3e9060440160206040518083038186803b15801561240857600080fd5b505afa15801561241c573d6000803e3d6000fd5b505050506040513d601f19601f82011682018060405250810190612440919061286e565b155b6124ad5760405162461bcd60e51b815260206004820152603660248201527f5361666545524332303a20617070726f76652066726f6d206e6f6e2d7a65726f60448201527520746f206e6f6e2d7a65726f20616c6c6f77616e636560501b60648201526084016103cf565b6040516001600160a01b038316602482015260448101829052610ed490849063095ea7b360e01b90606401610efa565b60608247101561253e5760405162461bcd60e51b815260206004820152602660248201527f416464726573733a20696e73756666696369656e742062616c616e636520666f6044820152651c8818d85b1b60d21b60648201526084016103cf565b6001600160a01b0385163b6125955760405162461bcd60e51b815260206004820152601d60248201527f416464726573733a2063616c6c20746f206e6f6e2d636f6e747261637400000060448201526064016103cf565b600080866001600160a01b031685876040516125b19190612a44565b60006040518083038185875af1925050503d80600081146125ee576040519150601f19603f3d011682016040523d82523d6000602084013e6125f3565b606091505b509150915061260382828661260e565b979650505050505050565b6060831561261d5750816123b2565b82511561262d5782518084602001fd5b8160405162461bcd60e51b81526004016103cf9190612a84565b60405180606001604052806003906020820280368337509192915050565b805161267081612d36565b919050565b805161267081612d4b565b80516001600160801b038116811461267057600080fd5b805162ffffff8116811461267057600080fd5b805169ffffffffffffffffffff8116811461267057600080fd5b6000602082840312156126d657600080fd5b81356123b281612d36565b6000602082840312156126f357600080fd5b81516123b281612d36565b60008060008060006080868803121561271657600080fd5b853561272181612d36565b9450602086013561273181612d36565b935060408601359250606086013567ffffffffffffffff8082111561275557600080fd5b818801915088601f83011261276957600080fd5b81358181111561277857600080fd5b89602082850101111561278a57600080fd5b9699959850939650602001949392505050565b6000602082840312156127af57600080fd5b815180151581146123b257600080fd5b6000602082840312156127d157600080fd5b81356123b281612d4b565b6000602082840312156127ee57600080fd5b813567ffffffffffffffff81111561280557600080fd5b820161012081850312156123b257600080fd5b60006020828403121561282a57600080fd5b813567ffffffffffffffff81111561284157600080fd5b820160c081850312156123b257600080fd5b60006020828403121561286557600080fd5b6123b282612697565b60006020828403121561288057600080fd5b5051919050565b6000806000806080858703121561289d57600080fd5b845193506128ad60208601612680565b6040860151606090960151949790965092505050565b600080604083850312156128d657600080fd5b505080516020909101519092909150565b600080600080600060a086880312156128ff57600080fd5b612908866126aa565b945060208601519350604086015192506060860151915061292b608087016126aa565b90509295509295909350565b6000806000806000806000806000806000806101808d8f03121561295a57600080fd5b8c516bffffffffffffffffffffffff8116811461297657600080fd5b9b5061298460208e01612665565b9a5061299260408e01612665565b99506129a060608e01612665565b98506129ae60808e01612697565b97506129bc60a08e01612675565b96506129ca60c08e01612675565b95506129d860e08e01612680565b94506101008d015193506101208d015192506129f76101408e01612680565b9150612a066101608e01612680565b90509295989b509295989b509295989b565b60008151808452612a30816020860160208601612cc3565b601f01601f19169290920160200192915050565b60008251612a56818460208701612cc3565b9190910192915050565b6001600160a01b039384168152919092166020820152604081019190915260600190565b6020815260006123b26020830184612a18565b602081526000825160806020840152612ab360a0840182612a18565b905060018060a01b03602085015116604084015260408401516060840152606084015160808401528091505092915050565b81516001600160a01b03908116825260208084015182169083015260408084015162ffffff16908301526060808401518216908301526080808401519083015260a0838101519083015260c092830151169181019190915260e00190565b81516001600160a01b0316815261016081016020830151612b6f60208401826001600160a01b03169052565b506040830151612b86604084018262ffffff169052565b506060830151612b9b606084018260020b9052565b506080830151612bb0608084018260020b9052565b5060a083015160a083015260c083015160c083015260e083015160e083015261010080840151818401525061012080840151612bf6828501826001600160a01b03169052565b505061014092830151919092015290565b6000808335601e19843603018112612c1e57600080fd5b83018035915067ffffffffffffffff821115612c3957600080fd5b602001915036819003821315612c4e57600080fd5b9250929050565b60008235603e19833603018112612a5657600080fd5b600082612c8857634e487b7160e01b600052601260045260246000fd5b500490565b6000816000190483118215151615612ca757612ca7612d0a565b500290565b600082821015612cbe57612cbe612d0a565b500390565b60005b83811015612cde578181015183820152602001612cc6565b838111156105ad5750506000910152565b6000600019821415612d0357612d03612d0a565b5060010190565b634e487b7160e01b600052601160045260246000fd5b634e487b7160e01b600052603260045260246000fd5b6001600160a01b038116811461025b57600080fd5b8060020b811461025b57600080fdfe4c50546f6b656e734d616e616765723a3a5f706179436f6d6d697373696f6e3aa2646970667358221220cabbdb7b8228a69a17c90c2f1df31f3455cfdb02028dfb00129a8461767897fe64736f6c63430008060033",
  "linkReferences": {},
  "deployedLinkReferences": {}
}