{
  "_format": "hh-sol-artifact-1",
  "contractName": "HandlerMock",
  "sourceName": "contracts/automate/SmartTrade/mock/HandlerMock.sol",
  "abi": [
    {
      "inputs": [
        {
          "internalType": "address",
          "name": "_router",
          "type": "address"
        }
      ],
      "stateMutability": "nonpayable",
      "type": "constructor"
    },
    {
      "inputs": [
        {
          "components": [
            {
              "internalType": "address",
              "name": "tokenIn",
              "type": "address"
            },
            {
              "internalType": "address",
              "name": "tokenOut",
              "type": "address"
            },
            {
              "internalType": "uint256",
              "name": "amountIn",
              "type": "uint256"
            },
            {
              "internalType": "uint256",
              "name": "amountOut",
              "type": "uint256"
            }
          ],
          "internalType": "struct HandlerMock.OrderData",
          "name": "data",
          "type": "tuple"
        }
      ],
      "name": "callDataEncode",
      "outputs": [
        {
          "internalType": "bytes",
          "name": "",
          "type": "bytes"
        }
      ],
      "stateMutability": "pure",
      "type": "function"
    },
    {
      "inputs": [
        {
          "components": [
            {
              "internalType": "uint256",
              "name": "id",
              "type": "uint256"
            },
            {
              "internalType": "address",
              "name": "owner",
              "type": "address"
            },
            {
              "internalType": "enum Router.OrderStatus",
              "name": "status",
              "type": "uint8"
            },
            {
              "internalType": "address",
              "name": "handler",
              "type": "address"
            },
            {
              "internalType": "bytes",
              "name": "callData",
              "type": "bytes"
            }
          ],
          "internalType": "struct Router.Order",
          "name": "order",
          "type": "tuple"
        }
      ],
      "name": "handle",
      "outputs": [],
      "stateMutability": "nonpayable",
      "type": "function"
    },
    {
      "inputs": [
        {
          "components": [
            {
              "internalType": "uint256",
              "name": "id",
              "type": "uint256"
            },
            {
              "internalType": "address",
              "name": "owner",
              "type": "address"
            },
            {
              "internalType": "enum Router.OrderStatus",
              "name": "status",
              "type": "uint8"
            },
            {
              "internalType": "address",
              "name": "handler",
              "type": "address"
            },
            {
              "internalType": "bytes",
              "name": "callData",
              "type": "bytes"
            }
          ],
          "internalType": "struct Router.Order",
          "name": "order",
          "type": "tuple"
        }
      ],
      "name": "onOrderCreated",
      "outputs": [],
      "stateMutability": "view",
      "type": "function"
    },
    {
      "inputs": [],
      "name": "router",
      "outputs": [
        {
          "internalType": "address",
          "name": "",
          "type": "address"
        }
      ],
      "stateMutability": "view",
      "type": "function"
    }
  ],
  "bytecode": "0x608060405234801561001057600080fd5b50604051610a73380380610a7383398101604081905261002f916100d4565b6001600160a01b0381166100af5760405162461bcd60e51b815260206004820152603960248201527f48616e646c65724d6f636b3a3a636f6e7374727563746f723a20696e76616c6960448201527f6420726f7574657220636f6e7472616374206164647265737300000000000000606482015260840160405180910390fd5b600080546001600160a01b0319166001600160a01b0392909216919091179055610104565b6000602082840312156100e657600080fd5b81516001600160a01b03811681146100fd57600080fd5b9392505050565b610960806101136000396000f3fe608060405234801561001057600080fd5b506004361061004c5760003560e01c80630f96a8b4146100515780636ae1f04e14610066578063e3aa7d0b1461008f578063f887ea40146100a2575b600080fd5b61006461005f366004610765565b6100cd565b005b6100796100743660046106cd565b61011e565b6040516100869190610801565b60405180910390f35b61006461009d366004610765565b610147565b6000546100b5906001600160a01b031681565b6040516001600160a01b039091168152602001610086565b6000546001600160a01b031633146101005760405162461bcd60e51b81526004016100f790610814565b60405180910390fd5b61010d60808201826108ac565b81019061011a91906106e5565b5050565b6060816040516020016101319190610865565b6040516020818303038152906040529050919050565b6000546001600160a01b031633146101715760405162461bcd60e51b81526004016100f790610814565b600061018060808301836108ac565b81019061018d91906106e5565b6000549091506001600160a01b0316806382ad6f356101b26040860160208701610690565b845160408087015190516001600160e01b031960e086901b1681526001600160a01b0393841660048201529290911660248301526044820152606401600060405180830381600087803b15801561020857600080fd5b505af115801561021c573d6000803e3d6000fd5b5050506060830151602084015161023f92506001600160a01b03169083906102d4565b6001600160a01b038116638340f54961025e6040860160208701610690565b602085015160608601516040516001600160e01b031960e086901b1681526001600160a01b0393841660048201529290911660248301526044820152606401600060405180830381600087803b1580156102b757600080fd5b505af11580156102cb573d6000803e3d6000fd5b50505050505050565b80158061035d5750604051636eb1769f60e11b81523060048201526001600160a01b03838116602483015284169063dd62ed3e9060440160206040518083038186803b15801561032357600080fd5b505afa158015610337573d6000803e3d6000fd5b505050506040513d601f19601f8201168201806040525081019061035b91906107a0565b155b6103c85760405162461bcd60e51b815260206004820152603660248201527f5361666545524332303a20617070726f76652066726f6d206e6f6e2d7a65726f60448201527520746f206e6f6e2d7a65726f20616c6c6f77616e636560501b60648201526084016100f7565b604080516001600160a01b038416602482015260448082018490528251808303909101815260649091019091526020810180516001600160e01b031663095ea7b360e01b17905261041a90849061041f565b505050565b6000610474826040518060400160405280602081526020017f5361666545524332303a206c6f772d6c6576656c2063616c6c206661696c6564815250856001600160a01b03166104f19092919063ffffffff16565b80519091501561041a578080602001905181019061049291906106ab565b61041a5760405162461bcd60e51b815260206004820152602a60248201527f5361666545524332303a204552433230206f7065726174696f6e20646964206e6044820152691bdd081cdd58d8d9595960b21b60648201526084016100f7565b6060610500848460008561050a565b90505b9392505050565b60608247101561056b5760405162461bcd60e51b815260206004820152602660248201527f416464726573733a20696e73756666696369656e742062616c616e636520666f6044820152651c8818d85b1b60d21b60648201526084016100f7565b6001600160a01b0385163b6105c25760405162461bcd60e51b815260206004820152601d60248201527f416464726573733a2063616c6c20746f206e6f6e2d636f6e747261637400000060448201526064016100f7565b600080866001600160a01b031685876040516105de91906107e5565b60006040518083038185875af1925050503d806000811461061b576040519150601f19603f3d011682016040523d82523d6000602084013e610620565b606091505b509150915061063082828661063b565b979650505050505050565b6060831561064a575081610503565b82511561065a5782518084602001fd5b8160405162461bcd60e51b81526004016100f79190610801565b80356001600160a01b038116811461068b57600080fd5b919050565b6000602082840312156106a257600080fd5b61050382610674565b6000602082840312156106bd57600080fd5b8151801515811461050357600080fd5b6000608082840312156106df57600080fd5b50919050565b6000608082840312156106f757600080fd5b6040516080810181811067ffffffffffffffff8211171561072857634e487b7160e01b600052604160045260246000fd5b60405261073483610674565b815261074260208401610674565b602082015260408301356040820152606083013560608201528091505092915050565b60006020828403121561077757600080fd5b813567ffffffffffffffff81111561078e57600080fd5b820160a0818503121561050357600080fd5b6000602082840312156107b257600080fd5b5051919050565b600081518084526107d18160208601602086016108fa565b601f01601f19169290920160200192915050565b600082516107f78184602087016108fa565b9190910192915050565b60208152600061050360208301846107b9565b60208082526031908201527f48616e646c65724d6f636b3a3a6f6e6c79526f757465723a2063616c6c65722060408201527034b9903737ba103a3432903937baba32b960791b606082015260800190565b608081016001600160a01b038061087b85610674565b1683528061088b60208601610674565b16602084015250604083013560408301526060830135606083015292915050565b6000808335601e198436030181126108c357600080fd5b83018035915067ffffffffffffffff8211156108de57600080fd5b6020019150368190038213156108f357600080fd5b9250929050565b60005b838110156109155781810151838201526020016108fd565b83811115610924576000848401525b5050505056fea264697066735822122053217670d142ecfb59edd965008bb5bf9f92c3c7bda2b597bdcac312a2614caf64736f6c63430008060033",
  "linkReferences": {},
  "deployedLinkReferences": {}
}