{
  "_format": "hh-sol-artifact-1",
  "contractName": "SmartTradeHandlerMock",
  "sourceName": "contracts/automate/SmartTrade/mock/HandlerMock.sol",
  "abi": [
    {
      "inputs": [
        {
          "internalType": "address",
          "name": "_router",
          "type": "address"
        }
      ],
      "stateMutability": "nonpayable",
      "type": "constructor"
    },
    {
      "inputs": [
        {
          "components": [
            {
              "internalType": "address",
              "name": "tokenIn",
              "type": "address"
            },
            {
              "internalType": "address",
              "name": "tokenOut",
              "type": "address"
            },
            {
              "internalType": "uint256",
              "name": "amountIn",
              "type": "uint256"
            },
            {
              "internalType": "uint256",
              "name": "amountOut",
              "type": "uint256"
            }
          ],
          "internalType": "struct SmartTradeHandlerMock.OrderData",
          "name": "data",
          "type": "tuple"
        }
      ],
      "name": "callDataEncode",
      "outputs": [
        {
          "internalType": "bytes",
          "name": "",
          "type": "bytes"
        }
      ],
      "stateMutability": "pure",
      "type": "function"
    },
    {
      "inputs": [
        {
          "components": [
            {
              "internalType": "uint256",
              "name": "id",
              "type": "uint256"
            },
            {
              "internalType": "address",
              "name": "owner",
              "type": "address"
            },
            {
              "internalType": "enum SmartTradeRouter.OrderStatus",
              "name": "status",
              "type": "uint8"
            },
            {
              "internalType": "address",
              "name": "handler",
              "type": "address"
            },
            {
              "internalType": "bytes",
              "name": "callData",
              "type": "bytes"
            }
          ],
          "internalType": "struct SmartTradeRouter.Order",
          "name": "order",
          "type": "tuple"
        },
        {
          "internalType": "bytes",
          "name": "",
          "type": "bytes"
        }
      ],
      "name": "handle",
      "outputs": [],
      "stateMutability": "nonpayable",
      "type": "function"
    },
    {
      "inputs": [
        {
          "components": [
            {
              "internalType": "uint256",
              "name": "id",
              "type": "uint256"
            },
            {
              "internalType": "address",
              "name": "owner",
              "type": "address"
            },
            {
              "internalType": "enum SmartTradeRouter.OrderStatus",
              "name": "status",
              "type": "uint8"
            },
            {
              "internalType": "address",
              "name": "handler",
              "type": "address"
            },
            {
              "internalType": "bytes",
              "name": "callData",
              "type": "bytes"
            }
          ],
          "internalType": "struct SmartTradeRouter.Order",
          "name": "order",
          "type": "tuple"
        }
      ],
      "name": "onOrderCreated",
      "outputs": [],
      "stateMutability": "view",
      "type": "function"
    },
    {
      "inputs": [],
      "name": "router",
      "outputs": [
        {
          "internalType": "address",
          "name": "",
          "type": "address"
        }
      ],
      "stateMutability": "view",
      "type": "function"
    }
  ],
  "bytecode": "0x608060405234801561001057600080fd5b50604051610b38380380610b3883398101604081905261002f916100e0565b6001600160a01b0381166100bb5760405162461bcd60e51b815260206004820152604360248201527f536d617274547261646548616e646c65724d6f636b3a3a636f6e73747275637460448201527f6f723a20696e76616c696420726f7574657220636f6e7472616374206164647260648201526265737360e81b608482015260a40160405180910390fd5b600080546001600160a01b0319166001600160a01b0392909216919091179055610110565b6000602082840312156100f257600080fd5b81516001600160a01b038116811461010957600080fd5b9392505050565b610a198061011f6000396000f3fe608060405234801561001057600080fd5b506004361061004c5760003560e01c80630f96a8b41461005157806323cb8247146100665780636ae1f04e14610079578063f887ea40146100a2575b600080fd5b61006461005f366004610779565b6100cd565b005b6100646100743660046107b6565b61011e565b61008c6100873660046106e7565b6102ad565b60405161009991906108ae565b60405180910390f35b6000546100b5906001600160a01b031681565b6040516001600160a01b039091168152602001610099565b6000546001600160a01b031633146101005760405162461bcd60e51b81526004016100f7906108c1565b60405180910390fd5b61010d6080820182610965565b81019061011a91906106f9565b5050565b6000546001600160a01b031633146101485760405162461bcd60e51b81526004016100f7906108c1565b60006101576080850185610965565b81019061016491906106f9565b6000549091506001600160a01b0316806382ad6f3561018960408801602089016106aa565b845160408087015190516001600160e01b031960e086901b1681526001600160a01b0393841660048201529290911660248301526044820152606401600060405180830381600087803b1580156101df57600080fd5b505af11580156101f3573d6000803e3d6000fd5b5050506060830151602084015161021692506001600160a01b03169083906102d6565b6001600160a01b038116638340f54961023560408801602089016106aa565b602085015160608601516040516001600160e01b031960e086901b1681526001600160a01b0393841660048201529290911660248301526044820152606401600060405180830381600087803b15801561028e57600080fd5b505af11580156102a2573d6000803e3d6000fd5b505050505050505050565b6060816040516020016102c0919061091e565b6040516020818303038152906040529050919050565b80158061035f5750604051636eb1769f60e11b81523060048201526001600160a01b03838116602483015284169063dd62ed3e9060440160206040518083038186803b15801561032557600080fd5b505afa158015610339573d6000803e3d6000fd5b505050506040513d601f19601f8201168201806040525081019061035d919061084d565b155b6103ca5760405162461bcd60e51b815260206004820152603660248201527f5361666545524332303a20617070726f76652066726f6d206e6f6e2d7a65726f60448201527520746f206e6f6e2d7a65726f20616c6c6f77616e636560501b60648201526084016100f7565b604080516001600160a01b038416602482015260448082018490528251808303909101815260649091019091526020810180516001600160e01b031663095ea7b360e01b17905261041c908490610421565b505050565b6000610476826040518060400160405280602081526020017f5361666545524332303a206c6f772d6c6576656c2063616c6c206661696c6564815250856001600160a01b03166104f39092919063ffffffff16565b80519091501561041c578080602001905181019061049491906106c5565b61041c5760405162461bcd60e51b815260206004820152602a60248201527f5361666545524332303a204552433230206f7065726174696f6e20646964206e6044820152691bdd081cdd58d8d9595960b21b60648201526084016100f7565b6060610502848460008561050c565b90505b9392505050565b60608247101561056d5760405162461bcd60e51b815260206004820152602660248201527f416464726573733a20696e73756666696369656e742062616c616e636520666f6044820152651c8818d85b1b60d21b60648201526084016100f7565b6001600160a01b0385163b6105c45760405162461bcd60e51b815260206004820152601d60248201527f416464726573733a2063616c6c20746f206e6f6e2d636f6e747261637400000060448201526064016100f7565b600080866001600160a01b031685876040516105e09190610892565b60006040518083038185875af1925050503d806000811461061d576040519150601f19603f3d011682016040523d82523d6000602084013e610622565b606091505b509150915061063282828661063d565b979650505050505050565b6060831561064c575081610505565b82511561065c5782518084602001fd5b8160405162461bcd60e51b81526004016100f791906108ae565b80356001600160a01b038116811461068d57600080fd5b919050565b600060a082840312156106a457600080fd5b50919050565b6000602082840312156106bc57600080fd5b61050582610676565b6000602082840312156106d757600080fd5b8151801515811461050557600080fd5b6000608082840312156106a457600080fd5b60006080828403121561070b57600080fd5b6040516080810181811067ffffffffffffffff8211171561073c57634e487b7160e01b600052604160045260246000fd5b60405261074883610676565b815261075660208401610676565b602082015260408301356040820152606083013560608201528091505092915050565b60006020828403121561078b57600080fd5b813567ffffffffffffffff8111156107a257600080fd5b6107ae84828501610692565b949350505050565b6000806000604084860312156107cb57600080fd5b833567ffffffffffffffff808211156107e357600080fd5b6107ef87838801610692565b9450602086013591508082111561080557600080fd5b818601915086601f83011261081957600080fd5b81358181111561082857600080fd5b87602082850101111561083a57600080fd5b6020830194508093505050509250925092565b60006020828403121561085f57600080fd5b5051919050565b6000815180845261087e8160208601602086016109b3565b601f01601f19169290920160200192915050565b600082516108a48184602087016109b3565b9190910192915050565b6020815260006105056020830184610866565b6020808252603b908201527f536d617274547261646548616e646c65724d6f636b3a3a6f6e6c79526f75746560408201527f723a2063616c6c6572206973206e6f742074686520726f757465720000000000606082015260800190565b608081016001600160a01b038061093485610676565b1683528061094460208601610676565b16602084015250604083013560408301526060830135606083015292915050565b6000808335601e1984360301811261097c57600080fd5b83018035915067ffffffffffffffff82111561099757600080fd5b6020019150368190038213156109ac57600080fd5b9250929050565b60005b838110156109ce5781810151838201526020016109b6565b838111156109dd576000848401525b5050505056fea2646970667358221220439c196b300ede53d46b91743d3179285b6cbc3972a91afd7e777b78610d9b5664736f6c63430008060033",
  "linkReferences": {},
  "deployedLinkReferences": {}
}