{
  "_format": "hh-sol-artifact-1",
  "contractName": "SmartTradeHandlerMock",
  "sourceName": "contracts/automate/SmartTrade/mock/HandlerMock.sol",
  "abi": [
    {
      "inputs": [
        {
          "internalType": "address",
          "name": "_router",
          "type": "address"
        }
      ],
      "stateMutability": "nonpayable",
      "type": "constructor"
    },
    {
      "inputs": [
        {
          "components": [
            {
              "internalType": "address",
              "name": "tokenIn",
              "type": "address"
            },
            {
              "internalType": "address",
              "name": "tokenOut",
              "type": "address"
            },
            {
              "internalType": "uint256",
              "name": "amountIn",
              "type": "uint256"
            },
            {
              "internalType": "uint256",
              "name": "amountOut",
              "type": "uint256"
            }
          ],
          "internalType": "struct SmartTradeHandlerMock.OrderData",
          "name": "data",
          "type": "tuple"
        }
      ],
      "name": "callDataEncode",
      "outputs": [
        {
          "internalType": "bytes",
          "name": "",
          "type": "bytes"
        }
      ],
      "stateMutability": "pure",
      "type": "function"
    },
    {
      "inputs": [
        {
          "components": [
            {
              "internalType": "uint256",
              "name": "id",
              "type": "uint256"
            },
            {
              "internalType": "address",
              "name": "owner",
              "type": "address"
            },
            {
              "internalType": "enum SmartTradeRouter.OrderStatus",
              "name": "status",
              "type": "uint8"
            },
            {
              "internalType": "address",
              "name": "handler",
              "type": "address"
            },
            {
              "internalType": "bytes",
              "name": "callData",
              "type": "bytes"
            }
          ],
          "internalType": "struct SmartTradeRouter.Order",
          "name": "order",
          "type": "tuple"
        },
        {
          "internalType": "bytes",
          "name": "",
          "type": "bytes"
        }
      ],
      "name": "handle",
      "outputs": [],
      "stateMutability": "nonpayable",
      "type": "function"
    },
    {
      "inputs": [
        {
          "components": [
            {
              "internalType": "uint256",
              "name": "id",
              "type": "uint256"
            },
            {
              "internalType": "address",
              "name": "owner",
              "type": "address"
            },
            {
              "internalType": "enum SmartTradeRouter.OrderStatus",
              "name": "status",
              "type": "uint8"
            },
            {
              "internalType": "address",
              "name": "handler",
              "type": "address"
            },
            {
              "internalType": "bytes",
              "name": "callData",
              "type": "bytes"
            }
          ],
          "internalType": "struct SmartTradeRouter.Order",
          "name": "order",
          "type": "tuple"
        }
      ],
      "name": "onOrderCreated",
      "outputs": [],
      "stateMutability": "view",
      "type": "function"
    },
    {
      "inputs": [],
      "name": "router",
      "outputs": [
        {
          "internalType": "address",
          "name": "",
          "type": "address"
        }
      ],
      "stateMutability": "view",
      "type": "function"
    }
  ],
  "bytecode": "0x608060405234801561001057600080fd5b50604051610d2d380380610d2d83398101604081905261002f916100e0565b6001600160a01b0381166100bb5760405162461bcd60e51b815260206004820152604360248201527f536d617274547261646548616e646c65724d6f636b3a3a636f6e73747275637460448201527f6f723a20696e76616c696420726f7574657220636f6e7472616374206164647260648201526265737360e81b608482015260a40160405180910390fd5b600080546001600160a01b0319166001600160a01b0392909216919091179055610110565b6000602082840312156100f257600080fd5b81516001600160a01b038116811461010957600080fd5b9392505050565b610c0e8061011f6000396000f3fe608060405234801561001057600080fd5b506004361061004c5760003560e01c80630f96a8b41461005157806323cb8247146100665780636ae1f04e14610079578063f887ea40146100a2575b600080fd5b61006461005f36600461086a565b6100cd565b005b6100646100743660046108a7565b61011e565b61008c6100873660046107d8565b6103b9565b6040516100999190610a13565b60405180910390f35b6000546100b5906001600160a01b031681565b6040516001600160a01b039091168152602001610099565b6000546001600160a01b031633146101005760405162461bcd60e51b81526004016100f790610a26565b60405180910390fd5b61010d6080820182610b44565b81019061011a91906107ea565b5050565b6000546001600160a01b031633146101485760405162461bcd60e51b81526004016100f790610a26565b60006101576080850185610b44565b81019061016491906107ea565b600080546040805160018082528183019092529394506001600160a01b039091169290602080830190803683370190505090508260000151816000815181106101af576101af610bc2565b6001600160a01b03929092166020928302919091019091015260408051600180825281830190925260009181602001602082028036833701905050905083604001518160008151811061020457610204610bc2565b602090810291909101015260405163328dd6e560e21b81526001600160a01b0384169063ca375b9490610242908a3590869086903090600401610aff565b600060405180830381600087803b15801561025c57600080fd5b505af1158015610270573d6000803e3d6000fd5b5060009250600191506102809050565b6040519080825280602002602001820160405280156102a9578160200160208202803683370190505b5090508460200151816000815181106102c4576102c4610bc2565b6001600160a01b03929092166020928302919091019091015260408051600180825281830190925260009181602001602082028036833701905050905085606001518160008151811061031957610319610bc2565b60200260200101818152505061034b85876060015188602001516001600160a01b03166103e29092919063ffffffff16565b604051630d7a41b760e01b81526001600160a01b03861690630d7a41b79061037c908c359086908690600401610aca565b600060405180830381600087803b15801561039657600080fd5b505af11580156103aa573d6000803e3d6000fd5b50505050505050505050505050565b6060816040516020016103cc9190610a83565b6040516020818303038152906040529050919050565b80158061046b5750604051636eb1769f60e11b81523060048201526001600160a01b03838116602483015284169063dd62ed3e9060440160206040518083038186803b15801561043157600080fd5b505afa158015610445573d6000803e3d6000fd5b505050506040513d601f19601f82011682018060405250810190610469919061093e565b155b6104d65760405162461bcd60e51b815260206004820152603660248201527f5361666545524332303a20617070726f76652066726f6d206e6f6e2d7a65726f60448201527520746f206e6f6e2d7a65726f20616c6c6f77616e636560501b60648201526084016100f7565b604080516001600160a01b038416602482015260448082018490528251808303909101815260649091019091526020810180516001600160e01b031663095ea7b360e01b17905261052890849061052d565b505050565b6000610582826040518060400160405280602081526020017f5361666545524332303a206c6f772d6c6576656c2063616c6c206661696c6564815250856001600160a01b03166105ff9092919063ffffffff16565b80519091501561052857808060200190518101906105a091906107b6565b6105285760405162461bcd60e51b815260206004820152602a60248201527f5361666545524332303a204552433230206f7065726174696f6e20646964206e6044820152691bdd081cdd58d8d9595960b21b60648201526084016100f7565b606061060e8484600085610618565b90505b9392505050565b6060824710156106795760405162461bcd60e51b815260206004820152602660248201527f416464726573733a20696e73756666696369656e742062616c616e636520666f6044820152651c8818d85b1b60d21b60648201526084016100f7565b6001600160a01b0385163b6106d05760405162461bcd60e51b815260206004820152601d60248201527f416464726573733a2063616c6c20746f206e6f6e2d636f6e747261637400000060448201526064016100f7565b600080866001600160a01b031685876040516106ec91906109f7565b60006040518083038185875af1925050503d8060008114610729576040519150601f19603f3d011682016040523d82523d6000602084013e61072e565b606091505b509150915061073e828286610749565b979650505050505050565b60608315610758575081610611565b8251156107685782518084602001fd5b8160405162461bcd60e51b81526004016100f79190610a13565b80356001600160a01b038116811461079957600080fd5b919050565b600060a082840312156107b057600080fd5b50919050565b6000602082840312156107c857600080fd5b8151801515811461061157600080fd5b6000608082840312156107b057600080fd5b6000608082840312156107fc57600080fd5b6040516080810181811067ffffffffffffffff8211171561082d57634e487b7160e01b600052604160045260246000fd5b60405261083983610782565b815261084760208401610782565b602082015260408301356040820152606083013560608201528091505092915050565b60006020828403121561087c57600080fd5b813567ffffffffffffffff81111561089357600080fd5b61089f8482850161079e565b949350505050565b6000806000604084860312156108bc57600080fd5b833567ffffffffffffffff808211156108d457600080fd5b6108e08783880161079e565b945060208601359150808211156108f657600080fd5b818601915086601f83011261090a57600080fd5b81358181111561091957600080fd5b87602082850101111561092b57600080fd5b6020830194508093505050509250925092565b60006020828403121561095057600080fd5b5051919050565b600081518084526020808501945080840160005b838110156109905781516001600160a01b03168752958201959082019060010161096b565b509495945050505050565b600081518084526020808501945080840160005b83811015610990578151875295820195908201906001016109af565b600081518084526109e3816020860160208601610b92565b601f01601f19169290920160200192915050565b60008251610a09818460208701610b92565b9190910192915050565b60208152600061061160208301846109cb565b6020808252603b908201527f536d617274547261646548616e646c65724d6f636b3a3a6f6e6c79526f75746560408201527f723a2063616c6c6572206973206e6f742074686520726f757465720000000000606082015260800190565b608081016001600160a01b0380610a9985610782565b16835280610aa960208601610782565b16602084015250604083013560408301526060830135606083015292915050565b838152606060208201526000610ae36060830185610957565b8281036040840152610af5818561099b565b9695505050505050565b848152608060208201526000610b186080830186610957565b8281036040840152610b2a818661099b565b91505060018060a01b038316606083015295945050505050565b6000808335601e19843603018112610b5b57600080fd5b83018035915067ffffffffffffffff821115610b7657600080fd5b602001915036819003821315610b8b57600080fd5b9250929050565b60005b83811015610bad578181015183820152602001610b95565b83811115610bbc576000848401525b50505050565b634e487b7160e01b600052603260045260246000fdfea2646970667358221220488409d97692a41ca9be9a6d709652b311cebf2afd006abc265e697c2061ddd164736f6c63430008060033",
  "linkReferences": {},
  "deployedLinkReferences": {}
}