{
  "_format": "hh-sol-artifact-1",
  "contractName": "BuyLiquidity",
  "sourceName": "contracts/automate/BuyLiquidity.sol",
  "abi": [
    {
      "inputs": [
        {
          "internalType": "address",
          "name": "_info",
          "type": "address"
        },
        {
          "internalType": "address payable",
          "name": "_terasury",
          "type": "address"
        },
        {
          "internalType": "address",
          "name": "_priceFeed",
          "type": "address"
        }
      ],
      "stateMutability": "nonpayable",
      "type": "constructor"
    },
    {
      "anonymous": false,
      "inputs": [
        {
          "indexed": true,
          "internalType": "address",
          "name": "previousOwner",
          "type": "address"
        },
        {
          "indexed": true,
          "internalType": "address",
          "name": "newOwner",
          "type": "address"
        }
      ],
      "name": "OwnershipTransferred",
      "type": "event"
    },
    {
      "anonymous": false,
      "inputs": [
        {
          "indexed": true,
          "internalType": "address",
          "name": "priceFeed",
          "type": "address"
        }
      ],
      "name": "PriceFeedChanged",
      "type": "event"
    },
    {
      "anonymous": false,
      "inputs": [
        {
          "indexed": true,
          "internalType": "address",
          "name": "info",
          "type": "address"
        }
      ],
      "name": "StorageChanged",
      "type": "event"
    },
    {
      "anonymous": false,
      "inputs": [
        {
          "indexed": true,
          "internalType": "address",
          "name": "treasury",
          "type": "address"
        }
      ],
      "name": "TreasuryChanged",
      "type": "event"
    },
    {
      "inputs": [
        {
          "internalType": "uint256",
          "name": "amount",
          "type": "uint256"
        },
        {
          "internalType": "address",
          "name": "router",
          "type": "address"
        },
        {
          "components": [
            {
              "internalType": "address[]",
              "name": "path",
              "type": "address[]"
            },
            {
              "internalType": "uint256",
              "name": "outMin",
              "type": "uint256"
            }
          ],
          "internalType": "struct BuyLiquidity.Swap",
          "name": "swap0",
          "type": "tuple"
        },
        {
          "components": [
            {
              "internalType": "address[]",
              "name": "path",
              "type": "address[]"
            },
            {
              "internalType": "uint256",
              "name": "outMin",
              "type": "uint256"
            }
          ],
          "internalType": "struct BuyLiquidity.Swap",
          "name": "swap1",
          "type": "tuple"
        },
        {
          "internalType": "contract IPair",
          "name": "to",
          "type": "address"
        },
        {
          "internalType": "uint256",
          "name": "deadline",
          "type": "uint256"
        }
      ],
      "name": "buyLiquidity",
      "outputs": [],
      "stateMutability": "payable",
      "type": "function"
    },
    {
      "inputs": [
        {
          "internalType": "address",
          "name": "_priceFeed",
          "type": "address"
        }
      ],
      "name": "changePrireFeed",
      "outputs": [],
      "stateMutability": "nonpayable",
      "type": "function"
    },
    {
      "inputs": [
        {
          "internalType": "address",
          "name": "_info",
          "type": "address"
        }
      ],
      "name": "changeStorage",
      "outputs": [],
      "stateMutability": "nonpayable",
      "type": "function"
    },
    {
      "inputs": [
        {
          "internalType": "address payable",
          "name": "_treasury",
          "type": "address"
        }
      ],
      "name": "changeTreasury",
      "outputs": [],
      "stateMutability": "nonpayable",
      "type": "function"
    },
    {
      "inputs": [],
      "name": "fee",
      "outputs": [
        {
          "internalType": "uint256",
          "name": "",
          "type": "uint256"
        }
      ],
      "stateMutability": "view",
      "type": "function"
    },
    {
      "inputs": [],
      "name": "info",
      "outputs": [
        {
          "internalType": "contract Storage",
          "name": "",
          "type": "address"
        }
      ],
      "stateMutability": "view",
      "type": "function"
    },
    {
      "inputs": [],
      "name": "owner",
      "outputs": [
        {
          "internalType": "address",
          "name": "",
          "type": "address"
        }
      ],
      "stateMutability": "view",
      "type": "function"
    },
    {
      "inputs": [],
      "name": "priceFeed",
      "outputs": [
        {
          "internalType": "contract IPriceFeed",
          "name": "",
          "type": "address"
        }
      ],
      "stateMutability": "view",
      "type": "function"
    },
    {
      "inputs": [],
      "name": "renounceOwnership",
      "outputs": [],
      "stateMutability": "nonpayable",
      "type": "function"
    },
    {
      "inputs": [
        {
          "internalType": "uint256",
          "name": "amount",
          "type": "uint256"
        },
        {
          "internalType": "address",
          "name": "router",
          "type": "address"
        },
        {
          "components": [
            {
              "internalType": "address[]",
              "name": "path",
              "type": "address[]"
            },
            {
              "internalType": "uint256",
              "name": "outMin",
              "type": "uint256"
            }
          ],
          "internalType": "struct BuyLiquidity.Swap",
          "name": "swap0",
          "type": "tuple"
        },
        {
          "components": [
            {
              "internalType": "address[]",
              "name": "path",
              "type": "address[]"
            },
            {
              "internalType": "uint256",
              "name": "outMin",
              "type": "uint256"
            }
          ],
          "internalType": "struct BuyLiquidity.Swap",
          "name": "swap1",
          "type": "tuple"
        },
        {
          "internalType": "contract IPair",
          "name": "from",
          "type": "address"
        },
        {
          "internalType": "uint256",
          "name": "deadline",
          "type": "uint256"
        }
      ],
      "name": "sellLiquidity",
      "outputs": [],
      "stateMutability": "payable",
      "type": "function"
    },
    {
      "inputs": [
        {
          "internalType": "address",
          "name": "newOwner",
          "type": "address"
        }
      ],
      "name": "transferOwnership",
      "outputs": [],
      "stateMutability": "nonpayable",
      "type": "function"
    },
    {
      "inputs": [],
      "name": "treasury",
      "outputs": [
        {
          "internalType": "address payable",
          "name": "",
          "type": "address"
        }
      ],
      "stateMutability": "view",
      "type": "function"
    }
  ],
  "bytecode": "0x60806040523480156200001157600080fd5b5060405162001ffa38038062001ffa8339810160408190526200003491620000d2565b6200003f3362000082565b600180546001600160a01b039485166001600160a01b0319918216179091556002805493851693821693909317909255600380549190931691161790556200013f565b600080546001600160a01b038381166001600160a01b0319831681178455604051919092169283917f8be0079c531659141344cd1fd0a4f28419497f9722a3daafe3b4186f6b6457e09190a35050565b600080600060608486031215620000e857600080fd5b8351620000f58162000126565b6020850151909350620001088162000126565b60408501519092506200011b8162000126565b809150509250925092565b6001600160a01b03811681146200013c57600080fd5b50565b611eab806200014f6000396000f3fe6080604052600436106100a75760003560e01c8063741bef1a11610064578063741bef1a146101665780638da5cb5b14610186578063b14f2a39146101a4578063c50c97d0146101c4578063ddca3f43146101e4578063f2fde38b1461020757600080fd5b806301b886a2146100ac578063370158ea146100c15780633c65f2d1146100fe57806361d027b31461011e5780636a103af71461013e578063715018a614610151575b600080fd5b6100bf6100ba366004611b4d565b610227565b005b3480156100cd57600080fd5b506001546100e1906001600160a01b031681565b6040516001600160a01b0390911681526020015b60405180910390f35b34801561010a57600080fd5b506100bf610119366004611ad1565b610a73565b34801561012a57600080fd5b506002546100e1906001600160a01b031681565b6100bf61014c366004611b4d565b610ac5565b34801561015d57600080fd5b506100bf611326565b34801561017257600080fd5b506003546100e1906001600160a01b031681565b34801561019257600080fd5b506000546001600160a01b03166100e1565b3480156101b057600080fd5b506100bf6101bf366004611ad1565b61133a565b3480156101d057600080fd5b506100bf6101df366004611ad1565b61138c565b3480156101f057600080fd5b506101f96113de565b6040519081526020016100f5565b34801561021357600080fd5b506100bf610222366004611ad1565b611597565b6001546040516001600160a01b0390911690637ae1cfca9061024d908890602001611c8c565b604051602081830303815290604052805190602001206040518263ffffffff1660e01b815260040161028191815260200190565b60206040518083038186803b15801561029957600080fd5b505afa1580156102ad573d6000803e3d6000fd5b505050506040513d601f19601f820116820180604052508101906102d19190611b12565b61033e5760405162461bcd60e51b815260206004820152603360248201527f4275794c69717569646974793a3a73656c6c4c69717569646974793a20696e76604482015272616c696420726f75746572206164647265737360681b60648201526084015b60405180910390fd5b8251805161034e90600190611dec565b8151811061035e5761035e611e34565b60200260200101516001600160a01b0316846000015160018660000151516103869190611dec565b8151811061039657610396611e34565b60200260200101516001600160a01b03161461040d5760405162461bcd60e51b815260206004820152603060248201527f4275794c69717569646974793a3a73656c6c4c697175646974793a20656e642060448201526f746f6b656e206e6f7420657175616c7360801b6064820152608401610335565b610415611610565b6000826001600160a01b0316630dfe16816040518163ffffffff1660e01b815260040160206040518083038186803b15801561045057600080fd5b505afa158015610464573d6000803e3d6000fd5b505050506040513d601f19601f820116820180604052508101906104889190611af5565b9050806001600160a01b031685600001516000815181106104ab576104ab611e34565b60200260200101516001600160a01b03161461051c5760405162461bcd60e51b815260206004820152602a60248201527f4275794c69717569646974793a3a73656c6c4c697175646974793a20696e766160448201526906c696420746f6b656e360b41b6064820152608401610335565b6000836001600160a01b031663d21220a76040518163ffffffff1660e01b815260040160206040518083038186803b15801561055757600080fd5b505afa15801561056b573d6000803e3d6000fd5b505050506040513d601f19601f8201168201806040525081019061058f9190611af5565b9050806001600160a01b031685600001516000815181106105b2576105b2611e34565b60200260200101516001600160a01b0316146106235760405162461bcd60e51b815260206004820152602a60248201527f4275794c69717569646974793a3a73656c6c4c697175646974793a20696e76616044820152696c696420746f6b656e3160b01b6064820152608401610335565b6040516323b872dd60e01b8152336004820152306024820152604481018990526001600160a01b038516906323b872dd90606401602060405180830381600087803b15801561067157600080fd5b505af1158015610685573d6000803e3d6000fd5b505050506040513d601f19601f820116820180604052508101906106a99190611b12565b5060405163095ea7b360e01b81526001600160a01b038881166004830152602482018a905285169063095ea7b390604401602060405180830381600087803b1580156106f457600080fd5b505af1158015610708573d6000803e3d6000fd5b505050506040513d601f19601f8201168201806040525081019061072c9190611b12565b50604051635d5155ef60e11b81526001600160a01b0383811660048301528281166024830152604482018a905260006064830181905260848301523060a483015260c4820185905288169063baa2abde9060e4016040805180830381600087803b15801561079957600080fd5b505af11580156107ad573d6000803e3d6000fd5b505050506040513d601f19601f820116820180604052508101906107d19190611bea565b50506040516370a0823160e01b81523060048201526000906001600160a01b038416906370a082319060240160206040518083038186803b15801561081557600080fd5b505afa158015610829573d6000803e3d6000fd5b505050506040513d601f19601f8201168201806040525081019061084d9190611b34565b60405163095ea7b360e01b81526001600160a01b038a81166004830152602482018390529192509084169063095ea7b390604401602060405180830381600087803b15801561089b57600080fd5b505af11580156108af573d6000803e3d6000fd5b505050506040513d601f19601f820116820180604052508101906108d39190611b12565b506108e9888289602001518a600001518861171a565b6040516370a0823160e01b81523060048201526000906001600160a01b038416906370a082319060240160206040518083038186803b15801561092b57600080fd5b505afa15801561093f573d6000803e3d6000fd5b505050506040513d601f19601f820116820180604052508101906109639190611b34565b60405163095ea7b360e01b81526001600160a01b038b81166004830152602482018390529192509084169063095ea7b390604401602060405180830381600087803b1580156109b157600080fd5b505af11580156109c5573d6000803e3d6000fd5b505050506040513d601f19601f820116820180604052508101906109e99190611b12565b506109ff898289602001518a600001518961171a565b604080516060810182526001600160a01b0380871682528516602082015289518051610a679383019190610a3590600190611dec565b81518110610a4557610a45611e34565b60200260200101516001600160a01b03166001600160a01b03168152506117e7565b50505050505050505050565b610a7b611939565b600380546001600160a01b0319166001600160a01b0383169081179091556040517f70880247142cf113e15f57599afcb48f4cdd196159d882cda54475da68ea996190600090a250565b6001546040516001600160a01b0390911690637ae1cfca90610aeb908890602001611c8c565b604051602081830303815290604052805190602001206040518263ffffffff1660e01b8152600401610b1f91815260200190565b60206040518083038186803b158015610b3757600080fd5b505afa158015610b4b573d6000803e3d6000fd5b505050506040513d601f19601f82011682018060405250810190610b6f9190611b12565b610bd65760405162461bcd60e51b815260206004820152603260248201527f4275794c69717569646974793a3a6275794c69717569646974793a20696e76616044820152716c696420726f75746572206164647265737360701b6064820152608401610335565b82518051600090610be957610be9611e34565b60200260200101516001600160a01b03168460000151600081518110610c1157610c11611e34565b60200260200101516001600160a01b031614610c895760405162461bcd60e51b815260206004820152603160248201527f4275794c69717569646974793a3a6275794c697175646974793a20737461727460448201527020746f6b656e206e6f7420657175616c7360781b6064820152608401610335565b610c91611610565b6000826001600160a01b0316630dfe16816040518163ffffffff1660e01b815260040160206040518083038186803b158015610ccc57600080fd5b505afa158015610ce0573d6000803e3d6000fd5b505050506040513d601f19601f82011682018060405250810190610d049190611af5565b855180519192506001600160a01b03831691610d2290600190611dec565b81518110610d3257610d32611e34565b60200260200101516001600160a01b031614610da25760405162461bcd60e51b815260206004820152602960248201527f4275794c69717569646974793a3a6275794c697175646974793a20696e76616c6044820152680696420746f6b656e360bc1b6064820152608401610335565b6000836001600160a01b031663d21220a76040518163ffffffff1660e01b815260040160206040518083038186803b158015610ddd57600080fd5b505afa158015610df1573d6000803e3d6000fd5b505050506040513d601f19601f82011682018060405250810190610e159190611af5565b855180519192506001600160a01b03831691610e3390600190611dec565b81518110610e4357610e43611e34565b60200260200101516001600160a01b031614610eb35760405162461bcd60e51b815260206004820152602960248201527f4275794c69717569646974793a3a6275794c697175646974793a20696e76616c604482015268696420746f6b656e3160b81b6064820152608401610335565b85518051600090610ec657610ec6611e34565b60209081029190910101516040516323b872dd60e01b8152336004820152306024820152604481018a90526001600160a01b03909116906323b872dd90606401602060405180830381600087803b158015610f2057600080fd5b505af1158015610f34573d6000803e3d6000fd5b505050506040513d601f19601f82011682018060405250810190610f589190611b12565b5085518051600090610f6c57610f6c611e34565b602090810291909101015160405163095ea7b360e01b81526001600160a01b038981166004830152602482018b90529091169063095ea7b390604401602060405180830381600087803b158015610fc257600080fd5b505af1158015610fd6573d6000803e3d6000fd5b505050506040513d601f19601f82011682018060405250810190610ffa9190611b12565b50600061100860028a611dab565b905061101f888289602001518a600001518861171a565b600061102b828b611dec565b9050611042898289602001518a600001518961171a565b6040516370a0823160e01b81523060048201526001600160a01b038516906370a082319060240160206040518083038186803b15801561108157600080fd5b505afa158015611095573d6000803e3d6000fd5b505050506040513d601f19601f820116820180604052508101906110b99190611b34565b6040516370a0823160e01b81523060048201529092506001600160a01b038416906370a082319060240160206040518083038186803b1580156110fb57600080fd5b505afa15801561110f573d6000803e3d6000fd5b505050506040513d601f19601f820116820180604052508101906111339190611b34565b60405163095ea7b360e01b81526001600160a01b038b81166004830152602482018590529192509085169063095ea7b390604401602060405180830381600087803b15801561118157600080fd5b505af1158015611195573d6000803e3d6000fd5b505050506040513d601f19601f820116820180604052508101906111b99190611b12565b5060405163095ea7b360e01b81526001600160a01b038a811660048301526024820183905284169063095ea7b390604401602060405180830381600087803b15801561120457600080fd5b505af1158015611218573d6000803e3d6000fd5b505050506040513d601f19601f8201168201806040525081019061123c9190611b12565b5060405162e8e33760e81b81526001600160a01b0385811660048301528481166024830152604482018490526064820183905260006084830181905260a48301523360c483015260e482018790528a169063e8e337009061010401606060405180830381600087803b1580156112b157600080fd5b505af11580156112c5573d6000803e3d6000fd5b505050506040513d601f19601f820116820180604052508101906112e99190611c0e565b5050604080516060810182526001600160a01b038088168252861660208201528a518051610a6794509192830191600090610a4557610a45611e34565b61132e611939565b6113386000611993565b565b611342611939565b600280546001600160a01b0319166001600160a01b0383169081179091556040517fc714d22a2f08b695f81e7c707058db484aa5b4d6b4c9fd64beb10fe85832f60890600090a250565b611394611939565b600180546001600160a01b0319166001600160a01b0383169081179091556040517f8cbb7a6ee88dbf214a9b660a9f1af063e42a24cbfe26a046a718b3f621baa53990600090a250565b60015460405163bd02d0f560e01b81527fed3a30f9a1639759f8c23859293de095ace4c3da0699fccc56863cec92430bf1600482015260009182916001600160a01b039091169063bd02d0f59060240160206040518083038186803b15801561144657600080fd5b505afa15801561145a573d6000803e3d6000fd5b505050506040513d601f19601f8201168201806040525081019061147e9190611b34565b90508061148d57600091505090565b60035460408051633fabe5a360e21b815290516000926001600160a01b03169163feaf968c9160048083019260a0929190829003018186803b1580156114d257600080fd5b505afa1580156114e6573d6000803e3d6000fd5b505050506040513d601f19601f8201168201806040525081019061150a9190611c3c565b505050915050600081136115735760405162461bcd60e51b815260206004820152602a60248201527f4275794c69717569646974793a3a6665653a20696e76616c69642066656520746044820152696f6b656e20707269636560b01b6064820152608401610335565b8061158683670de0b6b3a7640000611dcd565b6115909190611dab565b9250505090565b61159f611939565b6001600160a01b0381166116045760405162461bcd60e51b815260206004820152602660248201527f4f776e61626c653a206e6577206f776e657220697320746865207a65726f206160448201526564647265737360d01b6064820152608401610335565b61160d81611993565b50565b600061161a6113de565b90508034101561169d5760405162461bcd60e51b815260206004820152604260248201527f4275794c69717569646974793a3a5f706179436f6d6d697373696f6e3a20696e60448201527f73756666696369656e742066756e647320746f2070617920636f6d6d6973736960648201526137b760f11b608482015260a401610335565b6002546040516001600160a01b039091169082156108fc029083906000818181858888f193505050501580156116d7573d6000803e3d6000fd5b508034111561160d57336108fc6116ee8334611dec565b6040518115909202916000818181858888f19350505050158015611716573d6000803e3d6000fd5b5050565b81600183516117299190611dec565b8151811061173957611739611e34565b60200260200101516001600160a01b03168260008151811061175d5761175d611e34565b60200260200101516001600160a01b03161415611779576117e0565b604051635c11d79560e01b81526001600160a01b03861690635c11d795906117ad9087908790879030908890600401611ce0565b600060405180830381600087803b1580156117c757600080fd5b505af11580156117db573d6000803e3d6000fd5b505050505b5050505050565b60005b600381101561171657600082826003811061180757611807611e34565b60200201516040516370a0823160e01b81523060048201526001600160a01b03909116906370a082319060240160206040518083038186803b15801561184c57600080fd5b505afa158015611860573d6000803e3d6000fd5b505050506040513d601f19601f820116820180604052508101906118849190611b34565b905080156119265782826003811061189e5761189e611e34565b602002015160405163a9059cbb60e01b8152336004820152602481018390526001600160a01b039091169063a9059cbb90604401602060405180830381600087803b1580156118ec57600080fd5b505af1158015611900573d6000803e3d6000fd5b505050506040513d601f19601f820116820180604052508101906119249190611b12565b505b508061193181611e03565b9150506117ea565b6000546001600160a01b031633146113385760405162461bcd60e51b815260206004820181905260248201527f4f776e61626c653a2063616c6c6572206973206e6f7420746865206f776e65726044820152606401610335565b600080546001600160a01b038381166001600160a01b0319831681178455604051919092169283917f8be0079c531659141344cd1fd0a4f28419497f9722a3daafe3b4186f6b6457e09190a35050565b6000604082840312156119f557600080fd5b6119fd611d51565b9050813567ffffffffffffffff80821115611a1757600080fd5b818401915084601f830112611a2b57600080fd5b8135602082821115611a3f57611a3f611e4a565b8160051b9250611a50818401611d7a565b8281528181019085830185870184018a1015611a6b57600080fd5b600096505b84871015611a9a5780359550611a8586611e60565b85835260019690960195918301918301611a70565b50808752505080860135818601525050505092915050565b805169ffffffffffffffffffff81168114611acc57600080fd5b919050565b600060208284031215611ae357600080fd5b8135611aee81611e60565b9392505050565b600060208284031215611b0757600080fd5b8151611aee81611e60565b600060208284031215611b2457600080fd5b81518015158114611aee57600080fd5b600060208284031215611b4657600080fd5b5051919050565b60008060008060008060c08789031215611b6657600080fd5b863595506020870135611b7881611e60565b9450604087013567ffffffffffffffff80821115611b9557600080fd5b611ba18a838b016119e3565b95506060890135915080821115611bb757600080fd5b50611bc489828a016119e3565b9350506080870135611bd581611e60565b8092505060a087013590509295509295509295565b60008060408385031215611bfd57600080fd5b505080516020909101519092909150565b600080600060608486031215611c2357600080fd5b8351925060208401519150604084015190509250925092565b600080600080600060a08688031215611c5457600080fd5b611c5d86611ab2565b9450602086015193506040860151925060608601519150611c8060808701611ab2565b90509295509295909350565b7f4446483a436f6e74726163743a4275794c69717569646974793a616c6c6f7765815267322937baba32b91d60c11b602082015260609190911b6bffffffffffffffffffffffff19166028820152603c0190565b600060a082018783526020878185015260a0604085015281875180845260c086019150828901935060005b81811015611d305784516001600160a01b031683529383019391830191600101611d0b565b50506001600160a01b03969096166060850152505050608001529392505050565b6040805190810167ffffffffffffffff81118282101715611d7457611d74611e4a565b60405290565b604051601f8201601f1916810167ffffffffffffffff81118282101715611da357611da3611e4a565b604052919050565b600082611dc857634e487b7160e01b600052601260045260246000fd5b500490565b6000816000190483118215151615611de757611de7611e1e565b500290565b600082821015611dfe57611dfe611e1e565b500390565b6000600019821415611e1757611e17611e1e565b5060010190565b634e487b7160e01b600052601160045260246000fd5b634e487b7160e01b600052603260045260246000fd5b634e487b7160e01b600052604160045260246000fd5b6001600160a01b038116811461160d57600080fdfea26469706673582212206ec540cafda9800f24a26195638bf7d18a0346b6221608ae32867aba9477ccaa64736f6c63430008060033",
  "linkReferences": {},
  "deployedLinkReferences": {}
}