{
  "_format": "hh-sol-artifact-1",
  "contractName": "TreasuryV2",
  "sourceName": "contracts/Treasury/TreasuryV2.sol",
  "abi": [
    {
      "anonymous": false,
      "inputs": [
        {
          "indexed": false,
          "internalType": "uint8",
          "name": "version",
          "type": "uint8"
        }
      ],
      "name": "Initialized",
      "type": "event"
    },
    {
      "anonymous": false,
      "inputs": [
        {
          "indexed": true,
          "internalType": "address",
          "name": "previousOwner",
          "type": "address"
        },
        {
          "indexed": true,
          "internalType": "address",
          "name": "newOwner",
          "type": "address"
        }
      ],
      "name": "OwnershipTransferred",
      "type": "event"
    },
    {
      "inputs": [
        {
          "internalType": "address",
          "name": "token",
          "type": "address"
        },
        {
          "internalType": "address",
          "name": "recipient",
          "type": "address"
        },
        {
          "internalType": "uint256",
          "name": "amount",
          "type": "uint256"
        }
      ],
      "name": "approve",
      "outputs": [
        {
          "internalType": "bool",
          "name": "",
          "type": "bool"
        }
      ],
      "stateMutability": "nonpayable",
      "type": "function"
    },
    {
      "inputs": [],
      "name": "initialize",
      "outputs": [],
      "stateMutability": "nonpayable",
      "type": "function"
    },
    {
      "inputs": [],
      "name": "owner",
      "outputs": [
        {
          "internalType": "address",
          "name": "",
          "type": "address"
        }
      ],
      "stateMutability": "view",
      "type": "function"
    },
    {
      "inputs": [],
      "name": "renounceOwnership",
      "outputs": [],
      "stateMutability": "nonpayable",
      "type": "function"
    },
    {
      "inputs": [
        {
          "internalType": "address",
          "name": "token",
          "type": "address"
        },
        {
          "internalType": "address",
          "name": "recipient",
          "type": "address"
        },
        {
          "internalType": "uint256",
          "name": "amount",
          "type": "uint256"
        }
      ],
      "name": "transfer",
      "outputs": [
        {
          "internalType": "bool",
          "name": "",
          "type": "bool"
        }
      ],
      "stateMutability": "nonpayable",
      "type": "function"
    },
    {
      "inputs": [
        {
          "internalType": "address payable",
          "name": "recipient",
          "type": "address"
        },
        {
          "internalType": "uint256",
          "name": "amount",
          "type": "uint256"
        }
      ],
      "name": "transferETH",
      "outputs": [
        {
          "internalType": "bool",
          "name": "",
          "type": "bool"
        }
      ],
      "stateMutability": "nonpayable",
      "type": "function"
    },
    {
      "inputs": [
        {
          "internalType": "address",
          "name": "token",
          "type": "address"
        },
        {
          "internalType": "address",
          "name": "receipt",
          "type": "address"
        },
        {
          "internalType": "uint256",
          "name": "amount",
          "type": "uint256"
        }
      ],
      "name": "transferFrom",
      "outputs": [
        {
          "internalType": "bool",
          "name": "",
          "type": "bool"
        }
      ],
      "stateMutability": "nonpayable",
      "type": "function"
    },
    {
      "inputs": [
        {
          "internalType": "address",
          "name": "newOwner",
          "type": "address"
        }
      ],
      "name": "transferOwnership",
      "outputs": [],
      "stateMutability": "nonpayable",
      "type": "function"
    },
    {
      "stateMutability": "payable",
      "type": "receive"
    }
  ],
  "bytecode": "0x608060405234801561001057600080fd5b50610d19806100206000396000f3fe60806040526004361061007f5760003560e01c80638da5cb5b1161004e5780638da5cb5b1461010c578063beabacc814610134578063e1f21c6714610154578063f2fde38b1461017457600080fd5b806323b872dd1461008b578063715018a6146100c05780637b1a4909146100d75780638129fc1c146100f757600080fd5b3661008657005b600080fd5b34801561009757600080fd5b506100ab6100a6366004610b8c565b610194565b60405190151581526020015b60405180910390f35b3480156100cc57600080fd5b506100d56101be565b005b3480156100e357600080fd5b506100ab6100f2366004610b60565b6101d2565b34801561010357600080fd5b506100d56102e5565b34801561011857600080fd5b506033546040516001600160a01b0390911681526020016100b7565b34801561014057600080fd5b506100ab61014f366004610b8c565b6103f6565b34801561016057600080fd5b506100ab61016f366004610b8c565b6104dc565b34801561018057600080fd5b506100d561018f366004610b43565b6105a5565b600061019e61061b565b6101b36001600160a01b038516843085610675565b5060015b9392505050565b6101c661061b565b6101d060006106e6565b565b60006101dc61061b565b600082116102485760405162461bcd60e51b815260206004820152602e60248201527f54726561737572793a3a7472616e736665724554483a206e656761746976652060448201526d1bdc881e995c9bc8185b5bdd5b9d60921b60648201526084015b60405180910390fd5b6001600160a01b0383166102af5760405162461bcd60e51b815260206004820152602860248201527f54726561737572793a3a7472616e736665724554483a20696e76616c696420726044820152671958da5c1a595b9d60c21b606482015260840161023f565b6040516001600160a01b0384169083156108fc029084906000818181858888f193505050501580156101b3573d6000803e3d6000fd5b600054610100900460ff16158080156103055750600054600160ff909116105b8061031f5750303b15801561031f575060005460ff166001145b6103825760405162461bcd60e51b815260206004820152602e60248201527f496e697469616c697a61626c653a20636f6e747261637420697320616c72656160448201526d191e481a5b9a5d1a585b1a5e995960921b606482015260840161023f565b6000805460ff1916600117905580156103a5576000805461ff0019166101001790555b6103ad610738565b80156103f3576000805461ff0019169055604051600181527f7f26b83ff96e1f2b6a682f133852f6798a09c465da95921460cefb38474024989060200160405180910390a15b50565b600061040061061b565b600082116104645760405162461bcd60e51b815260206004820152602b60248201527f54726561737572793a3a7472616e736665723a206e65676174697665206f722060448201526a1e995c9bc8185b5bdd5b9d60aa1b606482015260840161023f565b6001600160a01b0383166104c85760405162461bcd60e51b815260206004820152602560248201527f54726561737572793a3a7472616e736665723a20696e76616c696420726563696044820152641c1a595b9d60da1b606482015260840161023f565b6101b36001600160a01b0385168484610767565b60006104e661061b565b604051636eb1769f60e11b81523060048201526001600160a01b0384811660248301526000919086169063dd62ed3e9060440160206040518083038186803b15801561053157600080fd5b505afa158015610545573d6000803e3d6000fd5b505050506040513d601f19601f820116820180604052508101906105699190610bef565b90508015610586576105866001600160a01b03861685600061079c565b61059a6001600160a01b038616858561079c565b506001949350505050565b6105ad61061b565b6001600160a01b0381166106125760405162461bcd60e51b815260206004820152602660248201527f4f776e61626c653a206e6577206f776e657220697320746865207a65726f206160448201526564647265737360d01b606482015260840161023f565b6103f3816106e6565b6033546001600160a01b031633146101d05760405162461bcd60e51b815260206004820181905260248201527f4f776e61626c653a2063616c6c6572206973206e6f7420746865206f776e6572604482015260640161023f565b6040516001600160a01b03808516602483015283166044820152606481018290526106e09085906323b872dd60e01b906084015b60408051601f198184030181529190526020810180516001600160e01b03166001600160e01b0319909316929092179091526108c0565b50505050565b603380546001600160a01b038381166001600160a01b0319831681179093556040519116919082907f8be0079c531659141344cd1fd0a4f28419497f9722a3daafe3b4186f6b6457e090600090a35050565b600054610100900460ff1661075f5760405162461bcd60e51b815260040161023f90610c57565b6101d0610992565b6040516001600160a01b03831660248201526044810182905261079790849063a9059cbb60e01b906064016106a9565b505050565b8015806108255750604051636eb1769f60e11b81523060048201526001600160a01b03838116602483015284169063dd62ed3e9060440160206040518083038186803b1580156107eb57600080fd5b505afa1580156107ff573d6000803e3d6000fd5b505050506040513d601f19601f820116820180604052508101906108239190610bef565b155b6108905760405162461bcd60e51b815260206004820152603660248201527f5361666545524332303a20617070726f76652066726f6d206e6f6e2d7a65726f60448201527520746f206e6f6e2d7a65726f20616c6c6f77616e636560501b606482015260840161023f565b6040516001600160a01b03831660248201526044810182905261079790849063095ea7b360e01b906064016106a9565b6000610915826040518060400160405280602081526020017f5361666545524332303a206c6f772d6c6576656c2063616c6c206661696c6564815250856001600160a01b03166109c29092919063ffffffff16565b80519091501561079757808060200190518101906109339190610bcd565b6107975760405162461bcd60e51b815260206004820152602a60248201527f5361666545524332303a204552433230206f7065726174696f6e20646964206e6044820152691bdd081cdd58d8d9595960b21b606482015260840161023f565b600054610100900460ff166109b95760405162461bcd60e51b815260040161023f90610c57565b6101d0336106e6565b60606109d184846000856109d9565b949350505050565b606082471015610a3a5760405162461bcd60e51b815260206004820152602660248201527f416464726573733a20696e73756666696369656e742062616c616e636520666f6044820152651c8818d85b1b60d21b606482015260840161023f565b6001600160a01b0385163b610a915760405162461bcd60e51b815260206004820152601d60248201527f416464726573733a2063616c6c20746f206e6f6e2d636f6e7472616374000000604482015260640161023f565b600080866001600160a01b03168587604051610aad9190610c08565b60006040518083038185875af1925050503d8060008114610aea576040519150601f19603f3d011682016040523d82523d6000602084013e610aef565b606091505b5091509150610aff828286610b0a565b979650505050505050565b60608315610b195750816101b7565b825115610b295782518084602001fd5b8160405162461bcd60e51b815260040161023f9190610c24565b600060208284031215610b5557600080fd5b81356101b781610cce565b60008060408385031215610b7357600080fd5b8235610b7e81610cce565b946020939093013593505050565b600080600060608486031215610ba157600080fd5b8335610bac81610cce565b92506020840135610bbc81610cce565b929592945050506040919091013590565b600060208284031215610bdf57600080fd5b815180151581146101b757600080fd5b600060208284031215610c0157600080fd5b5051919050565b60008251610c1a818460208701610ca2565b9190910192915050565b6020815260008251806020840152610c43816040850160208701610ca2565b601f01601f19169190910160400192915050565b6020808252602b908201527f496e697469616c697a61626c653a20636f6e7472616374206973206e6f74206960408201526a6e697469616c697a696e6760a81b606082015260800190565b60005b83811015610cbd578181015183820152602001610ca5565b838111156106e05750506000910152565b6001600160a01b03811681146103f357600080fdfea26469706673582212208f1601a83e4d50d69e516ddd868a347478a8a98276850d0d374f5b3bfce01b9564736f6c63430008060033",
  "linkReferences": {},
  "deployedLinkReferences": {}
}