{
  "_format": "hh-sol-artifact-1",
  "contractName": "TreasuryV2",
  "sourceName": "contracts/Treasury/TreasuryV2.sol",
  "abi": [
    {
      "anonymous": false,
      "inputs": [
        {
          "indexed": false,
          "internalType": "uint8",
          "name": "version",
          "type": "uint8"
        }
      ],
      "name": "Initialized",
      "type": "event"
    },
    {
      "anonymous": false,
      "inputs": [
        {
          "indexed": true,
          "internalType": "address",
          "name": "previousOwner",
          "type": "address"
        },
        {
          "indexed": true,
          "internalType": "address",
          "name": "newOwner",
          "type": "address"
        }
      ],
      "name": "OwnershipTransferred",
      "type": "event"
    },
    {
      "stateMutability": "payable",
      "type": "fallback"
    },
    {
      "inputs": [
        {
          "internalType": "address",
          "name": "token",
          "type": "address"
        },
        {
          "internalType": "address",
          "name": "recipient",
          "type": "address"
        },
        {
          "internalType": "uint256",
          "name": "amount",
          "type": "uint256"
        }
      ],
      "name": "approve",
      "outputs": [
        {
          "internalType": "bool",
          "name": "",
          "type": "bool"
        }
      ],
      "stateMutability": "nonpayable",
      "type": "function"
    },
    {
      "inputs": [],
      "name": "initialize",
      "outputs": [],
      "stateMutability": "nonpayable",
      "type": "function"
    },
    {
      "inputs": [],
      "name": "owner",
      "outputs": [
        {
          "internalType": "address",
          "name": "",
          "type": "address"
        }
      ],
      "stateMutability": "view",
      "type": "function"
    },
    {
      "inputs": [],
      "name": "renounceOwnership",
      "outputs": [],
      "stateMutability": "nonpayable",
      "type": "function"
    },
    {
      "inputs": [
        {
          "internalType": "address",
          "name": "token",
          "type": "address"
        },
        {
          "internalType": "address",
          "name": "recipient",
          "type": "address"
        },
        {
          "internalType": "uint256",
          "name": "amount",
          "type": "uint256"
        }
      ],
      "name": "transfer",
      "outputs": [
        {
          "internalType": "bool",
          "name": "",
          "type": "bool"
        }
      ],
      "stateMutability": "nonpayable",
      "type": "function"
    },
    {
      "inputs": [
        {
          "internalType": "address payable",
          "name": "recipient",
          "type": "address"
        },
        {
          "internalType": "uint256",
          "name": "amount",
          "type": "uint256"
        }
      ],
      "name": "transferETH",
      "outputs": [
        {
          "internalType": "bool",
          "name": "",
          "type": "bool"
        }
      ],
      "stateMutability": "nonpayable",
      "type": "function"
    },
    {
      "inputs": [
        {
          "internalType": "address",
          "name": "newOwner",
          "type": "address"
        }
      ],
      "name": "transferOwnership",
      "outputs": [],
      "stateMutability": "nonpayable",
      "type": "function"
    },
    {
      "stateMutability": "payable",
      "type": "receive"
    }
  ],
  "bytecode": "0x608060405234801561001057600080fd5b50610c90806100206000396000f3fe60806040526004361061006e5760003560e01c80638da5cb5b1161004b5780638da5cb5b146100d6578063beabacc8146100fe578063e1f21c671461011e578063f2fde38b1461013e57005b8063715018a6146100775780637b1a49091461008c5780638129fc1c146100c157005b3661007557005b005b34801561008357600080fd5b5061007561015e565b34801561009857600080fd5b506100ac6100a7366004610ad3565b610172565b60405190151581526020015b60405180910390f35b3480156100cd57600080fd5b5061007561028f565b3480156100e257600080fd5b506033546040516001600160a01b0390911681526020016100b8565b34801561010a57600080fd5b506100ac610119366004610aff565b6103a0565b34801561012a57600080fd5b506100ac610139366004610aff565b61048d565b34801561014a57600080fd5b50610075610159366004610ab6565b610556565b6101666105cc565b6101706000610626565b565b600061017c6105cc565b600082116101e85760405162461bcd60e51b815260206004820152602e60248201527f54726561737572793a3a7472616e736665724554483a206e656761746976652060448201526d1bdc881e995c9bc8185b5bdd5b9d60921b60648201526084015b60405180910390fd5b6001600160a01b03831661024f5760405162461bcd60e51b815260206004820152602860248201527f54726561737572793a3a7472616e736665724554483a20696e76616c696420726044820152671958da5c1a595b9d60c21b60648201526084016101df565b6040516001600160a01b0384169083156108fc029084906000818181858888f19350505050158015610285573d6000803e3d6000fd5b5060019392505050565b600054610100900460ff16158080156102af5750600054600160ff909116105b806102c95750303b1580156102c9575060005460ff166001145b61032c5760405162461bcd60e51b815260206004820152602e60248201527f496e697469616c697a61626c653a20636f6e747261637420697320616c72656160448201526d191e481a5b9a5d1a585b1a5e995960921b60648201526084016101df565b6000805460ff19166001179055801561034f576000805461ff0019166101001790555b610357610678565b801561039d576000805461ff0019169055604051600181527f7f26b83ff96e1f2b6a682f133852f6798a09c465da95921460cefb38474024989060200160405180910390a15b50565b60006103aa6105cc565b6000821161040e5760405162461bcd60e51b815260206004820152602b60248201527f54726561737572793a3a7472616e736665723a206e65676174697665206f722060448201526a1e995c9bc8185b5bdd5b9d60aa1b60648201526084016101df565b6001600160a01b0383166104725760405162461bcd60e51b815260206004820152602560248201527f54726561737572793a3a7472616e736665723a20696e76616c696420726563696044820152641c1a595b9d60da1b60648201526084016101df565b6102856001600160a01b03851684846106a7565b9392505050565b60006104976105cc565b604051636eb1769f60e11b81523060048201526001600160a01b0384811660248301526000919086169063dd62ed3e9060440160206040518083038186803b1580156104e257600080fd5b505afa1580156104f6573d6000803e3d6000fd5b505050506040513d601f19601f8201168201806040525081019061051a9190610b62565b90508015610537576105376001600160a01b03861685600061070f565b61054b6001600160a01b038616858561070f565b506001949350505050565b61055e6105cc565b6001600160a01b0381166105c35760405162461bcd60e51b815260206004820152602660248201527f4f776e61626c653a206e6577206f776e657220697320746865207a65726f206160448201526564647265737360d01b60648201526084016101df565b61039d81610626565b6033546001600160a01b031633146101705760405162461bcd60e51b815260206004820181905260248201527f4f776e61626c653a2063616c6c6572206973206e6f7420746865206f776e657260448201526064016101df565b603380546001600160a01b038381166001600160a01b0319831681179093556040519116919082907f8be0079c531659141344cd1fd0a4f28419497f9722a3daafe3b4186f6b6457e090600090a35050565b600054610100900460ff1661069f5760405162461bcd60e51b81526004016101df90610bca565b610170610833565b6040516001600160a01b03831660248201526044810182905261070a90849063a9059cbb60e01b906064015b60408051601f198184030181529190526020810180516001600160e01b03166001600160e01b031990931692909217909152610863565b505050565b8015806107985750604051636eb1769f60e11b81523060048201526001600160a01b03838116602483015284169063dd62ed3e9060440160206040518083038186803b15801561075e57600080fd5b505afa158015610772573d6000803e3d6000fd5b505050506040513d601f19601f820116820180604052508101906107969190610b62565b155b6108035760405162461bcd60e51b815260206004820152603660248201527f5361666545524332303a20617070726f76652066726f6d206e6f6e2d7a65726f60448201527520746f206e6f6e2d7a65726f20616c6c6f77616e636560501b60648201526084016101df565b6040516001600160a01b03831660248201526044810182905261070a90849063095ea7b360e01b906064016106d3565b600054610100900460ff1661085a5760405162461bcd60e51b81526004016101df90610bca565b61017033610626565b60006108b8826040518060400160405280602081526020017f5361666545524332303a206c6f772d6c6576656c2063616c6c206661696c6564815250856001600160a01b03166109359092919063ffffffff16565b80519091501561070a57808060200190518101906108d69190610b40565b61070a5760405162461bcd60e51b815260206004820152602a60248201527f5361666545524332303a204552433230206f7065726174696f6e20646964206e6044820152691bdd081cdd58d8d9595960b21b60648201526084016101df565b6060610944848460008561094c565b949350505050565b6060824710156109ad5760405162461bcd60e51b815260206004820152602660248201527f416464726573733a20696e73756666696369656e742062616c616e636520666f6044820152651c8818d85b1b60d21b60648201526084016101df565b6001600160a01b0385163b610a045760405162461bcd60e51b815260206004820152601d60248201527f416464726573733a2063616c6c20746f206e6f6e2d636f6e747261637400000060448201526064016101df565b600080866001600160a01b03168587604051610a209190610b7b565b60006040518083038185875af1925050503d8060008114610a5d576040519150601f19603f3d011682016040523d82523d6000602084013e610a62565b606091505b5091509150610a72828286610a7d565b979650505050505050565b60608315610a8c575081610486565b825115610a9c5782518084602001fd5b8160405162461bcd60e51b81526004016101df9190610b97565b600060208284031215610ac857600080fd5b813561048681610c45565b60008060408385031215610ae657600080fd5b8235610af181610c45565b946020939093013593505050565b600080600060608486031215610b1457600080fd5b8335610b1f81610c45565b92506020840135610b2f81610c45565b929592945050506040919091013590565b600060208284031215610b5257600080fd5b8151801515811461048657600080fd5b600060208284031215610b7457600080fd5b5051919050565b60008251610b8d818460208701610c15565b9190910192915050565b6020815260008251806020840152610bb6816040850160208701610c15565b601f01601f19169190910160400192915050565b6020808252602b908201527f496e697469616c697a61626c653a20636f6e7472616374206973206e6f74206960408201526a6e697469616c697a696e6760a81b606082015260800190565b60005b83811015610c30578181015183820152602001610c18565b83811115610c3f576000848401525b50505050565b6001600160a01b038116811461039d57600080fdfea26469706673582212209acc1f4960b31176aa30e5f9ef06bc3da3be85f8f6dd7fca8fef8153f5c97a8664736f6c63430008060033",
  "linkReferences": {},
  "deployedLinkReferences": {}
}