{
  "_format": "hh-sol-artifact-1",
  "contractName": "Delegator",
  "sourceName": "contracts/governance/Delegator.sol",
  "abi": [
    {
      "inputs": [
        {
          "internalType": "address",
          "name": "_token",
          "type": "address"
        },
        {
          "internalType": "address",
          "name": "governor",
          "type": "address"
        }
      ],
      "stateMutability": "nonpayable",
      "type": "constructor"
    },
    {
      "anonymous": false,
      "inputs": [
        {
          "indexed": true,
          "internalType": "address",
          "name": "previousOwner",
          "type": "address"
        },
        {
          "indexed": true,
          "internalType": "address",
          "name": "newOwner",
          "type": "address"
        }
      ],
      "name": "OwnershipTransferred",
      "type": "event"
    },
    {
      "inputs": [],
      "name": "owner",
      "outputs": [
        {
          "internalType": "address",
          "name": "",
          "type": "address"
        }
      ],
      "stateMutability": "view",
      "type": "function"
    },
    {
      "inputs": [],
      "name": "renounceOwnership",
      "outputs": [],
      "stateMutability": "nonpayable",
      "type": "function"
    },
    {
      "inputs": [],
      "name": "token",
      "outputs": [
        {
          "internalType": "contract GovernanceToken",
          "name": "",
          "type": "address"
        }
      ],
      "stateMutability": "view",
      "type": "function"
    },
    {
      "inputs": [
        {
          "internalType": "address",
          "name": "newOwner",
          "type": "address"
        }
      ],
      "name": "transferOwnership",
      "outputs": [],
      "stateMutability": "nonpayable",
      "type": "function"
    },
    {
      "inputs": [
        {
          "internalType": "address",
          "name": "recipient",
          "type": "address"
        },
        {
          "internalType": "uint256",
          "name": "amount",
          "type": "uint256"
        }
      ],
      "name": "unlock",
      "outputs": [],
      "stateMutability": "nonpayable",
      "type": "function"
    }
  ],
  "bytecode": "0x608060405234801561001057600080fd5b506040516105a93803806105a983398101604081905261002f9161019b565b6100383361012f565b6001600160a01b0381166100b85760405162461bcd60e51b815260206004820152603b60248201527f44656c656761746f723a3a636f6e7374727563746f723a2063616e6e6f74206460448201527f656c656761746520746f20746865207a65726f20616464726573730000000000606482015260840160405180910390fd5b600180546001600160a01b0319166001600160a01b038481169182179092556040516317066a5760e21b8152918316600483015290635c19a95c90602401600060405180830381600087803b15801561011057600080fd5b505af1158015610124573d6000803e3d6000fd5b5050505050506101ce565b600080546001600160a01b038381166001600160a01b0319831681178455604051919092169283917f8be0079c531659141344cd1fd0a4f28419497f9722a3daafe3b4186f6b6457e09190a35050565b80516001600160a01b038116811461019657600080fd5b919050565b600080604083850312156101ae57600080fd5b6101b78361017f565b91506101c56020840161017f565b90509250929050565b6103cc806101dd6000396000f3fe608060405234801561001057600080fd5b50600436106100575760003560e01c8063715018a61461005c5780637eee288d146100665780638da5cb5b14610079578063f2fde38b146100a2578063fc0c546a146100b5575b600080fd5b6100646100c8565b005b61006461007436600461034a565b6100dc565b6000546001600160a01b03165b6040516001600160a01b03909116815260200160405180910390f35b6100646100b0366004610328565b6101e9565b600154610086906001600160a01b031681565b6100d0610262565b6100da60006102bc565b565b6100e4610262565b6001600160a01b03821661015e5760405162461bcd60e51b815260206004820152603660248201527f44656c656761746f723a3a756e6c6f636b3a2063616e6e6f74207472616e7366604482015275657220746f20746865207a65726f206164647265737360501b60648201526084015b60405180910390fd5b60015460405163a9059cbb60e01b81526001600160a01b038481166004830152602482018490529091169063a9059cbb90604401602060405180830381600087803b1580156101ac57600080fd5b505af11580156101c0573d6000803e3d6000fd5b505050506040513d601f19601f820116820180604052508101906101e49190610374565b505050565b6101f1610262565b6001600160a01b0381166102565760405162461bcd60e51b815260206004820152602660248201527f4f776e61626c653a206e6577206f776e657220697320746865207a65726f206160448201526564647265737360d01b6064820152608401610155565b61025f816102bc565b50565b6000546001600160a01b031633146100da5760405162461bcd60e51b815260206004820181905260248201527f4f776e61626c653a2063616c6c6572206973206e6f7420746865206f776e65726044820152606401610155565b600080546001600160a01b038381166001600160a01b0319831681178455604051919092169283917f8be0079c531659141344cd1fd0a4f28419497f9722a3daafe3b4186f6b6457e09190a35050565b80356001600160a01b038116811461032357600080fd5b919050565b60006020828403121561033a57600080fd5b6103438261030c565b9392505050565b6000806040838503121561035d57600080fd5b6103668361030c565b946020939093013593505050565b60006020828403121561038657600080fd5b8151801515811461034357600080fdfea26469706673582212209c843d285c446cb9deda9be39ddc109bcca1d04b0143578fd206a3854493e3d664736f6c63430008060033",
  "linkReferences": {},
  "deployedLinkReferences": {}
}