{
  "name": "Budget",
  "address": "0x6242b2E97c1DE936A1c89a1DdA41FaD39f88562b",
  "abi": [
    {
      "anonymous": false,
      "inputs": [
        {
          "indexed": true,
          "internalType": "address",
          "name": "recipient",
          "type": "address"
        },
        {
          "indexed": false,
          "internalType": "uint256",
          "name": "min",
          "type": "uint256"
        },
        {
          "indexed": false,
          "internalType": "uint256",
          "name": "target",
          "type": "uint256"
        }
      ],
      "name": "ExpenditureChanged",
      "type": "event"
    },
    {
      "anonymous": false,
      "inputs": [
        {
          "indexed": true,
          "internalType": "address",
          "name": "previousOwner",
          "type": "address"
        },
        {
          "indexed": true,
          "internalType": "address",
          "name": "newOwner",
          "type": "address"
        }
      ],
      "name": "OwnershipTransferred",
      "type": "event"
    },
    {
      "anonymous": false,
      "inputs": [
        {
          "indexed": true,
          "internalType": "address",
          "name": "recipient",
          "type": "address"
        },
        {
          "indexed": false,
          "internalType": "uint256",
          "name": "amount",
          "type": "uint256"
        }
      ],
      "name": "Withdrawal",
      "type": "event"
    },
    {
      "inputs": [],
      "name": "MAXIMUM_RECIPIENT_COUNT",
      "outputs": [
        {
          "internalType": "uint256",
          "name": "",
          "type": "uint256"
        }
      ],
      "stateMutability": "view",
      "type": "function"
    },
    {
      "inputs": [
        {
          "internalType": "address",
          "name": "",
          "type": "address"
        }
      ],
      "name": "balanceOf",
      "outputs": [
        {
          "internalType": "uint256",
          "name": "",
          "type": "uint256"
        }
      ],
      "stateMutability": "view",
      "type": "function"
    },
    {
      "inputs": [
        {
          "internalType": "address",
          "name": "recipient",
          "type": "address"
        },
        {
          "internalType": "uint256",
          "name": "min",
          "type": "uint256"
        },
        {
          "internalType": "uint256",
          "name": "target",
          "type": "uint256"
        }
      ],
      "name": "changeExpenditure",
      "outputs": [],
      "stateMutability": "nonpayable",
      "type": "function"
    },
    {
      "inputs": [],
      "name": "deficit",
      "outputs": [
        {
          "internalType": "uint256",
          "name": "",
          "type": "uint256"
        }
      ],
      "stateMutability": "view",
      "type": "function"
    },
    {
      "inputs": [
        {
          "internalType": "address",
          "name": "recipient",
          "type": "address"
        }
      ],
      "name": "deficitTo",
      "outputs": [
        {
          "internalType": "uint256",
          "name": "",
          "type": "uint256"
        }
      ],
      "stateMutability": "view",
      "type": "function"
    },
    {
      "inputs": [
        {
          "internalType": "address",
          "name": "",
          "type": "address"
        }
      ],
      "name": "expenditures",
      "outputs": [
        {
          "internalType": "address",
          "name": "recipient",
          "type": "address"
        },
        {
          "internalType": "uint256",
          "name": "min",
          "type": "uint256"
        },
        {
          "internalType": "uint256",
          "name": "target",
          "type": "uint256"
        }
      ],
      "stateMutability": "view",
      "type": "function"
    },
    {
      "inputs": [],
      "name": "owner",
      "outputs": [
        {
          "internalType": "address",
          "name": "",
          "type": "address"
        }
      ],
      "stateMutability": "view",
      "type": "function"
    },
    {
      "inputs": [],
      "name": "pay",
      "outputs": [],
      "stateMutability": "nonpayable",
      "type": "function"
    },
    {
      "inputs": [],
      "name": "recipients",
      "outputs": [
        {
          "internalType": "address[]",
          "name": "",
          "type": "address[]"
        }
      ],
      "stateMutability": "view",
      "type": "function"
    },
    {
      "inputs": [],
      "name": "renounceOwnership",
      "outputs": [],
      "stateMutability": "nonpayable",
      "type": "function"
    },
    {
      "inputs": [],
      "name": "totalSupply",
      "outputs": [
        {
          "internalType": "uint256",
          "name": "",
          "type": "uint256"
        }
      ],
      "stateMutability": "view",
      "type": "function"
    },
    {
      "inputs": [
        {
          "internalType": "address payable",
          "name": "recipient",
          "type": "address"
        },
        {
          "internalType": "uint256",
          "name": "amount",
          "type": "uint256"
        }
      ],
      "name": "transferETH",
      "outputs": [],
      "stateMutability": "nonpayable",
      "type": "function"
    },
    {
      "inputs": [
        {
          "internalType": "address",
          "name": "newOwner",
          "type": "address"
        }
      ],
      "name": "transferOwnership",
      "outputs": [],
      "stateMutability": "nonpayable",
      "type": "function"
    },
    {
      "inputs": [],
      "name": "withdraw",
      "outputs": [],
      "stateMutability": "nonpayable",
      "type": "function"
    },
    {
      "stateMutability": "payable",
      "type": "receive"
    }
  ],
  "transactionHash": "0xde6c4d549b8c850a29f457343d1fb7e0d96345bf6a103a34585c9db64d544ca8",
  "blockNumber": 5536822,
  "args": [],
  "numDeployments": 1,
  "solcInputHash": "4824b5d056196586c4572caef94d3062",
  "bytecode": "0x608060405234801561001057600080fd5b5061001a3361001f565b61006f565b600080546001600160a01b038381166001600160a01b0319831681178455604051919092169283917f8be0079c531659141344cd1fd0a4f28419497f9722a3daafe3b4186f6b6457e09190a35050565b61100a8061007e6000396000f3fe6080604052600436106100e15760003560e01c8063715018a61161007f578063e21fe96111610059578063e21fe96114610227578063e9cf66f114610293578063f2fde38b146102b3578063f9462173146102d357600080fd5b8063715018a6146101ca5780637b1a4909146101df5780638da5cb5b146101ff57600080fd5b80631b9265b8116100bb5780631b9265b81461015e5780633ccfd60b146101735780635426fa8a1461018857806370a082311461019d57600080fd5b80630d432021146100ed5780630e57d4ce1461010f57806318160ddd1461013a57600080fd5b366100e857005b600080fd5b3480156100f957600080fd5b5061010d610108366004610e66565b6102e8565b005b34801561011b57600080fd5b506101246105b0565b6040516101319190610e9b565b60405180910390f35b34801561014657600080fd5b5061015060055481565b604051908152602001610131565b34801561016a57600080fd5b5061010d610663565b34801561017f57600080fd5b5061010d61071d565b34801561019457600080fd5b50610150610844565b3480156101a957600080fd5b506101506101b8366004610e1d565b60046020526000908152604090205481565b3480156101d657600080fd5b5061010d610887565b3480156101eb57600080fd5b5061010d6101fa366004610e3a565b6108bd565b34801561020b57600080fd5b506000546040516001600160a01b039091168152602001610131565b34801561023357600080fd5b5061026e610242366004610e1d565b60016020819052600091825260409091208054918101546002909101546001600160a01b039092169183565b604080516001600160a01b039094168452602084019290925290820152606001610131565b34801561029f57600080fd5b506101506102ae366004610e1d565b610a65565b3480156102bf57600080fd5b5061010d6102ce366004610e1d565b610b5e565b3480156102df57600080fd5b5061015060c881565b6000546001600160a01b0316331461031b5760405162461bcd60e51b815260040161031290610ee8565b60405180910390fd5b808211156103ab5760405162461bcd60e51b815260206004820152605160248201527f4275646765743a3a6368616e6765457870656e6469747572653a206d696e696d60448201527f616c2062616c616e63652073686f756c64206265206c657373206f7220657175606482015270616c207461726765742062616c616e636560781b608482015260a401610312565b6001600160a01b0383166104165760405162461bcd60e51b815260206004820152602c60248201527f4275646765743a3a6368616e6765457870656e6469747572653a20696e76616c60448201526b1a59081c9958da5c1a595b9d60a21b6064820152608401610312565b604080516060810182526001600160a01b038581168083526020808401878152848601878152600093845260019283905295909220935184546001600160a01b03191693169290921783555190820155905160029091015580156105105761047f600284610bf6565b5060c861048c6002610c14565b111561050b5760405162461bcd60e51b815260206004820152604260248201527f4275646765743a3a6368616e6765457870656e6469747572653a20726563697060448201527f69656e74206d757374206e6f7420657863656564206d6178696d756d20636f756064820152611b9d60f21b608482015260a401610312565b610567565b6001600160a01b038316600090815260046020526040812054600580549192909161053c908490610f35565b90915550506001600160a01b038316600090815260046020526040812055610565600284610c1e565b505b60408051838152602081018390526001600160a01b038516917f5c315648fddc891fd463694f00b02e1b8e3a1847790fd85887fb41f7c28fb1ca910160405180910390a2505050565b606060006105be6002610c14565b67ffffffffffffffff8111156105d6576105d6610fa9565b6040519080825280602002602001820160405280156105ff578160200160208202803683370190505b50905060005b61060f6002610c14565b81101561065d57610621600282610c33565b82828151811061063357610633610f93565b6001600160a01b03909216602092830291909101909101528061065581610f4c565b915050610605565b50919050565b60005b6106706002610c14565b81101561071a576000600554476106879190610f35565b90506000610696600284610c33565b905060006106a382610a65565b90508015806106b157508083105b156106be57505050610708565b6001600160a01b038216600090815260046020526040812080548392906106e6908490610f1d565b9250508190555080600560008282546106ff9190610f1d565b90915550505050505b8061071281610f4c565b915050610666565b50565b33600081815260046020526040902054806107945760405162461bcd60e51b815260206004820152603160248201527f4275646765743a3a77697468647261773a207472616e7366657220616d6f756e6044820152707420657863656564732062616c616e636560781b6064820152608401610312565b6001600160a01b0382166000908152600460205260408120819055600580548392906107c1908490610f35565b90915550506040516001600160a01b0383169082156108fc029083906000818181858888f193505050501580156107fc573d6000803e3d6000fd5b50816001600160a01b03167f7fcf532c15f0a6db0bd6d0e038bea71d30d808c7d98cb3bf7268a95bf5081b658260405161083891815260200190565b60405180910390a25050565b60008060005b6108546002610c14565b81101561065d576108696102ae600283610c33565b6108739083610f1d565b91508061087f81610f4c565b91505061084a565b6000546001600160a01b031633146108b15760405162461bcd60e51b815260040161031290610ee8565b6108bb6000610c3f565b565b6000546001600160a01b031633146108e75760405162461bcd60e51b815260040161031290610ee8565b6000811161094c5760405162461bcd60e51b815260206004820152602c60248201527f4275646765743a3a7472616e736665724554483a206e65676174697665206f7260448201526b081e995c9bc8185b5bdd5b9d60a21b6064820152608401610312565b6001600160a01b0382166109b15760405162461bcd60e51b815260206004820152602660248201527f4275646765743a3a7472616e736665724554483a20696e76616c6964207265636044820152651a5c1a595b9d60d21b6064820152608401610312565b6005546109be9047610f35565b811115610a2a5760405162461bcd60e51b815260206004820152603460248201527f4275646765743a3a7472616e736665724554483a207472616e7366657220616d6044820152736f756e7420657863656564732062616c616e636560601b6064820152608401610312565b6040516001600160a01b0383169082156108fc029083906000818181858888f19350505050158015610a60573d6000803e3d6000fd5b505050565b6000610a72600283610c8f565b610adb5760405162461bcd60e51b815260206004820152603460248201527f4275646765743a3a64656669636974546f3a20726563697069656e74206e6f7460448201527320696e20657870656e646974757265206974656d60601b6064820152608401610312565b6001600160a01b0382166000818152600460205260408120549091610b01919031610f1d565b6001600160a01b038416600090815260016020819052604090912001549091508110610b305750600092915050565b6001600160a01b038316600090815260016020526040902060020154610b57908290610f35565b9392505050565b6000546001600160a01b03163314610b885760405162461bcd60e51b815260040161031290610ee8565b6001600160a01b038116610bed5760405162461bcd60e51b815260206004820152602660248201527f4f776e61626c653a206e6577206f776e657220697320746865207a65726f206160448201526564647265737360d01b6064820152608401610312565b61071a81610c3f565b6000610c0b836001600160a01b038416610cb1565b90505b92915050565b6000610c0e825490565b6000610c0b836001600160a01b038416610d00565b6000610c0b8383610df3565b600080546001600160a01b038381166001600160a01b0319831681178455604051919092169283917f8be0079c531659141344cd1fd0a4f28419497f9722a3daafe3b4186f6b6457e09190a35050565b6001600160a01b03811660009081526001830160205260408120541515610c0b565b6000818152600183016020526040812054610cf857508154600181810184556000848152602080822090930184905584548482528286019093526040902091909155610c0e565b506000610c0e565b60008181526001830160205260408120548015610de9576000610d24600183610f35565b8554909150600090610d3890600190610f35565b9050818114610d9d576000866000018281548110610d5857610d58610f93565b9060005260206000200154905080876000018481548110610d7b57610d7b610f93565b6000918252602080832090910192909255918252600188019052604090208390555b8554869080610dae57610dae610f7d565b600190038181906000526020600020016000905590558560010160008681526020019081526020016000206000905560019350505050610c0e565b6000915050610c0e565b6000826000018281548110610e0a57610e0a610f93565b9060005260206000200154905092915050565b600060208284031215610e2f57600080fd5b8135610b5781610fbf565b60008060408385031215610e4d57600080fd5b8235610e5881610fbf565b946020939093013593505050565b600080600060608486031215610e7b57600080fd5b8335610e8681610fbf565b95602085013595506040909401359392505050565b6020808252825182820181905260009190848201906040850190845b81811015610edc5783516001600160a01b031683529284019291840191600101610eb7565b50909695505050505050565b6020808252818101527f4f776e61626c653a2063616c6c6572206973206e6f7420746865206f776e6572604082015260600190565b60008219821115610f3057610f30610f67565b500190565b600082821015610f4757610f47610f67565b500390565b6000600019821415610f6057610f60610f67565b5060010190565b634e487b7160e01b600052601160045260246000fd5b634e487b7160e01b600052603160045260246000fd5b634e487b7160e01b600052603260045260246000fd5b634e487b7160e01b600052604160045260246000fd5b6001600160a01b038116811461071a57600080fdfea264697066735822122068b798d5b2f5d854b0cbe917430716fc3b8ecfa44e59941e5da87e2a842dd30e64736f6c63430008060033",
  "devdoc": {
    "kind": "dev",
    "methods": {
      "changeExpenditure(address,uint256,uint256)": {
        "params": {
          "min": "Minimal balance for payment.",
          "recipient": "Recipient address.",
          "target": "Target balance."
        }
      },
      "deficit()": {
        "returns": {
          "_0": "Summary balance deficit of all recipients."
        }
      },
      "deficitTo(address)": {
        "params": {
          "recipient": "Target recipient."
        },
        "returns": {
          "_0": "Balance deficit of recipient."
        }
      },
      "owner()": {
        "details": "Returns the address of the current owner."
      },
      "recipients()": {
        "returns": {
          "_0": "Recipients addresses."
        }
      },
      "renounceOwnership()": {
        "details": "Leaves the contract without owner. It will not be possible to call `onlyOwner` functions anymore. Can only be called by the current owner. NOTE: Renouncing ownership will leave the contract without an owner, thereby removing any functionality that is only available to the owner."
      },
      "transferETH(address,uint256)": {
        "params": {
          "amount": "Transfer amount.",
          "recipient": "Recipient."
        }
      },
      "transferOwnership(address)": {
        "details": "Transfers ownership of the contract to a new account (`newOwner`). Can only be called by the current owner."
      }
    },
    "stateVariables": {
      "_recipients": {
        "details": "Recipients addresses list."
      },
      "balanceOf": {
        "details": "Withdrawal balance of recipients."
      }
    },
    "version": 1
  },
  "userdoc": {
    "kind": "user",
    "methods": {
      "MAXIMUM_RECIPIENT_COUNT()": {
        "notice": "Maximum recipient count."
      },
      "changeExpenditure(address,uint256,uint256)": {
        "notice": "Change expenditure item."
      },
      "deficit()": {
        "notice": "Return summary balance deficit of all recipients."
      },
      "deficitTo(address)": {
        "notice": "Return balance deficit of recipient."
      },
      "expenditures(address)": {
        "notice": "Expenditure item to address."
      },
      "pay()": {
        "notice": "Pay ETH to all recipients with balance deficit."
      },
      "recipients()": {
        "notice": "Return all recipients addresses."
      },
      "totalSupply()": {
        "notice": "Total withdrawal balance."
      },
      "transferETH(address,uint256)": {
        "notice": "Transfer ETH to recipient."
      },
      "withdraw()": {
        "notice": "Withdraw ETH to recipient."
      }
    },
    "version": 1
  },
  "storageLayout": {
    "storage": [
      {
        "astId": 53,
        "contract": "contracts/Budget.sol:Budget",
        "label": "_owner",
        "offset": 0,
        "slot": "0",
        "type": "t_address"
      },
      {
        "astId": 2272,
        "contract": "contracts/Budget.sol:Budget",
        "label": "expenditures",
        "offset": 0,
        "slot": "1",
        "type": "t_mapping(t_address,t_struct(Expenditure)2266_storage)"
      },
      {
        "astId": 2276,
        "contract": "contracts/Budget.sol:Budget",
        "label": "_recipients",
        "offset": 0,
        "slot": "2",
        "type": "t_struct(AddressSet)1193_storage"
      },
      {
        "astId": 2281,
        "contract": "contracts/Budget.sol:Budget",
        "label": "balanceOf",
        "offset": 0,
        "slot": "4",
        "type": "t_mapping(t_address,t_uint256)"
      },
      {
        "astId": 2284,
        "contract": "contracts/Budget.sol:Budget",
        "label": "totalSupply",
        "offset": 0,
        "slot": "5",
        "type": "t_uint256"
      }
    ],
    "types": {
      "t_address": {
        "encoding": "inplace",
        "label": "address",
        "numberOfBytes": "20"
      },
      "t_array(t_bytes32)dyn_storage": {
        "base": "t_bytes32",
        "encoding": "dynamic_array",
        "label": "bytes32[]",
        "numberOfBytes": "32"
      },
      "t_bytes32": {
        "encoding": "inplace",
        "label": "bytes32",
        "numberOfBytes": "32"
      },
      "t_mapping(t_address,t_struct(Expenditure)2266_storage)": {
        "encoding": "mapping",
        "key": "t_address",
        "label": "mapping(address => struct Budget.Expenditure)",
        "numberOfBytes": "32",
        "value": "t_struct(Expenditure)2266_storage"
      },
      "t_mapping(t_address,t_uint256)": {
        "encoding": "mapping",
        "key": "t_address",
        "label": "mapping(address => uint256)",
        "numberOfBytes": "32",
        "value": "t_uint256"
      },
      "t_mapping(t_bytes32,t_uint256)": {
        "encoding": "mapping",
        "key": "t_bytes32",
        "label": "mapping(bytes32 => uint256)",
        "numberOfBytes": "32",
        "value": "t_uint256"
      },
      "t_struct(AddressSet)1193_storage": {
        "encoding": "inplace",
        "label": "struct EnumerableSet.AddressSet",
        "members": [
          {
            "astId": 1192,
            "contract": "contracts/Budget.sol:Budget",
            "label": "_inner",
            "offset": 0,
            "slot": "0",
            "type": "t_struct(Set)922_storage"
          }
        ],
        "numberOfBytes": "64"
      },
      "t_struct(Expenditure)2266_storage": {
        "encoding": "inplace",
        "label": "struct Budget.Expenditure",
        "members": [
          {
            "astId": 2261,
            "contract": "contracts/Budget.sol:Budget",
            "label": "recipient",
            "offset": 0,
            "slot": "0",
            "type": "t_address"
          },
          {
            "astId": 2263,
            "contract": "contracts/Budget.sol:Budget",
            "label": "min",
            "offset": 0,
            "slot": "1",
            "type": "t_uint256"
          },
          {
            "astId": 2265,
            "contract": "contracts/Budget.sol:Budget",
            "label": "target",
            "offset": 0,
            "slot": "2",
            "type": "t_uint256"
          }
        ],
        "numberOfBytes": "96"
      },
      "t_struct(Set)922_storage": {
        "encoding": "inplace",
        "label": "struct EnumerableSet.Set",
        "members": [
          {
            "astId": 917,
            "contract": "contracts/Budget.sol:Budget",
            "label": "_values",
            "offset": 0,
            "slot": "0",
            "type": "t_array(t_bytes32)dyn_storage"
          },
          {
            "astId": 921,
            "contract": "contracts/Budget.sol:Budget",
            "label": "_indexes",
            "offset": 0,
            "slot": "1",
            "type": "t_mapping(t_bytes32,t_uint256)"
          }
        ],
        "numberOfBytes": "64"
      },
      "t_uint256": {
        "encoding": "inplace",
        "label": "uint256",
        "numberOfBytes": "32"
      }
    }
  }
}