{
  "name": "Treasury",
  "address": "0x8dE8AFa08196Bb03fb8eE4cEe8BAdCe98fE4D063",
  "abi": [
    {
      "anonymous": false,
      "inputs": [
        {
          "indexed": true,
          "internalType": "address",
          "name": "previousOwner",
          "type": "address"
        },
        {
          "indexed": true,
          "internalType": "address",
          "name": "newOwner",
          "type": "address"
        }
      ],
      "name": "OwnershipTransferred",
      "type": "event"
    },
    {
      "inputs": [
        {
          "internalType": "contract IERC20",
          "name": "token",
          "type": "address"
        },
        {
          "internalType": "address",
          "name": "recipient",
          "type": "address"
        },
        {
          "internalType": "uint256",
          "name": "amount",
          "type": "uint256"
        }
      ],
      "name": "approve",
      "outputs": [],
      "stateMutability": "nonpayable",
      "type": "function"
    },
    {
      "inputs": [],
      "name": "owner",
      "outputs": [
        {
          "internalType": "address",
          "name": "",
          "type": "address"
        }
      ],
      "stateMutability": "view",
      "type": "function"
    },
    {
      "inputs": [],
      "name": "renounceOwnership",
      "outputs": [],
      "stateMutability": "nonpayable",
      "type": "function"
    },
    {
      "inputs": [
        {
          "internalType": "contract IERC20",
          "name": "token",
          "type": "address"
        },
        {
          "internalType": "address",
          "name": "recipient",
          "type": "address"
        },
        {
          "internalType": "uint256",
          "name": "amount",
          "type": "uint256"
        }
      ],
      "name": "transfer",
      "outputs": [],
      "stateMutability": "nonpayable",
      "type": "function"
    },
    {
      "inputs": [
        {
          "internalType": "address payable",
          "name": "recipient",
          "type": "address"
        },
        {
          "internalType": "uint256",
          "name": "amount",
          "type": "uint256"
        }
      ],
      "name": "transferETH",
      "outputs": [],
      "stateMutability": "nonpayable",
      "type": "function"
    },
    {
      "inputs": [
        {
          "internalType": "address",
          "name": "newOwner",
          "type": "address"
        }
      ],
      "name": "transferOwnership",
      "outputs": [],
      "stateMutability": "nonpayable",
      "type": "function"
    },
    {
      "stateMutability": "payable",
      "type": "receive"
    }
  ],
  "transactionHash": "0x219451d6394bdc60c3652a89fb794d2eec630baf8f9e08109d13768deb2203b6",
  "blockNumber": 5536794,
  "args": [],
  "numDeployments": 1,
  "solcInputHash": "4824b5d056196586c4572caef94d3062",
  "bytecode": "0x608060405234801561001057600080fd5b5061001a3361001f565b61006f565b600080546001600160a01b038381166001600160a01b0319831681178455604051919092169283917f8be0079c531659141344cd1fd0a4f28419497f9722a3daafe3b4186f6b6457e09190a35050565b61080d8061007e6000396000f3fe6080604052600436106100595760003560e01c8063715018a6146100655780637b1a49091461007c5780638da5cb5b1461009c578063beabacc8146100c8578063e1f21c67146100e8578063f2fde38b1461010857600080fd5b3661006057005b600080fd5b34801561007157600080fd5b5061007a610128565b005b34801561008857600080fd5b5061007a6100973660046106e5565b610167565b3480156100a857600080fd5b50600054604080516001600160a01b039092168252519081900360200190f35b3480156100d457600080fd5b5061007a6100e3366004610733565b61029a565b3480156100f457600080fd5b5061007a610103366004610733565b610414565b34801561011457600080fd5b5061007a6101233660046106c1565b6105d6565b6000546001600160a01b0316331461015b5760405162461bcd60e51b81526004016101529061078d565b60405180910390fd5b6101656000610671565b565b6000546001600160a01b031633146101915760405162461bcd60e51b81526004016101529061078d565b600081116101f85760405162461bcd60e51b815260206004820152602e60248201527f54726561737572793a3a7472616e736665724554483a206e656761746976652060448201526d1bdc881e995c9bc8185b5bdd5b9d60921b6064820152608401610152565b6001600160a01b03821661025f5760405162461bcd60e51b815260206004820152602860248201527f54726561737572793a3a7472616e736665724554483a20696e76616c696420726044820152671958da5c1a595b9d60c21b6064820152608401610152565b6040516001600160a01b0383169082156108fc029083906000818181858888f19350505050158015610295573d6000803e3d6000fd5b505050565b6000546001600160a01b031633146102c45760405162461bcd60e51b81526004016101529061078d565b600081116103285760405162461bcd60e51b815260206004820152602b60248201527f54726561737572793a3a7472616e736665723a206e65676174697665206f722060448201526a1e995c9bc8185b5bdd5b9d60aa1b6064820152608401610152565b6001600160a01b03821661038c5760405162461bcd60e51b815260206004820152602560248201527f54726561737572793a3a7472616e736665723a20696e76616c696420726563696044820152641c1a595b9d60da1b6064820152608401610152565b60405163a9059cbb60e01b81526001600160a01b0383811660048301526024820183905284169063a9059cbb90604401602060405180830381600087803b1580156103d657600080fd5b505af11580156103ea573d6000803e3d6000fd5b505050506040513d601f19601f8201168201806040525081019061040e9190610711565b50505050565b6000546001600160a01b0316331461043e5760405162461bcd60e51b81526004016101529061078d565b604051636eb1769f60e11b81523060048201526001600160a01b0383811660248301526000919085169063dd62ed3e9060440160206040518083038186803b15801561048957600080fd5b505afa15801561049d573d6000803e3d6000fd5b505050506040513d601f19601f820116820180604052508101906104c19190610774565b9050801561054d5760405163095ea7b360e01b81526001600160a01b0384811660048301526000602483015285169063095ea7b390604401602060405180830381600087803b15801561051357600080fd5b505af1158015610527573d6000803e3d6000fd5b505050506040513d601f19601f8201168201806040525081019061054b9190610711565b505b60405163095ea7b360e01b81526001600160a01b0384811660048301526024820184905285169063095ea7b390604401602060405180830381600087803b15801561059757600080fd5b505af11580156105ab573d6000803e3d6000fd5b505050506040513d601f19601f820116820180604052508101906105cf9190610711565b5050505050565b6000546001600160a01b031633146106005760405162461bcd60e51b81526004016101529061078d565b6001600160a01b0381166106655760405162461bcd60e51b815260206004820152602660248201527f4f776e61626c653a206e6577206f776e657220697320746865207a65726f206160448201526564647265737360d01b6064820152608401610152565b61066e81610671565b50565b600080546001600160a01b038381166001600160a01b0319831681178455604051919092169283917f8be0079c531659141344cd1fd0a4f28419497f9722a3daafe3b4186f6b6457e09190a35050565b6000602082840312156106d357600080fd5b81356106de816107c2565b9392505050565b600080604083850312156106f857600080fd5b8235610703816107c2565b946020939093013593505050565b60006020828403121561072357600080fd5b815180151581146106de57600080fd5b60008060006060848603121561074857600080fd5b8335610753816107c2565b92506020840135610763816107c2565b929592945050506040919091013590565b60006020828403121561078657600080fd5b5051919050565b6020808252818101527f4f776e61626c653a2063616c6c6572206973206e6f7420746865206f776e6572604082015260600190565b6001600160a01b038116811461066e57600080fdfea264697066735822122053c9b33c9497197ddc32e97b3c16cddcdc2c37c2ad501ebdc413e40807e61d0164736f6c63430008060033",
  "devdoc": {
    "kind": "dev",
    "methods": {
      "approve(address,address,uint256)": {
        "params": {
          "amount": "Approve amount.",
          "recipient": "Recipient.",
          "token": "Target token."
        }
      },
      "owner()": {
        "details": "Returns the address of the current owner."
      },
      "renounceOwnership()": {
        "details": "Leaves the contract without owner. It will not be possible to call `onlyOwner` functions anymore. Can only be called by the current owner. NOTE: Renouncing ownership will leave the contract without an owner, thereby removing any functionality that is only available to the owner."
      },
      "transfer(address,address,uint256)": {
        "params": {
          "amount": "Transfer amount.",
          "recipient": "Recipient.",
          "token": "Target token."
        }
      },
      "transferETH(address,uint256)": {
        "params": {
          "amount": "Transfer amount.",
          "recipient": "Recipient."
        }
      },
      "transferOwnership(address)": {
        "details": "Transfers ownership of the contract to a new account (`newOwner`). Can only be called by the current owner."
      }
    },
    "version": 1
  },
  "userdoc": {
    "kind": "user",
    "methods": {
      "approve(address,address,uint256)": {
        "notice": "Approve token to recipient."
      },
      "transfer(address,address,uint256)": {
        "notice": "Transfer token to recipient."
      },
      "transferETH(address,uint256)": {
        "notice": "Transfer ETH to recipient."
      }
    },
    "version": 1
  },
  "storageLayout": {
    "storage": [
      {
        "astId": 53,
        "contract": "contracts/Treasury.sol:Treasury",
        "label": "_owner",
        "offset": 0,
        "slot": "0",
        "type": "t_address"
      }
    ],
    "types": {
      "t_address": {
        "encoding": "inplace",
        "label": "address",
        "numberOfBytes": "20"
      }
    }
  }
}