{
  "_format": "hh-sol-artifact-1",
  "contractName": "Store",
  "sourceName": "contracts/Store.sol",
  "abi": [
    {
      "inputs": [
        {
          "internalType": "address",
          "name": "_balance",
          "type": "address"
        },
        {
          "internalType": "address",
          "name": "_priceFeed",
          "type": "address"
        }
      ],
      "stateMutability": "nonpayable",
      "type": "constructor"
    },
    {
      "anonymous": false,
      "inputs": [
        {
          "indexed": true,
          "internalType": "uint8",
          "name": "product",
          "type": "uint8"
        },
        {
          "indexed": true,
          "internalType": "address",
          "name": "recipient",
          "type": "address"
        }
      ],
      "name": "Buy",
      "type": "event"
    },
    {
      "anonymous": false,
      "inputs": [
        {
          "indexed": true,
          "internalType": "address",
          "name": "previousOwner",
          "type": "address"
        },
        {
          "indexed": true,
          "internalType": "address",
          "name": "newOwner",
          "type": "address"
        }
      ],
      "name": "OwnershipTransferred",
      "type": "event"
    },
    {
      "anonymous": false,
      "inputs": [
        {
          "indexed": false,
          "internalType": "address",
          "name": "account",
          "type": "address"
        }
      ],
      "name": "Paused",
      "type": "event"
    },
    {
      "anonymous": false,
      "inputs": [
        {
          "indexed": true,
          "internalType": "address",
          "name": "priceFeed",
          "type": "address"
        }
      ],
      "name": "PriceFeedChanged",
      "type": "event"
    },
    {
      "anonymous": false,
      "inputs": [
        {
          "indexed": true,
          "internalType": "uint8",
          "name": "product",
          "type": "uint8"
        },
        {
          "indexed": false,
          "internalType": "uint256",
          "name": "priceUSD",
          "type": "uint256"
        }
      ],
      "name": "ProductChanged",
      "type": "event"
    },
    {
      "anonymous": false,
      "inputs": [
        {
          "indexed": false,
          "internalType": "address",
          "name": "account",
          "type": "address"
        }
      ],
      "name": "Unpaused",
      "type": "event"
    },
    {
      "inputs": [],
      "name": "balance",
      "outputs": [
        {
          "internalType": "contract Balance",
          "name": "",
          "type": "address"
        }
      ],
      "stateMutability": "view",
      "type": "function"
    },
    {
      "inputs": [
        {
          "internalType": "uint8",
          "name": "product",
          "type": "uint8"
        },
        {
          "internalType": "address",
          "name": "recipient",
          "type": "address"
        },
        {
          "internalType": "uint256",
          "name": "priceMax",
          "type": "uint256"
        },
        {
          "internalType": "uint256",
          "name": "deadline",
          "type": "uint256"
        }
      ],
      "name": "buy",
      "outputs": [],
      "stateMutability": "payable",
      "type": "function"
    },
    {
      "inputs": [
        {
          "internalType": "address",
          "name": "_priceFeed",
          "type": "address"
        }
      ],
      "name": "changePriceFeed",
      "outputs": [],
      "stateMutability": "nonpayable",
      "type": "function"
    },
    {
      "inputs": [
        {
          "internalType": "uint8",
          "name": "id",
          "type": "uint8"
        },
        {
          "internalType": "uint256",
          "name": "priceUSD",
          "type": "uint256"
        }
      ],
      "name": "changeProduct",
      "outputs": [],
      "stateMutability": "nonpayable",
      "type": "function"
    },
    {
      "inputs": [],
      "name": "owner",
      "outputs": [
        {
          "internalType": "address",
          "name": "",
          "type": "address"
        }
      ],
      "stateMutability": "view",
      "type": "function"
    },
    {
      "inputs": [],
      "name": "pause",
      "outputs": [],
      "stateMutability": "nonpayable",
      "type": "function"
    },
    {
      "inputs": [],
      "name": "paused",
      "outputs": [
        {
          "internalType": "bool",
          "name": "",
          "type": "bool"
        }
      ],
      "stateMutability": "view",
      "type": "function"
    },
    {
      "inputs": [
        {
          "internalType": "uint8",
          "name": "product",
          "type": "uint8"
        }
      ],
      "name": "price",
      "outputs": [
        {
          "internalType": "uint256",
          "name": "",
          "type": "uint256"
        }
      ],
      "stateMutability": "view",
      "type": "function"
    },
    {
      "inputs": [],
      "name": "priceFeed",
      "outputs": [
        {
          "internalType": "contract AggregatorV3Interface",
          "name": "",
          "type": "address"
        }
      ],
      "stateMutability": "view",
      "type": "function"
    },
    {
      "inputs": [
        {
          "internalType": "uint8",
          "name": "",
          "type": "uint8"
        }
      ],
      "name": "products",
      "outputs": [
        {
          "internalType": "uint256",
          "name": "",
          "type": "uint256"
        }
      ],
      "stateMutability": "view",
      "type": "function"
    },
    {
      "inputs": [],
      "name": "renounceOwnership",
      "outputs": [],
      "stateMutability": "nonpayable",
      "type": "function"
    },
    {
      "inputs": [
        {
          "internalType": "address",
          "name": "newOwner",
          "type": "address"
        }
      ],
      "name": "transferOwnership",
      "outputs": [],
      "stateMutability": "nonpayable",
      "type": "function"
    },
    {
      "inputs": [],
      "name": "unpause",
      "outputs": [],
      "stateMutability": "nonpayable",
      "type": "function"
    }
  ],
  "bytecode": "0x608060405234801561001057600080fd5b50604051610bab380380610bab83398101604081905261002f916100e2565b61003833610076565b6000805460ff60a01b19169055600180546001600160a01b039384166001600160a01b03199182161790915560028054929093169116179055610115565b600080546001600160a01b038381166001600160a01b0319831681178455604051919092169283917f8be0079c531659141344cd1fd0a4f28419497f9722a3daafe3b4186f6b6457e09190a35050565b80516001600160a01b03811681146100dd57600080fd5b919050565b600080604083850312156100f557600080fd5b6100fe836100c6565b915061010c602084016100c6565b90509250929050565b610a87806101246000396000f3fe6080604052600436106100c25760003560e01c80638456cb591161007f578063b7fafcd711610059578063b7fafcd714610208578063cbaf78a714610228578063cbd3df381461023b578063f2fde38b1461025b57600080fd5b80638456cb59146101b55780638da5cb5b146101ca578063b69ef8a8146101e857600080fd5b8063355d2797146100c75780633f4ba83a146101075780635c975abb1461011e5780635f9f353b14610148578063715018a614610168578063741bef1a1461017d575b600080fd5b3480156100d357600080fd5b506100f46100e236600461092b565b60036020526000908152604090205481565b6040519081526020015b60405180910390f35b34801561011357600080fd5b5061011c61027b565b005b34801561012a57600080fd5b50600054600160a01b900460ff1660405190151581526020016100fe565b34801561015457600080fd5b5061011c6101633660046109d8565b61028d565b34801561017457600080fd5b5061011c6102e8565b34801561018957600080fd5b5060025461019d906001600160a01b031681565b6040516001600160a01b0390911681526020016100fe565b3480156101c157600080fd5b5061011c6102fa565b3480156101d657600080fd5b506000546001600160a01b031661019d565b3480156101f457600080fd5b5060015461019d906001600160a01b031681565b34801561021457600080fd5b506100f461022336600461092b565b61030a565b61011c610236366004610996565b61041d565b34801561024757600080fd5b5061011c6102563660046108f7565b610606565b34801561026757600080fd5b5061011c6102763660046108f7565b610658565b6102836106d1565b61028b61072b565b565b6102956106d1565b60ff821660008181526003602052604090819020839055517f4653d4e03195792cc3ccc156f8b5e7e79d8c9ffb38eddb428012c14502799d69906102dc9084815260200190565b60405180910390a25050565b6102f06106d1565b61028b6000610780565b6103026106d1565b61028b6107d0565b600080600260009054906101000a90046001600160a01b03166001600160a01b031663feaf968c6040518163ffffffff1660e01b815260040160a06040518083038186803b15801561035b57600080fd5b505afa15801561036f573d6000803e3d6000fd5b505050506040513d601f19601f820116820180604052508101906103939190610946565b505050915050600081136103e55760405162461bcd60e51b815260206004820152601460248201527353746f72653a20696e76616c696420707269636560601b60448201526064015b60405180910390fd5b60ff8316600090815260036020526040902054819061040c90670de0b6b3a7640000610a24565b6104169190610a02565b9392505050565b610425610813565b428110156104665760405162461bcd60e51b815260206004820152600e60248201526d14dd1bdc994e88195e1c1a5c995960921b60448201526064016103dc565b60006104718561030a565b9050600081116104c35760405162461bcd60e51b815260206004820152601d60248201527f53746f72653a206e65676174697665206f72207a65726f20707269636500000060448201526064016103dc565b8281111561050c5760405162461bcd60e51b815260206004820152601660248201527553746f72653a2065786365737369766520707269636560501b60448201526064016103dc565b6001546001600160a01b031663e578a225336040516001600160e01b031960e084901b1681526001600160a01b039091166004820152600060248201526044810184905260806064820152600960848201526853544f52455f42555960b81b60a482015260c401602060405180830381600087803b15801561058d57600080fd5b505af11580156105a1573d6000803e3d6000fd5b505050506040513d601f19601f820116820180604052508101906105c59190610912565b506040516001600160a01b0385169060ff8716907f2c63ae6df00e90babc5d4997368fce457d90df78673d14a11435b7e4ecc2394090600090a35050505050565b61060e6106d1565b600280546001600160a01b0319166001600160a01b0383169081179091556040517f70880247142cf113e15f57599afcb48f4cdd196159d882cda54475da68ea996190600090a250565b6106606106d1565b6001600160a01b0381166106c55760405162461bcd60e51b815260206004820152602660248201527f4f776e61626c653a206e6577206f776e657220697320746865207a65726f206160448201526564647265737360d01b60648201526084016103dc565b6106ce81610780565b50565b6000546001600160a01b0316331461028b5760405162461bcd60e51b815260206004820181905260248201527f4f776e61626c653a2063616c6c6572206973206e6f7420746865206f776e657260448201526064016103dc565b610733610860565b6000805460ff60a01b191690557f5db9ee0a495bf2e6ff9c91a7834c1ba4fdd244a5e8aa4e537bd38aeae4b073aa335b6040516001600160a01b03909116815260200160405180910390a1565b600080546001600160a01b038381166001600160a01b0319831681178455604051919092169283917f8be0079c531659141344cd1fd0a4f28419497f9722a3daafe3b4186f6b6457e09190a35050565b6107d8610813565b6000805460ff60a01b1916600160a01b1790557f62e78cea01bee320cd4e420270b5ea74000d11b0c9f74754ebdbfc544b05a2586107633390565b600054600160a01b900460ff161561028b5760405162461bcd60e51b815260206004820152601060248201526f14185d5cd8589b194e881c185d5cd95960821b60448201526064016103dc565b600054600160a01b900460ff1661028b5760405162461bcd60e51b815260206004820152601460248201527314185d5cd8589b194e881b9bdd081c185d5cd95960621b60448201526064016103dc565b80356001600160a01b03811681146108c757600080fd5b919050565b803560ff811681146108c757600080fd5b805169ffffffffffffffffffff811681146108c757600080fd5b60006020828403121561090957600080fd5b610416826108b0565b60006020828403121561092457600080fd5b5051919050565b60006020828403121561093d57600080fd5b610416826108cc565b600080600080600060a0868803121561095e57600080fd5b610967866108dd565b945060208601519350604086015192506060860151915061098a608087016108dd565b90509295509295909350565b600080600080608085870312156109ac57600080fd5b6109b5856108cc565b93506109c3602086016108b0565b93969395505050506040820135916060013590565b600080604083850312156109eb57600080fd5b6109f4836108cc565b946020939093013593505050565b600082610a1f57634e487b7160e01b600052601260045260246000fd5b500490565b6000816000190483118215151615610a4c57634e487b7160e01b600052601160045260246000fd5b50029056fea264697066735822122021005dfd583e367f29fb1e28843f8ab6ed5f897335dcad66c36a68f3fa9bf56764736f6c63430008060033",
  "linkReferences": {},
  "deployedLinkReferences": {}
}