{
  "_format": "hh-sol-artifact-1",
  "contractName": "SmartTradeSwap",
  "sourceName": "contracts/automate/SmartTrade/Swap.sol",
  "abi": [
    {
      "inputs": [
        {
          "internalType": "address",
          "name": "_exchange",
          "type": "address"
        }
      ],
      "stateMutability": "nonpayable",
      "type": "constructor"
    },
    {
      "anonymous": false,
      "inputs": [
        {
          "indexed": true,
          "internalType": "address",
          "name": "previousOwner",
          "type": "address"
        },
        {
          "indexed": true,
          "internalType": "address",
          "name": "newOwner",
          "type": "address"
        }
      ],
      "name": "OwnershipTransferred",
      "type": "event"
    },
    {
      "inputs": [],
      "name": "exchange",
      "outputs": [
        {
          "internalType": "contract IRouter",
          "name": "",
          "type": "address"
        }
      ],
      "stateMutability": "view",
      "type": "function"
    },
    {
      "inputs": [
        {
          "internalType": "uint256",
          "name": "id",
          "type": "uint256"
        }
      ],
      "name": "getOrder",
      "outputs": [
        {
          "components": [
            {
              "internalType": "uint256",
              "name": "id",
              "type": "uint256"
            },
            {
              "internalType": "address[]",
              "name": "path",
              "type": "address[]"
            },
            {
              "internalType": "uint256",
              "name": "amountIn",
              "type": "uint256"
            },
            {
              "internalType": "uint256",
              "name": "amountOutMin",
              "type": "uint256"
            }
          ],
          "internalType": "struct SmartTradeSwap.Order",
          "name": "",
          "type": "tuple"
        }
      ],
      "stateMutability": "view",
      "type": "function"
    },
    {
      "inputs": [],
      "name": "owner",
      "outputs": [
        {
          "internalType": "address",
          "name": "",
          "type": "address"
        }
      ],
      "stateMutability": "view",
      "type": "function"
    },
    {
      "inputs": [],
      "name": "renounceOwnership",
      "outputs": [],
      "stateMutability": "nonpayable",
      "type": "function"
    },
    {
      "inputs": [
        {
          "internalType": "uint256",
          "name": "id",
          "type": "uint256"
        }
      ],
      "name": "swap",
      "outputs": [],
      "stateMutability": "nonpayable",
      "type": "function"
    },
    {
      "inputs": [
        {
          "internalType": "address",
          "name": "newOwner",
          "type": "address"
        }
      ],
      "name": "transferOwnership",
      "outputs": [],
      "stateMutability": "nonpayable",
      "type": "function"
    }
  ],
  "bytecode": "0x608060405234801561001057600080fd5b506040516104d43803806104d483398101604081905261002f916100ad565b6100383361005d565b600180546001600160a01b0319166001600160a01b03929092169190911790556100dd565b600080546001600160a01b038381166001600160a01b0319831681178455604051919092169283917f8be0079c531659141344cd1fd0a4f28419497f9722a3daafe3b4186f6b6457e09190a35050565b6000602082840312156100bf57600080fd5b81516001600160a01b03811681146100d657600080fd5b9392505050565b6103e8806100ec6000396000f3fe608060405234801561001057600080fd5b50600436106100625760003560e01c8063715018a6146100675780638da5cb5b1461007157806394b918de1461009b578063d09ef241146100ac578063d2f7265a146100cc578063f2fde38b146100df575b600080fd5b61006f6100f2565b005b6000546001600160a01b03165b6040516001600160a01b0390911681526020015b60405180910390f35b61006f6100a9366004610320565b50565b6100bf6100ba366004610320565b610106565b6040516100929190610339565b60015461007e906001600160a01b031681565b61006f6100ed3660046102f0565b6101cb565b6100fa610246565b61010460006102a0565b565b6101316040518060800160405280600081526020016060815260200160008152602001600081525090565b600082815260026020908152604091829020825160808101845281548152600182018054855181860281018601909652808652919492938581019392908301828280156101a757602002820191906000526020600020905b81546001600160a01b03168152600190910190602001808311610189575b50505050508152602001600282015481526020016003820154815250509050919050565b6101d3610246565b6001600160a01b03811661023d5760405162461bcd60e51b815260206004820152602660248201527f4f776e61626c653a206e6577206f776e657220697320746865207a65726f206160448201526564647265737360d01b60648201526084015b60405180910390fd5b6100a9816102a0565b6000546001600160a01b031633146101045760405162461bcd60e51b815260206004820181905260248201527f4f776e61626c653a2063616c6c6572206973206e6f7420746865206f776e65726044820152606401610234565b600080546001600160a01b038381166001600160a01b0319831681178455604051919092169283917f8be0079c531659141344cd1fd0a4f28419497f9722a3daafe3b4186f6b6457e09190a35050565b60006020828403121561030257600080fd5b81356001600160a01b038116811461031957600080fd5b9392505050565b60006020828403121561033257600080fd5b5035919050565b60208082528251828201528281015160806040840152805160a0840181905260009291820190839060c08601905b808310156103905783516001600160a01b03168252928401926001929092019190840190610367565b506040870151606087015260608701516080870152809450505050509291505056fea2646970667358221220835d2a65f8e4ab780aa49145c9ce1e60c67987a4187f29cea78c4e65a1086df164736f6c63430008060033",
  "linkReferences": {},
  "deployedLinkReferences": {}
}