{
  "_format": "hh-sol-artifact-1",
  "contractName": "TreasuryV1",
  "sourceName": "contracts/Treasury/TreasuryV1.sol",
  "abi": [
    {
      "anonymous": false,
      "inputs": [
        {
          "indexed": false,
          "internalType": "uint8",
          "name": "version",
          "type": "uint8"
        }
      ],
      "name": "Initialized",
      "type": "event"
    },
    {
      "anonymous": false,
      "inputs": [
        {
          "indexed": true,
          "internalType": "address",
          "name": "previousOwner",
          "type": "address"
        },
        {
          "indexed": true,
          "internalType": "address",
          "name": "newOwner",
          "type": "address"
        }
      ],
      "name": "OwnershipTransferred",
      "type": "event"
    },
    {
      "inputs": [
        {
          "internalType": "address",
          "name": "token",
          "type": "address"
        },
        {
          "internalType": "address",
          "name": "recipient",
          "type": "address"
        },
        {
          "internalType": "uint256",
          "name": "amount",
          "type": "uint256"
        }
      ],
      "name": "approve",
      "outputs": [
        {
          "internalType": "bool",
          "name": "",
          "type": "bool"
        }
      ],
      "stateMutability": "nonpayable",
      "type": "function"
    },
    {
      "inputs": [],
      "name": "initialize",
      "outputs": [],
      "stateMutability": "nonpayable",
      "type": "function"
    },
    {
      "inputs": [],
      "name": "owner",
      "outputs": [
        {
          "internalType": "address",
          "name": "",
          "type": "address"
        }
      ],
      "stateMutability": "view",
      "type": "function"
    },
    {
      "inputs": [],
      "name": "renounceOwnership",
      "outputs": [],
      "stateMutability": "nonpayable",
      "type": "function"
    },
    {
      "inputs": [
        {
          "internalType": "address",
          "name": "token",
          "type": "address"
        },
        {
          "internalType": "address",
          "name": "recipient",
          "type": "address"
        },
        {
          "internalType": "uint256",
          "name": "amount",
          "type": "uint256"
        }
      ],
      "name": "transfer",
      "outputs": [
        {
          "internalType": "bool",
          "name": "",
          "type": "bool"
        }
      ],
      "stateMutability": "nonpayable",
      "type": "function"
    },
    {
      "inputs": [
        {
          "internalType": "address payable",
          "name": "recipient",
          "type": "address"
        },
        {
          "internalType": "uint256",
          "name": "amount",
          "type": "uint256"
        }
      ],
      "name": "transferETH",
      "outputs": [
        {
          "internalType": "bool",
          "name": "",
          "type": "bool"
        }
      ],
      "stateMutability": "nonpayable",
      "type": "function"
    },
    {
      "inputs": [
        {
          "internalType": "address",
          "name": "newOwner",
          "type": "address"
        }
      ],
      "name": "transferOwnership",
      "outputs": [],
      "stateMutability": "nonpayable",
      "type": "function"
    },
    {
      "stateMutability": "payable",
      "type": "receive"
    }
  ],
  "bytecode": "0x608060405234801561001057600080fd5b50610c9b806100206000396000f3fe6080604052600436106100745760003560e01c80638da5cb5b1161004e5780638da5cb5b146100e1578063beabacc814610109578063e1f21c6714610129578063f2fde38b1461014957600080fd5b8063715018a6146100805780637b1a4909146100975780638129fc1c146100cc57600080fd5b3661007b57005b600080fd5b34801561008c57600080fd5b50610095610169565b005b3480156100a357600080fd5b506100b76100b2366004610ade565b61017d565b60405190151581526020015b60405180910390f35b3480156100d857600080fd5b5061009561029a565b3480156100ed57600080fd5b506033546040516001600160a01b0390911681526020016100c3565b34801561011557600080fd5b506100b7610124366004610b0a565b6103ab565b34801561013557600080fd5b506100b7610144366004610b0a565b610498565b34801561015557600080fd5b50610095610164366004610ac1565b610561565b6101716105d7565b61017b6000610631565b565b60006101876105d7565b600082116101f35760405162461bcd60e51b815260206004820152602e60248201527f54726561737572793a3a7472616e736665724554483a206e656761746976652060448201526d1bdc881e995c9bc8185b5bdd5b9d60921b60648201526084015b60405180910390fd5b6001600160a01b03831661025a5760405162461bcd60e51b815260206004820152602860248201527f54726561737572793a3a7472616e736665724554483a20696e76616c696420726044820152671958da5c1a595b9d60c21b60648201526084016101ea565b6040516001600160a01b0384169083156108fc029084906000818181858888f19350505050158015610290573d6000803e3d6000fd5b5060019392505050565b600054610100900460ff16158080156102ba5750600054600160ff909116105b806102d45750303b1580156102d4575060005460ff166001145b6103375760405162461bcd60e51b815260206004820152602e60248201527f496e697469616c697a61626c653a20636f6e747261637420697320616c72656160448201526d191e481a5b9a5d1a585b1a5e995960921b60648201526084016101ea565b6000805460ff19166001179055801561035a576000805461ff0019166101001790555b610362610683565b80156103a8576000805461ff0019169055604051600181527f7f26b83ff96e1f2b6a682f133852f6798a09c465da95921460cefb38474024989060200160405180910390a15b50565b60006103b56105d7565b600082116104195760405162461bcd60e51b815260206004820152602b60248201527f54726561737572793a3a7472616e736665723a206e65676174697665206f722060448201526a1e995c9bc8185b5bdd5b9d60aa1b60648201526084016101ea565b6001600160a01b03831661047d5760405162461bcd60e51b815260206004820152602560248201527f54726561737572793a3a7472616e736665723a20696e76616c696420726563696044820152641c1a595b9d60da1b60648201526084016101ea565b6102906001600160a01b03851684846106b2565b9392505050565b60006104a26105d7565b604051636eb1769f60e11b81523060048201526001600160a01b0384811660248301526000919086169063dd62ed3e9060440160206040518083038186803b1580156104ed57600080fd5b505afa158015610501573d6000803e3d6000fd5b505050506040513d601f19601f820116820180604052508101906105259190610b6d565b90508015610542576105426001600160a01b03861685600061071a565b6105566001600160a01b038616858561071a565b506001949350505050565b6105696105d7565b6001600160a01b0381166105ce5760405162461bcd60e51b815260206004820152602660248201527f4f776e61626c653a206e6577206f776e657220697320746865207a65726f206160448201526564647265737360d01b60648201526084016101ea565b6103a881610631565b6033546001600160a01b0316331461017b5760405162461bcd60e51b815260206004820181905260248201527f4f776e61626c653a2063616c6c6572206973206e6f7420746865206f776e657260448201526064016101ea565b603380546001600160a01b038381166001600160a01b0319831681179093556040519116919082907f8be0079c531659141344cd1fd0a4f28419497f9722a3daafe3b4186f6b6457e090600090a35050565b600054610100900460ff166106aa5760405162461bcd60e51b81526004016101ea90610bd5565b61017b61083e565b6040516001600160a01b03831660248201526044810182905261071590849063a9059cbb60e01b906064015b60408051601f198184030181529190526020810180516001600160e01b03166001600160e01b03199093169290921790915261086e565b505050565b8015806107a35750604051636eb1769f60e11b81523060048201526001600160a01b03838116602483015284169063dd62ed3e9060440160206040518083038186803b15801561076957600080fd5b505afa15801561077d573d6000803e3d6000fd5b505050506040513d601f19601f820116820180604052508101906107a19190610b6d565b155b61080e5760405162461bcd60e51b815260206004820152603660248201527f5361666545524332303a20617070726f76652066726f6d206e6f6e2d7a65726f60448201527520746f206e6f6e2d7a65726f20616c6c6f77616e636560501b60648201526084016101ea565b6040516001600160a01b03831660248201526044810182905261071590849063095ea7b360e01b906064016106de565b600054610100900460ff166108655760405162461bcd60e51b81526004016101ea90610bd5565b61017b33610631565b60006108c3826040518060400160405280602081526020017f5361666545524332303a206c6f772d6c6576656c2063616c6c206661696c6564815250856001600160a01b03166109409092919063ffffffff16565b80519091501561071557808060200190518101906108e19190610b4b565b6107155760405162461bcd60e51b815260206004820152602a60248201527f5361666545524332303a204552433230206f7065726174696f6e20646964206e6044820152691bdd081cdd58d8d9595960b21b60648201526084016101ea565b606061094f8484600085610957565b949350505050565b6060824710156109b85760405162461bcd60e51b815260206004820152602660248201527f416464726573733a20696e73756666696369656e742062616c616e636520666f6044820152651c8818d85b1b60d21b60648201526084016101ea565b6001600160a01b0385163b610a0f5760405162461bcd60e51b815260206004820152601d60248201527f416464726573733a2063616c6c20746f206e6f6e2d636f6e747261637400000060448201526064016101ea565b600080866001600160a01b03168587604051610a2b9190610b86565b60006040518083038185875af1925050503d8060008114610a68576040519150601f19603f3d011682016040523d82523d6000602084013e610a6d565b606091505b5091509150610a7d828286610a88565b979650505050505050565b60608315610a97575081610491565b825115610aa75782518084602001fd5b8160405162461bcd60e51b81526004016101ea9190610ba2565b600060208284031215610ad357600080fd5b813561049181610c50565b60008060408385031215610af157600080fd5b8235610afc81610c50565b946020939093013593505050565b600080600060608486031215610b1f57600080fd5b8335610b2a81610c50565b92506020840135610b3a81610c50565b929592945050506040919091013590565b600060208284031215610b5d57600080fd5b8151801515811461049157600080fd5b600060208284031215610b7f57600080fd5b5051919050565b60008251610b98818460208701610c20565b9190910192915050565b6020815260008251806020840152610bc1816040850160208701610c20565b601f01601f19169190910160400192915050565b6020808252602b908201527f496e697469616c697a61626c653a20636f6e7472616374206973206e6f74206960408201526a6e697469616c697a696e6760a81b606082015260800190565b60005b83811015610c3b578181015183820152602001610c23565b83811115610c4a576000848401525b50505050565b6001600160a01b03811681146103a857600080fdfea264697066735822122063e97570f5e13aa7ed9d007b8e947e35e1f7e7cfc731026290712b9b72e279a364736f6c63430008060033",
  "linkReferences": {},
  "deployedLinkReferences": {}
}