{
  "_format": "hh-sol-artifact-1",
  "contractName": "Treasury",
  "sourceName": "contracts/Treasury.sol",
  "abi": [
    {
      "anonymous": false,
      "inputs": [
        {
          "indexed": true,
          "internalType": "address",
          "name": "previousOwner",
          "type": "address"
        },
        {
          "indexed": true,
          "internalType": "address",
          "name": "newOwner",
          "type": "address"
        }
      ],
      "name": "OwnershipTransferred",
      "type": "event"
    },
    {
      "inputs": [
        {
          "internalType": "contract IERC20",
          "name": "token",
          "type": "address"
        },
        {
          "internalType": "address",
          "name": "recipient",
          "type": "address"
        },
        {
          "internalType": "uint256",
          "name": "amount",
          "type": "uint256"
        }
      ],
      "name": "approve",
      "outputs": [],
      "stateMutability": "nonpayable",
      "type": "function"
    },
    {
      "inputs": [],
      "name": "owner",
      "outputs": [
        {
          "internalType": "address",
          "name": "",
          "type": "address"
        }
      ],
      "stateMutability": "view",
      "type": "function"
    },
    {
      "inputs": [],
      "name": "renounceOwnership",
      "outputs": [],
      "stateMutability": "nonpayable",
      "type": "function"
    },
    {
      "inputs": [
        {
          "internalType": "contract IERC20",
          "name": "token",
          "type": "address"
        },
        {
          "internalType": "address",
          "name": "recipient",
          "type": "address"
        },
        {
          "internalType": "uint256",
          "name": "amount",
          "type": "uint256"
        }
      ],
      "name": "transfer",
      "outputs": [],
      "stateMutability": "nonpayable",
      "type": "function"
    },
    {
      "inputs": [
        {
          "internalType": "address payable",
          "name": "recipient",
          "type": "address"
        },
        {
          "internalType": "uint256",
          "name": "amount",
          "type": "uint256"
        }
      ],
      "name": "transferETH",
      "outputs": [],
      "stateMutability": "nonpayable",
      "type": "function"
    },
    {
      "inputs": [
        {
          "internalType": "address",
          "name": "newOwner",
          "type": "address"
        }
      ],
      "name": "transferOwnership",
      "outputs": [],
      "stateMutability": "nonpayable",
      "type": "function"
    },
    {
      "stateMutability": "payable",
      "type": "receive"
    }
  ],
  "bytecode": "0x608060405234801561001057600080fd5b5061001a3361001f565b61006f565b600080546001600160a01b038381166001600160a01b0319831681178455604051919092169283917f8be0079c531659141344cd1fd0a4f28419497f9722a3daafe3b4186f6b6457e09190a35050565b6107848061007e6000396000f3fe6080604052600436106100595760003560e01c8063715018a6146100655780637b1a49091461007c5780638da5cb5b1461009c578063beabacc8146100c8578063e1f21c67146100e8578063f2fde38b1461010857600080fd5b3661006057005b600080fd5b34801561007157600080fd5b5061007a610128565b005b34801561008857600080fd5b5061007a610097366004610691565b61013c565b3480156100a857600080fd5b50600054604080516001600160a01b039092168252519081900360200190f35b3480156100d457600080fd5b5061007a6100e33660046106df565b610252565b3480156100f457600080fd5b5061007a6101033660046106df565b6103aa565b34801561011457600080fd5b5061007a61012336600461066d565b61054a565b6101306105c3565b61013a600061061d565b565b6101446105c3565b600081116101b05760405162461bcd60e51b815260206004820152602e60248201527f54726561737572793a3a7472616e736665724554483a206e656761746976652060448201526d1bdc881e995c9bc8185b5bdd5b9d60921b60648201526084015b60405180910390fd5b6001600160a01b0382166102175760405162461bcd60e51b815260206004820152602860248201527f54726561737572793a3a7472616e736665724554483a20696e76616c696420726044820152671958da5c1a595b9d60c21b60648201526084016101a7565b6040516001600160a01b0383169082156108fc029083906000818181858888f1935050505015801561024d573d6000803e3d6000fd5b505050565b61025a6105c3565b600081116102be5760405162461bcd60e51b815260206004820152602b60248201527f54726561737572793a3a7472616e736665723a206e65676174697665206f722060448201526a1e995c9bc8185b5bdd5b9d60aa1b60648201526084016101a7565b6001600160a01b0382166103225760405162461bcd60e51b815260206004820152602560248201527f54726561737572793a3a7472616e736665723a20696e76616c696420726563696044820152641c1a595b9d60da1b60648201526084016101a7565b60405163a9059cbb60e01b81526001600160a01b0383811660048301526024820183905284169063a9059cbb90604401602060405180830381600087803b15801561036c57600080fd5b505af1158015610380573d6000803e3d6000fd5b505050506040513d601f19601f820116820180604052508101906103a491906106bd565b50505050565b6103b26105c3565b604051636eb1769f60e11b81523060048201526001600160a01b0383811660248301526000919085169063dd62ed3e9060440160206040518083038186803b1580156103fd57600080fd5b505afa158015610411573d6000803e3d6000fd5b505050506040513d601f19601f820116820180604052508101906104359190610720565b905080156104c15760405163095ea7b360e01b81526001600160a01b0384811660048301526000602483015285169063095ea7b390604401602060405180830381600087803b15801561048757600080fd5b505af115801561049b573d6000803e3d6000fd5b505050506040513d601f19601f820116820180604052508101906104bf91906106bd565b505b60405163095ea7b360e01b81526001600160a01b0384811660048301526024820184905285169063095ea7b390604401602060405180830381600087803b15801561050b57600080fd5b505af115801561051f573d6000803e3d6000fd5b505050506040513d601f19601f8201168201806040525081019061054391906106bd565b5050505050565b6105526105c3565b6001600160a01b0381166105b75760405162461bcd60e51b815260206004820152602660248201527f4f776e61626c653a206e6577206f776e657220697320746865207a65726f206160448201526564647265737360d01b60648201526084016101a7565b6105c08161061d565b50565b6000546001600160a01b0316331461013a5760405162461bcd60e51b815260206004820181905260248201527f4f776e61626c653a2063616c6c6572206973206e6f7420746865206f776e657260448201526064016101a7565b600080546001600160a01b038381166001600160a01b0319831681178455604051919092169283917f8be0079c531659141344cd1fd0a4f28419497f9722a3daafe3b4186f6b6457e09190a35050565b60006020828403121561067f57600080fd5b813561068a81610739565b9392505050565b600080604083850312156106a457600080fd5b82356106af81610739565b946020939093013593505050565b6000602082840312156106cf57600080fd5b8151801515811461068a57600080fd5b6000806000606084860312156106f457600080fd5b83356106ff81610739565b9250602084013561070f81610739565b929592945050506040919091013590565b60006020828403121561073257600080fd5b5051919050565b6001600160a01b03811681146105c057600080fdfea264697066735822122020ddbc22639e786cb1a5c72474161a9fd111f05d91a4c6ff5b2ccc84a6c5bbcf64736f6c63430008060033",
  "linkReferences": {},
  "deployedLinkReferences": {}
}