{
  "_format": "hh-sol-artifact-1",
  "contractName": "BalanceV1",
  "sourceName": "contracts/Balance/BalanceV1.sol",
  "abi": [
    {
      "anonymous": false,
      "inputs": [
        {
          "indexed": true,
          "internalType": "uint256",
          "name": "bill",
          "type": "uint256"
        }
      ],
      "name": "AcceptClaim",
      "type": "event"
    },
    {
      "anonymous": false,
      "inputs": [
        {
          "indexed": true,
          "internalType": "address",
          "name": "account",
          "type": "address"
        },
        {
          "indexed": true,
          "internalType": "uint256",
          "name": "bill",
          "type": "uint256"
        },
        {
          "indexed": false,
          "internalType": "string",
          "name": "description",
          "type": "string"
        }
      ],
      "name": "Claim",
      "type": "event"
    },
    {
      "anonymous": false,
      "inputs": [
        {
          "indexed": true,
          "internalType": "address",
          "name": "consumer",
          "type": "address"
        }
      ],
      "name": "ConsumerAdded",
      "type": "event"
    },
    {
      "anonymous": false,
      "inputs": [
        {
          "indexed": true,
          "internalType": "address",
          "name": "consumer",
          "type": "address"
        }
      ],
      "name": "ConsumerRemoved",
      "type": "event"
    },
    {
      "anonymous": false,
      "inputs": [
        {
          "indexed": true,
          "internalType": "address",
          "name": "recipient",
          "type": "address"
        },
        {
          "indexed": false,
          "internalType": "uint256",
          "name": "amount",
          "type": "uint256"
        }
      ],
      "name": "Deposit",
      "type": "event"
    },
    {
      "anonymous": false,
      "inputs": [
        {
          "indexed": false,
          "internalType": "uint8",
          "name": "version",
          "type": "uint8"
        }
      ],
      "name": "Initialized",
      "type": "event"
    },
    {
      "anonymous": false,
      "inputs": [
        {
          "indexed": true,
          "internalType": "address",
          "name": "inspector",
          "type": "address"
        }
      ],
      "name": "InspectorAdded",
      "type": "event"
    },
    {
      "anonymous": false,
      "inputs": [
        {
          "indexed": true,
          "internalType": "address",
          "name": "inspector",
          "type": "address"
        }
      ],
      "name": "InspectorRemoved",
      "type": "event"
    },
    {
      "anonymous": false,
      "inputs": [
        {
          "indexed": true,
          "internalType": "address",
          "name": "previousOwner",
          "type": "address"
        },
        {
          "indexed": true,
          "internalType": "address",
          "name": "newOwner",
          "type": "address"
        }
      ],
      "name": "OwnershipTransferred",
      "type": "event"
    },
    {
      "anonymous": false,
      "inputs": [
        {
          "indexed": true,
          "internalType": "address",
          "name": "recipient",
          "type": "address"
        },
        {
          "indexed": false,
          "internalType": "uint256",
          "name": "amount",
          "type": "uint256"
        }
      ],
      "name": "Refund",
      "type": "event"
    },
    {
      "anonymous": false,
      "inputs": [
        {
          "indexed": true,
          "internalType": "uint256",
          "name": "bill",
          "type": "uint256"
        }
      ],
      "name": "RejectClaim",
      "type": "event"
    },
    {
      "anonymous": false,
      "inputs": [
        {
          "indexed": true,
          "internalType": "address",
          "name": "treasury",
          "type": "address"
        }
      ],
      "name": "TreasuryChanged",
      "type": "event"
    },
    {
      "inputs": [],
      "name": "MAXIMUM_CLAIM_PACKAGE",
      "outputs": [
        {
          "internalType": "uint256",
          "name": "",
          "type": "uint256"
        }
      ],
      "stateMutability": "view",
      "type": "function"
    },
    {
      "inputs": [],
      "name": "MAXIMUM_CONSUMER_COUNT",
      "outputs": [
        {
          "internalType": "uint256",
          "name": "",
          "type": "uint256"
        }
      ],
      "stateMutability": "view",
      "type": "function"
    },
    {
      "inputs": [],
      "name": "MAXIMUM_INSPECTOR_COUNT",
      "outputs": [
        {
          "internalType": "uint256",
          "name": "",
          "type": "uint256"
        }
      ],
      "stateMutability": "view",
      "type": "function"
    },
    {
      "inputs": [
        {
          "internalType": "uint256[]",
          "name": "_bills",
          "type": "uint256[]"
        },
        {
          "internalType": "uint256[]",
          "name": "gasFees",
          "type": "uint256[]"
        },
        {
          "internalType": "uint256[]",
          "name": "protocolFees",
          "type": "uint256[]"
        }
      ],
      "name": "acceptClaims",
      "outputs": [],
      "stateMutability": "nonpayable",
      "type": "function"
    },
    {
      "inputs": [
        {
          "internalType": "address",
          "name": "consumer",
          "type": "address"
        }
      ],
      "name": "addConsumer",
      "outputs": [],
      "stateMutability": "nonpayable",
      "type": "function"
    },
    {
      "inputs": [
        {
          "internalType": "address",
          "name": "inspector",
          "type": "address"
        }
      ],
      "name": "addInspector",
      "outputs": [],
      "stateMutability": "nonpayable",
      "type": "function"
    },
    {
      "inputs": [
        {
          "internalType": "address",
          "name": "",
          "type": "address"
        }
      ],
      "name": "balanceOf",
      "outputs": [
        {
          "internalType": "uint256",
          "name": "",
          "type": "uint256"
        }
      ],
      "stateMutability": "view",
      "type": "function"
    },
    {
      "inputs": [],
      "name": "billCount",
      "outputs": [
        {
          "internalType": "uint256",
          "name": "",
          "type": "uint256"
        }
      ],
      "stateMutability": "view",
      "type": "function"
    },
    {
      "inputs": [
        {
          "internalType": "uint256",
          "name": "",
          "type": "uint256"
        }
      ],
      "name": "bills",
      "outputs": [
        {
          "internalType": "uint256",
          "name": "id",
          "type": "uint256"
        },
        {
          "internalType": "address",
          "name": "claimant",
          "type": "address"
        },
        {
          "internalType": "address",
          "name": "account",
          "type": "address"
        },
        {
          "internalType": "uint256",
          "name": "gasFee",
          "type": "uint256"
        },
        {
          "internalType": "uint256",
          "name": "protocolFee",
          "type": "uint256"
        },
        {
          "internalType": "enum BalanceV1.BillStatus",
          "name": "status",
          "type": "uint8"
        }
      ],
      "stateMutability": "view",
      "type": "function"
    },
    {
      "inputs": [
        {
          "internalType": "address payable",
          "name": "_treasury",
          "type": "address"
        }
      ],
      "name": "changeTreasury",
      "outputs": [],
      "stateMutability": "nonpayable",
      "type": "function"
    },
    {
      "inputs": [
        {
          "internalType": "address",
          "name": "account",
          "type": "address"
        },
        {
          "internalType": "uint256",
          "name": "gasFee",
          "type": "uint256"
        },
        {
          "internalType": "uint256",
          "name": "protocolFee",
          "type": "uint256"
        },
        {
          "internalType": "string",
          "name": "description",
          "type": "string"
        }
      ],
      "name": "claim",
      "outputs": [
        {
          "internalType": "uint256",
          "name": "",
          "type": "uint256"
        }
      ],
      "stateMutability": "nonpayable",
      "type": "function"
    },
    {
      "inputs": [
        {
          "internalType": "address",
          "name": "",
          "type": "address"
        }
      ],
      "name": "claimOf",
      "outputs": [
        {
          "internalType": "uint256",
          "name": "",
          "type": "uint256"
        }
      ],
      "stateMutability": "view",
      "type": "function"
    },
    {
      "inputs": [],
      "name": "consumers",
      "outputs": [
        {
          "internalType": "address[]",
          "name": "",
          "type": "address[]"
        }
      ],
      "stateMutability": "view",
      "type": "function"
    },
    {
      "inputs": [
        {
          "internalType": "address",
          "name": "recipient",
          "type": "address"
        }
      ],
      "name": "deposit",
      "outputs": [],
      "stateMutability": "payable",
      "type": "function"
    },
    {
      "inputs": [
        {
          "internalType": "address payable",
          "name": "_treasury",
          "type": "address"
        }
      ],
      "name": "initialize",
      "outputs": [],
      "stateMutability": "nonpayable",
      "type": "function"
    },
    {
      "inputs": [],
      "name": "inspectors",
      "outputs": [
        {
          "internalType": "address[]",
          "name": "",
          "type": "address[]"
        }
      ],
      "stateMutability": "view",
      "type": "function"
    },
    {
      "inputs": [
        {
          "internalType": "address",
          "name": "account",
          "type": "address"
        }
      ],
      "name": "netBalanceOf",
      "outputs": [
        {
          "internalType": "uint256",
          "name": "",
          "type": "uint256"
        }
      ],
      "stateMutability": "view",
      "type": "function"
    },
    {
      "inputs": [],
      "name": "owner",
      "outputs": [
        {
          "internalType": "address",
          "name": "",
          "type": "address"
        }
      ],
      "stateMutability": "view",
      "type": "function"
    },
    {
      "inputs": [
        {
          "internalType": "uint256",
          "name": "amount",
          "type": "uint256"
        }
      ],
      "name": "refund",
      "outputs": [],
      "stateMutability": "nonpayable",
      "type": "function"
    },
    {
      "inputs": [
        {
          "internalType": "uint256[]",
          "name": "_bills",
          "type": "uint256[]"
        }
      ],
      "name": "rejectClaims",
      "outputs": [],
      "stateMutability": "nonpayable",
      "type": "function"
    },
    {
      "inputs": [
        {
          "internalType": "address",
          "name": "consumer",
          "type": "address"
        }
      ],
      "name": "removeConsumer",
      "outputs": [],
      "stateMutability": "nonpayable",
      "type": "function"
    },
    {
      "inputs": [
        {
          "internalType": "address",
          "name": "inspector",
          "type": "address"
        }
      ],
      "name": "removeInspector",
      "outputs": [],
      "stateMutability": "nonpayable",
      "type": "function"
    },
    {
      "inputs": [],
      "name": "renounceOwnership",
      "outputs": [],
      "stateMutability": "nonpayable",
      "type": "function"
    },
    {
      "inputs": [
        {
          "internalType": "address",
          "name": "newOwner",
          "type": "address"
        }
      ],
      "name": "transferOwnership",
      "outputs": [],
      "stateMutability": "nonpayable",
      "type": "function"
    },
    {
      "inputs": [],
      "name": "treasury",
      "outputs": [
        {
          "internalType": "address payable",
          "name": "",
          "type": "address"
        }
      ],
      "stateMutability": "view",
      "type": "function"
    }
  ],
  "bytecode": "0x608060405234801561001057600080fd5b5061215e806100206000396000f3fe6080604052600436106101665760003560e01c806370a08231116100d1578063b14f2a391161008a578063e578a22511610064578063e578a22514610442578063f2fde38b14610462578063f340fa0114610482578063fccd7f721461049557600080fd5b8063b14f2a3914610402578063c4d66de814610422578063e211544a1461027257600080fd5b806370a082311461034d578063715018a61461037a5780637c70e7911461038f5780637e458492146103af5780638da5cb5b146103cf578063ac6f2f2d146103ed57600080fd5b8063332d950f11610123578063332d950f1461028757806341dc34121461029d578063435e2980146102b3578063473f0175146102d557806361d027b3146102f557806365e3527d1461032d57600080fd5b80630b986a501461016b5780630e27e3df1461019e578063112940f9146101c0578063278ecde1146101e057806328bdcde814610200578063328199b714610272575b600080fd5b34801561017757600080fd5b5061018b610186366004611ce8565b6104c2565b6040519081526020015b60405180910390f35b3480156101aa57600080fd5b506101be6101b9366004611ce8565b6104f6565b005b3480156101cc57600080fd5b506101be6101db366004611ce8565b6105b7565b3480156101ec57600080fd5b506101be6101fb366004611e85565b6106ee565b34801561020c57600080fd5b5061026061021b366004611e85565b606c6020526000908152604090208054600182015460028301546003840154600485015460059095015493946001600160a01b03938416949290931692909160ff1686565b60405161019596959493929190611fcf565b34801561027e57600080fd5b5061018b606481565b34801561029357600080fd5b5061018b6101f481565b3480156102a957600080fd5b5061018b606d5481565b3480156102bf57600080fd5b506102c86108f0565b6040516101959190611e9e565b3480156102e157600080fd5b506101be6102f0366004611dfd565b6109a3565b34801561030157600080fd5b50606554610315906001600160a01b031681565b6040516001600160a01b039091168152602001610195565b34801561033957600080fd5b506101be610348366004611dc0565b610e2a565b34801561035957600080fd5b5061018b610368366004611ce8565b606a6020526000908152604090205481565b34801561038657600080fd5b506101be611072565b34801561039b57600080fd5b506101be6103aa366004611ce8565b611086565b3480156103bb57600080fd5b506101be6103ca366004611ce8565b611144565b3480156103db57600080fd5b506033546001600160a01b0316610315565b3480156103f957600080fd5b506102c861127d565b34801561040e57600080fd5b506101be61041d366004611ce8565b61132a565b34801561042e57600080fd5b506101be61043d366004611ce8565b61137c565b34801561044e57600080fd5b5061018b61045d366004611d05565b611516565b34801561046e57600080fd5b506101be61047d366004611ce8565b6117da565b6101be610490366004611ce8565b611853565b3480156104a157600080fd5b5061018b6104b0366004611ce8565b606b6020526000908152604090205481565b6001600160a01b0381166000908152606b6020908152604080832054606a9092528220546104f09190612073565b92915050565b6104fe611986565b6105096068826119e0565b6105745760405162461bcd60e51b815260206004820152603160248201527f42616c616e63653a3a72656d6f7665436f6e73756d65723a20636f6e73756d656044820152701c88185b1c9958591e481c995b5bdd9959607a1b60648201526084015b60405180910390fd5b61057f606882611a05565b506040516001600160a01b038216907fe3f5ed5f263f1f01764a96edfc7d025f511ec5f7d180e8816908b78bcf74f09890600090a250565b6105bf611986565b6105ca6068826119e0565b1561062c5760405162461bcd60e51b815260206004820152602c60248201527f42616c616e63653a3a616464436f6e73756d65723a20636f6e73756d6572206160448201526b1b1c9958591e48185919195960a21b606482015260840161056b565b60646106386068611a1a565b106106ab5760405162461bcd60e51b815260206004820152603c60248201527f42616c616e63653a3a616464436f6e73756d65723a20636f6e73756d6572206d60448201527f757374206e6f7420657863656564206d6178696d756d20636f756e7400000000606482015260840161056b565b6106b6606882611a24565b506040516001600160a01b038216907f28b26e7a3d20aedbc5f8f2ebf7da671c0491723a2b78f47a097b0e46dee0714290600090a250565b338161074d5760405162461bcd60e51b815260206004820152602860248201527f42616c616e63653a3a726566756e643a206e65676174697665206f72207a65726044820152671bc81c99599d5b9960c21b606482015260840161056b565b610756816104c2565b8211156107c05760405162461bcd60e51b815260206004820152603260248201527f42616c616e63653a3a726566756e643a20726566756e6420616d6f756e742065604482015271786365656473206e65742062616c616e636560701b606482015260840161056b565b6001600160a01b0381166000908152606a6020526040812080548492906107e8908490612073565b90915550506040516000906001600160a01b0383169084908381818185875af1925050503d8060008114610838576040519150601f19603f3d011682016040523d82523d6000602084013e61083d565b606091505b50509050806108a85760405162461bcd60e51b815260206004820152603160248201527f42616c616e63653a3a726566756e643a207472616e7366657220746f20746865604482015270081c9958da5c1a595b9d0819985a5b1959607a1b606482015260840161056b565b816001600160a01b03167fbb28353e4598c3b9199101a66e0989549b659a59a54d2c27fbb183f1932c8e6d846040516108e391815260200190565b60405180910390a2505050565b606060006108fe6068611a1a565b67ffffffffffffffff811115610916576109166120fd565b60405190808252806020026020018201604052801561093f578160200160208202803683370190505b50905060005b61094f6068611a1a565b81101561099d57610961606882611a39565b828281518110610973576109736120e7565b6001600160a01b0390921660209283029190910190910152806109958161208a565b915050610945565b50919050565b6109b0335b6066906119e0565b6109cc5760405162461bcd60e51b815260040161056b90611f40565b815183511480156109de575080518351145b610a385760405162461bcd60e51b815260206004820152602560248201527f42616c616e63653a3a616363657074436c61696d733a206172697479206d69736044820152640dac2e8c6d60db1b606482015260840161056b565b6101f483511115610a9a5760405162461bcd60e51b815260206004820152602660248201527f42616c616e63653a3a616363657074436c61696d733a20746f6f206d616e7920604482015265636c61696d7360d01b606482015260840161056b565b6000805b8451811015610d60576000858281518110610abb57610abb6120e7565b60200260200101519050600081118015610ad75750606d548111155b610b315760405162461bcd60e51b815260206004820152602560248201527f42616c616e63653a3a616363657074436c61696d733a2062696c6c206e6f7420604482015264199bdd5b9960da1b606482015260840161056b565b6000858381518110610b4557610b456120e7565b602002602001015190506000858481518110610b6357610b636120e7565b6020026020010151905060008183610b7b919061205b565b6000858152606c60205260408120600481015460038201549394509092610ba2919061205b565b90506000600583015460ff166002811115610bbf57610bbf6120bb565b14610c225760405162461bcd60e51b815260206004820152602d60248201527f42616c616e63653a3a616363657074436c61696d733a2062696c6c20616c726560448201526c18591e481c1c9bd8d95cdcd959609a1b606482015260840161056b565b80831115610c8e5760405162461bcd60e51b815260206004820152603360248201527f42616c616e63653a3a616363657074436c61696d733a20636c61696d20616d6f604482015272756e742065786365656473206d61782066656560681b606482015260840161056b565b60058201805460ff19166001179055600382018590556004820184905560028201546001600160a01b03166000908152606b602052604081208054839290610cd7908490612073565b909155505060028201546001600160a01b03166000908152606a602052604081208054859290610d08908490612073565b90915550610d189050838961205b565b8254604051919950907f799d0ccabf9cc5c53a2860d6b8133855f77618de4233ce9bb031395090d1c08090600090a25050505050508080610d589061208a565b915050610a9e565b506065546040516000916001600160a01b03169083908381818185875af1925050503d8060008114610dae576040519150601f19603f3d011682016040523d82523d6000602084013e610db3565b606091505b5050905080610e235760405162461bcd60e51b815260206004820152603660248201527f42616c616e63653a3a616363657074436c61696d733a207472616e73666572206044820152751d1bc81d1a19481d1c99585cdd5c9e4819985a5b195960521b606482015260840161056b565b5050505050565b610e33336109a8565b610e4f5760405162461bcd60e51b815260040161056b90611f40565b6101f4815110610eb05760405162461bcd60e51b815260206004820152602660248201527f42616c616e63653a3a72656a656374436c61696d733a20746f6f206d616e7920604482015265636c61696d7360d01b606482015260840161056b565b60005b815181101561106e576000828281518110610ed057610ed06120e7565b60200260200101519050600081118015610eec5750606d548111155b610f465760405162461bcd60e51b815260206004820152602560248201527f42616c616e63653a3a72656a656374436c61696d733a2062696c6c206e6f7420604482015264199bdd5b9960da1b606482015260840161056b565b6000818152606c6020526040812090600582015460ff166002811115610f6e57610f6e6120bb565b14610fd15760405162461bcd60e51b815260206004820152602d60248201527f42616c616e63653a3a72656a656374436c61696d733a2062696c6c20616c726560448201526c18591e481c1c9bd8d95cdcd959609a1b606482015260840161056b565b600081600401548260030154610fe7919061205b565b60058301805460ff191660029081179091558301546001600160a01b03166000908152606b6020526040812080549293508392909190611028908490612073565b909155505081546040517f64133ae74e171ef7ce5b71e32115aba7117a4f1bd6ef67b768668f5af1af97ad90600090a250505080806110669061208a565b915050610eb3565b5050565b61107a611986565b6110846000611a45565b565b61108e611986565b6110996066826119e0565b6111015760405162461bcd60e51b815260206004820152603360248201527f42616c616e63653a3a72656d6f7665496e73706563746f723a20696e737065636044820152721d1bdc88185b1c9958591e481c995b5bdd9959606a1b606482015260840161056b565b61110c606682611a05565b506040516001600160a01b038216907f737c9e54b555afb1794817809534974cb61ead2136d82d4a8fecb34d0932922090600090a250565b61114c611986565b6111576066826119e0565b156111bb5760405162461bcd60e51b815260206004820152602e60248201527f42616c616e63653a3a616464496e73706563746f723a20696e73706563746f7260448201526d08185b1c9958591e48185919195960921b606482015260840161056b565b60646111c76066611a1a565b1061123a5760405162461bcd60e51b815260206004820152603e60248201527f42616c616e63653a3a616464496e73706563746f723a20696e73706563746f7260448201527f206d757374206e6f7420657863656564206d6178696d756d20636f756e740000606482015260840161056b565b611245606682611a24565b506040516001600160a01b038216907f9ca2a3611f65b351a79d20d5314a16e37fe9b947d2a36232e101bd615994450390600090a250565b6060600061128b6066611a1a565b67ffffffffffffffff8111156112a3576112a36120fd565b6040519080825280602002602001820160405280156112cc578160200160208202803683370190505b50905060005b6112dc6066611a1a565b81101561099d576112ee606682611a39565b828281518110611300576113006120e7565b6001600160a01b0390921660209283029190910190910152806113228161208a565b9150506112d2565b611332611986565b606580546001600160a01b0319166001600160a01b0383169081179091556040517fc714d22a2f08b695f81e7c707058db484aa5b4d6b4c9fd64beb10fe85832f60890600090a250565b600054610100900460ff161580801561139c5750600054600160ff909116105b806113b65750303b1580156113b6575060005460ff166001145b6114195760405162461bcd60e51b815260206004820152602e60248201527f496e697469616c697a61626c653a20636f6e747261637420697320616c72656160448201526d191e481a5b9a5d1a585b1a5e995960921b606482015260840161056b565b6000805460ff19166001179055801561143c576000805461ff0019166101001790555b6001600160a01b0382166114aa5760405162461bcd60e51b815260206004820152602f60248201527f42616c616e636556313a3a696e697469616c697a653a20696e76616c6964207460448201526e72656173757279206164647265737360881b606482015260840161056b565b6114b2611a97565b606580546001600160a01b0319166001600160a01b038416179055801561106e576000805461ff0019169055604051600181527f7f26b83ff96e1f2b6a682f133852f6798a09c465da95921460cefb38474024989060200160405180910390a15050565b6000326001600160a01b038616148061153557506115356068326119e0565b61158b5760405162461bcd60e51b815260206004820152602160248201527f42616c616e63653a2063616c6c6572206973206e6f74206120636f6e73756d656044820152603960f91b606482015260840161056b565b6000611597848661205b565b9050600081116115f85760405162461bcd60e51b815260206004820152602660248201527f42616c616e63653a3a636c61696d3a206e65676174697665206f72207a65726f60448201526520636c61696d60d01b606482015260840161056b565b611601866104c2565b8111156116695760405162461bcd60e51b815260206004820152603060248201527f42616c616e63653a3a636c61696d3a20636c61696d20616d6f756e742065786360448201526f65656473206e65742062616c616e636560801b606482015260840161056b565b6001600160a01b0386166000908152606b60205260408120805483929061169190849061205b565b9091555050606d80549060006116a68361208a565b91905055506040518060c00160405280606d5481526020016116c53390565b6001600160a01b03908116825288166020820152604081018790526060810186905260800160009052606d546000908152606c60209081526040918290208351815590830151600180830180546001600160a01b039384166001600160a01b0319918216179091559385015160028085018054929094169190951617909155606084015160038301556080840151600483015560a084015160058301805493949193909260ff19909116918490811115611781576117816120bb565b0217905550905050606d54866001600160a01b03167f58fb02bcfedd338314c70bcf748b4f71a01259cf8956f31b34cb09acf29809cb856040516117c59190611eeb565b60405180910390a35050606d54949350505050565b6117e2611986565b6001600160a01b0381166118475760405162461bcd60e51b815260206004820152602660248201527f4f776e61626c653a206e6577206f776e657220697320746865207a65726f206160448201526564647265737360d01b606482015260840161056b565b61185081611a45565b50565b6001600160a01b0381166118b55760405162461bcd60e51b815260206004820152602360248201527f42616c616e63653a3a6465706f7369743a20696e76616c696420726563697069604482015262195b9d60ea1b606482015260840161056b565b600034116119185760405162461bcd60e51b815260206004820152602a60248201527f42616c616e63653a3a6465706f7369743a206e65676174697665206f72207a656044820152691c9bc819195c1bdcda5d60b21b606482015260840161056b565b6001600160a01b0381166000908152606a60205260408120805434929061194090849061205b565b90915550506040513481526001600160a01b038216907fe1fffcc4923d04b559f4d29a8bfc6cda04eb5b0d3c460751c2402c5c5cc9109c9060200160405180910390a250565b6033546001600160a01b031633146110845760405162461bcd60e51b815260206004820181905260248201527f4f776e61626c653a2063616c6c6572206973206e6f7420746865206f776e6572604482015260640161056b565b6001600160a01b038116600090815260018301602052604081205415155b9392505050565b60006119fe836001600160a01b038416611ac6565b60006104f0825490565b60006119fe836001600160a01b038416611bb9565b60006119fe8383611c08565b603380546001600160a01b038381166001600160a01b0319831681179093556040519116919082907f8be0079c531659141344cd1fd0a4f28419497f9722a3daafe3b4186f6b6457e090600090a35050565b600054610100900460ff16611abe5760405162461bcd60e51b815260040161056b90611f84565b611084611c32565b60008181526001830160205260408120548015611baf576000611aea600183612073565b8554909150600090611afe90600190612073565b9050818114611b63576000866000018281548110611b1e57611b1e6120e7565b9060005260206000200154905080876000018481548110611b4157611b416120e7565b6000918252602080832090910192909255918252600188019052604090208390555b8554869080611b7457611b746120d1565b6001900381819060005260206000200160009055905585600101600086815260200190815260200160002060009055600193505050506104f0565b60009150506104f0565b6000818152600183016020526040812054611c00575081546001818101845560008481526020808220909301849055845484825282860190935260409020919091556104f0565b5060006104f0565b6000826000018281548110611c1f57611c1f6120e7565b9060005260206000200154905092915050565b600054610100900460ff16611c595760405162461bcd60e51b815260040161056b90611f84565b61108433611a45565b600082601f830112611c7357600080fd5b8135602067ffffffffffffffff821115611c8f57611c8f6120fd565b8160051b611c9e82820161202a565b838152828101908684018388018501891015611cb957600080fd5b600093505b85841015611cdc578035835260019390930192918401918401611cbe565b50979650505050505050565b600060208284031215611cfa57600080fd5b81356119fe81612113565b60008060008060808587031215611d1b57600080fd5b8435611d2681612113565b9350602085810135935060408601359250606086013567ffffffffffffffff80821115611d5257600080fd5b818801915088601f830112611d6657600080fd5b813581811115611d7857611d786120fd565b611d8a601f8201601f1916850161202a565b91508082528984828501011115611da057600080fd5b808484018584013760008482840101525080935050505092959194509250565b600060208284031215611dd257600080fd5b813567ffffffffffffffff811115611de957600080fd5b611df584828501611c62565b949350505050565b600080600060608486031215611e1257600080fd5b833567ffffffffffffffff80821115611e2a57600080fd5b611e3687838801611c62565b94506020860135915080821115611e4c57600080fd5b611e5887838801611c62565b93506040860135915080821115611e6e57600080fd5b50611e7b86828701611c62565b9150509250925092565b600060208284031215611e9757600080fd5b5035919050565b6020808252825182820181905260009190848201906040850190845b81811015611edf5783516001600160a01b031683529284019291840191600101611eba565b50909695505050505050565b600060208083528351808285015260005b81811015611f1857858101830151858201604001528201611efc565b81811115611f2a576000604083870101525b50601f01601f1916929092016040019392505050565b60208082526024908201527f42616c616e63653a2063616c6c6572206973206e6f742074686520696e73706560408201526331ba37b960e11b606082015260800190565b6020808252602b908201527f496e697469616c697a61626c653a20636f6e7472616374206973206e6f74206960408201526a6e697469616c697a696e6760a81b606082015260800190565b8681526001600160a01b03868116602083015285166040820152606081018490526080810183905260c081016003831061201957634e487b7160e01b600052602160045260246000fd5b8260a0830152979650505050505050565b604051601f8201601f1916810167ffffffffffffffff81118282101715612053576120536120fd565b604052919050565b6000821982111561206e5761206e6120a5565b500190565b600082821015612085576120856120a5565b500390565b600060001982141561209e5761209e6120a5565b5060010190565b634e487b7160e01b600052601160045260246000fd5b634e487b7160e01b600052602160045260246000fd5b634e487b7160e01b600052603160045260246000fd5b634e487b7160e01b600052603260045260246000fd5b634e487b7160e01b600052604160045260246000fd5b6001600160a01b038116811461185057600080fdfea2646970667358221220aa72150fe9ae56ae3e2aa62cf345f955733f0ec8c2c0b57a0a4e398ae48e93a264736f6c63430008060033",
  "linkReferences": {},
  "deployedLinkReferences": {}
}