{
  "_format": "hh-sol-artifact-1",
  "contractName": "RouterMock",
  "sourceName": "contracts/automate/dex/mock/RouterMock.sol",
  "abi": [
    {
      "inputs": [
        {
          "internalType": "address",
          "name": "_lpToken",
          "type": "address"
        }
      ],
      "stateMutability": "nonpayable",
      "type": "constructor"
    },
    {
      "inputs": [
        {
          "internalType": "address",
          "name": "tokenA",
          "type": "address"
        },
        {
          "internalType": "address",
          "name": "tokenB",
          "type": "address"
        },
        {
          "internalType": "uint256",
          "name": "amountADesired",
          "type": "uint256"
        },
        {
          "internalType": "uint256",
          "name": "amountBDesired",
          "type": "uint256"
        },
        {
          "internalType": "uint256",
          "name": "",
          "type": "uint256"
        },
        {
          "internalType": "uint256",
          "name": "",
          "type": "uint256"
        },
        {
          "internalType": "address",
          "name": "to",
          "type": "address"
        },
        {
          "internalType": "uint256",
          "name": "",
          "type": "uint256"
        }
      ],
      "name": "addLiquidity",
      "outputs": [
        {
          "internalType": "uint256",
          "name": "amountA",
          "type": "uint256"
        },
        {
          "internalType": "uint256",
          "name": "amountB",
          "type": "uint256"
        },
        {
          "internalType": "uint256",
          "name": "liquidity",
          "type": "uint256"
        }
      ],
      "stateMutability": "nonpayable",
      "type": "function"
    },
    {
      "inputs": [
        {
          "internalType": "uint256",
          "name": "amountIn",
          "type": "uint256"
        },
        {
          "internalType": "address[]",
          "name": "path",
          "type": "address[]"
        }
      ],
      "name": "getAmountsOut",
      "outputs": [
        {
          "internalType": "uint256[]",
          "name": "amounts",
          "type": "uint256[]"
        }
      ],
      "stateMutability": "view",
      "type": "function"
    },
    {
      "inputs": [],
      "name": "lpToken",
      "outputs": [
        {
          "internalType": "address",
          "name": "",
          "type": "address"
        }
      ],
      "stateMutability": "view",
      "type": "function"
    },
    {
      "inputs": [
        {
          "internalType": "address",
          "name": "",
          "type": "address"
        }
      ],
      "name": "prices",
      "outputs": [
        {
          "internalType": "uint256",
          "name": "",
          "type": "uint256"
        }
      ],
      "stateMutability": "view",
      "type": "function"
    },
    {
      "inputs": [
        {
          "internalType": "address",
          "name": "tokenA",
          "type": "address"
        },
        {
          "internalType": "address",
          "name": "tokenB",
          "type": "address"
        },
        {
          "internalType": "uint256",
          "name": "liquidity",
          "type": "uint256"
        },
        {
          "internalType": "uint256",
          "name": "",
          "type": "uint256"
        },
        {
          "internalType": "uint256",
          "name": "",
          "type": "uint256"
        },
        {
          "internalType": "address",
          "name": "to",
          "type": "address"
        },
        {
          "internalType": "uint256",
          "name": "",
          "type": "uint256"
        }
      ],
      "name": "removeLiquidity",
      "outputs": [
        {
          "internalType": "uint256",
          "name": "amountA",
          "type": "uint256"
        },
        {
          "internalType": "uint256",
          "name": "amountB",
          "type": "uint256"
        }
      ],
      "stateMutability": "nonpayable",
      "type": "function"
    },
    {
      "inputs": [
        {
          "internalType": "address",
          "name": "token",
          "type": "address"
        },
        {
          "internalType": "uint256",
          "name": "price",
          "type": "uint256"
        }
      ],
      "name": "setPrice",
      "outputs": [],
      "stateMutability": "nonpayable",
      "type": "function"
    },
    {
      "inputs": [
        {
          "internalType": "uint256",
          "name": "amountIn",
          "type": "uint256"
        },
        {
          "internalType": "uint256",
          "name": "amountOutMin",
          "type": "uint256"
        },
        {
          "internalType": "address[]",
          "name": "path",
          "type": "address[]"
        },
        {
          "internalType": "address",
          "name": "to",
          "type": "address"
        },
        {
          "internalType": "uint256",
          "name": "",
          "type": "uint256"
        }
      ],
      "name": "swapExactTokensForTokens",
      "outputs": [
        {
          "internalType": "uint256[]",
          "name": "amounts",
          "type": "uint256[]"
        }
      ],
      "stateMutability": "nonpayable",
      "type": "function"
    },
    {
      "inputs": [
        {
          "internalType": "uint256",
          "name": "amountIn",
          "type": "uint256"
        },
        {
          "internalType": "uint256",
          "name": "amountOutMin",
          "type": "uint256"
        },
        {
          "internalType": "address[]",
          "name": "path",
          "type": "address[]"
        },
        {
          "internalType": "address",
          "name": "to",
          "type": "address"
        },
        {
          "internalType": "uint256",
          "name": "deadline",
          "type": "uint256"
        }
      ],
      "name": "swapExactTokensForTokensSupportingFeeOnTransferTokens",
      "outputs": [],
      "stateMutability": "nonpayable",
      "type": "function"
    }
  ],
  "bytecode": "0x608060405234801561001057600080fd5b50604051610cd1380380610cd183398101604081905261002f91610054565b600080546001600160a01b0319166001600160a01b0392909216919091179055610084565b60006020828403121561006657600080fd5b81516001600160a01b038116811461007d57600080fd5b9392505050565b610c3e806100936000396000f3fe608060405234801561001057600080fd5b50600436106100875760003560e01c8063baa2abde1161005b578063baa2abde1461011f578063cfed246b14610147578063d06ca61f14610175578063e8e337001461018857600080fd5b8062e4768b1461008c57806338ed1739146100b85780635c11d795146100e15780635fcbd285146100f4575b600080fd5b6100b661009a366004610925565b6001600160a01b03909116600090815260016020526040902055565b005b6100cb6100c6366004610a49565b6101b6565b6040516100d89190610b0f565b60405180910390f35b6100b66100ef366004610a49565b610392565b600054610107906001600160a01b031681565b6040516001600160a01b0390911681526020016100d8565b61013261012d366004610847565b6103a9565b604080519283526020830191909152016100d8565b610167610155366004610825565b60016020526000908152604090205481565b6040519081526020016100d8565b6100cb610183366004610971565b610560565b61019b6101963660046108b1565b61065b565b604080519384526020840192909252908201526060016100d8565b6060848460008181106101cb576101cb610bdc565b90506020020160208101906101e09190610825565b6001600160a01b03166323b872dd33308a6040518463ffffffff1660e01b815260040161020f93929190610aeb565b602060405180830381600087803b15801561022957600080fd5b505af115801561023d573d6000803e3d6000fd5b505050506040513d601f19601f82011682018060405250810190610261919061094f565b50600060018187876102738482610b94565b81811061028257610282610bdc565b90506020020160208101906102979190610825565b6001600160a01b03168152602081019190915260400160002054905085856102c0600182610b94565b8181106102cf576102cf610bdc565b90506020020160208101906102e49190610825565b6001600160a01b031663a9059cbb85836102fe5789610308565b6103088b85610b75565b6040516001600160e01b031960e085901b1681526001600160a01b0390921660048301526024820152604401602060405180830381600087803b15801561034e57600080fd5b505af1158015610362573d6000803e3d6000fd5b505050506040513d601f19601f82011682018060405250810190610386919061094f565b50509695505050505050565b6103a08686868686866101b6565b50505050505050565b600080546040516323b872dd60e01b815282916001600160a01b0316906323b872dd906103de90339030908c90600401610aeb565b602060405180830381600087803b1580156103f857600080fd5b505af115801561040c573d6000803e3d6000fd5b505050506040513d601f19601f82011682018060405250810190610430919061094f565b5061043c600288610b53565b60405163a9059cbb60e01b81526001600160a01b03868116600483015260248201839052919350908a169063a9059cbb90604401602060405180830381600087803b15801561048a57600080fd5b505af115801561049e573d6000803e3d6000fd5b505050506040513d601f19601f820116820180604052508101906104c2919061094f565b506104cd8288610b94565b60405163a9059cbb60e01b81526001600160a01b038681166004830152602482018390529192509089169063a9059cbb90604401602060405180830381600087803b15801561051b57600080fd5b505af115801561052f573d6000803e3d6000fd5b505050506040513d601f19601f82011682018060405250810190610553919061094f565b5097509795505050505050565b6060815167ffffffffffffffff81111561057c5761057c610bf2565b6040519080825280602002602001820160405280156105a5578160200160208202803683370190505b50905060005b825181101561065457600183516105c29190610b94565b81146105ce5783610625565b6001600084600186516105e19190610b94565b815181106105f1576105f1610bdc565b60200260200101516001600160a01b03166001600160a01b0316815260200190815260200160002054846106259190610b75565b82828151811061063757610637610bdc565b60209081029190910101528061064c81610bab565b9150506105ab565b5092915050565b6040516323b872dd60e01b8152869060009081906001600160a01b038c16906323b872dd9061069290339030908890600401610aeb565b602060405180830381600087803b1580156106ac57600080fd5b505af11580156106c0573d6000803e3d6000fd5b505050506040513d601f19601f820116820180604052508101906106e4919061094f565b506040516323b872dd60e01b81528892506001600160a01b038b16906323b872dd9061071890339030908790600401610aeb565b602060405180830381600087803b15801561073257600080fd5b505af1158015610746573d6000803e3d6000fd5b505050506040513d601f19601f8201168201806040525081019061076a919061094f565b505060005460405163a9059cbb60e01b81526001600160a01b038681166004830152678ac7230489e800006024830181905292169063a9059cbb90604401602060405180830381600087803b1580156107c257600080fd5b505af11580156107d6573d6000803e3d6000fd5b505050506040513d601f19601f820116820180604052508101906107fa919061094f565b50985098509895505050505050565b80356001600160a01b038116811461082057600080fd5b919050565b60006020828403121561083757600080fd5b61084082610809565b9392505050565b600080600080600080600060e0888a03121561086257600080fd5b61086b88610809565b965061087960208901610809565b955060408801359450606088013593506080880135925061089c60a08901610809565b915060c0880135905092959891949750929550565b600080600080600080600080610100898b0312156108ce57600080fd5b6108d789610809565b97506108e560208a01610809565b965060408901359550606089013594506080890135935060a0890135925061090f60c08a01610809565b915060e089013590509295985092959890939650565b6000806040838503121561093857600080fd5b61094183610809565b946020939093013593505050565b60006020828403121561096157600080fd5b8151801515811461084057600080fd5b6000806040838503121561098457600080fd5b8235915060208084013567ffffffffffffffff808211156109a457600080fd5b818601915086601f8301126109b857600080fd5b8135818111156109ca576109ca610bf2565b8060051b604051601f19603f830116810181811085821117156109ef576109ef610bf2565b604052828152858101935084860182860187018b1015610a0e57600080fd5b600095505b83861015610a3857610a2481610809565b855260019590950194938601938601610a13565b508096505050505050509250929050565b60008060008060008060a08789031215610a6257600080fd5b8635955060208701359450604087013567ffffffffffffffff80821115610a8857600080fd5b818901915089601f830112610a9c57600080fd5b813581811115610aab57600080fd5b8a60208260051b8501011115610ac057600080fd5b602083019650809550505050610ad860608801610809565b9150608087013590509295509295509295565b6001600160a01b039384168152919092166020820152604081019190915260600190565b6020808252825182820181905260009190848201906040850190845b81811015610b4757835183529284019291840191600101610b2b565b50909695505050505050565b600082610b7057634e487b7160e01b600052601260045260246000fd5b500490565b6000816000190483118215151615610b8f57610b8f610bc6565b500290565b600082821015610ba657610ba6610bc6565b500390565b6000600019821415610bbf57610bbf610bc6565b5060010190565b634e487b7160e01b600052601160045260246000fd5b634e487b7160e01b600052603260045260246000fd5b634e487b7160e01b600052604160045260246000fdfea2646970667358221220993f2143dacf1367c97993963f01b7f5c50f26226d63b7dc84e18f68da382bf464736f6c63430008060033",
  "linkReferences": {},
  "deployedLinkReferences": {}
}