{
  "_format": "hh-sol-artifact-1",
  "contractName": "Budget",
  "sourceName": "contracts/Budget.sol",
  "abi": [
    {
      "anonymous": false,
      "inputs": [
        {
          "indexed": true,
          "internalType": "address",
          "name": "recipient",
          "type": "address"
        },
        {
          "indexed": false,
          "internalType": "uint256",
          "name": "min",
          "type": "uint256"
        },
        {
          "indexed": false,
          "internalType": "uint256",
          "name": "target",
          "type": "uint256"
        }
      ],
      "name": "ExpenditureChanged",
      "type": "event"
    },
    {
      "anonymous": false,
      "inputs": [
        {
          "indexed": true,
          "internalType": "address",
          "name": "previousOwner",
          "type": "address"
        },
        {
          "indexed": true,
          "internalType": "address",
          "name": "newOwner",
          "type": "address"
        }
      ],
      "name": "OwnershipTransferred",
      "type": "event"
    },
    {
      "anonymous": false,
      "inputs": [
        {
          "indexed": true,
          "internalType": "address",
          "name": "recipient",
          "type": "address"
        },
        {
          "indexed": false,
          "internalType": "uint256",
          "name": "amount",
          "type": "uint256"
        }
      ],
      "name": "Withdrawal",
      "type": "event"
    },
    {
      "inputs": [],
      "name": "MAXIMUM_RECIPIENT_COUNT",
      "outputs": [
        {
          "internalType": "uint256",
          "name": "",
          "type": "uint256"
        }
      ],
      "stateMutability": "view",
      "type": "function"
    },
    {
      "inputs": [
        {
          "internalType": "address",
          "name": "",
          "type": "address"
        }
      ],
      "name": "balanceOf",
      "outputs": [
        {
          "internalType": "uint256",
          "name": "",
          "type": "uint256"
        }
      ],
      "stateMutability": "view",
      "type": "function"
    },
    {
      "inputs": [
        {
          "internalType": "address",
          "name": "recipient",
          "type": "address"
        },
        {
          "internalType": "uint256",
          "name": "min",
          "type": "uint256"
        },
        {
          "internalType": "uint256",
          "name": "target",
          "type": "uint256"
        }
      ],
      "name": "changeExpenditure",
      "outputs": [],
      "stateMutability": "nonpayable",
      "type": "function"
    },
    {
      "inputs": [],
      "name": "deficit",
      "outputs": [
        {
          "internalType": "uint256",
          "name": "",
          "type": "uint256"
        }
      ],
      "stateMutability": "view",
      "type": "function"
    },
    {
      "inputs": [
        {
          "internalType": "address",
          "name": "recipient",
          "type": "address"
        }
      ],
      "name": "deficitTo",
      "outputs": [
        {
          "internalType": "uint256",
          "name": "",
          "type": "uint256"
        }
      ],
      "stateMutability": "view",
      "type": "function"
    },
    {
      "inputs": [
        {
          "internalType": "address",
          "name": "",
          "type": "address"
        }
      ],
      "name": "expenditures",
      "outputs": [
        {
          "internalType": "address",
          "name": "recipient",
          "type": "address"
        },
        {
          "internalType": "uint256",
          "name": "min",
          "type": "uint256"
        },
        {
          "internalType": "uint256",
          "name": "target",
          "type": "uint256"
        }
      ],
      "stateMutability": "view",
      "type": "function"
    },
    {
      "inputs": [],
      "name": "owner",
      "outputs": [
        {
          "internalType": "address",
          "name": "",
          "type": "address"
        }
      ],
      "stateMutability": "view",
      "type": "function"
    },
    {
      "inputs": [],
      "name": "pay",
      "outputs": [],
      "stateMutability": "nonpayable",
      "type": "function"
    },
    {
      "inputs": [],
      "name": "recipients",
      "outputs": [
        {
          "internalType": "address[]",
          "name": "",
          "type": "address[]"
        }
      ],
      "stateMutability": "view",
      "type": "function"
    },
    {
      "inputs": [],
      "name": "renounceOwnership",
      "outputs": [],
      "stateMutability": "nonpayable",
      "type": "function"
    },
    {
      "inputs": [],
      "name": "totalSupply",
      "outputs": [
        {
          "internalType": "uint256",
          "name": "",
          "type": "uint256"
        }
      ],
      "stateMutability": "view",
      "type": "function"
    },
    {
      "inputs": [
        {
          "internalType": "address payable",
          "name": "recipient",
          "type": "address"
        },
        {
          "internalType": "uint256",
          "name": "amount",
          "type": "uint256"
        }
      ],
      "name": "transferETH",
      "outputs": [],
      "stateMutability": "nonpayable",
      "type": "function"
    },
    {
      "inputs": [
        {
          "internalType": "address",
          "name": "newOwner",
          "type": "address"
        }
      ],
      "name": "transferOwnership",
      "outputs": [],
      "stateMutability": "nonpayable",
      "type": "function"
    },
    {
      "inputs": [],
      "name": "withdraw",
      "outputs": [],
      "stateMutability": "nonpayable",
      "type": "function"
    },
    {
      "stateMutability": "payable",
      "type": "receive"
    }
  ],
  "bytecode": "0x608060405234801561001057600080fd5b5061001a3361001f565b61006f565b600080546001600160a01b038381166001600160a01b0319831681178455604051919092169283917f8be0079c531659141344cd1fd0a4f28419497f9722a3daafe3b4186f6b6457e09190a35050565b610fa38061007e6000396000f3fe6080604052600436106100e15760003560e01c8063715018a61161007f578063e21fe96111610059578063e21fe96114610227578063e9cf66f114610293578063f2fde38b146102b3578063f9462173146102d357600080fd5b8063715018a6146101ca5780637b1a4909146101df5780638da5cb5b146101ff57600080fd5b80631b9265b8116100bb5780631b9265b81461015e5780633ccfd60b146101735780635426fa8a1461018857806370a082311461019d57600080fd5b80630d432021146100ed5780630e57d4ce1461010f57806318160ddd1461013a57600080fd5b366100e857005b600080fd5b3480156100f957600080fd5b5061010d610108366004610e34565b6102e8565b005b34801561011b57600080fd5b5061012461058a565b6040516101319190610e69565b60405180910390f35b34801561014657600080fd5b5061015060055481565b604051908152602001610131565b34801561016a57600080fd5b5061010d61063d565b34801561017f57600080fd5b5061010d6106f7565b34801561019457600080fd5b5061015061081e565b3480156101a957600080fd5b506101506101b8366004610deb565b60046020526000908152604090205481565b3480156101d657600080fd5b5061010d610861565b3480156101eb57600080fd5b5061010d6101fa366004610e08565b610875565b34801561020b57600080fd5b506000546040516001600160a01b039091168152602001610131565b34801561023357600080fd5b5061026e610242366004610deb565b60016020819052600091825260409091208054918101546002909101546001600160a01b039092169183565b604080516001600160a01b039094168452602084019290925290820152606001610131565b34801561029f57600080fd5b506101506102ae366004610deb565b6109fb565b3480156102bf57600080fd5b5061010d6102ce366004610deb565b610af4565b3480156102df57600080fd5b5061015060c881565b6102f0610b6a565b808211156103855760405162461bcd60e51b815260206004820152605160248201527f4275646765743a3a6368616e6765457870656e6469747572653a206d696e696d60448201527f616c2062616c616e63652073686f756c64206265206c657373206f7220657175606482015270616c207461726765742062616c616e636560781b608482015260a4015b60405180910390fd5b6001600160a01b0383166103f05760405162461bcd60e51b815260206004820152602c60248201527f4275646765743a3a6368616e6765457870656e6469747572653a20696e76616c60448201526b1a59081c9958da5c1a595b9d60a21b606482015260840161037c565b604080516060810182526001600160a01b038581168083526020808401878152848601878152600093845260019283905295909220935184546001600160a01b03191693169290921783555190820155905160029091015580156104ea57610459600284610bc4565b5060c86104666002610be2565b11156104e55760405162461bcd60e51b815260206004820152604260248201527f4275646765743a3a6368616e6765457870656e6469747572653a20726563697060448201527f69656e74206d757374206e6f7420657863656564206d6178696d756d20636f756064820152611b9d60f21b608482015260a40161037c565b610541565b6001600160a01b0383166000908152600460205260408120546005805491929091610516908490610ece565b90915550506001600160a01b03831660009081526004602052604081205561053f600284610bec565b505b60408051838152602081018390526001600160a01b038516917f5c315648fddc891fd463694f00b02e1b8e3a1847790fd85887fb41f7c28fb1ca910160405180910390a2505050565b606060006105986002610be2565b67ffffffffffffffff8111156105b0576105b0610f42565b6040519080825280602002602001820160405280156105d9578160200160208202803683370190505b50905060005b6105e96002610be2565b811015610637576105fb600282610c01565b82828151811061060d5761060d610f2c565b6001600160a01b03909216602092830291909101909101528061062f81610ee5565b9150506105df565b50919050565b60005b61064a6002610be2565b8110156106f4576000600554476106619190610ece565b90506000610670600284610c01565b9050600061067d826109fb565b905080158061068b57508083105b15610698575050506106e2565b6001600160a01b038216600090815260046020526040812080548392906106c0908490610eb6565b9250508190555080600560008282546106d99190610eb6565b90915550505050505b806106ec81610ee5565b915050610640565b50565b336000818152600460205260409020548061076e5760405162461bcd60e51b815260206004820152603160248201527f4275646765743a3a77697468647261773a207472616e7366657220616d6f756e6044820152707420657863656564732062616c616e636560781b606482015260840161037c565b6001600160a01b03821660009081526004602052604081208190556005805483929061079b908490610ece565b90915550506040516001600160a01b0383169082156108fc029083906000818181858888f193505050501580156107d6573d6000803e3d6000fd5b50816001600160a01b03167f7fcf532c15f0a6db0bd6d0e038bea71d30d808c7d98cb3bf7268a95bf5081b658260405161081291815260200190565b60405180910390a25050565b60008060005b61082e6002610be2565b811015610637576108436102ae600283610c01565b61084d9083610eb6565b91508061085981610ee5565b915050610824565b610869610b6a565b6108736000610c0d565b565b61087d610b6a565b600081116108e25760405162461bcd60e51b815260206004820152602c60248201527f4275646765743a3a7472616e736665724554483a206e65676174697665206f7260448201526b081e995c9bc8185b5bdd5b9d60a21b606482015260840161037c565b6001600160a01b0382166109475760405162461bcd60e51b815260206004820152602660248201527f4275646765743a3a7472616e736665724554483a20696e76616c6964207265636044820152651a5c1a595b9d60d21b606482015260840161037c565b6005546109549047610ece565b8111156109c05760405162461bcd60e51b815260206004820152603460248201527f4275646765743a3a7472616e736665724554483a207472616e7366657220616d6044820152736f756e7420657863656564732062616c616e636560601b606482015260840161037c565b6040516001600160a01b0383169082156108fc029083906000818181858888f193505050501580156109f6573d6000803e3d6000fd5b505050565b6000610a08600283610c5d565b610a715760405162461bcd60e51b815260206004820152603460248201527f4275646765743a3a64656669636974546f3a20726563697069656e74206e6f7460448201527320696e20657870656e646974757265206974656d60601b606482015260840161037c565b6001600160a01b0382166000818152600460205260408120549091610a97919031610eb6565b6001600160a01b038416600090815260016020819052604090912001549091508110610ac65750600092915050565b6001600160a01b038316600090815260016020526040902060020154610aed908290610ece565b9392505050565b610afc610b6a565b6001600160a01b038116610b615760405162461bcd60e51b815260206004820152602660248201527f4f776e61626c653a206e6577206f776e657220697320746865207a65726f206160448201526564647265737360d01b606482015260840161037c565b6106f481610c0d565b6000546001600160a01b031633146108735760405162461bcd60e51b815260206004820181905260248201527f4f776e61626c653a2063616c6c6572206973206e6f7420746865206f776e6572604482015260640161037c565b6000610bd9836001600160a01b038416610c7f565b90505b92915050565b6000610bdc825490565b6000610bd9836001600160a01b038416610cce565b6000610bd98383610dc1565b600080546001600160a01b038381166001600160a01b0319831681178455604051919092169283917f8be0079c531659141344cd1fd0a4f28419497f9722a3daafe3b4186f6b6457e09190a35050565b6001600160a01b03811660009081526001830160205260408120541515610bd9565b6000818152600183016020526040812054610cc657508154600181810184556000848152602080822090930184905584548482528286019093526040902091909155610bdc565b506000610bdc565b60008181526001830160205260408120548015610db7576000610cf2600183610ece565b8554909150600090610d0690600190610ece565b9050818114610d6b576000866000018281548110610d2657610d26610f2c565b9060005260206000200154905080876000018481548110610d4957610d49610f2c565b6000918252602080832090910192909255918252600188019052604090208390555b8554869080610d7c57610d7c610f16565b600190038181906000526020600020016000905590558560010160008681526020019081526020016000206000905560019350505050610bdc565b6000915050610bdc565b6000826000018281548110610dd857610dd8610f2c565b9060005260206000200154905092915050565b600060208284031215610dfd57600080fd5b8135610aed81610f58565b60008060408385031215610e1b57600080fd5b8235610e2681610f58565b946020939093013593505050565b600080600060608486031215610e4957600080fd5b8335610e5481610f58565b95602085013595506040909401359392505050565b6020808252825182820181905260009190848201906040850190845b81811015610eaa5783516001600160a01b031683529284019291840191600101610e85565b50909695505050505050565b60008219821115610ec957610ec9610f00565b500190565b600082821015610ee057610ee0610f00565b500390565b6000600019821415610ef957610ef9610f00565b5060010190565b634e487b7160e01b600052601160045260246000fd5b634e487b7160e01b600052603160045260246000fd5b634e487b7160e01b600052603260045260246000fd5b634e487b7160e01b600052604160045260246000fd5b6001600160a01b03811681146106f457600080fdfea2646970667358221220693353569591d412e5acb0af7965a59d66b92bec4a7ba401ce16423ea9bc711664736f6c63430008060033",
  "linkReferences": {},
  "deployedLinkReferences": {}
}