{
  "_format": "hh-sol-artifact-1",
  "contractName": "SmartTradeSwapHandler",
  "sourceName": "contracts/automate/SmartTrade/SwapHandler.sol",
  "abi": [
    {
      "inputs": [
        {
          "internalType": "address",
          "name": "_router",
          "type": "address"
        }
      ],
      "stateMutability": "nonpayable",
      "type": "constructor"
    },
    {
      "inputs": [
        {
          "components": [
            {
              "internalType": "address",
              "name": "exchange",
              "type": "address"
            },
            {
              "internalType": "uint256",
              "name": "amountIn",
              "type": "uint256"
            },
            {
              "internalType": "address[]",
              "name": "path",
              "type": "address[]"
            },
            {
              "internalType": "uint256",
              "name": "amountOutMin",
              "type": "uint256"
            }
          ],
          "internalType": "struct SmartTradeSwapHandler.OrderData",
          "name": "data",
          "type": "tuple"
        }
      ],
      "name": "callDataEncode",
      "outputs": [
        {
          "internalType": "bytes",
          "name": "",
          "type": "bytes"
        }
      ],
      "stateMutability": "pure",
      "type": "function"
    },
    {
      "inputs": [
        {
          "components": [
            {
              "internalType": "uint256",
              "name": "id",
              "type": "uint256"
            },
            {
              "internalType": "address",
              "name": "owner",
              "type": "address"
            },
            {
              "internalType": "enum SmartTradeRouter.OrderStatus",
              "name": "status",
              "type": "uint8"
            },
            {
              "internalType": "address",
              "name": "handler",
              "type": "address"
            },
            {
              "internalType": "bytes",
              "name": "callData",
              "type": "bytes"
            }
          ],
          "internalType": "struct SmartTradeRouter.Order",
          "name": "order",
          "type": "tuple"
        }
      ],
      "name": "handle",
      "outputs": [],
      "stateMutability": "nonpayable",
      "type": "function"
    },
    {
      "inputs": [
        {
          "components": [
            {
              "internalType": "uint256",
              "name": "id",
              "type": "uint256"
            },
            {
              "internalType": "address",
              "name": "owner",
              "type": "address"
            },
            {
              "internalType": "enum SmartTradeRouter.OrderStatus",
              "name": "status",
              "type": "uint8"
            },
            {
              "internalType": "address",
              "name": "handler",
              "type": "address"
            },
            {
              "internalType": "bytes",
              "name": "callData",
              "type": "bytes"
            }
          ],
          "internalType": "struct SmartTradeRouter.Order",
          "name": "order",
          "type": "tuple"
        }
      ],
      "name": "onOrderCreated",
      "outputs": [],
      "stateMutability": "view",
      "type": "function"
    },
    {
      "inputs": [],
      "name": "router",
      "outputs": [
        {
          "internalType": "address",
          "name": "",
          "type": "address"
        }
      ],
      "stateMutability": "view",
      "type": "function"
    }
  ],
  "bytecode": "0x608060405234801561001057600080fd5b50604051610ea7380380610ea783398101604081905261002f916100e0565b6001600160a01b0381166100bb5760405162461bcd60e51b815260206004820152604360248201527f536d61727454726164655377617048616e646c65723a3a636f6e73747275637460448201527f6f723a20696e76616c696420726f7574657220636f6e7472616374206164647260648201526265737360e81b608482015260a40160405180910390fd5b600080546001600160a01b0319166001600160a01b0392909216919091179055610110565b6000602082840312156100f257600080fd5b81516001600160a01b038116811461010957600080fd5b9392505050565b610d888061011f6000396000f3fe608060405234801561001057600080fd5b506004361061004c5760003560e01c80630f96a8b4146100515780632fa92b3b14610066578063e3aa7d0b1461008f578063f887ea40146100a2575b600080fd5b61006461005f3660046109cd565b6100cd565b005b61007961007436600461088e565b61011e565b6040516100869190610ab0565b60405180910390f35b61006461009d3660046109cd565b610147565b6000546100b5906001600160a01b031681565b6040516001600160a01b039091168152602001610086565b6000546001600160a01b031633146101005760405162461bcd60e51b81526004016100f790610ac3565b60405180910390fd5b61010d6080820182610c29565b81019061011a91906108c9565b5050565b6060816040516020016101319190610b20565b6040516020818303038152906040529050919050565b6000546001600160a01b031633146101715760405162461bcd60e51b81526004016100f790610ac3565b60006101806080830183610c29565b81019061018d91906108c9565b6000549091506001600160a01b03166382ad6f356101b16040850160208601610851565b83604001516000815181106101c8576101c8610d26565b602090810291909101810151908501516040516001600160e01b031960e086901b1681526001600160a01b0393841660048201529290911660248301526044820152606401600060405180830381600087803b15801561022757600080fd5b505af115801561023b573d6000803e3d6000fd5b5050505061028381600001518260200151836040015160008151811061026357610263610d26565b60200260200101516001600160a01b03166103199092919063ffffffff16565b80600001516001600160a01b0316635c11d79582602001518360600151846040015130426040518663ffffffff1660e01b81526004016102c7959493929190610bb8565b600060405180830381600087803b1580156102e157600080fd5b505af11580156102f5573d6000803e3d6000fd5b5050505061011a81604001518360200160208101906103149190610851565b610464565b8015806103a25750604051636eb1769f60e11b81523060048201526001600160a01b03838116602483015284169063dd62ed3e9060440160206040518083038186803b15801561036857600080fd5b505afa15801561037c573d6000803e3d6000fd5b505050506040513d601f19601f820116820180604052508101906103a09190610a08565b155b61040d5760405162461bcd60e51b815260206004820152603660248201527f5361666545524332303a20617070726f76652066726f6d206e6f6e2d7a65726f60448201527520746f206e6f6e2d7a65726f20616c6c6f77616e636560501b60648201526084016100f7565b604080516001600160a01b038416602482015260448082018490528251808303909101815260649091019091526020810180516001600160e01b031663095ea7b360e01b17905261045f9084906105e0565b505050565b600080546001600160a01b0316905b83518110156105da57600084828151811061049057610490610d26565b60209081029190910101516040516370a0823160e01b81523060048201526001600160a01b03909116906370a082319060240160206040518083038186803b1580156104db57600080fd5b505afa1580156104ef573d6000803e3d6000fd5b505050506040513d601f19601f820116820180604052508101906105139190610a08565b905080156105c757610532838287858151811061026357610263610d26565b826001600160a01b0316638340f5498587858151811061055457610554610d26565b60209081029190910101516040516001600160e01b031960e085901b1681526001600160a01b0392831660048201529116602482015260448101849052606401600060405180830381600087803b1580156105ae57600080fd5b505af11580156105c2573d6000803e3d6000fd5b505050505b50806105d281610cfd565b915050610473565b50505050565b6000610635826040518060400160405280602081526020017f5361666545524332303a206c6f772d6c6576656c2063616c6c206661696c6564815250856001600160a01b03166106b29092919063ffffffff16565b80519091501561045f5780806020019051810190610653919061086c565b61045f5760405162461bcd60e51b815260206004820152602a60248201527f5361666545524332303a204552433230206f7065726174696f6e20646964206e6044820152691bdd081cdd58d8d9595960b21b60648201526084016100f7565b60606106c184846000856106cb565b90505b9392505050565b60608247101561072c5760405162461bcd60e51b815260206004820152602660248201527f416464726573733a20696e73756666696369656e742062616c616e636520666f6044820152651c8818d85b1b60d21b60648201526084016100f7565b6001600160a01b0385163b6107835760405162461bcd60e51b815260206004820152601d60248201527f416464726573733a2063616c6c20746f206e6f6e2d636f6e747261637400000060448201526064016100f7565b600080866001600160a01b0316858760405161079f9190610a94565b60006040518083038185875af1925050503d80600081146107dc576040519150601f19603f3d011682016040523d82523d6000602084013e6107e1565b606091505b50915091506107f18282866107fc565b979650505050505050565b6060831561080b5750816106c4565b82511561081b5782518084602001fd5b8160405162461bcd60e51b81526004016100f79190610ab0565b80356001600160a01b038116811461084c57600080fd5b919050565b60006020828403121561086357600080fd5b6106c482610835565b60006020828403121561087e57600080fd5b815180151581146106c457600080fd5b6000602082840312156108a057600080fd5b813567ffffffffffffffff8111156108b757600080fd5b8201608081850312156106c457600080fd5b600060208083850312156108dc57600080fd5b823567ffffffffffffffff808211156108f457600080fd5b908401906080828703121561090857600080fd5b610910610c77565b61091983610835565b8152838301358482015260408301358281111561093557600080fd5b8301601f8101881361094657600080fd5b80358381111561095857610958610d3c565b8060051b9350610969868501610ca0565b8181528681019083880186850189018c101561098457600080fd5b600096505b838710156109ae5761099a81610835565b835260019690960195918801918801610989565b5060408501525050506060928301359281019290925250949350505050565b6000602082840312156109df57600080fd5b813567ffffffffffffffff8111156109f657600080fd5b820160a081850312156106c457600080fd5b600060208284031215610a1a57600080fd5b5051919050565b8183526000602080850194508260005b85811015610a5d576001600160a01b03610a4a83610835565b1687529582019590820190600101610a31565b509495945050505050565b60008151808452610a80816020860160208601610cd1565b601f01601f19169290920160200192915050565b60008251610aa6818460208701610cd1565b9190910192915050565b6020815260006106c46020830184610a68565b6020808252603b908201527f536d61727454726164655377617048616e646c65723a3a6f6e6c79526f75746560408201527f723a2063616c6c6572206973206e6f742074686520726f757465720000000000606082015260800190565b602081526001600160a01b03610b3583610835565b1660208201526020820135604082015260006040830135601e19843603018112610b5e57600080fd5b8301803567ffffffffffffffff811115610b7757600080fd5b8060051b3603851315610b8957600080fd5b60806060850152610ba160a085018260208501610a21565b915050606084013560808401528091505092915050565b600060a082018783526020878185015260a0604085015281875180845260c086019150828901935060005b81811015610c085784516001600160a01b031683529383019391830191600101610be3565b50506001600160a01b03969096166060850152505050608001529392505050565b6000808335601e19843603018112610c4057600080fd5b83018035915067ffffffffffffffff821115610c5b57600080fd5b602001915036819003821315610c7057600080fd5b9250929050565b6040516080810167ffffffffffffffff81118282101715610c9a57610c9a610d3c565b60405290565b604051601f8201601f1916810167ffffffffffffffff81118282101715610cc957610cc9610d3c565b604052919050565b60005b83811015610cec578181015183820152602001610cd4565b838111156105da5750506000910152565b6000600019821415610d1f57634e487b7160e01b600052601160045260246000fd5b5060010190565b634e487b7160e01b600052603260045260246000fd5b634e487b7160e01b600052604160045260246000fdfea264697066735822122094eba9c7da741840552b2b4d0147babdb0ecbea483c49420f3bd59bd91914dff64736f6c63430008060033",
  "linkReferences": {},
  "deployedLinkReferences": {}
}