{
  "_format": "hh-sol-artifact-1",
  "contractName": "SmartTradeSwapHandler",
  "sourceName": "contracts/automate/SmartTrade/SwapHandler.sol",
  "abi": [
    {
      "inputs": [
        {
          "internalType": "address",
          "name": "_router",
          "type": "address"
        }
      ],
      "stateMutability": "nonpayable",
      "type": "constructor"
    },
    {
      "inputs": [
        {
          "components": [
            {
              "internalType": "address",
              "name": "exchange",
              "type": "address"
            },
            {
              "internalType": "uint256",
              "name": "amountIn",
              "type": "uint256"
            },
            {
              "internalType": "address[]",
              "name": "path",
              "type": "address[]"
            },
            {
              "internalType": "uint256[]",
              "name": "amountOutMin",
              "type": "uint256[]"
            }
          ],
          "internalType": "struct SmartTradeSwapHandler.OrderData",
          "name": "data",
          "type": "tuple"
        }
      ],
      "name": "callDataEncode",
      "outputs": [
        {
          "internalType": "bytes",
          "name": "",
          "type": "bytes"
        }
      ],
      "stateMutability": "pure",
      "type": "function"
    },
    {
      "inputs": [
        {
          "components": [
            {
              "internalType": "uint8",
              "name": "route",
              "type": "uint8"
            },
            {
              "internalType": "uint256",
              "name": "amountOutMin",
              "type": "uint256"
            },
            {
              "internalType": "uint256",
              "name": "deadline",
              "type": "uint256"
            }
          ],
          "internalType": "struct SmartTradeSwapHandler.Options",
          "name": "data",
          "type": "tuple"
        }
      ],
      "name": "callOptionsEncode",
      "outputs": [
        {
          "internalType": "bytes",
          "name": "",
          "type": "bytes"
        }
      ],
      "stateMutability": "pure",
      "type": "function"
    },
    {
      "inputs": [
        {
          "components": [
            {
              "internalType": "uint256",
              "name": "id",
              "type": "uint256"
            },
            {
              "internalType": "address",
              "name": "owner",
              "type": "address"
            },
            {
              "internalType": "enum SmartTradeRouter.OrderStatus",
              "name": "status",
              "type": "uint8"
            },
            {
              "internalType": "address",
              "name": "handler",
              "type": "address"
            },
            {
              "internalType": "bytes",
              "name": "callData",
              "type": "bytes"
            }
          ],
          "internalType": "struct SmartTradeRouter.Order",
          "name": "order",
          "type": "tuple"
        },
        {
          "internalType": "bytes",
          "name": "_options",
          "type": "bytes"
        }
      ],
      "name": "handle",
      "outputs": [],
      "stateMutability": "nonpayable",
      "type": "function"
    },
    {
      "inputs": [
        {
          "components": [
            {
              "internalType": "uint256",
              "name": "id",
              "type": "uint256"
            },
            {
              "internalType": "address",
              "name": "owner",
              "type": "address"
            },
            {
              "internalType": "enum SmartTradeRouter.OrderStatus",
              "name": "status",
              "type": "uint8"
            },
            {
              "internalType": "address",
              "name": "handler",
              "type": "address"
            },
            {
              "internalType": "bytes",
              "name": "callData",
              "type": "bytes"
            }
          ],
          "internalType": "struct SmartTradeRouter.Order",
          "name": "order",
          "type": "tuple"
        }
      ],
      "name": "onOrderCreated",
      "outputs": [],
      "stateMutability": "view",
      "type": "function"
    },
    {
      "inputs": [],
      "name": "router",
      "outputs": [
        {
          "internalType": "address",
          "name": "",
          "type": "address"
        }
      ],
      "stateMutability": "view",
      "type": "function"
    }
  ],
  "bytecode": "0x608060405234801561001057600080fd5b5060405161121138038061121183398101604081905261002f916100e0565b6001600160a01b0381166100bb5760405162461bcd60e51b815260206004820152604360248201527f536d61727454726164655377617048616e646c65723a3a636f6e73747275637460448201527f6f723a20696e76616c696420726f7574657220636f6e7472616374206164647260648201526265737360e81b608482015260a40160405180910390fd5b600080546001600160a01b0319166001600160a01b0392909216919091179055610110565b6000602082840312156100f257600080fd5b81516001600160a01b038116811461010957600080fd5b9392505050565b6110f28061011f6000396000f3fe608060405234801561001057600080fd5b50600436106100575760003560e01c80630f96a8b41461005c57806323cb82471461007157806389f88bf514610084578063efe2204a146100ad578063f887ea40146100c0575b600080fd5b61006f61006a366004610c05565b6100eb565b005b61006f61007f366004610c42565b61013c565b610097610092366004610a4a565b6103fe565b6040516100a49190610d70565b60405180910390f35b6100976100bb366004610abd565b610427565b6000546100d3906001600160a01b031681565b6040516001600160a01b0390911681526020016100a4565b6000546001600160a01b0316331461011e5760405162461bcd60e51b815260040161011590610d83565b60405180910390fd5b61012b6080820182610f26565b8101906101389190610af8565b5050565b6000546001600160a01b031633146101665760405162461bcd60e51b815260040161011590610d83565b60006101756080850185610f26565b8101906101829190610af8565b9050600061019283850185610a5c565b90506000808260200151116101cb578260600151826000015160ff16815181106101be576101be611090565b60200260200101516101d1565b81602001515b9050808360600151836000015160ff16815181106101f1576101f1611090565b6020026020010151111561026d5760405162461bcd60e51b815260206004820152603c60248201527f536d61727454726164655377617048616e646c65723a3a68616e646c653a206960448201527f6e76616c696420616d6f756e74206f7574206d696e206f7074696f6e000000006064820152608401610115565b6000546001600160a01b03166382ad6f3561028e6040890160208a01610a0d565b85604001516000815181106102a5576102a5611090565b602090810291909101810151908701516040516001600160e01b031960e086901b1681526001600160a01b0393841660048201529290911660248301526044820152606401600060405180830381600087803b15801561030457600080fd5b505af1158015610318573d6000803e3d6000fd5b5050505061036083600001518460200151856040015160008151811061034057610340611090565b60200260200101516001600160a01b031661043a9092919063ffffffff16565b82600001516001600160a01b0316635c11d79584602001518386604001513087604001516040518663ffffffff1660e01b81526004016103a4959493929190610eb5565b600060405180830381600087803b1580156103be57600080fd5b505af11580156103d2573d6000803e3d6000fd5b505050506103f683604001518760200160208101906103f19190610a0d565b610585565b505050505050565b6060816040516020016104119190610de0565b6040516020818303038152906040529050919050565b6060816040516020016104119190610e0c565b8015806104c35750604051636eb1769f60e11b81523060048201526001600160a01b03838116602483015284169063dd62ed3e9060440160206040518083038186803b15801561048957600080fd5b505afa15801561049d573d6000803e3d6000fd5b505050506040513d601f19601f820116820180604052508101906104c19190610cd9565b155b61052e5760405162461bcd60e51b815260206004820152603660248201527f5361666545524332303a20617070726f76652066726f6d206e6f6e2d7a65726f60448201527520746f206e6f6e2d7a65726f20616c6c6f77616e636560501b6064820152608401610115565b604080516001600160a01b038416602482015260448082018490528251808303909101815260649091019091526020810180516001600160e01b031663095ea7b360e01b179052610580908490610701565b505050565b600080546001600160a01b0316905b83518110156106fb5760008482815181106105b1576105b1611090565b60209081029190910101516040516370a0823160e01b81523060048201526001600160a01b03909116906370a082319060240160206040518083038186803b1580156105fc57600080fd5b505afa158015610610573d6000803e3d6000fd5b505050506040513d601f19601f820116820180604052508101906106349190610cd9565b905080156106e857610653838287858151811061034057610340611090565b826001600160a01b0316638340f5498587858151811061067557610675611090565b60209081029190910101516040516001600160e01b031960e085901b1681526001600160a01b0392831660048201529116602482015260448101849052606401600060405180830381600087803b1580156106cf57600080fd5b505af11580156106e3573d6000803e3d6000fd5b505050505b50806106f381611067565b915050610594565b50505050565b6000610756826040518060400160405280602081526020017f5361666545524332303a206c6f772d6c6576656c2063616c6c206661696c6564815250856001600160a01b03166107d39092919063ffffffff16565b80519091501561058057808060200190518101906107749190610a28565b6105805760405162461bcd60e51b815260206004820152602a60248201527f5361666545524332303a204552433230206f7065726174696f6e20646964206e6044820152691bdd081cdd58d8d9595960b21b6064820152608401610115565b60606107e284846000856107ec565b90505b9392505050565b60608247101561084d5760405162461bcd60e51b815260206004820152602660248201527f416464726573733a20696e73756666696369656e742062616c616e636520666f6044820152651c8818d85b1b60d21b6064820152608401610115565b6001600160a01b0385163b6108a45760405162461bcd60e51b815260206004820152601d60248201527f416464726573733a2063616c6c20746f206e6f6e2d636f6e74726163740000006044820152606401610115565b600080866001600160a01b031685876040516108c09190610d54565b60006040518083038185875af1925050503d80600081146108fd576040519150601f19603f3d011682016040523d82523d6000602084013e610902565b606091505b509150915061091282828661091d565b979650505050505050565b6060831561092c5750816107e5565b82511561093c5782518084602001fd5b8160405162461bcd60e51b81526004016101159190610d70565b80356001600160a01b038116811461096d57600080fd5b919050565b600082601f83011261098357600080fd5b8135602061099861099383610fce565b610f9d565b80838252828201915082860187848660051b89010111156109b857600080fd5b60005b858110156109d7578135845292840192908401906001016109bb565b5090979650505050505050565b600060a082840312156109f657600080fd5b50919050565b803560ff8116811461096d57600080fd5b600060208284031215610a1f57600080fd5b6107e582610956565b600060208284031215610a3a57600080fd5b815180151581146107e557600080fd5b6000606082840312156109f657600080fd5b600060608284031215610a6e57600080fd5b6040516060810181811067ffffffffffffffff82111715610a9157610a916110a6565b604052610a9d836109fc565b815260208301356020820152604083013560408201528091505092915050565b600060208284031215610acf57600080fd5b813567ffffffffffffffff811115610ae657600080fd5b8201608081850312156107e557600080fd5b60006020808385031215610b0b57600080fd5b823567ffffffffffffffff80821115610b2357600080fd5b9084019060808287031215610b3757600080fd5b610b3f610f74565b610b4883610956565b81528383013584820152604083013582811115610b6457600080fd5b8301601f81018813610b7557600080fd5b8035610b8361099382610fce565b8082825287820191508784018b898560051b8701011115610ba357600080fd5b600094505b83851015610bcd57610bb981610956565b835260019490940193918801918801610ba8565b5060408501525050506060830135935081841115610bea57600080fd5b610bf687858501610972565b60608201529695505050505050565b600060208284031215610c1757600080fd5b813567ffffffffffffffff811115610c2e57600080fd5b610c3a848285016109e4565b949350505050565b600080600060408486031215610c5757600080fd5b833567ffffffffffffffff80821115610c6f57600080fd5b610c7b878388016109e4565b94506020860135915080821115610c9157600080fd5b818601915086601f830112610ca557600080fd5b813581811115610cb457600080fd5b876020828501011115610cc657600080fd5b6020830194508093505050509250925092565b600060208284031215610ceb57600080fd5b5051919050565b81835260006001600160fb1b03831115610d0b57600080fd5b8260051b8083602087013760009401602001938452509192915050565b60008151808452610d4081602086016020860161103b565b601f01601f19169290920160200192915050565b60008251610d6681846020870161103b565b9190910192915050565b6020815260006107e56020830184610d28565b6020808252603b908201527f536d61727454726164655377617048616e646c65723a3a6f6e6c79526f75746560408201527f723a2063616c6c6572206973206e6f742074686520726f757465720000000000606082015260800190565b6060810160ff610def846109fc565b168252602083013560208301526040830135604083015292915050565b602080825260009060a083016001600160a01b0380610e2a87610956565b1683860152828601356040860152610e456040870187610ff2565b60806060880152928390529160009060c087015b81831015610e805783610e6b86610956565b16815293850193600192909201918501610e59565b610e8d60608a018a610ff2565b898303601f190160808b015296509450610ea8818787610cf2565b9998505050505050505050565b600060a082018783526020878185015260a0604085015281875180845260c086019150828901935060005b81811015610f055784516001600160a01b031683529383019391830191600101610ee0565b50506001600160a01b03969096166060850152505050608001529392505050565b6000808335601e19843603018112610f3d57600080fd5b83018035915067ffffffffffffffff821115610f5857600080fd5b602001915036819003821315610f6d57600080fd5b9250929050565b6040516080810167ffffffffffffffff81118282101715610f9757610f976110a6565b60405290565b604051601f8201601f1916810167ffffffffffffffff81118282101715610fc657610fc66110a6565b604052919050565b600067ffffffffffffffff821115610fe857610fe86110a6565b5060051b60200190565b6000808335601e1984360301811261100957600080fd5b830160208101925035905067ffffffffffffffff81111561102957600080fd5b8060051b3603831315610f6d57600080fd5b60005b8381101561105657818101518382015260200161103e565b838111156106fb5750506000910152565b600060001982141561108957634e487b7160e01b600052601160045260246000fd5b5060010190565b634e487b7160e01b600052603260045260246000fd5b634e487b7160e01b600052604160045260246000fdfea2646970667358221220d787684c5ae3db5ed939ad9edb8612a6eeab2b5c3720b853060f9462d07d8fe464736f6c63430008060033",
  "linkReferences": {},
  "deployedLinkReferences": {}
}