{
  "_format": "hh-sol-artifact-1",
  "contractName": "SmartTradeSwapHandler",
  "sourceName": "contracts/automate/SmartTrade/SwapHandler.sol",
  "abi": [
    {
      "inputs": [
        {
          "internalType": "address",
          "name": "_router",
          "type": "address"
        }
      ],
      "stateMutability": "nonpayable",
      "type": "constructor"
    },
    {
      "inputs": [
        {
          "components": [
            {
              "internalType": "address",
              "name": "exchange",
              "type": "address"
            },
            {
              "internalType": "uint256",
              "name": "amountIn",
              "type": "uint256"
            },
            {
              "internalType": "address[]",
              "name": "path",
              "type": "address[]"
            },
            {
              "internalType": "uint256[]",
              "name": "amountOutMin",
              "type": "uint256[]"
            }
          ],
          "internalType": "struct SmartTradeSwapHandler.OrderData",
          "name": "data",
          "type": "tuple"
        }
      ],
      "name": "callDataEncode",
      "outputs": [
        {
          "internalType": "bytes",
          "name": "",
          "type": "bytes"
        }
      ],
      "stateMutability": "pure",
      "type": "function"
    },
    {
      "inputs": [
        {
          "components": [
            {
              "internalType": "uint8",
              "name": "route",
              "type": "uint8"
            },
            {
              "internalType": "uint256",
              "name": "amountOutMin",
              "type": "uint256"
            },
            {
              "internalType": "uint256",
              "name": "deadline",
              "type": "uint256"
            }
          ],
          "internalType": "struct SmartTradeSwapHandler.Options",
          "name": "data",
          "type": "tuple"
        }
      ],
      "name": "callOptionsEncode",
      "outputs": [
        {
          "internalType": "bytes",
          "name": "",
          "type": "bytes"
        }
      ],
      "stateMutability": "pure",
      "type": "function"
    },
    {
      "inputs": [
        {
          "components": [
            {
              "internalType": "uint256",
              "name": "id",
              "type": "uint256"
            },
            {
              "internalType": "address",
              "name": "owner",
              "type": "address"
            },
            {
              "internalType": "enum SmartTradeRouter.OrderStatus",
              "name": "status",
              "type": "uint8"
            },
            {
              "internalType": "address",
              "name": "handler",
              "type": "address"
            },
            {
              "internalType": "bytes",
              "name": "callData",
              "type": "bytes"
            }
          ],
          "internalType": "struct SmartTradeRouter.Order",
          "name": "order",
          "type": "tuple"
        },
        {
          "internalType": "bytes",
          "name": "_options",
          "type": "bytes"
        }
      ],
      "name": "handle",
      "outputs": [],
      "stateMutability": "nonpayable",
      "type": "function"
    },
    {
      "inputs": [
        {
          "components": [
            {
              "internalType": "uint256",
              "name": "id",
              "type": "uint256"
            },
            {
              "internalType": "address",
              "name": "owner",
              "type": "address"
            },
            {
              "internalType": "enum SmartTradeRouter.OrderStatus",
              "name": "status",
              "type": "uint8"
            },
            {
              "internalType": "address",
              "name": "handler",
              "type": "address"
            },
            {
              "internalType": "bytes",
              "name": "callData",
              "type": "bytes"
            }
          ],
          "internalType": "struct SmartTradeRouter.Order",
          "name": "order",
          "type": "tuple"
        }
      ],
      "name": "onOrderCreated",
      "outputs": [],
      "stateMutability": "view",
      "type": "function"
    },
    {
      "inputs": [],
      "name": "router",
      "outputs": [
        {
          "internalType": "address",
          "name": "",
          "type": "address"
        }
      ],
      "stateMutability": "view",
      "type": "function"
    }
  ],
  "bytecode": "0x608060405234801561001057600080fd5b5060405161137438038061137483398101604081905261002f916100e0565b6001600160a01b0381166100bb5760405162461bcd60e51b815260206004820152604360248201527f536d61727454726164655377617048616e646c65723a3a636f6e73747275637460448201527f6f723a20696e76616c696420726f7574657220636f6e7472616374206164647260648201526265737360e81b608482015260a40160405180910390fd5b600080546001600160a01b0319166001600160a01b0392909216919091179055610110565b6000602082840312156100f257600080fd5b81516001600160a01b038116811461010957600080fd5b9392505050565b6112558061011f6000396000f3fe608060405234801561001057600080fd5b50600436106100575760003560e01c80630f96a8b41461005c57806323cb82471461007157806389f88bf514610084578063efe2204a146100ad578063f887ea40146100c0575b600080fd5b61006f61006a366004610cab565b6100eb565b005b61006f61007f366004610ce8565b61013c565b610097610092366004610af0565b61045c565b6040516100a49190610e8a565b60405180910390f35b6100976100bb366004610b63565b610485565b6000546100d3906001600160a01b031681565b6040516001600160a01b0390911681526020016100a4565b6000546001600160a01b0316331461011e5760405162461bcd60e51b815260040161011590610e9d565b60405180910390fd5b61012b6080820182611085565b8101906101389190610b9e565b5050565b6000546001600160a01b031633146101665760405162461bcd60e51b815260040161011590610e9d565b60006101756080850185611085565b8101906101829190610b9e565b9050600061019283850185610b02565b90506000808260200151116101cb578260600151826000015160ff16815181106101be576101be6111f3565b60200260200101516101d1565b81602001515b9050808360600151836000015160ff16815181106101f1576101f16111f3565b6020026020010151111561026d5760405162461bcd60e51b815260206004820152603c60248201527f536d61727454726164655377617048616e646c65723a3a68616e646c653a206960448201527f6e76616c696420616d6f756e74206f7574206d696e206f7074696f6e000000006064820152608401610115565b6040805160018082528183019092526000916020808301908036833701905050905083604001516000815181106102a6576102a66111f3565b6020026020010151816000815181106102c1576102c16111f3565b6001600160a01b039290921660209283029190910190910152604080516001808252818301909252600091816020016020820280368337019050509050846020015181600081518110610316576103166111f3565b602090810291909101015260005460405163328dd6e560e21b81526001600160a01b039091169063ca375b9490610358908b3590869086903090600401611004565b600060405180830381600087803b15801561037257600080fd5b505af1158015610386573d6000803e3d6000fd5b505050506103ce8560000151866020015187604001516000815181106103ae576103ae6111f3565b60200260200101516001600160a01b03166104989092919063ffffffff16565b84600001516001600160a01b0316635c11d79586602001518588604001513089604001516040518663ffffffff1660e01b8152600401610412959493929190611049565b600060405180830381600087803b15801561042c57600080fd5b505af1158015610440573d6000803e3d6000fd5b505050506104528886604001516105e3565b5050505050505050565b60608160405160200161046f9190610efa565b6040516020818303038152906040529050919050565b60608160405160200161046f9190610f26565b8015806105215750604051636eb1769f60e11b81523060048201526001600160a01b03838116602483015284169063dd62ed3e9060440160206040518083038186803b1580156104e757600080fd5b505afa1580156104fb573d6000803e3d6000fd5b505050506040513d601f19601f8201168201806040525081019061051f9190610d7f565b155b61058c5760405162461bcd60e51b815260206004820152603660248201527f5361666545524332303a20617070726f76652066726f6d206e6f6e2d7a65726f60448201527520746f206e6f6e2d7a65726f20616c6c6f77616e636560501b6064820152608401610115565b604080516001600160a01b038416602482015260448082018490528251808303909101815260649091019091526020810180516001600160e01b031663095ea7b360e01b1790526105de9084906107c2565b505050565b6000805482516001600160a01b03909116919067ffffffffffffffff81111561060e5761060e611209565b604051908082528060200260200182016040528015610637578160200160208202803683370190505b50905060005b835181101561076257838181518110610658576106586111f3565b60209081029190910101516040516370a0823160e01b81523060048201526001600160a01b03909116906370a082319060240160206040518083038186803b1580156106a357600080fd5b505afa1580156106b7573d6000803e3d6000fd5b505050506040513d601f19601f820116820180604052508101906106db9190610d7f565b8282815181106106ed576106ed6111f3565b60200260200101818152505081818151811061070b5761070b6111f3565b60200260200101516000141561072057610750565b61075083838381518110610736576107366111f3565b60200260200101518684815181106103ae576103ae6111f3565b8061075a816111ca565b91505061063d565b50604051630d7a41b760e01b81526001600160a01b03831690630d7a41b7906107949087359087908690600401610fcf565b600060405180830381600087803b1580156107ae57600080fd5b505af1158015610452573d6000803e3d6000fd5b6000610817826040518060400160405280602081526020017f5361666545524332303a206c6f772d6c6576656c2063616c6c206661696c6564815250856001600160a01b03166108949092919063ffffffff16565b8051909150156105de57808060200190518101906108359190610ace565b6105de5760405162461bcd60e51b815260206004820152602a60248201527f5361666545524332303a204552433230206f7065726174696f6e20646964206e6044820152691bdd081cdd58d8d9595960b21b6064820152608401610115565b60606108a384846000856108ad565b90505b9392505050565b60608247101561090e5760405162461bcd60e51b815260206004820152602660248201527f416464726573733a20696e73756666696369656e742062616c616e636520666f6044820152651c8818d85b1b60d21b6064820152608401610115565b6001600160a01b0385163b6109655760405162461bcd60e51b815260206004820152601d60248201527f416464726573733a2063616c6c20746f206e6f6e2d636f6e74726163740000006044820152606401610115565b600080866001600160a01b031685876040516109819190610e6e565b60006040518083038185875af1925050503d80600081146109be576040519150601f19603f3d011682016040523d82523d6000602084013e6109c3565b606091505b50915091506109d38282866109de565b979650505050505050565b606083156109ed5750816108a6565b8251156109fd5782518084602001fd5b8160405162461bcd60e51b81526004016101159190610e8a565b80356001600160a01b0381168114610a2e57600080fd5b919050565b600082601f830112610a4457600080fd5b81356020610a59610a548361112d565b6110fc565b80838252828201915082860187848660051b8901011115610a7957600080fd5b60005b85811015610a9857813584529284019290840190600101610a7c565b5090979650505050505050565b600060a08284031215610ab757600080fd5b50919050565b803560ff81168114610a2e57600080fd5b600060208284031215610ae057600080fd5b815180151581146108a657600080fd5b600060608284031215610ab757600080fd5b600060608284031215610b1457600080fd5b6040516060810181811067ffffffffffffffff82111715610b3757610b37611209565b604052610b4383610abd565b815260208301356020820152604083013560408201528091505092915050565b600060208284031215610b7557600080fd5b813567ffffffffffffffff811115610b8c57600080fd5b8201608081850312156108a657600080fd5b60006020808385031215610bb157600080fd5b823567ffffffffffffffff80821115610bc957600080fd5b9084019060808287031215610bdd57600080fd5b610be56110d3565b610bee83610a17565b81528383013584820152604083013582811115610c0a57600080fd5b8301601f81018813610c1b57600080fd5b8035610c29610a548261112d565b8082825287820191508784018b898560051b8701011115610c4957600080fd5b600094505b83851015610c7357610c5f81610a17565b835260019490940193918801918801610c4e565b5060408501525050506060830135935081841115610c9057600080fd5b610c9c87858501610a33565b60608201529695505050505050565b600060208284031215610cbd57600080fd5b813567ffffffffffffffff811115610cd457600080fd5b610ce084828501610aa5565b949350505050565b600080600060408486031215610cfd57600080fd5b833567ffffffffffffffff80821115610d1557600080fd5b610d2187838801610aa5565b94506020860135915080821115610d3757600080fd5b818601915086601f830112610d4b57600080fd5b813581811115610d5a57600080fd5b876020828501011115610d6c57600080fd5b6020830194508093505050509250925092565b600060208284031215610d9157600080fd5b5051919050565b600081518084526020808501945080840160005b83811015610dd15781516001600160a01b031687529582019590820190600101610dac565b509495945050505050565b81835260006001600160fb1b03831115610df557600080fd5b8260051b8083602087013760009401602001938452509192915050565b600081518084526020808501945080840160005b83811015610dd157815187529582019590820190600101610e26565b60008151808452610e5a81602086016020860161119a565b601f01601f19169290920160200192915050565b60008251610e8081846020870161119a565b9190910192915050565b6020815260006108a66020830184610e42565b6020808252603b908201527f536d61727454726164655377617048616e646c65723a3a6f6e6c79526f75746560408201527f723a2063616c6c6572206973206e6f742074686520726f757465720000000000606082015260800190565b6060810160ff610f0984610abd565b168252602083013560208301526040830135604083015292915050565b602080825260009060a083016001600160a01b0380610f4487610a17565b1683860152828601356040860152610f5f6040870187611151565b60806060880152928390529160009060c087015b81831015610f9a5783610f8586610a17565b16815293850193600192909201918501610f73565b610fa760608a018a611151565b898303601f190160808b015296509450610fc2818787610ddc565b9998505050505050505050565b838152606060208201526000610fe86060830185610d98565b8281036040840152610ffa8185610e12565b9695505050505050565b84815260806020820152600061101d6080830186610d98565b828103604084015261102f8186610e12565b91505060018060a01b038316606083015295945050505050565b85815284602082015260a06040820152600061106860a0830186610d98565b6001600160a01b0394909416606083015250608001529392505050565b6000808335601e1984360301811261109c57600080fd5b83018035915067ffffffffffffffff8211156110b757600080fd5b6020019150368190038213156110cc57600080fd5b9250929050565b6040516080810167ffffffffffffffff811182821017156110f6576110f6611209565b60405290565b604051601f8201601f1916810167ffffffffffffffff8111828210171561112557611125611209565b604052919050565b600067ffffffffffffffff82111561114757611147611209565b5060051b60200190565b6000808335601e1984360301811261116857600080fd5b830160208101925035905067ffffffffffffffff81111561118857600080fd5b8060051b36038313156110cc57600080fd5b60005b838110156111b557818101518382015260200161119d565b838111156111c4576000848401525b50505050565b60006000198214156111ec57634e487b7160e01b600052601160045260246000fd5b5060010190565b634e487b7160e01b600052603260045260246000fd5b634e487b7160e01b600052604160045260246000fdfea2646970667358221220e53d874b83742fd83b1c0b194208a43c8d9e88324c0a42ff7500c33ee0d7141664736f6c63430008060033",
  "linkReferences": {},
  "deployedLinkReferences": {}
}