{
  "_format": "hh-sol-artifact-1",
  "contractName": "PriceFeedMock",
  "sourceName": "contracts/mock/PriceFeedMock.sol",
  "abi": [
    {
      "inputs": [
        {
          "internalType": "uint8",
          "name": "_decimals",
          "type": "uint8"
        },
        {
          "internalType": "string",
          "name": "_description",
          "type": "string"
        },
        {
          "internalType": "uint256",
          "name": "_version",
          "type": "uint256"
        }
      ],
      "stateMutability": "nonpayable",
      "type": "constructor"
    },
    {
      "anonymous": false,
      "inputs": [
        {
          "indexed": true,
          "internalType": "address",
          "name": "previousOwner",
          "type": "address"
        },
        {
          "indexed": true,
          "internalType": "address",
          "name": "newOwner",
          "type": "address"
        }
      ],
      "name": "OwnershipTransferred",
      "type": "event"
    },
    {
      "inputs": [
        {
          "internalType": "int256",
          "name": "answer",
          "type": "int256"
        }
      ],
      "name": "addRoundData",
      "outputs": [],
      "stateMutability": "nonpayable",
      "type": "function"
    },
    {
      "inputs": [],
      "name": "decimals",
      "outputs": [
        {
          "internalType": "uint8",
          "name": "",
          "type": "uint8"
        }
      ],
      "stateMutability": "view",
      "type": "function"
    },
    {
      "inputs": [],
      "name": "description",
      "outputs": [
        {
          "internalType": "string",
          "name": "",
          "type": "string"
        }
      ],
      "stateMutability": "view",
      "type": "function"
    },
    {
      "inputs": [
        {
          "internalType": "uint80",
          "name": "_roundId",
          "type": "uint80"
        }
      ],
      "name": "getRoundData",
      "outputs": [
        {
          "internalType": "uint80",
          "name": "roundId",
          "type": "uint80"
        },
        {
          "internalType": "int256",
          "name": "answer",
          "type": "int256"
        },
        {
          "internalType": "uint256",
          "name": "startedAt",
          "type": "uint256"
        },
        {
          "internalType": "uint256",
          "name": "updatedAt",
          "type": "uint256"
        },
        {
          "internalType": "uint80",
          "name": "answeredInRound",
          "type": "uint80"
        }
      ],
      "stateMutability": "view",
      "type": "function"
    },
    {
      "inputs": [],
      "name": "latestRound",
      "outputs": [
        {
          "internalType": "uint80",
          "name": "",
          "type": "uint80"
        }
      ],
      "stateMutability": "view",
      "type": "function"
    },
    {
      "inputs": [],
      "name": "latestRoundData",
      "outputs": [
        {
          "internalType": "uint80",
          "name": "roundId",
          "type": "uint80"
        },
        {
          "internalType": "int256",
          "name": "answer",
          "type": "int256"
        },
        {
          "internalType": "uint256",
          "name": "startedAt",
          "type": "uint256"
        },
        {
          "internalType": "uint256",
          "name": "updatedAt",
          "type": "uint256"
        },
        {
          "internalType": "uint80",
          "name": "answeredInRound",
          "type": "uint80"
        }
      ],
      "stateMutability": "view",
      "type": "function"
    },
    {
      "inputs": [],
      "name": "owner",
      "outputs": [
        {
          "internalType": "address",
          "name": "",
          "type": "address"
        }
      ],
      "stateMutability": "view",
      "type": "function"
    },
    {
      "inputs": [],
      "name": "renounceOwnership",
      "outputs": [],
      "stateMutability": "nonpayable",
      "type": "function"
    },
    {
      "inputs": [
        {
          "internalType": "address",
          "name": "newOwner",
          "type": "address"
        }
      ],
      "name": "transferOwnership",
      "outputs": [],
      "stateMutability": "nonpayable",
      "type": "function"
    },
    {
      "inputs": [],
      "name": "version",
      "outputs": [
        {
          "internalType": "uint256",
          "name": "",
          "type": "uint256"
        }
      ],
      "stateMutability": "view",
      "type": "function"
    }
  ],
  "bytecode": "0x608060405234801561001057600080fd5b506040516108d73803806108d783398101604081905261002f91610158565b6100383361006f565b6000805460ff60a01b1916600160a01b60ff86160217905581516100639060019060208501906100bf565b506002555061029e9050565b600080546001600160a01b038381166001600160a01b0319831681178455604051919092169283917f8be0079c531659141344cd1fd0a4f28419497f9722a3daafe3b4186f6b6457e09190a35050565b8280546100cb9061024d565b90600052602060002090601f0160209004810192826100ed5760008555610133565b82601f1061010657805160ff1916838001178555610133565b82800160010185558215610133579182015b82811115610133578251825591602001919060010190610118565b5061013f929150610143565b5090565b5b8082111561013f5760008155600101610144565b60008060006060848603121561016d57600080fd5b835160ff8116811461017e57600080fd5b602085810151919450906001600160401b038082111561019d57600080fd5b818701915087601f8301126101b157600080fd5b8151818111156101c3576101c3610288565b604051601f8201601f19908116603f011681019083821181831017156101eb576101eb610288565b816040528281528a8684870101111561020357600080fd5b600093505b828410156102255784840186015181850187015292850192610208565b828411156102365760008684830101525b809750505050505050604084015190509250925092565b600181811c9082168061026157607f821691505b6020821081141561028257634e487b7160e01b600052602260045260246000fd5b50919050565b634e487b7160e01b600052604160045260246000fd5b61062a806102ad6000396000f3fe608060405234801561001057600080fd5b506004361061009e5760003560e01c80637284e416116100665780637284e4161461012d5780638da5cb5b146101425780639a6fc8f51461015d578063f2fde38b146101de578063feaf968c146101f157600080fd5b80630f63efaa146100a3578063313ce567146100b857806354fd4d50146100e3578063668a0f02146100fa578063715018a614610125575b600080fd5b6100b66100b13660046104ed565b610231565b005b6000546100cc90600160a01b900460ff1681565b60405160ff90911681526020015b60405180910390f35b6100ec60025481565b6040519081526020016100da565b60045461010d906001600160501b031681565b6040516001600160501b0390911681526020016100da565b6100b66102f3565b610135610307565b6040516100da919061052f565b6000546040516001600160a01b0390911681526020016100da565b6101aa61016b366004610506565b6001600160501b039081166000908152600360208190526040909120805460018201546002830154938301546004909301549185169590949190911690565b604080516001600160501b03968716815260208101959095528401929092526060830152909116608082015260a0016100da565b6100b66101ec3660046104bd565b610395565b600480546001600160501b0390811660009081526003602081905260409091208054600182015460028301549383015492909501549084169493166101aa565b610239610413565b600480546001600160501b0316906000610252836105bf565b82546101009290920a6001600160501b038181021990931691831602179091556040805160a08101825260048054841680835260208084019788524284860181815260608601918252608086018481526000948552600393849052969093209451855469ffffffffffffffffffff19908116918916919091178655985160018601559151600285015590519083015591519101805490941691161790915550565b6102fb610413565b610305600061046d565b565b6001805461031490610584565b80601f016020809104026020016040519081016040528092919081815260200182805461034090610584565b801561038d5780601f106103625761010080835404028352916020019161038d565b820191906000526020600020905b81548152906001019060200180831161037057829003601f168201915b505050505081565b61039d610413565b6001600160a01b0381166104075760405162461bcd60e51b815260206004820152602660248201527f4f776e61626c653a206e6577206f776e657220697320746865207a65726f206160448201526564647265737360d01b60648201526084015b60405180910390fd5b6104108161046d565b50565b6000546001600160a01b031633146103055760405162461bcd60e51b815260206004820181905260248201527f4f776e61626c653a2063616c6c6572206973206e6f7420746865206f776e657260448201526064016103fe565b600080546001600160a01b038381166001600160a01b0319831681178455604051919092169283917f8be0079c531659141344cd1fd0a4f28419497f9722a3daafe3b4186f6b6457e09190a35050565b6000602082840312156104cf57600080fd5b81356001600160a01b03811681146104e657600080fd5b9392505050565b6000602082840312156104ff57600080fd5b5035919050565b60006020828403121561051857600080fd5b81356001600160501b03811681146104e657600080fd5b600060208083528351808285015260005b8181101561055c57858101830151858201604001528201610540565b8181111561056e576000604083870101525b50601f01601f1916929092016040019392505050565b600181811c9082168061059857607f821691505b602082108114156105b957634e487b7160e01b600052602260045260246000fd5b50919050565b60006001600160501b03808316818114156105ea57634e487b7160e01b600052601160045260246000fd5b600101939250505056fea26469706673582212204478b9a16da4d91f75a25a9b37f8a2ef8765c0494c33509e405a0cfd71549c0264736f6c63430008060033",
  "linkReferences": {},
  "deployedLinkReferences": {}
}