{
  "_format": "hh-sol-artifact-1",
  "contractName": "BalanceConsumerMock",
  "sourceName": "contracts/mock/BalanceConsumerMock.sol",
  "abi": [
    {
      "inputs": [
        {
          "internalType": "address",
          "name": "_balance",
          "type": "address"
        }
      ],
      "stateMutability": "nonpayable",
      "type": "constructor"
    },
    {
      "inputs": [],
      "name": "balance",
      "outputs": [
        {
          "internalType": "contract Balance",
          "name": "",
          "type": "address"
        }
      ],
      "stateMutability": "view",
      "type": "function"
    },
    {
      "inputs": [
        {
          "internalType": "address",
          "name": "account",
          "type": "address"
        },
        {
          "internalType": "uint256",
          "name": "gasFee",
          "type": "uint256"
        },
        {
          "internalType": "uint256",
          "name": "protocolFee",
          "type": "uint256"
        },
        {
          "internalType": "string",
          "name": "description",
          "type": "string"
        }
      ],
      "name": "consume",
      "outputs": [],
      "stateMutability": "nonpayable",
      "type": "function"
    }
  ],
  "bytecode": "0x608060405234801561001057600080fd5b5060405161035c38038061035c83398101604081905261002f91610054565b600080546001600160a01b0319166001600160a01b0392909216919091179055610084565b60006020828403121561006657600080fd5b81516001600160a01b038116811461007d57600080fd5b9392505050565b6102c9806100936000396000f3fe608060405234801561001057600080fd5b50600436106100365760003560e01c8063b69ef8a81461003b578063f2e04f611461006a575b600080fd5b60005461004e906001600160a01b031681565b6040516001600160a01b03909116815260200160405180910390f35b61007d61007836600461010e565b61007f565b005b60005460405163e578a22560e01b81526001600160a01b039091169063e578a225906100b590879087908790879060040161020a565b602060405180830381600087803b1580156100cf57600080fd5b505af11580156100e3573d6000803e3d6000fd5b505050506040513d601f19601f8201168201806040525081019061010791906101f1565b5050505050565b6000806000806080858703121561012457600080fd5b84356001600160a01b038116811461013b57600080fd5b93506020850135925060408501359150606085013567ffffffffffffffff8082111561016657600080fd5b818701915087601f83011261017a57600080fd5b81358181111561018c5761018c61027d565b604051601f8201601f19908116603f011681019083821181831017156101b4576101b461027d565b816040528281528a60208487010111156101cd57600080fd5b82602086016020830137600060208483010152809550505050505092959194509250565b60006020828403121561020357600080fd5b5051919050565b60018060a01b038516815260006020858184015284604084015260806060840152835180608085015260005b818110156102525785810183015185820160a001528201610236565b8181111561026457600060a083870101525b50601f01601f19169290920160a0019695505050505050565b634e487b7160e01b600052604160045260246000fdfea26469706673582212204f252b22556aa9fbe601358ceb9a475146bb44f4d39db4abd369505f02f7c5e364736f6c63430008060033",
  "linkReferences": {},
  "deployedLinkReferences": {}
}